{
  "address": "0x5C2a8D9246777eE4501B6C426a8B8C7635C7b5b5",
  "abi": [
    {
      "inputs": [
        {
          "internalType": "address",
          "name": "_owner",
          "type": "address"
        },
        {
          "internalType": "uint256",
          "name": "_chainId",
          "type": "uint256"
        },
        {
          "internalType": "address",
          "name": "_paymentVerifierRegistry",
          "type": "address"
        },
        {
          "internalType": "address",
          "name": "_dustRecipient",
          "type": "address"
        },
        {
          "internalType": "uint256",
          "name": "_dustThreshold",
          "type": "uint256"
        },
        {
          "internalType": "uint256",
          "name": "_maxIntentsPerDeposit",
          "type": "uint256"
        },
        {
          "internalType": "uint256",
          "name": "_intentExpirationPeriod",
          "type": "uint256"
        }
      ],
      "stateMutability": "nonpayable",
      "type": "constructor"
    },
    {
      "inputs": [
        {
          "internalType": "uint256",
          "name": "amount",
          "type": "uint256"
        },
        {
          "internalType": "uint256",
          "name": "max",
          "type": "uint256"
        }
      ],
      "name": "AmountAboveMax",
      "type": "error"
    },
    {
      "inputs": [
        {
          "internalType": "uint256",
          "name": "amount",
          "type": "uint256"
        },
        {
          "internalType": "uint256",
          "name": "min",
          "type": "uint256"
        }
      ],
      "name": "AmountBelowMin",
      "type": "error"
    },
    {
      "inputs": [
        {
          "internalType": "uint256",
          "name": "requested",
          "type": "uint256"
        },
        {
          "internalType": "uint256",
          "name": "available",
          "type": "uint256"
        }
      ],
      "name": "AmountExceedsAvailable",
      "type": "error"
    },
    {
      "inputs": [
        {
          "internalType": "uint256",
          "name": "length1",
          "type": "uint256"
        },
        {
          "internalType": "uint256",
          "name": "length2",
          "type": "uint256"
        }
      ],
      "name": "ArrayLengthMismatch",
      "type": "error"
    },
    {
      "inputs": [
        {
          "internalType": "bytes32",
          "name": "paymentMethod",
          "type": "bytes32"
        },
        {
          "internalType": "bytes32",
          "name": "currency",
          "type": "bytes32"
        }
      ],
      "name": "CurrencyAlreadyExists",
      "type": "error"
    },
    {
      "inputs": [
        {
          "internalType": "bytes32",
          "name": "paymentMethod",
          "type": "bytes32"
        },
        {
          "internalType": "bytes32",
          "name": "currency",
          "type": "bytes32"
        }
      ],
      "name": "CurrencyNotFound",
      "type": "error"
    },
    {
      "inputs": [
        {
          "internalType": "bytes32",
          "name": "paymentMethod",
          "type": "bytes32"
        },
        {
          "internalType": "bytes32",
          "name": "currency",
          "type": "bytes32"
        }
      ],
      "name": "CurrencyNotSupported",
      "type": "error"
    },
    {
      "inputs": [
        {
          "internalType": "uint256",
          "name": "depositId",
          "type": "uint256"
        }
      ],
      "name": "DelegateNotFound",
      "type": "error"
    },
    {
      "inputs": [
        {
          "internalType": "uint256",
          "name": "depositId",
          "type": "uint256"
        },
        {
          "internalType": "bool",
          "name": "currentState",
          "type": "bool"
        }
      ],
      "name": "DepositAlreadyInState",
      "type": "error"
    },
    {
      "inputs": [
        {
          "internalType": "uint256",
          "name": "depositId",
          "type": "uint256"
        }
      ],
      "name": "DepositNotAcceptingIntents",
      "type": "error"
    },
    {
      "inputs": [
        {
          "internalType": "uint256",
          "name": "depositId",
          "type": "uint256"
        }
      ],
      "name": "DepositNotFound",
      "type": "error"
    },
    {
      "inputs": [],
      "name": "EmptyPayeeDetails",
      "type": "error"
    },
    {
      "inputs": [
        {
          "internalType": "uint256",
          "name": "depositId",
          "type": "uint256"
        },
        {
          "internalType": "uint256",
          "name": "available",
          "type": "uint256"
        },
        {
          "internalType": "uint256",
          "name": "required",
          "type": "uint256"
        }
      ],
      "name": "InsufficientDepositLiquidity",
      "type": "error"
    },
    {
      "inputs": [
        {
          "internalType": "uint256",
          "name": "depositId",
          "type": "uint256"
        },
        {
          "internalType": "bytes32",
          "name": "intentHash",
          "type": "bytes32"
        }
      ],
      "name": "IntentAlreadyExists",
      "type": "error"
    },
    {
      "inputs": [
        {
          "internalType": "bytes32",
          "name": "intentHash",
          "type": "bytes32"
        }
      ],
      "name": "IntentNotFound",
      "type": "error"
    },
    {
      "inputs": [
        {
          "internalType": "uint256",
          "name": "min",
          "type": "uint256"
        },
        {
          "internalType": "uint256",
          "name": "max",
          "type": "uint256"
        }
      ],
      "name": "InvalidRange",
      "type": "error"
    },
    {
      "inputs": [
        {
          "internalType": "uint256",
          "name": "depositId",
          "type": "uint256"
        },
        {
          "internalType": "uint256",
          "name": "current",
          "type": "uint256"
        },
        {
          "internalType": "uint256",
          "name": "max",
          "type": "uint256"
        }
      ],
      "name": "MaxIntentsExceeded",
      "type": "error"
    },
    {
      "inputs": [
        {
          "internalType": "uint256",
          "name": "depositId",
          "type": "uint256"
        },
        {
          "internalType": "bytes32",
          "name": "paymentMethod",
          "type": "bytes32"
        }
      ],
      "name": "PaymentMethodAlreadyExists",
      "type": "error"
    },
    {
      "inputs": [
        {
          "internalType": "uint256",
          "name": "depositId",
          "type": "uint256"
        },
        {
          "internalType": "bytes32",
          "name": "paymentMethod",
          "type": "bytes32"
        }
      ],
      "name": "PaymentMethodNotActive",
      "type": "error"
    },
    {
      "inputs": [
        {
          "internalType": "uint256",
          "name": "depositId",
          "type": "uint256"
        },
        {
          "internalType": "bytes32",
          "name": "paymentMethod",
          "type": "bytes32"
        }
      ],
      "name": "PaymentMethodNotListed",
      "type": "error"
    },
    {
      "inputs": [
        {
          "internalType": "bytes32",
          "name": "paymentMethod",
          "type": "bytes32"
        }
      ],
      "name": "PaymentMethodNotWhitelisted",
      "type": "error"
    },
    {
      "inputs": [
        {
          "internalType": "address",
          "name": "caller",
          "type": "address"
        },
        {
          "internalType": "address",
          "name": "authorized",
          "type": "address"
        }
      ],
      "name": "UnauthorizedCaller",
      "type": "error"
    },
    {
      "inputs": [
        {
          "internalType": "address",
          "name": "caller",
          "type": "address"
        },
        {
          "internalType": "address",
          "name": "owner",
          "type": "address"
        },
        {
          "internalType": "address",
          "name": "delegate",
          "type": "address"
        }
      ],
      "name": "UnauthorizedCallerOrDelegate",
      "type": "error"
    },
    {
      "inputs": [],
      "name": "ZeroAddress",
      "type": "error"
    },
    {
      "inputs": [],
      "name": "ZeroConversionRate",
      "type": "error"
    },
    {
      "inputs": [],
      "name": "ZeroMinValue",
      "type": "error"
    },
    {
      "inputs": [],
      "name": "ZeroValue",
      "type": "error"
    },
    {
      "anonymous": false,
      "inputs": [
        {
          "indexed": true,
          "internalType": "uint256",
          "name": "depositId",
          "type": "uint256"
        },
        {
          "indexed": false,
          "internalType": "bool",
          "name": "acceptingIntents",
          "type": "bool"
        }
      ],
      "name": "DepositAcceptingIntentsUpdated",
      "type": "event"
    },
    {
      "anonymous": false,
      "inputs": [
        {
          "indexed": false,
          "internalType": "uint256",
          "name": "depositId",
          "type": "uint256"
        },
        {
          "indexed": false,
          "internalType": "address",
          "name": "depositor",
          "type": "address"
        }
      ],
      "name": "DepositClosed",
      "type": "event"
    },
    {
      "anonymous": false,
      "inputs": [
        {
          "indexed": true,
          "internalType": "uint256",
          "name": "depositId",
          "type": "uint256"
        },
        {
          "indexed": true,
          "internalType": "bytes32",
          "name": "paymentMethod",
          "type": "bytes32"
        },
        {
          "indexed": true,
          "internalType": "bytes32",
          "name": "currency",
          "type": "bytes32"
        },
        {
          "indexed": false,
          "internalType": "uint256",
          "name": "minConversionRate",
          "type": "uint256"
        }
      ],
      "name": "DepositCurrencyAdded",
      "type": "event"
    },
    {
      "anonymous": false,
      "inputs": [
        {
          "indexed": true,
          "internalType": "uint256",
          "name": "depositId",
          "type": "uint256"
        },
        {
          "indexed": true,
          "internalType": "address",
          "name": "depositor",
          "type": "address"
        }
      ],
      "name": "DepositDelegateRemoved",
      "type": "event"
    },
    {
      "anonymous": false,
      "inputs": [
        {
          "indexed": true,
          "internalType": "uint256",
          "name": "depositId",
          "type": "uint256"
        },
        {
          "indexed": true,
          "internalType": "address",
          "name": "depositor",
          "type": "address"
        },
        {
          "indexed": true,
          "internalType": "address",
          "name": "delegate",
          "type": "address"
        }
      ],
      "name": "DepositDelegateSet",
      "type": "event"
    },
    {
      "anonymous": false,
      "inputs": [
        {
          "indexed": true,
          "internalType": "uint256",
          "name": "depositId",
          "type": "uint256"
        },
        {
          "indexed": true,
          "internalType": "address",
          "name": "depositor",
          "type": "address"
        },
        {
          "indexed": false,
          "internalType": "uint256",
          "name": "amount",
          "type": "uint256"
        }
      ],
      "name": "DepositFundsAdded",
      "type": "event"
    },
    {
      "anonymous": false,
      "inputs": [
        {
          "indexed": true,
          "internalType": "uint256",
          "name": "depositId",
          "type": "uint256"
        },
        {
          "components": [
            {
              "internalType": "uint256",
              "name": "min",
              "type": "uint256"
            },
            {
              "internalType": "uint256",
              "name": "max",
              "type": "uint256"
            }
          ],
          "indexed": false,
          "internalType": "struct IEscrow.Range",
          "name": "intentAmountRange",
          "type": "tuple"
        }
      ],
      "name": "DepositIntentAmountRangeUpdated",
      "type": "event"
    },
    {
      "anonymous": false,
      "inputs": [
        {
          "indexed": true,
          "internalType": "uint256",
          "name": "depositId",
          "type": "uint256"
        },
        {
          "indexed": true,
          "internalType": "bytes32",
          "name": "paymentMethod",
          "type": "bytes32"
        },
        {
          "indexed": true,
          "internalType": "bytes32",
          "name": "currency",
          "type": "bytes32"
        },
        {
          "indexed": false,
          "internalType": "uint256",
          "name": "newMinConversionRate",
          "type": "uint256"
        }
      ],
      "name": "DepositMinConversionRateUpdated",
      "type": "event"
    },
    {
      "anonymous": false,
      "inputs": [
        {
          "indexed": true,
          "internalType": "uint256",
          "name": "depositId",
          "type": "uint256"
        },
        {
          "indexed": true,
          "internalType": "bytes32",
          "name": "paymentMethod",
          "type": "bytes32"
        },
        {
          "indexed": false,
          "internalType": "bool",
          "name": "active",
          "type": "bool"
        }
      ],
      "name": "DepositPaymentMethodActiveUpdated",
      "type": "event"
    },
    {
      "anonymous": false,
      "inputs": [
        {
          "indexed": true,
          "internalType": "uint256",
          "name": "depositId",
          "type": "uint256"
        },
        {
          "indexed": true,
          "internalType": "bytes32",
          "name": "paymentMethod",
          "type": "bytes32"
        },
        {
          "indexed": true,
          "internalType": "bytes32",
          "name": "payeeDetails",
          "type": "bytes32"
        },
        {
          "indexed": false,
          "internalType": "address",
          "name": "intentGatingService",
          "type": "address"
        }
      ],
      "name": "DepositPaymentMethodAdded",
      "type": "event"
    },
    {
      "anonymous": false,
      "inputs": [
        {
          "indexed": true,
          "internalType": "uint256",
          "name": "depositId",
          "type": "uint256"
        },
        {
          "indexed": true,
          "internalType": "address",
          "name": "depositor",
          "type": "address"
        },
        {
          "indexed": true,
          "internalType": "contract IERC20",
          "name": "token",
          "type": "address"
        },
        {
          "indexed": false,
          "internalType": "uint256",
          "name": "amount",
          "type": "uint256"
        },
        {
          "components": [
            {
              "internalType": "uint256",
              "name": "min",
              "type": "uint256"
            },
            {
              "internalType": "uint256",
              "name": "max",
              "type": "uint256"
            }
          ],
          "indexed": false,
          "internalType": "struct IEscrow.Range",
          "name": "intentAmountRange",
          "type": "tuple"
        },
        {
          "indexed": false,
          "internalType": "address",
          "name": "delegate",
          "type": "address"
        },
        {
          "indexed": false,
          "internalType": "address",
          "name": "intentGuardian",
          "type": "address"
        }
      ],
      "name": "DepositReceived",
      "type": "event"
    },
    {
      "anonymous": false,
      "inputs": [
        {
          "indexed": true,
          "internalType": "uint256",
          "name": "depositId",
          "type": "uint256"
        },
        {
          "indexed": false,
          "internalType": "bool",
          "name": "retainOnEmpty",
          "type": "bool"
        }
      ],
      "name": "DepositRetainOnEmptyUpdated",
      "type": "event"
    },
    {
      "anonymous": false,
      "inputs": [
        {
          "indexed": true,
          "internalType": "uint256",
          "name": "depositId",
          "type": "uint256"
        },
        {
          "indexed": true,
          "internalType": "address",
          "name": "depositor",
          "type": "address"
        },
        {
          "indexed": false,
          "internalType": "uint256",
          "name": "amount",
          "type": "uint256"
        }
      ],
      "name": "DepositWithdrawn",
      "type": "event"
    },
    {
      "anonymous": false,
      "inputs": [
        {
          "indexed": true,
          "internalType": "uint256",
          "name": "depositId",
          "type": "uint256"
        },
        {
          "indexed": false,
          "internalType": "uint256",
          "name": "dustAmount",
          "type": "uint256"
        },
        {
          "indexed": true,
          "internalType": "address",
          "name": "dustRecipient",
          "type": "address"
        }
      ],
      "name": "DustCollected",
      "type": "event"
    },
    {
      "anonymous": false,
      "inputs": [
        {
          "indexed": true,
          "internalType": "address",
          "name": "dustRecipient",
          "type": "address"
        }
      ],
      "name": "DustRecipientUpdated",
      "type": "event"
    },
    {
      "anonymous": false,
      "inputs": [
        {
          "indexed": false,
          "internalType": "uint256",
          "name": "dustThreshold",
          "type": "uint256"
        }
      ],
      "name": "DustThresholdUpdated",
      "type": "event"
    },
    {
      "anonymous": false,
      "inputs": [
        {
          "indexed": true,
          "internalType": "uint256",
          "name": "depositId",
          "type": "uint256"
        },
        {
          "indexed": true,
          "internalType": "bytes32",
          "name": "intentHash",
          "type": "bytes32"
        },
        {
          "indexed": false,
          "internalType": "uint256",
          "name": "amount",
          "type": "uint256"
        },
        {
          "indexed": false,
          "internalType": "uint256",
          "name": "expiryTime",
          "type": "uint256"
        }
      ],
      "name": "FundsLocked",
      "type": "event"
    },
    {
      "anonymous": false,
      "inputs": [
        {
          "indexed": true,
          "internalType": "uint256",
          "name": "depositId",
          "type": "uint256"
        },
        {
          "indexed": true,
          "internalType": "bytes32",
          "name": "intentHash",
          "type": "bytes32"
        },
        {
          "indexed": false,
          "internalType": "uint256",
          "name": "amount",
          "type": "uint256"
        }
      ],
      "name": "FundsUnlocked",
      "type": "event"
    },
    {
      "anonymous": false,
      "inputs": [
        {
          "indexed": true,
          "internalType": "uint256",
          "name": "depositId",
          "type": "uint256"
        },
        {
          "indexed": true,
          "internalType": "bytes32",
          "name": "intentHash",
          "type": "bytes32"
        },
        {
          "indexed": false,
          "internalType": "uint256",
          "name": "unlockedAmount",
          "type": "uint256"
        },
        {
          "indexed": false,
          "internalType": "uint256",
          "name": "transferredAmount",
          "type": "uint256"
        },
        {
          "indexed": false,
          "internalType": "address",
          "name": "to",
          "type": "address"
        }
      ],
      "name": "FundsUnlockedAndTransferred",
      "type": "event"
    },
    {
      "anonymous": false,
      "inputs": [
        {
          "indexed": false,
          "internalType": "uint256",
          "name": "intentExpirationPeriod",
          "type": "uint256"
        }
      ],
      "name": "IntentExpirationPeriodUpdated",
      "type": "event"
    },
    {
      "anonymous": false,
      "inputs": [
        {
          "indexed": true,
          "internalType": "uint256",
          "name": "depositId",
          "type": "uint256"
        },
        {
          "indexed": true,
          "internalType": "bytes32",
          "name": "intentHash",
          "type": "bytes32"
        },
        {
          "indexed": false,
          "internalType": "uint256",
          "name": "newExpiryTime",
          "type": "uint256"
        }
      ],
      "name": "IntentExpiryExtended",
      "type": "event"
    },
    {
      "anonymous": false,
      "inputs": [
        {
          "indexed": false,
          "internalType": "uint256",
          "name": "maxIntentsPerDeposit",
          "type": "uint256"
        }
      ],
      "name": "MaxIntentsPerDepositUpdated",
      "type": "event"
    },
    {
      "anonymous": false,
      "inputs": [
        {
          "indexed": false,
          "internalType": "uint256",
          "name": "minDepositAmount",
          "type": "uint256"
        }
      ],
      "name": "MinDepositAmountSet",
      "type": "event"
    },
    {
      "anonymous": false,
      "inputs": [
        {
          "indexed": true,
          "internalType": "address",
          "name": "orchestrator",
          "type": "address"
        }
      ],
      "name": "OrchestratorUpdated",
      "type": "event"
    },
    {
      "anonymous": false,
      "inputs": [
        {
          "indexed": true,
          "internalType": "address",
          "name": "previousOwner",
          "type": "address"
        },
        {
          "indexed": true,
          "internalType": "address",
          "name": "newOwner",
          "type": "address"
        }
      ],
      "name": "OwnershipTransferred",
      "type": "event"
    },
    {
      "anonymous": false,
      "inputs": [
        {
          "indexed": false,
          "internalType": "address",
          "name": "account",
          "type": "address"
        }
      ],
      "name": "Paused",
      "type": "event"
    },
    {
      "anonymous": false,
      "inputs": [
        {
          "indexed": true,
          "internalType": "address",
          "name": "paymentVerifierRegistry",
          "type": "address"
        }
      ],
      "name": "PaymentVerifierRegistryUpdated",
      "type": "event"
    },
    {
      "anonymous": false,
      "inputs": [
        {
          "indexed": false,
          "internalType": "address",
          "name": "account",
          "type": "address"
        }
      ],
      "name": "Unpaused",
      "type": "event"
    },
    {
      "inputs": [
        {
          "internalType": "uint256",
          "name": "_depositId",
          "type": "uint256"
        },
        {
          "internalType": "bytes32",
          "name": "_paymentMethod",
          "type": "bytes32"
        },
        {
          "components": [
            {
              "internalType": "bytes32",
              "name": "code",
              "type": "bytes32"
            },
            {
              "internalType": "uint256",
              "name": "minConversionRate",
              "type": "uint256"
            }
          ],
          "internalType": "struct IEscrow.Currency[]",
          "name": "_currencies",
          "type": "tuple[]"
        }
      ],
      "name": "addCurrencies",
      "outputs": [],
      "stateMutability": "nonpayable",
      "type": "function"
    },
    {
      "inputs": [
        {
          "internalType": "uint256",
          "name": "_depositId",
          "type": "uint256"
        },
        {
          "internalType": "uint256",
          "name": "_amount",
          "type": "uint256"
        }
      ],
      "name": "addFunds",
      "outputs": [],
      "stateMutability": "nonpayable",
      "type": "function"
    },
    {
      "inputs": [
        {
          "internalType": "uint256",
          "name": "_depositId",
          "type": "uint256"
        },
        {
          "internalType": "bytes32[]",
          "name": "_paymentMethods",
          "type": "bytes32[]"
        },
        {
          "components": [
            {
              "internalType": "address",
              "name": "intentGatingService",
              "type": "address"
            },
            {
              "internalType": "bytes32",
              "name": "payeeDetails",
              "type": "bytes32"
            },
            {
              "internalType": "bytes",
              "name": "data",
              "type": "bytes"
            }
          ],
          "internalType": "struct IEscrow.DepositPaymentMethodData[]",
          "name": "_paymentMethodData",
          "type": "tuple[]"
        },
        {
          "components": [
            {
              "internalType": "bytes32",
              "name": "code",
              "type": "bytes32"
            },
            {
              "internalType": "uint256",
              "name": "minConversionRate",
              "type": "uint256"
            }
          ],
          "internalType": "struct IEscrow.Currency[][]",
          "name": "_currencies",
          "type": "tuple[][]"
        }
      ],
      "name": "addPaymentMethods",
      "outputs": [],
      "stateMutability": "nonpayable",
      "type": "function"
    },
    {
      "inputs": [],
      "name": "chainId",
      "outputs": [
        {
          "internalType": "uint256",
          "name": "",
          "type": "uint256"
        }
      ],
      "stateMutability": "view",
      "type": "function"
    },
    {
      "inputs": [
        {
          "components": [
            {
              "internalType": "contract IERC20",
              "name": "token",
              "type": "address"
            },
            {
              "internalType": "uint256",
              "name": "amount",
              "type": "uint256"
            },
            {
              "components": [
                {
                  "internalType": "uint256",
                  "name": "min",
                  "type": "uint256"
                },
                {
                  "internalType": "uint256",
                  "name": "max",
                  "type": "uint256"
                }
              ],
              "internalType": "struct IEscrow.Range",
              "name": "intentAmountRange",
              "type": "tuple"
            },
            {
              "internalType": "bytes32[]",
              "name": "paymentMethods",
              "type": "bytes32[]"
            },
            {
              "components": [
                {
                  "internalType": "address",
                  "name": "intentGatingService",
                  "type": "address"
                },
                {
                  "internalType": "bytes32",
                  "name": "payeeDetails",
                  "type": "bytes32"
                },
                {
                  "internalType": "bytes",
                  "name": "data",
                  "type": "bytes"
                }
              ],
              "internalType": "struct IEscrow.DepositPaymentMethodData[]",
              "name": "paymentMethodData",
              "type": "tuple[]"
            },
            {
              "components": [
                {
                  "internalType": "bytes32",
                  "name": "code",
                  "type": "bytes32"
                },
                {
                  "internalType": "uint256",
                  "name": "minConversionRate",
                  "type": "uint256"
                }
              ],
              "internalType": "struct IEscrow.Currency[][]",
              "name": "currencies",
              "type": "tuple[][]"
            },
            {
              "internalType": "address",
              "name": "delegate",
              "type": "address"
            },
            {
              "internalType": "address",
              "name": "intentGuardian",
              "type": "address"
            },
            {
              "internalType": "bool",
              "name": "retainOnEmpty",
              "type": "bool"
            }
          ],
          "internalType": "struct IEscrow.CreateDepositParams",
          "name": "_params",
          "type": "tuple"
        }
      ],
      "name": "createDeposit",
      "outputs": [],
      "stateMutability": "nonpayable",
      "type": "function"
    },
    {
      "inputs": [
        {
          "internalType": "uint256",
          "name": "_depositId",
          "type": "uint256"
        },
        {
          "internalType": "bytes32",
          "name": "_paymentMethod",
          "type": "bytes32"
        },
        {
          "internalType": "bytes32",
          "name": "_currencyCode",
          "type": "bytes32"
        }
      ],
      "name": "deactivateCurrency",
      "outputs": [],
      "stateMutability": "nonpayable",
      "type": "function"
    },
    {
      "inputs": [],
      "name": "depositCounter",
      "outputs": [
        {
          "internalType": "uint256",
          "name": "",
          "type": "uint256"
        }
      ],
      "stateMutability": "view",
      "type": "function"
    },
    {
      "inputs": [],
      "name": "dustRecipient",
      "outputs": [
        {
          "internalType": "address",
          "name": "",
          "type": "address"
        }
      ],
      "stateMutability": "view",
      "type": "function"
    },
    {
      "inputs": [],
      "name": "dustThreshold",
      "outputs": [
        {
          "internalType": "uint256",
          "name": "",
          "type": "uint256"
        }
      ],
      "stateMutability": "view",
      "type": "function"
    },
    {
      "inputs": [
        {
          "internalType": "uint256",
          "name": "_depositId",
          "type": "uint256"
        },
        {
          "internalType": "bytes32",
          "name": "_intentHash",
          "type": "bytes32"
        },
        {
          "internalType": "uint256",
          "name": "_additionalTime",
          "type": "uint256"
        }
      ],
      "name": "extendIntentExpiry",
      "outputs": [],
      "stateMutability": "nonpayable",
      "type": "function"
    },
    {
      "inputs": [
        {
          "internalType": "address",
          "name": "_account",
          "type": "address"
        }
      ],
      "name": "getAccountDeposits",
      "outputs": [
        {
          "internalType": "uint256[]",
          "name": "",
          "type": "uint256[]"
        }
      ],
      "stateMutability": "view",
      "type": "function"
    },
    {
      "inputs": [
        {
          "internalType": "uint256",
          "name": "_depositId",
          "type": "uint256"
        }
      ],
      "name": "getDeposit",
      "outputs": [
        {
          "components": [
            {
              "internalType": "address",
              "name": "depositor",
              "type": "address"
            },
            {
              "internalType": "address",
              "name": "delegate",
              "type": "address"
            },
            {
              "internalType": "contract IERC20",
              "name": "token",
              "type": "address"
            },
            {
              "components": [
                {
                  "internalType": "uint256",
                  "name": "min",
                  "type": "uint256"
                },
                {
                  "internalType": "uint256",
                  "name": "max",
                  "type": "uint256"
                }
              ],
              "internalType": "struct IEscrow.Range",
              "name": "intentAmountRange",
              "type": "tuple"
            },
            {
              "internalType": "bool",
              "name": "acceptingIntents",
              "type": "bool"
            },
            {
              "internalType": "uint256",
              "name": "remainingDeposits",
              "type": "uint256"
            },
            {
              "internalType": "uint256",
              "name": "outstandingIntentAmount",
              "type": "uint256"
            },
            {
              "internalType": "address",
              "name": "intentGuardian",
              "type": "address"
            },
            {
              "internalType": "bool",
              "name": "retainOnEmpty",
              "type": "bool"
            }
          ],
          "internalType": "struct IEscrow.Deposit",
          "name": "",
          "type": "tuple"
        }
      ],
      "stateMutability": "view",
      "type": "function"
    },
    {
      "inputs": [
        {
          "internalType": "uint256",
          "name": "_depositId",
          "type": "uint256"
        },
        {
          "internalType": "bytes32",
          "name": "_paymentMethod",
          "type": "bytes32"
        }
      ],
      "name": "getDepositCurrencies",
      "outputs": [
        {
          "internalType": "bytes32[]",
          "name": "",
          "type": "bytes32[]"
        }
      ],
      "stateMutability": "view",
      "type": "function"
    },
    {
      "inputs": [
        {
          "internalType": "uint256",
          "name": "_depositId",
          "type": "uint256"
        },
        {
          "internalType": "bytes32",
          "name": "_paymentMethod",
          "type": "bytes32"
        },
        {
          "internalType": "bytes32",
          "name": "_currencyCode",
          "type": "bytes32"
        }
      ],
      "name": "getDepositCurrencyListed",
      "outputs": [
        {
          "internalType": "bool",
          "name": "",
          "type": "bool"
        }
      ],
      "stateMutability": "view",
      "type": "function"
    },
    {
      "inputs": [
        {
          "internalType": "uint256",
          "name": "_depositId",
          "type": "uint256"
        },
        {
          "internalType": "bytes32",
          "name": "_paymentMethod",
          "type": "bytes32"
        },
        {
          "internalType": "bytes32",
          "name": "_currencyCode",
          "type": "bytes32"
        }
      ],
      "name": "getDepositCurrencyMinRate",
      "outputs": [
        {
          "internalType": "uint256",
          "name": "",
          "type": "uint256"
        }
      ],
      "stateMutability": "view",
      "type": "function"
    },
    {
      "inputs": [
        {
          "internalType": "uint256",
          "name": "_depositId",
          "type": "uint256"
        },
        {
          "internalType": "bytes32",
          "name": "_paymentMethod",
          "type": "bytes32"
        }
      ],
      "name": "getDepositGatingService",
      "outputs": [
        {
          "internalType": "address",
          "name": "",
          "type": "address"
        }
      ],
      "stateMutability": "view",
      "type": "function"
    },
    {
      "inputs": [
        {
          "internalType": "uint256",
          "name": "_depositId",
          "type": "uint256"
        },
        {
          "internalType": "bytes32",
          "name": "_intentHash",
          "type": "bytes32"
        }
      ],
      "name": "getDepositIntent",
      "outputs": [
        {
          "components": [
            {
              "internalType": "bytes32",
              "name": "intentHash",
              "type": "bytes32"
            },
            {
              "internalType": "uint256",
              "name": "amount",
              "type": "uint256"
            },
            {
              "internalType": "uint256",
              "name": "timestamp",
              "type": "uint256"
            },
            {
              "internalType": "uint256",
              "name": "expiryTime",
              "type": "uint256"
            }
          ],
          "internalType": "struct IEscrow.Intent",
          "name": "",
          "type": "tuple"
        }
      ],
      "stateMutability": "view",
      "type": "function"
    },
    {
      "inputs": [
        {
          "internalType": "uint256",
          "name": "_depositId",
          "type": "uint256"
        }
      ],
      "name": "getDepositIntentHashes",
      "outputs": [
        {
          "internalType": "bytes32[]",
          "name": "",
          "type": "bytes32[]"
        }
      ],
      "stateMutability": "view",
      "type": "function"
    },
    {
      "inputs": [
        {
          "internalType": "uint256",
          "name": "_depositId",
          "type": "uint256"
        },
        {
          "internalType": "bytes32",
          "name": "_paymentMethod",
          "type": "bytes32"
        }
      ],
      "name": "getDepositPaymentMethodActive",
      "outputs": [
        {
          "internalType": "bool",
          "name": "",
          "type": "bool"
        }
      ],
      "stateMutability": "view",
      "type": "function"
    },
    {
      "inputs": [
        {
          "internalType": "uint256",
          "name": "_depositId",
          "type": "uint256"
        },
        {
          "internalType": "bytes32",
          "name": "_paymentMethod",
          "type": "bytes32"
        }
      ],
      "name": "getDepositPaymentMethodData",
      "outputs": [
        {
          "components": [
            {
              "internalType": "address",
              "name": "intentGatingService",
              "type": "address"
            },
            {
              "internalType": "bytes32",
              "name": "payeeDetails",
              "type": "bytes32"
            },
            {
              "internalType": "bytes",
              "name": "data",
              "type": "bytes"
            }
          ],
          "internalType": "struct IEscrow.DepositPaymentMethodData",
          "name": "",
          "type": "tuple"
        }
      ],
      "stateMutability": "view",
      "type": "function"
    },
    {
      "inputs": [
        {
          "internalType": "uint256",
          "name": "_depositId",
          "type": "uint256"
        },
        {
          "internalType": "bytes32",
          "name": "_paymentMethod",
          "type": "bytes32"
        }
      ],
      "name": "getDepositPaymentMethodListed",
      "outputs": [
        {
          "internalType": "bool",
          "name": "",
          "type": "bool"
        }
      ],
      "stateMutability": "view",
      "type": "function"
    },
    {
      "inputs": [
        {
          "internalType": "uint256",
          "name": "_depositId",
          "type": "uint256"
        }
      ],
      "name": "getDepositPaymentMethods",
      "outputs": [
        {
          "internalType": "bytes32[]",
          "name": "",
          "type": "bytes32[]"
        }
      ],
      "stateMutability": "view",
      "type": "function"
    },
    {
      "inputs": [
        {
          "internalType": "uint256",
          "name": "_depositId",
          "type": "uint256"
        }
      ],
      "name": "getExpiredIntents",
      "outputs": [
        {
          "internalType": "bytes32[]",
          "name": "expiredIntents",
          "type": "bytes32[]"
        },
        {
          "internalType": "uint256",
          "name": "reclaimableAmount",
          "type": "uint256"
        }
      ],
      "stateMutability": "view",
      "type": "function"
    },
    {
      "inputs": [],
      "name": "intentExpirationPeriod",
      "outputs": [
        {
          "internalType": "uint256",
          "name": "",
          "type": "uint256"
        }
      ],
      "stateMutability": "view",
      "type": "function"
    },
    {
      "inputs": [
        {
          "internalType": "uint256",
          "name": "_depositId",
          "type": "uint256"
        },
        {
          "internalType": "bytes32",
          "name": "_intentHash",
          "type": "bytes32"
        },
        {
          "internalType": "uint256",
          "name": "_amount",
          "type": "uint256"
        }
      ],
      "name": "lockFunds",
      "outputs": [],
      "stateMutability": "nonpayable",
      "type": "function"
    },
    {
      "inputs": [],
      "name": "maxIntentsPerDeposit",
      "outputs": [
        {
          "internalType": "uint256",
          "name": "",
          "type": "uint256"
        }
      ],
      "stateMutability": "view",
      "type": "function"
    },
    {
      "inputs": [],
      "name": "orchestrator",
      "outputs": [
        {
          "internalType": "contract IOrchestrator",
          "name": "",
          "type": "address"
        }
      ],
      "stateMutability": "view",
      "type": "function"
    },
    {
      "inputs": [],
      "name": "owner",
      "outputs": [
        {
          "internalType": "address",
          "name": "",
          "type": "address"
        }
      ],
      "stateMutability": "view",
      "type": "function"
    },
    {
      "inputs": [],
      "name": "pauseEscrow",
      "outputs": [],
      "stateMutability": "nonpayable",
      "type": "function"
    },
    {
      "inputs": [],
      "name": "paused",
      "outputs": [
        {
          "internalType": "bool",
          "name": "",
          "type": "bool"
        }
      ],
      "stateMutability": "view",
      "type": "function"
    },
    {
      "inputs": [],
      "name": "paymentVerifierRegistry",
      "outputs": [
        {
          "internalType": "contract IPaymentVerifierRegistry",
          "name": "",
          "type": "address"
        }
      ],
      "stateMutability": "view",
      "type": "function"
    },
    {
      "inputs": [
        {
          "internalType": "uint256",
          "name": "_depositId",
          "type": "uint256"
        }
      ],
      "name": "pruneExpiredIntents",
      "outputs": [],
      "stateMutability": "nonpayable",
      "type": "function"
    },
    {
      "inputs": [
        {
          "internalType": "uint256",
          "name": "_depositId",
          "type": "uint256"
        }
      ],
      "name": "removeDelegate",
      "outputs": [],
      "stateMutability": "nonpayable",
      "type": "function"
    },
    {
      "inputs": [
        {
          "internalType": "uint256",
          "name": "_depositId",
          "type": "uint256"
        },
        {
          "internalType": "uint256",
          "name": "_amount",
          "type": "uint256"
        }
      ],
      "name": "removeFunds",
      "outputs": [],
      "stateMutability": "nonpayable",
      "type": "function"
    },
    {
      "inputs": [],
      "name": "renounceOwnership",
      "outputs": [],
      "stateMutability": "nonpayable",
      "type": "function"
    },
    {
      "inputs": [
        {
          "internalType": "uint256",
          "name": "_depositId",
          "type": "uint256"
        },
        {
          "internalType": "bool",
          "name": "_acceptingIntents",
          "type": "bool"
        }
      ],
      "name": "setAcceptingIntents",
      "outputs": [],
      "stateMutability": "nonpayable",
      "type": "function"
    },
    {
      "inputs": [
        {
          "internalType": "uint256",
          "name": "_depositId",
          "type": "uint256"
        },
        {
          "internalType": "bytes32",
          "name": "_paymentMethod",
          "type": "bytes32"
        },
        {
          "internalType": "bytes32",
          "name": "_fiatCurrency",
          "type": "bytes32"
        },
        {
          "internalType": "uint256",
          "name": "_newMinConversionRate",
          "type": "uint256"
        }
      ],
      "name": "setCurrencyMinRate",
      "outputs": [],
      "stateMutability": "nonpayable",
      "type": "function"
    },
    {
      "inputs": [
        {
          "internalType": "uint256",
          "name": "_depositId",
          "type": "uint256"
        },
        {
          "internalType": "address",
          "name": "_delegate",
          "type": "address"
        }
      ],
      "name": "setDelegate",
      "outputs": [],
      "stateMutability": "nonpayable",
      "type": "function"
    },
    {
      "inputs": [
        {
          "internalType": "address",
          "name": "_dustRecipient",
          "type": "address"
        }
      ],
      "name": "setDustRecipient",
      "outputs": [],
      "stateMutability": "nonpayable",
      "type": "function"
    },
    {
      "inputs": [
        {
          "internalType": "uint256",
          "name": "_dustThreshold",
          "type": "uint256"
        }
      ],
      "name": "setDustThreshold",
      "outputs": [],
      "stateMutability": "nonpayable",
      "type": "function"
    },
    {
      "inputs": [
        {
          "internalType": "uint256",
          "name": "_intentExpirationPeriod",
          "type": "uint256"
        }
      ],
      "name": "setIntentExpirationPeriod",
      "outputs": [],
      "stateMutability": "nonpayable",
      "type": "function"
    },
    {
      "inputs": [
        {
          "internalType": "uint256",
          "name": "_depositId",
          "type": "uint256"
        },
        {
          "components": [
            {
              "internalType": "uint256",
              "name": "min",
              "type": "uint256"
            },
            {
              "internalType": "uint256",
              "name": "max",
              "type": "uint256"
            }
          ],
          "internalType": "struct IEscrow.Range",
          "name": "_intentAmountRange",
          "type": "tuple"
        }
      ],
      "name": "setIntentRange",
      "outputs": [],
      "stateMutability": "nonpayable",
      "type": "function"
    },
    {
      "inputs": [
        {
          "internalType": "uint256",
          "name": "_maxIntentsPerDeposit",
          "type": "uint256"
        }
      ],
      "name": "setMaxIntentsPerDeposit",
      "outputs": [],
      "stateMutability": "nonpayable",
      "type": "function"
    },
    {
      "inputs": [
        {
          "internalType": "address",
          "name": "_orchestrator",
          "type": "address"
        }
      ],
      "name": "setOrchestrator",
      "outputs": [],
      "stateMutability": "nonpayable",
      "type": "function"
    },
    {
      "inputs": [
        {
          "internalType": "uint256",
          "name": "_depositId",
          "type": "uint256"
        },
        {
          "internalType": "bytes32",
          "name": "_paymentMethod",
          "type": "bytes32"
        },
        {
          "internalType": "bool",
          "name": "_isActive",
          "type": "bool"
        }
      ],
      "name": "setPaymentMethodActive",
      "outputs": [],
      "stateMutability": "nonpayable",
      "type": "function"
    },
    {
      "inputs": [
        {
          "internalType": "address",
          "name": "_paymentVerifierRegistry",
          "type": "address"
        }
      ],
      "name": "setPaymentVerifierRegistry",
      "outputs": [],
      "stateMutability": "nonpayable",
      "type": "function"
    },
    {
      "inputs": [
        {
          "internalType": "uint256",
          "name": "_depositId",
          "type": "uint256"
        },
        {
          "internalType": "bool",
          "name": "_retainOnEmpty",
          "type": "bool"
        }
      ],
      "name": "setRetainOnEmpty",
      "outputs": [],
      "stateMutability": "nonpayable",
      "type": "function"
    },
    {
      "inputs": [
        {
          "internalType": "address",
          "name": "newOwner",
          "type": "address"
        }
      ],
      "name": "transferOwnership",
      "outputs": [],
      "stateMutability": "nonpayable",
      "type": "function"
    },
    {
      "inputs": [
        {
          "internalType": "uint256",
          "name": "_depositId",
          "type": "uint256"
        },
        {
          "internalType": "bytes32",
          "name": "_intentHash",
          "type": "bytes32"
        },
        {
          "internalType": "uint256",
          "name": "_transferAmount",
          "type": "uint256"
        },
        {
          "internalType": "address",
          "name": "_to",
          "type": "address"
        }
      ],
      "name": "unlockAndTransferFunds",
      "outputs": [],
      "stateMutability": "nonpayable",
      "type": "function"
    },
    {
      "inputs": [
        {
          "internalType": "uint256",
          "name": "_depositId",
          "type": "uint256"
        },
        {
          "internalType": "bytes32",
          "name": "_intentHash",
          "type": "bytes32"
        }
      ],
      "name": "unlockFunds",
      "outputs": [],
      "stateMutability": "nonpayable",
      "type": "function"
    },
    {
      "inputs": [],
      "name": "unpauseEscrow",
      "outputs": [],
      "stateMutability": "nonpayable",
      "type": "function"
    },
    {
      "inputs": [
        {
          "internalType": "uint256",
          "name": "_depositId",
          "type": "uint256"
        }
      ],
      "name": "withdrawDeposit",
      "outputs": [],
      "stateMutability": "nonpayable",
      "type": "function"
    }
  ],
  "transactionHash": "0x80760dda3947cc413a4b580c7c3e49a761f55569a8d4a8d00c98797bdbeaad45",
  "args": [
    "0x84e113087C97Cd80eA9D78983D4B8Ff61ECa1929",
    8453,
    "0x2261416DA54C85f975C73FA56EF4D2D6b0aEF7Cc",
    "0x84e113087C97Cd80eA9D78983D4B8Ff61ECa1929",
    "100000",
    200,
    "3600"
  ],
  "numDeployments": 1,
  "solcInputHash": "b91f08304c24bfc889043a05b114d1e6",
  "bytecode": "0x60a06040523480156200001157600080fd5b5060405162004c8538038062004c858339810160408190526200003491620001fa565b6200003f33620000ac565b6000805460ff60a01b19169055600180556080869052600380546001600160a01b038088166001600160a01b03199283161790925560108054928716929091169190911790556011839055601282905560138190556200009f87620000fc565b505050505050506200026b565b600080546001600160a01b038381166001600160a01b0319831681178455604051919092169283917f8be0079c531659141344cd1fd0a4f28419497f9722a3daafe3b4186f6b6457e09190a35050565b620001066200017f565b6001600160a01b038116620001715760405162461bcd60e51b815260206004820152602660248201527f4f776e61626c653a206e6577206f776e657220697320746865207a65726f206160448201526564647265737360d01b60648201526084015b60405180910390fd5b6200017c81620000ac565b50565b6000546001600160a01b03163314620001db5760405162461bcd60e51b815260206004820181905260248201527f4f776e61626c653a2063616c6c6572206973206e6f7420746865206f776e6572604482015260640162000168565b565b80516001600160a01b0381168114620001f557600080fd5b919050565b600080600080600080600060e0888a0312156200021657600080fd5b6200022188620001dd565b9650602088015195506200023860408901620001dd565b94506200024860608901620001dd565b93506080880151925060a0880151915060c0880151905092959891949750929550565b6080516149fe62000287600039600061067901526149fe6000f3fe608060405234801561001057600080fd5b506004361061030c5760003560e01c806385f452501161019d578063ad805482116100e9578063e7433b6e116100a2578063ec3453c21161007c578063ec3453c2146107a2578063ecb3dc88146107b5578063f2fde38b146107be578063f802ad8a146107d157600080fd5b8063e7433b6e14610773578063e8462e8f14610786578063eb14f6691461078f57600080fd5b8063ad805482146106f3578063b74795d914610706578063c1ce1cde14610719578063c84b5cf91461073a578063cd28ef0d1461074d578063ceb5e29b1461076057600080fd5b806397f2ab9011610156578063a16087d211610130578063a16087d2146106bb578063a1a954b7146106c4578063aaa3e377146106cd578063ad7e55ba146106e057600080fd5b806397f2ab90146106615780639a8a0592146106745780639f9fb9681461069b57600080fd5b806385f45250146105c95780638ced63b4146105dc5780638d08e550146105ef5780638da5cb5b1461063557806394dcf2e61461064657806395fe9a5e1461065957600080fd5b80633abb7c061161025c5780635081d9521161021557806368b9646e116101ef57806368b9646e14610560578063715018a6146105805780637414f9071461058857806381ceb735146105b657600080fd5b80635081d952146104f957806359955d5d146105195780635c975abb1461054e57600080fd5b80633abb7c0614610487578063407c8d431461049a57806342987349146104ad578063432e707b146104c057806343f1a2af146104d35780634de088ff146104e657600080fd5b806320d8005a116102c95780632692b459116102a35780632692b4591461041b5780632d7b036f1461042e57806333289a461461046c57806337a6b5e21461047f57600080fd5b806320d8005a1461039b578063236a8d9b146103bc578063240c1781146103cf57600080fd5b806309207525146103115780630be8d2911461032657806317192c29146103395780631a251a58146103625780631abcbe63146103755780631cfd5c1614610388575b600080fd5b61032461031f366004613ff6565b6107e4565b005b610324610334366004613ff6565b610aee565b61034c610347366004614022565b610c67565b6040516103599190614094565b60405180910390f35b6103246103703660046140cb565b610d5b565b610324610383366004614103565b610ea0565b61032461039636600461413f565b6111d6565b6103ae6103a9366004613ff6565b61132f565b604051908152602001610359565b6103246103ca36600461417f565b611359565b6104036103dd366004614022565b60009182526005602090815260408084209284529190529020546001600160a01b031690565b6040516001600160a01b039091168152602001610359565b6103246104293660046141b8565b6114d8565b61045c61043c366004614022565b600091825260086020908152604080842092845291905290205460ff1690565b6040519015158152602001610359565b61032461047a3660046141e8565b611638565b61032461173d565b6103246104953660046141e8565b61174f565b6103246104a8366004614216565b61178f565b6103246104bb3660046141e8565b6119b9565b6103246104ce366004614022565b611a1e565b6103246104e1366004614257565b611b8d565b6103246104f43660046141e8565b611c06565b61050c610507366004614257565b611c64565b6040516103599190614274565b61045c610527366004613ff6565b6000928352600b602090815260408085209385529281528284209184525290205460ff1690565b600054600160a01b900460ff1661045c565b61057361056e3660046141e8565b611cd0565b60405161035991906142f3565b610324611d30565b61045c610596366004614022565b600091825260076020908152604080842092845291905290205460ff1690565b600354610403906001600160a01b031681565b6103246105d7366004614022565b611d42565b6103246105ea366004614022565b611e0e565b6106026105fd366004614022565b611f60565b60405161035991908151815260208083015190820152604080830151908201526060918201519181019190915260800190565b6000546001600160a01b0316610403565b610324610654366004614306565b611fda565b6103246120a3565b61032461066f3660046141b8565b6120b3565b6103ae7f000000000000000000000000000000000000000000000000000000000000000081565b6106ae6106a93660046141e8565b6121d9565b604051610359919061432b565b6103ae60125481565b6103ae60135481565b601054610403906001600160a01b031681565b6103246106ee3660046141e8565b6122e2565b610573610701366004614022565b61234f565b600254610403906001600160a01b031681565b61072c6107273660046141e8565b6123ba565b6040516103599291906143e4565b610324610748366004613ff6565b6123d0565b61032461075b366004614257565b61253f565b61032461076e3660046141e8565b6125b8565b6105736107813660046141e8565b612679565b6103ae60115481565b61032461079d366004614257565b6126d9565b6103246107b036600461444b565b612752565b6103ae600f5481565b6103246107cc366004614257565b6127f5565b6103246107df3660046144ef565b61286b565b6107ec6129a0565b6002546001600160a01b031633146108315760025460405163536dd9ef60e01b81526108289133916001600160a01b0390911690600401614572565b60405180910390fd5b6000838152600c6020526040902080546001600160a01b031661086a57604051631585bdab60e31b815260048101859052602401610828565b600581015460ff16610892576040516333b4460d60e11b815260048101859052602401610828565b60038101548210156108c75760038101546040516338fcec4360e01b8152610828918491600401918252602082015260400190565b60048101548211156108f957600481810154604051637e53d67d60e11b81529182018490526024820152604401610828565b6000848152600e602090815260408083208684529091529020541561093b57604051631817de9d60e21b81526004810185905260248101849052604401610828565b60006109488286856129f9565b9050828260060154101561098657600682015460405163c3df48f360e01b815260048101879052602481019190915260448101849052606401610828565b6000858152600d60205260408120546109a09060016145a2565b90506012548111156109da576012546040516344d2ea2360e01b815260048101889052602481018390526044810191909152606401610828565b838360060160008282546109ee91906145b5565b9250508190555083836007016000828254610a0991906145a2565b90915550506000868152600d602090815260408220805460018101825590835290822001869055601354610a3d90426145a2565b604080516080810182528881526020808201898152428385019081526060840186815260008e8152600e85528681208e825285528690209451855591516001850155516002840155516003909201919091558151888152908101839052919250879189917fb40d75557428cec6806c7ebb58634796f8a5870a0874bcd0d299328b5518665b910160405180910390a3825115610adc57610adc83612b49565b50505050610ae960018055565b505050565b610af6612bac565b6000838152600c6020526040902080548491906001600160a01b0316331480610b42575060018101546001600160a01b031615801590610b42575060018101546001600160a01b031633145b610b775780546001820154604051639a313e5960e01b81526108289233926001600160a01b03918216929116906004016145c8565b600085815260076020908152604080832087845290915290205460ff16610bbb5760405163016f65ad60e01b81526004810186905260248101859052604401610828565b6000858152600b60209081526040808320878452825280832086845290915290205460ff16610c0757604051630dca536360e41b81526004810185905260248101849052604401610828565b600085815260096020908152604080832087845282528083208684528252808320839055519182528491869188917fd12c0bb04d0c36c3143ef1c16a65cddd4ec064708de79e997d96e86f3bbd1597910160405180910390a45050505050565b604080516060808201835260008083526020808401829052838501839052868252600581528482208683528152908490208451928301855280546001600160a01b03168352600181015491830191909152600281018054939492939192840191610cd0906145eb565b80601f0160208091040260200160405190810160405280929190818152602001828054610cfc906145eb565b8015610d495780601f10610d1e57610100808354040283529160200191610d49565b820191906000526020600020905b815481529060010190602001808311610d2c57829003601f168201915b50505050508152505090505b92915050565b610d63612bac565b6000828152600c6020526040902080548391906001600160a01b0316331480610daf575060018101546001600160a01b031615801590610daf575060018101546001600160a01b031633145b610de45780546001820154604051639a313e5960e01b81526108289233926001600160a01b03918216929116906004016145c8565b6000848152600c602052604081209084359003610e14576040516314d323eb60e21b815260040160405180910390fd5b602084013584351115610e4757604051632457cde760e01b81528435600482015260208501356024820152604401610828565b8335600382015560208401356004820155610e6185612bf9565b847fdf91c8dff53bac50f3157cba47dee1c65eeeafe480d9f529e9db0c5bc4a9ba3985604051610e919190614625565b60405180910390a25050505050565b610ea8612bac565b6040810135600003610ecd576040516314d323eb60e21b815260040160405180910390fd5b606081013560408201351115610f065760408051632457cde760e01b815290820135600482015260608201356024820152604401610828565b604081013560208201351015610f3f57604080516338fcec4360e01b815260208301356004820152908201356024820152604401610828565b600f805460009182610f508361463c565b90915550336000818152600460209081526040808320805460018101825590845292829020909201849055815161012081019092529181529192508101610f9e610100850160e08601614257565b6001600160a01b03168152602090810190610fbb90850185614257565b6001600160a01b03168152602001610fdb368590038501604086016146a2565b8152600160208083019190915284013560408201526000606082015260800161100c61012085016101008601614257565b6001600160a01b0316815260200161102c610140850161012086016146d4565b151590526000828152600c6020908152604091829020835181546001600160a01b039182166001600160a01b0319918216178355858401516001840180549184169183169190911790559385015160028301805491831691909516179093556060840151805160038301558201516004820155608084015160058201805491151560ff1990921691909117905560a0840151600682015560c0840151600782015560e084015160089091018054610100909501511515600160a01b026001600160a81b0319909516919093161792909217905561110b90830183614257565b6001600160a01b031633827f1236dbdc184b6c8721974cce53dabb6018679bca9a43784ab2ad71bcdb1d7dd1602086013560408701611151610100890160e08a01614257565b6111636101208a016101008b01614257565b60405161117394939291906146f1565b60405180910390a46111ab8161118c6080850185614732565b61119960a0870187614732565b6111a660c0890189614732565b612c6d565b6111d23330602085018035906111c19087614257565b6001600160a01b0316929190613028565b5050565b6111de612bac565b6000848152600c6020526040902080548591906001600160a01b031633148061122a575060018101546001600160a01b03161580159061122a575060018101546001600160a01b031633145b61125f5780546001820154604051639a313e5960e01b81526108289233926001600160a01b03918216929116906004016145c8565b6000868152600b60209081526040808320888452825280832087845290915290205460ff166112ab57604051636bb6647d60e11b81526004810186905260248101859052604401610828565b826000036112cc5760405163123d7ce760e11b815260040160405180910390fd5b6000868152600960209081526040808320888452825280832087845282529182902085905590518481528591879189917fd12c0bb04d0c36c3143ef1c16a65cddd4ec064708de79e997d96e86f3bbd1597910160405180910390a4505050505050565b600083815260096020908152604080832085845282528083208484529091529020545b9392505050565b611361612bac565b6000838152600c6020526040902080548491906001600160a01b03163314806113ad575060018101546001600160a01b0316158015906113ad575060018101546001600160a01b031633145b6113e25780546001820154604051639a313e5960e01b81526108289233926001600160a01b03918216929116906004016145c8565b600085815260086020908152604080832087845290915290205460ff16611426576040516336626ad160e11b81526004810186905260248101859052604401610828565b600085815260076020908152604080832087845290915290205483151560ff909116151503611473576040516358efc88160e01b8152600481018690528315156024820152604401610828565b6000858152600760209081526040808320878452825291829020805460ff19168615159081179091559151918252859187917ffc0fae2131c415309f829a0025dc0c5e27bd3c891bfb77cc0d2269a19ac0437991015b60405180910390a35050505050565b6114e0612bac565b6000828152600c6020526040902080548391906001600160a01b031633148061152c575060018101546001600160a01b03161580159061152c575060018101546001600160a01b031633145b6115615780546001820154604051639a313e5960e01b81526108289233926001600160a01b03918216929116906004016145c8565b6000848152600c60205260409020600581015484151560ff9091161515036115a7576040516358efc88160e01b8152600481018690528415156024820152604401610828565b8380156115bb575060038101546006820154105b156115f3576006810154600382015460405163c3df48f360e01b81526004810188905260248101929092526044820152606401610828565b60058101805460ff191685151590811790915560405190815285907f184e3738774b2dc98019706750a38aeb01148b3b0c263e9b3374288835adc07d90602001610e91565b6116406129a0565b6000818152600c6020526040902080546001600160a01b0316331461168857805460405163536dd9ef60e01b81526108289133916001600160a01b0390911690600401614572565b600061169782846000196129f9565b6006830180546002850154600090925560058501805460ff19169055845460405182815293945090926001600160a01b03928316929091169086907fae1f357660ab777dcfd38c0ab6357834684ec26289ecfa07ec65dbf6c3c643129060200160405180910390a36117098585613093565b61171d6001600160a01b038216338461314b565b82511561172d5761172d83612b49565b5050505061173a60018055565b50565b61174561317b565b61174d6131d5565b565b6117576129a0565b6000818152600c6020526040812061177290836000196129f9565b8051909150156117855761178581612b49565b5061173a60018055565b6117976129a0565b6002546001600160a01b031633146117d35760025460405163536dd9ef60e01b81526108289133916001600160a01b0390911690600401614572565b6000848152600c60209081526040808320600e835281842087855283529281902081516080810183528154815260018201549381019390935260028101549183019190915260030154606082015281546001600160a01b031661184c57604051631585bdab60e31b815260048101879052602401610828565b805161186e57604051639481f8b960e01b815260048101869052602401610828565b8360000361188f57604051637c946ed760e01b815260040160405180910390fd5b80602001518411156118c45760208101516040516368d9260360e01b8152610828918691600401918252602082015260400190565b80602001518260070160008282546118dc91906145b5565b90915550506020810151841015611916578381602001516118fd91906145b5565b82600601600082825461191091906145a2565b90915550505b611920868661322a565b60028201546001600160a01b03166119388784613093565b85877f45625e0810f65b3c601b5c91bdacdf9e8f9ec7098fce927c57a8a65a823fd6178460200151888860405161198b9392919092835260208301919091526001600160a01b0316604082015260600190565b60405180910390a36119a76001600160a01b038216858761314b565b5050506119b360018055565b50505050565b6119c161317b565b806000036119e257604051637c946ed760e01b815260040160405180910390fd5b60138190556040518181527f084016fbffe5e2f11ac2b66a265f9d57ae10335d188ff1ca7d9d1efb35b71e0f906020015b60405180910390a150565b611a266129a0565b6002546001600160a01b03163314611a625760025460405163536dd9ef60e01b81526108289133916001600160a01b0390911690600401614572565b6000828152600c60209081526040808320600e835281842085855283529281902081516080810183528154815260018201549381019390935260028101549183019190915260030154606082015281546001600160a01b0316611adb57604051631585bdab60e31b815260048101859052602401610828565b8051611afd57604051639481f8b960e01b815260048101849052602401610828565b8060200151826006016000828254611b1591906145a2565b90915550506020810151600783018054600090611b339084906145b5565b90915550611b439050848461322a565b82847f683f6606eec92f04a68f1797d32d15f840b9b3d410a8ec9b4fdab4c30813796d8360200151604051611b7a91815260200190565b60405180910390a350506111d260018055565b611b9561317b565b6001600160a01b038116611bbc5760405163d92e233d60e01b815260040160405180910390fd5b601080546001600160a01b0319166001600160a01b0383169081179091556040517fc76447012850d72eea0bcd2c87f26d6fa622f7708b07d0ed3d1de5cf3f58a6b790600090a250565b611c0e61317b565b80600003611c2f57604051637c946ed760e01b815260040160405180910390fd5b60128190556040518181527f079e53dc927596d8e1015cfdf0b2e3135c2e06774fa76e2e4bff009fd030d7a290602001611a13565b6001600160a01b038116600090815260046020908152604091829020805483518184028101840190945280845260609392830182828015611cc457602002820191906000526020600020905b815481526020019060010190808311611cb0575b50505050509050919050565b6000818152600d6020908152604091829020805483518184028101840190945280845260609392830182828015611cc45760200282019190600052602060002090815481526020019060010190808311611cb05750505050509050919050565b611d3861317b565b61174d600061326e565b611d4a612bac565b6000828152600c6020526040902080546001600160a01b0316611d8357604051631585bdab60e31b815260048101849052602401610828565b81600003611da457604051637c946ed760e01b815260040160405180910390fd5b81816006016000828254611db891906145a2565b9091555050604051828152339084907f6dd055b2e2bf3452b033736068d30d709ffb26f2016b48ba9a612c3701bf33a99060200160405180910390a36002810154610ae9906001600160a01b0316333085613028565b611e166129a0565b611e1e612bac565b6000828152600c6020526040902080546001600160a01b03163314611e6657805460405163536dd9ef60e01b81526108289133916001600160a01b0390911690600401614572565b81600003611e8757604051637c946ed760e01b815260040160405180910390fd5b6000611e948285856129f9565b90508282600601541015611ed257600682015460405163c3df48f360e01b815260048101869052602481019190915260448101849052606401610828565b82826006016000828254611ee691906145b5565b90915550611ef5905084612bf9565b604051838152339085907fae1f357660ab777dcfd38c0ab6357834684ec26289ecfa07ec65dbf6c3c643129060200160405180910390a36002820154611f45906001600160a01b0316338561314b565b805115611f5557611f5581612b49565b50506111d260018055565b611f8e6040518060800160405280600080191681526020016000815260200160008152602001600081525090565b506000918252600e602090815260408084209284529181529181902081516080810183528154815260018201549381019390935260028101549183019190915260030154606082015290565b611fe2612bac565b6000828152600c6020526040902080546001600160a01b0316331461202a57805460405163536dd9ef60e01b81526108289133916001600160a01b0390911690600401614572565b6001600160a01b0382166120515760405163d92e233d60e01b815260040160405180910390fd5b6001810180546001600160a01b0319166001600160a01b038416908117909155604051339085907f177e76a486c6b85fe60246345e71d615cb0c8448a2290461819040cafdbfe71a90600090a4505050565b6120ab61317b565b61174d6132be565b6120bb612bac565b6000828152600c6020526040902080548391906001600160a01b0316331480612107575060018101546001600160a01b031615801590612107575060018101546001600160a01b031633145b61213c5780546001820154604051639a313e5960e01b81526108289233926001600160a01b03918216929116906004016145c8565b6000848152600c602052604090206008810154841515600160a01b90910460ff16151503612188576040516358efc88160e01b8152600481018690528415156024820152604401610828565b600881018054851515600160a01b0260ff60a01b1990911617905560405185907ff31750caa046b294dda58b65be18389f4e94ad6ecb4858b6efab8c7cf2ef24e790610e9190871515815260200190565b6122376040805161012081018252600080825260208083018290528284018290528351808501909452818452830152906060820190815260006020820181905260408201819052606082018190526080820181905260a09091015290565b506000908152600c602090815260409182902082516101208101845281546001600160a01b039081168252600183015481168285015260028301548116828601528451808601909552600383015485526004830154938501939093526060810193909352600581015460ff90811615156080850152600682015460a0850152600782015460c085015260089091015491821660e0840152600160a01b90910416151561010082015290565b6122ea61317b565b620f424081111561231a57604051637e53d67d60e11b815260048101829052620f42406024820152604401610828565b60118190556040518181527f4514c31bd13e0eecf1250995ffc6e6fb3eaec9377d728cc3325b3c87a58a323a90602001611a13565b6000828152600a602090815260408083208484528252918290208054835181840281018401909452808452606093928301828280156123ad57602002820191906000526020600020905b815481526020019060010190808311612399575b5050505050905092915050565b606060006123c783613301565b91509150915091565b6000838152600c60209081526040808320600e835281842086855290925290912081546001600160a01b031661241c57604051631585bdab60e31b815260048101869052602401610828565b805461243e57604051639481f8b960e01b815260048101859052602401610828565b60088201546001600160a01b0316331461247e57600882015460405163536dd9ef60e01b81526108289133916001600160a01b0390911690600401614572565b8260000361249f57604051637c946ed760e01b815260040160405180910390fd5b6206978081600201546124b291906145a2565b8382600301546124c291906145a2565b11156124ed57604051637e53d67d60e11b815260048101849052620697806024820152604401610828565b8281600301600082825461250191906145a2565b9250508190555083857f25d8768b3a9457fb1df954be09208c92c28109be47542d0eb8726e83ab48c5c783600301546040516114c991815260200190565b61254761317b565b6001600160a01b03811661256e5760405163d92e233d60e01b815260040160405180910390fd5b600280546001600160a01b0319166001600160a01b0383169081179091556040517fdde46f8c71b67178c4fdd3cd7e4a49fac7292e29d2bb2ef7d2b9819be1fb890a90600090a250565b6125c0612bac565b6000818152600c6020526040902080546001600160a01b0316331461260857805460405163536dd9ef60e01b81526108289133916001600160a01b0390911690600401614572565b60018101546001600160a01b031661263657604051632dd920ef60e01b815260048101839052602401610828565b6001810180546001600160a01b0319169055604051339083907fa8461c8fb28662d101f3bf3eb596a71303b9c564229ee651fba61bc142ecbf9990600090a35050565b600081815260066020908152604091829020805483518184028101840190945280845260609392830182828015611cc45760200282019190600052602060002090815481526020019060010190808311611cb05750505050509050919050565b6126e161317b565b6001600160a01b0381166127085760405163d92e233d60e01b815260040160405180910390fd5b600380546001600160a01b0319166001600160a01b0383169081179091556040517fe94f9ee78059bc733bb08fb7b593ad1873182fd795acdaefe39664192e20288290600090a250565b61275a612bac565b6000878152600c6020526040902080548891906001600160a01b03163314806127a6575060018101546001600160a01b0316158015906127a6575060018101546001600160a01b031633145b6127db5780546001820154604051639a313e5960e01b81526108289233926001600160a01b03918216929116906004016145c8565b6127ea89898989898989612c6d565b505050505050505050565b6127fd61317b565b6001600160a01b0381166128625760405162461bcd60e51b815260206004820152602660248201527f4f776e61626c653a206e6577206f776e657220697320746865207a65726f206160448201526564647265737360d01b6064820152608401610828565b61173a8161326e565b612873612bac565b6000848152600c6020526040902080548591906001600160a01b03163314806128bf575060018101546001600160a01b0316158015906128bf575060018101546001600160a01b031633145b6128f45780546001820154604051639a313e5960e01b81526108289233926001600160a01b03918216929116906004016145c8565b600086815260076020908152604080832088845290915290205460ff166129385760405163016f65ad60e01b81526004810187905260248101869052604401610828565b60005b8381101561299757612985878787878581811061295a5761295a61477c565b905060400201600001358888868181106129765761297661477c565b90506040020160200135613570565b8061298f8161463c565b91505061293b565b50505050505050565b6002600154036129f25760405162461bcd60e51b815260206004820152601f60248201527f5265656e7472616e637947756172643a207265656e7472616e742063616c6c006044820152606401610828565b6002600155565b60608184600601541080612a1c57506012546000848152600d6020526040902054145b15611352576000612a2c84613301565b809250819350505080856006016000828254612a4891906145a2565b9250508190555080856007016000828254612a6391906145b5565b90915550600090505b8251811015612b40576000858152600e6020526040812084518290869085908110612a9957612a9961477c565b602002602001015181526020019081526020016000206040518060800160405290816000820154815260200160018201548152602001600282015481526020016003820154815250509050612af286826000015161322a565b805160208083015160405190815288917f683f6606eec92f04a68f1797d32d15f840b9b3d410a8ec9b4fdab4c30813796d910160405180910390a35080612b388161463c565b915050612a6c565b50509392505050565b600254604051632cc410dd60e01b81526001600160a01b0390911690632cc410dd90612b799084906004016142f3565b600060405180830381600087803b158015612b9357600080fd5b505af1925050508015612ba4575060015b1561173a5750565b600054600160a01b900460ff161561174d5760405162461bcd60e51b815260206004820152601060248201526f14185d5cd8589b194e881c185d5cd95960821b6044820152606401610828565b6000818152600c60205260409020600581015460ff168015612c22575060038101546006820154105b156111d25760058101805460ff191690556040516000815282907f184e3738774b2dc98019706750a38aeb01148b3b0c263e9b3374288835adc07d9060200160405180910390a25050565b848314612c9757604051631f4bb7c160e31b81526004810186905260248101849052604401610828565b848114612cc157604051631f4bb7c160e31b81526004810186905260248101829052604401610828565b60005b8581101561301e576000878783818110612ce057612ce061477c565b60200291909101359150819050612d0a5760405163d92e233d60e01b815260040160405180910390fd5b600354604051634839762760e11b8152600481018390526001600160a01b0390911690639072ec4e90602401602060405180830381865afa158015612d53573d6000803e3d6000fd5b505050506040513d601f19601f82011682018060405250810190612d779190614792565b612d975760405163060f97e560e01b815260048101829052602401610828565b6000868684818110612dab57612dab61477c565b9050602002810190612dbd91906147af565b6020013503612ddf57604051635fd1a61d60e11b815260040160405180910390fd5b600089815260086020908152604080832084845290915290205460ff1615612e245760405163de5a6b7360e01b8152600481018a905260248101829052604401610828565b858583818110612e3657612e3661477c565b9050602002810190612e4891906147af565b60008a81526005602090815260408083208584529091529020612e6b828261481d565b50506000898152600660209081526040808320805460018181018355918552838520018590558c8452600883528184208585528352818420805460ff1990811683179091558d855260078452828520868652909352922080549091169091179055858583818110612ede57612ede61477c565b9050602002810190612ef091906147af565b60200135818a7f70bc150f4694f93722b39f936610105e3af883bc610a906afc7750c9c286e4ec898987818110612f2957612f2961477c565b9050602002810190612f3b91906147af565b612f49906020810190614257565b6040516001600160a01b03909116815260200160405180910390a460005b848484818110612f7957612f7961477c565b9050602002810190612f8b9190614943565b9050811015613009576000858585818110612fa857612fa861477c565b9050602002810190612fba9190614943565b83818110612fca57612fca61477c565b905060400201803603810190612fe091906146a2565b9050612ff68b8483600001518460200151613570565b50806130018161463c565b915050612f67565b505080806130169061463c565b915050612cc4565b5050505050505050565b6040516001600160a01b03808516602483015283166044820152606481018290526119b39085906323b872dd60e01b906084015b60408051601f198184030181529190526020810180516001600160e01b03166001600160e01b031990931692909217909152613725565b600681015460078201541580156130ac57506011548111155b80156130c457506008820154600160a01b900460ff16155b15610ae95760028201546001600160a01b03166130e184846137fa565b81156119b357601054613101906001600160a01b0383811691168461314b565b6010546040518381526001600160a01b039091169085907f3e73fc0f76c9d35dff306ff859166692f079fb15a5686aa4997177493cc5562f9060200160405180910390a350505050565b6040516001600160a01b038316602482015260448101829052610ae990849063a9059cbb60e01b9060640161305c565b6000546001600160a01b0316331461174d5760405162461bcd60e51b815260206004820181905260248201527f4f776e61626c653a2063616c6c6572206973206e6f7420746865206f776e65726044820152606401610828565b6131dd6138f3565b6000805460ff60a01b191690557f5db9ee0a495bf2e6ff9c91a7834c1ba4fdd244a5e8aa4e537bd38aeae4b073aa335b6040516001600160a01b03909116815260200160405180910390a1565b6000828152600e6020908152604080832084845282528083208381556001810184905560028101849055600301839055848352600d90915290206111d29082613943565b600080546001600160a01b038381166001600160a01b0319831681178455604051919092169283917f8be0079c531659141344cd1fd0a4f28419497f9722a3daafe3b4186f6b6457e09190a35050565b6132c6612bac565b6000805460ff60a01b1916600160a01b1790557f62e78cea01bee320cd4e420270b5ea74000d11b0c9f74754ebdbfc544b05a25861320d3390565b6000818152600d60209081526040808320805482518185028101850190935280835260609493849392919083018282801561335b57602002820191906000526020600020905b815481526020019060010190808311613347575b505050505090506000815167ffffffffffffffff81111561337e5761337e614655565b6040519080825280602002602001820160405280156133a7578160200160208202803683370190505b5090506000805b835181101561349b576000878152600e60205260408120855182908790859081106133db576133db61477c565b602002602001015181526020019081526020016000206040518060800160405290816000820154815260200160018201548152602001600282015481526020016003820154815250509050428160600151101561348a578482815181106134445761344461477c565b602002602001015184838151811061345e5761345e61477c565b60200260200101818152505080602001518661347a91906145a2565b9550826134868161463c565b9350505b506134948161463c565b90506133ae565b508067ffffffffffffffff8111156134b5576134b5614655565b6040519080825280602002602001820160405280156134de578160200160208202803683370190505b5094506000805b8451811015613566576000801b8482815181106135045761350461477c565b602002602001015114613556578381815181106135235761352361477c565b60200260200101518783806135379061463c565b9450815181106135495761354961477c565b6020026020010181815250505b61355f8161463c565b90506134e5565b5050505050915091565b6003546040516354e7105560e11b815260048101859052602481018490526001600160a01b039091169063a9ce20aa90604401602060405180830381865afa1580156135c0573d6000803e3d6000fd5b505050506040513d601f19601f820116820180604052508101906135e49190614792565b61360b57604051636bb6647d60e11b81526004810184905260248101839052604401610828565b8060000361362c5760405163123d7ce760e11b815260040160405180910390fd5b6000848152600b60209081526040808320868452825280832085845290915290205460ff16156136795760405163ce83125960e01b81526004810184905260248101839052604401610828565b600084815260096020908152604080832086845282528083208584528252808320849055868352600a8252808320868452825280832080546001808201835591855283852001869055878452600b83528184208785528352818420868552835292819020805460ff191690931790925590518281528391859187917f4eb2088b4fe1a7bcb1a232b3842804fd8290524696748bc7cc886d137fde1554910160405180910390a450505050565b600061377a826040518060400160405280602081526020017f5361666545524332303a206c6f772d6c6576656c2063616c6c206661696c6564815250856001600160a01b0316613a6b9092919063ffffffff16565b905080516000148061379b57508080602001905181019061379b9190614792565b610ae95760405162461bcd60e51b815260206004820152602a60248201527f5361666545524332303a204552433230206f7065726174696f6e20646964206e6044820152691bdd081cdd58d8d9595960b21b6064820152608401610828565b80546001600160a01b0316600081815260046020526040902061381d9084613a82565b61382683613b27565b6000838152600c602052604080822080546001600160a01b0319908116825560018201805482169055600282018054909116905560038101839055600481018390556005808201805460ff19908116909155600683018590556007830194909455600890910180546001600160a81b031916905584018054909216909155517f8ac07cc6e38c6222dd0309c80353c1962354bacf222b825d7401cc80e93ff3cc906138e690859084909182526001600160a01b0316602082015260400190565b60405180910390a1505050565b600054600160a01b900460ff1661174d5760405162461bcd60e51b815260206004820152601460248201527314185d5cd8589b194e881b9bdd081c185d5cd95960621b6044820152606401610828565b60008061399f8480548060200260200160405190810160405280929190818152602001828054801561399457602002820191906000526020600020905b815481526020019060010190808311613980575b505050505084613d5d565b91509150806139e85760405162461bcd60e51b8152602060048201526015602482015274313cba32b99999103737ba1034b71030b93930bc9760591b6044820152606401610828565b83546000906139f9906001906145b5565b9050808314613a3e57848181548110613a1457613a1461477c565b9060005260206000200154858481548110613a3157613a3161477c565b6000918252602090912001555b84805480613a4e57613a4e61498d565b600190038181906000526020600020016000905590555050505050565b6060613a7a8484600085613dc0565b949350505050565b600080613ade84805480602002602001604051908101604052809291908181526020018280548015613ad357602002820191906000526020600020905b815481526020019060010190808311613abf575b505050505084613e9b565b91509150806139e85760405162461bcd60e51b81526020600482015260156024820152743ab4b73a191a9b103737ba1034b71030b93930bc9760591b6044820152606401610828565b600081815260066020908152604080832080548251818502810185019093528083529192909190830182828015613b7d57602002820191906000526020600020905b815481526020019060010190808311613b69575b5050505050905060005b8151811015613d45576000828281518110613ba457613ba461477c565b602090810291909101810151600086815260058352604080822083835290935291822080546001600160a01b03191681556001810183905590925090613bed6002830182613f89565b505060008481526007602090815260408083208484528252808320805460ff1990811690915587845260088352818420858552835281842080549091169055868352600a8252808320848452825280832080548251818502810185019093528083529192909190830182828015613c8357602002820191906000526020600020905b815481526020019060010190808311613c6f575b5050505050905060005b8151811015613d0d576000828281518110613caa57613caa61477c565b6020908102919091018101516000898152600983526040808220888352845280822083835284528082208290558a8252600b84528082208883528452808220928252919092529020805460ff191690555080613d058161463c565b915050613c8d565b506000858152600a602090815260408083208584529091528120613d3091613fc3565b50508080613d3d9061463c565b915050613b87565b5060008281526006602052604081206111d291613fc3565b81516000908190815b81811015613dad5784868281518110613d8157613d8161477c565b602002602001015103613d9b57925060019150613db99050565b80613da58161463c565b915050613d66565b50600019600092509250505b9250929050565b606082471015613e215760405162461bcd60e51b815260206004820152602660248201527f416464726573733a20696e73756666696369656e742062616c616e636520666f6044820152651c8818d85b1b60d21b6064820152608401610828565b600080866001600160a01b03168587604051613e3d91906149a3565b60006040518083038185875af1925050503d8060008114613e7a576040519150601f19603f3d011682016040523d82523d6000602084013e613e7f565b606091505b5091509150613e9087838387613eeb565b979650505050505050565b81516000908190815b81811015613dad5784868281518110613ebf57613ebf61477c565b602002602001015103613ed957925060019150613db99050565b80613ee38161463c565b915050613ea4565b60608315613f5a578251600003613f53576001600160a01b0385163b613f535760405162461bcd60e51b815260206004820152601d60248201527f416464726573733a2063616c6c20746f206e6f6e2d636f6e74726163740000006044820152606401610828565b5081613a7a565b613a7a8383815115613f6f5781518083602001fd5b8060405162461bcd60e51b815260040161082891906149b5565b508054613f95906145eb565b6000825580601f10613fa5575050565b601f01602090049060005260206000209081019061173a9190613fdd565b508054600082559060005260206000209081019061173a91905b5b80821115613ff25760008155600101613fde565b5090565b60008060006060848603121561400b57600080fd5b505081359360208301359350604090920135919050565b6000806040838503121561403557600080fd5b50508035926020909101359150565b60005b8381101561405f578181015183820152602001614047565b50506000910152565b60008151808452614080816020860160208601614044565b601f01601f19169290920160200192915050565b6020815260018060a01b0382511660208201526020820151604082015260006040830151606080840152613a7a6080840182614068565b60008082840360608112156140df57600080fd5b833592506040601f19820112156140f557600080fd5b506020830190509250929050565b60006020828403121561411557600080fd5b813567ffffffffffffffff81111561412c57600080fd5b8201610140818503121561135257600080fd5b6000806000806080858703121561415557600080fd5b5050823594602084013594506040840135936060013592509050565b801515811461173a57600080fd5b60008060006060848603121561419457600080fd5b833592506020840135915060408401356141ad81614171565b809150509250925092565b600080604083850312156141cb57600080fd5b8235915060208301356141dd81614171565b809150509250929050565b6000602082840312156141fa57600080fd5b5035919050565b6001600160a01b038116811461173a57600080fd5b6000806000806080858703121561422c57600080fd5b843593506020850135925060408501359150606085013561424c81614201565b939692955090935050565b60006020828403121561426957600080fd5b813561135281614201565b6020808252825182820181905260009190848201906040850190845b818110156142ac57835183529284019291840191600101614290565b50909695505050505050565b600081518084526020808501945080840160005b838110156142e8578151875295820195908201906001016142cc565b509495945050505050565b60208152600061135260208301846142b8565b6000806040838503121561431957600080fd5b8235915060208301356141dd81614201565b81516001600160a01b03168152602080830151610140830191614358908401826001600160a01b03169052565b50604083015161437360408401826001600160a01b03169052565b506060830151614390606084018280518252602090810151910152565b50608083015180151560a08401525060a083015160c083015260c083015160e083015260e08301516101006143cf818501836001600160a01b03169052565b84015180151561012085015290505092915050565b6040815260006143f760408301856142b8565b90508260208301529392505050565b60008083601f84011261441857600080fd5b50813567ffffffffffffffff81111561443057600080fd5b6020830191508360208260051b8501011115613db957600080fd5b60008060008060008060006080888a03121561446657600080fd5b87359650602088013567ffffffffffffffff8082111561448557600080fd5b6144918b838c01614406565b909850965060408a01359150808211156144aa57600080fd5b6144b68b838c01614406565b909650945060608a01359150808211156144cf57600080fd5b506144dc8a828b01614406565b989b979a50959850939692959293505050565b6000806000806060858703121561450557600080fd5b8435935060208501359250604085013567ffffffffffffffff8082111561452b57600080fd5b818701915087601f83011261453f57600080fd5b81358181111561454e57600080fd5b8860208260061b850101111561456357600080fd5b95989497505060200194505050565b6001600160a01b0392831681529116602082015260400190565b634e487b7160e01b600052601160045260246000fd5b80820180821115610d5557610d5561458c565b81810381811115610d5557610d5561458c565b6001600160a01b0393841681529183166020830152909116604082015260600190565b600181811c908216806145ff57607f821691505b60208210810361461f57634e487b7160e01b600052602260045260246000fd5b50919050565b813581526020808301359082015260408101610d55565b60006001820161464e5761464e61458c565b5060010190565b634e487b7160e01b600052604160045260246000fd5b6040805190810167ffffffffffffffff8111828210171561469c57634e487b7160e01b600052604160045260246000fd5b60405290565b6000604082840312156146b457600080fd5b6146bc61466b565b82358152602083013560208201528091505092915050565b6000602082840312156146e657600080fd5b813561135281614171565b84815260a0810161470f602083018680358252602090810135910152565b6001600160a01b0393841660608301529190921660809092019190915292915050565b6000808335601e1984360301811261474957600080fd5b83018035915067ffffffffffffffff82111561476457600080fd5b6020019150600581901b3603821315613db957600080fd5b634e487b7160e01b600052603260045260246000fd5b6000602082840312156147a457600080fd5b815161135281614171565b60008235605e198336030181126147c557600080fd5b9190910192915050565b601f821115610ae957600081815260208120601f850160051c810160208610156147f65750805b601f850160051c820191505b8181101561481557828155600101614802565b505050505050565b813561482881614201565b81546001600160a01b0319166001600160a01b03919091161781556020828101356001838101919091559060028301604085013536869003601e1901811261486f57600080fd5b8501803567ffffffffffffffff81111561488857600080fd5b803603848301131561489957600080fd5b6148ad816148a785546145eb565b856147cf565b6000601f8211600181146148e357600083156148cb57508382018601355b600019600385901b1c1916600184901b1785556127ea565b600085815260209020601f19841690835b82811015614913578685018901358255938801939089019088016148f4565b50848210156149325760001960f88660031b161c198885880101351681555b50505050841b909301905550505050565b6000808335601e1984360301811261495a57600080fd5b83018035915067ffffffffffffffff82111561497557600080fd5b6020019150600681901b3603821315613db957600080fd5b634e487b7160e01b600052603160045260246000fd5b600082516147c5818460208701614044565b602081526000611352602083018461406856fea2646970667358221220ab4426a58a1d993751219a9c631da04cefea667d1b78cbdf6e1709d3c9e88d2a64736f6c63430008120033",
  "devdoc": {
    "events": {
      "Paused(address)": {
        "details": "Emitted when the pause is triggered by `account`."
      },
      "Unpaused(address)": {
        "details": "Emitted when the pause is lifted by `account`."
      }
    },
    "kind": "dev",
    "methods": {
      "addCurrencies(uint256,bytes32,(bytes32,uint256)[])": {
        "details": "WARNING: Adding excessive currencies may cause withdrawal to exceed gas limits. Depositors can remove entries individually if needed. Recommended: <50 currencies per payment method.",
        "params": {
          "_currencies": "The currencies to add (code and conversion rate)",
          "_depositId": "The deposit ID",
          "_paymentMethod": "The payment method"
        }
      },
      "addFunds(uint256,uint256)": {
        "params": {
          "_amount": "The amount of tokens to add",
          "_depositId": "The deposit ID to add funds to"
        }
      },
      "addPaymentMethods(uint256,bytes32[],(address,bytes32,bytes)[],(bytes32,uint256)[][])": {
        "details": "WARNING: Adding excessive payment methods or currencies may cause withdrawal to exceed gas limits. Depositors can remove entries individually if needed. Recommended: <10 payment methods, <50 currencies each.",
        "params": {
          "_currencies": "The currencies for the payment methods",
          "_depositId": "The deposit ID",
          "_paymentMethodData": "The payment verification data for the payment methods",
          "_paymentMethods": "The payment methods to add"
        }
      },
      "deactivateCurrency(uint256,bytes32,bytes32)": {
        "params": {
          "_currencyCode": "The currency code to deactivate",
          "_depositId": "The deposit ID",
          "_paymentMethod": "The payment method"
        }
      },
      "extendIntentExpiry(uint256,bytes32,uint256)": {
        "params": {
          "_additionalTime": "The additional time to extend the expiry by",
          "_depositId": "The deposit ID containing the intent",
          "_intentHash": "The intent hash to extend expiry for"
        }
      },
      "lockFunds(uint256,bytes32,uint256)": {
        "params": {
          "_amount": "The amount to lock",
          "_depositId": "The deposit ID to lock funds from",
          "_intentHash": "The intent hash this intent corresponds to"
        }
      },
      "owner()": {
        "details": "Returns the address of the current owner."
      },
      "paused()": {
        "details": "Returns true if the contract is paused, and false otherwise."
      },
      "pruneExpiredIntents(uint256)": {
        "params": {
          "_depositId": "The deposit ID to prune expired intents for"
        }
      },
      "removeDelegate(uint256)": {
        "params": {
          "_depositId": "The deposit ID"
        }
      },
      "removeFunds(uint256,uint256)": {
        "params": {
          "_amount": "The amount of tokens to remove",
          "_depositId": "The deposit ID to remove funds from"
        }
      },
      "renounceOwnership()": {
        "details": "Leaves the contract without owner. It will not be possible to call `onlyOwner` functions. Can only be called by the current owner. NOTE: Renouncing ownership will leave the contract without an owner, thereby disabling any functionality that is only available to the owner."
      },
      "setAcceptingIntents(uint256,bool)": {
        "params": {
          "_acceptingIntents": "The new accepting intents state",
          "_depositId": "The deposit ID"
        }
      },
      "setCurrencyMinRate(uint256,bytes32,bytes32,uint256)": {
        "params": {
          "_depositId": "The deposit ID",
          "_fiatCurrency": "The fiat currency code to update the min conversion rate for",
          "_newMinConversionRate": "The new min conversion rate. Must be greater than 0.",
          "_paymentMethod": "The payment method to update the min conversion rate for"
        }
      },
      "setDelegate(uint256,address)": {
        "params": {
          "_delegate": "The address to set as delegate (address(0) to remove delegate)",
          "_depositId": "The deposit ID"
        }
      },
      "setDustRecipient(address)": {
        "params": {
          "_dustRecipient": "The new dust recipient address"
        }
      },
      "setDustThreshold(uint256)": {
        "params": {
          "_dustThreshold": "The new dust threshold amount"
        }
      },
      "setIntentExpirationPeriod(uint256)": {
        "params": {
          "_intentExpirationPeriod": "The new intent expiration period in seconds"
        }
      },
      "setIntentRange(uint256,(uint256,uint256))": {
        "params": {
          "_depositId": "The deposit ID",
          "_intentAmountRange": "The new intent amount range"
        }
      },
      "setMaxIntentsPerDeposit(uint256)": {
        "params": {
          "_maxIntentsPerDeposit": "The new maximum number of active intents per deposit"
        }
      },
      "setOrchestrator(address)": {
        "params": {
          "_orchestrator": "The orchestrator contract address"
        }
      },
      "setPaymentMethodActive(uint256,bytes32,bool)": {
        "params": {
          "_depositId": "The deposit ID",
          "_isActive": "New active state",
          "_paymentMethod": "The payment method"
        }
      },
      "setPaymentVerifierRegistry(address)": {
        "params": {
          "_paymentVerifierRegistry": "New payment verifier registry address"
        }
      },
      "setRetainOnEmpty(uint256,bool)": {
        "params": {
          "_depositId": "The deposit ID",
          "_retainOnEmpty": "New retain-on-empty flag value"
        }
      },
      "transferOwnership(address)": {
        "details": "Transfers ownership of the contract to a new account (`newOwner`). Can only be called by the current owner."
      },
      "unlockAndTransferFunds(uint256,bytes32,uint256,address)": {
        "params": {
          "_depositId": "The deposit ID to transfer from",
          "_intentHash": "The intent hash to find and remove the intent for",
          "_to": "The address to transfer to (orchestrator)",
          "_transferAmount": "The amount to actually transfer (may be less than intent amount)"
        }
      },
      "unlockFunds(uint256,bytes32)": {
        "params": {
          "_depositId": "The deposit ID to unlock funds from",
          "_intentHash": "The intent hash to find and remove the intent for"
        }
      },
      "withdrawDeposit(uint256)": {
        "params": {
          "_depositId": "DepositId the depositor is attempting to withdraw"
        }
      }
    },
    "title": "Escrow",
    "version": 1
  },
  "userdoc": {
    "kind": "user",
    "methods": {
      "addCurrencies(uint256,bytes32,(bytes32,uint256)[])": {
        "notice": "Allows depositor to add a new currencies to an existing verifier for a deposit."
      },
      "addFunds(uint256,uint256)": {
        "notice": "Adds additional funds to an existing deposit. Any EOA or contract can add funds. The funds will be added to the remaining deposits amount, making it available for new intents."
      },
      "addPaymentMethods(uint256,bytes32[],(address,bytes32,bytes)[],(bytes32,uint256)[][])": {
        "notice": "Allows depositor to add a new payment verifier and its associated currencies to an existing deposit."
      },
      "createDeposit((address,uint256,(uint256,uint256),bytes32[],(address,bytes32,bytes)[],(bytes32,uint256)[][],address,address,bool))": {
        "notice": "Creates a deposit entry by locking liquidity in the escrow contract that can be taken by signaling intents. This function will  not add to previous deposits. Every deposit has it's own unique identifier. User must approve the contract to transfer the deposit amount of deposit token. Every deposit specifies the payment methods it supports by specifying their verification data, supported currencies and  their min conversion rates for each payment method. Optionally, a delegate to manage the deposit can be specified. Note that the order of the payment methods, verification data, and currency data must match."
      },
      "deactivateCurrency(uint256,bytes32,bytes32)": {
        "notice": "Allows depositor to deactivate a currency from a verifier for a deposit. The currency is deactivated."
      },
      "extendIntentExpiry(uint256,bytes32,uint256)": {
        "notice": "INTENT GUARDIAN ONLY: Extends the expiry time of an existing intent. Only callable by intent guardian. This function reverts if the total intent expiry period is greater than the maximum allowed to prevent griefing by extending the intent expiry period indefinitely. "
      },
      "lockFunds(uint256,bytes32,uint256)": {
        "notice": "ORCHESTRATOR ONLY: Locks funds for an intent with expiry time. Only callable by orchestrator. Places a lock on the deposit, stores lock amount along with it's expiry timestamp for unlocking later. "
      },
      "pauseEscrow()": {
        "notice": "GOVERNANCE ONLY: Pauses deposit modifications and new deposit creation.  Functionalities that are paused: - Deposit creation (createDeposit) - Adding/removing funds to deposits (addFunds, removeFunds) - Updating deposit parameters (conversion rates, intent ranges, accepting intents state) - Adding/removing payment methods and currencies Functionalities that remain unpaused to allow users to rescue funds: - Full deposit withdrawal (withdrawDeposit) - Expired intent pruning (pruneExpiredIntentsAndReclaimLiquidity) - Orchestrator operations (lockFunds, unlockFunds, unlockAndTransferFunds) - Intent expiry extensions by guardian - All view functions"
      },
      "pruneExpiredIntents(uint256)": {
        "notice": "ANYONE: Can be called by anyone to clean up expired intents. "
      },
      "removeDelegate(uint256)": {
        "notice": "Allows depositor to remove the delegate for a specific deposit"
      },
      "removeFunds(uint256,uint256)": {
        "notice": "Removes funds from an existing deposit. Only the depositor can remove funds. If the amount to remove is greater than the remaining deposits, then expired intents will be pruned to reclaim liquidity. If the remaining deposits is less than the min intent amount, then the deposit will be marked as not accepting intents. "
      },
      "setAcceptingIntents(uint256,bool)": {
        "notice": "Allows depositor or delegateto set the accepting intents state for a deposit."
      },
      "setCurrencyMinRate(uint256,bytes32,bytes32,uint256)": {
        "notice": "Only callable by the depositor/delegate for a deposit. Allows depositor/delegate to update the min conversion rate for a  currency for a payment verifier provided the currency was previously listed (otherwise use addCurrenciesToDepositPaymentMethod).  Since intent's store the conversion rate at the time of intent, changing the min conversion rate will not affect any intents that  have already been signaled."
      },
      "setDelegate(uint256,address)": {
        "notice": "Allows depositor to set a delegate address that can manage a specific deposit"
      },
      "setDustRecipient(address)": {
        "notice": "GOVERNANCE ONLY: Sets the dust recipient address."
      },
      "setDustThreshold(uint256)": {
        "notice": "GOVERNANCE ONLY: Sets the dust threshold below which deposits can be closed automatically."
      },
      "setIntentExpirationPeriod(uint256)": {
        "notice": "GOVERNANCE ONLY: Sets the intent expiration period."
      },
      "setIntentRange(uint256,(uint256,uint256))": {
        "notice": "Allows depositor to update the intent amount range for a deposit. Since intent's are already created within the previous intent amount range, changing the intent amount range will not affect any intents that have already been signaled."
      },
      "setMaxIntentsPerDeposit(uint256)": {
        "notice": "GOVERNANCE ONLY: Sets the maximum number of active intents per deposit."
      },
      "setOrchestrator(address)": {
        "notice": "GOVERNANCE ONLY: Sets the orchestrator contract address. Only callable by owner."
      },
      "setPaymentMethodActive(uint256,bytes32,bool)": {
        "notice": "Allows depositor or delegate to toggle a payment method's active state without removing it. This function allows depositor to remove an existing payment verifier from a deposit by setting active to false. The deposit and currencies data is not deleted immediately and instead deferred to when the deposit is fully closed. NOTE: This function does not delete the payment method data to allow existing intents to be fulfilled."
      },
      "setPaymentVerifierRegistry(address)": {
        "notice": "GOVERNANCE ONLY: Updates the payment verifier registry address."
      },
      "setRetainOnEmpty(uint256,bool)": {
        "notice": "Allows depositor or delegate to set the retain-on-empty behavior for a deposit. When true, the deposit will not auto-close or sweep dust when empty; config (payment methods, currencies, rate etc) stays for reuse."
      },
      "unlockAndTransferFunds(uint256,bytes32,uint256,address)": {
        "notice": "ORCHESTRATOR ONLY: Unlocks and transfers funds from a fulfilled intent by removing the specific intent. Only callable by orchestrator. Releases the lock on deposlit liquidity and transfers out partial/full locked amount to the given to address. "
      },
      "unlockFunds(uint256,bytes32)": {
        "notice": "ORCHESTRATOR ONLY: Unlocks funds from a cancelled intent by removing the specific intent.  Releases the lock on deposit liquidity and adds it back to the deposit. "
      },
      "unpauseEscrow()": {
        "notice": "GOVERNANCE ONLY: Restarts paused functionality for the escrow."
      },
      "withdrawDeposit(uint256)": {
        "notice": "Depositor is returned all remaining deposits and any outstanding intents that are expired. Only the depositor can withdraw.  If an intent is not expired then those funds will not be returned. Deposit is marked as to not accept new intents and the funds locked due to intents can be withdrawn once they expire by calling this function again. Deposit will be deleted as long as there are no more outstanding intents."
      }
    },
    "notice": "Escrows deposits and manages deposit lifecycle.",
    "version": 1
  },
  "storageLayout": {
    "storage": [
      {
        "astId": 7,
        "contract": "contracts/Escrow.sol:Escrow",
        "label": "_owner",
        "offset": 0,
        "slot": "0",
        "type": "t_address"
      },
      {
        "astId": 144,
        "contract": "contracts/Escrow.sol:Escrow",
        "label": "_paused",
        "offset": 20,
        "slot": "0",
        "type": "t_bool"
      },
      {
        "astId": 245,
        "contract": "contracts/Escrow.sol:Escrow",
        "label": "_status",
        "offset": 0,
        "slot": "1",
        "type": "t_uint256"
      },
      {
        "astId": 2900,
        "contract": "contracts/Escrow.sol:Escrow",
        "label": "orchestrator",
        "offset": 0,
        "slot": "2",
        "type": "t_contract(IOrchestrator)7513"
      },
      {
        "astId": 2903,
        "contract": "contracts/Escrow.sol:Escrow",
        "label": "paymentVerifierRegistry",
        "offset": 0,
        "slot": "3",
        "type": "t_contract(IPaymentVerifierRegistry)7579"
      },
      {
        "astId": 2910,
        "contract": "contracts/Escrow.sol:Escrow",
        "label": "accountDeposits",
        "offset": 0,
        "slot": "4",
        "type": "t_mapping(t_address,t_array(t_uint256)dyn_storage)"
      },
      {
        "astId": 2917,
        "contract": "contracts/Escrow.sol:Escrow",
        "label": "depositPaymentMethodData",
        "offset": 0,
        "slot": "5",
        "type": "t_mapping(t_uint256,t_mapping(t_bytes32,t_struct(DepositPaymentMethodData)6727_storage))"
      },
      {
        "astId": 2922,
        "contract": "contracts/Escrow.sol:Escrow",
        "label": "depositPaymentMethods",
        "offset": 0,
        "slot": "6",
        "type": "t_mapping(t_uint256,t_array(t_bytes32)dyn_storage)"
      },
      {
        "astId": 2928,
        "contract": "contracts/Escrow.sol:Escrow",
        "label": "depositPaymentMethodActive",
        "offset": 0,
        "slot": "7",
        "type": "t_mapping(t_uint256,t_mapping(t_bytes32,t_bool))"
      },
      {
        "astId": 2934,
        "contract": "contracts/Escrow.sol:Escrow",
        "label": "depositPaymentMethodListed",
        "offset": 0,
        "slot": "8",
        "type": "t_mapping(t_uint256,t_mapping(t_bytes32,t_bool))"
      },
      {
        "astId": 2942,
        "contract": "contracts/Escrow.sol:Escrow",
        "label": "depositCurrencyMinRate",
        "offset": 0,
        "slot": "9",
        "type": "t_mapping(t_uint256,t_mapping(t_bytes32,t_mapping(t_bytes32,t_uint256)))"
      },
      {
        "astId": 2949,
        "contract": "contracts/Escrow.sol:Escrow",
        "label": "depositCurrencies",
        "offset": 0,
        "slot": "10",
        "type": "t_mapping(t_uint256,t_mapping(t_bytes32,t_array(t_bytes32)dyn_storage))"
      },
      {
        "astId": 2957,
        "contract": "contracts/Escrow.sol:Escrow",
        "label": "depositCurrencyListed",
        "offset": 0,
        "slot": "11",
        "type": "t_mapping(t_uint256,t_mapping(t_bytes32,t_mapping(t_bytes32,t_bool)))"
      },
      {
        "astId": 2962,
        "contract": "contracts/Escrow.sol:Escrow",
        "label": "deposits",
        "offset": 0,
        "slot": "12",
        "type": "t_mapping(t_uint256,t_struct(Deposit)6715_storage)"
      },
      {
        "astId": 2967,
        "contract": "contracts/Escrow.sol:Escrow",
        "label": "depositIntentHashes",
        "offset": 0,
        "slot": "13",
        "type": "t_mapping(t_uint256,t_array(t_bytes32)dyn_storage)"
      },
      {
        "astId": 2974,
        "contract": "contracts/Escrow.sol:Escrow",
        "label": "depositIntents",
        "offset": 0,
        "slot": "14",
        "type": "t_mapping(t_uint256,t_mapping(t_bytes32,t_struct(Intent)6689_storage))"
      },
      {
        "astId": 2976,
        "contract": "contracts/Escrow.sol:Escrow",
        "label": "depositCounter",
        "offset": 0,
        "slot": "15",
        "type": "t_uint256"
      },
      {
        "astId": 2978,
        "contract": "contracts/Escrow.sol:Escrow",
        "label": "dustRecipient",
        "offset": 0,
        "slot": "16",
        "type": "t_address"
      },
      {
        "astId": 2980,
        "contract": "contracts/Escrow.sol:Escrow",
        "label": "dustThreshold",
        "offset": 0,
        "slot": "17",
        "type": "t_uint256"
      },
      {
        "astId": 2982,
        "contract": "contracts/Escrow.sol:Escrow",
        "label": "maxIntentsPerDeposit",
        "offset": 0,
        "slot": "18",
        "type": "t_uint256"
      },
      {
        "astId": 2984,
        "contract": "contracts/Escrow.sol:Escrow",
        "label": "intentExpirationPeriod",
        "offset": 0,
        "slot": "19",
        "type": "t_uint256"
      }
    ],
    "types": {
      "t_address": {
        "encoding": "inplace",
        "label": "address",
        "numberOfBytes": "20"
      },
      "t_array(t_bytes32)dyn_storage": {
        "base": "t_bytes32",
        "encoding": "dynamic_array",
        "label": "bytes32[]",
        "numberOfBytes": "32"
      },
      "t_array(t_uint256)dyn_storage": {
        "base": "t_uint256",
        "encoding": "dynamic_array",
        "label": "uint256[]",
        "numberOfBytes": "32"
      },
      "t_bool": {
        "encoding": "inplace",
        "label": "bool",
        "numberOfBytes": "1"
      },
      "t_bytes32": {
        "encoding": "inplace",
        "label": "bytes32",
        "numberOfBytes": "32"
      },
      "t_bytes_storage": {
        "encoding": "bytes",
        "label": "bytes",
        "numberOfBytes": "32"
      },
      "t_contract(IERC20)377": {
        "encoding": "inplace",
        "label": "contract IERC20",
        "numberOfBytes": "20"
      },
      "t_contract(IOrchestrator)7513": {
        "encoding": "inplace",
        "label": "contract IOrchestrator",
        "numberOfBytes": "20"
      },
      "t_contract(IPaymentVerifierRegistry)7579": {
        "encoding": "inplace",
        "label": "contract IPaymentVerifierRegistry",
        "numberOfBytes": "20"
      },
      "t_mapping(t_address,t_array(t_uint256)dyn_storage)": {
        "encoding": "mapping",
        "key": "t_address",
        "label": "mapping(address => uint256[])",
        "numberOfBytes": "32",
        "value": "t_array(t_uint256)dyn_storage"
      },
      "t_mapping(t_bytes32,t_array(t_bytes32)dyn_storage)": {
        "encoding": "mapping",
        "key": "t_bytes32",
        "label": "mapping(bytes32 => bytes32[])",
        "numberOfBytes": "32",
        "value": "t_array(t_bytes32)dyn_storage"
      },
      "t_mapping(t_bytes32,t_bool)": {
        "encoding": "mapping",
        "key": "t_bytes32",
        "label": "mapping(bytes32 => bool)",
        "numberOfBytes": "32",
        "value": "t_bool"
      },
      "t_mapping(t_bytes32,t_mapping(t_bytes32,t_bool))": {
        "encoding": "mapping",
        "key": "t_bytes32",
        "label": "mapping(bytes32 => mapping(bytes32 => bool))",
        "numberOfBytes": "32",
        "value": "t_mapping(t_bytes32,t_bool)"
      },
      "t_mapping(t_bytes32,t_mapping(t_bytes32,t_uint256))": {
        "encoding": "mapping",
        "key": "t_bytes32",
        "label": "mapping(bytes32 => mapping(bytes32 => uint256))",
        "numberOfBytes": "32",
        "value": "t_mapping(t_bytes32,t_uint256)"
      },
      "t_mapping(t_bytes32,t_struct(DepositPaymentMethodData)6727_storage)": {
        "encoding": "mapping",
        "key": "t_bytes32",
        "label": "mapping(bytes32 => struct IEscrow.DepositPaymentMethodData)",
        "numberOfBytes": "32",
        "value": "t_struct(DepositPaymentMethodData)6727_storage"
      },
      "t_mapping(t_bytes32,t_struct(Intent)6689_storage)": {
        "encoding": "mapping",
        "key": "t_bytes32",
        "label": "mapping(bytes32 => struct IEscrow.Intent)",
        "numberOfBytes": "32",
        "value": "t_struct(Intent)6689_storage"
      },
      "t_mapping(t_bytes32,t_uint256)": {
        "encoding": "mapping",
        "key": "t_bytes32",
        "label": "mapping(bytes32 => uint256)",
        "numberOfBytes": "32",
        "value": "t_uint256"
      },
      "t_mapping(t_uint256,t_array(t_bytes32)dyn_storage)": {
        "encoding": "mapping",
        "key": "t_uint256",
        "label": "mapping(uint256 => bytes32[])",
        "numberOfBytes": "32",
        "value": "t_array(t_bytes32)dyn_storage"
      },
      "t_mapping(t_uint256,t_mapping(t_bytes32,t_array(t_bytes32)dyn_storage))": {
        "encoding": "mapping",
        "key": "t_uint256",
        "label": "mapping(uint256 => mapping(bytes32 => bytes32[]))",
        "numberOfBytes": "32",
        "value": "t_mapping(t_bytes32,t_array(t_bytes32)dyn_storage)"
      },
      "t_mapping(t_uint256,t_mapping(t_bytes32,t_bool))": {
        "encoding": "mapping",
        "key": "t_uint256",
        "label": "mapping(uint256 => mapping(bytes32 => bool))",
        "numberOfBytes": "32",
        "value": "t_mapping(t_bytes32,t_bool)"
      },
      "t_mapping(t_uint256,t_mapping(t_bytes32,t_mapping(t_bytes32,t_bool)))": {
        "encoding": "mapping",
        "key": "t_uint256",
        "label": "mapping(uint256 => mapping(bytes32 => mapping(bytes32 => bool)))",
        "numberOfBytes": "32",
        "value": "t_mapping(t_bytes32,t_mapping(t_bytes32,t_bool))"
      },
      "t_mapping(t_uint256,t_mapping(t_bytes32,t_mapping(t_bytes32,t_uint256)))": {
        "encoding": "mapping",
        "key": "t_uint256",
        "label": "mapping(uint256 => mapping(bytes32 => mapping(bytes32 => uint256)))",
        "numberOfBytes": "32",
        "value": "t_mapping(t_bytes32,t_mapping(t_bytes32,t_uint256))"
      },
      "t_mapping(t_uint256,t_mapping(t_bytes32,t_struct(DepositPaymentMethodData)6727_storage))": {
        "encoding": "mapping",
        "key": "t_uint256",
        "label": "mapping(uint256 => mapping(bytes32 => struct IEscrow.DepositPaymentMethodData))",
        "numberOfBytes": "32",
        "value": "t_mapping(t_bytes32,t_struct(DepositPaymentMethodData)6727_storage)"
      },
      "t_mapping(t_uint256,t_mapping(t_bytes32,t_struct(Intent)6689_storage))": {
        "encoding": "mapping",
        "key": "t_uint256",
        "label": "mapping(uint256 => mapping(bytes32 => struct IEscrow.Intent))",
        "numberOfBytes": "32",
        "value": "t_mapping(t_bytes32,t_struct(Intent)6689_storage)"
      },
      "t_mapping(t_uint256,t_struct(Deposit)6715_storage)": {
        "encoding": "mapping",
        "key": "t_uint256",
        "label": "mapping(uint256 => struct IEscrow.Deposit)",
        "numberOfBytes": "32",
        "value": "t_struct(Deposit)6715_storage"
      },
      "t_struct(Deposit)6715_storage": {
        "encoding": "inplace",
        "label": "struct IEscrow.Deposit",
        "members": [
          {
            "astId": 6696,
            "contract": "contracts/Escrow.sol:Escrow",
            "label": "depositor",
            "offset": 0,
            "slot": "0",
            "type": "t_address"
          },
          {
            "astId": 6698,
            "contract": "contracts/Escrow.sol:Escrow",
            "label": "delegate",
            "offset": 0,
            "slot": "1",
            "type": "t_address"
          },
          {
            "astId": 6701,
            "contract": "contracts/Escrow.sol:Escrow",
            "label": "token",
            "offset": 0,
            "slot": "2",
            "type": "t_contract(IERC20)377"
          },
          {
            "astId": 6704,
            "contract": "contracts/Escrow.sol:Escrow",
            "label": "intentAmountRange",
            "offset": 0,
            "slot": "3",
            "type": "t_struct(Range)6694_storage"
          },
          {
            "astId": 6706,
            "contract": "contracts/Escrow.sol:Escrow",
            "label": "acceptingIntents",
            "offset": 0,
            "slot": "5",
            "type": "t_bool"
          },
          {
            "astId": 6708,
            "contract": "contracts/Escrow.sol:Escrow",
            "label": "remainingDeposits",
            "offset": 0,
            "slot": "6",
            "type": "t_uint256"
          },
          {
            "astId": 6710,
            "contract": "contracts/Escrow.sol:Escrow",
            "label": "outstandingIntentAmount",
            "offset": 0,
            "slot": "7",
            "type": "t_uint256"
          },
          {
            "astId": 6712,
            "contract": "contracts/Escrow.sol:Escrow",
            "label": "intentGuardian",
            "offset": 0,
            "slot": "8",
            "type": "t_address"
          },
          {
            "astId": 6714,
            "contract": "contracts/Escrow.sol:Escrow",
            "label": "retainOnEmpty",
            "offset": 20,
            "slot": "8",
            "type": "t_bool"
          }
        ],
        "numberOfBytes": "288"
      },
      "t_struct(DepositPaymentMethodData)6727_storage": {
        "encoding": "inplace",
        "label": "struct IEscrow.DepositPaymentMethodData",
        "members": [
          {
            "astId": 6722,
            "contract": "contracts/Escrow.sol:Escrow",
            "label": "intentGatingService",
            "offset": 0,
            "slot": "0",
            "type": "t_address"
          },
          {
            "astId": 6724,
            "contract": "contracts/Escrow.sol:Escrow",
            "label": "payeeDetails",
            "offset": 0,
            "slot": "1",
            "type": "t_bytes32"
          },
          {
            "astId": 6726,
            "contract": "contracts/Escrow.sol:Escrow",
            "label": "data",
            "offset": 0,
            "slot": "2",
            "type": "t_bytes_storage"
          }
        ],
        "numberOfBytes": "96"
      },
      "t_struct(Intent)6689_storage": {
        "encoding": "inplace",
        "label": "struct IEscrow.Intent",
        "members": [
          {
            "astId": 6682,
            "contract": "contracts/Escrow.sol:Escrow",
            "label": "intentHash",
            "offset": 0,
            "slot": "0",
            "type": "t_bytes32"
          },
          {
            "astId": 6684,
            "contract": "contracts/Escrow.sol:Escrow",
            "label": "amount",
            "offset": 0,
            "slot": "1",
            "type": "t_uint256"
          },
          {
            "astId": 6686,
            "contract": "contracts/Escrow.sol:Escrow",
            "label": "timestamp",
            "offset": 0,
            "slot": "2",
            "type": "t_uint256"
          },
          {
            "astId": 6688,
            "contract": "contracts/Escrow.sol:Escrow",
            "label": "expiryTime",
            "offset": 0,
            "slot": "3",
            "type": "t_uint256"
          }
        ],
        "numberOfBytes": "128"
      },
      "t_struct(Range)6694_storage": {
        "encoding": "inplace",
        "label": "struct IEscrow.Range",
        "members": [
          {
            "astId": 6691,
            "contract": "contracts/Escrow.sol:Escrow",
            "label": "min",
            "offset": 0,
            "slot": "0",
            "type": "t_uint256"
          },
          {
            "astId": 6693,
            "contract": "contracts/Escrow.sol:Escrow",
            "label": "max",
            "offset": 0,
            "slot": "1",
            "type": "t_uint256"
          }
        ],
        "numberOfBytes": "64"
      },
      "t_uint256": {
        "encoding": "inplace",
        "label": "uint256",
        "numberOfBytes": "32"
      }
    }
  }
}