{
  "address": "0x8455b9a31041125C785044f45458eCf2cbB12eF7",
  "abi": [
    {
      "inputs": [
        {
          "internalType": "address",
          "name": "_owner",
          "type": "address"
        },
        {
          "internalType": "uint256",
          "name": "_chainId",
          "type": "uint256"
        },
        {
          "internalType": "address",
          "name": "_paymentVerifierRegistry",
          "type": "address"
        },
        {
          "internalType": "address",
          "name": "_dustRecipient",
          "type": "address"
        },
        {
          "internalType": "uint256",
          "name": "_dustThreshold",
          "type": "uint256"
        },
        {
          "internalType": "uint256",
          "name": "_maxIntentsPerDeposit",
          "type": "uint256"
        },
        {
          "internalType": "uint256",
          "name": "_intentExpirationPeriod",
          "type": "uint256"
        }
      ],
      "stateMutability": "nonpayable",
      "type": "constructor"
    },
    {
      "inputs": [
        {
          "internalType": "uint256",
          "name": "amount",
          "type": "uint256"
        },
        {
          "internalType": "uint256",
          "name": "max",
          "type": "uint256"
        }
      ],
      "name": "AmountAboveMax",
      "type": "error"
    },
    {
      "inputs": [
        {
          "internalType": "uint256",
          "name": "amount",
          "type": "uint256"
        },
        {
          "internalType": "uint256",
          "name": "min",
          "type": "uint256"
        }
      ],
      "name": "AmountBelowMin",
      "type": "error"
    },
    {
      "inputs": [
        {
          "internalType": "uint256",
          "name": "requested",
          "type": "uint256"
        },
        {
          "internalType": "uint256",
          "name": "available",
          "type": "uint256"
        }
      ],
      "name": "AmountExceedsAvailable",
      "type": "error"
    },
    {
      "inputs": [
        {
          "internalType": "uint256",
          "name": "length1",
          "type": "uint256"
        },
        {
          "internalType": "uint256",
          "name": "length2",
          "type": "uint256"
        }
      ],
      "name": "ArrayLengthMismatch",
      "type": "error"
    },
    {
      "inputs": [
        {
          "internalType": "bytes32",
          "name": "paymentMethod",
          "type": "bytes32"
        },
        {
          "internalType": "bytes32",
          "name": "currency",
          "type": "bytes32"
        }
      ],
      "name": "CurrencyAlreadyExists",
      "type": "error"
    },
    {
      "inputs": [
        {
          "internalType": "bytes32",
          "name": "paymentMethod",
          "type": "bytes32"
        },
        {
          "internalType": "bytes32",
          "name": "currency",
          "type": "bytes32"
        }
      ],
      "name": "CurrencyNotFound",
      "type": "error"
    },
    {
      "inputs": [
        {
          "internalType": "bytes32",
          "name": "paymentMethod",
          "type": "bytes32"
        },
        {
          "internalType": "bytes32",
          "name": "currency",
          "type": "bytes32"
        }
      ],
      "name": "CurrencyNotSupported",
      "type": "error"
    },
    {
      "inputs": [
        {
          "internalType": "uint256",
          "name": "depositId",
          "type": "uint256"
        }
      ],
      "name": "DelegateNotFound",
      "type": "error"
    },
    {
      "inputs": [
        {
          "internalType": "uint256",
          "name": "depositId",
          "type": "uint256"
        },
        {
          "internalType": "bool",
          "name": "currentState",
          "type": "bool"
        }
      ],
      "name": "DepositAlreadyInState",
      "type": "error"
    },
    {
      "inputs": [
        {
          "internalType": "uint256",
          "name": "depositId",
          "type": "uint256"
        }
      ],
      "name": "DepositNotAcceptingIntents",
      "type": "error"
    },
    {
      "inputs": [
        {
          "internalType": "uint256",
          "name": "depositId",
          "type": "uint256"
        }
      ],
      "name": "DepositNotFound",
      "type": "error"
    },
    {
      "inputs": [],
      "name": "EmptyPayeeDetails",
      "type": "error"
    },
    {
      "inputs": [
        {
          "internalType": "uint256",
          "name": "depositId",
          "type": "uint256"
        },
        {
          "internalType": "uint256",
          "name": "available",
          "type": "uint256"
        },
        {
          "internalType": "uint256",
          "name": "required",
          "type": "uint256"
        }
      ],
      "name": "InsufficientDepositLiquidity",
      "type": "error"
    },
    {
      "inputs": [
        {
          "internalType": "uint256",
          "name": "depositId",
          "type": "uint256"
        },
        {
          "internalType": "bytes32",
          "name": "intentHash",
          "type": "bytes32"
        }
      ],
      "name": "IntentAlreadyExists",
      "type": "error"
    },
    {
      "inputs": [
        {
          "internalType": "bytes32",
          "name": "intentHash",
          "type": "bytes32"
        }
      ],
      "name": "IntentNotFound",
      "type": "error"
    },
    {
      "inputs": [
        {
          "internalType": "uint256",
          "name": "min",
          "type": "uint256"
        },
        {
          "internalType": "uint256",
          "name": "max",
          "type": "uint256"
        }
      ],
      "name": "InvalidRange",
      "type": "error"
    },
    {
      "inputs": [
        {
          "internalType": "uint256",
          "name": "depositId",
          "type": "uint256"
        },
        {
          "internalType": "uint256",
          "name": "current",
          "type": "uint256"
        },
        {
          "internalType": "uint256",
          "name": "max",
          "type": "uint256"
        }
      ],
      "name": "MaxIntentsExceeded",
      "type": "error"
    },
    {
      "inputs": [
        {
          "internalType": "uint256",
          "name": "depositId",
          "type": "uint256"
        },
        {
          "internalType": "bytes32",
          "name": "paymentMethod",
          "type": "bytes32"
        }
      ],
      "name": "PaymentMethodAlreadyExists",
      "type": "error"
    },
    {
      "inputs": [
        {
          "internalType": "uint256",
          "name": "depositId",
          "type": "uint256"
        },
        {
          "internalType": "bytes32",
          "name": "paymentMethod",
          "type": "bytes32"
        }
      ],
      "name": "PaymentMethodNotActive",
      "type": "error"
    },
    {
      "inputs": [
        {
          "internalType": "uint256",
          "name": "depositId",
          "type": "uint256"
        },
        {
          "internalType": "bytes32",
          "name": "paymentMethod",
          "type": "bytes32"
        }
      ],
      "name": "PaymentMethodNotListed",
      "type": "error"
    },
    {
      "inputs": [
        {
          "internalType": "bytes32",
          "name": "paymentMethod",
          "type": "bytes32"
        }
      ],
      "name": "PaymentMethodNotWhitelisted",
      "type": "error"
    },
    {
      "inputs": [
        {
          "internalType": "address",
          "name": "caller",
          "type": "address"
        },
        {
          "internalType": "address",
          "name": "authorized",
          "type": "address"
        }
      ],
      "name": "UnauthorizedCaller",
      "type": "error"
    },
    {
      "inputs": [
        {
          "internalType": "address",
          "name": "caller",
          "type": "address"
        },
        {
          "internalType": "address",
          "name": "owner",
          "type": "address"
        },
        {
          "internalType": "address",
          "name": "delegate",
          "type": "address"
        }
      ],
      "name": "UnauthorizedCallerOrDelegate",
      "type": "error"
    },
    {
      "inputs": [],
      "name": "ZeroAddress",
      "type": "error"
    },
    {
      "inputs": [],
      "name": "ZeroConversionRate",
      "type": "error"
    },
    {
      "inputs": [],
      "name": "ZeroMinValue",
      "type": "error"
    },
    {
      "inputs": [],
      "name": "ZeroValue",
      "type": "error"
    },
    {
      "anonymous": false,
      "inputs": [
        {
          "indexed": true,
          "internalType": "uint256",
          "name": "depositId",
          "type": "uint256"
        },
        {
          "indexed": false,
          "internalType": "bool",
          "name": "acceptingIntents",
          "type": "bool"
        }
      ],
      "name": "DepositAcceptingIntentsUpdated",
      "type": "event"
    },
    {
      "anonymous": false,
      "inputs": [
        {
          "indexed": false,
          "internalType": "uint256",
          "name": "depositId",
          "type": "uint256"
        },
        {
          "indexed": false,
          "internalType": "address",
          "name": "depositor",
          "type": "address"
        }
      ],
      "name": "DepositClosed",
      "type": "event"
    },
    {
      "anonymous": false,
      "inputs": [
        {
          "indexed": true,
          "internalType": "uint256",
          "name": "depositId",
          "type": "uint256"
        },
        {
          "indexed": true,
          "internalType": "bytes32",
          "name": "paymentMethod",
          "type": "bytes32"
        },
        {
          "indexed": true,
          "internalType": "bytes32",
          "name": "currency",
          "type": "bytes32"
        },
        {
          "indexed": false,
          "internalType": "uint256",
          "name": "minConversionRate",
          "type": "uint256"
        }
      ],
      "name": "DepositCurrencyAdded",
      "type": "event"
    },
    {
      "anonymous": false,
      "inputs": [
        {
          "indexed": true,
          "internalType": "uint256",
          "name": "depositId",
          "type": "uint256"
        },
        {
          "indexed": true,
          "internalType": "address",
          "name": "depositor",
          "type": "address"
        }
      ],
      "name": "DepositDelegateRemoved",
      "type": "event"
    },
    {
      "anonymous": false,
      "inputs": [
        {
          "indexed": true,
          "internalType": "uint256",
          "name": "depositId",
          "type": "uint256"
        },
        {
          "indexed": true,
          "internalType": "address",
          "name": "depositor",
          "type": "address"
        },
        {
          "indexed": true,
          "internalType": "address",
          "name": "delegate",
          "type": "address"
        }
      ],
      "name": "DepositDelegateSet",
      "type": "event"
    },
    {
      "anonymous": false,
      "inputs": [
        {
          "indexed": true,
          "internalType": "uint256",
          "name": "depositId",
          "type": "uint256"
        },
        {
          "indexed": true,
          "internalType": "address",
          "name": "depositor",
          "type": "address"
        },
        {
          "indexed": false,
          "internalType": "uint256",
          "name": "amount",
          "type": "uint256"
        }
      ],
      "name": "DepositFundsAdded",
      "type": "event"
    },
    {
      "anonymous": false,
      "inputs": [
        {
          "indexed": true,
          "internalType": "uint256",
          "name": "depositId",
          "type": "uint256"
        },
        {
          "components": [
            {
              "internalType": "uint256",
              "name": "min",
              "type": "uint256"
            },
            {
              "internalType": "uint256",
              "name": "max",
              "type": "uint256"
            }
          ],
          "indexed": false,
          "internalType": "struct IEscrow.Range",
          "name": "intentAmountRange",
          "type": "tuple"
        }
      ],
      "name": "DepositIntentAmountRangeUpdated",
      "type": "event"
    },
    {
      "anonymous": false,
      "inputs": [
        {
          "indexed": true,
          "internalType": "uint256",
          "name": "depositId",
          "type": "uint256"
        },
        {
          "indexed": true,
          "internalType": "bytes32",
          "name": "paymentMethod",
          "type": "bytes32"
        },
        {
          "indexed": true,
          "internalType": "bytes32",
          "name": "currency",
          "type": "bytes32"
        },
        {
          "indexed": false,
          "internalType": "uint256",
          "name": "newMinConversionRate",
          "type": "uint256"
        }
      ],
      "name": "DepositMinConversionRateUpdated",
      "type": "event"
    },
    {
      "anonymous": false,
      "inputs": [
        {
          "indexed": true,
          "internalType": "uint256",
          "name": "depositId",
          "type": "uint256"
        },
        {
          "indexed": true,
          "internalType": "bytes32",
          "name": "paymentMethod",
          "type": "bytes32"
        },
        {
          "indexed": false,
          "internalType": "bool",
          "name": "active",
          "type": "bool"
        }
      ],
      "name": "DepositPaymentMethodActiveUpdated",
      "type": "event"
    },
    {
      "anonymous": false,
      "inputs": [
        {
          "indexed": true,
          "internalType": "uint256",
          "name": "depositId",
          "type": "uint256"
        },
        {
          "indexed": true,
          "internalType": "bytes32",
          "name": "paymentMethod",
          "type": "bytes32"
        },
        {
          "indexed": true,
          "internalType": "bytes32",
          "name": "payeeDetails",
          "type": "bytes32"
        },
        {
          "indexed": false,
          "internalType": "address",
          "name": "intentGatingService",
          "type": "address"
        }
      ],
      "name": "DepositPaymentMethodAdded",
      "type": "event"
    },
    {
      "anonymous": false,
      "inputs": [
        {
          "indexed": true,
          "internalType": "uint256",
          "name": "depositId",
          "type": "uint256"
        },
        {
          "indexed": true,
          "internalType": "address",
          "name": "depositor",
          "type": "address"
        },
        {
          "indexed": true,
          "internalType": "contract IERC20",
          "name": "token",
          "type": "address"
        },
        {
          "indexed": false,
          "internalType": "uint256",
          "name": "amount",
          "type": "uint256"
        },
        {
          "components": [
            {
              "internalType": "uint256",
              "name": "min",
              "type": "uint256"
            },
            {
              "internalType": "uint256",
              "name": "max",
              "type": "uint256"
            }
          ],
          "indexed": false,
          "internalType": "struct IEscrow.Range",
          "name": "intentAmountRange",
          "type": "tuple"
        },
        {
          "indexed": false,
          "internalType": "address",
          "name": "delegate",
          "type": "address"
        },
        {
          "indexed": false,
          "internalType": "address",
          "name": "intentGuardian",
          "type": "address"
        }
      ],
      "name": "DepositReceived",
      "type": "event"
    },
    {
      "anonymous": false,
      "inputs": [
        {
          "indexed": true,
          "internalType": "uint256",
          "name": "depositId",
          "type": "uint256"
        },
        {
          "indexed": false,
          "internalType": "bool",
          "name": "retainOnEmpty",
          "type": "bool"
        }
      ],
      "name": "DepositRetainOnEmptyUpdated",
      "type": "event"
    },
    {
      "anonymous": false,
      "inputs": [
        {
          "indexed": true,
          "internalType": "uint256",
          "name": "depositId",
          "type": "uint256"
        },
        {
          "indexed": true,
          "internalType": "address",
          "name": "depositor",
          "type": "address"
        },
        {
          "indexed": false,
          "internalType": "uint256",
          "name": "amount",
          "type": "uint256"
        }
      ],
      "name": "DepositWithdrawn",
      "type": "event"
    },
    {
      "anonymous": false,
      "inputs": [
        {
          "indexed": true,
          "internalType": "uint256",
          "name": "depositId",
          "type": "uint256"
        },
        {
          "indexed": false,
          "internalType": "uint256",
          "name": "dustAmount",
          "type": "uint256"
        },
        {
          "indexed": true,
          "internalType": "address",
          "name": "dustRecipient",
          "type": "address"
        }
      ],
      "name": "DustCollected",
      "type": "event"
    },
    {
      "anonymous": false,
      "inputs": [
        {
          "indexed": true,
          "internalType": "address",
          "name": "dustRecipient",
          "type": "address"
        }
      ],
      "name": "DustRecipientUpdated",
      "type": "event"
    },
    {
      "anonymous": false,
      "inputs": [
        {
          "indexed": false,
          "internalType": "uint256",
          "name": "dustThreshold",
          "type": "uint256"
        }
      ],
      "name": "DustThresholdUpdated",
      "type": "event"
    },
    {
      "anonymous": false,
      "inputs": [
        {
          "indexed": true,
          "internalType": "uint256",
          "name": "depositId",
          "type": "uint256"
        },
        {
          "indexed": true,
          "internalType": "bytes32",
          "name": "intentHash",
          "type": "bytes32"
        },
        {
          "indexed": false,
          "internalType": "uint256",
          "name": "amount",
          "type": "uint256"
        },
        {
          "indexed": false,
          "internalType": "uint256",
          "name": "expiryTime",
          "type": "uint256"
        }
      ],
      "name": "FundsLocked",
      "type": "event"
    },
    {
      "anonymous": false,
      "inputs": [
        {
          "indexed": true,
          "internalType": "uint256",
          "name": "depositId",
          "type": "uint256"
        },
        {
          "indexed": true,
          "internalType": "bytes32",
          "name": "intentHash",
          "type": "bytes32"
        },
        {
          "indexed": false,
          "internalType": "uint256",
          "name": "amount",
          "type": "uint256"
        }
      ],
      "name": "FundsUnlocked",
      "type": "event"
    },
    {
      "anonymous": false,
      "inputs": [
        {
          "indexed": true,
          "internalType": "uint256",
          "name": "depositId",
          "type": "uint256"
        },
        {
          "indexed": true,
          "internalType": "bytes32",
          "name": "intentHash",
          "type": "bytes32"
        },
        {
          "indexed": false,
          "internalType": "uint256",
          "name": "unlockedAmount",
          "type": "uint256"
        },
        {
          "indexed": false,
          "internalType": "uint256",
          "name": "transferredAmount",
          "type": "uint256"
        },
        {
          "indexed": false,
          "internalType": "address",
          "name": "to",
          "type": "address"
        }
      ],
      "name": "FundsUnlockedAndTransferred",
      "type": "event"
    },
    {
      "anonymous": false,
      "inputs": [
        {
          "indexed": false,
          "internalType": "uint256",
          "name": "intentExpirationPeriod",
          "type": "uint256"
        }
      ],
      "name": "IntentExpirationPeriodUpdated",
      "type": "event"
    },
    {
      "anonymous": false,
      "inputs": [
        {
          "indexed": true,
          "internalType": "uint256",
          "name": "depositId",
          "type": "uint256"
        },
        {
          "indexed": true,
          "internalType": "bytes32",
          "name": "intentHash",
          "type": "bytes32"
        },
        {
          "indexed": false,
          "internalType": "uint256",
          "name": "newExpiryTime",
          "type": "uint256"
        }
      ],
      "name": "IntentExpiryExtended",
      "type": "event"
    },
    {
      "anonymous": false,
      "inputs": [
        {
          "indexed": false,
          "internalType": "uint256",
          "name": "maxIntentsPerDeposit",
          "type": "uint256"
        }
      ],
      "name": "MaxIntentsPerDepositUpdated",
      "type": "event"
    },
    {
      "anonymous": false,
      "inputs": [
        {
          "indexed": false,
          "internalType": "uint256",
          "name": "minDepositAmount",
          "type": "uint256"
        }
      ],
      "name": "MinDepositAmountSet",
      "type": "event"
    },
    {
      "anonymous": false,
      "inputs": [
        {
          "indexed": true,
          "internalType": "address",
          "name": "orchestrator",
          "type": "address"
        }
      ],
      "name": "OrchestratorUpdated",
      "type": "event"
    },
    {
      "anonymous": false,
      "inputs": [
        {
          "indexed": true,
          "internalType": "address",
          "name": "previousOwner",
          "type": "address"
        },
        {
          "indexed": true,
          "internalType": "address",
          "name": "newOwner",
          "type": "address"
        }
      ],
      "name": "OwnershipTransferred",
      "type": "event"
    },
    {
      "anonymous": false,
      "inputs": [
        {
          "indexed": false,
          "internalType": "address",
          "name": "account",
          "type": "address"
        }
      ],
      "name": "Paused",
      "type": "event"
    },
    {
      "anonymous": false,
      "inputs": [
        {
          "indexed": true,
          "internalType": "address",
          "name": "paymentVerifierRegistry",
          "type": "address"
        }
      ],
      "name": "PaymentVerifierRegistryUpdated",
      "type": "event"
    },
    {
      "anonymous": false,
      "inputs": [
        {
          "indexed": false,
          "internalType": "address",
          "name": "account",
          "type": "address"
        }
      ],
      "name": "Unpaused",
      "type": "event"
    },
    {
      "inputs": [
        {
          "internalType": "uint256",
          "name": "_depositId",
          "type": "uint256"
        },
        {
          "internalType": "bytes32",
          "name": "_paymentMethod",
          "type": "bytes32"
        },
        {
          "components": [
            {
              "internalType": "bytes32",
              "name": "code",
              "type": "bytes32"
            },
            {
              "internalType": "uint256",
              "name": "minConversionRate",
              "type": "uint256"
            }
          ],
          "internalType": "struct IEscrow.Currency[]",
          "name": "_currencies",
          "type": "tuple[]"
        }
      ],
      "name": "addCurrencies",
      "outputs": [],
      "stateMutability": "nonpayable",
      "type": "function"
    },
    {
      "inputs": [
        {
          "internalType": "uint256",
          "name": "_depositId",
          "type": "uint256"
        },
        {
          "internalType": "uint256",
          "name": "_amount",
          "type": "uint256"
        }
      ],
      "name": "addFunds",
      "outputs": [],
      "stateMutability": "nonpayable",
      "type": "function"
    },
    {
      "inputs": [
        {
          "internalType": "uint256",
          "name": "_depositId",
          "type": "uint256"
        },
        {
          "internalType": "bytes32[]",
          "name": "_paymentMethods",
          "type": "bytes32[]"
        },
        {
          "components": [
            {
              "internalType": "address",
              "name": "intentGatingService",
              "type": "address"
            },
            {
              "internalType": "bytes32",
              "name": "payeeDetails",
              "type": "bytes32"
            },
            {
              "internalType": "bytes",
              "name": "data",
              "type": "bytes"
            }
          ],
          "internalType": "struct IEscrow.DepositPaymentMethodData[]",
          "name": "_paymentMethodData",
          "type": "tuple[]"
        },
        {
          "components": [
            {
              "internalType": "bytes32",
              "name": "code",
              "type": "bytes32"
            },
            {
              "internalType": "uint256",
              "name": "minConversionRate",
              "type": "uint256"
            }
          ],
          "internalType": "struct IEscrow.Currency[][]",
          "name": "_currencies",
          "type": "tuple[][]"
        }
      ],
      "name": "addPaymentMethods",
      "outputs": [],
      "stateMutability": "nonpayable",
      "type": "function"
    },
    {
      "inputs": [],
      "name": "chainId",
      "outputs": [
        {
          "internalType": "uint256",
          "name": "",
          "type": "uint256"
        }
      ],
      "stateMutability": "view",
      "type": "function"
    },
    {
      "inputs": [
        {
          "components": [
            {
              "internalType": "contract IERC20",
              "name": "token",
              "type": "address"
            },
            {
              "internalType": "uint256",
              "name": "amount",
              "type": "uint256"
            },
            {
              "components": [
                {
                  "internalType": "uint256",
                  "name": "min",
                  "type": "uint256"
                },
                {
                  "internalType": "uint256",
                  "name": "max",
                  "type": "uint256"
                }
              ],
              "internalType": "struct IEscrow.Range",
              "name": "intentAmountRange",
              "type": "tuple"
            },
            {
              "internalType": "bytes32[]",
              "name": "paymentMethods",
              "type": "bytes32[]"
            },
            {
              "components": [
                {
                  "internalType": "address",
                  "name": "intentGatingService",
                  "type": "address"
                },
                {
                  "internalType": "bytes32",
                  "name": "payeeDetails",
                  "type": "bytes32"
                },
                {
                  "internalType": "bytes",
                  "name": "data",
                  "type": "bytes"
                }
              ],
              "internalType": "struct IEscrow.DepositPaymentMethodData[]",
              "name": "paymentMethodData",
              "type": "tuple[]"
            },
            {
              "components": [
                {
                  "internalType": "bytes32",
                  "name": "code",
                  "type": "bytes32"
                },
                {
                  "internalType": "uint256",
                  "name": "minConversionRate",
                  "type": "uint256"
                }
              ],
              "internalType": "struct IEscrow.Currency[][]",
              "name": "currencies",
              "type": "tuple[][]"
            },
            {
              "internalType": "address",
              "name": "delegate",
              "type": "address"
            },
            {
              "internalType": "address",
              "name": "intentGuardian",
              "type": "address"
            },
            {
              "internalType": "bool",
              "name": "retainOnEmpty",
              "type": "bool"
            }
          ],
          "internalType": "struct IEscrow.CreateDepositParams",
          "name": "_params",
          "type": "tuple"
        }
      ],
      "name": "createDeposit",
      "outputs": [],
      "stateMutability": "nonpayable",
      "type": "function"
    },
    {
      "inputs": [
        {
          "internalType": "uint256",
          "name": "_depositId",
          "type": "uint256"
        },
        {
          "internalType": "bytes32",
          "name": "_paymentMethod",
          "type": "bytes32"
        },
        {
          "internalType": "bytes32",
          "name": "_currencyCode",
          "type": "bytes32"
        }
      ],
      "name": "deactivateCurrency",
      "outputs": [],
      "stateMutability": "nonpayable",
      "type": "function"
    },
    {
      "inputs": [],
      "name": "depositCounter",
      "outputs": [
        {
          "internalType": "uint256",
          "name": "",
          "type": "uint256"
        }
      ],
      "stateMutability": "view",
      "type": "function"
    },
    {
      "inputs": [],
      "name": "dustRecipient",
      "outputs": [
        {
          "internalType": "address",
          "name": "",
          "type": "address"
        }
      ],
      "stateMutability": "view",
      "type": "function"
    },
    {
      "inputs": [],
      "name": "dustThreshold",
      "outputs": [
        {
          "internalType": "uint256",
          "name": "",
          "type": "uint256"
        }
      ],
      "stateMutability": "view",
      "type": "function"
    },
    {
      "inputs": [
        {
          "internalType": "uint256",
          "name": "_depositId",
          "type": "uint256"
        },
        {
          "internalType": "bytes32",
          "name": "_intentHash",
          "type": "bytes32"
        },
        {
          "internalType": "uint256",
          "name": "_additionalTime",
          "type": "uint256"
        }
      ],
      "name": "extendIntentExpiry",
      "outputs": [],
      "stateMutability": "nonpayable",
      "type": "function"
    },
    {
      "inputs": [
        {
          "internalType": "address",
          "name": "_account",
          "type": "address"
        }
      ],
      "name": "getAccountDeposits",
      "outputs": [
        {
          "internalType": "uint256[]",
          "name": "",
          "type": "uint256[]"
        }
      ],
      "stateMutability": "view",
      "type": "function"
    },
    {
      "inputs": [
        {
          "internalType": "uint256",
          "name": "_depositId",
          "type": "uint256"
        }
      ],
      "name": "getDeposit",
      "outputs": [
        {
          "components": [
            {
              "internalType": "address",
              "name": "depositor",
              "type": "address"
            },
            {
              "internalType": "address",
              "name": "delegate",
              "type": "address"
            },
            {
              "internalType": "contract IERC20",
              "name": "token",
              "type": "address"
            },
            {
              "components": [
                {
                  "internalType": "uint256",
                  "name": "min",
                  "type": "uint256"
                },
                {
                  "internalType": "uint256",
                  "name": "max",
                  "type": "uint256"
                }
              ],
              "internalType": "struct IEscrow.Range",
              "name": "intentAmountRange",
              "type": "tuple"
            },
            {
              "internalType": "bool",
              "name": "acceptingIntents",
              "type": "bool"
            },
            {
              "internalType": "uint256",
              "name": "remainingDeposits",
              "type": "uint256"
            },
            {
              "internalType": "uint256",
              "name": "outstandingIntentAmount",
              "type": "uint256"
            },
            {
              "internalType": "address",
              "name": "intentGuardian",
              "type": "address"
            },
            {
              "internalType": "bool",
              "name": "retainOnEmpty",
              "type": "bool"
            }
          ],
          "internalType": "struct IEscrow.Deposit",
          "name": "",
          "type": "tuple"
        }
      ],
      "stateMutability": "view",
      "type": "function"
    },
    {
      "inputs": [
        {
          "internalType": "uint256",
          "name": "_depositId",
          "type": "uint256"
        },
        {
          "internalType": "bytes32",
          "name": "_paymentMethod",
          "type": "bytes32"
        }
      ],
      "name": "getDepositCurrencies",
      "outputs": [
        {
          "internalType": "bytes32[]",
          "name": "",
          "type": "bytes32[]"
        }
      ],
      "stateMutability": "view",
      "type": "function"
    },
    {
      "inputs": [
        {
          "internalType": "uint256",
          "name": "_depositId",
          "type": "uint256"
        },
        {
          "internalType": "bytes32",
          "name": "_paymentMethod",
          "type": "bytes32"
        },
        {
          "internalType": "bytes32",
          "name": "_currencyCode",
          "type": "bytes32"
        }
      ],
      "name": "getDepositCurrencyListed",
      "outputs": [
        {
          "internalType": "bool",
          "name": "",
          "type": "bool"
        }
      ],
      "stateMutability": "view",
      "type": "function"
    },
    {
      "inputs": [
        {
          "internalType": "uint256",
          "name": "_depositId",
          "type": "uint256"
        },
        {
          "internalType": "bytes32",
          "name": "_paymentMethod",
          "type": "bytes32"
        },
        {
          "internalType": "bytes32",
          "name": "_currencyCode",
          "type": "bytes32"
        }
      ],
      "name": "getDepositCurrencyMinRate",
      "outputs": [
        {
          "internalType": "uint256",
          "name": "",
          "type": "uint256"
        }
      ],
      "stateMutability": "view",
      "type": "function"
    },
    {
      "inputs": [
        {
          "internalType": "uint256",
          "name": "_depositId",
          "type": "uint256"
        },
        {
          "internalType": "bytes32",
          "name": "_paymentMethod",
          "type": "bytes32"
        }
      ],
      "name": "getDepositGatingService",
      "outputs": [
        {
          "internalType": "address",
          "name": "",
          "type": "address"
        }
      ],
      "stateMutability": "view",
      "type": "function"
    },
    {
      "inputs": [
        {
          "internalType": "uint256",
          "name": "_depositId",
          "type": "uint256"
        },
        {
          "internalType": "bytes32",
          "name": "_intentHash",
          "type": "bytes32"
        }
      ],
      "name": "getDepositIntent",
      "outputs": [
        {
          "components": [
            {
              "internalType": "bytes32",
              "name": "intentHash",
              "type": "bytes32"
            },
            {
              "internalType": "uint256",
              "name": "amount",
              "type": "uint256"
            },
            {
              "internalType": "uint256",
              "name": "timestamp",
              "type": "uint256"
            },
            {
              "internalType": "uint256",
              "name": "expiryTime",
              "type": "uint256"
            }
          ],
          "internalType": "struct IEscrow.Intent",
          "name": "",
          "type": "tuple"
        }
      ],
      "stateMutability": "view",
      "type": "function"
    },
    {
      "inputs": [
        {
          "internalType": "uint256",
          "name": "_depositId",
          "type": "uint256"
        }
      ],
      "name": "getDepositIntentHashes",
      "outputs": [
        {
          "internalType": "bytes32[]",
          "name": "",
          "type": "bytes32[]"
        }
      ],
      "stateMutability": "view",
      "type": "function"
    },
    {
      "inputs": [
        {
          "internalType": "uint256",
          "name": "_depositId",
          "type": "uint256"
        },
        {
          "internalType": "bytes32",
          "name": "_paymentMethod",
          "type": "bytes32"
        }
      ],
      "name": "getDepositPaymentMethodActive",
      "outputs": [
        {
          "internalType": "bool",
          "name": "",
          "type": "bool"
        }
      ],
      "stateMutability": "view",
      "type": "function"
    },
    {
      "inputs": [
        {
          "internalType": "uint256",
          "name": "_depositId",
          "type": "uint256"
        },
        {
          "internalType": "bytes32",
          "name": "_paymentMethod",
          "type": "bytes32"
        }
      ],
      "name": "getDepositPaymentMethodData",
      "outputs": [
        {
          "components": [
            {
              "internalType": "address",
              "name": "intentGatingService",
              "type": "address"
            },
            {
              "internalType": "bytes32",
              "name": "payeeDetails",
              "type": "bytes32"
            },
            {
              "internalType": "bytes",
              "name": "data",
              "type": "bytes"
            }
          ],
          "internalType": "struct IEscrow.DepositPaymentMethodData",
          "name": "",
          "type": "tuple"
        }
      ],
      "stateMutability": "view",
      "type": "function"
    },
    {
      "inputs": [
        {
          "internalType": "uint256",
          "name": "_depositId",
          "type": "uint256"
        },
        {
          "internalType": "bytes32",
          "name": "_paymentMethod",
          "type": "bytes32"
        }
      ],
      "name": "getDepositPaymentMethodListed",
      "outputs": [
        {
          "internalType": "bool",
          "name": "",
          "type": "bool"
        }
      ],
      "stateMutability": "view",
      "type": "function"
    },
    {
      "inputs": [
        {
          "internalType": "uint256",
          "name": "_depositId",
          "type": "uint256"
        }
      ],
      "name": "getDepositPaymentMethods",
      "outputs": [
        {
          "internalType": "bytes32[]",
          "name": "",
          "type": "bytes32[]"
        }
      ],
      "stateMutability": "view",
      "type": "function"
    },
    {
      "inputs": [
        {
          "internalType": "uint256",
          "name": "_depositId",
          "type": "uint256"
        }
      ],
      "name": "getExpiredIntents",
      "outputs": [
        {
          "internalType": "bytes32[]",
          "name": "expiredIntents",
          "type": "bytes32[]"
        },
        {
          "internalType": "uint256",
          "name": "reclaimableAmount",
          "type": "uint256"
        }
      ],
      "stateMutability": "view",
      "type": "function"
    },
    {
      "inputs": [],
      "name": "intentExpirationPeriod",
      "outputs": [
        {
          "internalType": "uint256",
          "name": "",
          "type": "uint256"
        }
      ],
      "stateMutability": "view",
      "type": "function"
    },
    {
      "inputs": [
        {
          "internalType": "uint256",
          "name": "_depositId",
          "type": "uint256"
        },
        {
          "internalType": "bytes32",
          "name": "_intentHash",
          "type": "bytes32"
        },
        {
          "internalType": "uint256",
          "name": "_amount",
          "type": "uint256"
        }
      ],
      "name": "lockFunds",
      "outputs": [],
      "stateMutability": "nonpayable",
      "type": "function"
    },
    {
      "inputs": [],
      "name": "maxIntentsPerDeposit",
      "outputs": [
        {
          "internalType": "uint256",
          "name": "",
          "type": "uint256"
        }
      ],
      "stateMutability": "view",
      "type": "function"
    },
    {
      "inputs": [],
      "name": "orchestrator",
      "outputs": [
        {
          "internalType": "contract IOrchestrator",
          "name": "",
          "type": "address"
        }
      ],
      "stateMutability": "view",
      "type": "function"
    },
    {
      "inputs": [],
      "name": "owner",
      "outputs": [
        {
          "internalType": "address",
          "name": "",
          "type": "address"
        }
      ],
      "stateMutability": "view",
      "type": "function"
    },
    {
      "inputs": [],
      "name": "pauseEscrow",
      "outputs": [],
      "stateMutability": "nonpayable",
      "type": "function"
    },
    {
      "inputs": [],
      "name": "paused",
      "outputs": [
        {
          "internalType": "bool",
          "name": "",
          "type": "bool"
        }
      ],
      "stateMutability": "view",
      "type": "function"
    },
    {
      "inputs": [],
      "name": "paymentVerifierRegistry",
      "outputs": [
        {
          "internalType": "contract IPaymentVerifierRegistry",
          "name": "",
          "type": "address"
        }
      ],
      "stateMutability": "view",
      "type": "function"
    },
    {
      "inputs": [
        {
          "internalType": "uint256",
          "name": "_depositId",
          "type": "uint256"
        }
      ],
      "name": "pruneExpiredIntents",
      "outputs": [],
      "stateMutability": "nonpayable",
      "type": "function"
    },
    {
      "inputs": [
        {
          "internalType": "uint256",
          "name": "_depositId",
          "type": "uint256"
        }
      ],
      "name": "removeDelegate",
      "outputs": [],
      "stateMutability": "nonpayable",
      "type": "function"
    },
    {
      "inputs": [
        {
          "internalType": "uint256",
          "name": "_depositId",
          "type": "uint256"
        },
        {
          "internalType": "uint256",
          "name": "_amount",
          "type": "uint256"
        }
      ],
      "name": "removeFunds",
      "outputs": [],
      "stateMutability": "nonpayable",
      "type": "function"
    },
    {
      "inputs": [],
      "name": "renounceOwnership",
      "outputs": [],
      "stateMutability": "nonpayable",
      "type": "function"
    },
    {
      "inputs": [
        {
          "internalType": "uint256",
          "name": "_depositId",
          "type": "uint256"
        },
        {
          "internalType": "bool",
          "name": "_acceptingIntents",
          "type": "bool"
        }
      ],
      "name": "setAcceptingIntents",
      "outputs": [],
      "stateMutability": "nonpayable",
      "type": "function"
    },
    {
      "inputs": [
        {
          "internalType": "uint256",
          "name": "_depositId",
          "type": "uint256"
        },
        {
          "internalType": "bytes32",
          "name": "_paymentMethod",
          "type": "bytes32"
        },
        {
          "internalType": "bytes32",
          "name": "_fiatCurrency",
          "type": "bytes32"
        },
        {
          "internalType": "uint256",
          "name": "_newMinConversionRate",
          "type": "uint256"
        }
      ],
      "name": "setCurrencyMinRate",
      "outputs": [],
      "stateMutability": "nonpayable",
      "type": "function"
    },
    {
      "inputs": [
        {
          "internalType": "uint256",
          "name": "_depositId",
          "type": "uint256"
        },
        {
          "internalType": "address",
          "name": "_delegate",
          "type": "address"
        }
      ],
      "name": "setDelegate",
      "outputs": [],
      "stateMutability": "nonpayable",
      "type": "function"
    },
    {
      "inputs": [
        {
          "internalType": "address",
          "name": "_dustRecipient",
          "type": "address"
        }
      ],
      "name": "setDustRecipient",
      "outputs": [],
      "stateMutability": "nonpayable",
      "type": "function"
    },
    {
      "inputs": [
        {
          "internalType": "uint256",
          "name": "_dustThreshold",
          "type": "uint256"
        }
      ],
      "name": "setDustThreshold",
      "outputs": [],
      "stateMutability": "nonpayable",
      "type": "function"
    },
    {
      "inputs": [
        {
          "internalType": "uint256",
          "name": "_intentExpirationPeriod",
          "type": "uint256"
        }
      ],
      "name": "setIntentExpirationPeriod",
      "outputs": [],
      "stateMutability": "nonpayable",
      "type": "function"
    },
    {
      "inputs": [
        {
          "internalType": "uint256",
          "name": "_depositId",
          "type": "uint256"
        },
        {
          "components": [
            {
              "internalType": "uint256",
              "name": "min",
              "type": "uint256"
            },
            {
              "internalType": "uint256",
              "name": "max",
              "type": "uint256"
            }
          ],
          "internalType": "struct IEscrow.Range",
          "name": "_intentAmountRange",
          "type": "tuple"
        }
      ],
      "name": "setIntentRange",
      "outputs": [],
      "stateMutability": "nonpayable",
      "type": "function"
    },
    {
      "inputs": [
        {
          "internalType": "uint256",
          "name": "_maxIntentsPerDeposit",
          "type": "uint256"
        }
      ],
      "name": "setMaxIntentsPerDeposit",
      "outputs": [],
      "stateMutability": "nonpayable",
      "type": "function"
    },
    {
      "inputs": [
        {
          "internalType": "address",
          "name": "_orchestrator",
          "type": "address"
        }
      ],
      "name": "setOrchestrator",
      "outputs": [],
      "stateMutability": "nonpayable",
      "type": "function"
    },
    {
      "inputs": [
        {
          "internalType": "uint256",
          "name": "_depositId",
          "type": "uint256"
        },
        {
          "internalType": "bytes32",
          "name": "_paymentMethod",
          "type": "bytes32"
        },
        {
          "internalType": "bool",
          "name": "_isActive",
          "type": "bool"
        }
      ],
      "name": "setPaymentMethodActive",
      "outputs": [],
      "stateMutability": "nonpayable",
      "type": "function"
    },
    {
      "inputs": [
        {
          "internalType": "address",
          "name": "_paymentVerifierRegistry",
          "type": "address"
        }
      ],
      "name": "setPaymentVerifierRegistry",
      "outputs": [],
      "stateMutability": "nonpayable",
      "type": "function"
    },
    {
      "inputs": [
        {
          "internalType": "uint256",
          "name": "_depositId",
          "type": "uint256"
        },
        {
          "internalType": "bool",
          "name": "_retainOnEmpty",
          "type": "bool"
        }
      ],
      "name": "setRetainOnEmpty",
      "outputs": [],
      "stateMutability": "nonpayable",
      "type": "function"
    },
    {
      "inputs": [
        {
          "internalType": "address",
          "name": "newOwner",
          "type": "address"
        }
      ],
      "name": "transferOwnership",
      "outputs": [],
      "stateMutability": "nonpayable",
      "type": "function"
    },
    {
      "inputs": [
        {
          "internalType": "uint256",
          "name": "_depositId",
          "type": "uint256"
        },
        {
          "internalType": "bytes32",
          "name": "_intentHash",
          "type": "bytes32"
        },
        {
          "internalType": "uint256",
          "name": "_transferAmount",
          "type": "uint256"
        },
        {
          "internalType": "address",
          "name": "_to",
          "type": "address"
        }
      ],
      "name": "unlockAndTransferFunds",
      "outputs": [],
      "stateMutability": "nonpayable",
      "type": "function"
    },
    {
      "inputs": [
        {
          "internalType": "uint256",
          "name": "_depositId",
          "type": "uint256"
        },
        {
          "internalType": "bytes32",
          "name": "_intentHash",
          "type": "bytes32"
        }
      ],
      "name": "unlockFunds",
      "outputs": [],
      "stateMutability": "nonpayable",
      "type": "function"
    },
    {
      "inputs": [],
      "name": "unpauseEscrow",
      "outputs": [],
      "stateMutability": "nonpayable",
      "type": "function"
    },
    {
      "inputs": [
        {
          "internalType": "uint256",
          "name": "_depositId",
          "type": "uint256"
        }
      ],
      "name": "withdrawDeposit",
      "outputs": [],
      "stateMutability": "nonpayable",
      "type": "function"
    }
  ],
  "transactionHash": "0x415869100e5c9328a76bb07cdd78903ecd815cee1aa3566ddaff09e32045a69a",
  "args": [
    "0x84e113087C97Cd80eA9D78983D4B8Ff61ECa1929",
    8453,
    "0x3c61dFfEa06b2DE37797a96744bd2F9B68895443",
    "0x84e113087C97Cd80eA9D78983D4B8Ff61ECa1929",
    "100000",
    200,
    "3600"
  ],
  "numDeployments": 1,
  "solcInputHash": "45406dae7824676f8b3c1f045e058bfb",
  "bytecode": "0x60a06040523480156200001157600080fd5b5060405162004bb538038062004bb58339810160408190526200003491620001f6565b6200003f33620000a8565b6000805460ff60a01b191690556080869052600280546001600160a01b038088166001600160a01b031992831617909255600f8054928716929091169190911790556010839055601182905560128190556200009b87620000f8565b5050505050505062000267565b600080546001600160a01b038381166001600160a01b0319831681178455604051919092169283917f8be0079c531659141344cd1fd0a4f28419497f9722a3daafe3b4186f6b6457e09190a35050565b620001026200017b565b6001600160a01b0381166200016d5760405162461bcd60e51b815260206004820152602660248201527f4f776e61626c653a206e6577206f776e657220697320746865207a65726f206160448201526564647265737360d01b60648201526084015b60405180910390fd5b6200017881620000a8565b50565b6000546001600160a01b03163314620001d75760405162461bcd60e51b815260206004820181905260248201527f4f776e61626c653a2063616c6c6572206973206e6f7420746865206f776e6572604482015260640162000164565b565b80516001600160a01b0381168114620001f157600080fd5b919050565b600080600080600080600060e0888a0312156200021257600080fd5b6200021d88620001d9565b9650602088015195506200023460408901620001d9565b94506200024460608901620001d9565b93506080880151925060a0880151915060c0880151905092959891949750929550565b60805161493262000283600039600061067901526149326000f3fe608060405234801561001057600080fd5b506004361061030c5760003560e01c806385f452501161019d578063ad805482116100e9578063e7433b6e116100a2578063ec3453c21161007c578063ec3453c2146107a2578063ecb3dc88146107b5578063f2fde38b146107be578063f802ad8a146107d157600080fd5b8063e7433b6e14610773578063e8462e8f14610786578063eb14f6691461078f57600080fd5b8063ad805482146106f3578063b74795d914610706578063c1ce1cde14610719578063c84b5cf91461073a578063cd28ef0d1461074d578063ceb5e29b1461076057600080fd5b806397f2ab9011610156578063a16087d211610130578063a16087d2146106bb578063a1a954b7146106c4578063aaa3e377146106cd578063ad7e55ba146106e057600080fd5b806397f2ab90146106615780639a8a0592146106745780639f9fb9681461069b57600080fd5b806385f45250146105c95780638ced63b4146105dc5780638d08e550146105ef5780638da5cb5b1461063557806394dcf2e61461064657806395fe9a5e1461065957600080fd5b80633abb7c061161025c5780635081d9521161021557806368b9646e116101ef57806368b9646e14610560578063715018a6146105805780637414f9071461058857806381ceb735146105b657600080fd5b80635081d952146104f957806359955d5d146105195780635c975abb1461054e57600080fd5b80633abb7c0614610487578063407c8d431461049a57806342987349146104ad578063432e707b146104c057806343f1a2af146104d35780634de088ff146104e657600080fd5b806320d8005a116102c95780632692b459116102a35780632692b4591461041b5780632d7b036f1461042e57806333289a461461046c57806337a6b5e21461047f57600080fd5b806320d8005a1461039b578063236a8d9b146103bc578063240c1781146103cf57600080fd5b806309207525146103115780630be8d2911461032657806317192c29146103395780631a251a58146103625780631abcbe63146103755780631cfd5c1614610388575b600080fd5b61032461031f366004613f2a565b6107e4565b005b610324610334366004613f2a565b610add565b61034c610347366004613f56565b610c56565b6040516103599190613fc8565b60405180910390f35b610324610370366004613fff565b610d4a565b610324610383366004614037565b610e8f565b610324610396366004614073565b6111c5565b6103ae6103a9366004613f2a565b61131e565b604051908152602001610359565b6103246103ca3660046140b3565b611348565b6104036103dd366004613f56565b60009182526004602090815260408084209284529190529020546001600160a01b031690565b6040516001600160a01b039091168152602001610359565b6103246104293660046140ec565b6114c7565b61045c61043c366004613f56565b600091825260076020908152604080842092845291905290205460ff1690565b6040519015158152602001610359565b61032461047a36600461411c565b611627565b61032461171b565b61032461049536600461411c565b61172d565b6103246104a836600461414a565b61175b565b6103246104bb36600461411c565b61196b565b6103246104ce366004613f56565b6119d0565b6103246104e136600461418b565b611b32565b6103246104f436600461411c565b611bab565b61050c61050736600461418b565b611c09565b60405161035991906141a8565b61045c610527366004613f2a565b6000928352600a602090815260408085209385529281528284209184525290205460ff1690565b600054600160a01b900460ff1661045c565b61057361056e36600461411c565b611c75565b6040516103599190614227565b610324611cd5565b61045c610596366004613f56565b600091825260066020908152604080842092845291905290205460ff1690565b600254610403906001600160a01b031681565b6103246105d7366004613f56565b611ce7565b6103246105ea366004613f56565b611dc7565b6106026105fd366004613f56565b611f0c565b60405161035991908151815260208083015190820152604080830151908201526060918201519181019190915260800190565b6000546001600160a01b0316610403565b61032461065436600461423a565b611f86565b610324612047565b61032461066f3660046140ec565b612057565b6103ae7f000000000000000000000000000000000000000000000000000000000000000081565b6106ae6106a936600461411c565b61217d565b604051610359919061425f565b6103ae60115481565b6103ae60125481565b600f54610403906001600160a01b031681565b6103246106ee36600461411c565b612286565b610573610701366004613f56565b6122f3565b600154610403906001600160a01b031681565b61072c61072736600461411c565b61235e565b604051610359929190614318565b610324610748366004613f2a565b612374565b61032461075b36600461418b565b6124e3565b61032461076e36600461411c565b61255c565b61057361078136600461411c565b612615565b6103ae60105481565b61032461079d36600461418b565b612675565b6103246107b036600461437f565b6126ee565b6103ae600e5481565b6103246107cc36600461418b565b612791565b6103246107df366004614423565b61280a565b6001546001600160a01b031633146108295760015460405163536dd9ef60e01b81526108209133916001600160a01b03909116906004016144a6565b60405180910390fd5b6000838152600b6020526040902080546001600160a01b031661086257604051631585bdab60e31b815260048101859052602401610820565b600581015460ff1661088a576040516333b4460d60e11b815260048101859052602401610820565b60038101548210156108bf5760038101546040516338fcec4360e01b8152610820918491600401918252602082015260400190565b60048101548211156108f157600481810154604051637e53d67d60e11b81529182018490526024820152604401610820565b6000848152600d602090815260408083208684529091529020541561093357604051631817de9d60e21b81526004810185905260248101849052604401610820565b6000610940828685612936565b9050828260060154101561097e57600682015460405163c3df48f360e01b815260048101879052602481019190915260448101849052606401610820565b6000858152600c60205260408120546109989060016144d6565b90506011548111156109d2576011546040516344d2ea2360e01b815260048101889052602481018390526044810191909152606401610820565b838360060160008282546109e691906144e9565b9250508190555083836007016000828254610a0191906144d6565b90915550506000868152600c602090815260408220805460018101825590835290822001869055601254610a3590426144d6565b604080516080810182528881526020808201898152428385019081526060840186815260008e8152600d85528681208e825285528690209451855591516001850155516002840155516003909201919091558151888152908101839052919250879189917fb40d75557428cec6806c7ebb58634796f8a5870a0874bcd0d299328b5518665b910160405180910390a3825115610ad457610ad483612a86565b50505050505050565b610ae5612ae9565b6000838152600b6020526040902080548491906001600160a01b0316331480610b31575060018101546001600160a01b031615801590610b31575060018101546001600160a01b031633145b610b665780546001820154604051639a313e5960e01b81526108209233926001600160a01b03918216929116906004016144fc565b600085815260066020908152604080832087845290915290205460ff16610baa5760405163016f65ad60e01b81526004810186905260248101859052604401610820565b6000858152600a60209081526040808320878452825280832086845290915290205460ff16610bf657604051630dca536360e41b81526004810185905260248101849052604401610820565b600085815260086020908152604080832087845282528083208684528252808320839055519182528491869188917fd12c0bb04d0c36c3143ef1c16a65cddd4ec064708de79e997d96e86f3bbd1597910160405180910390a45050505050565b604080516060808201835260008083526020808401829052838501839052868252600481528482208683528152908490208451928301855280546001600160a01b03168352600181015491830191909152600281018054939492939192840191610cbf9061451f565b80601f0160208091040260200160405190810160405280929190818152602001828054610ceb9061451f565b8015610d385780601f10610d0d57610100808354040283529160200191610d38565b820191906000526020600020905b815481529060010190602001808311610d1b57829003601f168201915b50505050508152505090505b92915050565b610d52612ae9565b6000828152600b6020526040902080548391906001600160a01b0316331480610d9e575060018101546001600160a01b031615801590610d9e575060018101546001600160a01b031633145b610dd35780546001820154604051639a313e5960e01b81526108209233926001600160a01b03918216929116906004016144fc565b6000848152600b602052604081209084359003610e03576040516314d323eb60e21b815260040160405180910390fd5b602084013584351115610e3657604051632457cde760e01b81528435600482015260208501356024820152604401610820565b8335600382015560208401356004820155610e5085612b36565b847fdf91c8dff53bac50f3157cba47dee1c65eeeafe480d9f529e9db0c5bc4a9ba3985604051610e809190614559565b60405180910390a25050505050565b610e97612ae9565b6040810135600003610ebc576040516314d323eb60e21b815260040160405180910390fd5b606081013560408201351115610ef55760408051632457cde760e01b815290820135600482015260608201356024820152604401610820565b604081013560208201351015610f2e57604080516338fcec4360e01b815260208301356004820152908201356024820152604401610820565b600e805460009182610f3f83614570565b90915550336000818152600360209081526040808320805460018101825590845292829020909201849055815161012081019092529181529192508101610f8d610100850160e0860161418b565b6001600160a01b03168152602090810190610faa9085018561418b565b6001600160a01b03168152602001610fca368590038501604086016145d6565b81526001602080830191909152840135604082015260006060820152608001610ffb6101208501610100860161418b565b6001600160a01b0316815260200161101b61014085016101208601614608565b151590526000828152600b6020908152604091829020835181546001600160a01b039182166001600160a01b0319918216178355858401516001840180549184169183169190911790559385015160028301805491831691909516179093556060840151805160038301558201516004820155608084015160058201805491151560ff1990921691909117905560a0840151600682015560c0840151600782015560e084015160089091018054610100909501511515600160a01b026001600160a81b031990951691909316179290921790556110fa9083018361418b565b6001600160a01b031633827f1236dbdc184b6c8721974cce53dabb6018679bca9a43784ab2ad71bcdb1d7dd1602086013560408701611140610100890160e08a0161418b565b6111526101208a016101008b0161418b565b6040516111629493929190614625565b60405180910390a461119a8161117b6080850185614666565b61118860a0870187614666565b61119560c0890189614666565b612baa565b6111c13330602085018035906111b0908761418b565b6001600160a01b0316929190612f65565b5050565b6111cd612ae9565b6000848152600b6020526040902080548591906001600160a01b0316331480611219575060018101546001600160a01b031615801590611219575060018101546001600160a01b031633145b61124e5780546001820154604051639a313e5960e01b81526108209233926001600160a01b03918216929116906004016144fc565b6000868152600a60209081526040808320888452825280832087845290915290205460ff1661129a57604051636bb6647d60e11b81526004810186905260248101859052604401610820565b826000036112bb5760405163123d7ce760e11b815260040160405180910390fd5b6000868152600860209081526040808320888452825280832087845282529182902085905590518481528591879189917fd12c0bb04d0c36c3143ef1c16a65cddd4ec064708de79e997d96e86f3bbd1597910160405180910390a4505050505050565b600083815260086020908152604080832085845282528083208484529091529020545b9392505050565b611350612ae9565b6000838152600b6020526040902080548491906001600160a01b031633148061139c575060018101546001600160a01b03161580159061139c575060018101546001600160a01b031633145b6113d15780546001820154604051639a313e5960e01b81526108209233926001600160a01b03918216929116906004016144fc565b600085815260076020908152604080832087845290915290205460ff16611415576040516336626ad160e11b81526004810186905260248101859052604401610820565b600085815260066020908152604080832087845290915290205483151560ff909116151503611462576040516358efc88160e01b8152600481018690528315156024820152604401610820565b6000858152600660209081526040808320878452825291829020805460ff19168615159081179091559151918252859187917ffc0fae2131c415309f829a0025dc0c5e27bd3c891bfb77cc0d2269a19ac0437991015b60405180910390a35050505050565b6114cf612ae9565b6000828152600b6020526040902080548391906001600160a01b031633148061151b575060018101546001600160a01b03161580159061151b575060018101546001600160a01b031633145b6115505780546001820154604051639a313e5960e01b81526108209233926001600160a01b03918216929116906004016144fc565b6000848152600b60205260409020600581015484151560ff909116151503611596576040516358efc88160e01b8152600481018690528415156024820152604401610820565b8380156115aa575060038101546006820154105b156115e2576006810154600382015460405163c3df48f360e01b81526004810188905260248101929092526044820152606401610820565b60058101805460ff191685151590811790915560405190815285907f184e3738774b2dc98019706750a38aeb01148b3b0c263e9b3374288835adc07d90602001610e80565b6000818152600b6020526040902080546001600160a01b0316331461166f57805460405163536dd9ef60e01b81526108209133916001600160a01b03909116906004016144a6565b600061167e8284600019612936565b600683018054600285015460009092559192506001600160a01b03166116a385612b36565b83546040518381526001600160a01b039091169086907fae1f357660ab777dcfd38c0ab6357834684ec26289ecfa07ec65dbf6c3c643129060200160405180910390a36116f08585612fd0565b6117046001600160a01b038216338461307f565b8251156117145761171483612a86565b5050505050565b6117236130af565b61172b613109565b565b6000818152600b602052604081206117489083600019612936565b8051909150156111c1576111c181612a86565b6001546001600160a01b031633146117975760015460405163536dd9ef60e01b81526108209133916001600160a01b03909116906004016144a6565b6000848152600b60209081526040808320600d835281842087855283529281902081516080810183528154815260018201549381019390935260028101549183019190915260030154606082015281546001600160a01b031661181057604051631585bdab60e31b815260048101879052602401610820565b805161183257604051639481f8b960e01b815260048101869052602401610820565b8360000361185357604051637c946ed760e01b815260040160405180910390fd5b80602001518411156118885760208101516040516368d9260360e01b8152610820918691600401918252602082015260400190565b80602001518260070160008282546118a091906144e9565b909155505060208101518410156118da578381602001516118c191906144e9565b8260060160008282546118d491906144d6565b90915550505b6118e4868661315e565b60028201546001600160a01b03166118fc8784612fd0565b85877f45625e0810f65b3c601b5c91bdacdf9e8f9ec7098fce927c57a8a65a823fd6178460200151888860405161194f9392919092835260208301919091526001600160a01b0316604082015260600190565b60405180910390a3610ad46001600160a01b038216858761307f565b6119736130af565b8060000361199457604051637c946ed760e01b815260040160405180910390fd5b60128190556040518181527f084016fbffe5e2f11ac2b66a265f9d57ae10335d188ff1ca7d9d1efb35b71e0f906020015b60405180910390a150565b6001546001600160a01b03163314611a0c5760015460405163536dd9ef60e01b81526108209133916001600160a01b03909116906004016144a6565b6000828152600b60209081526040808320600d835281842085855283529281902081516080810183528154815260018201549381019390935260028101549183019190915260030154606082015281546001600160a01b0316611a8557604051631585bdab60e31b815260048101859052602401610820565b8051611aa757604051639481f8b960e01b815260048101849052602401610820565b8060200151826006016000828254611abf91906144d6565b90915550506020810151600783018054600090611add9084906144e9565b90915550611aed9050848461315e565b82847f683f6606eec92f04a68f1797d32d15f840b9b3d410a8ec9b4fdab4c30813796d8360200151604051611b2491815260200190565b60405180910390a350505050565b611b3a6130af565b6001600160a01b038116611b615760405163d92e233d60e01b815260040160405180910390fd5b600f80546001600160a01b0319166001600160a01b0383169081179091556040517fc76447012850d72eea0bcd2c87f26d6fa622f7708b07d0ed3d1de5cf3f58a6b790600090a250565b611bb36130af565b80600003611bd457604051637c946ed760e01b815260040160405180910390fd5b60118190556040518181527f079e53dc927596d8e1015cfdf0b2e3135c2e06774fa76e2e4bff009fd030d7a2906020016119c5565b6001600160a01b038116600090815260036020908152604091829020805483518184028101840190945280845260609392830182828015611c6957602002820191906000526020600020905b815481526020019060010190808311611c55575b50505050509050919050565b6000818152600c6020908152604091829020805483518184028101840190945280845260609392830182828015611c695760200282019190600052602060002090815481526020019060010190808311611c555750505050509050919050565b611cdd6130af565b61172b60006131a2565b611cef612ae9565b6000828152600b6020526040902080546001600160a01b03163314611d3757805460405163536dd9ef60e01b81526108209133916001600160a01b03909116906004016144a6565b81600003611d5857604051637c946ed760e01b815260040160405180910390fd5b81816006016000828254611d6c91906144d6565b9091555050604051828152339084907f6dd055b2e2bf3452b033736068d30d709ffb26f2016b48ba9a612c3701bf33a99060200160405180910390a36002810154611dc2906001600160a01b0316333085612f65565b505050565b611dcf612ae9565b6000828152600b6020526040902080546001600160a01b03163314611e1757805460405163536dd9ef60e01b81526108209133916001600160a01b03909116906004016144a6565b81600003611e3857604051637c946ed760e01b815260040160405180910390fd5b6000611e45828585612936565b90508282600601541015611e8357600682015460405163c3df48f360e01b815260048101869052602481019190915260448101849052606401610820565b82826006016000828254611e9791906144e9565b90915550611ea6905084612b36565b604051838152339085907fae1f357660ab777dcfd38c0ab6357834684ec26289ecfa07ec65dbf6c3c643129060200160405180910390a36002820154611ef6906001600160a01b0316338561307f565b805115611f0657611f0681612a86565b50505050565b611f3a6040518060800160405280600080191681526020016000815260200160008152602001600081525090565b506000918252600d602090815260408084209284529181529181902081516080810183528154815260018201549381019390935260028101549183019190915260030154606082015290565b6000828152600b6020526040902080546001600160a01b03163314611fce57805460405163536dd9ef60e01b81526108209133916001600160a01b03909116906004016144a6565b6001600160a01b038216611ff55760405163d92e233d60e01b815260040160405180910390fd5b6001810180546001600160a01b0319166001600160a01b038416908117909155604051339085907f177e76a486c6b85fe60246345e71d615cb0c8448a2290461819040cafdbfe71a90600090a4505050565b61204f6130af565b61172b6131f2565b61205f612ae9565b6000828152600b6020526040902080548391906001600160a01b03163314806120ab575060018101546001600160a01b0316158015906120ab575060018101546001600160a01b031633145b6120e05780546001820154604051639a313e5960e01b81526108209233926001600160a01b03918216929116906004016144fc565b6000848152600b602052604090206008810154841515600160a01b90910460ff1615150361212c576040516358efc88160e01b8152600481018690528415156024820152604401610820565b600881018054851515600160a01b0260ff60a01b1990911617905560405185907ff31750caa046b294dda58b65be18389f4e94ad6ecb4858b6efab8c7cf2ef24e790610e8090871515815260200190565b6121db6040805161012081018252600080825260208083018290528284018290528351808501909452818452830152906060820190815260006020820181905260408201819052606082018190526080820181905260a09091015290565b506000908152600b602090815260409182902082516101208101845281546001600160a01b039081168252600183015481168285015260028301548116828601528451808601909552600383015485526004830154938501939093526060810193909352600581015460ff90811615156080850152600682015460a0850152600782015460c085015260089091015491821660e0840152600160a01b90910416151561010082015290565b61228e6130af565b620f42408111156122be57604051637e53d67d60e11b815260048101829052620f42406024820152604401610820565b60108190556040518181527f4514c31bd13e0eecf1250995ffc6e6fb3eaec9377d728cc3325b3c87a58a323a906020016119c5565b600082815260096020908152604080832084845282529182902080548351818402810184019094528084526060939283018282801561235157602002820191906000526020600020905b81548152602001906001019080831161233d575b5050505050905092915050565b6060600061236b83613235565b91509150915091565b6000838152600b60209081526040808320600d835281842086855290925290912081546001600160a01b03166123c057604051631585bdab60e31b815260048101869052602401610820565b80546123e257604051639481f8b960e01b815260048101859052602401610820565b60088201546001600160a01b0316331461242257600882015460405163536dd9ef60e01b81526108209133916001600160a01b03909116906004016144a6565b8260000361244357604051637c946ed760e01b815260040160405180910390fd5b62069780816002015461245691906144d6565b83826003015461246691906144d6565b111561249157604051637e53d67d60e11b815260048101849052620697806024820152604401610820565b828160030160008282546124a591906144d6565b9250508190555083857f25d8768b3a9457fb1df954be09208c92c28109be47542d0eb8726e83ab48c5c783600301546040516114b891815260200190565b6124eb6130af565b6001600160a01b0381166125125760405163d92e233d60e01b815260040160405180910390fd5b600180546001600160a01b0319166001600160a01b0383169081179091556040517fdde46f8c71b67178c4fdd3cd7e4a49fac7292e29d2bb2ef7d2b9819be1fb890a90600090a250565b6000818152600b6020526040902080546001600160a01b031633146125a457805460405163536dd9ef60e01b81526108209133916001600160a01b03909116906004016144a6565b60018101546001600160a01b03166125d257604051632dd920ef60e01b815260048101839052602401610820565b6001810180546001600160a01b0319169055604051339083907fa8461c8fb28662d101f3bf3eb596a71303b9c564229ee651fba61bc142ecbf9990600090a35050565b600081815260056020908152604091829020805483518184028101840190945280845260609392830182828015611c695760200282019190600052602060002090815481526020019060010190808311611c555750505050509050919050565b61267d6130af565b6001600160a01b0381166126a45760405163d92e233d60e01b815260040160405180910390fd5b600280546001600160a01b0319166001600160a01b0383169081179091556040517fe94f9ee78059bc733bb08fb7b593ad1873182fd795acdaefe39664192e20288290600090a250565b6126f6612ae9565b6000878152600b6020526040902080548891906001600160a01b0316331480612742575060018101546001600160a01b031615801590612742575060018101546001600160a01b031633145b6127775780546001820154604051639a313e5960e01b81526108209233926001600160a01b03918216929116906004016144fc565b61278689898989898989612baa565b505050505050505050565b6127996130af565b6001600160a01b0381166127fe5760405162461bcd60e51b815260206004820152602660248201527f4f776e61626c653a206e6577206f776e657220697320746865207a65726f206160448201526564647265737360d01b6064820152608401610820565b612807816131a2565b50565b612812612ae9565b6000848152600b6020526040902080548591906001600160a01b031633148061285e575060018101546001600160a01b03161580159061285e575060018101546001600160a01b031633145b6128935780546001820154604051639a313e5960e01b81526108209233926001600160a01b03918216929116906004016144fc565b600086815260066020908152604080832088845290915290205460ff166128d75760405163016f65ad60e01b81526004810187905260248101869052604401610820565b60005b83811015610ad45761292487878787858181106128f9576128f96146b0565b90506040020160000135888886818110612915576129156146b0565b905060400201602001356134a4565b8061292e81614570565b9150506128da565b6060818460060154108061295957506011546000848152600c6020526040902054145b1561134157600061296984613235565b80925081935050508085600601600082825461298591906144d6565b92505081905550808560070160008282546129a091906144e9565b90915550600090505b8251811015612a7d576000858152600d60205260408120845182908690859081106129d6576129d66146b0565b602002602001015181526020019081526020016000206040518060800160405290816000820154815260200160018201548152602001600282015481526020016003820154815250509050612a2f86826000015161315e565b805160208083015160405190815288917f683f6606eec92f04a68f1797d32d15f840b9b3d410a8ec9b4fdab4c30813796d910160405180910390a35080612a7581614570565b9150506129a9565b50509392505050565b600154604051632cc410dd60e01b81526001600160a01b0390911690632cc410dd90612ab6908490600401614227565b600060405180830381600087803b158015612ad057600080fd5b505af1925050508015612ae1575060015b156128075750565b600054600160a01b900460ff161561172b5760405162461bcd60e51b815260206004820152601060248201526f14185d5cd8589b194e881c185d5cd95960821b6044820152606401610820565b6000818152600b60205260409020600581015460ff168015612b5f575060038101546006820154105b156111c15760058101805460ff191690556040516000815282907f184e3738774b2dc98019706750a38aeb01148b3b0c263e9b3374288835adc07d9060200160405180910390a25050565b848314612bd457604051631f4bb7c160e31b81526004810186905260248101849052604401610820565b848114612bfe57604051631f4bb7c160e31b81526004810186905260248101829052604401610820565b60005b85811015612f5b576000878783818110612c1d57612c1d6146b0565b60200291909101359150819050612c475760405163d92e233d60e01b815260040160405180910390fd5b600254604051634839762760e11b8152600481018390526001600160a01b0390911690639072ec4e90602401602060405180830381865afa158015612c90573d6000803e3d6000fd5b505050506040513d601f19601f82011682018060405250810190612cb491906146c6565b612cd45760405163060f97e560e01b815260048101829052602401610820565b6000868684818110612ce857612ce86146b0565b9050602002810190612cfa91906146e3565b6020013503612d1c57604051635fd1a61d60e11b815260040160405180910390fd5b600089815260076020908152604080832084845290915290205460ff1615612d615760405163de5a6b7360e01b8152600481018a905260248101829052604401610820565b858583818110612d7357612d736146b0565b9050602002810190612d8591906146e3565b60008a81526004602090815260408083208584529091529020612da88282614751565b50506000898152600560209081526040808320805460018181018355918552838520018590558c8452600783528184208585528352818420805460ff1990811683179091558d855260068452828520868652909352922080549091169091179055858583818110612e1b57612e1b6146b0565b9050602002810190612e2d91906146e3565b60200135818a7f70bc150f4694f93722b39f936610105e3af883bc610a906afc7750c9c286e4ec898987818110612e6657612e666146b0565b9050602002810190612e7891906146e3565b612e8690602081019061418b565b6040516001600160a01b03909116815260200160405180910390a460005b848484818110612eb657612eb66146b0565b9050602002810190612ec89190614877565b9050811015612f46576000858585818110612ee557612ee56146b0565b9050602002810190612ef79190614877565b83818110612f0757612f076146b0565b905060400201803603810190612f1d91906145d6565b9050612f338b84836000015184602001516134a4565b5080612f3e81614570565b915050612ea4565b50508080612f5390614570565b915050612c01565b5050505050505050565b6040516001600160a01b0380851660248301528316604482015260648101829052611f069085906323b872dd60e01b906084015b60408051601f198184030181529190526020810180516001600160e01b03166001600160e01b031990931692909217909152613659565b60068101546007820154158015612fe957506010548111155b801561300157506008820154600160a01b900460ff16155b15611dc25760028201546001600160a01b031661301e848461372e565b8115611f0657600f5461303e906001600160a01b0383811691168461307f565b600f546040518381526001600160a01b039091169085907f3e73fc0f76c9d35dff306ff859166692f079fb15a5686aa4997177493cc5562f90602001611b24565b6040516001600160a01b038316602482015260448101829052611dc290849063a9059cbb60e01b90606401612f99565b6000546001600160a01b0316331461172b5760405162461bcd60e51b815260206004820181905260248201527f4f776e61626c653a2063616c6c6572206973206e6f7420746865206f776e65726044820152606401610820565b613111613827565b6000805460ff60a01b191690557f5db9ee0a495bf2e6ff9c91a7834c1ba4fdd244a5e8aa4e537bd38aeae4b073aa335b6040516001600160a01b03909116815260200160405180910390a1565b6000828152600d6020908152604080832084845282528083208381556001810184905560028101849055600301839055848352600c90915290206111c19082613877565b600080546001600160a01b038381166001600160a01b0319831681178455604051919092169283917f8be0079c531659141344cd1fd0a4f28419497f9722a3daafe3b4186f6b6457e09190a35050565b6131fa612ae9565b6000805460ff60a01b1916600160a01b1790557f62e78cea01bee320cd4e420270b5ea74000d11b0c9f74754ebdbfc544b05a2586131413390565b6000818152600c60209081526040808320805482518185028101850190935280835260609493849392919083018282801561328f57602002820191906000526020600020905b81548152602001906001019080831161327b575b505050505090506000815167ffffffffffffffff8111156132b2576132b2614589565b6040519080825280602002602001820160405280156132db578160200160208202803683370190505b5090506000805b83518110156133cf576000878152600d602052604081208551829087908590811061330f5761330f6146b0565b60200260200101518152602001908152602001600020604051806080016040529081600082015481526020016001820154815260200160028201548152602001600382015481525050905042816060015110156133be57848281518110613378576133786146b0565b6020026020010151848381518110613392576133926146b0565b6020026020010181815250508060200151866133ae91906144d6565b9550826133ba81614570565b9350505b506133c881614570565b90506132e2565b508067ffffffffffffffff8111156133e9576133e9614589565b604051908082528060200260200182016040528015613412578160200160208202803683370190505b5094506000805b845181101561349a576000801b848281518110613438576134386146b0565b60200260200101511461348a57838181518110613457576134576146b0565b602002602001015187838061346b90614570565b94508151811061347d5761347d6146b0565b6020026020010181815250505b61349381614570565b9050613419565b5050505050915091565b6002546040516354e7105560e11b815260048101859052602481018490526001600160a01b039091169063a9ce20aa90604401602060405180830381865afa1580156134f4573d6000803e3d6000fd5b505050506040513d601f19601f8201168201806040525081019061351891906146c6565b61353f57604051636bb6647d60e11b81526004810184905260248101839052604401610820565b806000036135605760405163123d7ce760e11b815260040160405180910390fd5b6000848152600a60209081526040808320868452825280832085845290915290205460ff16156135ad5760405163ce83125960e01b81526004810184905260248101839052604401610820565b60008481526008602090815260408083208684528252808320858452825280832084905586835260098252808320868452825280832080546001808201835591855283852001869055878452600a83528184208785528352818420868552835292819020805460ff191690931790925590518281528391859187917f4eb2088b4fe1a7bcb1a232b3842804fd8290524696748bc7cc886d137fde1554910160405180910390a450505050565b60006136ae826040518060400160405280602081526020017f5361666545524332303a206c6f772d6c6576656c2063616c6c206661696c6564815250856001600160a01b031661399f9092919063ffffffff16565b90508051600014806136cf5750808060200190518101906136cf91906146c6565b611dc25760405162461bcd60e51b815260206004820152602a60248201527f5361666545524332303a204552433230206f7065726174696f6e20646964206e6044820152691bdd081cdd58d8d9595960b21b6064820152608401610820565b80546001600160a01b0316600081815260036020526040902061375190846139b6565b61375a83613a5b565b6000838152600b602052604080822080546001600160a01b0319908116825560018201805482169055600282018054909116905560038101839055600481018390556005808201805460ff19908116909155600683018590556007830194909455600890910180546001600160a81b031916905584018054909216909155517f8ac07cc6e38c6222dd0309c80353c1962354bacf222b825d7401cc80e93ff3cc9061381a90859084909182526001600160a01b0316602082015260400190565b60405180910390a1505050565b600054600160a01b900460ff1661172b5760405162461bcd60e51b815260206004820152601460248201527314185d5cd8589b194e881b9bdd081c185d5cd95960621b6044820152606401610820565b6000806138d3848054806020026020016040519081016040528092919081815260200182805480156138c857602002820191906000526020600020905b8154815260200190600101908083116138b4575b505050505084613c91565b915091508061391c5760405162461bcd60e51b8152602060048201526015602482015274313cba32b99999103737ba1034b71030b93930bc9760591b6044820152606401610820565b835460009061392d906001906144e9565b905080831461397257848181548110613948576139486146b0565b9060005260206000200154858481548110613965576139656146b0565b6000918252602090912001555b84805480613982576139826148c1565b600190038181906000526020600020016000905590555050505050565b60606139ae8484600085613cf4565b949350505050565b600080613a1284805480602002602001604051908101604052809291908181526020018280548015613a0757602002820191906000526020600020905b8154815260200190600101908083116139f3575b505050505084613dcf565b915091508061391c5760405162461bcd60e51b81526020600482015260156024820152743ab4b73a191a9b103737ba1034b71030b93930bc9760591b6044820152606401610820565b600081815260056020908152604080832080548251818502810185019093528083529192909190830182828015613ab157602002820191906000526020600020905b815481526020019060010190808311613a9d575b5050505050905060005b8151811015613c79576000828281518110613ad857613ad86146b0565b602090810291909101810151600086815260048352604080822083835290935291822080546001600160a01b03191681556001810183905590925090613b216002830182613ebd565b505060008481526006602090815260408083208484528252808320805460ff199081169091558784526007835281842085855283528184208054909116905586835260098252808320848452825280832080548251818502810185019093528083529192909190830182828015613bb757602002820191906000526020600020905b815481526020019060010190808311613ba3575b5050505050905060005b8151811015613c41576000828281518110613bde57613bde6146b0565b6020908102919091018101516000898152600883526040808220888352845280822083835284528082208290558a8252600a84528082208883528452808220928252919092529020805460ff191690555080613c3981614570565b915050613bc1565b5060008581526009602090815260408083208584529091528120613c6491613ef7565b50508080613c7190614570565b915050613abb565b5060008281526005602052604081206111c191613ef7565b81516000908190815b81811015613ce15784868281518110613cb557613cb56146b0565b602002602001015103613ccf57925060019150613ced9050565b80613cd981614570565b915050613c9a565b50600019600092509250505b9250929050565b606082471015613d555760405162461bcd60e51b815260206004820152602660248201527f416464726573733a20696e73756666696369656e742062616c616e636520666f6044820152651c8818d85b1b60d21b6064820152608401610820565b600080866001600160a01b03168587604051613d7191906148d7565b60006040518083038185875af1925050503d8060008114613dae576040519150601f19603f3d011682016040523d82523d6000602084013e613db3565b606091505b5091509150613dc487838387613e1f565b979650505050505050565b81516000908190815b81811015613ce15784868281518110613df357613df36146b0565b602002602001015103613e0d57925060019150613ced9050565b80613e1781614570565b915050613dd8565b60608315613e8e578251600003613e87576001600160a01b0385163b613e875760405162461bcd60e51b815260206004820152601d60248201527f416464726573733a2063616c6c20746f206e6f6e2d636f6e74726163740000006044820152606401610820565b50816139ae565b6139ae8383815115613ea35781518083602001fd5b8060405162461bcd60e51b815260040161082091906148e9565b508054613ec99061451f565b6000825580601f10613ed9575050565b601f0160209004906000526020600020908101906128079190613f11565b508054600082559060005260206000209081019061280791905b5b80821115613f265760008155600101613f12565b5090565b600080600060608486031215613f3f57600080fd5b505081359360208301359350604090920135919050565b60008060408385031215613f6957600080fd5b50508035926020909101359150565b60005b83811015613f93578181015183820152602001613f7b565b50506000910152565b60008151808452613fb4816020860160208601613f78565b601f01601f19169290920160200192915050565b6020815260018060a01b03825116602082015260208201516040820152600060408301516060808401526139ae6080840182613f9c565b600080828403606081121561401357600080fd5b833592506040601f198201121561402957600080fd5b506020830190509250929050565b60006020828403121561404957600080fd5b813567ffffffffffffffff81111561406057600080fd5b8201610140818503121561134157600080fd5b6000806000806080858703121561408957600080fd5b5050823594602084013594506040840135936060013592509050565b801515811461280757600080fd5b6000806000606084860312156140c857600080fd5b833592506020840135915060408401356140e1816140a5565b809150509250925092565b600080604083850312156140ff57600080fd5b823591506020830135614111816140a5565b809150509250929050565b60006020828403121561412e57600080fd5b5035919050565b6001600160a01b038116811461280757600080fd5b6000806000806080858703121561416057600080fd5b843593506020850135925060408501359150606085013561418081614135565b939692955090935050565b60006020828403121561419d57600080fd5b813561134181614135565b6020808252825182820181905260009190848201906040850190845b818110156141e0578351835292840192918401916001016141c4565b50909695505050505050565b600081518084526020808501945080840160005b8381101561421c57815187529582019590820190600101614200565b509495945050505050565b60208152600061134160208301846141ec565b6000806040838503121561424d57600080fd5b82359150602083013561411181614135565b81516001600160a01b0316815260208083015161014083019161428c908401826001600160a01b03169052565b5060408301516142a760408401826001600160a01b03169052565b5060608301516142c4606084018280518252602090810151910152565b50608083015180151560a08401525060a083015160c083015260c083015160e083015260e0830151610100614303818501836001600160a01b03169052565b84015180151561012085015290505092915050565b60408152600061432b60408301856141ec565b90508260208301529392505050565b60008083601f84011261434c57600080fd5b50813567ffffffffffffffff81111561436457600080fd5b6020830191508360208260051b8501011115613ced57600080fd5b60008060008060008060006080888a03121561439a57600080fd5b87359650602088013567ffffffffffffffff808211156143b957600080fd5b6143c58b838c0161433a565b909850965060408a01359150808211156143de57600080fd5b6143ea8b838c0161433a565b909650945060608a013591508082111561440357600080fd5b506144108a828b0161433a565b989b979a50959850939692959293505050565b6000806000806060858703121561443957600080fd5b8435935060208501359250604085013567ffffffffffffffff8082111561445f57600080fd5b818701915087601f83011261447357600080fd5b81358181111561448257600080fd5b8860208260061b850101111561449757600080fd5b95989497505060200194505050565b6001600160a01b0392831681529116602082015260400190565b634e487b7160e01b600052601160045260246000fd5b80820180821115610d4457610d446144c0565b81810381811115610d4457610d446144c0565b6001600160a01b0393841681529183166020830152909116604082015260600190565b600181811c9082168061453357607f821691505b60208210810361455357634e487b7160e01b600052602260045260246000fd5b50919050565b813581526020808301359082015260408101610d44565b600060018201614582576145826144c0565b5060010190565b634e487b7160e01b600052604160045260246000fd5b6040805190810167ffffffffffffffff811182821017156145d057634e487b7160e01b600052604160045260246000fd5b60405290565b6000604082840312156145e857600080fd5b6145f061459f565b82358152602083013560208201528091505092915050565b60006020828403121561461a57600080fd5b8135611341816140a5565b84815260a08101614643602083018680358252602090810135910152565b6001600160a01b0393841660608301529190921660809092019190915292915050565b6000808335601e1984360301811261467d57600080fd5b83018035915067ffffffffffffffff82111561469857600080fd5b6020019150600581901b3603821315613ced57600080fd5b634e487b7160e01b600052603260045260246000fd5b6000602082840312156146d857600080fd5b8151611341816140a5565b60008235605e198336030181126146f957600080fd5b9190910192915050565b601f821115611dc257600081815260208120601f850160051c8101602086101561472a5750805b601f850160051c820191505b8181101561474957828155600101614736565b505050505050565b813561475c81614135565b81546001600160a01b0319166001600160a01b03919091161781556020828101356001838101919091559060028301604085013536869003601e190181126147a357600080fd5b8501803567ffffffffffffffff8111156147bc57600080fd5b80360384830113156147cd57600080fd5b6147e1816147db855461451f565b85614703565b6000601f82116001811461481757600083156147ff57508382018601355b600019600385901b1c1916600184901b178555612786565b600085815260209020601f19841690835b8281101561484757868501890135825593880193908901908801614828565b50848210156148665760001960f88660031b161c198885880101351681555b50505050841b909301905550505050565b6000808335601e1984360301811261488e57600080fd5b83018035915067ffffffffffffffff8211156148a957600080fd5b6020019150600681901b3603821315613ced57600080fd5b634e487b7160e01b600052603160045260246000fd5b600082516146f9818460208701613f78565b6020815260006113416020830184613f9c56fea26469706673582212205482c4f972bd6506fd55a36bf16da477e1b9efaeb4a08f794995331dafb8c58b64736f6c63430008120033",
  "devdoc": {
    "events": {
      "Paused(address)": {
        "details": "Emitted when the pause is triggered by `account`."
      },
      "Unpaused(address)": {
        "details": "Emitted when the pause is lifted by `account`."
      }
    },
    "kind": "dev",
    "methods": {
      "addCurrencies(uint256,bytes32,(bytes32,uint256)[])": {
        "details": "WARNING: Adding excessive currencies may cause withdrawal to exceed gas limits. Depositors can remove entries individually if needed. Recommended: <50 currencies per payment method.",
        "params": {
          "_currencies": "The currencies to add (code and conversion rate)",
          "_depositId": "The deposit ID",
          "_paymentMethod": "The payment method"
        }
      },
      "addFunds(uint256,uint256)": {
        "params": {
          "_amount": "The amount of tokens to add",
          "_depositId": "The deposit ID to add funds to"
        }
      },
      "addPaymentMethods(uint256,bytes32[],(address,bytes32,bytes)[],(bytes32,uint256)[][])": {
        "details": "WARNING: Adding excessive payment methods or currencies may cause withdrawal to exceed gas limits. Depositors can remove entries individually if needed. Recommended: <10 payment methods, <50 currencies each.",
        "params": {
          "_currencies": "The currencies for the payment methods",
          "_depositId": "The deposit ID",
          "_paymentMethodData": "The payment verification data for the payment methods",
          "_paymentMethods": "The payment methods to add"
        }
      },
      "deactivateCurrency(uint256,bytes32,bytes32)": {
        "params": {
          "_currencyCode": "The currency code to deactivate",
          "_depositId": "The deposit ID",
          "_paymentMethod": "The payment method"
        }
      },
      "extendIntentExpiry(uint256,bytes32,uint256)": {
        "params": {
          "_additionalTime": "The additional time to extend the expiry by",
          "_depositId": "The deposit ID containing the intent",
          "_intentHash": "The intent hash to extend expiry for"
        }
      },
      "lockFunds(uint256,bytes32,uint256)": {
        "params": {
          "_amount": "The amount to lock",
          "_depositId": "The deposit ID to lock funds from",
          "_intentHash": "The intent hash this intent corresponds to"
        }
      },
      "owner()": {
        "details": "Returns the address of the current owner."
      },
      "paused()": {
        "details": "Returns true if the contract is paused, and false otherwise."
      },
      "pruneExpiredIntents(uint256)": {
        "params": {
          "_depositId": "The deposit ID to prune expired intents for"
        }
      },
      "removeDelegate(uint256)": {
        "params": {
          "_depositId": "The deposit ID"
        }
      },
      "removeFunds(uint256,uint256)": {
        "params": {
          "_amount": "The amount of tokens to remove",
          "_depositId": "The deposit ID to remove funds from"
        }
      },
      "renounceOwnership()": {
        "details": "Leaves the contract without owner. It will not be possible to call `onlyOwner` functions. Can only be called by the current owner. NOTE: Renouncing ownership will leave the contract without an owner, thereby disabling any functionality that is only available to the owner."
      },
      "setAcceptingIntents(uint256,bool)": {
        "params": {
          "_acceptingIntents": "The new accepting intents state",
          "_depositId": "The deposit ID"
        }
      },
      "setCurrencyMinRate(uint256,bytes32,bytes32,uint256)": {
        "params": {
          "_depositId": "The deposit ID",
          "_fiatCurrency": "The fiat currency code to update the min conversion rate for",
          "_newMinConversionRate": "The new min conversion rate. Must be greater than 0.",
          "_paymentMethod": "The payment method to update the min conversion rate for"
        }
      },
      "setDelegate(uint256,address)": {
        "params": {
          "_delegate": "The address to set as delegate (address(0) to remove delegate)",
          "_depositId": "The deposit ID"
        }
      },
      "setDustRecipient(address)": {
        "params": {
          "_dustRecipient": "The new dust recipient address"
        }
      },
      "setDustThreshold(uint256)": {
        "params": {
          "_dustThreshold": "The new dust threshold amount"
        }
      },
      "setIntentExpirationPeriod(uint256)": {
        "params": {
          "_intentExpirationPeriod": "The new intent expiration period in seconds"
        }
      },
      "setIntentRange(uint256,(uint256,uint256))": {
        "params": {
          "_depositId": "The deposit ID",
          "_intentAmountRange": "The new intent amount range"
        }
      },
      "setMaxIntentsPerDeposit(uint256)": {
        "params": {
          "_maxIntentsPerDeposit": "The new maximum number of active intents per deposit"
        }
      },
      "setOrchestrator(address)": {
        "params": {
          "_orchestrator": "The orchestrator contract address"
        }
      },
      "setPaymentMethodActive(uint256,bytes32,bool)": {
        "params": {
          "_depositId": "The deposit ID",
          "_isActive": "New active state",
          "_paymentMethod": "The payment method"
        }
      },
      "setPaymentVerifierRegistry(address)": {
        "params": {
          "_paymentVerifierRegistry": "New payment verifier registry address"
        }
      },
      "setRetainOnEmpty(uint256,bool)": {
        "params": {
          "_depositId": "The deposit ID",
          "_retainOnEmpty": "New retain-on-empty flag value"
        }
      },
      "transferOwnership(address)": {
        "details": "Transfers ownership of the contract to a new account (`newOwner`). Can only be called by the current owner."
      },
      "unlockAndTransferFunds(uint256,bytes32,uint256,address)": {
        "params": {
          "_depositId": "The deposit ID to transfer from",
          "_intentHash": "The intent hash to find and remove the intent for",
          "_to": "The address to transfer to (orchestrator)",
          "_transferAmount": "The amount to actually transfer (may be less than intent amount)"
        }
      },
      "unlockFunds(uint256,bytes32)": {
        "params": {
          "_depositId": "The deposit ID to unlock funds from",
          "_intentHash": "The intent hash to find and remove the intent for"
        }
      },
      "withdrawDeposit(uint256)": {
        "params": {
          "_depositId": "DepositId the depositor is attempting to withdraw"
        }
      }
    },
    "title": "Escrow",
    "version": 1
  },
  "userdoc": {
    "kind": "user",
    "methods": {
      "addCurrencies(uint256,bytes32,(bytes32,uint256)[])": {
        "notice": "Allows depositor to add a new currencies to an existing verifier for a deposit."
      },
      "addFunds(uint256,uint256)": {
        "notice": "Adds additional funds to an existing deposit. Only the depositor can add funds. The funds will be added to the remaining deposits amount, making it available for new intents."
      },
      "addPaymentMethods(uint256,bytes32[],(address,bytes32,bytes)[],(bytes32,uint256)[][])": {
        "notice": "Allows depositor to add a new payment verifier and its associated currencies to an existing deposit."
      },
      "createDeposit((address,uint256,(uint256,uint256),bytes32[],(address,bytes32,bytes)[],(bytes32,uint256)[][],address,address,bool))": {
        "notice": "Creates a deposit entry by locking liquidity in the escrow contract that can be taken by signaling intents. This function will  not add to previous deposits. Every deposit has it's own unique identifier. User must approve the contract to transfer the deposit amount of deposit token. Every deposit specifies the payment methods it supports by specifying their verification data, supported currencies and  their min conversion rates for each payment method. Optionally, a delegate to manage the deposit can be specified. Note that the order of the payment methods, verification data, and currency data must match."
      },
      "deactivateCurrency(uint256,bytes32,bytes32)": {
        "notice": "Allows depositor to deactivate a currency from a verifier for a deposit. The currency is deactivated."
      },
      "extendIntentExpiry(uint256,bytes32,uint256)": {
        "notice": "INTENT GUARDIAN ONLY: Extends the expiry time of an existing intent. Only callable by intent guardian. This function reverts if the total intent expiry period is greater than the maximum allowed to prevent griefing by extending the intent expiry period indefinitely. "
      },
      "lockFunds(uint256,bytes32,uint256)": {
        "notice": "ORCHESTRATOR ONLY: Locks funds for an intent with expiry time. Only callable by orchestrator."
      },
      "pauseEscrow()": {
        "notice": "GOVERNANCE ONLY: Pauses deposit modifications and new deposit creation.  Functionalities that are paused: - Deposit creation (createDeposit) - Adding/removing funds to deposits (addFundsToDeposit, removeFundsFromDeposit) - Updating deposit parameters (conversion rates, intent ranges, accepting intents state) - Adding/removing payment methods and currencies Functionalities that remain unpaused to allow users to retrieve funds: - Full deposit withdrawal (withdrawDeposit) - Delegate management (setDepositDelegate, removeDepositDelegate) - Expired intent pruning (pruneExpiredIntentsAndReclaimLiquidity) - Orchestrator operations (lockFunds, unlockFunds, unlockAndTransferFunds) - Intent expiry extensions by guardian - All view functions"
      },
      "pruneExpiredIntents(uint256)": {
        "notice": "ANYONE: Can be called by anyone to clean up expired intents. "
      },
      "removeDelegate(uint256)": {
        "notice": "Allows depositor to remove the delegate for a specific deposit"
      },
      "removeFunds(uint256,uint256)": {
        "notice": "Removes funds from an existing deposit. Only the depositor can remove funds. If the amount to remove is greater than the remaining deposits, then expired intents will be pruned to reclaim liquidity. If the remaining deposits is less than the min intent amount, then the deposit will be marked as not accepting intents. "
      },
      "setAcceptingIntents(uint256,bool)": {
        "notice": "Allows depositor or delegateto set the accepting intents state for a deposit."
      },
      "setCurrencyMinRate(uint256,bytes32,bytes32,uint256)": {
        "notice": "Only callable by the depositor/delegate for a deposit. Allows depositor/delegate to update the min conversion rate for a  currency for a payment verifier provided the currency was previously listed (otherwise use addCurrenciesToDepositPaymentMethod).  Since intent's store the conversion rate at the time of intent, changing the min conversion rate will not affect any intents that  have already been signaled."
      },
      "setDelegate(uint256,address)": {
        "notice": "Allows depositor to set a delegate address that can manage a specific deposit"
      },
      "setDustRecipient(address)": {
        "notice": "GOVERNANCE ONLY: Sets the dust recipient address."
      },
      "setDustThreshold(uint256)": {
        "notice": "GOVERNANCE ONLY: Sets the dust threshold below which deposits can be closed automatically."
      },
      "setIntentExpirationPeriod(uint256)": {
        "notice": "GOVERNANCE ONLY: Sets the intent expiration period."
      },
      "setIntentRange(uint256,(uint256,uint256))": {
        "notice": "Allows depositor to update the intent amount range for a deposit. Since intent's are already created within the previous intent amount range, changing the intent amount range will not affect any intents that have already been signaled."
      },
      "setMaxIntentsPerDeposit(uint256)": {
        "notice": "GOVERNANCE ONLY: Sets the maximum number of active intents per deposit."
      },
      "setOrchestrator(address)": {
        "notice": "GOVERNANCE ONLY: Sets the orchestrator contract address. Only callable by owner."
      },
      "setPaymentMethodActive(uint256,bytes32,bool)": {
        "notice": "Allows depositor or delegate to toggle a payment method's active state without removing it. This function allows depositor to remove an existing payment verifier from a deposit by setting active to false. The deposit and currencies data is not deleted immediately and instead deferred to when the deposit is fully closed. NOTE: This function does not delete the payment method data to allow existing intents to be fulfilled."
      },
      "setPaymentVerifierRegistry(address)": {
        "notice": "GOVERNANCE ONLY: Updates the payment verifier registry address."
      },
      "setRetainOnEmpty(uint256,bool)": {
        "notice": "Allows depositor or delegate to set the retain-on-empty behavior for a deposit. When true, the deposit will not auto-close or sweep dust when empty; config (payment methods, currencies, rate etc) stays for reuse."
      },
      "unlockAndTransferFunds(uint256,bytes32,uint256,address)": {
        "notice": "ORCHESTRATOR ONLY: Unlocks and transfers funds from a fulfilled intent by removing the specific intent. Only callable by orchestrator. "
      },
      "unlockFunds(uint256,bytes32)": {
        "notice": "ORCHESTRATOR ONLY: Unlocks funds from a cancelled intent by removing the specific intent.  Only callable by orchestrator. "
      },
      "unpauseEscrow()": {
        "notice": "GOVERNANCE ONLY: Restarts paused functionality for the escrow."
      },
      "withdrawDeposit(uint256)": {
        "notice": "Depositor is returned all remaining deposits and any outstanding intents that are expired. Only the depositor can withdraw.  If an intent is not expired then those funds will not be returned. Deposit is marked as to not accept new intents and the funds locked due to intents can be withdrawn once they expire by calling this function again. Deposit will be deleted as long as there are no more outstanding intents."
      }
    },
    "notice": "Escrows deposits and manages deposit lifecycle.",
    "version": 1
  },
  "storageLayout": {
    "storage": [
      {
        "astId": 7,
        "contract": "contracts/Escrow.sol:Escrow",
        "label": "_owner",
        "offset": 0,
        "slot": "0",
        "type": "t_address"
      },
      {
        "astId": 144,
        "contract": "contracts/Escrow.sol:Escrow",
        "label": "_paused",
        "offset": 20,
        "slot": "0",
        "type": "t_bool"
      },
      {
        "astId": 3508,
        "contract": "contracts/Escrow.sol:Escrow",
        "label": "orchestrator",
        "offset": 0,
        "slot": "1",
        "type": "t_contract(IOrchestrator)10124"
      },
      {
        "astId": 3511,
        "contract": "contracts/Escrow.sol:Escrow",
        "label": "paymentVerifierRegistry",
        "offset": 0,
        "slot": "2",
        "type": "t_contract(IPaymentVerifierRegistry)10190"
      },
      {
        "astId": 3518,
        "contract": "contracts/Escrow.sol:Escrow",
        "label": "accountDeposits",
        "offset": 0,
        "slot": "3",
        "type": "t_mapping(t_address,t_array(t_uint256)dyn_storage)"
      },
      {
        "astId": 3525,
        "contract": "contracts/Escrow.sol:Escrow",
        "label": "depositPaymentMethodData",
        "offset": 0,
        "slot": "4",
        "type": "t_mapping(t_uint256,t_mapping(t_bytes32,t_struct(DepositPaymentMethodData)9304_storage))"
      },
      {
        "astId": 3530,
        "contract": "contracts/Escrow.sol:Escrow",
        "label": "depositPaymentMethods",
        "offset": 0,
        "slot": "5",
        "type": "t_mapping(t_uint256,t_array(t_bytes32)dyn_storage)"
      },
      {
        "astId": 3536,
        "contract": "contracts/Escrow.sol:Escrow",
        "label": "depositPaymentMethodActive",
        "offset": 0,
        "slot": "6",
        "type": "t_mapping(t_uint256,t_mapping(t_bytes32,t_bool))"
      },
      {
        "astId": 3542,
        "contract": "contracts/Escrow.sol:Escrow",
        "label": "depositPaymentMethodListed",
        "offset": 0,
        "slot": "7",
        "type": "t_mapping(t_uint256,t_mapping(t_bytes32,t_bool))"
      },
      {
        "astId": 3550,
        "contract": "contracts/Escrow.sol:Escrow",
        "label": "depositCurrencyMinRate",
        "offset": 0,
        "slot": "8",
        "type": "t_mapping(t_uint256,t_mapping(t_bytes32,t_mapping(t_bytes32,t_uint256)))"
      },
      {
        "astId": 3557,
        "contract": "contracts/Escrow.sol:Escrow",
        "label": "depositCurrencies",
        "offset": 0,
        "slot": "9",
        "type": "t_mapping(t_uint256,t_mapping(t_bytes32,t_array(t_bytes32)dyn_storage))"
      },
      {
        "astId": 3565,
        "contract": "contracts/Escrow.sol:Escrow",
        "label": "depositCurrencyListed",
        "offset": 0,
        "slot": "10",
        "type": "t_mapping(t_uint256,t_mapping(t_bytes32,t_mapping(t_bytes32,t_bool)))"
      },
      {
        "astId": 3570,
        "contract": "contracts/Escrow.sol:Escrow",
        "label": "deposits",
        "offset": 0,
        "slot": "11",
        "type": "t_mapping(t_uint256,t_struct(Deposit)9292_storage)"
      },
      {
        "astId": 3575,
        "contract": "contracts/Escrow.sol:Escrow",
        "label": "depositIntentHashes",
        "offset": 0,
        "slot": "12",
        "type": "t_mapping(t_uint256,t_array(t_bytes32)dyn_storage)"
      },
      {
        "astId": 3582,
        "contract": "contracts/Escrow.sol:Escrow",
        "label": "depositIntents",
        "offset": 0,
        "slot": "13",
        "type": "t_mapping(t_uint256,t_mapping(t_bytes32,t_struct(Intent)9266_storage))"
      },
      {
        "astId": 3584,
        "contract": "contracts/Escrow.sol:Escrow",
        "label": "depositCounter",
        "offset": 0,
        "slot": "14",
        "type": "t_uint256"
      },
      {
        "astId": 3586,
        "contract": "contracts/Escrow.sol:Escrow",
        "label": "dustRecipient",
        "offset": 0,
        "slot": "15",
        "type": "t_address"
      },
      {
        "astId": 3588,
        "contract": "contracts/Escrow.sol:Escrow",
        "label": "dustThreshold",
        "offset": 0,
        "slot": "16",
        "type": "t_uint256"
      },
      {
        "astId": 3590,
        "contract": "contracts/Escrow.sol:Escrow",
        "label": "maxIntentsPerDeposit",
        "offset": 0,
        "slot": "17",
        "type": "t_uint256"
      },
      {
        "astId": 3592,
        "contract": "contracts/Escrow.sol:Escrow",
        "label": "intentExpirationPeriod",
        "offset": 0,
        "slot": "18",
        "type": "t_uint256"
      }
    ],
    "types": {
      "t_address": {
        "encoding": "inplace",
        "label": "address",
        "numberOfBytes": "20"
      },
      "t_array(t_bytes32)dyn_storage": {
        "base": "t_bytes32",
        "encoding": "dynamic_array",
        "label": "bytes32[]",
        "numberOfBytes": "32"
      },
      "t_array(t_uint256)dyn_storage": {
        "base": "t_uint256",
        "encoding": "dynamic_array",
        "label": "uint256[]",
        "numberOfBytes": "32"
      },
      "t_bool": {
        "encoding": "inplace",
        "label": "bool",
        "numberOfBytes": "1"
      },
      "t_bytes32": {
        "encoding": "inplace",
        "label": "bytes32",
        "numberOfBytes": "32"
      },
      "t_bytes_storage": {
        "encoding": "bytes",
        "label": "bytes",
        "numberOfBytes": "32"
      },
      "t_contract(IERC20)964": {
        "encoding": "inplace",
        "label": "contract IERC20",
        "numberOfBytes": "20"
      },
      "t_contract(IOrchestrator)10124": {
        "encoding": "inplace",
        "label": "contract IOrchestrator",
        "numberOfBytes": "20"
      },
      "t_contract(IPaymentVerifierRegistry)10190": {
        "encoding": "inplace",
        "label": "contract IPaymentVerifierRegistry",
        "numberOfBytes": "20"
      },
      "t_mapping(t_address,t_array(t_uint256)dyn_storage)": {
        "encoding": "mapping",
        "key": "t_address",
        "label": "mapping(address => uint256[])",
        "numberOfBytes": "32",
        "value": "t_array(t_uint256)dyn_storage"
      },
      "t_mapping(t_bytes32,t_array(t_bytes32)dyn_storage)": {
        "encoding": "mapping",
        "key": "t_bytes32",
        "label": "mapping(bytes32 => bytes32[])",
        "numberOfBytes": "32",
        "value": "t_array(t_bytes32)dyn_storage"
      },
      "t_mapping(t_bytes32,t_bool)": {
        "encoding": "mapping",
        "key": "t_bytes32",
        "label": "mapping(bytes32 => bool)",
        "numberOfBytes": "32",
        "value": "t_bool"
      },
      "t_mapping(t_bytes32,t_mapping(t_bytes32,t_bool))": {
        "encoding": "mapping",
        "key": "t_bytes32",
        "label": "mapping(bytes32 => mapping(bytes32 => bool))",
        "numberOfBytes": "32",
        "value": "t_mapping(t_bytes32,t_bool)"
      },
      "t_mapping(t_bytes32,t_mapping(t_bytes32,t_uint256))": {
        "encoding": "mapping",
        "key": "t_bytes32",
        "label": "mapping(bytes32 => mapping(bytes32 => uint256))",
        "numberOfBytes": "32",
        "value": "t_mapping(t_bytes32,t_uint256)"
      },
      "t_mapping(t_bytes32,t_struct(DepositPaymentMethodData)9304_storage)": {
        "encoding": "mapping",
        "key": "t_bytes32",
        "label": "mapping(bytes32 => struct IEscrow.DepositPaymentMethodData)",
        "numberOfBytes": "32",
        "value": "t_struct(DepositPaymentMethodData)9304_storage"
      },
      "t_mapping(t_bytes32,t_struct(Intent)9266_storage)": {
        "encoding": "mapping",
        "key": "t_bytes32",
        "label": "mapping(bytes32 => struct IEscrow.Intent)",
        "numberOfBytes": "32",
        "value": "t_struct(Intent)9266_storage"
      },
      "t_mapping(t_bytes32,t_uint256)": {
        "encoding": "mapping",
        "key": "t_bytes32",
        "label": "mapping(bytes32 => uint256)",
        "numberOfBytes": "32",
        "value": "t_uint256"
      },
      "t_mapping(t_uint256,t_array(t_bytes32)dyn_storage)": {
        "encoding": "mapping",
        "key": "t_uint256",
        "label": "mapping(uint256 => bytes32[])",
        "numberOfBytes": "32",
        "value": "t_array(t_bytes32)dyn_storage"
      },
      "t_mapping(t_uint256,t_mapping(t_bytes32,t_array(t_bytes32)dyn_storage))": {
        "encoding": "mapping",
        "key": "t_uint256",
        "label": "mapping(uint256 => mapping(bytes32 => bytes32[]))",
        "numberOfBytes": "32",
        "value": "t_mapping(t_bytes32,t_array(t_bytes32)dyn_storage)"
      },
      "t_mapping(t_uint256,t_mapping(t_bytes32,t_bool))": {
        "encoding": "mapping",
        "key": "t_uint256",
        "label": "mapping(uint256 => mapping(bytes32 => bool))",
        "numberOfBytes": "32",
        "value": "t_mapping(t_bytes32,t_bool)"
      },
      "t_mapping(t_uint256,t_mapping(t_bytes32,t_mapping(t_bytes32,t_bool)))": {
        "encoding": "mapping",
        "key": "t_uint256",
        "label": "mapping(uint256 => mapping(bytes32 => mapping(bytes32 => bool)))",
        "numberOfBytes": "32",
        "value": "t_mapping(t_bytes32,t_mapping(t_bytes32,t_bool))"
      },
      "t_mapping(t_uint256,t_mapping(t_bytes32,t_mapping(t_bytes32,t_uint256)))": {
        "encoding": "mapping",
        "key": "t_uint256",
        "label": "mapping(uint256 => mapping(bytes32 => mapping(bytes32 => uint256)))",
        "numberOfBytes": "32",
        "value": "t_mapping(t_bytes32,t_mapping(t_bytes32,t_uint256))"
      },
      "t_mapping(t_uint256,t_mapping(t_bytes32,t_struct(DepositPaymentMethodData)9304_storage))": {
        "encoding": "mapping",
        "key": "t_uint256",
        "label": "mapping(uint256 => mapping(bytes32 => struct IEscrow.DepositPaymentMethodData))",
        "numberOfBytes": "32",
        "value": "t_mapping(t_bytes32,t_struct(DepositPaymentMethodData)9304_storage)"
      },
      "t_mapping(t_uint256,t_mapping(t_bytes32,t_struct(Intent)9266_storage))": {
        "encoding": "mapping",
        "key": "t_uint256",
        "label": "mapping(uint256 => mapping(bytes32 => struct IEscrow.Intent))",
        "numberOfBytes": "32",
        "value": "t_mapping(t_bytes32,t_struct(Intent)9266_storage)"
      },
      "t_mapping(t_uint256,t_struct(Deposit)9292_storage)": {
        "encoding": "mapping",
        "key": "t_uint256",
        "label": "mapping(uint256 => struct IEscrow.Deposit)",
        "numberOfBytes": "32",
        "value": "t_struct(Deposit)9292_storage"
      },
      "t_struct(Deposit)9292_storage": {
        "encoding": "inplace",
        "label": "struct IEscrow.Deposit",
        "members": [
          {
            "astId": 9273,
            "contract": "contracts/Escrow.sol:Escrow",
            "label": "depositor",
            "offset": 0,
            "slot": "0",
            "type": "t_address"
          },
          {
            "astId": 9275,
            "contract": "contracts/Escrow.sol:Escrow",
            "label": "delegate",
            "offset": 0,
            "slot": "1",
            "type": "t_address"
          },
          {
            "astId": 9278,
            "contract": "contracts/Escrow.sol:Escrow",
            "label": "token",
            "offset": 0,
            "slot": "2",
            "type": "t_contract(IERC20)964"
          },
          {
            "astId": 9281,
            "contract": "contracts/Escrow.sol:Escrow",
            "label": "intentAmountRange",
            "offset": 0,
            "slot": "3",
            "type": "t_struct(Range)9271_storage"
          },
          {
            "astId": 9283,
            "contract": "contracts/Escrow.sol:Escrow",
            "label": "acceptingIntents",
            "offset": 0,
            "slot": "5",
            "type": "t_bool"
          },
          {
            "astId": 9285,
            "contract": "contracts/Escrow.sol:Escrow",
            "label": "remainingDeposits",
            "offset": 0,
            "slot": "6",
            "type": "t_uint256"
          },
          {
            "astId": 9287,
            "contract": "contracts/Escrow.sol:Escrow",
            "label": "outstandingIntentAmount",
            "offset": 0,
            "slot": "7",
            "type": "t_uint256"
          },
          {
            "astId": 9289,
            "contract": "contracts/Escrow.sol:Escrow",
            "label": "intentGuardian",
            "offset": 0,
            "slot": "8",
            "type": "t_address"
          },
          {
            "astId": 9291,
            "contract": "contracts/Escrow.sol:Escrow",
            "label": "retainOnEmpty",
            "offset": 20,
            "slot": "8",
            "type": "t_bool"
          }
        ],
        "numberOfBytes": "288"
      },
      "t_struct(DepositPaymentMethodData)9304_storage": {
        "encoding": "inplace",
        "label": "struct IEscrow.DepositPaymentMethodData",
        "members": [
          {
            "astId": 9299,
            "contract": "contracts/Escrow.sol:Escrow",
            "label": "intentGatingService",
            "offset": 0,
            "slot": "0",
            "type": "t_address"
          },
          {
            "astId": 9301,
            "contract": "contracts/Escrow.sol:Escrow",
            "label": "payeeDetails",
            "offset": 0,
            "slot": "1",
            "type": "t_bytes32"
          },
          {
            "astId": 9303,
            "contract": "contracts/Escrow.sol:Escrow",
            "label": "data",
            "offset": 0,
            "slot": "2",
            "type": "t_bytes_storage"
          }
        ],
        "numberOfBytes": "96"
      },
      "t_struct(Intent)9266_storage": {
        "encoding": "inplace",
        "label": "struct IEscrow.Intent",
        "members": [
          {
            "astId": 9259,
            "contract": "contracts/Escrow.sol:Escrow",
            "label": "intentHash",
            "offset": 0,
            "slot": "0",
            "type": "t_bytes32"
          },
          {
            "astId": 9261,
            "contract": "contracts/Escrow.sol:Escrow",
            "label": "amount",
            "offset": 0,
            "slot": "1",
            "type": "t_uint256"
          },
          {
            "astId": 9263,
            "contract": "contracts/Escrow.sol:Escrow",
            "label": "timestamp",
            "offset": 0,
            "slot": "2",
            "type": "t_uint256"
          },
          {
            "astId": 9265,
            "contract": "contracts/Escrow.sol:Escrow",
            "label": "expiryTime",
            "offset": 0,
            "slot": "3",
            "type": "t_uint256"
          }
        ],
        "numberOfBytes": "128"
      },
      "t_struct(Range)9271_storage": {
        "encoding": "inplace",
        "label": "struct IEscrow.Range",
        "members": [
          {
            "astId": 9268,
            "contract": "contracts/Escrow.sol:Escrow",
            "label": "min",
            "offset": 0,
            "slot": "0",
            "type": "t_uint256"
          },
          {
            "astId": 9270,
            "contract": "contracts/Escrow.sol:Escrow",
            "label": "max",
            "offset": 0,
            "slot": "1",
            "type": "t_uint256"
          }
        ],
        "numberOfBytes": "64"
      },
      "t_uint256": {
        "encoding": "inplace",
        "label": "uint256",
        "numberOfBytes": "32"
      }
    }
  }
}