{
  "address": "0x8BA5730415f7b57eeCC021172C2C11e1D6fD67F6",
  "abi": [
    {
      "inputs": [
        {
          "internalType": "address",
          "name": "_owner",
          "type": "address"
        },
        {
          "internalType": "uint256",
          "name": "_chainId",
          "type": "uint256"
        },
        {
          "internalType": "address",
          "name": "_escrowRegistry",
          "type": "address"
        },
        {
          "internalType": "address",
          "name": "_paymentVerifierRegistry",
          "type": "address"
        },
        {
          "internalType": "address",
          "name": "_postIntentHookRegistry",
          "type": "address"
        },
        {
          "internalType": "address",
          "name": "_relayerRegistry",
          "type": "address"
        },
        {
          "internalType": "uint256",
          "name": "_protocolFee",
          "type": "uint256"
        },
        {
          "internalType": "address",
          "name": "_protocolFeeRecipient",
          "type": "address"
        }
      ],
      "stateMutability": "nonpayable",
      "type": "constructor"
    },
    {
      "inputs": [
        {
          "internalType": "address",
          "name": "account",
          "type": "address"
        },
        {
          "internalType": "bytes32",
          "name": "existingIntent",
          "type": "bytes32"
        }
      ],
      "name": "AccountHasActiveIntent",
      "type": "error"
    },
    {
      "inputs": [
        {
          "internalType": "uint256",
          "name": "amount",
          "type": "uint256"
        },
        {
          "internalType": "uint256",
          "name": "max",
          "type": "uint256"
        }
      ],
      "name": "AmountAboveMax",
      "type": "error"
    },
    {
      "inputs": [
        {
          "internalType": "uint256",
          "name": "amount",
          "type": "uint256"
        },
        {
          "internalType": "uint256",
          "name": "min",
          "type": "uint256"
        }
      ],
      "name": "AmountBelowMin",
      "type": "error"
    },
    {
      "inputs": [
        {
          "internalType": "uint256",
          "name": "amount",
          "type": "uint256"
        },
        {
          "internalType": "uint256",
          "name": "limit",
          "type": "uint256"
        }
      ],
      "name": "AmountExceedsLimit",
      "type": "error"
    },
    {
      "inputs": [
        {
          "internalType": "bytes32",
          "name": "paymentMethod",
          "type": "bytes32"
        },
        {
          "internalType": "bytes32",
          "name": "currency",
          "type": "bytes32"
        }
      ],
      "name": "CurrencyNotSupported",
      "type": "error"
    },
    {
      "inputs": [],
      "name": "EscrowLockFailed",
      "type": "error"
    },
    {
      "inputs": [
        {
          "internalType": "address",
          "name": "escrow",
          "type": "address"
        }
      ],
      "name": "EscrowNotWhitelisted",
      "type": "error"
    },
    {
      "inputs": [
        {
          "internalType": "uint256",
          "name": "fee",
          "type": "uint256"
        },
        {
          "internalType": "uint256",
          "name": "maximum",
          "type": "uint256"
        }
      ],
      "name": "FeeExceedsMaximum",
      "type": "error"
    },
    {
      "inputs": [
        {
          "internalType": "bytes32",
          "name": "expected",
          "type": "bytes32"
        },
        {
          "internalType": "bytes32",
          "name": "actual",
          "type": "bytes32"
        }
      ],
      "name": "HashMismatch",
      "type": "error"
    },
    {
      "inputs": [
        {
          "internalType": "bytes32",
          "name": "intentHash",
          "type": "bytes32"
        }
      ],
      "name": "IntentNotFound",
      "type": "error"
    },
    {
      "inputs": [],
      "name": "InvalidReferrerFeeConfiguration",
      "type": "error"
    },
    {
      "inputs": [],
      "name": "InvalidSignature",
      "type": "error"
    },
    {
      "inputs": [
        {
          "internalType": "uint256",
          "name": "currentTime",
          "type": "uint256"
        },
        {
          "internalType": "uint256",
          "name": "allowedTime",
          "type": "uint256"
        }
      ],
      "name": "PartialReleaseNotAllowedYet",
      "type": "error"
    },
    {
      "inputs": [
        {
          "internalType": "bytes32",
          "name": "paymentMethod",
          "type": "bytes32"
        }
      ],
      "name": "PaymentMethodDoesNotExist",
      "type": "error"
    },
    {
      "inputs": [
        {
          "internalType": "bytes32",
          "name": "paymentMethod",
          "type": "bytes32"
        }
      ],
      "name": "PaymentMethodNotSupported",
      "type": "error"
    },
    {
      "inputs": [
        {
          "internalType": "bytes32",
          "name": "paymentMethod",
          "type": "bytes32"
        }
      ],
      "name": "PaymentMethodNotWhitelisted",
      "type": "error"
    },
    {
      "inputs": [],
      "name": "PaymentVerificationFailed",
      "type": "error"
    },
    {
      "inputs": [
        {
          "internalType": "address",
          "name": "hook",
          "type": "address"
        }
      ],
      "name": "PostIntentHookNotWhitelisted",
      "type": "error"
    },
    {
      "inputs": [
        {
          "internalType": "uint256",
          "name": "rate",
          "type": "uint256"
        },
        {
          "internalType": "uint256",
          "name": "minRate",
          "type": "uint256"
        }
      ],
      "name": "RateBelowMinimum",
      "type": "error"
    },
    {
      "inputs": [
        {
          "internalType": "uint256",
          "name": "expiration",
          "type": "uint256"
        },
        {
          "internalType": "uint256",
          "name": "currentTime",
          "type": "uint256"
        }
      ],
      "name": "SignatureExpired",
      "type": "error"
    },
    {
      "inputs": [
        {
          "internalType": "address",
          "name": "recipient",
          "type": "address"
        },
        {
          "internalType": "uint256",
          "name": "amount",
          "type": "uint256"
        }
      ],
      "name": "TransferFailed",
      "type": "error"
    },
    {
      "inputs": [
        {
          "internalType": "address",
          "name": "caller",
          "type": "address"
        },
        {
          "internalType": "address",
          "name": "authorized",
          "type": "address"
        }
      ],
      "name": "UnauthorizedCaller",
      "type": "error"
    },
    {
      "inputs": [
        {
          "internalType": "address",
          "name": "caller",
          "type": "address"
        }
      ],
      "name": "UnauthorizedEscrowCaller",
      "type": "error"
    },
    {
      "inputs": [],
      "name": "ZeroAddress",
      "type": "error"
    },
    {
      "inputs": [],
      "name": "ZeroValue",
      "type": "error"
    },
    {
      "anonymous": false,
      "inputs": [
        {
          "indexed": false,
          "internalType": "bool",
          "name": "allowMultiple",
          "type": "bool"
        }
      ],
      "name": "AllowMultipleIntentsUpdated",
      "type": "event"
    },
    {
      "anonymous": false,
      "inputs": [
        {
          "indexed": true,
          "internalType": "address",
          "name": "escrowRegistry",
          "type": "address"
        }
      ],
      "name": "EscrowRegistryUpdated",
      "type": "event"
    },
    {
      "anonymous": false,
      "inputs": [
        {
          "indexed": true,
          "internalType": "bytes32",
          "name": "intentHash",
          "type": "bytes32"
        },
        {
          "indexed": true,
          "internalType": "address",
          "name": "fundsTransferredTo",
          "type": "address"
        },
        {
          "indexed": false,
          "internalType": "uint256",
          "name": "amount",
          "type": "uint256"
        },
        {
          "indexed": false,
          "internalType": "bool",
          "name": "isManualRelease",
          "type": "bool"
        }
      ],
      "name": "IntentFulfilled",
      "type": "event"
    },
    {
      "anonymous": false,
      "inputs": [
        {
          "indexed": true,
          "internalType": "bytes32",
          "name": "intentHash",
          "type": "bytes32"
        }
      ],
      "name": "IntentPruned",
      "type": "event"
    },
    {
      "anonymous": false,
      "inputs": [
        {
          "indexed": true,
          "internalType": "bytes32",
          "name": "intentHash",
          "type": "bytes32"
        },
        {
          "indexed": true,
          "internalType": "address",
          "name": "escrow",
          "type": "address"
        },
        {
          "indexed": true,
          "internalType": "uint256",
          "name": "depositId",
          "type": "uint256"
        },
        {
          "indexed": false,
          "internalType": "bytes32",
          "name": "paymentMethod",
          "type": "bytes32"
        },
        {
          "indexed": false,
          "internalType": "address",
          "name": "owner",
          "type": "address"
        },
        {
          "indexed": false,
          "internalType": "address",
          "name": "to",
          "type": "address"
        },
        {
          "indexed": false,
          "internalType": "uint256",
          "name": "amount",
          "type": "uint256"
        },
        {
          "indexed": false,
          "internalType": "bytes32",
          "name": "fiatCurrency",
          "type": "bytes32"
        },
        {
          "indexed": false,
          "internalType": "uint256",
          "name": "conversionRate",
          "type": "uint256"
        },
        {
          "indexed": false,
          "internalType": "uint256",
          "name": "timestamp",
          "type": "uint256"
        }
      ],
      "name": "IntentSignaled",
      "type": "event"
    },
    {
      "anonymous": false,
      "inputs": [
        {
          "indexed": true,
          "internalType": "address",
          "name": "previousOwner",
          "type": "address"
        },
        {
          "indexed": true,
          "internalType": "address",
          "name": "newOwner",
          "type": "address"
        }
      ],
      "name": "OwnershipTransferred",
      "type": "event"
    },
    {
      "anonymous": false,
      "inputs": [
        {
          "indexed": false,
          "internalType": "uint256",
          "name": "partialManualReleaseDelay",
          "type": "uint256"
        }
      ],
      "name": "PartialManualReleaseDelayUpdated",
      "type": "event"
    },
    {
      "anonymous": false,
      "inputs": [
        {
          "indexed": false,
          "internalType": "address",
          "name": "account",
          "type": "address"
        }
      ],
      "name": "Paused",
      "type": "event"
    },
    {
      "anonymous": false,
      "inputs": [
        {
          "indexed": true,
          "internalType": "address",
          "name": "paymentVerifierRegistry",
          "type": "address"
        }
      ],
      "name": "PaymentVerifierRegistryUpdated",
      "type": "event"
    },
    {
      "anonymous": false,
      "inputs": [
        {
          "indexed": true,
          "internalType": "address",
          "name": "postIntentHookRegistry",
          "type": "address"
        }
      ],
      "name": "PostIntentHookRegistryUpdated",
      "type": "event"
    },
    {
      "anonymous": false,
      "inputs": [
        {
          "indexed": true,
          "internalType": "address",
          "name": "protocolFeeRecipient",
          "type": "address"
        }
      ],
      "name": "ProtocolFeeRecipientUpdated",
      "type": "event"
    },
    {
      "anonymous": false,
      "inputs": [
        {
          "indexed": false,
          "internalType": "uint256",
          "name": "protocolFee",
          "type": "uint256"
        }
      ],
      "name": "ProtocolFeeUpdated",
      "type": "event"
    },
    {
      "anonymous": false,
      "inputs": [
        {
          "indexed": true,
          "internalType": "address",
          "name": "relayerRegistry",
          "type": "address"
        }
      ],
      "name": "RelayerRegistryUpdated",
      "type": "event"
    },
    {
      "anonymous": false,
      "inputs": [
        {
          "indexed": false,
          "internalType": "address",
          "name": "account",
          "type": "address"
        }
      ],
      "name": "Unpaused",
      "type": "event"
    },
    {
      "inputs": [],
      "name": "allowMultipleIntents",
      "outputs": [
        {
          "internalType": "bool",
          "name": "",
          "type": "bool"
        }
      ],
      "stateMutability": "view",
      "type": "function"
    },
    {
      "inputs": [
        {
          "internalType": "bytes32",
          "name": "_intentHash",
          "type": "bytes32"
        }
      ],
      "name": "cancelIntent",
      "outputs": [],
      "stateMutability": "nonpayable",
      "type": "function"
    },
    {
      "inputs": [],
      "name": "chainId",
      "outputs": [
        {
          "internalType": "uint256",
          "name": "",
          "type": "uint256"
        }
      ],
      "stateMutability": "view",
      "type": "function"
    },
    {
      "inputs": [],
      "name": "escrowRegistry",
      "outputs": [
        {
          "internalType": "contract IEscrowRegistry",
          "name": "",
          "type": "address"
        }
      ],
      "stateMutability": "view",
      "type": "function"
    },
    {
      "inputs": [
        {
          "components": [
            {
              "internalType": "bytes",
              "name": "paymentProof",
              "type": "bytes"
            },
            {
              "internalType": "bytes32",
              "name": "intentHash",
              "type": "bytes32"
            },
            {
              "internalType": "bytes",
              "name": "verificationData",
              "type": "bytes"
            },
            {
              "internalType": "bytes",
              "name": "postIntentHookData",
              "type": "bytes"
            }
          ],
          "internalType": "struct IOrchestrator.FulfillIntentParams",
          "name": "_params",
          "type": "tuple"
        }
      ],
      "name": "fulfillIntent",
      "outputs": [],
      "stateMutability": "nonpayable",
      "type": "function"
    },
    {
      "inputs": [
        {
          "internalType": "address",
          "name": "_account",
          "type": "address"
        }
      ],
      "name": "getAccountIntents",
      "outputs": [
        {
          "internalType": "bytes32[]",
          "name": "",
          "type": "bytes32[]"
        }
      ],
      "stateMutability": "view",
      "type": "function"
    },
    {
      "inputs": [
        {
          "internalType": "bytes32",
          "name": "_intentHash",
          "type": "bytes32"
        }
      ],
      "name": "getIntent",
      "outputs": [
        {
          "components": [
            {
              "internalType": "address",
              "name": "owner",
              "type": "address"
            },
            {
              "internalType": "address",
              "name": "to",
              "type": "address"
            },
            {
              "internalType": "address",
              "name": "escrow",
              "type": "address"
            },
            {
              "internalType": "uint256",
              "name": "depositId",
              "type": "uint256"
            },
            {
              "internalType": "uint256",
              "name": "amount",
              "type": "uint256"
            },
            {
              "internalType": "uint256",
              "name": "timestamp",
              "type": "uint256"
            },
            {
              "internalType": "bytes32",
              "name": "paymentMethod",
              "type": "bytes32"
            },
            {
              "internalType": "bytes32",
              "name": "fiatCurrency",
              "type": "bytes32"
            },
            {
              "internalType": "uint256",
              "name": "conversionRate",
              "type": "uint256"
            },
            {
              "internalType": "address",
              "name": "referrer",
              "type": "address"
            },
            {
              "internalType": "uint256",
              "name": "referrerFee",
              "type": "uint256"
            },
            {
              "internalType": "contract IPostIntentHook",
              "name": "postIntentHook",
              "type": "address"
            },
            {
              "internalType": "bytes",
              "name": "data",
              "type": "bytes"
            }
          ],
          "internalType": "struct IOrchestrator.Intent",
          "name": "",
          "type": "tuple"
        }
      ],
      "stateMutability": "view",
      "type": "function"
    },
    {
      "inputs": [
        {
          "internalType": "bytes32",
          "name": "_intentHash",
          "type": "bytes32"
        }
      ],
      "name": "getIntentMinAtSignal",
      "outputs": [
        {
          "internalType": "uint256",
          "name": "",
          "type": "uint256"
        }
      ],
      "stateMutability": "view",
      "type": "function"
    },
    {
      "inputs": [],
      "name": "intentCounter",
      "outputs": [
        {
          "internalType": "uint256",
          "name": "",
          "type": "uint256"
        }
      ],
      "stateMutability": "view",
      "type": "function"
    },
    {
      "inputs": [],
      "name": "owner",
      "outputs": [
        {
          "internalType": "address",
          "name": "",
          "type": "address"
        }
      ],
      "stateMutability": "view",
      "type": "function"
    },
    {
      "inputs": [],
      "name": "pauseOrchestrator",
      "outputs": [],
      "stateMutability": "nonpayable",
      "type": "function"
    },
    {
      "inputs": [],
      "name": "paused",
      "outputs": [
        {
          "internalType": "bool",
          "name": "",
          "type": "bool"
        }
      ],
      "stateMutability": "view",
      "type": "function"
    },
    {
      "inputs": [],
      "name": "paymentVerifierRegistry",
      "outputs": [
        {
          "internalType": "contract IPaymentVerifierRegistry",
          "name": "",
          "type": "address"
        }
      ],
      "stateMutability": "view",
      "type": "function"
    },
    {
      "inputs": [],
      "name": "postIntentHookRegistry",
      "outputs": [
        {
          "internalType": "contract IPostIntentHookRegistry",
          "name": "",
          "type": "address"
        }
      ],
      "stateMutability": "view",
      "type": "function"
    },
    {
      "inputs": [],
      "name": "protocolFee",
      "outputs": [
        {
          "internalType": "uint256",
          "name": "",
          "type": "uint256"
        }
      ],
      "stateMutability": "view",
      "type": "function"
    },
    {
      "inputs": [],
      "name": "protocolFeeRecipient",
      "outputs": [
        {
          "internalType": "address",
          "name": "",
          "type": "address"
        }
      ],
      "stateMutability": "view",
      "type": "function"
    },
    {
      "inputs": [
        {
          "internalType": "bytes32[]",
          "name": "_intents",
          "type": "bytes32[]"
        }
      ],
      "name": "pruneIntents",
      "outputs": [],
      "stateMutability": "nonpayable",
      "type": "function"
    },
    {
      "inputs": [],
      "name": "relayerRegistry",
      "outputs": [
        {
          "internalType": "contract IRelayerRegistry",
          "name": "",
          "type": "address"
        }
      ],
      "stateMutability": "view",
      "type": "function"
    },
    {
      "inputs": [
        {
          "internalType": "bytes32",
          "name": "_intentHash",
          "type": "bytes32"
        }
      ],
      "name": "releaseFundsToPayer",
      "outputs": [],
      "stateMutability": "nonpayable",
      "type": "function"
    },
    {
      "inputs": [],
      "name": "renounceOwnership",
      "outputs": [],
      "stateMutability": "nonpayable",
      "type": "function"
    },
    {
      "inputs": [
        {
          "internalType": "bool",
          "name": "_allowMultiple",
          "type": "bool"
        }
      ],
      "name": "setAllowMultipleIntents",
      "outputs": [],
      "stateMutability": "nonpayable",
      "type": "function"
    },
    {
      "inputs": [
        {
          "internalType": "address",
          "name": "_escrowRegistry",
          "type": "address"
        }
      ],
      "name": "setEscrowRegistry",
      "outputs": [],
      "stateMutability": "nonpayable",
      "type": "function"
    },
    {
      "inputs": [
        {
          "internalType": "address",
          "name": "_postIntentHookRegistry",
          "type": "address"
        }
      ],
      "name": "setPostIntentHookRegistry",
      "outputs": [],
      "stateMutability": "nonpayable",
      "type": "function"
    },
    {
      "inputs": [
        {
          "internalType": "uint256",
          "name": "_protocolFee",
          "type": "uint256"
        }
      ],
      "name": "setProtocolFee",
      "outputs": [],
      "stateMutability": "nonpayable",
      "type": "function"
    },
    {
      "inputs": [
        {
          "internalType": "address",
          "name": "_protocolFeeRecipient",
          "type": "address"
        }
      ],
      "name": "setProtocolFeeRecipient",
      "outputs": [],
      "stateMutability": "nonpayable",
      "type": "function"
    },
    {
      "inputs": [
        {
          "internalType": "address",
          "name": "_relayerRegistry",
          "type": "address"
        }
      ],
      "name": "setRelayerRegistry",
      "outputs": [],
      "stateMutability": "nonpayable",
      "type": "function"
    },
    {
      "inputs": [
        {
          "components": [
            {
              "internalType": "address",
              "name": "escrow",
              "type": "address"
            },
            {
              "internalType": "uint256",
              "name": "depositId",
              "type": "uint256"
            },
            {
              "internalType": "uint256",
              "name": "amount",
              "type": "uint256"
            },
            {
              "internalType": "address",
              "name": "to",
              "type": "address"
            },
            {
              "internalType": "bytes32",
              "name": "paymentMethod",
              "type": "bytes32"
            },
            {
              "internalType": "bytes32",
              "name": "fiatCurrency",
              "type": "bytes32"
            },
            {
              "internalType": "uint256",
              "name": "conversionRate",
              "type": "uint256"
            },
            {
              "internalType": "address",
              "name": "referrer",
              "type": "address"
            },
            {
              "internalType": "uint256",
              "name": "referrerFee",
              "type": "uint256"
            },
            {
              "internalType": "bytes",
              "name": "gatingServiceSignature",
              "type": "bytes"
            },
            {
              "internalType": "uint256",
              "name": "signatureExpiration",
              "type": "uint256"
            },
            {
              "internalType": "contract IPostIntentHook",
              "name": "postIntentHook",
              "type": "address"
            },
            {
              "internalType": "bytes",
              "name": "data",
              "type": "bytes"
            }
          ],
          "internalType": "struct IOrchestrator.SignalIntentParams",
          "name": "_params",
          "type": "tuple"
        }
      ],
      "name": "signalIntent",
      "outputs": [],
      "stateMutability": "nonpayable",
      "type": "function"
    },
    {
      "inputs": [
        {
          "internalType": "address",
          "name": "newOwner",
          "type": "address"
        }
      ],
      "name": "transferOwnership",
      "outputs": [],
      "stateMutability": "nonpayable",
      "type": "function"
    },
    {
      "inputs": [],
      "name": "unpauseOrchestrator",
      "outputs": [],
      "stateMutability": "nonpayable",
      "type": "function"
    }
  ],
  "transactionHash": "0x1fd77e3da0d0bfe4f25a3b404f58243f29784ca35024b5e5df2d8b72091fb893",
  "args": [
    "0x84e113087C97Cd80eA9D78983D4B8Ff61ECa1929",
    8453,
    "0x429b2a0A43FF077c386270Cbb8d49B417296AE9b",
    "0x3c61dFfEa06b2DE37797a96744bd2F9B68895443",
    "0x077Fd7abB88CD0a9bdb21f5A181957Ca511F1D85",
    "0xE065d32966ceD2E33926Fc08660D61265B06FC2A",
    "0",
    "0x84e113087C97Cd80eA9D78983D4B8Ff61ECa1929"
  ],
  "numDeployments": 1,
  "solcInputHash": "eb091546aae298b762b316d5520696fc",
  "bytecode": "0x60a06040523480156200001157600080fd5b506040516200402138038062004021833981016040819052620000349162000217565b6200003f33620000c9565b6000805460ff60a01b19169055600180556080879052600580546001600160a01b03199081166001600160a01b03898116919091179092556006805482168884161790556007805482168784161790556008805482168684161790556009849055600a8054909116918316919091179055620000bb8862000119565b5050505050505050620002ad565b600080546001600160a01b038381166001600160a01b0319831681178455604051919092169283917f8be0079c531659141344cd1fd0a4f28419497f9722a3daafe3b4186f6b6457e09190a35050565b620001236200019c565b6001600160a01b0381166200018e5760405162461bcd60e51b815260206004820152602660248201527f4f776e61626c653a206e6577206f776e657220697320746865207a65726f206160448201526564647265737360d01b60648201526084015b60405180910390fd5b6200019981620000c9565b50565b6000546001600160a01b03163314620001f85760405162461bcd60e51b815260206004820181905260248201527f4f776e61626c653a2063616c6c6572206973206e6f7420746865206f776e6572604482015260640162000185565b565b80516001600160a01b03811681146200021257600080fd5b919050565b600080600080600080600080610100898b0312156200023557600080fd5b6200024089620001fa565b9750602089015196506200025760408a01620001fa565b95506200026760608a01620001fa565b94506200027760808a01620001fa565b93506200028760a08a01620001fa565b925060c089015191506200029e60e08a01620001fa565b90509295985092959890939650565b608051613d51620002d060003960008181610363015261295d0152613d516000f3fe608060405234801561001057600080fd5b50600436106101cf5760003560e01c806381ceb73511610104578063b0e21e8a116100a2578063f13c46aa11610071578063f13c46aa146103ed578063f2fde38b1461040d578063f5d4609114610420578063fc48395b1461042957600080fd5b8063b0e21e8a146103ab578063cbcd99a3146103b4578063d55f960d146103c7578063e521cb92146103da57600080fd5b806394ac05ad116100de57806394ac05ad1461034b5780639a8a05921461035e578063a8b000bd14610385578063ac7a520c1461039857600080fd5b806381ceb7351461031457806382e2dfee146103275780638da5cb5b1461033a57600080fd5b8063565105101161017157806364cb28111161014b57806364cb2811146102d357806364df049e146102e6578063715018a6146102f9578063787dce3d1461030157600080fd5b806356510510146102995780635c975abb146102b9578063648bdb32146102cb57600080fd5b8063406e1d18116101ad578063406e1d181461022f57806345a734b71461025a57806347ff589d146102625780635095dd641461027557600080fd5b80630e63c831146101d45780632cc410dd146101e9578063392271a7146101fc575b600080fd5b6101e76101e236600461333c565b61043c565b005b6101e76101f736600461337f565b610854565b61021c61020a3660046133f4565b60009081526004602052604090205490565b6040519081526020015b60405180910390f35b600554610242906001600160a01b031681565b6040516001600160a01b039091168152602001610226565b6101e7610a0e565b600854610242906001600160a01b031681565b600a5461028990600160a01b900460ff1681565b6040519015158152602001610226565b6102ac6102a7366004613432565b610a20565b604051610226919061344f565b600054600160a01b900460ff16610289565b6101e7610a8c565b6101e76102e1366004613432565b610a9c565b600a54610242906001600160a01b031681565b6101e7610b15565b6101e761030f3660046133f4565b610b27565b600654610242906001600160a01b031681565b6101e76103353660046133f4565b610ba8565b6000546001600160a01b0316610242565b6101e76103593660046134a1565b610e82565b61021c7f000000000000000000000000000000000000000000000000000000000000000081565b600754610242906001600160a01b031681565b6101e76103a63660046134be565b610ed7565b61021c60095481565b6101e76103c2366004613432565b611442565b6101e76103d53660046133f4565b6114bb565b6101e76103e8366004613432565b6116da565b6104006103fb3660046133f4565b611753565b6040516102269190613624565b6101e761041b366004613432565b611906565b61021c600b5481565b6101e7610437366004613432565b61197c565b6104446119f5565b61045561045082613728565b611a42565b600061045f6120e6565b905060006104706020840184613432565b6040516313f3f72d60e31b8152602085013560048201526001600160a01b039190911690639f9fb9689060240161014060405180830381865afa1580156104bb573d6000803e3d6000fd5b505050506040513d601f19601f820116820180604052508101906104df9190613893565b606080820151516000858152600460209081526040918290209290925580516101a0810190915233815292935082019061051f9060808701908701613432565b6001600160a01b0316815260209081019061053c90860186613432565b6001600160a01b031681526020018460200135815260200184604001358152602001428152602001846080013581526020018460a0013581526020018460c0013581526020018460e00160208101906105959190613432565b6001600160a01b0316815261010085013560208201526040016105c061018086016101608701613432565b6001600160a01b031681526020016105dc61018086018661393d565b8080601f016020809104026020016040519081016040528093929190818152602001838380828437600092018290525093909452505084815260026020818152604092839020855181546001600160a01b03199081166001600160a01b03928316178355928701516001830180548516918316919091179055938601519281018054831693851693909317909255606085015160038301556080850151600483015560a0850151600583015560c0850151600683015560e0850151600783015561010085015160088301556101208501516009830180548316918516919091179055610140850151600a830155610160850151600b83018054909216931692909217909155610180830151909150600c8201906106f99082613a04565b50503360009081526003602090815260408220805460018101825590835290822001849055600b805492509061072e83613ada565b9091555050602083018035906107449085613432565b6001600160a01b0316837ff8c114f83581b2cf0b9f130782a93024aa8933e7d188901156bd68bdd558a20a6080870180359033906107859060608b01613432565b604080519384526001600160a01b039283166020850152911682820152880135606082015260a080890135608083015260c0808a013591830191909152429082015260e00160405180910390a46107df6020840184613432565b60408051630920752560e01b815260208601356004820152602481018590529085013560448201526001600160a01b039190911690630920752590606401600060405180830381600087803b15801561083757600080fd5b505af115801561084b573d6000803e3d6000fd5b50505050505050565b60005b81811015610a0957600083838381811061087357610873613af3565b602002919091013591505080156109f657600081815260026020818152604080842081516101a08101835281546001600160a01b0390811682526001830154811694820194909452938101548316918401919091526003810154606084015260048101546080840152600581015460a0840152600681015460c0840152600781015460e0840152600881015461010084015260098101548216610120840152600a810154610140840152600b810154909116610160830152600c810180546101808401919061094190613984565b80601f016020809104026020016040519081016040528092919081815260200182805461096d90613984565b80156109ba5780601f1061098f576101008083540402835291602001916109ba565b820191906000526020600020905b81548152906001019060200180831161099d57829003601f168201915b50505050508152505090508060a001516000141580156109e6575060408101516001600160a01b031633145b156109f4576109f48261215e565b505b5080610a0181613ada565b915050610857565b505050565b610a1661238b565b610a1e6123e5565b565b6001600160a01b038116600090815260036020908152604091829020805483518184028101840190945280845260609392830182828015610a8057602002820191906000526020600020905b815481526020019060010190808311610a6c575b50505050509050919050565b610a9461238b565b610a1e612445565b610aa461238b565b6001600160a01b038116610acb5760405163d92e233d60e01b815260040160405180910390fd5b600880546001600160a01b0319166001600160a01b0383169081179091556040517fd3c0577a88b56268da0350a01cb491fb15be69982729d9cb066a0603d1fc54b890600090a250565b610b1d61238b565b610a1e6000612481565b610b2f61238b565b66b1a2bc2ec50000811115610b6c5760405163037664ab60e21b81526004810182905266b1a2bc2ec5000060248201526044015b60405180910390fd5b60098190556040518181527fd10d75876659a287a59a6ccfa2e3fff42f84d94b542837acd30bc184d562de40906020015b60405180910390a150565b610bb06124d1565b600081815260026020818152604080842081516101a08101835281546001600160a01b0390811682526001830154811694820194909452938101548316918401919091526003810154606084015260048101546080840152600581015460a0840152600681015460c0840152600781015460e0840152600881015461010084015260098101548216610120840152600a810154610140840152600b810154909116610160830152600c8101805461018084019190610c6d90613984565b80601f0160208091040260200160405190810160405280929190818152602001828054610c9990613984565b8015610ce65780601f10610cbb57610100808354040283529160200191610ce6565b820191906000526020600020905b815481529060010190602001808311610cc957829003601f168201915b5050509190925250508151919250506001600160a01b0316610d1e57604051639481f8b960e01b815260048101839052602401610b63565b600081604001516001600160a01b0316639f9fb96883606001516040518263ffffffff1660e01b8152600401610d5691815260200190565b61014060405180830381865afa158015610d74573d6000803e3d6000fd5b505050506040513d601f19601f82011682018060405250810190610d989190613893565b80519091506001600160a01b03163314610dd957805160405163536dd9ef60e01b81523360048201526001600160a01b039091166024820152604401610b63565b610de28361215e565b60408083015160608401516080850151925163407c8d4360e01b815260048101919091526024810186905260448101929092523060648301526001600160a01b03169063407c8d4390608401600060405180830381600087803b158015610e4857600080fd5b505af1158015610e5c573d6000803e3d6000fd5b50505050610e7481604001518484856080015161252a565b5050610e7f60018055565b50565b610e8a61238b565b600a8054821515600160a01b0260ff60a01b199091161790556040517fdb1db9b43312d33850c773f181f11169bef701e90f3e3cfac979d27a31efc6f790610b9d90831515815260200190565b610edf6124d1565b610ee76119f5565b60208082013560009081526002808352604080832081516101a08101835281546001600160a01b0390811682526001830154811696820196909652928101548516918301919091526003810154606083015260048101546080830152600581015460a0830152600681015460c0830152600781015460e0830152600881015461010083015260098101548416610120830152600a810154610140830152600b810154909316610160820152600c830180549293919261018084019190610fac90613984565b80601f0160208091040260200160405190810160405280929190818152602001828054610fd890613984565b80156110255780601f10610ffa57610100808354040283529160200191611025565b820191906000526020600020905b81548152906001019060200180831161100857829003601f168201915b5050509190925250505060c081015190915061105a57604051639481f8b960e01b815260208301356004820152602401610b63565b600081604001516001600160a01b0316639f9fb96883606001516040518263ffffffff1660e01b815260040161109291815260200190565b61014060405180830381865afa1580156110b0573d6000803e3d6000fd5b505050506040513d601f19601f820116820180604052508101906110d49190613893565b60065460c0840151604051631dd6f64960e31b81529293506000926001600160a01b039092169163eeb7b248916111119160040190815260200190565b602060405180830381865afa15801561112e573d6000803e3d6000fd5b505050506040513d601f19601f820116820180604052508101906111529190613b09565b90506001600160a01b038116611183578260c00151604051630bd49acb60e31b8152600401610b6391815260200190565b6000816001600160a01b0316630ba207a26040518060600160405280886020013581526020018880600001906111b9919061393d565b8080601f01602080910402602001604051908101604052809392919081815260200183838082843760009201919091525050509082525060200161120060408a018a61393d565b8080601f01602080910402602001604051908101604052809392919081815260200183838082843760009201919091525050509152506040516001600160e01b031960e084901b1681526112579190600401613b26565b6060604051808303816000875af1158015611276573d6000803e3d6000fd5b505050506040513d601f19601f8201168201806040525081019061129a9190613b69565b80519091506112bc57604051636938802360e01b815260040160405180910390fd5b84602001358160200151146112f4576020818101516040516305846adf60e11b81529187013560048301526024820152604401610b63565b602080860135600090815260049091526040902054801580159061131b5750808260400151105b1561134a578160400151816040516338fcec4360e01b8152600401610b63929190918252602082015260400190565b611357866020013561215e565b604080860151606087015184830151925163407c8d4360e01b815260048101919091526020890135602482015260448101929092523060648301526001600160a01b03169063407c8d4390608401600060405180830381600087803b1580156113bf57600080fd5b505af11580156113d3573d6000803e3d6000fd5b50505050611434846040015187602001358785604001518a80606001906113fa919061393d565b8080601f0160208091040260200160405190810160405280939291908181526020018383808284376000920191909152506125be92505050565b5050505050610e7f60018055565b61144a61238b565b6001600160a01b0381166114715760405163d92e233d60e01b815260040160405180910390fd5b600580546001600160a01b0319166001600160a01b0383169081179091556040517f873179742d8df742298832022224502b4c9b558e12342f5a48cf56cbb68a3acf90600090a250565b600081815260026020818152604080842081516101a08101835281546001600160a01b0390811682526001830154811694820194909452938101548316918401919091526003810154606084015260048101546080840152600581015460a0840152600681015460c0840152600781015460e0840152600881015461010084015260098101548216610120840152600a810154610140840152600b810154909116610160830152600c810180546101808401919061157890613984565b80601f01602080910402602001604051908101604052809291908181526020018280546115a490613984565b80156115f15780601f106115c6576101008083540402835291602001916115f1565b820191906000526020600020905b8154815290600101906020018083116115d457829003601f168201915b50505050508152505090508060a0015160000361162457604051639481f8b960e01b815260048101839052602401610b63565b80516001600160a01b0316331461166257805160405163536dd9ef60e01b81523360048201526001600160a01b039091166024820152604401610b63565b61166b8261215e565b6040808201516060830151915163432e707b60e01b81526004810192909252602482018490526001600160a01b03169063432e707b90604401600060405180830381600087803b1580156116be57600080fd5b505af11580156116d2573d6000803e3d6000fd5b505050505050565b6116e261238b565b6001600160a01b0381166117095760405163d92e233d60e01b815260040160405180910390fd5b600a80546001600160a01b0319166001600160a01b0383169081179091556040517fc1b5345cce283376356748dc57f2dfa7120431d016fc7ca9ba641bc65f91411d90600090a250565b604080516101a08101825260008082526020820181905291810182905260608082018390526080820183905260a0820183905260c0820183905260e0820183905261010082018390526101208201839052610140820183905261016082019290925261018081019190915260008281526002602081815260409283902083516101a08101855281546001600160a01b0390811682526001830154811693820193909352928101548216938301939093526003830154606083015260048301546080830152600583015460a0830152600683015460c0830152600783015460e0830152600883015461010083015260098301548116610120830152600a830154610140830152600b83015416610160820152600c820180549192916101808401919061187d90613984565b80601f01602080910402602001604051908101604052809291908181526020018280546118a990613984565b80156118f65780601f106118cb576101008083540402835291602001916118f6565b820191906000526020600020905b8154815290600101906020018083116118d957829003601f168201915b5050505050815250509050919050565b61190e61238b565b6001600160a01b0381166119735760405162461bcd60e51b815260206004820152602660248201527f4f776e61626c653a206e6577206f776e657220697320746865207a65726f206160448201526564647265737360d01b6064820152608401610b63565b610e7f81612481565b61198461238b565b6001600160a01b0381166119ab5760405163d92e233d60e01b815260040160405180910390fd5b600780546001600160a01b0319166001600160a01b0383169081179091556040517f92060e1909279aefa624ed1bce0196f5683a70dfbdba1e2114de87d3e893277f90600090a250565b600054600160a01b900460ff1615610a1e5760405162461bcd60e51b815260206004820152601060248201526f14185d5cd8589b194e881c185d5cd95960821b6044820152606401610b63565b600854604051631c98849b60e01b81523360048201526000916001600160a01b031690631c98849b90602401602060405180830381865afa158015611a8b573d6000803e3d6000fd5b505050506040513d601f19601f82011682018060405250810190611aaf9190613bcb565b80611ac35750600a54600160a01b900460ff165b905080158015611ae157503360009081526003602052604090205415155b15611b3c573360008181526003602052604081208054909190611b0657611b06613af3565b60009182526020909120015460405163675d034960e01b81526001600160a01b0390921660048301526024820152604401610b63565b60608201516001600160a01b0316611b675760405163d92e233d60e01b815260040160405180910390fd5b66b1a2bc2ec500008261010001511115611bab5761010082015160405163037664ab60e21b8152600481019190915266b1a2bc2ec500006024820152604401610b63565b60e08201516001600160a01b0316611be05761010082015115611be057604051625daeb360e91b815260040160405180910390fd5b6101608201516001600160a01b031615611c9657600754610160830151604051633485a48d60e21b81526001600160a01b03918216600482015291169063d216923490602401602060405180830381865afa158015611c43573d6000803e3d6000fd5b505050506040513d601f19601f82011682018060405250810190611c679190613bcb565b611c96576101608201516040516364e219bd60e01b81526001600160a01b039091166004820152602401610b63565b60055482516040516363d8a2a760e11b81526001600160a01b03918216600482015291169063c7b1454e90602401602060405180830381865afa158015611ce1573d6000803e3d6000fd5b505050506040513d601f19601f82011682018060405250810190611d059190613bcb565b158015611d865750600560009054906101000a90046001600160a01b03166001600160a01b031663eb57d7526040518163ffffffff1660e01b8152600401602060405180830381865afa158015611d60573d6000803e3d6000fd5b505050506040513d601f19601f82011682018060405250810190611d849190613bcb565b155b15611db257815160405163f94cca3960e01b81526001600160a01b039091166004820152602401610b63565b6006546080830151604051631dd6f64960e31b815260048101919091526000916001600160a01b03169063eeb7b24890602401602060405180830381865afa158015611e02573d6000803e3d6000fd5b505050506040513d601f19601f82011682018060405250810190611e269190613b09565b90506001600160a01b038116611e57578260800151604051630bd49acb60e31b8152600401610b6391815260200190565b825160208401516080850151604051637414f90760e01b81526000936001600160a01b031692637414f90792611e9892600401918252602082015260400190565b602060405180830381865afa158015611eb5573d6000803e3d6000fd5b505050506040513d601f19601f82011682018060405250810190611ed99190613bcb565b905080611f015783608001516040516303531cc560e01b8152600401610b6391815260200190565b83516020850151608086015160a087015160405163106c002d60e11b81526004810193909352602483019190915260448201526000916001600160a01b0316906320d8005a90606401602060405180830381865afa158015611f67573d6000803e3d6000fd5b505050506040513d601f19601f82011682018060405250810190611f8b9190613be8565b905080600003611fc157608085015160a0860151604051636bb6647d60e11b815260048101929092526024820152604401610b63565b808560c001511015611ff65760c085015160405163d8da863d60e01b8152600481019190915260248101829052604401610b63565b84516020860151608087015160405163240c178160e01b81526000936001600160a01b03169263240c17819261203792600401918252602082015260400190565b602060405180830381865afa158015612054573d6000803e3d6000fd5b505050506040513d601f19601f820116820180604052508101906120789190613b09565b90506001600160a01b038116156116d2578561014001514211156120bf57610140860151604051630f88f04960e41b81526004810191909152426024820152604401610b63565b6120c986826128d8565b6116d257604051638baa579f60e01b815260040160405180910390fd5b600b546040516bffffffffffffffffffffffff193060601b1660208201526034810191909152600090819060540160408051601f19818403018152919052805160209091012090506121587f30644e72e131a029b85045b68181585d2833e84879b9709143e1f593f000000182613c17565b92915050565b600081815260026020818152604080842081516101a08101835281546001600160a01b0390811682526001830154811694820194909452938101548316918401919091526003810154606084015260048101546080840152600581015460a0840152600681015460c0840152600781015460e0840152600881015461010084015260098101548216610120840152600a810154610140840152600b810154909116610160830152600c810180546101808401919061221b90613984565b80601f016020809104026020016040519081016040528092919081815260200182805461224790613984565b80156122945780601f1061226957610100808354040283529160200191612294565b820191906000526020600020905b81548152906001019060200180831161227757829003601f168201915b50505091909252505081516001600160a01b031660009081526003602052604090209192506122c591905083612a0a565b6000828152600260208190526040822080546001600160a01b031990811682556001820180548216905591810180548316905560038101839055600481018390556005810183905560068101839055600781018390556008810183905560098101805483169055600a8101839055600b810180549092169091559061234d600c8301826132ee565b50506000828152600460205260408082208290555183917f95eadd9e42ccacb548c6389441b53e6eebec39e11adaea9029a25fe1222483e091a25050565b6000546001600160a01b03163314610a1e5760405162461bcd60e51b815260206004820181905260248201527f4f776e61626c653a2063616c6c6572206973206e6f7420746865206f776e65726044820152606401610b63565b6123ed6119f5565b6000805460ff60a01b1916600160a01b1790557f62e78cea01bee320cd4e420270b5ea74000d11b0c9f74754ebdbfc544b05a2586124283390565b6040516001600160a01b03909116815260200160405180910390a1565b61244d612b32565b6000805460ff60a01b191690557f5db9ee0a495bf2e6ff9c91a7834c1ba4fdd244a5e8aa4e537bd38aeae4b073aa33612428565b600080546001600160a01b038381166001600160a01b0319831681178455604051919092169283917f8be0079c531659141344cd1fd0a4f28419497f9722a3daafe3b4186f6b6457e09190a35050565b6002600154036125235760405162461bcd60e51b815260206004820152601f60248201527f5265656e7472616e637947756172643a207265656e7472616e742063616c6c006044820152606401610b63565b6002600155565b6000612537858484612b82565b905060006125458284613c2b565b6020850151909150612562906001600160a01b0388169083612c65565b83602001516001600160a01b0316857fd50b3b21bc45b85ddfaec58dbf56fe9b88754d08f47dcf5143b63258a57ad9448360016040516125ae9291909182521515602082015260400190565b60405180910390a3505050505050565b60006125cb868585612b82565b905060006125d98285613c2b565b6020860151610160870151919250906001600160a01b03161561286e576040516370a0823160e01b81523060048201526000906001600160a01b038a16906370a0823190602401602060405180830381865afa15801561263d573d6000803e3d6000fd5b505050506040513d601f19601f820116820180604052508101906126619190613be8565b610160880151909150612680906001600160a01b038b16906000612cc8565b61016087015161269b906001600160a01b038b169085612cc8565b8661016001516001600160a01b03166307e0b6c28885886040518463ffffffff1660e01b81526004016126d093929190613c3e565b600060405180830381600087803b1580156126ea57600080fd5b505af11580156126fe573d6000803e3d6000fd5b50506040516370a0823160e01b8152306004820152600092506001600160a01b038c1691506370a0823190602401602060405180830381865afa158015612749573d6000803e3d6000fd5b505050506040513d601f19601f8201168201806040525081019061276d9190613be8565b9050818111156127d35760405162461bcd60e51b815260206004820152602b60248201527f506f7374496e74656e74486f6f6b3a20756e65787065637465642062616c616e60448201526a636520696e63726561736560a81b6064820152608401610b63565b60006127df8284613c2b565b90508481146128425760405162461bcd60e51b815260206004820152602960248201527f506f7374496e74656e74486f6f6b3a206d7573742070756c6c206578616374206044820152681b995d105b5bdd5b9d60ba1b6064820152608401610b63565b61016089015161285e906001600160a01b038d16906000612cc8565b8861016001519350505050612888565b6020860151612888906001600160a01b038a169084612c65565b60408051838152600060208201526001600160a01b0383169189917fd50b3b21bc45b85ddfaec58dbf56fe9b88754d08f47dcf5143b63258a57ad944910160405180910390a35050505050505050565b8151602080840151604080860151606080880151608089015160a08a015160c08b01516101408c015196516bffffffffffffffffffffffff1930871b81169a82019a909a5299851b891660348b015260488a01979097526068890194909452911b9094166088860152609c85019390935260bc84019290925260dc83015260fc8201527f000000000000000000000000000000000000000000000000000000000000000061011c820152600090819061013c01604051602081830303815290604052905060006129dc82805190602001207f19457468657265756d205369676e6564204d6573736167653a0a3332000000006000908152601c91909152603c902090565b9050612a0181866101200151866001600160a01b0316612ddd9092919063ffffffff16565b95945050505050565b600080612a6684805480602002602001604051908101604052809291908181526020018280548015612a5b57602002820191906000526020600020905b815481526020019060010190808311612a47575b505050505084612e34565b9150915080612aaf5760405162461bcd60e51b8152602060048201526015602482015274313cba32b99999103737ba1034b71030b93930bc9760591b6044820152606401610b63565b8354600090612ac090600190613c2b565b9050808314612b0557848181548110612adb57612adb613af3565b9060005260206000200154858481548110612af857612af8613af3565b6000918252602090912001555b84805480612b1557612b15613c69565b600190038181906000526020600020016000905590555050505050565b600054600160a01b900460ff16610a1e5760405162461bcd60e51b815260206004820152601460248201527314185d5cd8589b194e881b9bdd081c185d5cd95960621b6044820152606401610b63565b600a54600090819081906001600160a01b031615801590612ba557506000600954115b15612be857670de0b6b3a764000060095485612bc19190613c7f565b612bcb9190613c96565b600a54909250612be8906001600160a01b03888116911684612c65565b6101208501516001600160a01b031615801590612c0a57506000856101400151115b15612c5157670de0b6b3a764000085610140015185612c299190613c7f565b612c339190613c96565b610120860151909150612c51906001600160a01b0388169083612c65565b612c5b8183613caa565b9695505050505050565b6040516001600160a01b038316602482015260448101829052610a0990849063a9059cbb60e01b906064015b60408051601f198184030181529190526020810180516001600160e01b03166001600160e01b031990931692909217909152612e97565b801580612d425750604051636eb1769f60e11b81523060048201526001600160a01b03838116602483015284169063dd62ed3e90604401602060405180830381865afa158015612d1c573d6000803e3d6000fd5b505050506040513d601f19601f82011682018060405250810190612d409190613be8565b155b612dad5760405162461bcd60e51b815260206004820152603660248201527f5361666545524332303a20617070726f76652066726f6d206e6f6e2d7a65726f60448201527520746f206e6f6e2d7a65726f20616c6c6f77616e636560501b6064820152608401610b63565b6040516001600160a01b038316602482015260448101829052610a0990849063095ea7b360e01b90606401612c91565b6000806000612dec8585612f6c565b90925090506000816004811115612e0557612e05613cbd565b148015612e235750856001600160a01b0316826001600160a01b0316145b80612c5b5750612c5b868686612fae565b81516000908190815b81811015612e845784868281518110612e5857612e58613af3565b602002602001015103612e7257925060019150612e909050565b80612e7c81613ada565b915050612e3d565b50600019600092509250505b9250929050565b6000612eec826040518060400160405280602081526020017f5361666545524332303a206c6f772d6c6576656c2063616c6c206661696c6564815250856001600160a01b031661309a9092919063ffffffff16565b9050805160001480612f0d575080806020019051810190612f0d9190613bcb565b610a095760405162461bcd60e51b815260206004820152602a60248201527f5361666545524332303a204552433230206f7065726174696f6e20646964206e6044820152691bdd081cdd58d8d9595960b21b6064820152608401610b63565b6000808251604103612fa25760208301516040840151606085015160001a612f96878285856130b1565b94509450505050612e90565b50600090506002612e90565b6000806000856001600160a01b0316631626ba7e60e01b8686604051602401612fd8929190613cd3565b60408051601f198184030181529181526020820180516001600160e01b03166001600160e01b03199094169390931790925290516130169190613cec565b600060405180830381855afa9150503d8060008114613051576040519150601f19603f3d011682016040523d82523d6000602084013e613056565b606091505b509150915081801561306a57506020815110155b8015612c5b57508051630b135d3f60e11b9061308f9083016020908101908401613be8565b149695505050505050565b60606130a98484600085613175565b949350505050565b6000807f7fffffffffffffffffffffffffffffff5d576e7357a4501ddfe92f46681b20a08311156130e8575060009050600361316c565b6040805160008082526020820180845289905260ff881692820192909252606081018690526080810185905260019060a0016020604051602081039080840390855afa15801561313c573d6000803e3d6000fd5b5050604051601f1901519150506001600160a01b0381166131655760006001925092505061316c565b9150600090505b94509492505050565b6060824710156131d65760405162461bcd60e51b815260206004820152602660248201527f416464726573733a20696e73756666696369656e742062616c616e636520666f6044820152651c8818d85b1b60d21b6064820152608401610b63565b600080866001600160a01b031685876040516131f29190613cec565b60006040518083038185875af1925050503d806000811461322f576040519150601f19603f3d011682016040523d82523d6000602084013e613234565b606091505b509150915061324587838387613250565b979650505050505050565b606083156132bf5782516000036132b8576001600160a01b0385163b6132b85760405162461bcd60e51b815260206004820152601d60248201527f416464726573733a2063616c6c20746f206e6f6e2d636f6e74726163740000006044820152606401610b63565b50816130a9565b6130a983838151156132d45781518083602001fd5b8060405162461bcd60e51b8152600401610b639190613d08565b5080546132fa90613984565b6000825580601f1061330a575050565b601f016020900490600052602060002090810190610e7f91905b808211156133385760008155600101613324565b5090565b60006020828403121561334e57600080fd5b813567ffffffffffffffff81111561336557600080fd5b82016101a0818503121561337857600080fd5b9392505050565b6000806020838503121561339257600080fd5b823567ffffffffffffffff808211156133aa57600080fd5b818501915085601f8301126133be57600080fd5b8135818111156133cd57600080fd5b8660208260051b85010111156133e257600080fd5b60209290920196919550909350505050565b60006020828403121561340657600080fd5b5035919050565b6001600160a01b0381168114610e7f57600080fd5b803561342d8161340d565b919050565b60006020828403121561344457600080fd5b81356133788161340d565b6020808252825182820181905260009190848201906040850190845b818110156134875783518352928401929184019160010161346b565b50909695505050505050565b8015158114610e7f57600080fd5b6000602082840312156134b357600080fd5b813561337881613493565b6000602082840312156134d057600080fd5b813567ffffffffffffffff8111156134e757600080fd5b82016080818503121561337857600080fd5b60005b838110156135145781810151838201526020016134fc565b50506000910152565b600081518084526135358160208601602086016134f9565b601f01601f19169290920160200192915050565b80516001600160a01b0316825260006101a0602083015161357560208601826001600160a01b03169052565b50604083015161359060408601826001600160a01b03169052565b50606083015160608501526080830151608085015260a083015160a085015260c083015160c085015260e083015160e0850152610100808401518186015250610120808401516135ea828701826001600160a01b03169052565b50506101408381015190850152610160808401516001600160a01b03169085015261018080840151818601839052612c5b8387018261351d565b6020815260006133786020830184613549565b634e487b7160e01b600052604160045260246000fd5b6040516101a0810167ffffffffffffffff8111828210171561367157613671613637565b60405290565b604051610120810167ffffffffffffffff8111828210171561367157613671613637565b600082601f8301126136ac57600080fd5b813567ffffffffffffffff808211156136c7576136c7613637565b604051601f8301601f19908116603f011681019082821181831017156136ef576136ef613637565b8160405283815286602085880101111561370857600080fd5b836020870160208301376000602085830101528094505050505092915050565b60006101a0823603121561373b57600080fd5b61374361364d565b61374c83613422565b8152602083013560208201526040830135604082015261376e60608401613422565b60608201526080830135608082015260a083013560a082015260c083013560c082015261379d60e08401613422565b60e082015261010083810135908201526101208084013567ffffffffffffffff808211156137ca57600080fd5b6137d63683880161369b565b838501526101409250828601358385015261016092506137f7838701613422565b8385015261018092508286013591508082111561381357600080fd5b506138203682870161369b565b918301919091525092915050565b805161342d8161340d565b60006040828403121561384b57600080fd5b6040516040810181811067ffffffffffffffff8211171561386e5761386e613637565b604052825181526020928301519281019290925250919050565b805161342d81613493565b600061014082840312156138a657600080fd5b6138ae613677565b6138b78361382e565b81526138c56020840161382e565b60208201526138d66040840161382e565b60408201526138e88460608501613839565b60608201526138f960a08401613888565b608082015260c083015160a082015260e083015160c082015261010061392081850161382e565b60e08301526139326101208501613888565b908201529392505050565b6000808335601e1984360301811261395457600080fd5b83018035915067ffffffffffffffff82111561396f57600080fd5b602001915036819003821315612e9057600080fd5b600181811c9082168061399857607f821691505b6020821081036139b857634e487b7160e01b600052602260045260246000fd5b50919050565b601f821115610a0957600081815260208120601f850160051c810160208610156139e55750805b601f850160051c820191505b818110156116d2578281556001016139f1565b815167ffffffffffffffff811115613a1e57613a1e613637565b613a3281613a2c8454613984565b846139be565b602080601f831160018114613a675760008415613a4f5750858301515b600019600386901b1c1916600185901b1785556116d2565b600085815260208120601f198616915b82811015613a9657888601518255948401946001909101908401613a77565b5085821015613ab45787850151600019600388901b60f8161c191681555b5050505050600190811b01905550565b634e487b7160e01b600052601160045260246000fd5b600060018201613aec57613aec613ac4565b5060010190565b634e487b7160e01b600052603260045260246000fd5b600060208284031215613b1b57600080fd5b81516133788161340d565b60208152815160208201526000602083015160606040840152613b4c608084018261351d565b90506040840151601f19848303016060850152612a01828261351d565b600060608284031215613b7b57600080fd5b6040516060810181811067ffffffffffffffff82111715613b9e57613b9e613637565b6040528251613bac81613493565b8152602083810151908201526040928301519281019290925250919050565b600060208284031215613bdd57600080fd5b815161337881613493565b600060208284031215613bfa57600080fd5b5051919050565b634e487b7160e01b600052601260045260246000fd5b600082613c2657613c26613c01565b500690565b8181038181111561215857612158613ac4565b606081526000613c516060830186613549565b8460208401528281036040840152612c5b818561351d565b634e487b7160e01b600052603160045260246000fd5b808202811582820484141761215857612158613ac4565b600082613ca557613ca5613c01565b500490565b8082018082111561215857612158613ac4565b634e487b7160e01b600052602160045260246000fd5b8281526040602082015260006130a9604083018461351d565b60008251613cfe8184602087016134f9565b9190910192915050565b602081526000613378602083018461351d56fea2646970667358221220f7361de114e6889656e903be4471ef47ce8816e84e14dfa177dd161109bd76f364736f6c63430008120033",
  "devdoc": {
    "events": {
      "Paused(address)": {
        "details": "Emitted when the pause is triggered by `account`."
      },
      "Unpaused(address)": {
        "details": "Emitted when the pause is lifted by `account`."
      }
    },
    "kind": "dev",
    "methods": {
      "cancelIntent(bytes32)": {
        "params": {
          "_intentHash": "Hash of intent being cancelled"
        }
      },
      "fulfillIntent((bytes,bytes32,bytes,bytes))": {
        "details": "This function adds a reentrancy guard as it's calling the post intent hook contract which itself might call  malicious contracts.",
        "params": {
          "_params": "Struct containing all the fulfill intent parameters"
        }
      },
      "owner()": {
        "details": "Returns the address of the current owner."
      },
      "paused()": {
        "details": "Returns true if the contract is paused, and false otherwise."
      },
      "pruneIntents(bytes32[])": {
        "params": {
          "_intents": "Array of intent hashes to prune"
        }
      },
      "releaseFundsToPayer(bytes32)": {
        "params": {
          "_intentHash": "Hash of intent to resolve by releasing the funds"
        }
      },
      "renounceOwnership()": {
        "details": "Leaves the contract without owner. It will not be possible to call `onlyOwner` functions. Can only be called by the current owner. NOTE: Renouncing ownership will leave the contract without an owner, thereby disabling any functionality that is only available to the owner."
      },
      "setAllowMultipleIntents(bool)": {
        "params": {
          "_allowMultiple": "True to allow all accounts to signal multiple intents, false to restrict to whitelisted relayers only"
        }
      },
      "setEscrowRegistry(address)": {
        "params": {
          "_escrowRegistry": "New escrow registry address"
        }
      },
      "setPostIntentHookRegistry(address)": {
        "params": {
          "_postIntentHookRegistry": "New post intent hook registry address"
        }
      },
      "setProtocolFee(uint256)": {
        "params": {
          "_protocolFee": "New protocol fee in preciseUnits (1e16 = 1%)"
        }
      },
      "setProtocolFeeRecipient(address)": {
        "params": {
          "_protocolFeeRecipient": "New protocol fee recipient address"
        }
      },
      "setRelayerRegistry(address)": {
        "params": {
          "_relayerRegistry": "New relayer registry address"
        }
      },
      "signalIntent((address,uint256,uint256,address,bytes32,bytes32,uint256,address,uint256,bytes,uint256,address,bytes))": {
        "params": {
          "_params": "Struct containing all the intent parameters"
        }
      },
      "transferOwnership(address)": {
        "details": "Transfers ownership of the contract to a new account (`newOwner`). Can only be called by the current owner."
      }
    },
    "title": "Orchestrator",
    "version": 1
  },
  "userdoc": {
    "kind": "user",
    "methods": {
      "cancelIntent(bytes32)": {
        "notice": "Only callable by the originator of the intent. Cancels an outstanding intent. Unlocks liquidity for the corresponding deposit on the escrow contract."
      },
      "fulfillIntent((bytes,bytes32,bytes,bytes))": {
        "notice": "Anyone can submit a fulfill intent transaction, even if caller isn't the intent owner. Upon submission the offchain payment proof is verified, payment details are validated, intent is removed, and escrow state is updated.  Deposit token is transferred to the intent.to address."
      },
      "pauseOrchestrator()": {
        "notice": "GOVERNANCE ONLY: Pauses intent creation and fulfillment functionality.  Functionalities that are paused: - Intent creation (signalIntent) - Intent fulfillment (fulfillIntent) Functionalities that remain unpaused to allow users to recover funds: - Intent cancellation (cancelIntent) - Manual fund release by depositor (releaseFundsToPayer) - Intent pruning by escrow (pruneIntents) - All governance functions - All view functions"
      },
      "pruneIntents(bytes32[])": {
        "notice": "Only the escrow contract owns the intent can call this function. Called by escrow to prune specific expired intents. Escrow leads the cleanup process. "
      },
      "releaseFundsToPayer(bytes32)": {
        "notice": "Allows depositor to release funds to the payer in case of a failed fulfill intent or because of some other arrangement between the two parties. Upon submission we check to make sure the msg.sender is the depositor, the intent is removed, and  escrow state is updated. Deposit token is transferred to the payer."
      },
      "setAllowMultipleIntents(bool)": {
        "notice": "GOVERNANCE ONLY: Sets whether all accounts can signal multiple intents."
      },
      "setEscrowRegistry(address)": {
        "notice": "GOVERNANCE ONLY: Updates the escrow registry address."
      },
      "setPostIntentHookRegistry(address)": {
        "notice": "GOVERNANCE ONLY: Updates the post intent hook registry address."
      },
      "setProtocolFee(uint256)": {
        "notice": "GOVERNANCE ONLY: Updates the protocol fee. This fee is charged to takers upon a successful fulfillment of an intent."
      },
      "setProtocolFeeRecipient(address)": {
        "notice": "GOVERNANCE ONLY: Updates the protocol fee recipient address."
      },
      "setRelayerRegistry(address)": {
        "notice": "GOVERNANCE ONLY: Updates the relayer registry address."
      },
      "signalIntent((address,uint256,uint256,address,bytes32,bytes32,uint256,address,uint256,bytes,uint256,address,bytes))": {
        "notice": "Signals intent to pay the depositor defined in the _depositId the _amount * deposit conversionRate off-chain in order to unlock _amount of funds on-chain. Caller must provide a signature from the deposit's gating service to prove their eligibility to take liquidity. If there are prunable intents then they will be deleted from the deposit to be able  to maintain state hygiene. Locks liquidity for the corresponding deposit on the escrow contract."
      },
      "unpauseOrchestrator()": {
        "notice": "GOVERNANCE ONLY: Restarts paused functionality for the orchestrator."
      }
    },
    "notice": "Orchestrator contract for the ZKP2P protocol. This contract is responsible for managing the intent (order)  lifecycle and orchestrating the P2P trading of fiat currency and onchain assets.",
    "version": 1
  },
  "storageLayout": {
    "storage": [
      {
        "astId": 7,
        "contract": "contracts/Orchestrator.sol:Orchestrator",
        "label": "_owner",
        "offset": 0,
        "slot": "0",
        "type": "t_address"
      },
      {
        "astId": 144,
        "contract": "contracts/Orchestrator.sol:Orchestrator",
        "label": "_paused",
        "offset": 20,
        "slot": "0",
        "type": "t_bool"
      },
      {
        "astId": 245,
        "contract": "contracts/Orchestrator.sol:Orchestrator",
        "label": "_status",
        "offset": 0,
        "slot": "1",
        "type": "t_uint256"
      },
      {
        "astId": 5769,
        "contract": "contracts/Orchestrator.sol:Orchestrator",
        "label": "intents",
        "offset": 0,
        "slot": "2",
        "type": "t_mapping(t_bytes32,t_struct(Intent)8776_storage)"
      },
      {
        "astId": 5774,
        "contract": "contracts/Orchestrator.sol:Orchestrator",
        "label": "accountIntents",
        "offset": 0,
        "slot": "3",
        "type": "t_mapping(t_address,t_array(t_bytes32)dyn_storage)"
      },
      {
        "astId": 5778,
        "contract": "contracts/Orchestrator.sol:Orchestrator",
        "label": "intentMinAtSignal",
        "offset": 0,
        "slot": "4",
        "type": "t_mapping(t_bytes32,t_uint256)"
      },
      {
        "astId": 5781,
        "contract": "contracts/Orchestrator.sol:Orchestrator",
        "label": "escrowRegistry",
        "offset": 0,
        "slot": "5",
        "type": "t_contract(IEscrowRegistry)8742"
      },
      {
        "astId": 5784,
        "contract": "contracts/Orchestrator.sol:Orchestrator",
        "label": "paymentVerifierRegistry",
        "offset": 0,
        "slot": "6",
        "type": "t_contract(IPaymentVerifierRegistry)9104"
      },
      {
        "astId": 5787,
        "contract": "contracts/Orchestrator.sol:Orchestrator",
        "label": "postIntentHookRegistry",
        "offset": 0,
        "slot": "7",
        "type": "t_contract(IPostIntentHookRegistry)9137"
      },
      {
        "astId": 5790,
        "contract": "contracts/Orchestrator.sol:Orchestrator",
        "label": "relayerRegistry",
        "offset": 0,
        "slot": "8",
        "type": "t_contract(IRelayerRegistry)9153"
      },
      {
        "astId": 5792,
        "contract": "contracts/Orchestrator.sol:Orchestrator",
        "label": "protocolFee",
        "offset": 0,
        "slot": "9",
        "type": "t_uint256"
      },
      {
        "astId": 5794,
        "contract": "contracts/Orchestrator.sol:Orchestrator",
        "label": "protocolFeeRecipient",
        "offset": 0,
        "slot": "10",
        "type": "t_address"
      },
      {
        "astId": 5796,
        "contract": "contracts/Orchestrator.sol:Orchestrator",
        "label": "allowMultipleIntents",
        "offset": 20,
        "slot": "10",
        "type": "t_bool"
      },
      {
        "astId": 5798,
        "contract": "contracts/Orchestrator.sol:Orchestrator",
        "label": "intentCounter",
        "offset": 0,
        "slot": "11",
        "type": "t_uint256"
      }
    ],
    "types": {
      "t_address": {
        "encoding": "inplace",
        "label": "address",
        "numberOfBytes": "20"
      },
      "t_array(t_bytes32)dyn_storage": {
        "base": "t_bytes32",
        "encoding": "dynamic_array",
        "label": "bytes32[]",
        "numberOfBytes": "32"
      },
      "t_bool": {
        "encoding": "inplace",
        "label": "bool",
        "numberOfBytes": "1"
      },
      "t_bytes32": {
        "encoding": "inplace",
        "label": "bytes32",
        "numberOfBytes": "32"
      },
      "t_bytes_storage": {
        "encoding": "bytes",
        "label": "bytes",
        "numberOfBytes": "32"
      },
      "t_contract(IEscrowRegistry)8742": {
        "encoding": "inplace",
        "label": "contract IEscrowRegistry",
        "numberOfBytes": "20"
      },
      "t_contract(IPaymentVerifierRegistry)9104": {
        "encoding": "inplace",
        "label": "contract IPaymentVerifierRegistry",
        "numberOfBytes": "20"
      },
      "t_contract(IPostIntentHook)9121": {
        "encoding": "inplace",
        "label": "contract IPostIntentHook",
        "numberOfBytes": "20"
      },
      "t_contract(IPostIntentHookRegistry)9137": {
        "encoding": "inplace",
        "label": "contract IPostIntentHookRegistry",
        "numberOfBytes": "20"
      },
      "t_contract(IRelayerRegistry)9153": {
        "encoding": "inplace",
        "label": "contract IRelayerRegistry",
        "numberOfBytes": "20"
      },
      "t_mapping(t_address,t_array(t_bytes32)dyn_storage)": {
        "encoding": "mapping",
        "key": "t_address",
        "label": "mapping(address => bytes32[])",
        "numberOfBytes": "32",
        "value": "t_array(t_bytes32)dyn_storage"
      },
      "t_mapping(t_bytes32,t_struct(Intent)8776_storage)": {
        "encoding": "mapping",
        "key": "t_bytes32",
        "label": "mapping(bytes32 => struct IOrchestrator.Intent)",
        "numberOfBytes": "32",
        "value": "t_struct(Intent)8776_storage"
      },
      "t_mapping(t_bytes32,t_uint256)": {
        "encoding": "mapping",
        "key": "t_bytes32",
        "label": "mapping(bytes32 => uint256)",
        "numberOfBytes": "32",
        "value": "t_uint256"
      },
      "t_struct(Intent)8776_storage": {
        "encoding": "inplace",
        "label": "struct IOrchestrator.Intent",
        "members": [
          {
            "astId": 8750,
            "contract": "contracts/Orchestrator.sol:Orchestrator",
            "label": "owner",
            "offset": 0,
            "slot": "0",
            "type": "t_address"
          },
          {
            "astId": 8752,
            "contract": "contracts/Orchestrator.sol:Orchestrator",
            "label": "to",
            "offset": 0,
            "slot": "1",
            "type": "t_address"
          },
          {
            "astId": 8754,
            "contract": "contracts/Orchestrator.sol:Orchestrator",
            "label": "escrow",
            "offset": 0,
            "slot": "2",
            "type": "t_address"
          },
          {
            "astId": 8756,
            "contract": "contracts/Orchestrator.sol:Orchestrator",
            "label": "depositId",
            "offset": 0,
            "slot": "3",
            "type": "t_uint256"
          },
          {
            "astId": 8758,
            "contract": "contracts/Orchestrator.sol:Orchestrator",
            "label": "amount",
            "offset": 0,
            "slot": "4",
            "type": "t_uint256"
          },
          {
            "astId": 8760,
            "contract": "contracts/Orchestrator.sol:Orchestrator",
            "label": "timestamp",
            "offset": 0,
            "slot": "5",
            "type": "t_uint256"
          },
          {
            "astId": 8762,
            "contract": "contracts/Orchestrator.sol:Orchestrator",
            "label": "paymentMethod",
            "offset": 0,
            "slot": "6",
            "type": "t_bytes32"
          },
          {
            "astId": 8764,
            "contract": "contracts/Orchestrator.sol:Orchestrator",
            "label": "fiatCurrency",
            "offset": 0,
            "slot": "7",
            "type": "t_bytes32"
          },
          {
            "astId": 8766,
            "contract": "contracts/Orchestrator.sol:Orchestrator",
            "label": "conversionRate",
            "offset": 0,
            "slot": "8",
            "type": "t_uint256"
          },
          {
            "astId": 8768,
            "contract": "contracts/Orchestrator.sol:Orchestrator",
            "label": "referrer",
            "offset": 0,
            "slot": "9",
            "type": "t_address"
          },
          {
            "astId": 8770,
            "contract": "contracts/Orchestrator.sol:Orchestrator",
            "label": "referrerFee",
            "offset": 0,
            "slot": "10",
            "type": "t_uint256"
          },
          {
            "astId": 8773,
            "contract": "contracts/Orchestrator.sol:Orchestrator",
            "label": "postIntentHook",
            "offset": 0,
            "slot": "11",
            "type": "t_contract(IPostIntentHook)9121"
          },
          {
            "astId": 8775,
            "contract": "contracts/Orchestrator.sol:Orchestrator",
            "label": "data",
            "offset": 0,
            "slot": "12",
            "type": "t_bytes_storage"
          }
        ],
        "numberOfBytes": "416"
      },
      "t_uint256": {
        "encoding": "inplace",
        "label": "uint256",
        "numberOfBytes": "32"
      }
    }
  }
}