{
  "address": "0xB214650b424E6b5fdcB1259566eB7A512D8Bd25E",
  "abi": [
    {
      "inputs": [],
      "stateMutability": "nonpayable",
      "type": "constructor"
    },
    {
      "anonymous": false,
      "inputs": [
        {
          "indexed": true,
          "internalType": "address",
          "name": "previousOwner",
          "type": "address"
        },
        {
          "indexed": true,
          "internalType": "address",
          "name": "newOwner",
          "type": "address"
        }
      ],
      "name": "OwnershipTransferred",
      "type": "event"
    },
    {
      "anonymous": false,
      "inputs": [
        {
          "indexed": true,
          "internalType": "address",
          "name": "relayer",
          "type": "address"
        }
      ],
      "name": "RelayerAdded",
      "type": "event"
    },
    {
      "anonymous": false,
      "inputs": [
        {
          "indexed": true,
          "internalType": "address",
          "name": "relayer",
          "type": "address"
        }
      ],
      "name": "RelayerRemoved",
      "type": "event"
    },
    {
      "inputs": [
        {
          "internalType": "address",
          "name": "_relayer",
          "type": "address"
        }
      ],
      "name": "addRelayer",
      "outputs": [],
      "stateMutability": "nonpayable",
      "type": "function"
    },
    {
      "inputs": [],
      "name": "getWhitelistedRelayers",
      "outputs": [
        {
          "internalType": "address[]",
          "name": "",
          "type": "address[]"
        }
      ],
      "stateMutability": "view",
      "type": "function"
    },
    {
      "inputs": [
        {
          "internalType": "address",
          "name": "",
          "type": "address"
        }
      ],
      "name": "isWhitelistedRelayer",
      "outputs": [
        {
          "internalType": "bool",
          "name": "",
          "type": "bool"
        }
      ],
      "stateMutability": "view",
      "type": "function"
    },
    {
      "inputs": [],
      "name": "owner",
      "outputs": [
        {
          "internalType": "address",
          "name": "",
          "type": "address"
        }
      ],
      "stateMutability": "view",
      "type": "function"
    },
    {
      "inputs": [
        {
          "internalType": "uint256",
          "name": "",
          "type": "uint256"
        }
      ],
      "name": "relayers",
      "outputs": [
        {
          "internalType": "address",
          "name": "",
          "type": "address"
        }
      ],
      "stateMutability": "view",
      "type": "function"
    },
    {
      "inputs": [
        {
          "internalType": "address",
          "name": "_relayer",
          "type": "address"
        }
      ],
      "name": "removeRelayer",
      "outputs": [],
      "stateMutability": "nonpayable",
      "type": "function"
    },
    {
      "inputs": [],
      "name": "renounceOwnership",
      "outputs": [],
      "stateMutability": "nonpayable",
      "type": "function"
    },
    {
      "inputs": [
        {
          "internalType": "address",
          "name": "newOwner",
          "type": "address"
        }
      ],
      "name": "transferOwnership",
      "outputs": [],
      "stateMutability": "nonpayable",
      "type": "function"
    }
  ],
  "transactionHash": "0x80a927c8a1e4844a40dc84bdd2a613b2510dd3c5369071aac1b60608af5c19fe",
  "args": [],
  "numDeployments": 1,
  "solcInputHash": "c402cb166077cde92da4a8304faac866",
  "bytecode": "0x608060405234801561001057600080fd5b5061001a3361001f565b61006f565b600080546001600160a01b038381166001600160a01b0319831681178455604051919092169283917f8be0079c531659141344cd1fd0a4f28419497f9722a3daafe3b4186f6b6457e09190a35050565b61086a8061007e6000396000f3fe608060405234801561001057600080fd5b50600436106100885760003560e01c80638da5cb5b1161005b5780638da5cb5b146100f75780639a48e7f91461011c578063dd39f00d1461012f578063f2fde38b1461014257600080fd5b80631c98849b1461008d57806345d58d74146100c557806360f0a5ac146100da578063715018a6146100ef575b600080fd5b6100b061009b36600461072a565b60016020526000908152604090205460ff1681565b60405190151581526020015b60405180910390f35b6100cd610155565b6040516100bc919061075a565b6100ed6100e836600461072a565b6101b7565b005b6100ed61028e565b6000546001600160a01b03165b6040516001600160a01b0390911681526020016100bc565b61010461012a3660046107a7565b6102a2565b6100ed61013d36600461072a565b6102cc565b6100ed61015036600461072a565b61041f565b606060028054806020026020016040519081016040528092919081815260200182805480156101ad57602002820191906000526020600020905b81546001600160a01b0316815260019091019060200180831161018f575b5050505050905090565b6101bf610498565b6001600160a01b03811660009081526001602052604090205460ff1661022c5760405162461bcd60e51b815260206004820152601760248201527f52656c61796572206e6f742077686974656c697374656400000000000000000060448201526064015b60405180910390fd5b6001600160a01b0381166000908152600160205260409020805460ff191690556102576002826104f2565b6040516001600160a01b038216907f10e1f7ce9fd7d1b90a66d13a2ab3cb8dd7f29f3f8d520b143b063ccfbab6906b90600090a250565b610296610498565b6102a06000610665565b565b600281815481106102b257600080fd5b6000918252602090912001546001600160a01b0316905081565b6102d4610498565b6001600160a01b03811661032a5760405162461bcd60e51b815260206004820152601e60248201527f52656c617965722063616e6e6f74206265207a65726f206164647265737300006044820152606401610223565b6001600160a01b03811660009081526001602052604090205460ff16156103935760405162461bcd60e51b815260206004820152601b60248201527f52656c6179657220616c72656164792077686974656c697374656400000000006044820152606401610223565b6001600160a01b0381166000818152600160208190526040808320805460ff19168317905560028054928301815583527f405787fa12a823e0f2b7631cc41b3ba8828b3321ca811111fa75cd3aa3bb5ace90910180546001600160a01b03191684179055517f03580ee9f53a62b7cb409a2cb56f9be87747dd15017afc5cef6eef321e4fb2c59190a250565b610427610498565b6001600160a01b03811661048c5760405162461bcd60e51b815260206004820152602660248201527f4f776e61626c653a206e6577206f776e657220697320746865207a65726f206160448201526564647265737360d01b6064820152608401610223565b61049581610665565b50565b6000546001600160a01b031633146102a05760405162461bcd60e51b815260206004820181905260248201527f4f776e61626c653a2063616c6c6572206973206e6f7420746865206f776e65726044820152606401610223565b6000806105588480548060200260200160405190810160405280929190818152602001828054801561054d57602002820191906000526020600020905b81546001600160a01b0316815260019091019060200180831161052f575b5050505050846106b5565b91509150806105a15760405162461bcd60e51b815260206004820152601560248201527420b2323932b9b9903737ba1034b71030b93930bc9760591b6044820152606401610223565b83546000906105b2906001906107d6565b905080831461062c578481815481106105cd576105cd6107ef565b9060005260206000200160009054906101000a90046001600160a01b03168584815481106105fd576105fd6107ef565b9060005260206000200160006101000a8154816001600160a01b0302191690836001600160a01b031602179055505b8480548061063c5761063c610805565b600082815260209020810160001990810180546001600160a01b03191690550190555050505050565b600080546001600160a01b038381166001600160a01b0319831681178455604051919092169283917f8be0079c531659141344cd1fd0a4f28419497f9722a3daafe3b4186f6b6457e09190a35050565b81516000908190815b8181101561071757846001600160a01b03168682815181106106e2576106e26107ef565b60200260200101516001600160a01b031603610705579250600191506107239050565b8061070f8161081b565b9150506106be565b50600019600092509250505b9250929050565b60006020828403121561073c57600080fd5b81356001600160a01b038116811461075357600080fd5b9392505050565b6020808252825182820181905260009190848201906040850190845b8181101561079b5783516001600160a01b031683529284019291840191600101610776565b50909695505050505050565b6000602082840312156107b957600080fd5b5035919050565b634e487b7160e01b600052601160045260246000fd5b818103818111156107e9576107e96107c0565b92915050565b634e487b7160e01b600052603260045260246000fd5b634e487b7160e01b600052603160045260246000fd5b60006001820161082d5761082d6107c0565b506001019056fea2646970667358221220135014b06061c354adbd130dc2e83cc17ac8ad7739b95a60ec488a32aafb44bd64736f6c63430008120033",
  "devdoc": {
    "kind": "dev",
    "methods": {
      "addRelayer(address)": {
        "params": {
          "_relayer": "The relayer address to add"
        }
      },
      "owner()": {
        "details": "Returns the address of the current owner."
      },
      "removeRelayer(address)": {
        "params": {
          "_relayer": "The relayer address to remove"
        }
      },
      "renounceOwnership()": {
        "details": "Leaves the contract without owner. It will not be possible to call `onlyOwner` functions. Can only be called by the current owner. NOTE: Renouncing ownership will leave the contract without an owner, thereby disabling any functionality that is only available to the owner."
      },
      "transferOwnership(address)": {
        "details": "Transfers ownership of the contract to a new account (`newOwner`). Can only be called by the current owner."
      }
    },
    "version": 1
  },
  "userdoc": {
    "kind": "user",
    "methods": {
      "addRelayer(address)": {
        "notice": "ONLY OWNER: Adds a relayer to the whitelist."
      },
      "removeRelayer(address)": {
        "notice": "ONLY OWNER: Removes a relayer from the whitelist."
      }
    },
    "version": 1
  },
  "storageLayout": {
    "storage": [
      {
        "astId": 7,
        "contract": "contracts/registries/RelayerRegistry.sol:RelayerRegistry",
        "label": "_owner",
        "offset": 0,
        "slot": "0",
        "type": "t_address"
      },
      {
        "astId": 12379,
        "contract": "contracts/registries/RelayerRegistry.sol:RelayerRegistry",
        "label": "isWhitelistedRelayer",
        "offset": 0,
        "slot": "1",
        "type": "t_mapping(t_address,t_bool)"
      },
      {
        "astId": 12382,
        "contract": "contracts/registries/RelayerRegistry.sol:RelayerRegistry",
        "label": "relayers",
        "offset": 0,
        "slot": "2",
        "type": "t_array(t_address)dyn_storage"
      }
    ],
    "types": {
      "t_address": {
        "encoding": "inplace",
        "label": "address",
        "numberOfBytes": "20"
      },
      "t_array(t_address)dyn_storage": {
        "base": "t_address",
        "encoding": "dynamic_array",
        "label": "address[]",
        "numberOfBytes": "32"
      },
      "t_bool": {
        "encoding": "inplace",
        "label": "bool",
        "numberOfBytes": "1"
      },
      "t_mapping(t_address,t_bool)": {
        "encoding": "mapping",
        "key": "t_address",
        "label": "mapping(address => bool)",
        "numberOfBytes": "32",
        "value": "t_bool"
      }
    }
  }
}