{
  "address": "0x1540c12858Ad8D45EE9DAF8DFf2f28B28F047772",
  "abi": [
    {
      "inputs": [
        {
          "internalType": "address",
          "name": "_witness",
          "type": "address"
        }
      ],
      "stateMutability": "nonpayable",
      "type": "constructor"
    },
    {
      "anonymous": false,
      "inputs": [
        {
          "indexed": true,
          "internalType": "address",
          "name": "previousOwner",
          "type": "address"
        },
        {
          "indexed": true,
          "internalType": "address",
          "name": "newOwner",
          "type": "address"
        }
      ],
      "name": "OwnershipTransferred",
      "type": "event"
    },
    {
      "anonymous": false,
      "inputs": [
        {
          "indexed": true,
          "internalType": "address",
          "name": "oldWitness",
          "type": "address"
        },
        {
          "indexed": true,
          "internalType": "address",
          "name": "newWitness",
          "type": "address"
        }
      ],
      "name": "WitnessUpdated",
      "type": "event"
    },
    {
      "inputs": [],
      "name": "MIN_WITNESS_SIGNATURES",
      "outputs": [
        {
          "internalType": "uint256",
          "name": "",
          "type": "uint256"
        }
      ],
      "stateMutability": "view",
      "type": "function"
    },
    {
      "inputs": [],
      "name": "owner",
      "outputs": [
        {
          "internalType": "address",
          "name": "",
          "type": "address"
        }
      ],
      "stateMutability": "view",
      "type": "function"
    },
    {
      "inputs": [],
      "name": "renounceOwnership",
      "outputs": [],
      "stateMutability": "nonpayable",
      "type": "function"
    },
    {
      "inputs": [
        {
          "internalType": "address",
          "name": "_newWitness",
          "type": "address"
        }
      ],
      "name": "setWitness",
      "outputs": [],
      "stateMutability": "nonpayable",
      "type": "function"
    },
    {
      "inputs": [
        {
          "internalType": "address",
          "name": "newOwner",
          "type": "address"
        }
      ],
      "name": "transferOwnership",
      "outputs": [],
      "stateMutability": "nonpayable",
      "type": "function"
    },
    {
      "inputs": [
        {
          "internalType": "bytes32",
          "name": "_digest",
          "type": "bytes32"
        },
        {
          "internalType": "bytes[]",
          "name": "_sigs",
          "type": "bytes[]"
        },
        {
          "internalType": "bytes",
          "name": "",
          "type": "bytes"
        }
      ],
      "name": "verify",
      "outputs": [
        {
          "internalType": "bool",
          "name": "isValid",
          "type": "bool"
        }
      ],
      "stateMutability": "view",
      "type": "function"
    },
    {
      "inputs": [],
      "name": "witness",
      "outputs": [
        {
          "internalType": "address",
          "name": "",
          "type": "address"
        }
      ],
      "stateMutability": "view",
      "type": "function"
    }
  ],
  "transactionHash": "0xe91078274fc3bfcd2b219a62ee795152373ac08d34d55c077439aae894539b46",
  "args": [
    "0x4ab950AE1e3326578Bf7e643a2031E858aBa2927"
  ],
  "numDeployments": 1,
  "solcInputHash": "c402cb166077cde92da4a8304faac866",
  "bytecode": "0x608060405234801561001057600080fd5b50604051610dd2380380610dd283398101604081905261002f916100ad565b6100383361005d565b600180546001600160a01b0319166001600160a01b03929092169190911790556100dd565b600080546001600160a01b038381166001600160a01b0319831681178455604051919092169283917f8be0079c531659141344cd1fd0a4f28419497f9722a3daafe3b4186f6b6457e09190a35050565b6000602082840312156100bf57600080fd5b81516001600160a01b03811681146100d657600080fd5b9392505050565b610ce6806100ec6000396000f3fe608060405234801561001057600080fd5b506004361061007d5760003560e01c8063522ebb001161005b578063522ebb00146100dd578063715018a6146101005780638da5cb5b14610108578063f2fde38b1461011957600080fd5b80630bc14f8b1461008257806333bea3d11461009757806339046e8b146100b2575b600080fd5b610095610090366004610991565b61012c565b005b61009f600181565b6040519081526020015b60405180910390f35b6001546100c5906001600160a01b031681565b6040516001600160a01b0390911681526020016100a9565b6100f06100eb366004610a03565b6101f1565b60405190151581526020016100a9565b61009561026f565b6000546001600160a01b03166100c5565b610095610127366004610991565b610283565b6101346102fc565b6001600160a01b03811661019f5760405162461bcd60e51b815260206004820152602760248201527f53696d706c654174746573746174696f6e56657269666965723a205a65726f206044820152666164647265737360c81b60648201526084015b60405180910390fd5b600180546001600160a01b038381166001600160a01b0319831681179093556040519116919082907fad0ebd2f1d8e9b159896a7a3a362003409a5101cb7f082fbbca652ab5906ea5790600090a35050565b60408051600180825281830190925260009182919060208083019080368337505060015482519293506001600160a01b03169183915060009061023657610236610ac4565b6001600160a01b03909216602092830291909101909101526102648761025c8789610b0b565b836001610356565b979650505050505050565b6102776102fc565b61028160006106eb565b565b61028b6102fc565b6001600160a01b0381166102f05760405162461bcd60e51b815260206004820152602660248201527f4f776e61626c653a206e6577206f776e657220697320746865207a65726f206160448201526564647265737360d01b6064820152608401610196565b6102f9816106eb565b50565b6000546001600160a01b031633146102815760405162461bcd60e51b815260206004820181905260248201527f4f776e61626c653a2063616c6c6572206973206e6f7420746865206f776e65726044820152606401610196565b60008082116103c45760405162461bcd60e51b815260206004820152603460248201527f5468726573686f6c6453696756657269666965725574696c733a207265712074604482015273068726573686f6c64206d757374206265203e20360641b6064820152608401610196565b835182111561043b5760405162461bcd60e51b815260206004820152603b60248201527f5468726573686f6c6453696756657269666965725574696c733a20726571207460448201527f68726573686f6c642065786365656473207369676e61747572657300000000006064820152608401610196565b82518211156104b25760405162461bcd60e51b815260206004820152603a60248201527f5468726573686f6c6453696756657269666965725574696c733a20726571207460448201527f68726573686f6c642065786365656473207769746e65737365730000000000006064820152608401610196565b6000835167ffffffffffffffff8111156104ce576104ce610aae565b6040519080825280602002602001820160405280156104f7578160200160208202803683370190505b5090506000805b865181101561066a5760005b8651811015610657576105638989848151811061052957610529610ac4565b602002602001015189848151811061054357610543610ac4565b60200260200101516001600160a01b031661073b9092919063ffffffff16565b15610645576000805b848110156105da5788838151811061058657610586610ac4565b60200260200101516001600160a01b03168682815181106105a9576105a9610ac4565b60200260200101516001600160a01b0316036105c857600191506105da565b806105d281610be0565b91505061056c565b5080610643578782815181106105f2576105f2610ac4565b602002602001015185858151811061060c5761060c610ac4565b6001600160a01b03909216602092830291909101909101528361062e81610be0565b94505086841061063d57600195505b50610657565b505b8061064f81610be0565b91505061050a565b508061066281610be0565b9150506104fe565b50838110156106e15760405162461bcd60e51b815260206004820152603e60248201527f5468726573686f6c6453696756657269666965725574696c733a204e6f74206560448201527f6e6f7567682076616c6964207769746e657373207369676e61747572657300006064820152608401610196565b5050949350505050565b600080546001600160a01b038381166001600160a01b0319831681178455604051919092169283917f8be0079c531659141344cd1fd0a4f28419497f9722a3daafe3b4186f6b6457e09190a35050565b600080600061074a858561079c565b9092509050600081600481111561076357610763610c07565b1480156107815750856001600160a01b0316826001600160a01b0316145b8061079257506107928686866107e1565b9695505050505050565b60008082516041036107d25760208301516040840151606085015160001a6107c6878285856108cd565b945094505050506107da565b506000905060025b9250929050565b6000806000856001600160a01b0316631626ba7e60e01b868660405160240161080b929190610c41565b60408051601f198184030181529181526020820180516001600160e01b03166001600160e01b03199094169390931790925290516108499190610c7b565b600060405180830381855afa9150503d8060008114610884576040519150601f19603f3d011682016040523d82523d6000602084013e610889565b606091505b509150915081801561089d57506020815110155b801561079257508051630b135d3f60e11b906108c29083016020908101908401610c97565b149695505050505050565b6000807f7fffffffffffffffffffffffffffffff5d576e7357a4501ddfe92f46681b20a08311156109045750600090506003610988565b6040805160008082526020820180845289905260ff881692820192909252606081018690526080810185905260019060a0016020604051602081039080840390855afa158015610958573d6000803e3d6000fd5b5050604051601f1901519150506001600160a01b03811661098157600060019250925050610988565b9150600090505b94509492505050565b6000602082840312156109a357600080fd5b81356001600160a01b03811681146109ba57600080fd5b9392505050565b60008083601f8401126109d357600080fd5b50813567ffffffffffffffff8111156109eb57600080fd5b6020830191508360208285010111156107da57600080fd5b600080600080600060608688031215610a1b57600080fd5b85359450602086013567ffffffffffffffff80821115610a3a57600080fd5b818801915088601f830112610a4e57600080fd5b813581811115610a5d57600080fd5b8960208260051b8501011115610a7257600080fd5b602083019650809550506040880135915080821115610a9057600080fd5b50610a9d888289016109c1565b969995985093965092949392505050565b634e487b7160e01b600052604160045260246000fd5b634e487b7160e01b600052603260045260246000fd5b604051601f8201601f1916810167ffffffffffffffff81118282101715610b0357610b03610aae565b604052919050565b600067ffffffffffffffff80841115610b2657610b26610aae565b8360051b6020610b37818301610ada565b868152918501918181019036841115610b4f57600080fd5b865b84811015610bd457803586811115610b695760008081fd5b8801601f3681830112610b7c5760008081fd5b813588811115610b8e57610b8e610aae565b610b9f818301601f19168801610ada565b91508082523687828501011115610bb65760008081fd5b80878401888401376000908201870152845250918301918301610b51565b50979650505050505050565b600060018201610c0057634e487b7160e01b600052601160045260246000fd5b5060010190565b634e487b7160e01b600052602160045260246000fd5b60005b83811015610c38578181015183820152602001610c20565b50506000910152565b8281526040602082015260008251806040840152610c66816060850160208701610c1d565b601f01601f1916919091016060019392505050565b60008251610c8d818460208701610c1d565b9190910192915050565b600060208284031215610ca957600080fd5b505191905056fea2646970667358221220eeb7afdc6ac34dc6f1f612b9b5593f582a85a117b749fb1eb3541a951a39a33a64736f6c63430008120033",
  "devdoc": {
    "details": "Simplified model with one offchain attestation service  The verification flow: 1. User runs the zkTLS protocol with the attestor to generate a zkTLS proof 2. Off-chain service verifies zkTLS proofs and generates standardized attestation; Attestation is    signed by the witness and includes metadata about verification 3. On-chain verification checks witness signature AND validates trust anchors to ensure    offchain verification integrity",
    "kind": "dev",
    "methods": {
      "constructor": {
        "params": {
          "_witness": "Initial witness address (can be zero to set later)"
        }
      },
      "owner()": {
        "details": "Returns the address of the current owner."
      },
      "renounceOwnership()": {
        "details": "Leaves the contract without owner. It will not be possible to call `onlyOwner` functions. Can only be called by the current owner. NOTE: Renouncing ownership will leave the contract without an owner, thereby disabling any functionality that is only available to the owner."
      },
      "setWitness(address)": {
        "params": {
          "_newWitness": "New witness address"
        }
      },
      "transferOwnership(address)": {
        "details": "Transfers ownership of the contract to a new account (`newOwner`). Can only be called by the current owner."
      },
      "verify(bytes32,bytes[],bytes)": {
        "params": {
          "_digest": "The message digest to verify (EIP-712 formatted)",
          "_sigs": "Array with single signature from the witness"
        },
        "returns": {
          "isValid": "True if attestation and trust anchor are valid"
        }
      }
    },
    "title": "SimpleAttestationVerifier",
    "version": 1
  },
  "userdoc": {
    "kind": "user",
    "methods": {
      "constructor": {
        "notice": "Initializes the attestation verifier"
      },
      "setWitness(address)": {
        "notice": "Updates the witness address"
      },
      "verify(bytes32,bytes[],bytes)": {
        "notice": "Verifies attestations and trust anchor from off-chain verification service"
      }
    },
    "notice": "Verifies attestations from off-chain verification service with on-chain trust anchors",
    "version": 1
  },
  "storageLayout": {
    "storage": [
      {
        "astId": 7,
        "contract": "contracts/unifiedVerifier/SimpleAttestationVerifier.sol:SimpleAttestationVerifier",
        "label": "_owner",
        "offset": 0,
        "slot": "0",
        "type": "t_address"
      },
      {
        "astId": 12738,
        "contract": "contracts/unifiedVerifier/SimpleAttestationVerifier.sol:SimpleAttestationVerifier",
        "label": "witness",
        "offset": 0,
        "slot": "1",
        "type": "t_address"
      }
    ],
    "types": {
      "t_address": {
        "encoding": "inplace",
        "label": "address",
        "numberOfBytes": "20"
      }
    }
  }
}