{
  "address": "0x07937fb392D0dc524C588221140b37195F2E1817",
  "abi": [
    {
      "inputs": [
        {
          "internalType": "address",
          "name": "_baseVerifier",
          "type": "address"
        },
        {
          "internalType": "contract INullifierRegistry",
          "name": "_nullifierRegistry",
          "type": "address"
        },
        {
          "internalType": "string[]",
          "name": "_providerHashes",
          "type": "string[]"
        },
        {
          "internalType": "uint256",
          "name": "_timestampBuffer",
          "type": "uint256"
        }
      ],
      "stateMutability": "nonpayable",
      "type": "constructor"
    },
    {
      "anonymous": false,
      "inputs": [
        {
          "indexed": true,
          "internalType": "address",
          "name": "previousOwner",
          "type": "address"
        },
        {
          "indexed": true,
          "internalType": "address",
          "name": "newOwner",
          "type": "address"
        }
      ],
      "name": "OwnershipTransferred",
      "type": "event"
    },
    {
      "anonymous": false,
      "inputs": [
        {
          "indexed": false,
          "internalType": "string",
          "name": "providerHash",
          "type": "string"
        }
      ],
      "name": "ProviderHashAdded",
      "type": "event"
    },
    {
      "anonymous": false,
      "inputs": [
        {
          "indexed": false,
          "internalType": "string",
          "name": "providerHash",
          "type": "string"
        }
      ],
      "name": "ProviderHashRemoved",
      "type": "event"
    },
    {
      "anonymous": false,
      "inputs": [
        {
          "indexed": false,
          "internalType": "uint256",
          "name": "newTimestampBuffer",
          "type": "uint256"
        }
      ],
      "name": "TimestampBufferSet",
      "type": "event"
    },
    {
      "inputs": [],
      "name": "DELIVERED_STATUS",
      "outputs": [
        {
          "internalType": "bytes32",
          "name": "",
          "type": "bytes32"
        }
      ],
      "stateMutability": "view",
      "type": "function"
    },
    {
      "inputs": [
        {
          "internalType": "string",
          "name": "_newProviderHash",
          "type": "string"
        }
      ],
      "name": "addProviderHash",
      "outputs": [],
      "stateMutability": "nonpayable",
      "type": "function"
    },
    {
      "inputs": [],
      "name": "baseVerifier",
      "outputs": [
        {
          "internalType": "address",
          "name": "",
          "type": "address"
        }
      ],
      "stateMutability": "view",
      "type": "function"
    },
    {
      "inputs": [],
      "name": "getProviderHashes",
      "outputs": [
        {
          "internalType": "string[]",
          "name": "",
          "type": "string[]"
        }
      ],
      "stateMutability": "view",
      "type": "function"
    },
    {
      "inputs": [
        {
          "internalType": "string",
          "name": "",
          "type": "string"
        }
      ],
      "name": "isProviderHash",
      "outputs": [
        {
          "internalType": "bool",
          "name": "",
          "type": "bool"
        }
      ],
      "stateMutability": "view",
      "type": "function"
    },
    {
      "inputs": [],
      "name": "nullifierRegistry",
      "outputs": [
        {
          "internalType": "contract INullifierRegistry",
          "name": "",
          "type": "address"
        }
      ],
      "stateMutability": "view",
      "type": "function"
    },
    {
      "inputs": [],
      "name": "owner",
      "outputs": [
        {
          "internalType": "address",
          "name": "",
          "type": "address"
        }
      ],
      "stateMutability": "view",
      "type": "function"
    },
    {
      "inputs": [
        {
          "internalType": "uint256",
          "name": "",
          "type": "uint256"
        }
      ],
      "name": "providerHashes",
      "outputs": [
        {
          "internalType": "string",
          "name": "",
          "type": "string"
        }
      ],
      "stateMutability": "view",
      "type": "function"
    },
    {
      "inputs": [
        {
          "internalType": "string",
          "name": "_removeProviderHash",
          "type": "string"
        }
      ],
      "name": "removeProviderHash",
      "outputs": [],
      "stateMutability": "nonpayable",
      "type": "function"
    },
    {
      "inputs": [],
      "name": "renounceOwnership",
      "outputs": [],
      "stateMutability": "nonpayable",
      "type": "function"
    },
    {
      "inputs": [
        {
          "internalType": "uint256",
          "name": "_timestampBuffer",
          "type": "uint256"
        }
      ],
      "name": "setTimestampBuffer",
      "outputs": [],
      "stateMutability": "nonpayable",
      "type": "function"
    },
    {
      "inputs": [],
      "name": "timestampBuffer",
      "outputs": [
        {
          "internalType": "uint256",
          "name": "",
          "type": "uint256"
        }
      ],
      "stateMutability": "view",
      "type": "function"
    },
    {
      "inputs": [
        {
          "internalType": "address",
          "name": "newOwner",
          "type": "address"
        }
      ],
      "name": "transferOwnership",
      "outputs": [],
      "stateMutability": "nonpayable",
      "type": "function"
    },
    {
      "inputs": [
        {
          "components": [
            {
              "internalType": "bytes",
              "name": "paymentProof",
              "type": "bytes"
            },
            {
              "internalType": "address",
              "name": "depositToken",
              "type": "address"
            },
            {
              "internalType": "uint256",
              "name": "intentAmount",
              "type": "uint256"
            },
            {
              "internalType": "uint256",
              "name": "intentTimestamp",
              "type": "uint256"
            },
            {
              "internalType": "string",
              "name": "payeeDetails",
              "type": "string"
            },
            {
              "internalType": "bytes32",
              "name": "fiatCurrency",
              "type": "bytes32"
            },
            {
              "internalType": "uint256",
              "name": "conversionRate",
              "type": "uint256"
            },
            {
              "internalType": "bytes",
              "name": "data",
              "type": "bytes"
            }
          ],
          "internalType": "struct IPaymentVerifier.VerifyPaymentData",
          "name": "_verifyPaymentData",
          "type": "tuple"
        }
      ],
      "name": "verifyPayment",
      "outputs": [
        {
          "internalType": "bool",
          "name": "",
          "type": "bool"
        },
        {
          "internalType": "bytes32",
          "name": "",
          "type": "bytes32"
        }
      ],
      "stateMutability": "nonpayable",
      "type": "function"
    },
    {
      "inputs": [
        {
          "components": [
            {
              "components": [
                {
                  "internalType": "string",
                  "name": "provider",
                  "type": "string"
                },
                {
                  "internalType": "string",
                  "name": "parameters",
                  "type": "string"
                },
                {
                  "internalType": "string",
                  "name": "context",
                  "type": "string"
                }
              ],
              "internalType": "struct Claims.ClaimInfo",
              "name": "claimInfo",
              "type": "tuple"
            },
            {
              "components": [
                {
                  "components": [
                    {
                      "internalType": "bytes32",
                      "name": "identifier",
                      "type": "bytes32"
                    },
                    {
                      "internalType": "address",
                      "name": "owner",
                      "type": "address"
                    },
                    {
                      "internalType": "uint32",
                      "name": "timestampS",
                      "type": "uint32"
                    },
                    {
                      "internalType": "uint32",
                      "name": "epoch",
                      "type": "uint32"
                    }
                  ],
                  "internalType": "struct Claims.CompleteClaimData",
                  "name": "claim",
                  "type": "tuple"
                },
                {
                  "internalType": "bytes[]",
                  "name": "signatures",
                  "type": "bytes[]"
                }
              ],
              "internalType": "struct Claims.SignedClaim",
              "name": "signedClaim",
              "type": "tuple"
            },
            {
              "internalType": "bool",
              "name": "isAppclipProof",
              "type": "bool"
            }
          ],
          "internalType": "struct IReclaimVerifier.ReclaimProof",
          "name": "proof",
          "type": "tuple"
        },
        {
          "internalType": "address[]",
          "name": "_witnesses",
          "type": "address[]"
        },
        {
          "internalType": "uint256",
          "name": "_requiredThreshold",
          "type": "uint256"
        }
      ],
      "name": "verifyProofSignatures",
      "outputs": [
        {
          "internalType": "bool",
          "name": "",
          "type": "bool"
        }
      ],
      "stateMutability": "pure",
      "type": "function"
    }
  ],
  "transactionHash": "0x3f6424b7056c519660274e05eda1802cfbd3f8853548bda773c5e49ad53fad48",
  "args": [
    "0x0Ed3c3DB9CF8458e5D9991712552539675D2C896",
    "0x5d96e0Bf0c080C5f42475d767248A7501D069883",
    [
      "0x611427d0224e99f0981060239894356dc4c3494f95eb9d139f9a402b130a9ad4",
      "0x3a3d23f3f3c5063af7fa0bd48aa98f4cd4658770aa5de971924fda7ef92ea743",
      "0x2a20d5d1fc3ccfa7f3053949fb067cb56447eb46cb415a10a496c36c5f9992d7",
      "0x1b2242ae270803ed3a0e3a71ea349013ec11a963283cd2b49225732155d9d669",
      "0x860f8b1feab450c110f88e8bf983a10ec470b3818f855635574871491d6de5fa",
      "0x0543afb5589ce0d9f4d0df461871820b3cc1f584d4e5e877dcc5a1fd8edbc900",
      "0x1898578b6c6320260bfa4f9717c2f529e53e74908405f32612d2c2612287cede",
      "0x532a1cde992553a1d73b6531b1ad8e163277486c831ebd1c9131ed2e20599f1e",
      "0xed23a57df2ed4a5d82d471ac4592380e0388bdc0a7a79b5844347cc4e1c6a134",
      "0x3ff906c52f9e9b446d294a35315953330b633dbba4b294ab222f060911e06e6c",
      "0x04cbc588ec74f2b8564fff743ff918fcb80e05d9081e6c6e2a5af8f21516885f",
      "0xf9bfbf3c277f0db3b59a1fc164e84fc096107cb3cf2d2717ff3a572644c17491",
      "0x8530dec46be3196b90044f8bb90ab69e7fdf9ccd6742eebd6c534dc9fa92953d",
      "0xc5a63db7cc0eaee9d3c2cc13caf4f16c878bc36e027b33c7e0731e71dbda73c1",
      "0x488098e92ae73d56b930f79217fa48877a8fd6b7d8ad337ea1f402f3d3ac1bcc",
      "0x39a45df78a1b4799a5a45c1a4ef1102d7873e6e160420719fdeec934372d4329",
      "0x716b3dae20b1b53804695d74be7e70f6d68f444ebcaae588c533f84e60fb3ec3",
      "0xba85f06a8d4fbbea51492788be36b7d06232fdccc866295c95f9dde18b09ec9f",
      "0x3c412cf774a4d18184e711fb33884c9929401433a00892afc97b1d94777ec7e3",
      "0x6296951a4ebed6beb817292c4c70ca7645abfd46efeb8f52a325ed0b37d21bf3"
    ],
    "86400"
  ],
  "numDeployments": 1,
  "solcInputHash": "d59f66711724e00f0afff90cce376ea1",
  "bytecode": "0x60a06040523480156200001157600080fd5b5060405162004cd938038062004cd98339810160408190526200003491620002ec565b81620000403362000214565b60005b8151811015620001e157600182828151811062000064576200006462000448565b60200260200101516040516200007b91906200045e565b9081526040519081900360200190205460ff1615620000e05760405162461bcd60e51b815260206004820152601b60248201527f50726f7669646572206861736820616c72656164792061646465640000000000604482015260640160405180910390fd5b600180838381518110620000f857620000f862000448565b60200260200101516040516200010f91906200045e565b908152602001604051809103902060006101000a81548160ff02191690831515021790555060028282815181106200014b576200014b62000448565b602090810291909101810151825460018101845560009384529190922001906200017690826200050b565b507fc9e1c78701d1853eeb1eb35ad3449e4b336281f672d5837243d21239dc6f4096828281518110620001ad57620001ad62000448565b6020026020010151604051620001c49190620005d7565b60405180910390a180620001d8816200060c565b91505062000043565b50506001600160a01b03938416608052600380546001600160a01b03191693909416929092179092556004555062000634565b600080546001600160a01b038381166001600160a01b0319831681178455604051919092169283917f8be0079c531659141344cd1fd0a4f28419497f9722a3daafe3b4186f6b6457e09190a35050565b6001600160a01b03811681146200027a57600080fd5b50565b634e487b7160e01b600052604160045260246000fd5b604051601f8201601f191681016001600160401b0381118282101715620002be57620002be6200027d565b604052919050565b60005b83811015620002e3578181015183820152602001620002c9565b50506000910152565b600080600080608085870312156200030357600080fd5b8451620003108162000264565b80945050602080860151620003258162000264565b60408701519094506001600160401b03808211156200034357600080fd5b818801915088601f8301126200035857600080fd5b8151818111156200036d576200036d6200027d565b8060051b6200037e85820162000293565b918252838101850191858101908c8411156200039957600080fd5b86860192505b838310156200043257825185811115620003b95760008081fd5b8601603f81018e13620003cc5760008081fd5b8781015186811115620003e357620003e36200027d565b620003f7601f8201601f19168a0162000293565b8181528f60408385010111156200040e5760008081fd5b62000420828b830160408601620002c6565b8452505091860191908601906200039f565b60609b909b0151999c989b505050505050505050565b634e487b7160e01b600052603260045260246000fd5b6000825162000472818460208701620002c6565b9190910192915050565b600181811c908216806200049157607f821691505b602082108103620004b257634e487b7160e01b600052602260045260246000fd5b50919050565b601f8211156200050657600081815260208120601f850160051c81016020861015620004e15750805b601f850160051c820191505b818110156200050257828155600101620004ed565b5050505b505050565b81516001600160401b038111156200052757620005276200027d565b6200053f816200053884546200047c565b84620004b8565b602080601f8311600181146200057757600084156200055e5750858301515b600019600386901b1c1916600185901b17855562000502565b600085815260208120601f198616915b82811015620005a85788860151825594840194600190910190840162000587565b5085821015620005c75787850151600019600388901b60f8161c191681555b5050505050600190811b01905550565b6020815260008251806020840152620005f8816040850160208701620002c6565b601f01601f19169190910160400192915050565b6000600182016200062d57634e487b7160e01b600052601160045260246000fd5b5060010190565b6080516146826200065760003960008181610233015261046501526146826000f3fe608060405234801561001057600080fd5b50600436106100f55760003560e01c8063b870676c11610097578063ea4a7bd711610066578063ea4a7bd71461022e578063f2fde38b14610255578063f78378f314610268578063fa93cd381461029c57600080fd5b8063b870676c146101dc578063bd6e7741146101ef578063c2107e7314610202578063dbac58211461021757600080fd5b8063715018a6116100d3578063715018a61461017257806384c7b4391461017a5780638da5cb5b146101a4578063b2a3fda4146101c957600080fd5b80631cba9bed146100fa5780632ca6927d1461010f57806357c6e12a14610152575b600080fd5b61010d610108366004613863565b6102af565b005b61013d61011d366004613863565b805160208183018101805160018252928201919093012091525460ff1681565b60405190151581526020015b60405180910390f35b610165610160366004613897565b610397565b6040516101499190613900565b61010d610443565b61018d610188366004613913565b610457565b604080519215158352602083019190915201610149565b6000546001600160a01b03165b6040516001600160a01b039091168152602001610149565b61010d6101d7366004613897565b61055e565b6003546101b1906001600160a01b031681565b61010d6101fd366004613863565b61059b565b61020a6106b0565b6040516101499190613955565b61022060045481565b604051908152602001610149565b6101b17f000000000000000000000000000000000000000000000000000000000000000081565b61010d6102633660046139ce565b610789565b6102206040516811115312559154915160ba1b60208201526029016040516020818303038152906040528051906020012081565b61013d6102aa366004613cdc565b610802565b6102b7610bc2565b6001816040516102c79190613d48565b9081526040519081900360200190205460ff1661032b5760405162461bcd60e51b815260206004820152601760248201527f50726f76696465722068617368206e6f7420666f756e6400000000000000000060448201526064015b60405180910390fd5b60018160405161033b9190613d48565b908152604051908190036020019020805460ff1916905561035d600282610c1c565b7f6f594b4b4f0580c66aabba75218163a99fa1fe330a171cc9e2bfd8e167db22f88160405161038c9190613900565b60405180910390a150565b600281815481106103a757600080fd5b9060005260206000200160009150905080546103c290613d64565b80601f01602080910402602001604051908101604052809291908181526020018280546103ee90613d64565b801561043b5780601f106104105761010080835404028352916020019161043b565b820191906000526020600020905b81548152906001019060200180831161041e57829003601f168201915b505050505081565b61044b610bc2565b6104556000610dd6565b565b600080336001600160a01b037f000000000000000000000000000000000000000000000000000000000000000016146104d25760405162461bcd60e51b815260206004820152601b60248201527f4f6e6c7920626173652076657269666965722063616e2063616c6c00000000006044820152606401610322565b6000806104f46104e28680613d9e565b6104ef60e0890189613d9e565b610e26565b9150915061050c828661050690613de4565b83610f00565b61053f82604001516040516020016105249190613d48565b6040516020818303038152906040528051906020012061119f565b60a08201516001906105529060006112ba565b90969095509350505050565b610566610bc2565b60048190556040518181527f11e8dda5412ecab251b7783921be2eb37fdf13b389fc7f671f2cee11a1dfefea9060200161038c565b6105a3610bc2565b6001816040516105b39190613d48565b9081526040519081900360200190205460ff16156106135760405162461bcd60e51b815260206004820152601b60248201527f50726f7669646572206861736820616c726561647920616464656400000000006044820152606401610322565b600180826040516106249190613d48565b908152604051908190036020019020805491151560ff19909216919091179055600280546001810182556000919091527f405787fa12a823e0f2b7631cc41b3ba8828b3321ca811111fa75cd3aa3bb5ace016106808282613efe565b507fc9e1c78701d1853eeb1eb35ad3449e4b336281f672d5837243d21239dc6f40968160405161038c9190613900565b60606002805480602002602001604051908101604052809291908181526020016000905b828210156107805783829060005260206000200180546106f390613d64565b80601f016020809104026020016040519081016040528092919081815260200182805461071f90613d64565b801561076c5780601f106107415761010080835404028352916020019161076c565b820191906000526020600020905b81548152906001019060200180831161074f57829003601f168201915b5050505050815260200190600101906106d4565b50505050905090565b610791610bc2565b6001600160a01b0381166107f65760405162461bcd60e51b815260206004820152602660248201527f4f776e61626c653a206e6577206f776e657220697320746865207a65726f206160448201526564647265737360d01b6064820152608401610322565b6107ff81610dd6565b50565b60008082116108655760405162461bcd60e51b815260206004820152602960248201527f5265717569726564207468726573686f6c64206d75737420626520677265617460448201526806572207468616e20360bc1b6064820152608401610322565b82518211156108ea5760405162461bcd60e51b8152602060048201526044602482018190527f5265717569726564207468726573686f6c64206d757374206265206c65737320908201527f7468616e206f7220657175616c20746f206e756d626572206f66207769746e656064820152637373657360e01b608482015260a401610322565b600084602001516020015151116109335760405162461bcd60e51b815260206004820152600d60248201526c4e6f207369676e61747572657360981b6044820152606401610322565b60408051808201909152602080860180515183525181015190820152845160009061095d906112d4565b6020870151515190915081146109b55760405162461bcd60e51b815260206004820152601c60248201527f436c61696d496e666f206861736820646f65736e2774206d61746368000000006044820152606401610322565b806109fb5760405162461bcd60e51b8152602060048201526016602482015275436c61696d496e666f2068617368206973207a65726f60501b6044820152606401610322565b6000610a0683611317565b90508481511015610a6a5760405162461bcd60e51b815260206004820152602860248201527f4665776572207369676e617475726573207468616e20726571756972656420746044820152671a1c995cda1bdb1960c21b6064820152608401610322565b600081516001600160401b03811115610a8557610a85613741565b604051908082528060200260200182016040528015610aae578160200160208202803683370190505b5090506000805b8351811015610b56576000848281518110610ad257610ad2613fbd565b60200260200101519050610aef81856113f090919063ffffffff16565b15610afa5750610b44565b610b048a826113f0565b15610b425780848481518110610b1c57610b1c613fbd565b6001600160a01b039092166020928302919091019091015282610b3e81613fe9565b9350505b505b80610b4e81613fe9565b915050610ab5565b5086811015610bb35760405162461bcd60e51b815260206004820152602360248201527f4e6f7420656e6f7567682076616c6964207769746e657373207369676e61747560448201526272657360e81b6064820152608401610322565b50600198975050505050505050565b6000546001600160a01b031633146104555760405162461bcd60e51b815260206004820181905260248201527f4f776e61626c653a2063616c6c6572206973206e6f7420746865206f776e65726044820152606401610322565b600080610cf984805480602002602001604051908101604052809291908181526020016000905b82821015610cef578382906000526020600020018054610c6290613d64565b80601f0160208091040260200160405190810160405280929190818152602001828054610c8e90613d64565b8015610cdb5780601f10610cb057610100808354040283529160200191610cdb565b820191906000526020600020905b815481529060010190602001808311610cbe57829003601f168201915b505050505081526020019060010190610c43565b5050505084611406565b9150915080610d415760405162461bcd60e51b815260206004820152601460248201527329ba3934b733903737ba1034b71030b93930bc9760611b6044820152606401610322565b8354600090610d5290600190614002565b9050808314610da157848181548110610d6d57610d6d613fbd565b90600052602060002001858481548110610d8957610d89613fbd565b906000526020600020019081610d9f9190614015565b505b84805480610db157610db16140e7565b600190038181906000526020600020016000610dcd91906136c7565b90555050505050565b600080546001600160a01b038381166001600160a01b0319831681178455604051919092169283917f8be0079c531659141344cd1fd0a4f28419497f9722a3daafe3b4186f6b6457e09190a35050565b610e666040518060e00160405280606081526020016060815260200160608152602001606081526020016060815260200160608152602001606081525090565b600080610e75868801886140fd565b90506000610e838686611477565b9050610e9182826001610802565b50610e9b82611485565b9350610eaa8460c001516115cf565b610eee5760405162461bcd60e51b815260206004820152601560248201527409cde40ecc2d8d2c840e0e4deecd2c8cae490c2e6d605b1b6044820152606401610322565b81604001519250505094509492505050565b6000670de0b6b3a76400008360c001518460400151610f1f9190614131565b610f29919061415e565b9050600083602001516001600160a01b031663313ce5676040518163ffffffff1660e01b8152600401602060405180830381865afa158015610f6f573d6000803e3d6000fd5b505050506040513d601f19601f82011682018060405250810190610f939190614172565b8551909150600090610fa89060ff84166112ba565b905082811015610ffa5760405162461bcd60e51b815260206004820152601860248201527f496e636f7272656374207061796d656e7420616d6f756e7400000000000000006044820152606401610322565b6080808601519087015161100d916115fa565b6110595760405162461bcd60e51b815260206004820152601b60248201527f496e636f7272656374207061796d656e7420726563697069656e7400000000006044820152606401610322565b60006110688760200151611653565b90506000600454611097836040516020016110839190614195565b604051602081830303815290604052611965565b6110a191906141c2565b905086606001518110156110f75760405162461bcd60e51b815260206004820152601b60248201527f496e636f7272656374207061796d656e742074696d657374616d7000000000006044820152606401610322565b6040516811115312559154915160ba1b602082015260290160405160208183030381529060405280519060200120886060015160405160200161113a9190613d48565b60405160208183030381529060405280519060200120146111955760405162461bcd60e51b815260206004820152601560248201527414185e5b595b9d081b9bdd0819195b1a5d995c9959605a1b6044820152606401610322565b5050505050505050565b60035460405163169394bb60e01b8152600481018390526001600160a01b039091169063169394bb90602401602060405180830381865afa1580156111e8573d6000803e3d6000fd5b505050506040513d601f19601f8201168201806040525081019061120c91906141d5565b156112595760405162461bcd60e51b815260206004820152601f60248201527f4e756c6c69666965722068617320616c7265616479206265656e2075736564006044820152606401610322565b600354604051632dea6f9960e11b8152600481018390526001600160a01b0390911690635bd4df3290602401600060405180830381600087803b15801561129f57600080fd5b505af11580156112b3573d6000803e3d6000fd5b5050505050565b60006112cb83601760f91b84611b8b565b90505b92915050565b6000808260000151836020015184604001516040516020016112f8939291906141f2565b60408051601f1981840301815291905280516020909101209392505050565b606060006113288360000151611d68565b905060008360200151516001600160401b0381111561134957611349613741565b604051908082528060200260200182016040528015611372578160200160208202803683370190505b50905060005b8460200151518110156113e8576113ac838660200151838151811061139f5761139f613fbd565b6020026020010151611df4565b8282815181106113be576113be613fbd565b6001600160a01b0390921660209283029190910190910152806113e081613fe9565b915050611378565b509392505050565b6000806113fd8484611e3d565b95945050505050565b81516000908190815b8181101561146457848051906020012086828151811061143157611431613fbd565b60200260200101518051906020012003611452579250600191506114709050565b8061145c81613fe9565b91505061140f565b50600019600092509250505b9250929050565b60606112cb8284018461424d565b6114c56040518060e00160405280606081526020016060815260200160608152602001606081526020016060815260200160608152602001606081525090565b60006114dc83600001516040015160086001611e9f565b90506040518060e00160405280826002815181106114fc576114fc613fbd565b602002602001015181526020018260068151811061151c5761151c613fbd565b602002602001015181526020018260048151811061153c5761153c613fbd565b602002602001015181526020018260058151811061155c5761155c613fbd565b602002602001015181526020018260038151811061157c5761157c613fbd565b602002602001015181526020018260018151811061159c5761159c613fbd565b60200260200101518152602001826007815181106115bc576115bc613fbd565b6020026020010151815250915050919050565b60006001826040516115e19190613d48565b9081526040519081900360200190205460ff1692915050565b60008160405160200161160d9190613d48565b60405160208183030381529060405280519060200120836040516020016116349190613d48565b6040516020818303038152906040528051906020012014905092915050565b80516060908290600a1461169f5760405162461bcd60e51b8152602060048201526013602482015272125b9d985b1a590819185d1948199bdc9b585d606a1b6044820152606401610322565b60408051600a808252818301909252600091602082018180368337019050509050816006815181106116d3576116d3613fbd565b602001015160f81c60f81b816000815181106116f1576116f1613fbd565b60200101906001600160f81b031916908160001a9053508160078151811061171b5761171b613fbd565b602001015160f81c60f81b8160018151811061173957611739613fbd565b60200101906001600160f81b031916908160001a9053508160088151811061176357611763613fbd565b602001015160f81c60f81b8160028151811061178157611781613fbd565b60200101906001600160f81b031916908160001a905350816009815181106117ab576117ab613fbd565b602001015160f81c60f81b816003815181106117c9576117c9613fbd565b60200101906001600160f81b031916908160001a905350602d60f81b816004815181106117f8576117f8613fbd565b60200101906001600160f81b031916908160001a9053508160008151811061182257611822613fbd565b602001015160f81c60f81b8160058151811061184057611840613fbd565b60200101906001600160f81b031916908160001a9053508160018151811061186a5761186a613fbd565b602001015160f81c60f81b8160068151811061188857611888613fbd565b60200101906001600160f81b031916908160001a905350602d60f81b816007815181106118b7576118b7613fbd565b60200101906001600160f81b031916908160001a905350816003815181106118e1576118e1613fbd565b602001015160f81c60f81b816008815181106118ff576118ff613fbd565b60200101906001600160f81b031916908160001a9053508160048151811061192957611929613fbd565b602001015160f81c60f81b8160098151811061194757611947613fbd565b60200101906001600160f81b031916908160001a9053509392505050565b600061196f613701565b82516000908190815b81811015611abc5786818151811061199257611992613fbd565b6020910101516001600160f81b031916602d60f81b14806119d757508681815181106119c0576119c0613fbd565b6020910101516001600160f81b031916601d60f91b145b80611a0657508681815181106119ef576119ef613fbd565b6020910101516001600160f81b031916601560fa1b145b80611a355750868181518110611a1e57611a1e613fbd565b6020910101516001600160f81b031916600160fd1b145b15611a7757611a45878483612d70565b858560068110611a5757611a57613fbd565b6020020152611a678160016141c2565b925083611a7381613fe9565b9450505b868181518110611a8957611a89613fbd565b01602001516001600160f81b031916601760f91b03611aaa57809150611abc565b80611ab481613fe9565b915050611978565b50611ac8868383612d70565b848460068110611ada57611ada613fbd565b602002015260058314611b255760405162461bcd60e51b8152602060048201526013602482015272496e76616c6964206461746520737472696e6760681b6044820152606401610322565b611b81611b3b600086815b6020020151906112ba565b611b486000876001611b30565b611b556000886002611b30565b611b626000896003611b30565b611b6f60008a6004611b30565b611b7c60008b6005611b30565b612e3c565b9695505050505050565b600083818080805b8451811015611ce157603060f81b858281518110611bb357611bb3613fbd565b01602001516001600160f81b03191610801590611bf45750603960f81b858281518110611be257611be2613fbd565b01602001516001600160f81b03191611155b15611c37576030858281518110611c0d57611c0d613fbd565b0160200151611c1f919060f81c614002565b611c2a85600a614131565b611c3491906141c2565b93505b8115611c4b5782611c4781613fe9565b9350505b876001600160f81b031916858281518110611c6857611c68613fbd565b01602001516001600160f81b03191603611ccf578115611cca5760405162461bcd60e51b815260206004820152601c60248201527f537472696e6720686173206d756c7469706c6520646563696d616c73000000006044820152606401610322565b600191505b80611cd981613fe9565b915050611b93565b5085821115611d3d5760405162461bcd60e51b815260206004820152602260248201527f537472696e672068617320746f6f206d616e7920646563696d616c20706c6163604482015261657360f01b6064820152608401610322565b611d478287614002565b611d5290600a614365565b611d5c9084614131565b98975050505050505050565b6060611d988260000151604051602001611d8491815260200190565b604051602081830303815290604052612e98565b611da5836020015161305b565b611db8846040015163ffffffff166131c4565b611dcb856060015163ffffffff166131c4565b604051602001611dde9493929190614371565b6040516020818303038152906040529050919050565b600080611e0184516131c4565b84604051602001611e139291906143ea565b604051602081830303815290604052805190602001209050611e3581846132ef565b949350505050565b81516000908190815b8181101561146457846001600160a01b0316868281518110611e6a57611e6a613fbd565b60200260200101516001600160a01b031603611e8d579250600191506114709050565b80611e9781613fe9565b915050611e46565b606060008360ff1611611efe5760405162461bcd60e51b815260206004820152602160248201527f4d61782076616c756573206d7573742062652067726561746572207468616e206044820152600360fc1b6064820152608401610322565b8360008080808080611f118a6002614445565b60ff166001600160401b03811115611f2b57611f2b613741565b604051908082528060200260200182016040528015611f54578160200160208202803683370190505b50905060005b604051806040016040528060138152602001723d9131b7b73a32bc3a20b2323932b9b9911d1160691b8152505181101561203357604051806040016040528060138152602001723d9131b7b73a32bc3a20b2323932b9b9911d1160691b8152508181518110611fcb57611fcb613fbd565b01602001516001600160f81b03191688611fe5838a6141c2565b81518110611ff557611ff5613fbd565b01602001516001600160f81b031916146120215760405162461bcd60e51b815260040161032290614468565b8061202b81613fe9565b915050611f5a565b50604051806040016040528060138152602001723d9131b7b73a32bc3a20b2323932b9b9911d1160691b815250518661206c91906141c2565b95508593505b8651861080156120e2575086868151811061208f5761208f613fbd565b6020910101516001600160f81b031916601160f91b1480156120e05750866120b8600188614002565b815181106120c8576120c8613fbd565b6020910101516001600160f81b031916601760fa1b14155b155b156120f957856120f181613fe9565b965050612072565b865186106121195760405162461bcd60e51b815260040161032290614468565b8592508383036121815760405162461bcd60e51b815260206004820152602d60248201527f45787472616374696f6e206661696c65642e20456d70747920636f6e7465787460448201526c416464726573732076616c756560981b6064820152608401610322565b838161218e876002614131565b8151811061219e5761219e613fbd565b602090810291909101015282816121b6876002614131565b6121c19060016141c2565b815181106121d1576121d1613fbd565b6020908102919091010152846121e681613fe9565b95506121f590506002876141c2565b955060005b604051806040016040528060128152602001711131b7b73a32bc3a26b2b9b9b0b3b2911d1160711b815250518110156122d157604051806040016040528060128152602001711131b7b73a32bc3a26b2b9b9b0b3b2911d1160711b815250818151811061226957612269613fbd565b01602001516001600160f81b03191688612283838a6141c2565b8151811061229357612293613fbd565b01602001516001600160f81b031916146122bf5760405162461bcd60e51b8152600401610322906144b3565b806122c981613fe9565b9150506121fa565b50604051806040016040528060128152602001711131b7b73a32bc3a26b2b9b9b0b3b2911d1160711b815250518661230991906141c2565b95508593505b86518610801561237f575086868151811061232c5761232c613fbd565b6020910101516001600160f81b031916601160f91b14801561237d575086612355600188614002565b8151811061236557612365613fbd565b6020910101516001600160f81b031916601760fa1b14155b155b15612396578561238e81613fe9565b96505061230f565b865186106123b65760405162461bcd60e51b8152600401610322906144b3565b85925083830361241e5760405162461bcd60e51b815260206004820152602d60248201527f45787472616374696f6e206661696c65642e20456d70747920636f6e7465787460448201526c4d6573736167652076616c756560981b6064820152608401610322565b838161242b876002614131565b8151811061243b5761243b613fbd565b60209081029190910101528281612453876002614131565b61245e9060016141c2565b8151811061246e5761246e613fbd565b60209081029190910101528461248381613fe9565b955061249290506002876141c2565b955060005b604051806040016040528060188152602001771132bc3a3930b1ba32b22830b930b6b2ba32b939911d3d9160411b815250518110156125c357604051806040016040528060188152602001771132bc3a3930b1ba32b22830b930b6b2ba32b939911d3d9160411b815250818151811061251257612512613fbd565b01602001516001600160f81b0319168861252c838a6141c2565b8151811061253c5761253c613fbd565b01602001516001600160f81b031916146125b15760405162461bcd60e51b815260206004820152603060248201527f45787472616374696f6e206661696c65642e204d616c666f726d65642065787460448201526f726163746564506172616d657465727360801b6064820152608401610322565b806125bb81613fe9565b915050612497565b50604051806040016040528060188152602001771132bc3a3930b1ba32b22830b930b6b2ba32b939911d3d9160411b815250518661260191906141c2565b9550600091505b86518610156129ab5786868151811061262357612623613fbd565b6020910101516001600160f81b031916601160f91b14801561267457508661264c600188614002565b8151811061265c5761265c613fbd565b6020910101516001600160f81b031916601760fa1b14155b61268a578561268281613fe9565b965050612608565b81612792578661269b8760016141c2565b815181106126ab576126ab613fbd565b6020910101516001600160f81b031916601d60f91b1480156126fb5750866126d48760026141c2565b815181106126e4576126e4613fbd565b6020910101516001600160f81b031916601160f91b145b6127535760405162461bcd60e51b815260206004820152602360248201527f45787472616374696f6e206661696c65642e204d616c666f726d65642064617460448201526261203160e81b6064820152608401610322565b61275e6003876141c2565b9550600191508581612771876002614131565b8151811061278157612781613fbd565b602002602001018181525050612608565b6000876127a08860016141c2565b815181106127b0576127b0613fbd565b6020910101516001600160f81b031916600b60fa1b1480156128005750876127d98860026141c2565b815181106127e9576127e9613fbd565b6020910101516001600160f81b031916601160f91b145b90506000886128108960016141c2565b8151811061282057612820613fbd565b6020910101516001600160f81b031916607d60f81b1480156128705750886128498960026141c2565b8151811061285957612859613fbd565b6020910101516001600160f81b031916600b60fa1b145b9050818061287b5750805b6128d35760405162461bcd60e51b815260206004820152602360248201527f45787472616374696f6e206661696c65642e204d616c666f726d65642064617460448201526230901960e91b6064820152608401610322565b87836128e0896002614131565b6128eb9060016141c2565b815181106128fb576128fb613fbd565b60209081029190910101528661291081613fe9565b9750508115612990578b60ff16870361297a5760405162461bcd60e51b815260206004820152602660248201527f45787472616374696f6e206661696c65642e204578636565646564206d61782060448201526576616c75657360d01b6064820152608401610322565b6129856003896141c2565b9750600093506129a4565b61299b6003896141c2565b975050506129ab565b5050612608565b8815612bb85760005b6040518060400160405280601081526020016f11383937bb34b232b92430b9b4111d1160811b81525051811015612ac9576040518060400160405280601081526020016f11383937bb34b232b92430b9b4111d1160811b8152508181518110612a1f57612a1f613fbd565b01602001516001600160f81b03191688612a39838a6141c2565b81518110612a4957612a49613fbd565b01602001516001600160f81b03191614612ab75760405162461bcd60e51b815260206004820152602960248201527f45787472616374696f6e206661696c65642e204d616c666f726d65642070726f6044820152680ecd2c8cae490c2e6d60bb1b6064820152608401610322565b80612ac181613fe9565b9150506129b4565b506040518060400160405280601081526020016f11383937bb34b232b92430b9b4111d1160811b8152505186612aff91906141c2565b95508581612b0e876002614131565b81518110612b1e57612b1e613fbd565b6020026020010181815250505b865186108015612b605750868681518110612b4857612b48613fbd565b6020910101516001600160f81b031916601160f91b14155b15612b775785612b6f81613fe9565b965050612b2b565b8581612b84876002614131565b612b8f9060016141c2565b81518110612b9f57612b9f613fbd565b602090810291909101015284612bb481613fe9565b9550505b6000856001600160401b03811115612bd257612bd2613741565b604051908082528060200260200182016040528015612c0557816020015b6060815260200190600190039081612bf05790505b50905060005b86811015612d605782612c1f826002614131565b81518110612c2f57612c2f613fbd565b6020026020010151955082816002612c479190614131565b612c529060016141c2565b81518110612c6257612c62613fbd565b6020026020010151945060008686612c7a9190614002565b6001600160401b03811115612c9157612c91613741565b6040519080825280601f01601f191660200182016040528015612cbb576020820181803683370190505b509050865b86811015612d2d578a8181518110612cda57612cda613fbd565b01602001516001600160f81b03191682612cf48a84614002565b81518110612d0457612d04613fbd565b60200101906001600160f81b031916908160001a90535080612d2581613fe9565b915050612cc0565b5080838381518110612d4157612d41613fbd565b6020026020010181905250508080612d5890613fe9565b915050612c0b565b509b9a5050505050505050505050565b6060836000612d7f8585614002565b6001600160401b03811115612d9657612d96613741565b6040519080825280601f01601f191660200182016040528015612dc0576020820181803683370190505b509050845b84811015612e3257828181518110612ddf57612ddf613fbd565b01602001516001600160f81b03191682612df98884614002565b81518110612e0957612e09613fbd565b60200101906001600160f81b031916908160001a90535080612e2a81613fe9565b915050612dc5565b5095945050505050565b600081612e4a603c85614131565b612e56610e1087614131565b62015180612e658b8b8b61330b565b612e6f9190614131565b612e7991906141c2565b612e8391906141c2565b612e8d91906141c2565b979650505050505050565b6060600082516002612eaa9190614131565b6001600160401b03811115612ec157612ec1613741565b6040519080825280601f01601f191660200182016040528015612eeb576020820181803683370190505b5060408051808201909152601081526f181899199a1a9b1b9c1cb0b131b232b360811b602082015290915060005b845181101561303157818251868381518110612f3757612f37613fbd565b0160200151612f49919060f81c61415e565b81518110612f5957612f59613fbd565b01602001516001600160f81b03191683612f74836002614131565b81518110612f8457612f84613fbd565b60200101906001600160f81b031916908160001a905350818251868381518110612fb057612fb0613fbd565b0160200151612fc2919060f81c6144fe565b81518110612fd257612fd2613fbd565b01602001516001600160f81b03191683612fed836002614131565b612ff89060016141c2565b8151811061300857613008613fbd565b60200101906001600160f81b031916908160001a9053508061302981613fe9565b915050612f19565b50816040516020016130439190614512565b60405160208183030381529060405292505050919050565b60408051602880825260608281019093526000919060208201818036833701905050905060005b601481101561319b576000613098826013614002565b6130a3906008614131565b6130ae906002614365565b6130c1906001600160a01b03871661415e565b60f81b9050600060108260f81c6130d8919061453c565b60f81b905060008160f81c60106130ef9190614445565b8360f81c6130fd919061455e565b60f81b905061310b8261343c565b85613117866002614131565b8151811061312757613127613fbd565b60200101906001600160f81b031916908160001a9053506131478161343c565b85613153866002614131565b61315e9060016141c2565b8151811061316e5761316e613fbd565b60200101906001600160f81b031916908160001a905350505050808061319390613fe9565b915050613082565b50806040516020016131ad9190614512565b604051602081830303815290604052915050919050565b6060816000036131eb5750506040805180820190915260018152600360fc1b602082015290565b8160005b811561321557806131ff81613fe9565b915061320e9050600a8361415e565b91506131ef565b6000816001600160401b0381111561322f5761322f613741565b6040519080825280601f01601f191660200182016040528015613259576020820181803683370190505b509050815b85156132e65761326f600182614002565b9050600061327e600a8861415e565b61328990600a614131565b6132939088614002565b61329e906030614577565b905060008160f81b9050808484815181106132bb576132bb613fbd565b60200101906001600160f81b031916908160001a9053506132dd600a8961415e565b9750505061325e565b50949350505050565b60008060006132fe8585613477565b915091506113e8816134b9565b60006107b284101561331c57600080fd5b838383600062253d8c60046064600c613336600e88614590565b61334091906145b0565b61334c886113246145de565b61335691906145de565b61336091906145b0565b61336b906003614606565b61337591906145b0565b600c80613383600e88614590565b61338d91906145b0565b61339890600c614606565b6133a3600288614590565b6133ad9190614590565b6133b99061016f614606565b6133c391906145b0565b6004600c6133d2600e89614590565b6133dc91906145b0565b6133e8896112c06145de565b6133f291906145de565b6133fe906105b5614606565b61340891906145b0565b613414617d4b87614590565b61341e91906145de565b61342891906145de565b6134329190614590565b611d5c9190614590565b6000600a60f883901c10156134635761345a60f883901c6030614577565b60f81b92915050565b61345a60f883901c6057614577565b919050565b60008082516041036134ad5760208301516040840151606085015160001a6134a187828585613603565b94509450505050611470565b50600090506002611470565b60008160048111156134cd576134cd614636565b036134d55750565b60018160048111156134e9576134e9614636565b036135365760405162461bcd60e51b815260206004820152601860248201527f45434453413a20696e76616c6964207369676e617475726500000000000000006044820152606401610322565b600281600481111561354a5761354a614636565b036135975760405162461bcd60e51b815260206004820152601f60248201527f45434453413a20696e76616c6964207369676e6174757265206c656e677468006044820152606401610322565b60038160048111156135ab576135ab614636565b036107ff5760405162461bcd60e51b815260206004820152602260248201527f45434453413a20696e76616c6964207369676e6174757265202773272076616c604482015261756560f01b6064820152608401610322565b6000807f7fffffffffffffffffffffffffffffff5d576e7357a4501ddfe92f46681b20a083111561363a57506000905060036136be565b6040805160008082526020820180845289905260ff881692820192909252606081018690526080810185905260019060a0016020604051602081039080840390855afa15801561368e573d6000803e3d6000fd5b5050604051601f1901519150506001600160a01b0381166136b7576000600192509250506136be565b9150600090505b94509492505050565b5080546136d390613d64565b6000825580601f106136e3575050565b601f0160209004906000526020600020908101906107ff9190613728565b6040518060c001604052806006905b60608152602001906001900390816137105790505090565b5b8082111561373d5760008155600101613729565b5090565b634e487b7160e01b600052604160045260246000fd5b604051608081016001600160401b038111828210171561377957613779613741565b60405290565b604051606081016001600160401b038111828210171561377957613779613741565b60405161010081016001600160401b038111828210171561377957613779613741565b604051601f8201601f191681016001600160401b03811182821017156137ec576137ec613741565b604052919050565b600082601f83011261380557600080fd5b81356001600160401b0381111561381e5761381e613741565b613831601f8201601f19166020016137c4565b81815284602083860101111561384657600080fd5b816020850160208301376000918101602001919091529392505050565b60006020828403121561387557600080fd5b81356001600160401b0381111561388b57600080fd5b611e35848285016137f4565b6000602082840312156138a957600080fd5b5035919050565b60005b838110156138cb5781810151838201526020016138b3565b50506000910152565b600081518084526138ec8160208601602086016138b0565b601f01601f19169290920160200192915050565b6020815260006112cb60208301846138d4565b60006020828403121561392557600080fd5b81356001600160401b0381111561393b57600080fd5b8201610100818503121561394e57600080fd5b9392505050565b6000602080830181845280855180835260408601915060408160051b870101925083870160005b828110156139aa57603f198886030184526139988583516138d4565b9450928501929085019060010161397c565b5092979650505050505050565b80356001600160a01b038116811461347257600080fd5b6000602082840312156139e057600080fd5b6112cb826139b7565b803563ffffffff8116811461347257600080fd5b60006001600160401b03821115613a1657613a16613741565b5060051b60200190565b600082601f830112613a3157600080fd5b81356020613a46613a41836139fd565b6137c4565b82815260059290921b84018101918181019086841115613a6557600080fd5b8286015b84811015613aa45780356001600160401b03811115613a885760008081fd5b613a968986838b01016137f4565b845250918301918301613a69565b509695505050505050565b600081830360a0811215613ac257600080fd5b604051604081016001600160401b038282108183111715613ae557613ae5613741565b816040528294506080841215613afa57600080fd5b613b02613757565b935085358452613b14602087016139b7565b6020850152613b25604087016139e9565b6040850152613b36606087016139e9565b606085015292825260808501359280841115613b5157600080fd5b5050613b5f85838601613a20565b6020820152505092915050565b80151581146107ff57600080fd5b803561347281613b6c565b600060608284031215613b9757600080fd5b613b9f61377f565b905081356001600160401b0380821115613bb857600080fd5b9083019060608286031215613bcc57600080fd5b613bd461377f565b823582811115613be357600080fd5b613bef878286016137f4565b825250602083013582811115613c0457600080fd5b613c10878286016137f4565b602083015250604083013582811115613c2857600080fd5b613c34878286016137f4565b60408301525083526020840135915080821115613c5057600080fd5b50613c5d84828501613aaf565b602083015250613c6f60408301613b7a565b604082015292915050565b600082601f830112613c8b57600080fd5b81356020613c9b613a41836139fd565b82815260059290921b84018101918181019086841115613cba57600080fd5b8286015b84811015613aa457613ccf816139b7565b8352918301918301613cbe565b600080600060608486031215613cf157600080fd5b83356001600160401b0380821115613d0857600080fd5b613d1487838801613b85565b94506020860135915080821115613d2a57600080fd5b50613d3786828701613c7a565b925050604084013590509250925092565b60008251613d5a8184602087016138b0565b9190910192915050565b600181811c90821680613d7857607f821691505b602082108103613d9857634e487b7160e01b600052602260045260246000fd5b50919050565b6000808335601e19843603018112613db557600080fd5b8301803591506001600160401b03821115613dcf57600080fd5b60200191503681900382131561147057600080fd5b60006101008236031215613df757600080fd5b613dff6137a1565b82356001600160401b0380821115613e1657600080fd5b613e22368387016137f4565b8352613e30602086016139b7565b602084015260408501356040840152606085013560608401526080850135915080821115613e5d57600080fd5b613e69368387016137f4565b608084015260a085013560a084015260c085013560c084015260e0850135915080821115613e9657600080fd5b50613ea3368286016137f4565b60e08301525092915050565b601f821115613ef957600081815260208120601f850160051c81016020861015613ed65750805b601f850160051c820191505b81811015613ef557828155600101613ee2565b5050505b505050565b81516001600160401b03811115613f1757613f17613741565b613f2b81613f258454613d64565b84613eaf565b602080601f831160018114613f605760008415613f485750858301515b600019600386901b1c1916600185901b178555613ef5565b600085815260208120601f198616915b82811015613f8f57888601518255948401946001909101908401613f70565b5085821015613fad5787850151600019600388901b60f8161c191681555b5050505050600190811b01905550565b634e487b7160e01b600052603260045260246000fd5b634e487b7160e01b600052601160045260246000fd5b600060018201613ffb57613ffb613fd3565b5060010190565b818103818111156112ce576112ce613fd3565b818103614020575050565b61402a8254613d64565b6001600160401b0381111561404157614041613741565b61404f81613f258454613d64565b6000601f821160018114614083576000831561406b5750848201545b600019600385901b1c1916600184901b1784556112b3565b600085815260209020601f19841690600086815260209020845b838110156140bd578286015482556001958601959091019060200161409d565b5085831015613fad5793015460001960f8600387901b161c19169092555050600190811b01905550565b634e487b7160e01b600052603160045260246000fd5b60006020828403121561410f57600080fd5b81356001600160401b0381111561412557600080fd5b611e3584828501613b85565b80820281158282048414176112ce576112ce613fd3565b634e487b7160e01b600052601260045260246000fd5b60008261416d5761416d614148565b500490565b60006020828403121561418457600080fd5b815160ff8116811461394e57600080fd5b600082516141a78184602087016138b0565b685432333a35393a353960b81b920191825250600901919050565b808201808211156112ce576112ce613fd3565b6000602082840312156141e757600080fd5b815161394e81613b6c565b600084516142048184602089016138b0565b600560f91b9083018181528551909190614225816001850160208a016138b0565b600192019182015283516142408160028401602088016138b0565b0160020195945050505050565b60006020828403121561425f57600080fd5b81356001600160401b0381111561427557600080fd5b611e3584828501613c7a565b600181815b808511156142bc5781600019048211156142a2576142a2613fd3565b808516156142af57918102915b93841c9390800290614286565b509250929050565b6000826142d3575060016112ce565b816142e0575060006112ce565b81600181146142f657600281146143005761431c565b60019150506112ce565b60ff84111561431157614311613fd3565b50506001821b6112ce565b5060208310610133831016604e8410600b841016171561433f575081810a6112ce565b6143498383614281565b806000190482111561435d5761435d613fd3565b029392505050565b60006112cb83836142c4565b60008551614383818460208a016138b0565b600560f91b90830181815286519091906143a4816001850160208b016138b0565b6001920191820181905285516143c1816002850160208a016138b0565b600292019182015283516143dc8160038401602088016138b0565b016003019695505050505050565b7f19457468657265756d205369676e6564204d6573736167653a0a00000000000081526000835161442281601a8501602088016138b0565b83519083019061443981601a8401602088016138b0565b01601a01949350505050565b60ff818116838216029081169081811461446157614461613fd3565b5092915050565b6020808252602b908201527f45787472616374696f6e206661696c65642e204d616c666f726d656420636f6e60408201526a746578744164647265737360a81b606082015260800190565b6020808252602b908201527f45787472616374696f6e206661696c65642e204d616c666f726d656420636f6e60408201526a746578744d65737361676560a81b606082015260800190565b60008261450d5761450d614148565b500690565b61060f60f31b81526000825161452f8160028501602087016138b0565b9190910160020192915050565b600060ff83168061454f5761454f614148565b8060ff84160491505092915050565b60ff82811682821603908111156112ce576112ce613fd3565b60ff81811683821601908111156112ce576112ce613fd3565b818103600083128015838313168383128216171561446157614461613fd3565b6000826145bf576145bf614148565b600160ff1b8214600019841416156145d9576145d9613fd3565b500590565b80820182811260008312801582168215821617156145fe576145fe613fd3565b505092915050565b80820260008212600160ff1b8414161561462257614622613fd3565b81810583148215176112ce576112ce613fd3565b634e487b7160e01b600052602160045260246000fdfea2646970667358221220cc27a2cae16ef1720c3371eb68b4a5c81dd73e9d9fcb8886d441ff1c9edb98ac64736f6c63430008120033",
  "devdoc": {
    "kind": "dev",
    "methods": {
      "addProviderHash(string)": {
        "params": {
          "_newProviderHash": "New provider hash to be added"
        }
      },
      "owner()": {
        "details": "Returns the address of the current owner."
      },
      "removeProviderHash(string)": {
        "params": {
          "_removeProviderHash": "Provider hash to be removed"
        }
      },
      "renounceOwnership()": {
        "details": "Leaves the contract without owner. It will not be possible to call `onlyOwner` functions. Can only be called by the current owner. NOTE: Renouncing ownership will leave the contract without an owner, thereby disabling any functionality that is only available to the owner."
      },
      "setTimestampBuffer(uint256)": {
        "params": {
          "_timestampBuffer": "The timestamp buffer for payments"
        }
      },
      "transferOwnership(address)": {
        "details": "Transfers ownership of the contract to a new account (`newOwner`). Can only be called by the current owner."
      },
      "verifyPayment((bytes,address,uint256,uint256,string,bytes32,uint256,bytes))": {
        "params": {
          "_verifyPaymentData": "Payment proof and intent details required for verification"
        }
      },
      "verifyProofSignatures(((string,string,string),((bytes32,address,uint32,uint32),bytes[]),bool),address[],uint256)": {
        "params": {
          "_requiredThreshold": "Minimum number of signatures required from accepted witnesses",
          "_witnesses": "List of accepted witnesses",
          "proof": "Proof to be verified"
        }
      }
    },
    "version": 1
  },
  "userdoc": {
    "kind": "user",
    "methods": {
      "addProviderHash(string)": {
        "notice": "ONLY OWNER: Add provider hash string. Provider hash must not have been previously added."
      },
      "removeProviderHash(string)": {
        "notice": "ONLY OWNER: Remove provider hash string. Provider hash must have been previously added."
      },
      "setTimestampBuffer(uint256)": {
        "notice": "OWNER ONLY: Sets the timestamp buffer for payments. This is the amount of time in seconds that the timestamp can be off by and still be considered valid. Necessary to build in flexibility  with L2 timestamps."
      },
      "verifyPayment((bytes,address,uint256,uint256,string,bytes32,uint256,bytes))": {
        "notice": "ONLY RAMP: Verifies a reclaim proof of an offchain Citi Zelle payment. Ensures the right _intentAmount * _conversionRate USD was paid to _partyToken after _intentTimestamp + timestampBuffer on Citi Zelle. Note: For Citi Zelle fiat currency is always USD. For other verifiers which support multiple currencies, _fiatCurrency needs to be checked against the fiat currency in the proof."
      },
      "verifyProofSignatures(((string,string,string),((bytes32,address,uint32,uint32),bytes[]),bool),address[],uint256)": {
        "notice": "Verify proof generated by witnesses. Claim is constructed by hashing claimInfo (provider, context, parameters) to get the identifier. And then signing on (identifier, owner, timestamp, epoch) to get claim signature.  This function verifies a claim by performing the following checks on the claim - Calculates the hash of the claimInfo and checks if it matches the identifier in the claim - Checks if the signatures are valid and from the witnesses This function reverts if - No signatures are found on the proof - ClaimInfo hash does not match the identifier in the claim - Signatures are invalid (not from the witnesses)  DEV NOTE: This function does NOT validate that the claim provider hash is valid. That is the  responsibility of the caller. Ensure witnesses are unique otherwise the threshold can be met  with duplicate witnesses.  Parts of the code are adapted from: https://basescan.org/address/0x7281630e4346dd4c0b7ae3b4689c1d0102741410#code    "
      }
    },
    "version": 1
  },
  "storageLayout": {
    "storage": [
      {
        "astId": 7,
        "contract": "contracts/verifiers/ZelleVerifiers/ZelleCitiReclaimVerifier.sol:ZelleCitiReclaimVerifier",
        "label": "_owner",
        "offset": 0,
        "slot": "0",
        "type": "t_address"
      },
      {
        "astId": 9373,
        "contract": "contracts/verifiers/ZelleVerifiers/ZelleCitiReclaimVerifier.sol:ZelleCitiReclaimVerifier",
        "label": "isProviderHash",
        "offset": 0,
        "slot": "1",
        "type": "t_mapping(t_string_memory_ptr,t_bool)"
      },
      {
        "astId": 9376,
        "contract": "contracts/verifiers/ZelleVerifiers/ZelleCitiReclaimVerifier.sol:ZelleCitiReclaimVerifier",
        "label": "providerHashes",
        "offset": 0,
        "slot": "2",
        "type": "t_array(t_string_storage)dyn_storage"
      },
      {
        "astId": 13079,
        "contract": "contracts/verifiers/ZelleVerifiers/ZelleCitiReclaimVerifier.sol:ZelleCitiReclaimVerifier",
        "label": "nullifierRegistry",
        "offset": 0,
        "slot": "3",
        "type": "t_contract(INullifierRegistry)13808"
      },
      {
        "astId": 13081,
        "contract": "contracts/verifiers/ZelleVerifiers/ZelleCitiReclaimVerifier.sol:ZelleCitiReclaimVerifier",
        "label": "timestampBuffer",
        "offset": 0,
        "slot": "4",
        "type": "t_uint256"
      }
    ],
    "types": {
      "t_address": {
        "encoding": "inplace",
        "label": "address",
        "numberOfBytes": "20"
      },
      "t_array(t_string_storage)dyn_storage": {
        "base": "t_string_storage",
        "encoding": "dynamic_array",
        "label": "string[]",
        "numberOfBytes": "32"
      },
      "t_bool": {
        "encoding": "inplace",
        "label": "bool",
        "numberOfBytes": "1"
      },
      "t_contract(INullifierRegistry)13808": {
        "encoding": "inplace",
        "label": "contract INullifierRegistry",
        "numberOfBytes": "20"
      },
      "t_mapping(t_string_memory_ptr,t_bool)": {
        "encoding": "mapping",
        "key": "t_string_memory_ptr",
        "label": "mapping(string => bool)",
        "numberOfBytes": "32",
        "value": "t_bool"
      },
      "t_string_memory_ptr": {
        "encoding": "bytes",
        "label": "string",
        "numberOfBytes": "32"
      },
      "t_string_storage": {
        "encoding": "bytes",
        "label": "string",
        "numberOfBytes": "32"
      },
      "t_uint256": {
        "encoding": "inplace",
        "label": "uint256",
        "numberOfBytes": "32"
      }
    }
  }
}