{
  "address": "0xB12602334a84F4e1c67795d187051924aC88dEcc",
  "abi": [
    {
      "inputs": [
        {
          "internalType": "address",
          "name": "_baseVerifier",
          "type": "address"
        },
        {
          "internalType": "contract INullifierRegistry",
          "name": "_nullifierRegistry",
          "type": "address"
        },
        {
          "internalType": "string[]",
          "name": "_providerHashes",
          "type": "string[]"
        },
        {
          "internalType": "uint256",
          "name": "_timestampBuffer",
          "type": "uint256"
        }
      ],
      "stateMutability": "nonpayable",
      "type": "constructor"
    },
    {
      "anonymous": false,
      "inputs": [
        {
          "indexed": true,
          "internalType": "address",
          "name": "previousOwner",
          "type": "address"
        },
        {
          "indexed": true,
          "internalType": "address",
          "name": "newOwner",
          "type": "address"
        }
      ],
      "name": "OwnershipTransferred",
      "type": "event"
    },
    {
      "anonymous": false,
      "inputs": [
        {
          "indexed": false,
          "internalType": "string",
          "name": "providerHash",
          "type": "string"
        }
      ],
      "name": "ProviderHashAdded",
      "type": "event"
    },
    {
      "anonymous": false,
      "inputs": [
        {
          "indexed": false,
          "internalType": "string",
          "name": "providerHash",
          "type": "string"
        }
      ],
      "name": "ProviderHashRemoved",
      "type": "event"
    },
    {
      "anonymous": false,
      "inputs": [
        {
          "indexed": false,
          "internalType": "uint256",
          "name": "newTimestampBuffer",
          "type": "uint256"
        }
      ],
      "name": "TimestampBufferSet",
      "type": "event"
    },
    {
      "inputs": [],
      "name": "COMPLETED_STATUS",
      "outputs": [
        {
          "internalType": "bytes32",
          "name": "",
          "type": "bytes32"
        }
      ],
      "stateMutability": "view",
      "type": "function"
    },
    {
      "inputs": [],
      "name": "DELIVERED_STATUS",
      "outputs": [
        {
          "internalType": "bytes32",
          "name": "",
          "type": "bytes32"
        }
      ],
      "stateMutability": "view",
      "type": "function"
    },
    {
      "inputs": [
        {
          "internalType": "string",
          "name": "_newProviderHash",
          "type": "string"
        }
      ],
      "name": "addProviderHash",
      "outputs": [],
      "stateMutability": "nonpayable",
      "type": "function"
    },
    {
      "inputs": [],
      "name": "baseVerifier",
      "outputs": [
        {
          "internalType": "address",
          "name": "",
          "type": "address"
        }
      ],
      "stateMutability": "view",
      "type": "function"
    },
    {
      "inputs": [],
      "name": "getProviderHashes",
      "outputs": [
        {
          "internalType": "string[]",
          "name": "",
          "type": "string[]"
        }
      ],
      "stateMutability": "view",
      "type": "function"
    },
    {
      "inputs": [
        {
          "internalType": "string",
          "name": "",
          "type": "string"
        }
      ],
      "name": "isProviderHash",
      "outputs": [
        {
          "internalType": "bool",
          "name": "",
          "type": "bool"
        }
      ],
      "stateMutability": "view",
      "type": "function"
    },
    {
      "inputs": [],
      "name": "nullifierRegistry",
      "outputs": [
        {
          "internalType": "contract INullifierRegistry",
          "name": "",
          "type": "address"
        }
      ],
      "stateMutability": "view",
      "type": "function"
    },
    {
      "inputs": [],
      "name": "owner",
      "outputs": [
        {
          "internalType": "address",
          "name": "",
          "type": "address"
        }
      ],
      "stateMutability": "view",
      "type": "function"
    },
    {
      "inputs": [
        {
          "internalType": "uint256",
          "name": "",
          "type": "uint256"
        }
      ],
      "name": "providerHashes",
      "outputs": [
        {
          "internalType": "string",
          "name": "",
          "type": "string"
        }
      ],
      "stateMutability": "view",
      "type": "function"
    },
    {
      "inputs": [
        {
          "internalType": "string",
          "name": "_removeProviderHash",
          "type": "string"
        }
      ],
      "name": "removeProviderHash",
      "outputs": [],
      "stateMutability": "nonpayable",
      "type": "function"
    },
    {
      "inputs": [],
      "name": "renounceOwnership",
      "outputs": [],
      "stateMutability": "nonpayable",
      "type": "function"
    },
    {
      "inputs": [
        {
          "internalType": "uint256",
          "name": "_timestampBuffer",
          "type": "uint256"
        }
      ],
      "name": "setTimestampBuffer",
      "outputs": [],
      "stateMutability": "nonpayable",
      "type": "function"
    },
    {
      "inputs": [],
      "name": "timestampBuffer",
      "outputs": [
        {
          "internalType": "uint256",
          "name": "",
          "type": "uint256"
        }
      ],
      "stateMutability": "view",
      "type": "function"
    },
    {
      "inputs": [
        {
          "internalType": "address",
          "name": "newOwner",
          "type": "address"
        }
      ],
      "name": "transferOwnership",
      "outputs": [],
      "stateMutability": "nonpayable",
      "type": "function"
    },
    {
      "inputs": [
        {
          "components": [
            {
              "internalType": "bytes",
              "name": "paymentProof",
              "type": "bytes"
            },
            {
              "internalType": "address",
              "name": "depositToken",
              "type": "address"
            },
            {
              "internalType": "uint256",
              "name": "intentAmount",
              "type": "uint256"
            },
            {
              "internalType": "uint256",
              "name": "intentTimestamp",
              "type": "uint256"
            },
            {
              "internalType": "string",
              "name": "payeeDetails",
              "type": "string"
            },
            {
              "internalType": "bytes32",
              "name": "fiatCurrency",
              "type": "bytes32"
            },
            {
              "internalType": "uint256",
              "name": "conversionRate",
              "type": "uint256"
            },
            {
              "internalType": "bytes",
              "name": "data",
              "type": "bytes"
            }
          ],
          "internalType": "struct IPaymentVerifier.VerifyPaymentData",
          "name": "_verifyPaymentData",
          "type": "tuple"
        }
      ],
      "name": "verifyPayment",
      "outputs": [
        {
          "internalType": "bool",
          "name": "",
          "type": "bool"
        },
        {
          "internalType": "bytes32",
          "name": "",
          "type": "bytes32"
        }
      ],
      "stateMutability": "nonpayable",
      "type": "function"
    },
    {
      "inputs": [
        {
          "components": [
            {
              "components": [
                {
                  "internalType": "string",
                  "name": "provider",
                  "type": "string"
                },
                {
                  "internalType": "string",
                  "name": "parameters",
                  "type": "string"
                },
                {
                  "internalType": "string",
                  "name": "context",
                  "type": "string"
                }
              ],
              "internalType": "struct Claims.ClaimInfo",
              "name": "claimInfo",
              "type": "tuple"
            },
            {
              "components": [
                {
                  "components": [
                    {
                      "internalType": "bytes32",
                      "name": "identifier",
                      "type": "bytes32"
                    },
                    {
                      "internalType": "address",
                      "name": "owner",
                      "type": "address"
                    },
                    {
                      "internalType": "uint32",
                      "name": "timestampS",
                      "type": "uint32"
                    },
                    {
                      "internalType": "uint32",
                      "name": "epoch",
                      "type": "uint32"
                    }
                  ],
                  "internalType": "struct Claims.CompleteClaimData",
                  "name": "claim",
                  "type": "tuple"
                },
                {
                  "internalType": "bytes[]",
                  "name": "signatures",
                  "type": "bytes[]"
                }
              ],
              "internalType": "struct Claims.SignedClaim",
              "name": "signedClaim",
              "type": "tuple"
            },
            {
              "internalType": "bool",
              "name": "isAppclipProof",
              "type": "bool"
            }
          ],
          "internalType": "struct IReclaimVerifier.ReclaimProof",
          "name": "proof",
          "type": "tuple"
        },
        {
          "internalType": "address[]",
          "name": "_witnesses",
          "type": "address[]"
        },
        {
          "internalType": "uint256",
          "name": "_requiredThreshold",
          "type": "uint256"
        }
      ],
      "name": "verifyProofSignatures",
      "outputs": [
        {
          "internalType": "bool",
          "name": "",
          "type": "bool"
        }
      ],
      "stateMutability": "pure",
      "type": "function"
    }
  ],
  "transactionHash": "0xc46e8494cae57af249013de6b4853235f096a7de768939f2c17217968cf9b007",
  "args": [
    "0x6B9e891abCA7f0958247CB6E608F7A260F566821",
    "0x5d96e0Bf0c080C5f42475d767248A7501D069883",
    [
      "0xc472a6b6bace68cef2750c5a713a9649b3a89965d2e7a7c81d8301987f281200",
      "0xced280486908345bea56fbd00f9b39e0cd8a626a20376763d75bbe52c17b6846",
      "0xd7615f705f999e8db7b0c9c2a16849559b88f3b95d6bdeed8a8c106bee870046",
      "0x30725b5ebd9a8e1663733b8435a1da9c59a3647492c61174c43997de334e2f61",
      "0x718ae48aa1d0aa333693d50c8817ec4a45796e0a6f0ea14ebe868b2e081ff5a3",
      "0xeead4659a0a0363e400adf96b60a10a608d11a0280f8f560f175e7a923ffaf35",
      "0x7ba04e25e6f642339eb1ff5dc2ed49ed4c6f79ec68c0c7ad3f81c1605cc66102",
      "0xe35bca0c85c889471a4979efcbb747cdbbf7b273640d4794303b4247b2fa99de",
      "0xb8f3603a04c623930ef5ceff5d4dd7cc749114989b5e34565dac358835cc1a77",
      "0xf2b6fdfaefd6964bcb202ab6886b80a51e061533c3bed39429eab887cc68a6d9",
      "0x21eb240c8a3131b258efceb330081cc0f8ca3e6e9e715e95fa0841ffe6a88dbe"
    ],
    "86400"
  ],
  "numDeployments": 1,
  "solcInputHash": "aac669c3fa521e7e48f17567a98ce447",
  "bytecode": "0x60a06040523480156200001157600080fd5b5060405162004cf138038062004cf18339810160408190526200003491620002ec565b81620000403362000214565b60005b8151811015620001e157600182828151811062000064576200006462000448565b60200260200101516040516200007b91906200045e565b9081526040519081900360200190205460ff1615620000e05760405162461bcd60e51b815260206004820152601b60248201527f50726f7669646572206861736820616c72656164792061646465640000000000604482015260640160405180910390fd5b600180838381518110620000f857620000f862000448565b60200260200101516040516200010f91906200045e565b908152602001604051809103902060006101000a81548160ff02191690831515021790555060028282815181106200014b576200014b62000448565b602090810291909101810151825460018101845560009384529190922001906200017690826200050b565b507fc9e1c78701d1853eeb1eb35ad3449e4b336281f672d5837243d21239dc6f4096828281518110620001ad57620001ad62000448565b6020026020010151604051620001c49190620005d7565b60405180910390a180620001d8816200060c565b91505062000043565b50506001600160a01b03938416608052600380546001600160a01b03191693909416929092179092556004555062000634565b600080546001600160a01b038381166001600160a01b0319831681178455604051919092169283917f8be0079c531659141344cd1fd0a4f28419497f9722a3daafe3b4186f6b6457e09190a35050565b6001600160a01b03811681146200027a57600080fd5b50565b634e487b7160e01b600052604160045260246000fd5b604051601f8201601f191681016001600160401b0381118282101715620002be57620002be6200027d565b604052919050565b60005b83811015620002e3578181015183820152602001620002c9565b50506000910152565b600080600080608085870312156200030357600080fd5b8451620003108162000264565b80945050602080860151620003258162000264565b60408701519094506001600160401b03808211156200034357600080fd5b818801915088601f8301126200035857600080fd5b8151818111156200036d576200036d6200027d565b8060051b6200037e85820162000293565b918252838101850191858101908c8411156200039957600080fd5b86860192505b838310156200043257825185811115620003b95760008081fd5b8601603f81018e13620003cc5760008081fd5b8781015186811115620003e357620003e36200027d565b620003f7601f8201601f19168a0162000293565b8181528f60408385010111156200040e5760008081fd5b62000420828b830160408601620002c6565b8452505091860191908601906200039f565b60609b909b0151999c989b505050505050505050565b634e487b7160e01b600052603260045260246000fd5b6000825162000472818460208701620002c6565b9190910192915050565b600181811c908216806200049157607f821691505b602082108103620004b257634e487b7160e01b600052602260045260246000fd5b50919050565b601f8211156200050657600081815260208120601f850160051c81016020861015620004e15750805b601f850160051c820191505b818110156200050257828155600101620004ed565b5050505b505050565b81516001600160401b038111156200052757620005276200027d565b6200053f816200053884546200047c565b84620004b8565b602080601f8311600181146200057757600084156200055e5750858301515b600019600386901b1c1916600185901b17855562000502565b600085815260208120601f198616915b82811015620005a85788860151825594840194600190910190840162000587565b5085821015620005c75787850151600019600388901b60f8161c191681555b5050505050600190811b01905550565b6020815260008251806020840152620005f8816040850160208701620002c6565b601f01601f19169190910160400192915050565b6000600182016200062d57634e487b7160e01b600052601160045260246000fd5b5060010190565b60805161469a6200065760003960008181610246015261047e015261469a6000f3fe608060405234801561001057600080fd5b50600436106101005760003560e01c8063b870676c11610097578063ea4a7bd711610066578063ea4a7bd714610241578063f2fde38b14610268578063f78378f31461027b578063fa93cd381461028357600080fd5b8063b870676c146101fd578063bd6e774114610210578063c2107e7314610223578063dbac58211461023857600080fd5b8063715018a6116100d3578063715018a61461019357806384c7b4391461019b5780638da5cb5b146101c5578063b2a3fda4146101ea57600080fd5b806315bfa612146101055780631cba9bed146101205780632ca6927d1461013557806357c6e12a14610173575b600080fd5b61010d610296565b6040519081526020015b60405180910390f35b61013361012e36600461384c565b6102c8565b005b61016361014336600461384c565b805160208183018101805160018252928201919093012091525460ff1681565b6040519015158152602001610117565b610186610181366004613880565b6103b0565b60405161011791906138e9565b61013361045c565b6101ae6101a93660046138fc565b610470565b604080519215158352602083019190915201610117565b6000546001600160a01b03165b6040516001600160a01b039091168152602001610117565b6101336101f8366004613880565b610571565b6003546101d2906001600160a01b031681565b61013361021e36600461384c565b6105ae565b61022b6106c3565b604051610117919061393e565b61010d60045481565b6101d27f000000000000000000000000000000000000000000000000000000000000000081565b6101336102763660046139b7565b61079c565b61010d610815565b610163610291366004613cc5565b610832565b6040516810d3d354131155115160ba1b60208201526029015b6040516020818303038152906040528051906020012081565b6102d0610bf2565b6001816040516102e09190613d31565b9081526040519081900360200190205460ff166103445760405162461bcd60e51b815260206004820152601760248201527f50726f76696465722068617368206e6f7420666f756e6400000000000000000060448201526064015b60405180910390fd5b6001816040516103549190613d31565b908152604051908190036020019020805460ff19169055610376600282610c4c565b7f6f594b4b4f0580c66aabba75218163a99fa1fe330a171cc9e2bfd8e167db22f8816040516103a591906138e9565b60405180910390a150565b600281815481106103c057600080fd5b9060005260206000200160009150905080546103db90613d4d565b80601f016020809104026020016040519081016040528092919081815260200182805461040790613d4d565b80156104545780601f1061042957610100808354040283529160200191610454565b820191906000526020600020905b81548152906001019060200180831161043757829003601f168201915b505050505081565b610464610bf2565b61046e6000610e06565b565b600080336001600160a01b037f000000000000000000000000000000000000000000000000000000000000000016146104eb5760405162461bcd60e51b815260206004820152601b60248201527f4f6e6c7920626173652076657269666965722063616e2063616c6c0000000000604482015260640161033b565b600061050c6104fa8580613d87565b61050760e0880188613d87565b610e56565b90506105208161051b86613dcd565b61117f565b61055381604001516040516020016105389190613d31565b60405160208183030381529060405280519060200120611491565b60a08101516001906105669060006115ac565b909590945092505050565b610579610bf2565b60048190556040518181527f11e8dda5412ecab251b7783921be2eb37fdf13b389fc7f671f2cee11a1dfefea906020016103a5565b6105b6610bf2565b6001816040516105c69190613d31565b9081526040519081900360200190205460ff16156106265760405162461bcd60e51b815260206004820152601b60248201527f50726f7669646572206861736820616c72656164792061646465640000000000604482015260640161033b565b600180826040516106379190613d31565b908152604051908190036020019020805491151560ff19909216919091179055600280546001810182556000919091527f405787fa12a823e0f2b7631cc41b3ba8828b3321ca811111fa75cd3aa3bb5ace016106938282613ee7565b507fc9e1c78701d1853eeb1eb35ad3449e4b336281f672d5837243d21239dc6f4096816040516103a591906138e9565b60606002805480602002602001604051908101604052809291908181526020016000905b8282101561079357838290600052602060002001805461070690613d4d565b80601f016020809104026020016040519081016040528092919081815260200182805461073290613d4d565b801561077f5780601f106107545761010080835404028352916020019161077f565b820191906000526020600020905b81548152906001019060200180831161076257829003601f168201915b5050505050815260200190600101906106e7565b50505050905090565b6107a4610bf2565b6001600160a01b0381166108095760405162461bcd60e51b815260206004820152602660248201527f4f776e61626c653a206e6577206f776e657220697320746865207a65726f206160448201526564647265737360d01b606482015260840161033b565b61081281610e06565b50565b6040516811115312559154915160ba1b60208201526029016102af565b60008082116108955760405162461bcd60e51b815260206004820152602960248201527f5265717569726564207468726573686f6c64206d75737420626520677265617460448201526806572207468616e20360bc1b606482015260840161033b565b825182111561091a5760405162461bcd60e51b8152602060048201526044602482018190527f5265717569726564207468726573686f6c64206d757374206265206c65737320908201527f7468616e206f7220657175616c20746f206e756d626572206f66207769746e656064820152637373657360e01b608482015260a40161033b565b600084602001516020015151116109635760405162461bcd60e51b815260206004820152600d60248201526c4e6f207369676e61747572657360981b604482015260640161033b565b60408051808201909152602080860180515183525181015190820152845160009061098d906115c6565b6020870151515190915081146109e55760405162461bcd60e51b815260206004820152601c60248201527f436c61696d496e666f206861736820646f65736e2774206d6174636800000000604482015260640161033b565b80610a2b5760405162461bcd60e51b8152602060048201526016602482015275436c61696d496e666f2068617368206973207a65726f60501b604482015260640161033b565b6000610a3683611609565b90508481511015610a9a5760405162461bcd60e51b815260206004820152602860248201527f4665776572207369676e617475726573207468616e20726571756972656420746044820152671a1c995cda1bdb1960c21b606482015260840161033b565b600081516001600160401b03811115610ab557610ab561372a565b604051908082528060200260200182016040528015610ade578160200160208202803683370190505b5090506000805b8351811015610b86576000848281518110610b0257610b02613fa6565b60200260200101519050610b1f81856116e290919063ffffffff16565b15610b2a5750610b74565b610b348a826116e2565b15610b725780848481518110610b4c57610b4c613fa6565b6001600160a01b039092166020928302919091019091015282610b6e81613fd2565b9350505b505b80610b7e81613fd2565b915050610ae5565b5086811015610be35760405162461bcd60e51b815260206004820152602360248201527f4e6f7420656e6f7567682076616c6964207769746e657373207369676e61747560448201526272657360e81b606482015260840161033b565b50600198975050505050505050565b6000546001600160a01b0316331461046e5760405162461bcd60e51b815260206004820181905260248201527f4f776e61626c653a2063616c6c6572206973206e6f7420746865206f776e6572604482015260640161033b565b600080610d2984805480602002602001604051908101604052809291908181526020016000905b82821015610d1f578382906000526020600020018054610c9290613d4d565b80601f0160208091040260200160405190810160405280929190818152602001828054610cbe90613d4d565b8015610d0b5780601f10610ce057610100808354040283529160200191610d0b565b820191906000526020600020905b815481529060010190602001808311610cee57829003601f168201915b505050505081526020019060010190610c73565b50505050846116f8565b9150915080610d715760405162461bcd60e51b815260206004820152601460248201527329ba3934b733903737ba1034b71030b93930bc9760611b604482015260640161033b565b8354600090610d8290600190613feb565b9050808314610dd157848181548110610d9d57610d9d613fa6565b90600052602060002001858481548110610db957610db9613fa6565b906000526020600020019081610dcf9190613ffe565b505b84805480610de157610de16140d0565b600190038181906000526020600020016000610dfd91906136b0565b90555050505050565b600080546001600160a01b038381166001600160a01b0319831681178455604051919092169283917f8be0079c531659141344cd1fd0a4f28419497f9722a3daafe3b4186f6b6457e09190a35050565b610e8f6040518060c001604052806060815260200160608152602001606081526020016060815260200160608152602001606081525090565b600080610e9e868801886140e6565b915091506000610eae8686611769565b9050610ebc83826001610832565b50610ec982826001610832565b506000610ee184600001516040015160076001611777565b90506000610efa84600001516040015160056001611777565b9050600082600481518110610f1157610f11613fa6565b60200260200101519050600083600681518110610f3057610f30613fa6565b60200260200101519050600083600281518110610f4f57610f4f613fa6565b60200260200101519050600084600481518110610f6e57610f6e613fa6565b60200260200101519050610f8183612648565b610fcd5760405162461bcd60e51b815260206004820152601960248201527f4e6f2076616c69642070726f7669646572486173684c69737400000000000000604482015260640161033b565b610fd681612648565b6110225760405162461bcd60e51b815260206004820152601b60248201527f4e6f2076616c69642070726f76696465724861736844657461696c0000000000604482015260640161033b565b816040516020016110339190613d31565b604051602081830303815290604052805190602001208460405160200161105a9190613d31565b60405160208183030381529060405280519060200120146110bd5760405162461bcd60e51b815260206004820152601860248201527f5061796d656e742049447320646f206e6f74206d617463680000000000000000604482015260640161033b565b6040518060c00160405280876002815181106110db576110db613fa6565b60200260200101518152602001876003815181106110fb576110fb613fa6565b602002602001015181526020018581526020018760058151811061112157611121613fa6565b602002602001015181526020018660038151811061114157611141613fa6565b602002602001015181526020018760018151811061116157611161613fa6565b60200260200101518152509950505050505050505050949350505050565b6000670de0b6b3a76400008260c00151836040015161119e9190614149565b6111a89190614176565b9050600082602001516001600160a01b031663313ce5676040518163ffffffff1660e01b8152600401602060405180830381865afa1580156111ee573d6000803e3d6000fd5b505050506040513d601f19601f82011682018060405250810190611212919061418a565b84519091506000906112279060ff84166115ac565b9050828110156112795760405162461bcd60e51b815260206004820152601860248201527f496e636f7272656374207061796d656e7420616d6f756e740000000000000000604482015260640161033b565b6080808501519086015161128c91612673565b6112d85760405162461bcd60e51b815260206004820152601b60248201527f496e636f7272656374207061796d656e7420726563697069656e740000000000604482015260640161033b565b60006112e786602001516126cc565b905060006004546113168360405160200161130291906141ad565b604051602081830303815290604052612836565b61132091906141da565b905085606001518110156113765760405162461bcd60e51b815260206004820152601b60248201527f496e636f7272656374207061796d656e742074696d657374616d700000000000604482015260640161033b565b6040516810d3d354131155115160ba1b60208201526029016040516020818303038152906040528051906020012087606001516040516020016113b99190613d31565b60405160208183030381529060405280519060200120148061143157506040516811115312559154915160ba1b60208201526029016040516020818303038152906040528051906020012087606001516040516020016114199190613d31565b60405160208183030381529060405280519060200120145b6114885760405162461bcd60e51b815260206004820152602260248201527f5061796d656e74206e6f7420636f6d706c65746564206f722064656c69766572604482015261195960f21b606482015260840161033b565b50505050505050565b60035460405163169394bb60e01b8152600481018390526001600160a01b039091169063169394bb90602401602060405180830381865afa1580156114da573d6000803e3d6000fd5b505050506040513d601f19601f820116820180604052508101906114fe91906141ed565b1561154b5760405162461bcd60e51b815260206004820152601f60248201527f4e756c6c69666965722068617320616c7265616479206265656e207573656400604482015260640161033b565b600354604051632dea6f9960e11b8152600481018390526001600160a01b0390911690635bd4df3290602401600060405180830381600087803b15801561159157600080fd5b505af11580156115a5573d6000803e3d6000fd5b5050505050565b60006115bd83601760f91b84612a5c565b90505b92915050565b6000808260000151836020015184604001516040516020016115ea9392919061420a565b60408051601f1981840301815291905280516020909101209392505050565b6060600061161a8360000151612c39565b905060008360200151516001600160401b0381111561163b5761163b61372a565b604051908082528060200260200182016040528015611664578160200160208202803683370190505b50905060005b8460200151518110156116da5761169e838660200151838151811061169157611691613fa6565b6020026020010151612cc5565b8282815181106116b0576116b0613fa6565b6001600160a01b0390921660209283029190910190910152806116d281613fd2565b91505061166a565b509392505050565b6000806116ef8484612d0e565b95945050505050565b81516000908190815b8181101561175657848051906020012086828151811061172357611723613fa6565b60200260200101518051906020012003611744579250600191506117629050565b8061174e81613fd2565b915050611701565b50600019600092509250505b9250929050565b60606115bd82840184614265565b606060008360ff16116117d65760405162461bcd60e51b815260206004820152602160248201527f4d61782076616c756573206d7573742062652067726561746572207468616e206044820152600360fc1b606482015260840161033b565b83600080808080806117e98a6002614299565b60ff166001600160401b038111156118035761180361372a565b60405190808252806020026020018201604052801561182c578160200160208202803683370190505b50905060005b604051806040016040528060138152602001723d9131b7b73a32bc3a20b2323932b9b9911d1160691b8152505181101561190b57604051806040016040528060138152602001723d9131b7b73a32bc3a20b2323932b9b9911d1160691b81525081815181106118a3576118a3613fa6565b01602001516001600160f81b031916886118bd838a6141da565b815181106118cd576118cd613fa6565b01602001516001600160f81b031916146118f95760405162461bcd60e51b815260040161033b906142bc565b8061190381613fd2565b915050611832565b50604051806040016040528060138152602001723d9131b7b73a32bc3a20b2323932b9b9911d1160691b815250518661194491906141da565b95508593505b8651861080156119ba575086868151811061196757611967613fa6565b6020910101516001600160f81b031916601160f91b1480156119b8575086611990600188613feb565b815181106119a0576119a0613fa6565b6020910101516001600160f81b031916601760fa1b14155b155b156119d157856119c981613fd2565b96505061194a565b865186106119f15760405162461bcd60e51b815260040161033b906142bc565b859250838303611a595760405162461bcd60e51b815260206004820152602d60248201527f45787472616374696f6e206661696c65642e20456d70747920636f6e7465787460448201526c416464726573732076616c756560981b606482015260840161033b565b8381611a66876002614149565b81518110611a7657611a76613fa6565b60209081029190910101528281611a8e876002614149565b611a999060016141da565b81518110611aa957611aa9613fa6565b602090810291909101015284611abe81613fd2565b9550611acd90506002876141da565b955060005b604051806040016040528060128152602001711131b7b73a32bc3a26b2b9b9b0b3b2911d1160711b81525051811015611ba957604051806040016040528060128152602001711131b7b73a32bc3a26b2b9b9b0b3b2911d1160711b8152508181518110611b4157611b41613fa6565b01602001516001600160f81b03191688611b5b838a6141da565b81518110611b6b57611b6b613fa6565b01602001516001600160f81b03191614611b975760405162461bcd60e51b815260040161033b90614307565b80611ba181613fd2565b915050611ad2565b50604051806040016040528060128152602001711131b7b73a32bc3a26b2b9b9b0b3b2911d1160711b8152505186611be191906141da565b95508593505b865186108015611c575750868681518110611c0457611c04613fa6565b6020910101516001600160f81b031916601160f91b148015611c55575086611c2d600188613feb565b81518110611c3d57611c3d613fa6565b6020910101516001600160f81b031916601760fa1b14155b155b15611c6e5785611c6681613fd2565b965050611be7565b86518610611c8e5760405162461bcd60e51b815260040161033b90614307565b859250838303611cf65760405162461bcd60e51b815260206004820152602d60248201527f45787472616374696f6e206661696c65642e20456d70747920636f6e7465787460448201526c4d6573736167652076616c756560981b606482015260840161033b565b8381611d03876002614149565b81518110611d1357611d13613fa6565b60209081029190910101528281611d2b876002614149565b611d369060016141da565b81518110611d4657611d46613fa6565b602090810291909101015284611d5b81613fd2565b9550611d6a90506002876141da565b955060005b604051806040016040528060188152602001771132bc3a3930b1ba32b22830b930b6b2ba32b939911d3d9160411b81525051811015611e9b57604051806040016040528060188152602001771132bc3a3930b1ba32b22830b930b6b2ba32b939911d3d9160411b8152508181518110611dea57611dea613fa6565b01602001516001600160f81b03191688611e04838a6141da565b81518110611e1457611e14613fa6565b01602001516001600160f81b03191614611e895760405162461bcd60e51b815260206004820152603060248201527f45787472616374696f6e206661696c65642e204d616c666f726d65642065787460448201526f726163746564506172616d657465727360801b606482015260840161033b565b80611e9381613fd2565b915050611d6f565b50604051806040016040528060188152602001771132bc3a3930b1ba32b22830b930b6b2ba32b939911d3d9160411b8152505186611ed991906141da565b9550600091505b865186101561228357868681518110611efb57611efb613fa6565b6020910101516001600160f81b031916601160f91b148015611f4c575086611f24600188613feb565b81518110611f3457611f34613fa6565b6020910101516001600160f81b031916601760fa1b14155b611f625785611f5a81613fd2565b965050611ee0565b8161206a5786611f738760016141da565b81518110611f8357611f83613fa6565b6020910101516001600160f81b031916601d60f91b148015611fd3575086611fac8760026141da565b81518110611fbc57611fbc613fa6565b6020910101516001600160f81b031916601160f91b145b61202b5760405162461bcd60e51b815260206004820152602360248201527f45787472616374696f6e206661696c65642e204d616c666f726d65642064617460448201526261203160e81b606482015260840161033b565b6120366003876141da565b9550600191508581612049876002614149565b8151811061205957612059613fa6565b602002602001018181525050611ee0565b6000876120788860016141da565b8151811061208857612088613fa6565b6020910101516001600160f81b031916600b60fa1b1480156120d85750876120b18860026141da565b815181106120c1576120c1613fa6565b6020910101516001600160f81b031916601160f91b145b90506000886120e88960016141da565b815181106120f8576120f8613fa6565b6020910101516001600160f81b031916607d60f81b1480156121485750886121218960026141da565b8151811061213157612131613fa6565b6020910101516001600160f81b031916600b60fa1b145b905081806121535750805b6121ab5760405162461bcd60e51b815260206004820152602360248201527f45787472616374696f6e206661696c65642e204d616c666f726d65642064617460448201526230901960e91b606482015260840161033b565b87836121b8896002614149565b6121c39060016141da565b815181106121d3576121d3613fa6565b6020908102919091010152866121e881613fd2565b9750508115612268578b60ff1687036122525760405162461bcd60e51b815260206004820152602660248201527f45787472616374696f6e206661696c65642e204578636565646564206d61782060448201526576616c75657360d01b606482015260840161033b565b61225d6003896141da565b97506000935061227c565b6122736003896141da565b97505050612283565b5050611ee0565b88156124905760005b6040518060400160405280601081526020016f11383937bb34b232b92430b9b4111d1160811b815250518110156123a1576040518060400160405280601081526020016f11383937bb34b232b92430b9b4111d1160811b81525081815181106122f7576122f7613fa6565b01602001516001600160f81b03191688612311838a6141da565b8151811061232157612321613fa6565b01602001516001600160f81b0319161461238f5760405162461bcd60e51b815260206004820152602960248201527f45787472616374696f6e206661696c65642e204d616c666f726d65642070726f6044820152680ecd2c8cae490c2e6d60bb1b606482015260840161033b565b8061239981613fd2565b91505061228c565b506040518060400160405280601081526020016f11383937bb34b232b92430b9b4111d1160811b81525051866123d791906141da565b955085816123e6876002614149565b815181106123f6576123f6613fa6565b6020026020010181815250505b865186108015612438575086868151811061242057612420613fa6565b6020910101516001600160f81b031916601160f91b14155b1561244f578561244781613fd2565b965050612403565b858161245c876002614149565b6124679060016141da565b8151811061247757612477613fa6565b60209081029190910101528461248c81613fd2565b9550505b6000856001600160401b038111156124aa576124aa61372a565b6040519080825280602002602001820160405280156124dd57816020015b60608152602001906001900390816124c85790505b50905060005b8681101561263857826124f7826002614149565b8151811061250757612507613fa6565b602002602001015195508281600261251f9190614149565b61252a9060016141da565b8151811061253a5761253a613fa6565b60200260200101519450600086866125529190613feb565b6001600160401b038111156125695761256961372a565b6040519080825280601f01601f191660200182016040528015612593576020820181803683370190505b509050865b86811015612605578a81815181106125b2576125b2613fa6565b01602001516001600160f81b031916826125cc8a84613feb565b815181106125dc576125dc613fa6565b60200101906001600160f81b031916908160001a905350806125fd81613fd2565b915050612598565b508083838151811061261957612619613fa6565b602002602001018190525050808061263090613fd2565b9150506124e3565b509b9a5050505050505050505050565b600060018260405161265a9190613d31565b9081526040519081900360200190205460ff1692915050565b6000816040516020016126869190613d31565b60405160208183030381529060405280519060200120836040516020016126ad9190613d31565b6040516020818303038152906040528051906020012014905092915050565b60606000829050806000815181106126e6576126e6613fa6565b602001015160f81c60f81b8160018151811061270457612704613fa6565b602001015160f81c60f81b8260028151811061272257612722613fa6565b602001015160f81c60f81b8360038151811061274057612740613fa6565b602001015160f81c60f81b8460048151811061275e5761275e613fa6565b602001015160f81c60f81b8560058151811061277c5761277c613fa6565b602001015160f81c60f81b8660068151811061279a5761279a613fa6565b602001015160f81c60f81b876007815181106127b8576127b8613fa6565b016020908101516040516001600160f81b0319998a1692810192909252968816602182015294871660228601529286166023850152602d60f81b6024850181905291861660258501528516602684015260278301528316602882015291166029820152602a015b604051602081830303815290604052915050919050565b60006128406136ea565b82516000908190815b8181101561298d5786818151811061286357612863613fa6565b6020910101516001600160f81b031916602d60f81b14806128a8575086818151811061289157612891613fa6565b6020910101516001600160f81b031916601d60f91b145b806128d757508681815181106128c0576128c0613fa6565b6020910101516001600160f81b031916601560fa1b145b8061290657508681815181106128ef576128ef613fa6565b6020910101516001600160f81b031916600160fd1b145b1561294857612916878483612d70565b85856006811061292857612928613fa6565b60200201526129388160016141da565b92508361294481613fd2565b9450505b86818151811061295a5761295a613fa6565b01602001516001600160f81b031916601760f91b0361297b5780915061298d565b8061298581613fd2565b915050612849565b50612999868383612d70565b8484600681106129ab576129ab613fa6565b6020020152600583146129f65760405162461bcd60e51b8152602060048201526013602482015272496e76616c6964206461746520737472696e6760681b604482015260640161033b565b612a52612a0c600086815b6020020151906115ac565b612a196000876001612a01565b612a266000886002612a01565b612a336000896003612a01565b612a4060008a6004612a01565b612a4d60008b6005612a01565b612e3c565b9695505050505050565b600083818080805b8451811015612bb257603060f81b858281518110612a8457612a84613fa6565b01602001516001600160f81b03191610801590612ac55750603960f81b858281518110612ab357612ab3613fa6565b01602001516001600160f81b03191611155b15612b08576030858281518110612ade57612ade613fa6565b0160200151612af0919060f81c613feb565b612afb85600a614149565b612b0591906141da565b93505b8115612b1c5782612b1881613fd2565b9350505b876001600160f81b031916858281518110612b3957612b39613fa6565b01602001516001600160f81b03191603612ba0578115612b9b5760405162461bcd60e51b815260206004820152601c60248201527f537472696e6720686173206d756c7469706c6520646563696d616c7300000000604482015260640161033b565b600191505b80612baa81613fd2565b915050612a64565b5085821115612c0e5760405162461bcd60e51b815260206004820152602260248201527f537472696e672068617320746f6f206d616e7920646563696d616c20706c6163604482015261657360f01b606482015260840161033b565b612c188287613feb565b612c2390600a614436565b612c2d9084614149565b98975050505050505050565b6060612c698260000151604051602001612c5591815260200190565b604051602081830303815290604052612e98565b612c76836020015161305b565b612c89846040015163ffffffff166131ad565b612c9c856060015163ffffffff166131ad565b604051602001612caf9493929190614442565b6040516020818303038152906040529050919050565b600080612cd284516131ad565b84604051602001612ce49291906144bb565b604051602081830303815290604052805190602001209050612d0681846132d8565b949350505050565b81516000908190815b8181101561175657846001600160a01b0316868281518110612d3b57612d3b613fa6565b60200260200101516001600160a01b031603612d5e579250600191506117629050565b80612d6881613fd2565b915050612d17565b6060836000612d7f8585613feb565b6001600160401b03811115612d9657612d9661372a565b6040519080825280601f01601f191660200182016040528015612dc0576020820181803683370190505b509050845b84811015612e3257828181518110612ddf57612ddf613fa6565b01602001516001600160f81b03191682612df98884613feb565b81518110612e0957612e09613fa6565b60200101906001600160f81b031916908160001a90535080612e2a81613fd2565b915050612dc5565b5095945050505050565b600081612e4a603c85614149565b612e56610e1087614149565b62015180612e658b8b8b6132f4565b612e6f9190614149565b612e7991906141da565b612e8391906141da565b612e8d91906141da565b979650505050505050565b6060600082516002612eaa9190614149565b6001600160401b03811115612ec157612ec161372a565b6040519080825280601f01601f191660200182016040528015612eeb576020820181803683370190505b5060408051808201909152601081526f181899199a1a9b1b9c1cb0b131b232b360811b602082015290915060005b845181101561303157818251868381518110612f3757612f37613fa6565b0160200151612f49919060f81c614176565b81518110612f5957612f59613fa6565b01602001516001600160f81b03191683612f74836002614149565b81518110612f8457612f84613fa6565b60200101906001600160f81b031916908160001a905350818251868381518110612fb057612fb0613fa6565b0160200151612fc2919060f81c614516565b81518110612fd257612fd2613fa6565b01602001516001600160f81b03191683612fed836002614149565b612ff89060016141da565b8151811061300857613008613fa6565b60200101906001600160f81b031916908160001a9053508061302981613fd2565b915050612f19565b5081604051602001613043919061452a565b60405160208183030381529060405292505050919050565b60408051602880825260608281019093526000919060208201818036833701905050905060005b601481101561319b576000613098826013613feb565b6130a3906008614149565b6130ae906002614436565b6130c1906001600160a01b038716614176565b60f81b9050600060108260f81c6130d89190614554565b60f81b905060008160f81c60106130ef9190614299565b8360f81c6130fd9190614576565b60f81b905061310b82613425565b85613117866002614149565b8151811061312757613127613fa6565b60200101906001600160f81b031916908160001a90535061314781613425565b85613153866002614149565b61315e9060016141da565b8151811061316e5761316e613fa6565b60200101906001600160f81b031916908160001a905350505050808061319390613fd2565b915050613082565b508060405160200161281f919061452a565b6060816000036131d45750506040805180820190915260018152600360fc1b602082015290565b8160005b81156131fe57806131e881613fd2565b91506131f79050600a83614176565b91506131d8565b6000816001600160401b038111156132185761321861372a565b6040519080825280601f01601f191660200182016040528015613242576020820181803683370190505b509050815b85156132cf57613258600182613feb565b90506000613267600a88614176565b61327290600a614149565b61327c9088613feb565b61328790603061458f565b905060008160f81b9050808484815181106132a4576132a4613fa6565b60200101906001600160f81b031916908160001a9053506132c6600a89614176565b97505050613247565b50949350505050565b60008060006132e78585613460565b915091506116da816134a2565b60006107b284101561330557600080fd5b838383600062253d8c60046064600c61331f600e886145a8565b61332991906145c8565b613335886113246145f6565b61333f91906145f6565b61334991906145c8565b61335490600361461e565b61335e91906145c8565b600c8061336c600e886145a8565b61337691906145c8565b61338190600c61461e565b61338c6002886145a8565b61339691906145a8565b6133a29061016f61461e565b6133ac91906145c8565b6004600c6133bb600e896145a8565b6133c591906145c8565b6133d1896112c06145f6565b6133db91906145f6565b6133e7906105b561461e565b6133f191906145c8565b6133fd617d4b876145a8565b61340791906145f6565b61341191906145f6565b61341b91906145a8565b612c2d91906145a8565b6000600a60f883901c101561344c5761344360f883901c603061458f565b60f81b92915050565b61344360f883901c605761458f565b919050565b60008082516041036134965760208301516040840151606085015160001a61348a878285856135ec565b94509450505050611762565b50600090506002611762565b60008160048111156134b6576134b661464e565b036134be5750565b60018160048111156134d2576134d261464e565b0361351f5760405162461bcd60e51b815260206004820152601860248201527f45434453413a20696e76616c6964207369676e61747572650000000000000000604482015260640161033b565b60028160048111156135335761353361464e565b036135805760405162461bcd60e51b815260206004820152601f60248201527f45434453413a20696e76616c6964207369676e6174757265206c656e67746800604482015260640161033b565b60038160048111156135945761359461464e565b036108125760405162461bcd60e51b815260206004820152602260248201527f45434453413a20696e76616c6964207369676e6174757265202773272076616c604482015261756560f01b606482015260840161033b565b6000807f7fffffffffffffffffffffffffffffff5d576e7357a4501ddfe92f46681b20a083111561362357506000905060036136a7565b6040805160008082526020820180845289905260ff881692820192909252606081018690526080810185905260019060a0016020604051602081039080840390855afa158015613677573d6000803e3d6000fd5b5050604051601f1901519150506001600160a01b0381166136a0576000600192509250506136a7565b9150600090505b94509492505050565b5080546136bc90613d4d565b6000825580601f106136cc575050565b601f0160209004906000526020600020908101906108129190613711565b6040518060c001604052806006905b60608152602001906001900390816136f95790505090565b5b808211156137265760008155600101613712565b5090565b634e487b7160e01b600052604160045260246000fd5b604051608081016001600160401b03811182821017156137625761376261372a565b60405290565b604051606081016001600160401b03811182821017156137625761376261372a565b60405161010081016001600160401b03811182821017156137625761376261372a565b604051601f8201601f191681016001600160401b03811182821017156137d5576137d561372a565b604052919050565b600082601f8301126137ee57600080fd5b81356001600160401b038111156138075761380761372a565b61381a601f8201601f19166020016137ad565b81815284602083860101111561382f57600080fd5b816020850160208301376000918101602001919091529392505050565b60006020828403121561385e57600080fd5b81356001600160401b0381111561387457600080fd5b612d06848285016137dd565b60006020828403121561389257600080fd5b5035919050565b60005b838110156138b457818101518382015260200161389c565b50506000910152565b600081518084526138d5816020860160208601613899565b601f01601f19169290920160200192915050565b6020815260006115bd60208301846138bd565b60006020828403121561390e57600080fd5b81356001600160401b0381111561392457600080fd5b8201610100818503121561393757600080fd5b9392505050565b6000602080830181845280855180835260408601915060408160051b870101925083870160005b8281101561399357603f198886030184526139818583516138bd565b94509285019290850190600101613965565b5092979650505050505050565b80356001600160a01b038116811461345b57600080fd5b6000602082840312156139c957600080fd5b6115bd826139a0565b803563ffffffff8116811461345b57600080fd5b60006001600160401b038211156139ff576139ff61372a565b5060051b60200190565b600082601f830112613a1a57600080fd5b81356020613a2f613a2a836139e6565b6137ad565b82815260059290921b84018101918181019086841115613a4e57600080fd5b8286015b84811015613a8d5780356001600160401b03811115613a715760008081fd5b613a7f8986838b01016137dd565b845250918301918301613a52565b509695505050505050565b600081830360a0811215613aab57600080fd5b604051604081016001600160401b038282108183111715613ace57613ace61372a565b816040528294506080841215613ae357600080fd5b613aeb613740565b935085358452613afd602087016139a0565b6020850152613b0e604087016139d2565b6040850152613b1f606087016139d2565b606085015292825260808501359280841115613b3a57600080fd5b5050613b4885838601613a09565b6020820152505092915050565b801515811461081257600080fd5b803561345b81613b55565b600060608284031215613b8057600080fd5b613b88613768565b905081356001600160401b0380821115613ba157600080fd5b9083019060608286031215613bb557600080fd5b613bbd613768565b823582811115613bcc57600080fd5b613bd8878286016137dd565b825250602083013582811115613bed57600080fd5b613bf9878286016137dd565b602083015250604083013582811115613c1157600080fd5b613c1d878286016137dd565b60408301525083526020840135915080821115613c3957600080fd5b50613c4684828501613a98565b602083015250613c5860408301613b63565b604082015292915050565b600082601f830112613c7457600080fd5b81356020613c84613a2a836139e6565b82815260059290921b84018101918181019086841115613ca357600080fd5b8286015b84811015613a8d57613cb8816139a0565b8352918301918301613ca7565b600080600060608486031215613cda57600080fd5b83356001600160401b0380821115613cf157600080fd5b613cfd87838801613b6e565b94506020860135915080821115613d1357600080fd5b50613d2086828701613c63565b925050604084013590509250925092565b60008251613d43818460208701613899565b9190910192915050565b600181811c90821680613d6157607f821691505b602082108103613d8157634e487b7160e01b600052602260045260246000fd5b50919050565b6000808335601e19843603018112613d9e57600080fd5b8301803591506001600160401b03821115613db857600080fd5b60200191503681900382131561176257600080fd5b60006101008236031215613de057600080fd5b613de861378a565b82356001600160401b0380821115613dff57600080fd5b613e0b368387016137dd565b8352613e19602086016139a0565b602084015260408501356040840152606085013560608401526080850135915080821115613e4657600080fd5b613e52368387016137dd565b608084015260a085013560a084015260c085013560c084015260e0850135915080821115613e7f57600080fd5b50613e8c368286016137dd565b60e08301525092915050565b601f821115613ee257600081815260208120601f850160051c81016020861015613ebf5750805b601f850160051c820191505b81811015613ede57828155600101613ecb565b5050505b505050565b81516001600160401b03811115613f0057613f0061372a565b613f1481613f0e8454613d4d565b84613e98565b602080601f831160018114613f495760008415613f315750858301515b600019600386901b1c1916600185901b178555613ede565b600085815260208120601f198616915b82811015613f7857888601518255948401946001909101908401613f59565b5085821015613f965787850151600019600388901b60f8161c191681555b5050505050600190811b01905550565b634e487b7160e01b600052603260045260246000fd5b634e487b7160e01b600052601160045260246000fd5b600060018201613fe457613fe4613fbc565b5060010190565b818103818111156115c0576115c0613fbc565b818103614009575050565b6140138254613d4d565b6001600160401b0381111561402a5761402a61372a565b61403881613f0e8454613d4d565b6000601f82116001811461406c57600083156140545750848201545b600019600385901b1c1916600184901b1784556115a5565b600085815260209020601f19841690600086815260209020845b838110156140a65782860154825560019586019590910190602001614086565b5085831015613f965793015460001960f8600387901b161c19169092555050600190811b01905550565b634e487b7160e01b600052603160045260246000fd5b600080604083850312156140f957600080fd5b82356001600160401b038082111561411057600080fd5b61411c86838701613b6e565b9350602085013591508082111561413257600080fd5b5061413f85828601613b6e565b9150509250929050565b80820281158282048414176115c0576115c0613fbc565b634e487b7160e01b600052601260045260246000fd5b60008261418557614185614160565b500490565b60006020828403121561419c57600080fd5b815160ff8116811461393757600080fd5b600082516141bf818460208701613899565b685432333a35393a353960b81b920191825250600901919050565b808201808211156115c0576115c0613fbc565b6000602082840312156141ff57600080fd5b815161393781613b55565b6000845161421c818460208901613899565b600560f91b908301818152855190919061423d816001850160208a01613899565b60019201918201528351614258816002840160208801613899565b0160020195945050505050565b60006020828403121561427757600080fd5b81356001600160401b0381111561428d57600080fd5b612d0684828501613c63565b60ff81811683821602908116908181146142b5576142b5613fbc565b5092915050565b6020808252602b908201527f45787472616374696f6e206661696c65642e204d616c666f726d656420636f6e60408201526a746578744164647265737360a81b606082015260800190565b6020808252602b908201527f45787472616374696f6e206661696c65642e204d616c666f726d656420636f6e60408201526a746578744d65737361676560a81b606082015260800190565b600181815b8085111561438d57816000190482111561437357614373613fbc565b8085161561438057918102915b93841c9390800290614357565b509250929050565b6000826143a4575060016115c0565b816143b1575060006115c0565b81600181146143c757600281146143d1576143ed565b60019150506115c0565b60ff8411156143e2576143e2613fbc565b50506001821b6115c0565b5060208310610133831016604e8410600b8410161715614410575081810a6115c0565b61441a8383614352565b806000190482111561442e5761442e613fbc565b029392505050565b60006115bd8383614395565b60008551614454818460208a01613899565b600560f91b9083018181528651909190614475816001850160208b01613899565b600192019182018190528551614492816002850160208a01613899565b600292019182015283516144ad816003840160208801613899565b016003019695505050505050565b7f19457468657265756d205369676e6564204d6573736167653a0a0000000000008152600083516144f381601a850160208801613899565b83519083019061450a81601a840160208801613899565b01601a01949350505050565b60008261452557614525614160565b500690565b61060f60f31b815260008251614547816002850160208701613899565b9190910160020192915050565b600060ff83168061456757614567614160565b8060ff84160491505092915050565b60ff82811682821603908111156115c0576115c0613fbc565b60ff81811683821601908111156115c0576115c0613fbc565b81810360008312801583831316838312821617156142b5576142b5613fbc565b6000826145d7576145d7614160565b600160ff1b8214600019841416156145f1576145f1613fbc565b500590565b808201828112600083128015821682158216171561461657614616613fbc565b505092915050565b80820260008212600160ff1b8414161561463a5761463a613fbc565b81810583148215176115c0576115c0613fbc565b634e487b7160e01b600052602160045260246000fdfea2646970667358221220963437e9dd96ac1209df2e27f5772f3b57503cfe07fcd7f5d3d94804efd362c864736f6c63430008120033",
  "devdoc": {
    "kind": "dev",
    "methods": {
      "addProviderHash(string)": {
        "params": {
          "_newProviderHash": "New provider hash to be added"
        }
      },
      "owner()": {
        "details": "Returns the address of the current owner."
      },
      "removeProviderHash(string)": {
        "params": {
          "_removeProviderHash": "Provider hash to be removed"
        }
      },
      "renounceOwnership()": {
        "details": "Leaves the contract without owner. It will not be possible to call `onlyOwner` functions. Can only be called by the current owner. NOTE: Renouncing ownership will leave the contract without an owner, thereby disabling any functionality that is only available to the owner."
      },
      "setTimestampBuffer(uint256)": {
        "params": {
          "_timestampBuffer": "The timestamp buffer for payments"
        }
      },
      "transferOwnership(address)": {
        "details": "Transfers ownership of the contract to a new account (`newOwner`). Can only be called by the current owner."
      },
      "verifyPayment((bytes,address,uint256,uint256,string,bytes32,uint256,bytes))": {
        "params": {
          "_verifyPaymentData": "Payment proof and intent details required for verification"
        }
      },
      "verifyProofSignatures(((string,string,string),((bytes32,address,uint32,uint32),bytes[]),bool),address[],uint256)": {
        "params": {
          "_requiredThreshold": "Minimum number of signatures required from accepted witnesses",
          "_witnesses": "List of accepted witnesses",
          "proof": "Proof to be verified"
        }
      }
    },
    "version": 1
  },
  "userdoc": {
    "kind": "user",
    "methods": {
      "addProviderHash(string)": {
        "notice": "ONLY OWNER: Add provider hash string. Provider hash must not have been previously added."
      },
      "removeProviderHash(string)": {
        "notice": "ONLY OWNER: Remove provider hash string. Provider hash must have been previously added."
      },
      "setTimestampBuffer(uint256)": {
        "notice": "OWNER ONLY: Sets the timestamp buffer for payments. This is the amount of time in seconds that the timestamp can be off by and still be considered valid. Necessary to build in flexibility  with L2 timestamps."
      },
      "verifyPayment((bytes,address,uint256,uint256,string,bytes32,uint256,bytes))": {
        "notice": "Verifies two Reclaim proofs for a Chase Zelle payment."
      },
      "verifyProofSignatures(((string,string,string),((bytes32,address,uint32,uint32),bytes[]),bool),address[],uint256)": {
        "notice": "Verify proof generated by witnesses. Claim is constructed by hashing claimInfo (provider, context, parameters) to get the identifier. And then signing on (identifier, owner, timestamp, epoch) to get claim signature.  This function verifies a claim by performing the following checks on the claim - Calculates the hash of the claimInfo and checks if it matches the identifier in the claim - Checks if the signatures are valid and from the witnesses This function reverts if - No signatures are found on the proof - ClaimInfo hash does not match the identifier in the claim - Signatures are invalid (not from the witnesses)  DEV NOTE: This function does NOT validate that the claim provider hash is valid. That is the  responsibility of the caller. Ensure witnesses are unique otherwise the threshold can be met  with duplicate witnesses.  Parts of the code are adapted from: https://basescan.org/address/0x7281630e4346dd4c0b7ae3b4689c1d0102741410#code    "
      }
    },
    "version": 1
  },
  "storageLayout": {
    "storage": [
      {
        "astId": 7,
        "contract": "contracts/verifiers/ZelleVerifiers/ZelleChaseReclaimVerifier.sol:ZelleChaseReclaimVerifier",
        "label": "_owner",
        "offset": 0,
        "slot": "0",
        "type": "t_address"
      },
      {
        "astId": 10056,
        "contract": "contracts/verifiers/ZelleVerifiers/ZelleChaseReclaimVerifier.sol:ZelleChaseReclaimVerifier",
        "label": "isProviderHash",
        "offset": 0,
        "slot": "1",
        "type": "t_mapping(t_string_memory_ptr,t_bool)"
      },
      {
        "astId": 10059,
        "contract": "contracts/verifiers/ZelleVerifiers/ZelleChaseReclaimVerifier.sol:ZelleChaseReclaimVerifier",
        "label": "providerHashes",
        "offset": 0,
        "slot": "2",
        "type": "t_array(t_string_storage)dyn_storage"
      },
      {
        "astId": 13234,
        "contract": "contracts/verifiers/ZelleVerifiers/ZelleChaseReclaimVerifier.sol:ZelleChaseReclaimVerifier",
        "label": "nullifierRegistry",
        "offset": 0,
        "slot": "3",
        "type": "t_contract(INullifierRegistry)14510"
      },
      {
        "astId": 13236,
        "contract": "contracts/verifiers/ZelleVerifiers/ZelleChaseReclaimVerifier.sol:ZelleChaseReclaimVerifier",
        "label": "timestampBuffer",
        "offset": 0,
        "slot": "4",
        "type": "t_uint256"
      }
    ],
    "types": {
      "t_address": {
        "encoding": "inplace",
        "label": "address",
        "numberOfBytes": "20"
      },
      "t_array(t_string_storage)dyn_storage": {
        "base": "t_string_storage",
        "encoding": "dynamic_array",
        "label": "string[]",
        "numberOfBytes": "32"
      },
      "t_bool": {
        "encoding": "inplace",
        "label": "bool",
        "numberOfBytes": "1"
      },
      "t_contract(INullifierRegistry)14510": {
        "encoding": "inplace",
        "label": "contract INullifierRegistry",
        "numberOfBytes": "20"
      },
      "t_mapping(t_string_memory_ptr,t_bool)": {
        "encoding": "mapping",
        "key": "t_string_memory_ptr",
        "label": "mapping(string => bool)",
        "numberOfBytes": "32",
        "value": "t_bool"
      },
      "t_string_memory_ptr": {
        "encoding": "bytes",
        "label": "string",
        "numberOfBytes": "32"
      },
      "t_string_storage": {
        "encoding": "bytes",
        "label": "string",
        "numberOfBytes": "32"
      },
      "t_uint256": {
        "encoding": "inplace",
        "label": "uint256",
        "numberOfBytes": "32"
      }
    }
  }
}