{
  "address": "0x481a64fd87cF4929D0E4B67e9Aae61eADE79AE5A",
  "abi": [
    {
      "inputs": [
        {
          "internalType": "address",
          "name": "_baseVerifier",
          "type": "address"
        },
        {
          "internalType": "contract INullifierRegistry",
          "name": "_nullifierRegistry",
          "type": "address"
        },
        {
          "internalType": "string[]",
          "name": "_providerHashes",
          "type": "string[]"
        }
      ],
      "stateMutability": "nonpayable",
      "type": "constructor"
    },
    {
      "anonymous": false,
      "inputs": [
        {
          "indexed": true,
          "internalType": "address",
          "name": "previousOwner",
          "type": "address"
        },
        {
          "indexed": true,
          "internalType": "address",
          "name": "newOwner",
          "type": "address"
        }
      ],
      "name": "OwnershipTransferred",
      "type": "event"
    },
    {
      "anonymous": false,
      "inputs": [
        {
          "indexed": false,
          "internalType": "string",
          "name": "providerHash",
          "type": "string"
        }
      ],
      "name": "ProviderHashAdded",
      "type": "event"
    },
    {
      "anonymous": false,
      "inputs": [
        {
          "indexed": false,
          "internalType": "string",
          "name": "providerHash",
          "type": "string"
        }
      ],
      "name": "ProviderHashRemoved",
      "type": "event"
    },
    {
      "inputs": [],
      "name": "DELIVERED_STATUS",
      "outputs": [
        {
          "internalType": "bytes32",
          "name": "",
          "type": "bytes32"
        }
      ],
      "stateMutability": "view",
      "type": "function"
    },
    {
      "inputs": [
        {
          "internalType": "string",
          "name": "_newProviderHash",
          "type": "string"
        }
      ],
      "name": "addProviderHash",
      "outputs": [],
      "stateMutability": "nonpayable",
      "type": "function"
    },
    {
      "inputs": [],
      "name": "baseVerifier",
      "outputs": [
        {
          "internalType": "address",
          "name": "",
          "type": "address"
        }
      ],
      "stateMutability": "view",
      "type": "function"
    },
    {
      "inputs": [],
      "name": "getProviderHashes",
      "outputs": [
        {
          "internalType": "string[]",
          "name": "",
          "type": "string[]"
        }
      ],
      "stateMutability": "view",
      "type": "function"
    },
    {
      "inputs": [
        {
          "internalType": "string",
          "name": "",
          "type": "string"
        }
      ],
      "name": "isProviderHash",
      "outputs": [
        {
          "internalType": "bool",
          "name": "",
          "type": "bool"
        }
      ],
      "stateMutability": "view",
      "type": "function"
    },
    {
      "inputs": [],
      "name": "nullifierRegistry",
      "outputs": [
        {
          "internalType": "contract INullifierRegistry",
          "name": "",
          "type": "address"
        }
      ],
      "stateMutability": "view",
      "type": "function"
    },
    {
      "inputs": [],
      "name": "owner",
      "outputs": [
        {
          "internalType": "address",
          "name": "",
          "type": "address"
        }
      ],
      "stateMutability": "view",
      "type": "function"
    },
    {
      "inputs": [
        {
          "internalType": "uint256",
          "name": "",
          "type": "uint256"
        }
      ],
      "name": "providerHashes",
      "outputs": [
        {
          "internalType": "string",
          "name": "",
          "type": "string"
        }
      ],
      "stateMutability": "view",
      "type": "function"
    },
    {
      "inputs": [
        {
          "internalType": "string",
          "name": "_removeProviderHash",
          "type": "string"
        }
      ],
      "name": "removeProviderHash",
      "outputs": [],
      "stateMutability": "nonpayable",
      "type": "function"
    },
    {
      "inputs": [],
      "name": "renounceOwnership",
      "outputs": [],
      "stateMutability": "nonpayable",
      "type": "function"
    },
    {
      "inputs": [
        {
          "internalType": "address",
          "name": "newOwner",
          "type": "address"
        }
      ],
      "name": "transferOwnership",
      "outputs": [],
      "stateMutability": "nonpayable",
      "type": "function"
    },
    {
      "inputs": [
        {
          "components": [
            {
              "internalType": "bytes",
              "name": "paymentProof",
              "type": "bytes"
            },
            {
              "internalType": "address",
              "name": "depositToken",
              "type": "address"
            },
            {
              "internalType": "uint256",
              "name": "intentAmount",
              "type": "uint256"
            },
            {
              "internalType": "uint256",
              "name": "intentTimestamp",
              "type": "uint256"
            },
            {
              "internalType": "string",
              "name": "payeeDetails",
              "type": "string"
            },
            {
              "internalType": "bytes32",
              "name": "fiatCurrency",
              "type": "bytes32"
            },
            {
              "internalType": "uint256",
              "name": "conversionRate",
              "type": "uint256"
            },
            {
              "internalType": "bytes",
              "name": "data",
              "type": "bytes"
            }
          ],
          "internalType": "struct IPaymentVerifier.VerifyPaymentData",
          "name": "_verifyPaymentData",
          "type": "tuple"
        }
      ],
      "name": "verifyPayment",
      "outputs": [
        {
          "internalType": "bool",
          "name": "",
          "type": "bool"
        },
        {
          "internalType": "bytes32",
          "name": "",
          "type": "bytes32"
        }
      ],
      "stateMutability": "nonpayable",
      "type": "function"
    },
    {
      "inputs": [
        {
          "components": [
            {
              "components": [
                {
                  "internalType": "string",
                  "name": "provider",
                  "type": "string"
                },
                {
                  "internalType": "string",
                  "name": "parameters",
                  "type": "string"
                },
                {
                  "internalType": "string",
                  "name": "context",
                  "type": "string"
                }
              ],
              "internalType": "struct Claims.ClaimInfo",
              "name": "claimInfo",
              "type": "tuple"
            },
            {
              "components": [
                {
                  "components": [
                    {
                      "internalType": "bytes32",
                      "name": "identifier",
                      "type": "bytes32"
                    },
                    {
                      "internalType": "address",
                      "name": "owner",
                      "type": "address"
                    },
                    {
                      "internalType": "uint32",
                      "name": "timestampS",
                      "type": "uint32"
                    },
                    {
                      "internalType": "uint32",
                      "name": "epoch",
                      "type": "uint32"
                    }
                  ],
                  "internalType": "struct Claims.CompleteClaimData",
                  "name": "claim",
                  "type": "tuple"
                },
                {
                  "internalType": "bytes[]",
                  "name": "signatures",
                  "type": "bytes[]"
                }
              ],
              "internalType": "struct Claims.SignedClaim",
              "name": "signedClaim",
              "type": "tuple"
            },
            {
              "internalType": "bool",
              "name": "isAppclipProof",
              "type": "bool"
            }
          ],
          "internalType": "struct IReclaimVerifier.ReclaimProof",
          "name": "proof",
          "type": "tuple"
        },
        {
          "internalType": "address[]",
          "name": "_witnesses",
          "type": "address[]"
        },
        {
          "internalType": "uint256",
          "name": "_requiredThreshold",
          "type": "uint256"
        }
      ],
      "name": "verifyProofSignatures",
      "outputs": [
        {
          "internalType": "bool",
          "name": "",
          "type": "bool"
        }
      ],
      "stateMutability": "pure",
      "type": "function"
    }
  ],
  "transactionHash": "0x00e213a2df2deb343f923cf2b645450aa578085f5fe69a2e60a612742c2958bb",
  "args": [
    "0x27311bFa99Ecb91A616328514836B3897D67946f",
    "0x5d96e0Bf0c080C5f42475d767248A7501D069883",
    [
      "0x611427d0224e99f0981060239894356dc4c3494f95eb9d139f9a402b130a9ad4",
      "0x3a3d23f3f3c5063af7fa0bd48aa98f4cd4658770aa5de971924fda7ef92ea743",
      "0x2a20d5d1fc3ccfa7f3053949fb067cb56447eb46cb415a10a496c36c5f9992d7",
      "0x1b2242ae270803ed3a0e3a71ea349013ec11a963283cd2b49225732155d9d669",
      "0x860f8b1feab450c110f88e8bf983a10ec470b3818f855635574871491d6de5fa",
      "0x0543afb5589ce0d9f4d0df461871820b3cc1f584d4e5e877dcc5a1fd8edbc900",
      "0x1898578b6c6320260bfa4f9717c2f529e53e74908405f32612d2c2612287cede",
      "0x532a1cde992553a1d73b6531b1ad8e163277486c831ebd1c9131ed2e20599f1e",
      "0xed23a57df2ed4a5d82d471ac4592380e0388bdc0a7a79b5844347cc4e1c6a134",
      "0x3ff906c52f9e9b446d294a35315953330b633dbba4b294ab222f060911e06e6c",
      "0x04cbc588ec74f2b8564fff743ff918fcb80e05d9081e6c6e2a5af8f21516885f",
      "0xf9bfbf3c277f0db3b59a1fc164e84fc096107cb3cf2d2717ff3a572644c17491",
      "0x8530dec46be3196b90044f8bb90ab69e7fdf9ccd6742eebd6c534dc9fa92953d",
      "0xc5a63db7cc0eaee9d3c2cc13caf4f16c878bc36e027b33c7e0731e71dbda73c1",
      "0x488098e92ae73d56b930f79217fa48877a8fd6b7d8ad337ea1f402f3d3ac1bcc",
      "0x39a45df78a1b4799a5a45c1a4ef1102d7873e6e160420719fdeec934372d4329",
      "0x716b3dae20b1b53804695d74be7e70f6d68f444ebcaae588c533f84e60fb3ec3",
      "0xba85f06a8d4fbbea51492788be36b7d06232fdccc866295c95f9dde18b09ec9f",
      "0x3c412cf774a4d18184e711fb33884c9929401433a00892afc97b1d94777ec7e3",
      "0x6296951a4ebed6beb817292c4c70ca7645abfd46efeb8f52a325ed0b37d21bf3"
    ]
  ],
  "numDeployments": 1,
  "solcInputHash": "daf2cb275c515892ce77c89665f6b5a3",
  "bytecode": "0x60a06040523480156200001157600080fd5b5060405162004c4138038062004c418339810160408190526200003491620002e5565b8062000040336200020d565b60005b8151811015620001e15760018282815181106200006457620000646200043c565b60200260200101516040516200007b919062000452565b9081526040519081900360200190205460ff1615620000e05760405162461bcd60e51b815260206004820152601b60248201527f50726f7669646572206861736820616c72656164792061646465640000000000604482015260640160405180910390fd5b600180838381518110620000f857620000f86200043c565b60200260200101516040516200010f919062000452565b908152602001604051809103902060006101000a81548160ff02191690831515021790555060028282815181106200014b576200014b6200043c565b60209081029190910181015182546001810184556000938452919092200190620001769082620004ff565b507fc9e1c78701d1853eeb1eb35ad3449e4b336281f672d5837243d21239dc6f4096828281518110620001ad57620001ad6200043c565b6020026020010151604051620001c49190620005cb565b60405180910390a180620001d88162000600565b91505062000043565b5050506001600160a01b03918216608052600380546001600160a01b0319169190921617905562000628565b600080546001600160a01b038381166001600160a01b0319831681178455604051919092169283917f8be0079c531659141344cd1fd0a4f28419497f9722a3daafe3b4186f6b6457e09190a35050565b6001600160a01b03811681146200027357600080fd5b50565b634e487b7160e01b600052604160045260246000fd5b604051601f8201601f191681016001600160401b0381118282101715620002b757620002b762000276565b604052919050565b60005b83811015620002dc578181015183820152602001620002c2565b50506000910152565b600080600060608486031215620002fb57600080fd5b835162000308816200025d565b809350506020808501516200031d816200025d565b604086810151919450906001600160401b03808211156200033d57600080fd5b818801915088601f8301126200035257600080fd5b81518181111562000367576200036762000276565b8060051b620003788682016200028c565b918252838101860191868101908c8411156200039357600080fd5b87860192505b838310156200042a57825185811115620003b35760008081fd5b8601603f81018e13620003c65760008081fd5b8881015186811115620003dd57620003dd62000276565b620003f1601f8201601f19168b016200028c565b8181528f8a838501011115620004075760008081fd5b62000418828c83018c8601620002bf565b84525050918701919087019062000399565b80985050505050505050509250925092565b634e487b7160e01b600052603260045260246000fd5b6000825162000466818460208701620002bf565b9190910192915050565b600181811c908216806200048557607f821691505b602082108103620004a657634e487b7160e01b600052602260045260246000fd5b50919050565b601f821115620004fa57600081815260208120601f850160051c81016020861015620004d55750805b601f850160051c820191505b81811015620004f657828155600101620004e1565b5050505b505050565b81516001600160401b038111156200051b576200051b62000276565b62000533816200052c845462000470565b84620004ac565b602080601f8311600181146200056b5760008415620005525750858301515b600019600386901b1c1916600185901b178555620004f6565b600085815260208120601f198616915b828110156200059c578886015182559484019460019091019084016200057b565b5085821015620005bb5787850151600019600388901b60f8161c191681555b5050505050600190811b01905550565b6020815260008251806020840152620005ec816040850160208701620002bf565b601f01601f19169190910160400192915050565b6000600182016200062157634e487b7160e01b600052601160045260246000fd5b5060010190565b6080516145f66200064b600039600081816101e3015261042301526145f66000f3fe608060405234801561001057600080fd5b50600436106100cf5760003560e01c8063b870676c1161008c578063ea4a7bd711610066578063ea4a7bd7146101de578063f2fde38b14610205578063f78378f314610218578063fa93cd381461025a57600080fd5b8063b870676c146101a3578063bd6e7741146101b6578063c2107e73146101c957600080fd5b80631cba9bed146100d45780632ca6927d146100e957806357c6e12a1461012c578063715018a61461014c57806384c7b439146101545780638da5cb5b1461017e575b600080fd5b6100e76100e23660046137d7565b61026d565b005b6101176100f73660046137d7565b805160208183018101805160018252928201919093012091525460ff1681565b60405190151581526020015b60405180910390f35b61013f61013a36600461380b565b610355565b6040516101239190613874565b6100e7610401565b610167610162366004613887565b610415565b604080519215158352602083019190915201610123565b6000546001600160a01b03165b6040516001600160a01b039091168152602001610123565b60035461018b906001600160a01b031681565b6100e76101c43660046137d7565b61051c565b6101d1610631565b60405161012391906138c9565b61018b7f000000000000000000000000000000000000000000000000000000000000000081565b6100e7610213366004613942565b61070a565b61024c6040516811115312559154915160ba1b60208201526029016040516020818303038152906040528051906020012081565b604051908152602001610123565b610117610268366004613c50565b610783565b610275610b43565b6001816040516102859190613cbc565b9081526040519081900360200190205460ff166102e95760405162461bcd60e51b815260206004820152601760248201527f50726f76696465722068617368206e6f7420666f756e6400000000000000000060448201526064015b60405180910390fd5b6001816040516102f99190613cbc565b908152604051908190036020019020805460ff1916905561031b600282610b9d565b7f6f594b4b4f0580c66aabba75218163a99fa1fe330a171cc9e2bfd8e167db22f88160405161034a9190613874565b60405180910390a150565b6002818154811061036557600080fd5b90600052602060002001600091509050805461038090613cd8565b80601f01602080910402602001604051908101604052809291908181526020018280546103ac90613cd8565b80156103f95780601f106103ce576101008083540402835291602001916103f9565b820191906000526020600020905b8154815290600101906020018083116103dc57829003601f168201915b505050505081565b610409610b43565b6104136000610d57565b565b600080336001600160a01b037f000000000000000000000000000000000000000000000000000000000000000016146104905760405162461bcd60e51b815260206004820152601b60248201527f4f6e6c7920626173652076657269666965722063616e2063616c6c000000000060448201526064016102e0565b6000806104b26104a08680613d12565b6104ad60e0890189613d12565b610da7565b915091506104ca82866104c490613d58565b83610e81565b6104fd82604001516040516020016104e29190613cbc565b60405160208183030381529060405280519060200120611113565b60a082015160019061051090600061122e565b90969095509350505050565b610524610b43565b6001816040516105349190613cbc565b9081526040519081900360200190205460ff16156105945760405162461bcd60e51b815260206004820152601b60248201527f50726f7669646572206861736820616c7265616479206164646564000000000060448201526064016102e0565b600180826040516105a59190613cbc565b908152604051908190036020019020805491151560ff19909216919091179055600280546001810182556000919091527f405787fa12a823e0f2b7631cc41b3ba8828b3321ca811111fa75cd3aa3bb5ace016106018282613e72565b507fc9e1c78701d1853eeb1eb35ad3449e4b336281f672d5837243d21239dc6f40968160405161034a9190613874565b60606002805480602002602001604051908101604052809291908181526020016000905b8282101561070157838290600052602060002001805461067490613cd8565b80601f01602080910402602001604051908101604052809291908181526020018280546106a090613cd8565b80156106ed5780601f106106c2576101008083540402835291602001916106ed565b820191906000526020600020905b8154815290600101906020018083116106d057829003601f168201915b505050505081526020019060010190610655565b50505050905090565b610712610b43565b6001600160a01b0381166107775760405162461bcd60e51b815260206004820152602660248201527f4f776e61626c653a206e6577206f776e657220697320746865207a65726f206160448201526564647265737360d01b60648201526084016102e0565b61078081610d57565b50565b60008082116107e65760405162461bcd60e51b815260206004820152602960248201527f5265717569726564207468726573686f6c64206d75737420626520677265617460448201526806572207468616e20360bc1b60648201526084016102e0565b825182111561086b5760405162461bcd60e51b8152602060048201526044602482018190527f5265717569726564207468726573686f6c64206d757374206265206c65737320908201527f7468616e206f7220657175616c20746f206e756d626572206f66207769746e656064820152637373657360e01b608482015260a4016102e0565b600084602001516020015151116108b45760405162461bcd60e51b815260206004820152600d60248201526c4e6f207369676e61747572657360981b60448201526064016102e0565b6040805180820190915260208086018051518352518101519082015284516000906108de90611248565b6020870151515190915081146109365760405162461bcd60e51b815260206004820152601c60248201527f436c61696d496e666f206861736820646f65736e2774206d617463680000000060448201526064016102e0565b8061097c5760405162461bcd60e51b8152602060048201526016602482015275436c61696d496e666f2068617368206973207a65726f60501b60448201526064016102e0565b60006109878361128b565b905084815110156109eb5760405162461bcd60e51b815260206004820152602860248201527f4665776572207369676e617475726573207468616e20726571756972656420746044820152671a1c995cda1bdb1960c21b60648201526084016102e0565b600081516001600160401b03811115610a0657610a066136b5565b604051908082528060200260200182016040528015610a2f578160200160208202803683370190505b5090506000805b8351811015610ad7576000848281518110610a5357610a53613f31565b60200260200101519050610a70818561136490919063ffffffff16565b15610a7b5750610ac5565b610a858a82611364565b15610ac35780848481518110610a9d57610a9d613f31565b6001600160a01b039092166020928302919091019091015282610abf81613f5d565b9350505b505b80610acf81613f5d565b915050610a36565b5086811015610b345760405162461bcd60e51b815260206004820152602360248201527f4e6f7420656e6f7567682076616c6964207769746e657373207369676e61747560448201526272657360e81b60648201526084016102e0565b50600198975050505050505050565b6000546001600160a01b031633146104135760405162461bcd60e51b815260206004820181905260248201527f4f776e61626c653a2063616c6c6572206973206e6f7420746865206f776e657260448201526064016102e0565b600080610c7a84805480602002602001604051908101604052809291908181526020016000905b82821015610c70578382906000526020600020018054610be390613cd8565b80601f0160208091040260200160405190810160405280929190818152602001828054610c0f90613cd8565b8015610c5c5780601f10610c3157610100808354040283529160200191610c5c565b820191906000526020600020905b815481529060010190602001808311610c3f57829003601f168201915b505050505081526020019060010190610bc4565b505050508461137a565b9150915080610cc25760405162461bcd60e51b815260206004820152601460248201527329ba3934b733903737ba1034b71030b93930bc9760611b60448201526064016102e0565b8354600090610cd390600190613f76565b9050808314610d2257848181548110610cee57610cee613f31565b90600052602060002001858481548110610d0a57610d0a613f31565b906000526020600020019081610d209190613f89565b505b84805480610d3257610d3261405b565b600190038181906000526020600020016000610d4e919061363b565b90555050505050565b600080546001600160a01b038381166001600160a01b0319831681178455604051919092169283917f8be0079c531659141344cd1fd0a4f28419497f9722a3daafe3b4186f6b6457e09190a35050565b610de76040518060e00160405280606081526020016060815260200160608152602001606081526020016060815260200160608152602001606081525090565b600080610df686880188614071565b90506000610e0486866113eb565b9050610e1282826001610783565b50610e1c826113f9565b9350610e2b8460c00151611543565b610e6f5760405162461bcd60e51b815260206004820152601560248201527409cde40ecc2d8d2c840e0e4deecd2c8cae490c2e6d605b1b60448201526064016102e0565b81604001519250505094509492505050565b6000670de0b6b3a76400008360c001518460400151610ea091906140a5565b610eaa91906140d2565b9050600083602001516001600160a01b031663313ce5676040518163ffffffff1660e01b8152600401602060405180830381865afa158015610ef0573d6000803e3d6000fd5b505050506040513d601f19601f82011682018060405250810190610f1491906140e6565b8551909150600090610f299060ff841661122e565b905082811015610f7b5760405162461bcd60e51b815260206004820152601860248201527f496e636f7272656374207061796d656e7420616d6f756e74000000000000000060448201526064016102e0565b60808086015190870151610f8e9161156e565b610fda5760405162461bcd60e51b815260206004820152601b60248201527f496e636f7272656374207061796d656e7420726563697069656e74000000000060448201526064016102e0565b6000610fe987602001516115c7565b90506000611015826040516020016110019190614109565b6040516020818303038152906040526118d9565b9050866060015181101561106b5760405162461bcd60e51b815260206004820152601b60248201527f496e636f7272656374207061796d656e742074696d657374616d70000000000060448201526064016102e0565b6040516811115312559154915160ba1b60208201526029016040516020818303038152906040528051906020012088606001516040516020016110ae9190613cbc565b60405160208183030381529060405280519060200120146111095760405162461bcd60e51b815260206004820152601560248201527414185e5b595b9d081b9bdd0819195b1a5d995c9959605a1b60448201526064016102e0565b5050505050505050565b60035460405163169394bb60e01b8152600481018390526001600160a01b039091169063169394bb90602401602060405180830381865afa15801561115c573d6000803e3d6000fd5b505050506040513d601f19601f820116820180604052508101906111809190614136565b156111cd5760405162461bcd60e51b815260206004820152601f60248201527f4e756c6c69666965722068617320616c7265616479206265656e20757365640060448201526064016102e0565b600354604051632dea6f9960e11b8152600481018390526001600160a01b0390911690635bd4df3290602401600060405180830381600087803b15801561121357600080fd5b505af1158015611227573d6000803e3d6000fd5b5050505050565b600061123f83601760f91b84611aff565b90505b92915050565b60008082600001518360200151846040015160405160200161126c93929190614153565b60408051601f1981840301815291905280516020909101209392505050565b6060600061129c8360000151611cdc565b905060008360200151516001600160401b038111156112bd576112bd6136b5565b6040519080825280602002602001820160405280156112e6578160200160208202803683370190505b50905060005b84602001515181101561135c57611320838660200151838151811061131357611313613f31565b6020026020010151611d68565b82828151811061133257611332613f31565b6001600160a01b03909216602092830291909101909101528061135481613f5d565b9150506112ec565b509392505050565b6000806113718484611db1565b95945050505050565b81516000908190815b818110156113d85784805190602001208682815181106113a5576113a5613f31565b602002602001015180519060200120036113c6579250600191506113e49050565b806113d081613f5d565b915050611383565b50600019600092509250505b9250929050565b606061123f828401846141ae565b6114396040518060e00160405280606081526020016060815260200160608152602001606081526020016060815260200160608152602001606081525090565b600061145083600001516040015160086001611e13565b90506040518060e001604052808260028151811061147057611470613f31565b602002602001015181526020018260068151811061149057611490613f31565b60200260200101518152602001826004815181106114b0576114b0613f31565b60200260200101518152602001826005815181106114d0576114d0613f31565b60200260200101518152602001826003815181106114f0576114f0613f31565b602002602001015181526020018260018151811061151057611510613f31565b602002602001015181526020018260078151811061153057611530613f31565b6020026020010151815250915050919050565b60006001826040516115559190613cbc565b9081526040519081900360200190205460ff1692915050565b6000816040516020016115819190613cbc565b60405160208183030381529060405280519060200120836040516020016115a89190613cbc565b6040516020818303038152906040528051906020012014905092915050565b80516060908290600a146116135760405162461bcd60e51b8152602060048201526013602482015272125b9d985b1a590819185d1948199bdc9b585d606a1b60448201526064016102e0565b60408051600a8082528183019092526000916020820181803683370190505090508160068151811061164757611647613f31565b602001015160f81c60f81b8160008151811061166557611665613f31565b60200101906001600160f81b031916908160001a9053508160078151811061168f5761168f613f31565b602001015160f81c60f81b816001815181106116ad576116ad613f31565b60200101906001600160f81b031916908160001a905350816008815181106116d7576116d7613f31565b602001015160f81c60f81b816002815181106116f5576116f5613f31565b60200101906001600160f81b031916908160001a9053508160098151811061171f5761171f613f31565b602001015160f81c60f81b8160038151811061173d5761173d613f31565b60200101906001600160f81b031916908160001a905350602d60f81b8160048151811061176c5761176c613f31565b60200101906001600160f81b031916908160001a9053508160008151811061179657611796613f31565b602001015160f81c60f81b816005815181106117b4576117b4613f31565b60200101906001600160f81b031916908160001a905350816001815181106117de576117de613f31565b602001015160f81c60f81b816006815181106117fc576117fc613f31565b60200101906001600160f81b031916908160001a905350602d60f81b8160078151811061182b5761182b613f31565b60200101906001600160f81b031916908160001a9053508160038151811061185557611855613f31565b602001015160f81c60f81b8160088151811061187357611873613f31565b60200101906001600160f81b031916908160001a9053508160048151811061189d5761189d613f31565b602001015160f81c60f81b816009815181106118bb576118bb613f31565b60200101906001600160f81b031916908160001a9053509392505050565b60006118e3613675565b82516000908190815b81811015611a305786818151811061190657611906613f31565b6020910101516001600160f81b031916602d60f81b148061194b575086818151811061193457611934613f31565b6020910101516001600160f81b031916601d60f91b145b8061197a575086818151811061196357611963613f31565b6020910101516001600160f81b031916601560fa1b145b806119a9575086818151811061199257611992613f31565b6020910101516001600160f81b031916600160fd1b145b156119eb576119b9878483612ce4565b8585600681106119cb576119cb613f31565b60200201526119db8160016141e2565b9250836119e781613f5d565b9450505b8681815181106119fd576119fd613f31565b01602001516001600160f81b031916601760f91b03611a1e57809150611a30565b80611a2881613f5d565b9150506118ec565b50611a3c868383612ce4565b848460068110611a4e57611a4e613f31565b602002015260058314611a995760405162461bcd60e51b8152602060048201526013602482015272496e76616c6964206461746520737472696e6760681b60448201526064016102e0565b611af5611aaf600086815b60200201519061122e565b611abc6000876001611aa4565b611ac96000886002611aa4565b611ad66000896003611aa4565b611ae360008a6004611aa4565b611af060008b6005611aa4565b612db0565b9695505050505050565b600083818080805b8451811015611c5557603060f81b858281518110611b2757611b27613f31565b01602001516001600160f81b03191610801590611b685750603960f81b858281518110611b5657611b56613f31565b01602001516001600160f81b03191611155b15611bab576030858281518110611b8157611b81613f31565b0160200151611b93919060f81c613f76565b611b9e85600a6140a5565b611ba891906141e2565b93505b8115611bbf5782611bbb81613f5d565b9350505b876001600160f81b031916858281518110611bdc57611bdc613f31565b01602001516001600160f81b03191603611c43578115611c3e5760405162461bcd60e51b815260206004820152601c60248201527f537472696e6720686173206d756c7469706c6520646563696d616c730000000060448201526064016102e0565b600191505b80611c4d81613f5d565b915050611b07565b5085821115611cb15760405162461bcd60e51b815260206004820152602260248201527f537472696e672068617320746f6f206d616e7920646563696d616c20706c6163604482015261657360f01b60648201526084016102e0565b611cbb8287613f76565b611cc690600a6142d9565b611cd090846140a5565b98975050505050505050565b6060611d0c8260000151604051602001611cf891815260200190565b604051602081830303815290604052612e0c565b611d198360200151612fcf565b611d2c846040015163ffffffff16613138565b611d3f856060015163ffffffff16613138565b604051602001611d5294939291906142e5565b6040516020818303038152906040529050919050565b600080611d758451613138565b84604051602001611d8792919061435e565b604051602081830303815290604052805190602001209050611da98184613263565b949350505050565b81516000908190815b818110156113d857846001600160a01b0316868281518110611dde57611dde613f31565b60200260200101516001600160a01b031603611e01579250600191506113e49050565b80611e0b81613f5d565b915050611dba565b606060008360ff1611611e725760405162461bcd60e51b815260206004820152602160248201527f4d61782076616c756573206d7573742062652067726561746572207468616e206044820152600360fc1b60648201526084016102e0565b8360008080808080611e858a60026143b9565b60ff166001600160401b03811115611e9f57611e9f6136b5565b604051908082528060200260200182016040528015611ec8578160200160208202803683370190505b50905060005b604051806040016040528060138152602001723d9131b7b73a32bc3a20b2323932b9b9911d1160691b81525051811015611fa757604051806040016040528060138152602001723d9131b7b73a32bc3a20b2323932b9b9911d1160691b8152508181518110611f3f57611f3f613f31565b01602001516001600160f81b03191688611f59838a6141e2565b81518110611f6957611f69613f31565b01602001516001600160f81b03191614611f955760405162461bcd60e51b81526004016102e0906143dc565b80611f9f81613f5d565b915050611ece565b50604051806040016040528060138152602001723d9131b7b73a32bc3a20b2323932b9b9911d1160691b8152505186611fe091906141e2565b95508593505b865186108015612056575086868151811061200357612003613f31565b6020910101516001600160f81b031916601160f91b14801561205457508661202c600188613f76565b8151811061203c5761203c613f31565b6020910101516001600160f81b031916601760fa1b14155b155b1561206d578561206581613f5d565b965050611fe6565b8651861061208d5760405162461bcd60e51b81526004016102e0906143dc565b8592508383036120f55760405162461bcd60e51b815260206004820152602d60248201527f45787472616374696f6e206661696c65642e20456d70747920636f6e7465787460448201526c416464726573732076616c756560981b60648201526084016102e0565b83816121028760026140a5565b8151811061211257612112613f31565b6020908102919091010152828161212a8760026140a5565b6121359060016141e2565b8151811061214557612145613f31565b60209081029190910101528461215a81613f5d565b955061216990506002876141e2565b955060005b604051806040016040528060128152602001711131b7b73a32bc3a26b2b9b9b0b3b2911d1160711b8152505181101561224557604051806040016040528060128152602001711131b7b73a32bc3a26b2b9b9b0b3b2911d1160711b81525081815181106121dd576121dd613f31565b01602001516001600160f81b031916886121f7838a6141e2565b8151811061220757612207613f31565b01602001516001600160f81b031916146122335760405162461bcd60e51b81526004016102e090614427565b8061223d81613f5d565b91505061216e565b50604051806040016040528060128152602001711131b7b73a32bc3a26b2b9b9b0b3b2911d1160711b815250518661227d91906141e2565b95508593505b8651861080156122f357508686815181106122a0576122a0613f31565b6020910101516001600160f81b031916601160f91b1480156122f15750866122c9600188613f76565b815181106122d9576122d9613f31565b6020910101516001600160f81b031916601760fa1b14155b155b1561230a578561230281613f5d565b965050612283565b8651861061232a5760405162461bcd60e51b81526004016102e090614427565b8592508383036123925760405162461bcd60e51b815260206004820152602d60248201527f45787472616374696f6e206661696c65642e20456d70747920636f6e7465787460448201526c4d6573736167652076616c756560981b60648201526084016102e0565b838161239f8760026140a5565b815181106123af576123af613f31565b602090810291909101015282816123c78760026140a5565b6123d29060016141e2565b815181106123e2576123e2613f31565b6020908102919091010152846123f781613f5d565b955061240690506002876141e2565b955060005b604051806040016040528060188152602001771132bc3a3930b1ba32b22830b930b6b2ba32b939911d3d9160411b8152505181101561253757604051806040016040528060188152602001771132bc3a3930b1ba32b22830b930b6b2ba32b939911d3d9160411b815250818151811061248657612486613f31565b01602001516001600160f81b031916886124a0838a6141e2565b815181106124b0576124b0613f31565b01602001516001600160f81b031916146125255760405162461bcd60e51b815260206004820152603060248201527f45787472616374696f6e206661696c65642e204d616c666f726d65642065787460448201526f726163746564506172616d657465727360801b60648201526084016102e0565b8061252f81613f5d565b91505061240b565b50604051806040016040528060188152602001771132bc3a3930b1ba32b22830b930b6b2ba32b939911d3d9160411b815250518661257591906141e2565b9550600091505b865186101561291f5786868151811061259757612597613f31565b6020910101516001600160f81b031916601160f91b1480156125e85750866125c0600188613f76565b815181106125d0576125d0613f31565b6020910101516001600160f81b031916601760fa1b14155b6125fe57856125f681613f5d565b96505061257c565b81612706578661260f8760016141e2565b8151811061261f5761261f613f31565b6020910101516001600160f81b031916601d60f91b14801561266f5750866126488760026141e2565b8151811061265857612658613f31565b6020910101516001600160f81b031916601160f91b145b6126c75760405162461bcd60e51b815260206004820152602360248201527f45787472616374696f6e206661696c65642e204d616c666f726d65642064617460448201526261203160e81b60648201526084016102e0565b6126d26003876141e2565b95506001915085816126e58760026140a5565b815181106126f5576126f5613f31565b60200260200101818152505061257c565b6000876127148860016141e2565b8151811061272457612724613f31565b6020910101516001600160f81b031916600b60fa1b14801561277457508761274d8860026141e2565b8151811061275d5761275d613f31565b6020910101516001600160f81b031916601160f91b145b90506000886127848960016141e2565b8151811061279457612794613f31565b6020910101516001600160f81b031916607d60f81b1480156127e45750886127bd8960026141e2565b815181106127cd576127cd613f31565b6020910101516001600160f81b031916600b60fa1b145b905081806127ef5750805b6128475760405162461bcd60e51b815260206004820152602360248201527f45787472616374696f6e206661696c65642e204d616c666f726d65642064617460448201526230901960e91b60648201526084016102e0565b87836128548960026140a5565b61285f9060016141e2565b8151811061286f5761286f613f31565b60209081029190910101528661288481613f5d565b9750508115612904578b60ff1687036128ee5760405162461bcd60e51b815260206004820152602660248201527f45787472616374696f6e206661696c65642e204578636565646564206d61782060448201526576616c75657360d01b60648201526084016102e0565b6128f96003896141e2565b975060009350612918565b61290f6003896141e2565b9750505061291f565b505061257c565b8815612b2c5760005b6040518060400160405280601081526020016f11383937bb34b232b92430b9b4111d1160811b81525051811015612a3d576040518060400160405280601081526020016f11383937bb34b232b92430b9b4111d1160811b815250818151811061299357612993613f31565b01602001516001600160f81b031916886129ad838a6141e2565b815181106129bd576129bd613f31565b01602001516001600160f81b03191614612a2b5760405162461bcd60e51b815260206004820152602960248201527f45787472616374696f6e206661696c65642e204d616c666f726d65642070726f6044820152680ecd2c8cae490c2e6d60bb1b60648201526084016102e0565b80612a3581613f5d565b915050612928565b506040518060400160405280601081526020016f11383937bb34b232b92430b9b4111d1160811b8152505186612a7391906141e2565b95508581612a828760026140a5565b81518110612a9257612a92613f31565b6020026020010181815250505b865186108015612ad45750868681518110612abc57612abc613f31565b6020910101516001600160f81b031916601160f91b14155b15612aeb5785612ae381613f5d565b965050612a9f565b8581612af88760026140a5565b612b039060016141e2565b81518110612b1357612b13613f31565b602090810291909101015284612b2881613f5d565b9550505b6000856001600160401b03811115612b4657612b466136b5565b604051908082528060200260200182016040528015612b7957816020015b6060815260200190600190039081612b645790505b50905060005b86811015612cd45782612b938260026140a5565b81518110612ba357612ba3613f31565b6020026020010151955082816002612bbb91906140a5565b612bc69060016141e2565b81518110612bd657612bd6613f31565b6020026020010151945060008686612bee9190613f76565b6001600160401b03811115612c0557612c056136b5565b6040519080825280601f01601f191660200182016040528015612c2f576020820181803683370190505b509050865b86811015612ca1578a8181518110612c4e57612c4e613f31565b01602001516001600160f81b03191682612c688a84613f76565b81518110612c7857612c78613f31565b60200101906001600160f81b031916908160001a90535080612c9981613f5d565b915050612c34565b5080838381518110612cb557612cb5613f31565b6020026020010181905250508080612ccc90613f5d565b915050612b7f565b509b9a5050505050505050505050565b6060836000612cf38585613f76565b6001600160401b03811115612d0a57612d0a6136b5565b6040519080825280601f01601f191660200182016040528015612d34576020820181803683370190505b509050845b84811015612da657828181518110612d5357612d53613f31565b01602001516001600160f81b03191682612d6d8884613f76565b81518110612d7d57612d7d613f31565b60200101906001600160f81b031916908160001a90535080612d9e81613f5d565b915050612d39565b5095945050505050565b600081612dbe603c856140a5565b612dca610e10876140a5565b62015180612dd98b8b8b61327f565b612de391906140a5565b612ded91906141e2565b612df791906141e2565b612e0191906141e2565b979650505050505050565b6060600082516002612e1e91906140a5565b6001600160401b03811115612e3557612e356136b5565b6040519080825280601f01601f191660200182016040528015612e5f576020820181803683370190505b5060408051808201909152601081526f181899199a1a9b1b9c1cb0b131b232b360811b602082015290915060005b8451811015612fa557818251868381518110612eab57612eab613f31565b0160200151612ebd919060f81c6140d2565b81518110612ecd57612ecd613f31565b01602001516001600160f81b03191683612ee88360026140a5565b81518110612ef857612ef8613f31565b60200101906001600160f81b031916908160001a905350818251868381518110612f2457612f24613f31565b0160200151612f36919060f81c614472565b81518110612f4657612f46613f31565b01602001516001600160f81b03191683612f618360026140a5565b612f6c9060016141e2565b81518110612f7c57612f7c613f31565b60200101906001600160f81b031916908160001a90535080612f9d81613f5d565b915050612e8d565b5081604051602001612fb79190614486565b60405160208183030381529060405292505050919050565b60408051602880825260608281019093526000919060208201818036833701905050905060005b601481101561310f57600061300c826013613f76565b6130179060086140a5565b6130229060026142d9565b613035906001600160a01b0387166140d2565b60f81b9050600060108260f81c61304c91906144b0565b60f81b905060008160f81c601061306391906143b9565b8360f81c61307191906144d2565b60f81b905061307f826133b0565b8561308b8660026140a5565b8151811061309b5761309b613f31565b60200101906001600160f81b031916908160001a9053506130bb816133b0565b856130c78660026140a5565b6130d29060016141e2565b815181106130e2576130e2613f31565b60200101906001600160f81b031916908160001a905350505050808061310790613f5d565b915050612ff6565b50806040516020016131219190614486565b604051602081830303815290604052915050919050565b60608160000361315f5750506040805180820190915260018152600360fc1b602082015290565b8160005b8115613189578061317381613f5d565b91506131829050600a836140d2565b9150613163565b6000816001600160401b038111156131a3576131a36136b5565b6040519080825280601f01601f1916602001820160405280156131cd576020820181803683370190505b509050815b851561325a576131e3600182613f76565b905060006131f2600a886140d2565b6131fd90600a6140a5565b6132079088613f76565b6132129060306144eb565b905060008160f81b90508084848151811061322f5761322f613f31565b60200101906001600160f81b031916908160001a905350613251600a896140d2565b975050506131d2565b50949350505050565b600080600061327285856133eb565b9150915061135c8161342d565b60006107b284101561329057600080fd5b838383600062253d8c60046064600c6132aa600e88614504565b6132b49190614524565b6132c088611324614552565b6132ca9190614552565b6132d49190614524565b6132df90600361457a565b6132e99190614524565b600c806132f7600e88614504565b6133019190614524565b61330c90600c61457a565b613317600288614504565b6133219190614504565b61332d9061016f61457a565b6133379190614524565b6004600c613346600e89614504565b6133509190614524565b61335c896112c0614552565b6133669190614552565b613372906105b561457a565b61337c9190614524565b613388617d4b87614504565b6133929190614552565b61339c9190614552565b6133a69190614504565b611cd09190614504565b6000600a60f883901c10156133d7576133ce60f883901c60306144eb565b60f81b92915050565b6133ce60f883901c60576144eb565b919050565b60008082516041036134215760208301516040840151606085015160001a61341587828585613577565b945094505050506113e4565b506000905060026113e4565b6000816004811115613441576134416145aa565b036134495750565b600181600481111561345d5761345d6145aa565b036134aa5760405162461bcd60e51b815260206004820152601860248201527f45434453413a20696e76616c6964207369676e6174757265000000000000000060448201526064016102e0565b60028160048111156134be576134be6145aa565b0361350b5760405162461bcd60e51b815260206004820152601f60248201527f45434453413a20696e76616c6964207369676e6174757265206c656e6774680060448201526064016102e0565b600381600481111561351f5761351f6145aa565b036107805760405162461bcd60e51b815260206004820152602260248201527f45434453413a20696e76616c6964207369676e6174757265202773272076616c604482015261756560f01b60648201526084016102e0565b6000807f7fffffffffffffffffffffffffffffff5d576e7357a4501ddfe92f46681b20a08311156135ae5750600090506003613632565b6040805160008082526020820180845289905260ff881692820192909252606081018690526080810185905260019060a0016020604051602081039080840390855afa158015613602573d6000803e3d6000fd5b5050604051601f1901519150506001600160a01b03811661362b57600060019250925050613632565b9150600090505b94509492505050565b50805461364790613cd8565b6000825580601f10613657575050565b601f016020900490600052602060002090810190610780919061369c565b6040518060c001604052806006905b60608152602001906001900390816136845790505090565b5b808211156136b1576000815560010161369d565b5090565b634e487b7160e01b600052604160045260246000fd5b604051608081016001600160401b03811182821017156136ed576136ed6136b5565b60405290565b604051606081016001600160401b03811182821017156136ed576136ed6136b5565b60405161010081016001600160401b03811182821017156136ed576136ed6136b5565b604051601f8201601f191681016001600160401b0381118282101715613760576137606136b5565b604052919050565b600082601f83011261377957600080fd5b81356001600160401b03811115613792576137926136b5565b6137a5601f8201601f1916602001613738565b8181528460208386010111156137ba57600080fd5b816020850160208301376000918101602001919091529392505050565b6000602082840312156137e957600080fd5b81356001600160401b038111156137ff57600080fd5b611da984828501613768565b60006020828403121561381d57600080fd5b5035919050565b60005b8381101561383f578181015183820152602001613827565b50506000910152565b60008151808452613860816020860160208601613824565b601f01601f19169290920160200192915050565b60208152600061123f6020830184613848565b60006020828403121561389957600080fd5b81356001600160401b038111156138af57600080fd5b820161010081850312156138c257600080fd5b9392505050565b6000602080830181845280855180835260408601915060408160051b870101925083870160005b8281101561391e57603f1988860301845261390c858351613848565b945092850192908501906001016138f0565b5092979650505050505050565b80356001600160a01b03811681146133e657600080fd5b60006020828403121561395457600080fd5b61123f8261392b565b803563ffffffff811681146133e657600080fd5b60006001600160401b0382111561398a5761398a6136b5565b5060051b60200190565b600082601f8301126139a557600080fd5b813560206139ba6139b583613971565b613738565b82815260059290921b840181019181810190868411156139d957600080fd5b8286015b84811015613a185780356001600160401b038111156139fc5760008081fd5b613a0a8986838b0101613768565b8452509183019183016139dd565b509695505050505050565b600081830360a0811215613a3657600080fd5b604051604081016001600160401b038282108183111715613a5957613a596136b5565b816040528294506080841215613a6e57600080fd5b613a766136cb565b935085358452613a886020870161392b565b6020850152613a996040870161395d565b6040850152613aaa6060870161395d565b606085015292825260808501359280841115613ac557600080fd5b5050613ad385838601613994565b6020820152505092915050565b801515811461078057600080fd5b80356133e681613ae0565b600060608284031215613b0b57600080fd5b613b136136f3565b905081356001600160401b0380821115613b2c57600080fd5b9083019060608286031215613b4057600080fd5b613b486136f3565b823582811115613b5757600080fd5b613b6387828601613768565b825250602083013582811115613b7857600080fd5b613b8487828601613768565b602083015250604083013582811115613b9c57600080fd5b613ba887828601613768565b60408301525083526020840135915080821115613bc457600080fd5b50613bd184828501613a23565b602083015250613be360408301613aee565b604082015292915050565b600082601f830112613bff57600080fd5b81356020613c0f6139b583613971565b82815260059290921b84018101918181019086841115613c2e57600080fd5b8286015b84811015613a1857613c438161392b565b8352918301918301613c32565b600080600060608486031215613c6557600080fd5b83356001600160401b0380821115613c7c57600080fd5b613c8887838801613af9565b94506020860135915080821115613c9e57600080fd5b50613cab86828701613bee565b925050604084013590509250925092565b60008251613cce818460208701613824565b9190910192915050565b600181811c90821680613cec57607f821691505b602082108103613d0c57634e487b7160e01b600052602260045260246000fd5b50919050565b6000808335601e19843603018112613d2957600080fd5b8301803591506001600160401b03821115613d4357600080fd5b6020019150368190038213156113e457600080fd5b60006101008236031215613d6b57600080fd5b613d73613715565b82356001600160401b0380821115613d8a57600080fd5b613d9636838701613768565b8352613da46020860161392b565b602084015260408501356040840152606085013560608401526080850135915080821115613dd157600080fd5b613ddd36838701613768565b608084015260a085013560a084015260c085013560c084015260e0850135915080821115613e0a57600080fd5b50613e1736828601613768565b60e08301525092915050565b601f821115613e6d57600081815260208120601f850160051c81016020861015613e4a5750805b601f850160051c820191505b81811015613e6957828155600101613e56565b5050505b505050565b81516001600160401b03811115613e8b57613e8b6136b5565b613e9f81613e998454613cd8565b84613e23565b602080601f831160018114613ed45760008415613ebc5750858301515b600019600386901b1c1916600185901b178555613e69565b600085815260208120601f198616915b82811015613f0357888601518255948401946001909101908401613ee4565b5085821015613f215787850151600019600388901b60f8161c191681555b5050505050600190811b01905550565b634e487b7160e01b600052603260045260246000fd5b634e487b7160e01b600052601160045260246000fd5b600060018201613f6f57613f6f613f47565b5060010190565b8181038181111561124257611242613f47565b818103613f94575050565b613f9e8254613cd8565b6001600160401b03811115613fb557613fb56136b5565b613fc381613e998454613cd8565b6000601f821160018114613ff75760008315613fdf5750848201545b600019600385901b1c1916600184901b178455611227565b600085815260209020601f19841690600086815260209020845b838110156140315782860154825560019586019590910190602001614011565b5085831015613f215793015460001960f8600387901b161c19169092555050600190811b01905550565b634e487b7160e01b600052603160045260246000fd5b60006020828403121561408357600080fd5b81356001600160401b0381111561409957600080fd5b611da984828501613af9565b808202811582820484141761124257611242613f47565b634e487b7160e01b600052601260045260246000fd5b6000826140e1576140e16140bc565b500490565b6000602082840312156140f857600080fd5b815160ff811681146138c257600080fd5b6000825161411b818460208701613824565b685432333a35393a353960b81b920191825250600901919050565b60006020828403121561414857600080fd5b81516138c281613ae0565b60008451614165818460208901613824565b600560f91b9083018181528551909190614186816001850160208a01613824565b600192019182015283516141a1816002840160208801613824565b0160020195945050505050565b6000602082840312156141c057600080fd5b81356001600160401b038111156141d657600080fd5b611da984828501613bee565b8082018082111561124257611242613f47565b600181815b8085111561423057816000190482111561421657614216613f47565b8085161561422357918102915b93841c93908002906141fa565b509250929050565b60008261424757506001611242565b8161425457506000611242565b816001811461426a576002811461427457614290565b6001915050611242565b60ff84111561428557614285613f47565b50506001821b611242565b5060208310610133831016604e8410600b84101617156142b3575081810a611242565b6142bd83836141f5565b80600019048211156142d1576142d1613f47565b029392505050565b600061123f8383614238565b600085516142f7818460208a01613824565b600560f91b9083018181528651909190614318816001850160208b01613824565b600192019182018190528551614335816002850160208a01613824565b60029201918201528351614350816003840160208801613824565b016003019695505050505050565b7f19457468657265756d205369676e6564204d6573736167653a0a00000000000081526000835161439681601a850160208801613824565b8351908301906143ad81601a840160208801613824565b01601a01949350505050565b60ff81811683821602908116908181146143d5576143d5613f47565b5092915050565b6020808252602b908201527f45787472616374696f6e206661696c65642e204d616c666f726d656420636f6e60408201526a746578744164647265737360a81b606082015260800190565b6020808252602b908201527f45787472616374696f6e206661696c65642e204d616c666f726d656420636f6e60408201526a746578744d65737361676560a81b606082015260800190565b600082614481576144816140bc565b500690565b61060f60f31b8152600082516144a3816002850160208701613824565b9190910160020192915050565b600060ff8316806144c3576144c36140bc565b8060ff84160491505092915050565b60ff828116828216039081111561124257611242613f47565b60ff818116838216019081111561124257611242613f47565b81810360008312801583831316838312821617156143d5576143d5613f47565b600082614533576145336140bc565b600160ff1b82146000198414161561454d5761454d613f47565b500590565b808201828112600083128015821682158216171561457257614572613f47565b505092915050565b80820260008212600160ff1b8414161561459657614596613f47565b818105831482151761124257611242613f47565b634e487b7160e01b600052602160045260246000fdfea264697066735822122026e7660607867ea23ac8d88c191c53ae20b3c319487700be94391c606b36e0a664736f6c63430008120033",
  "devdoc": {
    "kind": "dev",
    "methods": {
      "addProviderHash(string)": {
        "params": {
          "_newProviderHash": "New provider hash to be added"
        }
      },
      "owner()": {
        "details": "Returns the address of the current owner."
      },
      "removeProviderHash(string)": {
        "params": {
          "_removeProviderHash": "Provider hash to be removed"
        }
      },
      "renounceOwnership()": {
        "details": "Leaves the contract without owner. It will not be possible to call `onlyOwner` functions. Can only be called by the current owner. NOTE: Renouncing ownership will leave the contract without an owner, thereby disabling any functionality that is only available to the owner."
      },
      "transferOwnership(address)": {
        "details": "Transfers ownership of the contract to a new account (`newOwner`). Can only be called by the current owner."
      },
      "verifyPayment((bytes,address,uint256,uint256,string,bytes32,uint256,bytes))": {
        "params": {
          "_verifyPaymentData": "Payment proof and intent details required for verification"
        }
      },
      "verifyProofSignatures(((string,string,string),((bytes32,address,uint32,uint32),bytes[]),bool),address[],uint256)": {
        "params": {
          "_requiredThreshold": "Minimum number of signatures required from accepted witnesses",
          "_witnesses": "List of accepted witnesses",
          "proof": "Proof to be verified"
        }
      }
    },
    "version": 1
  },
  "userdoc": {
    "kind": "user",
    "methods": {
      "addProviderHash(string)": {
        "notice": "ONLY OWNER: Add provider hash string. Provider hash must not have been previously added."
      },
      "removeProviderHash(string)": {
        "notice": "ONLY OWNER: Remove provider hash string. Provider hash must have been previously added."
      },
      "verifyPayment((bytes,address,uint256,uint256,string,bytes32,uint256,bytes))": {
        "notice": "ONLY RAMP: Verifies a reclaim proof of an offchain Citi Zelle payment. Ensures the right _intentAmount * _conversionRate USD was paid to _partyToken after _intentTimestamp + timestampBuffer on Citi Zelle. Note: For Citi Zelle fiat currency is always USD. For other verifiers which support multiple currencies, _fiatCurrency needs to be checked against the fiat currency in the proof."
      },
      "verifyProofSignatures(((string,string,string),((bytes32,address,uint32,uint32),bytes[]),bool),address[],uint256)": {
        "notice": "Verify proof generated by witnesses. Claim is constructed by hashing claimInfo (provider, context, parameters) to get the identifier. And then signing on (identifier, owner, timestamp, epoch) to get claim signature.  This function verifies a claim by performing the following checks on the claim - Calculates the hash of the claimInfo and checks if it matches the identifier in the claim - Checks if the signatures are valid and from the witnesses This function reverts if - No signatures are found on the proof - ClaimInfo hash does not match the identifier in the claim - Signatures are invalid (not from the witnesses)  DEV NOTE: This function does NOT validate that the claim provider hash is valid. That is the  responsibility of the caller. Ensure witnesses are unique otherwise the threshold can be met  with duplicate witnesses.  Parts of the code are adapted from: https://basescan.org/address/0x7281630e4346dd4c0b7ae3b4689c1d0102741410#code    "
      }
    },
    "version": 1
  },
  "storageLayout": {
    "storage": [
      {
        "astId": 7,
        "contract": "contracts/verifiers/ZelleVerifiers/ZelleCitiReclaimVerifier.sol:ZelleCitiReclaimVerifier",
        "label": "_owner",
        "offset": 0,
        "slot": "0",
        "type": "t_address"
      },
      {
        "astId": 10056,
        "contract": "contracts/verifiers/ZelleVerifiers/ZelleCitiReclaimVerifier.sol:ZelleCitiReclaimVerifier",
        "label": "isProviderHash",
        "offset": 0,
        "slot": "1",
        "type": "t_mapping(t_string_memory_ptr,t_bool)"
      },
      {
        "astId": 10059,
        "contract": "contracts/verifiers/ZelleVerifiers/ZelleCitiReclaimVerifier.sol:ZelleCitiReclaimVerifier",
        "label": "providerHashes",
        "offset": 0,
        "slot": "2",
        "type": "t_array(t_string_storage)dyn_storage"
      },
      {
        "astId": 13678,
        "contract": "contracts/verifiers/ZelleVerifiers/ZelleCitiReclaimVerifier.sol:ZelleCitiReclaimVerifier",
        "label": "nullifierRegistry",
        "offset": 0,
        "slot": "3",
        "type": "t_contract(INullifierRegistry)14371"
      }
    ],
    "types": {
      "t_address": {
        "encoding": "inplace",
        "label": "address",
        "numberOfBytes": "20"
      },
      "t_array(t_string_storage)dyn_storage": {
        "base": "t_string_storage",
        "encoding": "dynamic_array",
        "label": "string[]",
        "numberOfBytes": "32"
      },
      "t_bool": {
        "encoding": "inplace",
        "label": "bool",
        "numberOfBytes": "1"
      },
      "t_contract(INullifierRegistry)14371": {
        "encoding": "inplace",
        "label": "contract INullifierRegistry",
        "numberOfBytes": "20"
      },
      "t_mapping(t_string_memory_ptr,t_bool)": {
        "encoding": "mapping",
        "key": "t_string_memory_ptr",
        "label": "mapping(string => bool)",
        "numberOfBytes": "32",
        "value": "t_bool"
      },
      "t_string_memory_ptr": {
        "encoding": "bytes",
        "label": "string",
        "numberOfBytes": "32"
      },
      "t_string_storage": {
        "encoding": "bytes",
        "label": "string",
        "numberOfBytes": "32"
      }
    }
  }
}