{
  "address": "0x120F2AC79c5921f8CFAe530Ceac5E635DC6972b5",
  "abi": [
    {
      "inputs": [
        {
          "internalType": "address",
          "name": "_escrow",
          "type": "address"
        },
        {
          "internalType": "contract INullifierRegistry",
          "name": "_nullifierRegistry",
          "type": "address"
        },
        {
          "internalType": "uint256",
          "name": "_timestampBuffer",
          "type": "uint256"
        },
        {
          "internalType": "bytes32[]",
          "name": "_currencies",
          "type": "bytes32[]"
        },
        {
          "internalType": "string[]",
          "name": "_providerHashes",
          "type": "string[]"
        }
      ],
      "stateMutability": "nonpayable",
      "type": "constructor"
    },
    {
      "anonymous": false,
      "inputs": [
        {
          "indexed": false,
          "internalType": "bytes32",
          "name": "currencyCode",
          "type": "bytes32"
        }
      ],
      "name": "CurrencyAdded",
      "type": "event"
    },
    {
      "anonymous": false,
      "inputs": [
        {
          "indexed": false,
          "internalType": "bytes32",
          "name": "currencyCode",
          "type": "bytes32"
        }
      ],
      "name": "CurrencyRemoved",
      "type": "event"
    },
    {
      "anonymous": false,
      "inputs": [
        {
          "indexed": true,
          "internalType": "address",
          "name": "previousOwner",
          "type": "address"
        },
        {
          "indexed": true,
          "internalType": "address",
          "name": "newOwner",
          "type": "address"
        }
      ],
      "name": "OwnershipTransferred",
      "type": "event"
    },
    {
      "anonymous": false,
      "inputs": [
        {
          "indexed": false,
          "internalType": "string",
          "name": "providerHash",
          "type": "string"
        }
      ],
      "name": "ProviderHashAdded",
      "type": "event"
    },
    {
      "anonymous": false,
      "inputs": [
        {
          "indexed": false,
          "internalType": "string",
          "name": "providerHash",
          "type": "string"
        }
      ],
      "name": "ProviderHashRemoved",
      "type": "event"
    },
    {
      "anonymous": false,
      "inputs": [
        {
          "indexed": false,
          "internalType": "uint256",
          "name": "timestampBuffer",
          "type": "uint256"
        }
      ],
      "name": "TimestampBufferSet",
      "type": "event"
    },
    {
      "inputs": [
        {
          "internalType": "bytes32",
          "name": "_currencyCode",
          "type": "bytes32"
        }
      ],
      "name": "addCurrency",
      "outputs": [],
      "stateMutability": "nonpayable",
      "type": "function"
    },
    {
      "inputs": [
        {
          "internalType": "string",
          "name": "_newProviderHash",
          "type": "string"
        }
      ],
      "name": "addProviderHash",
      "outputs": [],
      "stateMutability": "nonpayable",
      "type": "function"
    },
    {
      "inputs": [],
      "name": "escrow",
      "outputs": [
        {
          "internalType": "address",
          "name": "",
          "type": "address"
        }
      ],
      "stateMutability": "view",
      "type": "function"
    },
    {
      "inputs": [],
      "name": "getCurrencies",
      "outputs": [
        {
          "internalType": "bytes32[]",
          "name": "",
          "type": "bytes32[]"
        }
      ],
      "stateMutability": "view",
      "type": "function"
    },
    {
      "inputs": [],
      "name": "getProviderHashes",
      "outputs": [
        {
          "internalType": "string[]",
          "name": "",
          "type": "string[]"
        }
      ],
      "stateMutability": "view",
      "type": "function"
    },
    {
      "inputs": [
        {
          "internalType": "bytes32",
          "name": "",
          "type": "bytes32"
        }
      ],
      "name": "isCurrency",
      "outputs": [
        {
          "internalType": "bool",
          "name": "",
          "type": "bool"
        }
      ],
      "stateMutability": "view",
      "type": "function"
    },
    {
      "inputs": [
        {
          "internalType": "string",
          "name": "",
          "type": "string"
        }
      ],
      "name": "isProviderHash",
      "outputs": [
        {
          "internalType": "bool",
          "name": "",
          "type": "bool"
        }
      ],
      "stateMutability": "view",
      "type": "function"
    },
    {
      "inputs": [],
      "name": "nullifierRegistry",
      "outputs": [
        {
          "internalType": "contract INullifierRegistry",
          "name": "",
          "type": "address"
        }
      ],
      "stateMutability": "view",
      "type": "function"
    },
    {
      "inputs": [],
      "name": "owner",
      "outputs": [
        {
          "internalType": "address",
          "name": "",
          "type": "address"
        }
      ],
      "stateMutability": "view",
      "type": "function"
    },
    {
      "inputs": [
        {
          "internalType": "uint256",
          "name": "",
          "type": "uint256"
        }
      ],
      "name": "providerHashes",
      "outputs": [
        {
          "internalType": "string",
          "name": "",
          "type": "string"
        }
      ],
      "stateMutability": "view",
      "type": "function"
    },
    {
      "inputs": [
        {
          "internalType": "bytes32",
          "name": "_currencyCode",
          "type": "bytes32"
        }
      ],
      "name": "removeCurrency",
      "outputs": [],
      "stateMutability": "nonpayable",
      "type": "function"
    },
    {
      "inputs": [
        {
          "internalType": "string",
          "name": "_removeProviderHash",
          "type": "string"
        }
      ],
      "name": "removeProviderHash",
      "outputs": [],
      "stateMutability": "nonpayable",
      "type": "function"
    },
    {
      "inputs": [],
      "name": "renounceOwnership",
      "outputs": [],
      "stateMutability": "nonpayable",
      "type": "function"
    },
    {
      "inputs": [
        {
          "internalType": "uint256",
          "name": "_timestampBuffer",
          "type": "uint256"
        }
      ],
      "name": "setTimestampBuffer",
      "outputs": [],
      "stateMutability": "nonpayable",
      "type": "function"
    },
    {
      "inputs": [],
      "name": "timestampBuffer",
      "outputs": [
        {
          "internalType": "uint256",
          "name": "",
          "type": "uint256"
        }
      ],
      "stateMutability": "view",
      "type": "function"
    },
    {
      "inputs": [
        {
          "internalType": "address",
          "name": "newOwner",
          "type": "address"
        }
      ],
      "name": "transferOwnership",
      "outputs": [],
      "stateMutability": "nonpayable",
      "type": "function"
    },
    {
      "inputs": [
        {
          "components": [
            {
              "internalType": "bytes",
              "name": "paymentProof",
              "type": "bytes"
            },
            {
              "internalType": "address",
              "name": "depositToken",
              "type": "address"
            },
            {
              "internalType": "uint256",
              "name": "intentAmount",
              "type": "uint256"
            },
            {
              "internalType": "uint256",
              "name": "intentTimestamp",
              "type": "uint256"
            },
            {
              "internalType": "string",
              "name": "payeeDetails",
              "type": "string"
            },
            {
              "internalType": "bytes32",
              "name": "fiatCurrency",
              "type": "bytes32"
            },
            {
              "internalType": "uint256",
              "name": "conversionRate",
              "type": "uint256"
            },
            {
              "internalType": "bytes",
              "name": "data",
              "type": "bytes"
            }
          ],
          "internalType": "struct IPaymentVerifier.VerifyPaymentData",
          "name": "_verifyPaymentData",
          "type": "tuple"
        }
      ],
      "name": "verifyPayment",
      "outputs": [
        {
          "internalType": "bool",
          "name": "",
          "type": "bool"
        },
        {
          "internalType": "bytes32",
          "name": "",
          "type": "bytes32"
        }
      ],
      "stateMutability": "nonpayable",
      "type": "function"
    },
    {
      "inputs": [
        {
          "components": [
            {
              "components": [
                {
                  "internalType": "string",
                  "name": "provider",
                  "type": "string"
                },
                {
                  "internalType": "string",
                  "name": "parameters",
                  "type": "string"
                },
                {
                  "internalType": "string",
                  "name": "context",
                  "type": "string"
                }
              ],
              "internalType": "struct Claims.ClaimInfo",
              "name": "claimInfo",
              "type": "tuple"
            },
            {
              "components": [
                {
                  "components": [
                    {
                      "internalType": "bytes32",
                      "name": "identifier",
                      "type": "bytes32"
                    },
                    {
                      "internalType": "address",
                      "name": "owner",
                      "type": "address"
                    },
                    {
                      "internalType": "uint32",
                      "name": "timestampS",
                      "type": "uint32"
                    },
                    {
                      "internalType": "uint32",
                      "name": "epoch",
                      "type": "uint32"
                    }
                  ],
                  "internalType": "struct Claims.CompleteClaimData",
                  "name": "claim",
                  "type": "tuple"
                },
                {
                  "internalType": "bytes[]",
                  "name": "signatures",
                  "type": "bytes[]"
                }
              ],
              "internalType": "struct Claims.SignedClaim",
              "name": "signedClaim",
              "type": "tuple"
            },
            {
              "internalType": "bool",
              "name": "isAppclipProof",
              "type": "bool"
            }
          ],
          "internalType": "struct IReclaimVerifier.ReclaimProof",
          "name": "proof",
          "type": "tuple"
        },
        {
          "internalType": "address[]",
          "name": "_witnesses",
          "type": "address[]"
        },
        {
          "internalType": "uint256",
          "name": "_requiredThreshold",
          "type": "uint256"
        }
      ],
      "name": "verifyProofSignatures",
      "outputs": [
        {
          "internalType": "bool",
          "name": "",
          "type": "bool"
        }
      ],
      "stateMutability": "pure",
      "type": "function"
    }
  ],
  "transactionHash": "0xfb70d97b34a66bb964bef076b2aef0eeb289fb44459d80b500823991d8cffb68",
  "args": [
    "0x5Fb325174fAFb22C46f7796Ca129980aA16F3405",
    "0x6992997BEe56d0Bd552397885eED681fD704D1ed",
    "30",
    [
      "0xc4ae21aac0c6549d71dd96035b7e0bdb6c79ebdba8891b666115bc976d16a29e"
    ],
    [
      "0xfff1a0130fa96e14545786e9615917330f520d3c18e55d1cad176d135fb78d16",
      "0x654a9ad85aef525c1f46ae1003b6fc57f4ad93b1df15b8e05419cf0e285d973c",
      "0x709569cc5850c23c4d8966524137d40b82d3056949fb0912be29a10803784a75",
      "0x4377776e47d7f6ca0d0032c6f9097e6887c9eab7113405d3ec49c2e63074ece1",
      "0x65ef2e26a5842ff4802f26f44dd09e43435192c352fd2cc3779afeaa16b26a2d",
      "0x02cbd3676d313b0653d7bc6ec2140da8bc99249f80f44fa87a1add3cccada48d",
      "0x9e14bbc62dd63527f04b36f8ec22f0733c75200ba54c055445e338cb5b9adeb6",
      "0x433d4902fb2c435533e5b6189b369de2b54d284e6f3d6ff04922aa46bf0c794c",
      "0x83f0fd04d1a711071d8887cc69b5fa5efb947496f54e7aafdc76b65616369adb",
      "0x558d53f060a9cad7fabd34e9fa9dbe0f3886ca6f36aa610824d1c4f863297d45"
    ]
  ],
  "numDeployments": 1,
  "solcInputHash": "764fa4d7f8edcfee8160e43dcc1b34bf",
  "bytecode": "0x60a06040523480156200001157600080fd5b506040516200515c3803806200515c8339810160408190526200003491620005bc565b84848484848484848462000048336200027a565b6001600160a01b03848116608052600180546001600160a01b031916918516919091179055600282905560005b8151811015620000c157620000ac828281518110620000985762000098620006b9565b6020026020010151620002ca60201b60201c565b80620000b881620006cf565b91505062000075565b505050505060005b815181101562000269576005828281518110620000ea57620000ea620006b9565b6020026020010151604051620001019190620006f7565b9081526040519081900360200190205460ff1615620001675760405162461bcd60e51b815260206004820152601b60248201527f50726f7669646572206861736820616c7265616479206164646564000000000060448201526064015b60405180910390fd5b60016005838381518110620001805762000180620006b9565b6020026020010151604051620001979190620006f7565b908152602001604051809103902060006101000a81548160ff0219169083151502179055506006828281518110620001d357620001d3620006b9565b60209081029190910181015182546001810184556000938452919092200190620001fe9082620007a4565b507fc9e1c78701d1853eeb1eb35ad3449e4b336281f672d5837243d21239dc6f4096828281518110620002355762000235620006b9565b60200260200101516040516200024c919062000870565b60405180910390a1806200026081620006cf565b915050620000c9565b5050505050505050505050620008a5565b600080546001600160a01b038381166001600160a01b0319831681178455604051919092169283917f8be0079c531659141344cd1fd0a4f28419497f9722a3daafe3b4186f6b6457e09190a35050565b620002d4620003b6565b60008181526004602052604090205460ff1615620003355760405162461bcd60e51b815260206004820152601660248201527f43757272656e637920616c72656164792061646465640000000000000000000060448201526064016200015e565b6003805460018082019092557fc2575a0e9e593c00f959f8c92f12db2869c3395a3b0502d05e2516446f71f85b01829055600082815260046020908152604091829020805460ff1916909317909255518281527f15e2bb2d9733845f72b6cc683c4d7bafd2d79cfd5c160cb1be756b6faa97dbdc910160405180910390a150565b6000546001600160a01b03163314620004125760405162461bcd60e51b815260206004820181905260248201527f4f776e61626c653a2063616c6c6572206973206e6f7420746865206f776e657260448201526064016200015e565b565b6001600160a01b03811681146200042a57600080fd5b50565b634e487b7160e01b600052604160045260246000fd5b604051601f8201601f191681016001600160401b03811182821017156200046e576200046e6200042d565b604052919050565b60006001600160401b038211156200049257620004926200042d565b5060051b60200190565b60005b83811015620004b95781810151838201526020016200049f565b50506000910152565b6000601f8381840112620004d557600080fd5b82516020620004ee620004e88362000476565b62000443565b82815260059290921b850181019181810190878411156200050e57600080fd5b8287015b84811015620005b05780516001600160401b0380821115620005345760008081fd5b818a0191508a603f8301126200054a5760008081fd5b858201516040828211156200056357620005636200042d565b62000576828b01601f1916890162000443565b92508183528c818386010111156200058e5760008081fd5b6200059f828985018387016200049c565b505084525091830191830162000512565b50979650505050505050565b600080600080600060a08688031215620005d557600080fd5b8551620005e28162000414565b80955050602080870151620005f78162000414565b6040880151606089015191965094506001600160401b03808211156200061c57600080fd5b818901915089601f8301126200063157600080fd5b815162000642620004e88262000476565b81815260059190911b8301840190848101908c8311156200066257600080fd5b938501935b82851015620006825784518252938501939085019062000667565b60808c015190975094505050808311156200069c57600080fd5b5050620006ac88828901620004c2565b9150509295509295909350565b634e487b7160e01b600052603260045260246000fd5b600060018201620006f057634e487b7160e01b600052601160045260246000fd5b5060010190565b600082516200070b8184602087016200049c565b9190910192915050565b600181811c908216806200072a57607f821691505b6020821081036200074b57634e487b7160e01b600052602260045260246000fd5b50919050565b601f8211156200079f57600081815260208120601f850160051c810160208610156200077a5750805b601f850160051c820191505b818110156200079b5782815560010162000786565b5050505b505050565b81516001600160401b03811115620007c057620007c06200042d565b620007d881620007d1845462000715565b8462000751565b602080601f831160018114620008105760008415620007f75750858301515b600019600386901b1c1916600185901b1785556200079b565b600085815260208120601f198616915b82811015620008415788860151825594840194600190910190840162000820565b5085821015620008605787850151600019600388901b60f8161c191681555b5050505050600190811b01905550565b6020815260008251806020840152620008918160408501602087016200049c565b601f01601f19169190910160400192915050565b608051614894620008c86000396000818161029f01526105e301526148946000f3fe608060405234801561001057600080fd5b50600436106101165760003560e01c8063b2a3fda4116100a2578063dbac582111610071578063dbac582114610283578063e2fdcc171461029a578063efd4ad5a146102c1578063f2fde38b146102d4578063fa93cd38146102e757600080fd5b8063b2a3fda414610235578063b870676c14610248578063bd6e77411461025b578063c2107e731461026e57600080fd5b806361c661de116100e957806361c661de146101b657806369037180146101cb578063715018a6146101de57806384c7b439146101e65780638da5cb5b1461021057600080fd5b80631cba9bed1461011b5780632ca6927d146101305780633e1d0edc1461017357806357c6e12a14610196575b600080fd5b61012e610129366004613a5e565b6102fa565b005b61015e61013e366004613a5e565b805160208183018101805160058252928201919093012091525460ff1681565b60405190151581526020015b60405180910390f35b61015e610181366004613a92565b60046020526000908152604090205460ff1681565b6101a96101a4366004613a92565b6103e2565b60405161016a9190613afb565b6101be61048e565b60405161016a9190613b0e565b61012e6101d9366004613a92565b6104e6565b61012e6105c1565b6101f96101f4366004613b52565b6105d5565b60408051921515835260208301919091520161016a565b6000546001600160a01b03165b6040516001600160a01b03909116815260200161016a565b61012e610243366004613a92565b6106da565b60015461021d906001600160a01b031681565b61012e610269366004613a5e565b610717565b61027661082d565b60405161016a9190613b94565b61028c60025481565b60405190815260200161016a565b61021d7f000000000000000000000000000000000000000000000000000000000000000081565b61012e6102cf366004613a92565b610906565b61012e6102e2366004613c0d565b6109b4565b61015e6102f5366004613f1b565b610a2d565b610302610ded565b6005816040516103129190613f87565b9081526040519081900360200190205460ff166103765760405162461bcd60e51b815260206004820152601760248201527f50726f76696465722068617368206e6f7420666f756e6400000000000000000060448201526064015b60405180910390fd5b6005816040516103869190613f87565b908152604051908190036020019020805460ff191690556103a8600682610e47565b7f6f594b4b4f0580c66aabba75218163a99fa1fe330a171cc9e2bfd8e167db22f8816040516103d79190613afb565b60405180910390a150565b600681815481106103f257600080fd5b90600052602060002001600091509050805461040d90613fa3565b80601f016020809104026020016040519081016040528092919081815260200182805461043990613fa3565b80156104865780601f1061045b57610100808354040283529160200191610486565b820191906000526020600020905b81548152906001019060200180831161046957829003601f168201915b505050505081565b606060038054806020026020016040519081016040528092919081815260200182805480156104dc57602002820191906000526020600020905b8154815260200190600101908083116104c8575b5050505050905090565b6104ee610ded565b60008181526004602052604090205460ff16156105465760405162461bcd60e51b815260206004820152601660248201527510dd5c9c995b98de48185b1c9958591e48185919195960521b604482015260640161036d565b6003805460018082019092557fc2575a0e9e593c00f959f8c92f12db2869c3395a3b0502d05e2516446f71f85b01829055600082815260046020908152604091829020805460ff1916909317909255518281527f15e2bb2d9733845f72b6cc683c4d7bafd2d79cfd5c160cb1be756b6faa97dbdc91016103d7565b6105c9610ded565b6105d36000611001565b565b600080336001600160a01b037f000000000000000000000000000000000000000000000000000000000000000016146106475760405162461bcd60e51b815260206004820152601460248201527313db9b1e48195cd8dc9bddc818d85b8818d85b1b60621b604482015260640161036d565b6000806106696106578680613fdd565b61066460e0890189613fdd565b611051565b91509150610681828661067b90614023565b83611124565b600082604001516040516020016106989190613f87565b6040516020818303038152906040528051906020012090506106b981611396565b60808301516000906106cb90826114b1565b60019890975095505050505050565b6106e2610ded565b60028190556040518181527f11e8dda5412ecab251b7783921be2eb37fdf13b389fc7f671f2cee11a1dfefea906020016103d7565b61071f610ded565b60058160405161072f9190613f87565b9081526040519081900360200190205460ff161561078f5760405162461bcd60e51b815260206004820152601b60248201527f50726f7669646572206861736820616c72656164792061646465640000000000604482015260640161036d565b60016005826040516107a19190613f87565b908152604051908190036020019020805491151560ff19909216919091179055600680546001810182556000919091527ff652222313e28459528d920b65115c16c04f3efc82aaedc97be59f3f377c0d3f016107fd828261413d565b507fc9e1c78701d1853eeb1eb35ad3449e4b336281f672d5837243d21239dc6f4096816040516103d79190613afb565b60606006805480602002602001604051908101604052809291908181526020016000905b828210156108fd57838290600052602060002001805461087090613fa3565b80601f016020809104026020016040519081016040528092919081815260200182805461089c90613fa3565b80156108e95780601f106108be576101008083540402835291602001916108e9565b820191906000526020600020905b8154815290600101906020018083116108cc57829003601f168201915b505050505081526020019060010190610851565b50505050905090565b61090e610ded565b60008181526004602052604090205460ff166109615760405162461bcd60e51b815260206004820152601260248201527110dd5c9c995b98de481b9bdd08185919195960721b604482015260640161036d565b61096c6003826114cb565b60008181526004602052604090819020805460ff19169055517fa3c6a408fb053e3ef5e9bcd22e3574324a5ae99fad263cc4080da481842d3d4c906103d79083815260200190565b6109bc610ded565b6001600160a01b038116610a215760405162461bcd60e51b815260206004820152602660248201527f4f776e61626c653a206e6577206f776e657220697320746865207a65726f206160448201526564647265737360d01b606482015260840161036d565b610a2a81611001565b50565b6000808211610a905760405162461bcd60e51b815260206004820152602960248201527f5265717569726564207468726573686f6c64206d75737420626520677265617460448201526806572207468616e20360bc1b606482015260840161036d565b8251821115610b155760405162461bcd60e51b8152602060048201526044602482018190527f5265717569726564207468726573686f6c64206d757374206265206c65737320908201527f7468616e206f7220657175616c20746f206e756d626572206f66207769746e656064820152637373657360e01b608482015260a40161036d565b60008460200151602001515111610b5e5760405162461bcd60e51b815260206004820152600d60248201526c4e6f207369676e61747572657360981b604482015260640161036d565b604080518082019091526020808601805151835251810151908201528451600090610b88906115f3565b602087015151519091508114610be05760405162461bcd60e51b815260206004820152601c60248201527f436c61696d496e666f206861736820646f65736e2774206d6174636800000000604482015260640161036d565b80610c265760405162461bcd60e51b8152602060048201526016602482015275436c61696d496e666f2068617368206973207a65726f60501b604482015260640161036d565b6000610c3183611636565b90508481511015610c955760405162461bcd60e51b815260206004820152602860248201527f4665776572207369676e617475726573207468616e20726571756972656420746044820152671a1c995cda1bdb1960c21b606482015260840161036d565b600081516001600160401b03811115610cb057610cb061393c565b604051908082528060200260200182016040528015610cd9578160200160208202803683370190505b5090506000805b8351811015610d81576000848281518110610cfd57610cfd6141fc565b60200260200101519050610d1a818561170f90919063ffffffff16565b15610d255750610d6f565b610d2f8a8261170f565b15610d6d5780848481518110610d4757610d476141fc565b6001600160a01b039092166020928302919091019091015282610d6981614228565b9350505b505b80610d7981614228565b915050610ce0565b5086811015610dde5760405162461bcd60e51b815260206004820152602360248201527f4e6f7420656e6f7567682076616c6964207769746e657373207369676e61747560448201526272657360e81b606482015260840161036d565b50600198975050505050505050565b6000546001600160a01b031633146105d35760405162461bcd60e51b815260206004820181905260248201527f4f776e61626c653a2063616c6c6572206973206e6f7420746865206f776e6572604482015260640161036d565b600080610f2484805480602002602001604051908101604052809291908181526020016000905b82821015610f1a578382906000526020600020018054610e8d90613fa3565b80601f0160208091040260200160405190810160405280929190818152602001828054610eb990613fa3565b8015610f065780601f10610edb57610100808354040283529160200191610f06565b820191906000526020600020905b815481529060010190602001808311610ee957829003601f168201915b505050505081526020019060010190610e6e565b5050505084611725565b9150915080610f6c5760405162461bcd60e51b815260206004820152601460248201527329ba3934b733903737ba1034b71030b93930bc9760611b604482015260640161036d565b8354600090610f7d90600190614241565b9050808314610fcc57848181548110610f9857610f986141fc565b90600052602060002001858481548110610fb457610fb46141fc565b906000526020600020019081610fca9190614254565b505b84805480610fdc57610fdc614326565b600190038181906000526020600020016000610ff891906138c2565b90555050505050565b600080546001600160a01b038381166001600160a01b0319831681178455604051919092169283917f8be0079c531659141344cd1fd0a4f28419497f9722a3daafe3b4186f6b6457e09190a35050565b61108a6040518060c001604052806060815260200160608152602001606081526020016060815260200160608152602001606081525090565b6000806110998688018861433c565b905060006110a78686611796565b90506110b582826001610a2d565b506110bf826117a4565b93506110ce8460a001516118c7565b6111125760405162461bcd60e51b815260206004820152601560248201527409cde40ecc2d8d2c840e0e4deecd2c8cae490c2e6d605b1b604482015260640161036d565b81604001519250505094509492505050565b6000670de0b6b3a76400008360c0015184604001516111439190614370565b61114d919061439d565b9050600083602001516001600160a01b031663313ce5676040518163ffffffff1660e01b8152600401602060405180830381865afa158015611193573d6000803e3d6000fd5b505050506040513d601f19601f820116820180604052508101906111b791906143b1565b85519091506000906111cc9060ff84166114b1565b90508281101561121e5760405162461bcd60e51b815260206004820152601860248201527f496e636f7272656374207061796d656e7420616d6f756e740000000000000000604482015260640161036d565b83156112bc576000866060015160405160200161123b9190613f87565b60405160208183030381529060405280519060200120905061126a8660800151611264836118f2565b90611ab7565b6112b65760405162461bcd60e51b815260206004820152601b60248201527f496e636f7272656374207061796d656e7420726563697069656e740000000000604482015260640161036d565b5061131b565b608085015160608701516112cf91611ab7565b61131b5760405162461bcd60e51b815260206004820152601b60248201527f496e636f7272656374207061796d656e7420726563697069656e740000000000604482015260640161036d565b600060025461132d8860200151611b10565b61133791906143d4565b9050856060015181101561138d5760405162461bcd60e51b815260206004820152601b60248201527f496e636f7272656374207061796d656e742074696d657374616d700000000000604482015260640161036d565b50505050505050565b60015460405163169394bb60e01b8152600481018390526001600160a01b039091169063169394bb90602401602060405180830381865afa1580156113df573d6000803e3d6000fd5b505050506040513d601f19601f8201168201806040525081019061140391906143e7565b156114505760405162461bcd60e51b815260206004820152601f60248201527f4e756c6c69666965722068617320616c7265616479206265656e207573656400604482015260640161036d565b600154604051632dea6f9960e11b8152600481018390526001600160a01b0390911690635bd4df3290602401600060405180830381600087803b15801561149657600080fd5b505af11580156114aa573d6000803e3d6000fd5b5050505050565b60006114c283601760f91b84611d36565b90505b92915050565b6000806115278480548060200260200160405190810160405280929190818152602001828054801561151c57602002820191906000526020600020905b815481526020019060010190808311611508575b505050505084611f13565b91509150806115705760405162461bcd60e51b8152602060048201526015602482015274313cba32b99999103737ba1034b71030b93930bc9760591b604482015260640161036d565b835460009061158190600190614241565b90508083146115c65784818154811061159c5761159c6141fc565b90600052602060002001548584815481106115b9576115b96141fc565b6000918252602090912001555b848054806115d6576115d6614326565b600190038181906000526020600020016000905590555050505050565b60008082600001518360200151846040015160405160200161161793929190614404565b60408051601f1981840301815291905280516020909101209392505050565b606060006116478360000151611f63565b905060008360200151516001600160401b038111156116685761166861393c565b604051908082528060200260200182016040528015611691578160200160208202803683370190505b50905060005b846020015151811015611707576116cb83866020015183815181106116be576116be6141fc565b6020026020010151611fef565b8282815181106116dd576116dd6141fc565b6001600160a01b0390921660209283029190910190910152806116ff81614228565b915050611697565b509392505050565b60008061171c8484612038565b95945050505050565b81516000908190815b81811015611783578480519060200120868281518110611750576117506141fc565b602002602001015180519060200120036117715792506001915061178f9050565b8061177b81614228565b91505061172e565b50600019600092509250505b9250929050565b60606114c28284018461445f565b6117dd6040518060c001604052806060815260200160608152602001606081526020016060815260200160608152602001606081525090565b60006117f48360000151604001516008600161209a565b90506040518060c0016040528082600381518110611814576118146141fc565b6020026020010151815260200182600481518110611834576118346141fc565b6020026020010151815260200182600581518110611854576118546141fc565b6020026020010151815260200182600681518110611874576118746141fc565b6020026020010151815260200182600181518110611894576118946141fc565b60200260200101518152602001826007815181106118b4576118b46141fc565b6020026020010151815250915050919050565b60006005826040516118d99190613f87565b9081526040519081900360200190205460ff1692915050565b604080518082018252601081526f181899199a1a9b1b9c1cb0b131b232b360811b6020820152815160428082526080820190935260609260009190602082018180368337019050509050600360fc1b81600081518110611954576119546141fc565b60200101906001600160f81b031916908160001a905350600f60fb1b81600181518110611983576119836141fc565b60200101906001600160f81b031916908160001a90535060005b6020811015611707578260048683602081106119bb576119bb6141fc565b1a60f81b6001600160f81b031916901c60f81c60ff16815181106119e1576119e16141fc565b01602001516001600160f81b031916826119fc836002614370565b611a079060026143d4565b81518110611a1757611a176141fc565b60200101906001600160f81b031916908160001a90535082858260208110611a4157611a416141fc565b825191901a600f16908110611a5857611a586141fc565b01602001516001600160f81b03191682611a73836002614370565b611a7e9060036143d4565b81518110611a8e57611a8e6141fc565b60200101906001600160f81b031916908160001a90535080611aaf81614228565b91505061199d565b600081604051602001611aca9190613f87565b6040516020818303038152906040528051906020012083604051602001611af19190613f87565b6040516020818303038152906040528051906020012014905092915050565b6000611b1a6138fc565b82516000908190815b81811015611c6757868181518110611b3d57611b3d6141fc565b6020910101516001600160f81b031916602d60f81b1480611b825750868181518110611b6b57611b6b6141fc565b6020910101516001600160f81b031916601d60f91b145b80611bb15750868181518110611b9a57611b9a6141fc565b6020910101516001600160f81b031916601560fa1b145b80611be05750868181518110611bc957611bc96141fc565b6020910101516001600160f81b031916600160fd1b145b15611c2257611bf0878483612f6b565b858560068110611c0257611c026141fc565b6020020152611c128160016143d4565b925083611c1e81614228565b9450505b868181518110611c3457611c346141fc565b01602001516001600160f81b031916601760f91b03611c5557809150611c67565b80611c5f81614228565b915050611b23565b50611c73868383612f6b565b848460068110611c8557611c856141fc565b602002015260058314611cd05760405162461bcd60e51b8152602060048201526013602482015272496e76616c6964206461746520737472696e6760681b604482015260640161036d565b611d2c611ce6600086815b6020020151906114b1565b611cf36000876001611cdb565b611d006000886002611cdb565b611d0d6000896003611cdb565b611d1a60008a6004611cdb565b611d2760008b6005611cdb565b613037565b9695505050505050565b600083818080805b8451811015611e8c57603060f81b858281518110611d5e57611d5e6141fc565b01602001516001600160f81b03191610801590611d9f5750603960f81b858281518110611d8d57611d8d6141fc565b01602001516001600160f81b03191611155b15611de2576030858281518110611db857611db86141fc565b0160200151611dca919060f81c614241565b611dd585600a614370565b611ddf91906143d4565b93505b8115611df65782611df281614228565b9350505b876001600160f81b031916858281518110611e1357611e136141fc565b01602001516001600160f81b03191603611e7a578115611e755760405162461bcd60e51b815260206004820152601c60248201527f537472696e6720686173206d756c7469706c6520646563696d616c7300000000604482015260640161036d565b600191505b80611e8481614228565b915050611d3e565b5085821115611ee85760405162461bcd60e51b815260206004820152602260248201527f537472696e672068617320746f6f206d616e7920646563696d616c20706c6163604482015261657360f01b606482015260840161036d565b611ef28287614241565b611efd90600a614577565b611f079084614370565b98975050505050505050565b81516000908190815b818110156117835784868281518110611f3757611f376141fc565b602002602001015103611f515792506001915061178f9050565b80611f5b81614228565b915050611f1c565b6060611f938260000151604051602001611f7f91815260200190565b604051602081830303815290604052613093565b611fa08360200151613256565b611fb3846040015163ffffffff166133bf565b611fc6856060015163ffffffff166133bf565b604051602001611fd99493929190614583565b6040516020818303038152906040529050919050565b600080611ffc84516133bf565b8460405160200161200e9291906145fc565b60405160208183030381529060405280519060200120905061203081846134ea565b949350505050565b81516000908190815b8181101561178357846001600160a01b0316868281518110612065576120656141fc565b60200260200101516001600160a01b0316036120885792506001915061178f9050565b8061209281614228565b915050612041565b606060008360ff16116120f95760405162461bcd60e51b815260206004820152602160248201527f4d61782076616c756573206d7573742062652067726561746572207468616e206044820152600360fc1b606482015260840161036d565b836000808080808061210c8a6002614657565b60ff166001600160401b038111156121265761212661393c565b60405190808252806020026020018201604052801561214f578160200160208202803683370190505b50905060005b604051806040016040528060138152602001723d9131b7b73a32bc3a20b2323932b9b9911d1160691b8152505181101561222e57604051806040016040528060138152602001723d9131b7b73a32bc3a20b2323932b9b9911d1160691b81525081815181106121c6576121c66141fc565b01602001516001600160f81b031916886121e0838a6143d4565b815181106121f0576121f06141fc565b01602001516001600160f81b0319161461221c5760405162461bcd60e51b815260040161036d9061467a565b8061222681614228565b915050612155565b50604051806040016040528060138152602001723d9131b7b73a32bc3a20b2323932b9b9911d1160691b815250518661226791906143d4565b95508593505b8651861080156122dd575086868151811061228a5761228a6141fc565b6020910101516001600160f81b031916601160f91b1480156122db5750866122b3600188614241565b815181106122c3576122c36141fc565b6020910101516001600160f81b031916601760fa1b14155b155b156122f457856122ec81614228565b96505061226d565b865186106123145760405162461bcd60e51b815260040161036d9061467a565b85925083830361237c5760405162461bcd60e51b815260206004820152602d60248201527f45787472616374696f6e206661696c65642e20456d70747920636f6e7465787460448201526c416464726573732076616c756560981b606482015260840161036d565b8381612389876002614370565b81518110612399576123996141fc565b602090810291909101015282816123b1876002614370565b6123bc9060016143d4565b815181106123cc576123cc6141fc565b6020908102919091010152846123e181614228565b95506123f090506002876143d4565b955060005b604051806040016040528060128152602001711131b7b73a32bc3a26b2b9b9b0b3b2911d1160711b815250518110156124cc57604051806040016040528060128152602001711131b7b73a32bc3a26b2b9b9b0b3b2911d1160711b8152508181518110612464576124646141fc565b01602001516001600160f81b0319168861247e838a6143d4565b8151811061248e5761248e6141fc565b01602001516001600160f81b031916146124ba5760405162461bcd60e51b815260040161036d906146c5565b806124c481614228565b9150506123f5565b50604051806040016040528060128152602001711131b7b73a32bc3a26b2b9b9b0b3b2911d1160711b815250518661250491906143d4565b95508593505b86518610801561257a5750868681518110612527576125276141fc565b6020910101516001600160f81b031916601160f91b148015612578575086612550600188614241565b81518110612560576125606141fc565b6020910101516001600160f81b031916601760fa1b14155b155b15612591578561258981614228565b96505061250a565b865186106125b15760405162461bcd60e51b815260040161036d906146c5565b8592508383036126195760405162461bcd60e51b815260206004820152602d60248201527f45787472616374696f6e206661696c65642e20456d70747920636f6e7465787460448201526c4d6573736167652076616c756560981b606482015260840161036d565b8381612626876002614370565b81518110612636576126366141fc565b6020908102919091010152828161264e876002614370565b6126599060016143d4565b81518110612669576126696141fc565b60209081029190910101528461267e81614228565b955061268d90506002876143d4565b955060005b604051806040016040528060188152602001771132bc3a3930b1ba32b22830b930b6b2ba32b939911d3d9160411b815250518110156127be57604051806040016040528060188152602001771132bc3a3930b1ba32b22830b930b6b2ba32b939911d3d9160411b815250818151811061270d5761270d6141fc565b01602001516001600160f81b03191688612727838a6143d4565b81518110612737576127376141fc565b01602001516001600160f81b031916146127ac5760405162461bcd60e51b815260206004820152603060248201527f45787472616374696f6e206661696c65642e204d616c666f726d65642065787460448201526f726163746564506172616d657465727360801b606482015260840161036d565b806127b681614228565b915050612692565b50604051806040016040528060188152602001771132bc3a3930b1ba32b22830b930b6b2ba32b939911d3d9160411b81525051866127fc91906143d4565b9550600091505b8651861015612ba65786868151811061281e5761281e6141fc565b6020910101516001600160f81b031916601160f91b14801561286f575086612847600188614241565b81518110612857576128576141fc565b6020910101516001600160f81b031916601760fa1b14155b612885578561287d81614228565b965050612803565b8161298d57866128968760016143d4565b815181106128a6576128a66141fc565b6020910101516001600160f81b031916601d60f91b1480156128f65750866128cf8760026143d4565b815181106128df576128df6141fc565b6020910101516001600160f81b031916601160f91b145b61294e5760405162461bcd60e51b815260206004820152602360248201527f45787472616374696f6e206661696c65642e204d616c666f726d65642064617460448201526261203160e81b606482015260840161036d565b6129596003876143d4565b955060019150858161296c876002614370565b8151811061297c5761297c6141fc565b602002602001018181525050612803565b60008761299b8860016143d4565b815181106129ab576129ab6141fc565b6020910101516001600160f81b031916600b60fa1b1480156129fb5750876129d48860026143d4565b815181106129e4576129e46141fc565b6020910101516001600160f81b031916601160f91b145b9050600088612a0b8960016143d4565b81518110612a1b57612a1b6141fc565b6020910101516001600160f81b031916607d60f81b148015612a6b575088612a448960026143d4565b81518110612a5457612a546141fc565b6020910101516001600160f81b031916600b60fa1b145b90508180612a765750805b612ace5760405162461bcd60e51b815260206004820152602360248201527f45787472616374696f6e206661696c65642e204d616c666f726d65642064617460448201526230901960e91b606482015260840161036d565b8783612adb896002614370565b612ae69060016143d4565b81518110612af657612af66141fc565b602090810291909101015286612b0b81614228565b9750508115612b8b578b60ff168703612b755760405162461bcd60e51b815260206004820152602660248201527f45787472616374696f6e206661696c65642e204578636565646564206d61782060448201526576616c75657360d01b606482015260840161036d565b612b806003896143d4565b975060009350612b9f565b612b966003896143d4565b97505050612ba6565b5050612803565b8815612db35760005b6040518060400160405280601081526020016f11383937bb34b232b92430b9b4111d1160811b81525051811015612cc4576040518060400160405280601081526020016f11383937bb34b232b92430b9b4111d1160811b8152508181518110612c1a57612c1a6141fc565b01602001516001600160f81b03191688612c34838a6143d4565b81518110612c4457612c446141fc565b01602001516001600160f81b03191614612cb25760405162461bcd60e51b815260206004820152602960248201527f45787472616374696f6e206661696c65642e204d616c666f726d65642070726f6044820152680ecd2c8cae490c2e6d60bb1b606482015260840161036d565b80612cbc81614228565b915050612baf565b506040518060400160405280601081526020016f11383937bb34b232b92430b9b4111d1160811b8152505186612cfa91906143d4565b95508581612d09876002614370565b81518110612d1957612d196141fc565b6020026020010181815250505b865186108015612d5b5750868681518110612d4357612d436141fc565b6020910101516001600160f81b031916601160f91b14155b15612d725785612d6a81614228565b965050612d26565b8581612d7f876002614370565b612d8a9060016143d4565b81518110612d9a57612d9a6141fc565b602090810291909101015284612daf81614228565b9550505b6000856001600160401b03811115612dcd57612dcd61393c565b604051908082528060200260200182016040528015612e0057816020015b6060815260200190600190039081612deb5790505b50905060005b86811015612f5b5782612e1a826002614370565b81518110612e2a57612e2a6141fc565b6020026020010151955082816002612e429190614370565b612e4d9060016143d4565b81518110612e5d57612e5d6141fc565b6020026020010151945060008686612e759190614241565b6001600160401b03811115612e8c57612e8c61393c565b6040519080825280601f01601f191660200182016040528015612eb6576020820181803683370190505b509050865b86811015612f28578a8181518110612ed557612ed56141fc565b01602001516001600160f81b03191682612eef8a84614241565b81518110612eff57612eff6141fc565b60200101906001600160f81b031916908160001a90535080612f2081614228565b915050612ebb565b5080838381518110612f3c57612f3c6141fc565b6020026020010181905250508080612f5390614228565b915050612e06565b509b9a5050505050505050505050565b6060836000612f7a8585614241565b6001600160401b03811115612f9157612f9161393c565b6040519080825280601f01601f191660200182016040528015612fbb576020820181803683370190505b509050845b8481101561302d57828181518110612fda57612fda6141fc565b01602001516001600160f81b03191682612ff48884614241565b81518110613004576130046141fc565b60200101906001600160f81b031916908160001a9053508061302581614228565b915050612fc0565b5095945050505050565b600081613045603c85614370565b613051610e1087614370565b620151806130608b8b8b613506565b61306a9190614370565b61307491906143d4565b61307e91906143d4565b61308891906143d4565b979650505050505050565b60606000825160026130a59190614370565b6001600160401b038111156130bc576130bc61393c565b6040519080825280601f01601f1916602001820160405280156130e6576020820181803683370190505b5060408051808201909152601081526f181899199a1a9b1b9c1cb0b131b232b360811b602082015290915060005b845181101561322c57818251868381518110613132576131326141fc565b0160200151613144919060f81c61439d565b81518110613154576131546141fc565b01602001516001600160f81b0319168361316f836002614370565b8151811061317f5761317f6141fc565b60200101906001600160f81b031916908160001a9053508182518683815181106131ab576131ab6141fc565b01602001516131bd919060f81c614710565b815181106131cd576131cd6141fc565b01602001516001600160f81b031916836131e8836002614370565b6131f39060016143d4565b81518110613203576132036141fc565b60200101906001600160f81b031916908160001a9053508061322481614228565b915050613114565b508160405160200161323e9190614724565b60405160208183030381529060405292505050919050565b60408051602880825260608281019093526000919060208201818036833701905050905060005b6014811015613396576000613293826013614241565b61329e906008614370565b6132a9906002614577565b6132bc906001600160a01b03871661439d565b60f81b9050600060108260f81c6132d3919061474e565b60f81b905060008160f81c60106132ea9190614657565b8360f81c6132f89190614770565b60f81b905061330682613637565b85613312866002614370565b81518110613322576133226141fc565b60200101906001600160f81b031916908160001a90535061334281613637565b8561334e866002614370565b6133599060016143d4565b81518110613369576133696141fc565b60200101906001600160f81b031916908160001a905350505050808061338e90614228565b91505061327d565b50806040516020016133a89190614724565b604051602081830303815290604052915050919050565b6060816000036133e65750506040805180820190915260018152600360fc1b602082015290565b8160005b811561341057806133fa81614228565b91506134099050600a8361439d565b91506133ea565b6000816001600160401b0381111561342a5761342a61393c565b6040519080825280601f01601f191660200182016040528015613454576020820181803683370190505b509050815b85156134e15761346a600182614241565b90506000613479600a8861439d565b61348490600a614370565b61348e9088614241565b613499906030614789565b905060008160f81b9050808484815181106134b6576134b66141fc565b60200101906001600160f81b031916908160001a9053506134d8600a8961439d565b97505050613459565b50949350505050565b60008060006134f98585613672565b91509150611707816136b4565b60006107b284101561351757600080fd5b838383600062253d8c60046064600c613531600e886147a2565b61353b91906147c2565b613547886113246147f0565b61355191906147f0565b61355b91906147c2565b613566906003614818565b61357091906147c2565b600c8061357e600e886147a2565b61358891906147c2565b61359390600c614818565b61359e6002886147a2565b6135a891906147a2565b6135b49061016f614818565b6135be91906147c2565b6004600c6135cd600e896147a2565b6135d791906147c2565b6135e3896112c06147f0565b6135ed91906147f0565b6135f9906105b5614818565b61360391906147c2565b61360f617d4b876147a2565b61361991906147f0565b61362391906147f0565b61362d91906147a2565b611f0791906147a2565b6000600a60f883901c101561365e5761365560f883901c6030614789565b60f81b92915050565b61365560f883901c6057614789565b919050565b60008082516041036136a85760208301516040840151606085015160001a61369c878285856137fe565b9450945050505061178f565b5060009050600261178f565b60008160048111156136c8576136c8614848565b036136d05750565b60018160048111156136e4576136e4614848565b036137315760405162461bcd60e51b815260206004820152601860248201527f45434453413a20696e76616c6964207369676e61747572650000000000000000604482015260640161036d565b600281600481111561374557613745614848565b036137925760405162461bcd60e51b815260206004820152601f60248201527f45434453413a20696e76616c6964207369676e6174757265206c656e67746800604482015260640161036d565b60038160048111156137a6576137a6614848565b03610a2a5760405162461bcd60e51b815260206004820152602260248201527f45434453413a20696e76616c6964207369676e6174757265202773272076616c604482015261756560f01b606482015260840161036d565b6000807f7fffffffffffffffffffffffffffffff5d576e7357a4501ddfe92f46681b20a083111561383557506000905060036138b9565b6040805160008082526020820180845289905260ff881692820192909252606081018690526080810185905260019060a0016020604051602081039080840390855afa158015613889573d6000803e3d6000fd5b5050604051601f1901519150506001600160a01b0381166138b2576000600192509250506138b9565b9150600090505b94509492505050565b5080546138ce90613fa3565b6000825580601f106138de575050565b601f016020900490600052602060002090810190610a2a9190613923565b6040518060c001604052806006905b606081526020019060019003908161390b5790505090565b5b808211156139385760008155600101613924565b5090565b634e487b7160e01b600052604160045260246000fd5b604051608081016001600160401b03811182821017156139745761397461393c565b60405290565b604051606081016001600160401b03811182821017156139745761397461393c565b60405161010081016001600160401b03811182821017156139745761397461393c565b604051601f8201601f191681016001600160401b03811182821017156139e7576139e761393c565b604052919050565b600082601f830112613a0057600080fd5b81356001600160401b03811115613a1957613a1961393c565b613a2c601f8201601f19166020016139bf565b818152846020838601011115613a4157600080fd5b816020850160208301376000918101602001919091529392505050565b600060208284031215613a7057600080fd5b81356001600160401b03811115613a8657600080fd5b612030848285016139ef565b600060208284031215613aa457600080fd5b5035919050565b60005b83811015613ac6578181015183820152602001613aae565b50506000910152565b60008151808452613ae7816020860160208601613aab565b601f01601f19169290920160200192915050565b6020815260006114c26020830184613acf565b6020808252825182820181905260009190848201906040850190845b81811015613b4657835183529284019291840191600101613b2a565b50909695505050505050565b600060208284031215613b6457600080fd5b81356001600160401b03811115613b7a57600080fd5b82016101008185031215613b8d57600080fd5b9392505050565b6000602080830181845280855180835260408601915060408160051b870101925083870160005b82811015613be957603f19888603018452613bd7858351613acf565b94509285019290850190600101613bbb565b5092979650505050505050565b80356001600160a01b038116811461366d57600080fd5b600060208284031215613c1f57600080fd5b6114c282613bf6565b803563ffffffff8116811461366d57600080fd5b60006001600160401b03821115613c5557613c5561393c565b5060051b60200190565b600082601f830112613c7057600080fd5b81356020613c85613c8083613c3c565b6139bf565b82815260059290921b84018101918181019086841115613ca457600080fd5b8286015b84811015613ce35780356001600160401b03811115613cc75760008081fd5b613cd58986838b01016139ef565b845250918301918301613ca8565b509695505050505050565b600081830360a0811215613d0157600080fd5b604051604081016001600160401b038282108183111715613d2457613d2461393c565b816040528294506080841215613d3957600080fd5b613d41613952565b935085358452613d5360208701613bf6565b6020850152613d6460408701613c28565b6040850152613d7560608701613c28565b606085015292825260808501359280841115613d9057600080fd5b5050613d9e85838601613c5f565b6020820152505092915050565b8015158114610a2a57600080fd5b803561366d81613dab565b600060608284031215613dd657600080fd5b613dde61397a565b905081356001600160401b0380821115613df757600080fd5b9083019060608286031215613e0b57600080fd5b613e1361397a565b823582811115613e2257600080fd5b613e2e878286016139ef565b825250602083013582811115613e4357600080fd5b613e4f878286016139ef565b602083015250604083013582811115613e6757600080fd5b613e73878286016139ef565b60408301525083526020840135915080821115613e8f57600080fd5b50613e9c84828501613cee565b602083015250613eae60408301613db9565b604082015292915050565b600082601f830112613eca57600080fd5b81356020613eda613c8083613c3c565b82815260059290921b84018101918181019086841115613ef957600080fd5b8286015b84811015613ce357613f0e81613bf6565b8352918301918301613efd565b600080600060608486031215613f3057600080fd5b83356001600160401b0380821115613f4757600080fd5b613f5387838801613dc4565b94506020860135915080821115613f6957600080fd5b50613f7686828701613eb9565b925050604084013590509250925092565b60008251613f99818460208701613aab565b9190910192915050565b600181811c90821680613fb757607f821691505b602082108103613fd757634e487b7160e01b600052602260045260246000fd5b50919050565b6000808335601e19843603018112613ff457600080fd5b8301803591506001600160401b0382111561400e57600080fd5b60200191503681900382131561178f57600080fd5b6000610100823603121561403657600080fd5b61403e61399c565b82356001600160401b038082111561405557600080fd5b614061368387016139ef565b835261406f60208601613bf6565b60208401526040850135604084015260608501356060840152608085013591508082111561409c57600080fd5b6140a8368387016139ef565b608084015260a085013560a084015260c085013560c084015260e08501359150808211156140d557600080fd5b506140e2368286016139ef565b60e08301525092915050565b601f82111561413857600081815260208120601f850160051c810160208610156141155750805b601f850160051c820191505b8181101561413457828155600101614121565b5050505b505050565b81516001600160401b038111156141565761415661393c565b61416a816141648454613fa3565b846140ee565b602080601f83116001811461419f57600084156141875750858301515b600019600386901b1c1916600185901b178555614134565b600085815260208120601f198616915b828110156141ce578886015182559484019460019091019084016141af565b50858210156141ec5787850151600019600388901b60f8161c191681555b5050505050600190811b01905550565b634e487b7160e01b600052603260045260246000fd5b634e487b7160e01b600052601160045260246000fd5b60006001820161423a5761423a614212565b5060010190565b818103818111156114c5576114c5614212565b81810361425f575050565b6142698254613fa3565b6001600160401b038111156142805761428061393c565b61428e816141648454613fa3565b6000601f8211600181146142c257600083156142aa5750848201545b600019600385901b1c1916600184901b1784556114aa565b600085815260209020601f19841690600086815260209020845b838110156142fc57828601548255600195860195909101906020016142dc565b50858310156141ec5793015460001960f8600387901b161c19169092555050600190811b01905550565b634e487b7160e01b600052603160045260246000fd5b60006020828403121561434e57600080fd5b81356001600160401b0381111561436457600080fd5b61203084828501613dc4565b80820281158282048414176114c5576114c5614212565b634e487b7160e01b600052601260045260246000fd5b6000826143ac576143ac614387565b500490565b6000602082840312156143c357600080fd5b815160ff81168114613b8d57600080fd5b808201808211156114c5576114c5614212565b6000602082840312156143f957600080fd5b8151613b8d81613dab565b60008451614416818460208901613aab565b600560f91b9083018181528551909190614437816001850160208a01613aab565b60019201918201528351614452816002840160208801613aab565b0160020195945050505050565b60006020828403121561447157600080fd5b81356001600160401b0381111561448757600080fd5b61203084828501613eb9565b600181815b808511156144ce5781600019048211156144b4576144b4614212565b808516156144c157918102915b93841c9390800290614498565b509250929050565b6000826144e5575060016114c5565b816144f2575060006114c5565b816001811461450857600281146145125761452e565b60019150506114c5565b60ff84111561452357614523614212565b50506001821b6114c5565b5060208310610133831016604e8410600b8410161715614551575081810a6114c5565b61455b8383614493565b806000190482111561456f5761456f614212565b029392505050565b60006114c283836144d6565b60008551614595818460208a01613aab565b600560f91b90830181815286519091906145b6816001850160208b01613aab565b6001920191820181905285516145d3816002850160208a01613aab565b600292019182015283516145ee816003840160208801613aab565b016003019695505050505050565b7f19457468657265756d205369676e6564204d6573736167653a0a00000000000081526000835161463481601a850160208801613aab565b83519083019061464b81601a840160208801613aab565b01601a01949350505050565b60ff818116838216029081169081811461467357614673614212565b5092915050565b6020808252602b908201527f45787472616374696f6e206661696c65642e204d616c666f726d656420636f6e60408201526a746578744164647265737360a81b606082015260800190565b6020808252602b908201527f45787472616374696f6e206661696c65642e204d616c666f726d656420636f6e60408201526a746578744d65737361676560a81b606082015260800190565b60008261471f5761471f614387565b500690565b61060f60f31b815260008251614741816002850160208701613aab565b9190910160020192915050565b600060ff83168061476157614761614387565b8060ff84160491505092915050565b60ff82811682821603908111156114c5576114c5614212565b60ff81811683821601908111156114c5576114c5614212565b818103600083128015838313168383128216171561467357614673614212565b6000826147d1576147d1614387565b600160ff1b8214600019841416156147eb576147eb614212565b500590565b808201828112600083128015821682158216171561481057614810614212565b505092915050565b80820260008212600160ff1b8414161561483457614834614212565b81810583148215176114c5576114c5614212565b634e487b7160e01b600052602160045260246000fdfea26469706673582212203eaf5a368a3d73c1dc4969ae6712ae7266b87407b771a62a0ec10cb4bbf4ffab64736f6c63430008120033",
  "devdoc": {
    "kind": "dev",
    "methods": {
      "addCurrency(bytes32)": {
        "params": {
          "_currencyCode": "Currency code to add"
        }
      },
      "addProviderHash(string)": {
        "params": {
          "_newProviderHash": "New provider hash to be added"
        }
      },
      "owner()": {
        "details": "Returns the address of the current owner."
      },
      "removeCurrency(bytes32)": {
        "params": {
          "_currencyCode": "Currency code to remove"
        }
      },
      "removeProviderHash(string)": {
        "params": {
          "_removeProviderHash": "Provider hash to be removed"
        }
      },
      "renounceOwnership()": {
        "details": "Leaves the contract without owner. It will not be possible to call `onlyOwner` functions. Can only be called by the current owner. NOTE: Renouncing ownership will leave the contract without an owner, thereby disabling any functionality that is only available to the owner."
      },
      "setTimestampBuffer(uint256)": {
        "params": {
          "_timestampBuffer": "The timestamp buffer for payments"
        }
      },
      "transferOwnership(address)": {
        "details": "Transfers ownership of the contract to a new account (`newOwner`). Can only be called by the current owner."
      },
      "verifyPayment((bytes,address,uint256,uint256,string,bytes32,uint256,bytes))": {
        "params": {
          "_verifyPaymentData": "Payment proof and intent details required for verification"
        }
      },
      "verifyProofSignatures(((string,string,string),((bytes32,address,uint32,uint32),bytes[]),bool),address[],uint256)": {
        "params": {
          "_requiredThreshold": "Minimum number of signatures required from accepted witnesses",
          "_witnesses": "List of accepted witnesses",
          "proof": "Proof to be verified"
        }
      }
    },
    "version": 1
  },
  "userdoc": {
    "kind": "user",
    "methods": {
      "addCurrency(bytes32)": {
        "notice": "OWNER ONLY: Adds a currency code to supported currencies"
      },
      "addProviderHash(string)": {
        "notice": "ONLY OWNER: Add provider hash string. Provider hash must not have been previously added."
      },
      "removeCurrency(bytes32)": {
        "notice": "OWNER ONLY: Removes a currency code from supported currencies"
      },
      "removeProviderHash(string)": {
        "notice": "ONLY OWNER: Remove provider hash string. Provider hash must have been previously added."
      },
      "setTimestampBuffer(uint256)": {
        "notice": "OWNER ONLY: Sets the timestamp buffer for payments. This is the amount of time in seconds that the timestamp can be off by and still be considered valid. Necessary to build in flexibility  with L2 timestamps."
      },
      "verifyPayment((bytes,address,uint256,uint256,string,bytes32,uint256,bytes))": {
        "notice": "ONLY RAMP: Verifies a reclaim proof of an offchain Venmo payment. Ensures the right _intentAmount * _conversionRate USD was paid to _payeeDetails after _intentTimestamp + timestampBuffer on Venmo. Note: For Venmo fiat currency is always USD. For other verifiers which support multiple currencies, _fiatCurrency needs to be checked against the fiat currency in the proof."
      },
      "verifyProofSignatures(((string,string,string),((bytes32,address,uint32,uint32),bytes[]),bool),address[],uint256)": {
        "notice": "Verify proof generated by witnesses. Claim is constructed by hashing claimInfo (provider, context, parameters) to get the identifier. And then signing on (identifier, owner, timestamp, epoch) to get claim signature.  This function verifies a claim by performing the following checks on the claim - Calculates the hash of the claimInfo and checks if it matches the identifier in the claim - Checks if the signatures are valid and from the witnesses This function reverts if - No signatures are found on the proof - ClaimInfo hash does not match the identifier in the claim - Signatures are invalid (not from the witnesses)  DEV NOTE: This function does NOT validate that the claim provider hash is valid. That is the  responsibility of the caller. Ensure witnesses are unique otherwise the threshold can be met  with duplicate witnesses.  Parts of the code are adapted from: https://basescan.org/address/0x7281630e4346dd4c0b7ae3b4689c1d0102741410#code    "
      }
    },
    "version": 1
  },
  "storageLayout": {
    "storage": [
      {
        "astId": 7,
        "contract": "contracts/verifiers/VenmoReclaimVerifier.sol:VenmoReclaimVerifier",
        "label": "_owner",
        "offset": 0,
        "slot": "0",
        "type": "t_address"
      },
      {
        "astId": 8680,
        "contract": "contracts/verifiers/VenmoReclaimVerifier.sol:VenmoReclaimVerifier",
        "label": "nullifierRegistry",
        "offset": 0,
        "slot": "1",
        "type": "t_contract(INullifierRegistry)13540"
      },
      {
        "astId": 8682,
        "contract": "contracts/verifiers/VenmoReclaimVerifier.sol:VenmoReclaimVerifier",
        "label": "timestampBuffer",
        "offset": 0,
        "slot": "2",
        "type": "t_uint256"
      },
      {
        "astId": 8685,
        "contract": "contracts/verifiers/VenmoReclaimVerifier.sol:VenmoReclaimVerifier",
        "label": "currencies",
        "offset": 0,
        "slot": "3",
        "type": "t_array(t_bytes32)dyn_storage"
      },
      {
        "astId": 8689,
        "contract": "contracts/verifiers/VenmoReclaimVerifier.sol:VenmoReclaimVerifier",
        "label": "isCurrency",
        "offset": 0,
        "slot": "4",
        "type": "t_mapping(t_bytes32,t_bool)"
      },
      {
        "astId": 8886,
        "contract": "contracts/verifiers/VenmoReclaimVerifier.sol:VenmoReclaimVerifier",
        "label": "isProviderHash",
        "offset": 0,
        "slot": "5",
        "type": "t_mapping(t_string_memory_ptr,t_bool)"
      },
      {
        "astId": 8889,
        "contract": "contracts/verifiers/VenmoReclaimVerifier.sol:VenmoReclaimVerifier",
        "label": "providerHashes",
        "offset": 0,
        "slot": "6",
        "type": "t_array(t_string_storage)dyn_storage"
      }
    ],
    "types": {
      "t_address": {
        "encoding": "inplace",
        "label": "address",
        "numberOfBytes": "20"
      },
      "t_array(t_bytes32)dyn_storage": {
        "base": "t_bytes32",
        "encoding": "dynamic_array",
        "label": "bytes32[]",
        "numberOfBytes": "32"
      },
      "t_array(t_string_storage)dyn_storage": {
        "base": "t_string_storage",
        "encoding": "dynamic_array",
        "label": "string[]",
        "numberOfBytes": "32"
      },
      "t_bool": {
        "encoding": "inplace",
        "label": "bool",
        "numberOfBytes": "1"
      },
      "t_bytes32": {
        "encoding": "inplace",
        "label": "bytes32",
        "numberOfBytes": "32"
      },
      "t_contract(INullifierRegistry)13540": {
        "encoding": "inplace",
        "label": "contract INullifierRegistry",
        "numberOfBytes": "20"
      },
      "t_mapping(t_bytes32,t_bool)": {
        "encoding": "mapping",
        "key": "t_bytes32",
        "label": "mapping(bytes32 => bool)",
        "numberOfBytes": "32",
        "value": "t_bool"
      },
      "t_mapping(t_string_memory_ptr,t_bool)": {
        "encoding": "mapping",
        "key": "t_string_memory_ptr",
        "label": "mapping(string => bool)",
        "numberOfBytes": "32",
        "value": "t_bool"
      },
      "t_string_memory_ptr": {
        "encoding": "bytes",
        "label": "string",
        "numberOfBytes": "32"
      },
      "t_string_storage": {
        "encoding": "bytes",
        "label": "string",
        "numberOfBytes": "32"
      },
      "t_uint256": {
        "encoding": "inplace",
        "label": "uint256",
        "numberOfBytes": "32"
      }
    }
  }
}