{
  "address": "0x76D33A33068D86016B806dF02376dDBb23Dd3703",
  "abi": [
    {
      "inputs": [
        {
          "internalType": "address",
          "name": "_escrow",
          "type": "address"
        },
        {
          "internalType": "contract INullifierRegistry",
          "name": "_nullifierRegistry",
          "type": "address"
        },
        {
          "internalType": "uint256",
          "name": "_timestampBuffer",
          "type": "uint256"
        },
        {
          "internalType": "bytes32[]",
          "name": "_currencies",
          "type": "bytes32[]"
        },
        {
          "internalType": "string[]",
          "name": "_providerHashes",
          "type": "string[]"
        }
      ],
      "stateMutability": "nonpayable",
      "type": "constructor"
    },
    {
      "anonymous": false,
      "inputs": [
        {
          "indexed": false,
          "internalType": "bytes32",
          "name": "currencyCode",
          "type": "bytes32"
        }
      ],
      "name": "CurrencyAdded",
      "type": "event"
    },
    {
      "anonymous": false,
      "inputs": [
        {
          "indexed": false,
          "internalType": "bytes32",
          "name": "currencyCode",
          "type": "bytes32"
        }
      ],
      "name": "CurrencyRemoved",
      "type": "event"
    },
    {
      "anonymous": false,
      "inputs": [
        {
          "indexed": true,
          "internalType": "address",
          "name": "previousOwner",
          "type": "address"
        },
        {
          "indexed": true,
          "internalType": "address",
          "name": "newOwner",
          "type": "address"
        }
      ],
      "name": "OwnershipTransferred",
      "type": "event"
    },
    {
      "anonymous": false,
      "inputs": [
        {
          "indexed": false,
          "internalType": "string",
          "name": "providerHash",
          "type": "string"
        }
      ],
      "name": "ProviderHashAdded",
      "type": "event"
    },
    {
      "anonymous": false,
      "inputs": [
        {
          "indexed": false,
          "internalType": "string",
          "name": "providerHash",
          "type": "string"
        }
      ],
      "name": "ProviderHashRemoved",
      "type": "event"
    },
    {
      "anonymous": false,
      "inputs": [
        {
          "indexed": false,
          "internalType": "uint256",
          "name": "timestampBuffer",
          "type": "uint256"
        }
      ],
      "name": "TimestampBufferSet",
      "type": "event"
    },
    {
      "inputs": [],
      "name": "COMPLETE_PAYMENT_STATUS",
      "outputs": [
        {
          "internalType": "bytes32",
          "name": "",
          "type": "bytes32"
        }
      ],
      "stateMutability": "view",
      "type": "function"
    },
    {
      "inputs": [
        {
          "internalType": "bytes32",
          "name": "_currencyCode",
          "type": "bytes32"
        }
      ],
      "name": "addCurrency",
      "outputs": [],
      "stateMutability": "nonpayable",
      "type": "function"
    },
    {
      "inputs": [
        {
          "internalType": "string",
          "name": "_newProviderHash",
          "type": "string"
        }
      ],
      "name": "addProviderHash",
      "outputs": [],
      "stateMutability": "nonpayable",
      "type": "function"
    },
    {
      "inputs": [],
      "name": "escrow",
      "outputs": [
        {
          "internalType": "address",
          "name": "",
          "type": "address"
        }
      ],
      "stateMutability": "view",
      "type": "function"
    },
    {
      "inputs": [],
      "name": "getCurrencies",
      "outputs": [
        {
          "internalType": "bytes32[]",
          "name": "",
          "type": "bytes32[]"
        }
      ],
      "stateMutability": "view",
      "type": "function"
    },
    {
      "inputs": [],
      "name": "getProviderHashes",
      "outputs": [
        {
          "internalType": "string[]",
          "name": "",
          "type": "string[]"
        }
      ],
      "stateMutability": "view",
      "type": "function"
    },
    {
      "inputs": [
        {
          "internalType": "bytes32",
          "name": "",
          "type": "bytes32"
        }
      ],
      "name": "isCurrency",
      "outputs": [
        {
          "internalType": "bool",
          "name": "",
          "type": "bool"
        }
      ],
      "stateMutability": "view",
      "type": "function"
    },
    {
      "inputs": [
        {
          "internalType": "string",
          "name": "",
          "type": "string"
        }
      ],
      "name": "isProviderHash",
      "outputs": [
        {
          "internalType": "bool",
          "name": "",
          "type": "bool"
        }
      ],
      "stateMutability": "view",
      "type": "function"
    },
    {
      "inputs": [],
      "name": "nullifierRegistry",
      "outputs": [
        {
          "internalType": "contract INullifierRegistry",
          "name": "",
          "type": "address"
        }
      ],
      "stateMutability": "view",
      "type": "function"
    },
    {
      "inputs": [],
      "name": "owner",
      "outputs": [
        {
          "internalType": "address",
          "name": "",
          "type": "address"
        }
      ],
      "stateMutability": "view",
      "type": "function"
    },
    {
      "inputs": [
        {
          "internalType": "uint256",
          "name": "",
          "type": "uint256"
        }
      ],
      "name": "providerHashes",
      "outputs": [
        {
          "internalType": "string",
          "name": "",
          "type": "string"
        }
      ],
      "stateMutability": "view",
      "type": "function"
    },
    {
      "inputs": [
        {
          "internalType": "bytes32",
          "name": "_currencyCode",
          "type": "bytes32"
        }
      ],
      "name": "removeCurrency",
      "outputs": [],
      "stateMutability": "nonpayable",
      "type": "function"
    },
    {
      "inputs": [
        {
          "internalType": "string",
          "name": "_removeProviderHash",
          "type": "string"
        }
      ],
      "name": "removeProviderHash",
      "outputs": [],
      "stateMutability": "nonpayable",
      "type": "function"
    },
    {
      "inputs": [],
      "name": "renounceOwnership",
      "outputs": [],
      "stateMutability": "nonpayable",
      "type": "function"
    },
    {
      "inputs": [
        {
          "internalType": "uint256",
          "name": "_timestampBuffer",
          "type": "uint256"
        }
      ],
      "name": "setTimestampBuffer",
      "outputs": [],
      "stateMutability": "nonpayable",
      "type": "function"
    },
    {
      "inputs": [],
      "name": "timestampBuffer",
      "outputs": [
        {
          "internalType": "uint256",
          "name": "",
          "type": "uint256"
        }
      ],
      "stateMutability": "view",
      "type": "function"
    },
    {
      "inputs": [
        {
          "internalType": "address",
          "name": "newOwner",
          "type": "address"
        }
      ],
      "name": "transferOwnership",
      "outputs": [],
      "stateMutability": "nonpayable",
      "type": "function"
    },
    {
      "inputs": [
        {
          "components": [
            {
              "internalType": "bytes",
              "name": "paymentProof",
              "type": "bytes"
            },
            {
              "internalType": "address",
              "name": "depositToken",
              "type": "address"
            },
            {
              "internalType": "uint256",
              "name": "intentAmount",
              "type": "uint256"
            },
            {
              "internalType": "uint256",
              "name": "intentTimestamp",
              "type": "uint256"
            },
            {
              "internalType": "string",
              "name": "payeeDetails",
              "type": "string"
            },
            {
              "internalType": "bytes32",
              "name": "fiatCurrency",
              "type": "bytes32"
            },
            {
              "internalType": "uint256",
              "name": "conversionRate",
              "type": "uint256"
            },
            {
              "internalType": "bytes",
              "name": "data",
              "type": "bytes"
            }
          ],
          "internalType": "struct IPaymentVerifier.VerifyPaymentData",
          "name": "_verifyPaymentData",
          "type": "tuple"
        }
      ],
      "name": "verifyPayment",
      "outputs": [
        {
          "internalType": "bool",
          "name": "",
          "type": "bool"
        },
        {
          "internalType": "bytes32",
          "name": "",
          "type": "bytes32"
        }
      ],
      "stateMutability": "nonpayable",
      "type": "function"
    },
    {
      "inputs": [
        {
          "components": [
            {
              "components": [
                {
                  "internalType": "string",
                  "name": "provider",
                  "type": "string"
                },
                {
                  "internalType": "string",
                  "name": "parameters",
                  "type": "string"
                },
                {
                  "internalType": "string",
                  "name": "context",
                  "type": "string"
                }
              ],
              "internalType": "struct Claims.ClaimInfo",
              "name": "claimInfo",
              "type": "tuple"
            },
            {
              "components": [
                {
                  "components": [
                    {
                      "internalType": "bytes32",
                      "name": "identifier",
                      "type": "bytes32"
                    },
                    {
                      "internalType": "address",
                      "name": "owner",
                      "type": "address"
                    },
                    {
                      "internalType": "uint32",
                      "name": "timestampS",
                      "type": "uint32"
                    },
                    {
                      "internalType": "uint32",
                      "name": "epoch",
                      "type": "uint32"
                    }
                  ],
                  "internalType": "struct Claims.CompleteClaimData",
                  "name": "claim",
                  "type": "tuple"
                },
                {
                  "internalType": "bytes[]",
                  "name": "signatures",
                  "type": "bytes[]"
                }
              ],
              "internalType": "struct Claims.SignedClaim",
              "name": "signedClaim",
              "type": "tuple"
            },
            {
              "internalType": "bool",
              "name": "isAppclipProof",
              "type": "bool"
            }
          ],
          "internalType": "struct IReclaimVerifier.ReclaimProof",
          "name": "proof",
          "type": "tuple"
        },
        {
          "internalType": "address[]",
          "name": "_witnesses",
          "type": "address[]"
        },
        {
          "internalType": "uint256",
          "name": "_requiredThreshold",
          "type": "uint256"
        }
      ],
      "name": "verifyProofSignatures",
      "outputs": [
        {
          "internalType": "bool",
          "name": "",
          "type": "bool"
        }
      ],
      "stateMutability": "pure",
      "type": "function"
    }
  ],
  "transactionHash": "0xad13cefb46d35921b1a75a8d9a70681a5d196035659130fa3bcf5313c71993cc",
  "args": [
    "0xCA38607D85E8F6294Dc10728669605E6664C2D70",
    "0x27B4A4542af8EefB7eBf574a562C5D4DaA17137F",
    "30",
    [
      "0xc4ae21aac0c6549d71dd96035b7e0bdb6c79ebdba8891b666115bc976d16a29e"
    ],
    [
      "0x5e3b19d2559f94bb09ec06bb3b11a099f47af374d54c8b98ee21efa3054357b1",
      "0xb03e3643371b78072eeaa716fd7a4817ee747c89eb4a4bab1596cb70c6b7a4a5",
      "0x007b71e8851d3164bb11ae5c87752d736ccd13d7c4da61ac4b6ef9656f9914c3",
      "0x94ec5a7a93a6cec9f698feb873cbcdfac7713e43e3ec7668733fea3d6ac76490",
      "0xea57e3cfddd27da488a4978ca409fce18fe1807e4a497097843e422bbcd8362d",
      "0x3cd9eec85a149743ac863ae77413035b351216c83390b5ebbf8079ad32b7941d",
      "0xa43372a0495ac5112be6e9c137ab47e89d2b40f2d1f1e99c539d956d893e36b1",
      "0xa5887be699d240b0c68eb2776c5b1376996abc47086d7bb5d23aff4c92afbcb0",
      "0xb4c0c5aae02661ad30a5ea9694c0d8042d97e60f27a2c500049087c69ac5a02b",
      "0xcd8f73c4deb3f3b68125102787da671bf08285578914aea229153398a13ec0bf",
      "0x20bdb76eb88364dec7e206ea36ea33143e9b4c198f5e8694907a08b7a7c33527",
      "0x93acc7ec44813fcc3d154413e990f6d5f6212402d4535a7aa93d26df557f47c3",
      "0xc3b9e2179a485c105e90900788a55347d8559630432cb6903409dcba151006c7",
      "0xdf0c89146134ac843a5d9a7ab44a7985a0a8b0602d4f5ef6d0d99cc88fe84dd9",
      "0x94ccfdf3ec40b72c280cce190d0d8164a5653bf2838fc1f29d8b7d1b01d210a1",
      ""
    ]
  ],
  "numDeployments": 1,
  "solcInputHash": "1b0acf40c949b1fba220fcd148ed12c0",
  "bytecode": "0x60a06040523480156200001157600080fd5b5060405162004db638038062004db68339810160408190526200003491620005bc565b84848484848484848462000048336200027a565b6001600160a01b03848116608052600180546001600160a01b031916918516919091179055600282905560005b8151811015620000c157620000ac828281518110620000985762000098620006b9565b6020026020010151620002ca60201b60201c565b80620000b881620006cf565b91505062000075565b505050505060005b815181101562000269576005828281518110620000ea57620000ea620006b9565b6020026020010151604051620001019190620006f7565b9081526040519081900360200190205460ff1615620001675760405162461bcd60e51b815260206004820152601b60248201527f50726f7669646572206861736820616c7265616479206164646564000000000060448201526064015b60405180910390fd5b60016005838381518110620001805762000180620006b9565b6020026020010151604051620001979190620006f7565b908152602001604051809103902060006101000a81548160ff0219169083151502179055506006828281518110620001d357620001d3620006b9565b60209081029190910181015182546001810184556000938452919092200190620001fe9082620007a4565b507fc9e1c78701d1853eeb1eb35ad3449e4b336281f672d5837243d21239dc6f4096828281518110620002355762000235620006b9565b60200260200101516040516200024c919062000870565b60405180910390a1806200026081620006cf565b915050620000c9565b5050505050505050505050620008a5565b600080546001600160a01b038381166001600160a01b0319831681178455604051919092169283917f8be0079c531659141344cd1fd0a4f28419497f9722a3daafe3b4186f6b6457e09190a35050565b620002d4620003b6565b60008181526004602052604090205460ff1615620003355760405162461bcd60e51b815260206004820152601660248201527f43757272656e637920616c72656164792061646465640000000000000000000060448201526064016200015e565b6003805460018082019092557fc2575a0e9e593c00f959f8c92f12db2869c3395a3b0502d05e2516446f71f85b01829055600082815260046020908152604091829020805460ff1916909317909255518281527f15e2bb2d9733845f72b6cc683c4d7bafd2d79cfd5c160cb1be756b6faa97dbdc910160405180910390a150565b6000546001600160a01b03163314620004125760405162461bcd60e51b815260206004820181905260248201527f4f776e61626c653a2063616c6c6572206973206e6f7420746865206f776e657260448201526064016200015e565b565b6001600160a01b03811681146200042a57600080fd5b50565b634e487b7160e01b600052604160045260246000fd5b604051601f8201601f191681016001600160401b03811182821017156200046e576200046e6200042d565b604052919050565b60006001600160401b038211156200049257620004926200042d565b5060051b60200190565b60005b83811015620004b95781810151838201526020016200049f565b50506000910152565b6000601f8381840112620004d557600080fd5b82516020620004ee620004e88362000476565b62000443565b82815260059290921b850181019181810190878411156200050e57600080fd5b8287015b84811015620005b05780516001600160401b0380821115620005345760008081fd5b818a0191508a603f8301126200054a5760008081fd5b858201516040828211156200056357620005636200042d565b62000576828b01601f1916890162000443565b92508183528c818386010111156200058e5760008081fd5b6200059f828985018387016200049c565b505084525091830191830162000512565b50979650505050505050565b600080600080600060a08688031215620005d557600080fd5b8551620005e28162000414565b80955050602080870151620005f78162000414565b6040880151606089015191965094506001600160401b03808211156200061c57600080fd5b818901915089601f8301126200063157600080fd5b815162000642620004e88262000476565b81815260059190911b8301840190848101908c8311156200066257600080fd5b938501935b82851015620006825784518252938501939085019062000667565b60808c015190975094505050808311156200069c57600080fd5b5050620006ac88828901620004c2565b9150509295509295909350565b634e487b7160e01b600052603260045260246000fd5b600060018201620006f057634e487b7160e01b600052601160045260246000fd5b5060010190565b600082516200070b8184602087016200049c565b9190910192915050565b600181811c908216806200072a57607f821691505b6020821081036200074b57634e487b7160e01b600052602260045260246000fd5b50919050565b601f8211156200079f57600081815260208120601f850160051c810160208610156200077a5750805b601f850160051c820191505b818110156200079b5782815560010162000786565b5050505b505050565b81516001600160401b03811115620007c057620007c06200042d565b620007d881620007d1845462000715565b8462000751565b602080601f831160018114620008105760008415620007f75750858301515b600019600386901b1c1916600185901b1785556200079b565b600085815260208120601f198616915b82811015620008415788860151825594840194600190910190840162000820565b5085821015620008605787850151600019600388901b60f8161c191681555b5050505050600190811b01905550565b6020815260008251806020840152620008918160408501602087016200049c565b601f01601f19169190910160400192915050565b6080516144ee620008c8600039600081816102dd015261062101526144ee6000f3fe608060405234801561001057600080fd5b50600436106101215760003560e01c80638da5cb5b116100ad578063dbac582111610071578063dbac5821146102cf578063e2fdcc17146102d8578063efd4ad5a146102ff578063f2fde38b14610312578063fa93cd381461032557600080fd5b80638da5cb5b1461025c578063b2a3fda414610281578063b870676c14610294578063bd6e7741146102a7578063c2107e73146102ba57600080fd5b806361c661de116100f457806361c661de146101c1578063680cc8f9146101d65780636903718014610217578063715018a61461022a57806384c7b4391461023257600080fd5b80631cba9bed146101265780632ca6927d1461013b5780633e1d0edc1461017e57806357c6e12a146101a1575b600080fd5b61013961013436600461375e565b610338565b005b61016961014936600461375e565b805160208183018101805160058252928201919093012091525460ff1681565b60405190151581526020015b60405180910390f35b61016961018c366004613792565b60046020526000908152604090205460ff1681565b6101b46101af366004613792565b610420565b60405161017591906137fb565b6101c96104cc565b604051610175919061380e565b61020960405167434f4d504c45544560c01b60208201526028016040516020818303038152906040528051906020012081565b604051908152602001610175565b610139610225366004613792565b610524565b6101396105ff565b610245610240366004613852565b610613565b604080519215158352602083019190915201610175565b6000546001600160a01b03165b6040516001600160a01b039091168152602001610175565b61013961028f366004613792565b610712565b600154610269906001600160a01b031681565b6101396102b536600461375e565b61074f565b6102c2610865565b6040516101759190613894565b61020960025481565b6102697f000000000000000000000000000000000000000000000000000000000000000081565b61013961030d366004613792565b61093e565b61013961032036600461390d565b6109ec565b610169610333366004613c1b565b610a65565b610340610e25565b6005816040516103509190613c87565b9081526040519081900360200190205460ff166103b45760405162461bcd60e51b815260206004820152601760248201527f50726f76696465722068617368206e6f7420666f756e6400000000000000000060448201526064015b60405180910390fd5b6005816040516103c49190613c87565b908152604051908190036020019020805460ff191690556103e6600682610e7f565b7f6f594b4b4f0580c66aabba75218163a99fa1fe330a171cc9e2bfd8e167db22f88160405161041591906137fb565b60405180910390a150565b6006818154811061043057600080fd5b90600052602060002001600091509050805461044b90613ca3565b80601f016020809104026020016040519081016040528092919081815260200182805461047790613ca3565b80156104c45780601f10610499576101008083540402835291602001916104c4565b820191906000526020600020905b8154815290600101906020018083116104a757829003601f168201915b505050505081565b6060600380548060200260200160405190810160405280929190818152602001828054801561051a57602002820191906000526020600020905b815481526020019060010190808311610506575b5050505050905090565b61052c610e25565b60008181526004602052604090205460ff16156105845760405162461bcd60e51b815260206004820152601660248201527510dd5c9c995b98de48185b1c9958591e48185919195960521b60448201526064016103ab565b6003805460018082019092557fc2575a0e9e593c00f959f8c92f12db2869c3395a3b0502d05e2516446f71f85b01829055600082815260046020908152604091829020805460ff1916909317909255518281527f15e2bb2d9733845f72b6cc683c4d7bafd2d79cfd5c160cb1be756b6faa97dbdc9101610415565b610607610e25565b6106116000611039565b565b600080336001600160a01b037f000000000000000000000000000000000000000000000000000000000000000016146106855760405162461bcd60e51b815260206004820152601460248201527313db9b1e48195cd8dc9bddc818d85b8818d85b1b60621b60448201526064016103ab565b6000806106a76106958680613cdd565b6106a260e0890189613cdd565b611089565b915091506106bf82866106b990613d23565b8361112b565b6106f282606001516040516020016106d79190613c87565b604051602081830303815290604052805190602001206114cd565b60c082015160009061070490826115e8565b600197909650945050505050565b61071a610e25565b60028190556040518181527f11e8dda5412ecab251b7783921be2eb37fdf13b389fc7f671f2cee11a1dfefea90602001610415565b610757610e25565b6005816040516107679190613c87565b9081526040519081900360200190205460ff16156107c75760405162461bcd60e51b815260206004820152601b60248201527f50726f7669646572206861736820616c7265616479206164646564000000000060448201526064016103ab565b60016005826040516107d99190613c87565b908152604051908190036020019020805491151560ff19909216919091179055600680546001810182556000919091527ff652222313e28459528d920b65115c16c04f3efc82aaedc97be59f3f377c0d3f016108358282613e3d565b507fc9e1c78701d1853eeb1eb35ad3449e4b336281f672d5837243d21239dc6f40968160405161041591906137fb565b60606006805480602002602001604051908101604052809291908181526020016000905b828210156109355783829060005260206000200180546108a890613ca3565b80601f01602080910402602001604051908101604052809291908181526020018280546108d490613ca3565b80156109215780601f106108f657610100808354040283529160200191610921565b820191906000526020600020905b81548152906001019060200180831161090457829003601f168201915b505050505081526020019060010190610889565b50505050905090565b610946610e25565b60008181526004602052604090205460ff166109995760405162461bcd60e51b815260206004820152601260248201527110dd5c9c995b98de481b9bdd08185919195960721b60448201526064016103ab565b6109a4600382611602565b60008181526004602052604090819020805460ff19169055517fa3c6a408fb053e3ef5e9bcd22e3574324a5ae99fad263cc4080da481842d3d4c906104159083815260200190565b6109f4610e25565b6001600160a01b038116610a595760405162461bcd60e51b815260206004820152602660248201527f4f776e61626c653a206e6577206f776e657220697320746865207a65726f206160448201526564647265737360d01b60648201526084016103ab565b610a6281611039565b50565b6000808211610ac85760405162461bcd60e51b815260206004820152602960248201527f5265717569726564207468726573686f6c64206d75737420626520677265617460448201526806572207468616e20360bc1b60648201526084016103ab565b8251821115610b4d5760405162461bcd60e51b8152602060048201526044602482018190527f5265717569726564207468726573686f6c64206d757374206265206c65737320908201527f7468616e206f7220657175616c20746f206e756d626572206f66207769746e656064820152637373657360e01b608482015260a4016103ab565b60008460200151602001515111610b965760405162461bcd60e51b815260206004820152600d60248201526c4e6f207369676e61747572657360981b60448201526064016103ab565b604080518082019091526020808601805151835251810151908201528451600090610bc09061172a565b602087015151519091508114610c185760405162461bcd60e51b815260206004820152601c60248201527f436c61696d496e666f206861736820646f65736e2774206d617463680000000060448201526064016103ab565b80610c5e5760405162461bcd60e51b8152602060048201526016602482015275436c61696d496e666f2068617368206973207a65726f60501b60448201526064016103ab565b6000610c698361176d565b90508481511015610ccd5760405162461bcd60e51b815260206004820152602860248201527f4665776572207369676e617475726573207468616e20726571756972656420746044820152671a1c995cda1bdb1960c21b60648201526084016103ab565b600081516001600160401b03811115610ce857610ce861363c565b604051908082528060200260200182016040528015610d11578160200160208202803683370190505b5090506000805b8351811015610db9576000848281518110610d3557610d35613efc565b60200260200101519050610d52818561184690919063ffffffff16565b15610d5d5750610da7565b610d678a82611846565b15610da55780848481518110610d7f57610d7f613efc565b6001600160a01b039092166020928302919091019091015282610da181613f28565b9350505b505b80610db181613f28565b915050610d18565b5086811015610e165760405162461bcd60e51b815260206004820152602360248201527f4e6f7420656e6f7567682076616c6964207769746e657373207369676e61747560448201526272657360e81b60648201526084016103ab565b50600198975050505050505050565b6000546001600160a01b031633146106115760405162461bcd60e51b815260206004820181905260248201527f4f776e61626c653a2063616c6c6572206973206e6f7420746865206f776e657260448201526064016103ab565b600080610f5c84805480602002602001604051908101604052809291908181526020016000905b82821015610f52578382906000526020600020018054610ec590613ca3565b80601f0160208091040260200160405190810160405280929190818152602001828054610ef190613ca3565b8015610f3e5780601f10610f1357610100808354040283529160200191610f3e565b820191906000526020600020905b815481529060010190602001808311610f2157829003601f168201915b505050505081526020019060010190610ea6565b505050508461185c565b9150915080610fa45760405162461bcd60e51b815260206004820152601460248201527329ba3934b733903737ba1034b71030b93930bc9760611b60448201526064016103ab565b8354600090610fb590600190613f41565b905080831461100457848181548110610fd057610fd0613efc565b90600052602060002001858481548110610fec57610fec613efc565b9060005260206000200190816110029190613f54565b505b8480548061101457611014614026565b60019003818190600052602060002001600061103091906135a4565b90555050505050565b600080546001600160a01b038381166001600160a01b0319831681178455604051919092169283917f8be0079c531659141344cd1fd0a4f28419497f9722a3daafe3b4186f6b6457e09190a35050565b6110916135de565b6000806110a08688018861403c565b905060006110ae86866118cd565b90506110bc82826001610a65565b506110c6826118db565b93506110d58460e00151611a0e565b6111195760405162461bcd60e51b815260206004820152601560248201527409cde40ecc2d8d2c840e0e4deecd2c8cae490c2e6d605b1b60448201526064016103ab565b81604001519250505094509492505050565b6000670de0b6b3a76400008360c00151846040015161114a9190614070565b611154919061409d565b9050600083602001516001600160a01b031663313ce5676040518163ffffffff1660e01b8152600401602060405180830381865afa15801561119a573d6000803e3d6000fd5b505050506040513d601f19601f820116820180604052508101906111be91906140b1565b905060006111d0866000015183611a39565b9050828110156112225760405162461bcd60e51b815260206004820152601860248201527f496e636f7272656374207061796d656e7420616d6f756e74000000000000000060448201526064016103ab565b83156112c05760008660a0015160405160200161123f9190613c87565b60405160208183030381529060405280519060200120905061126e866080015161126883611a53565b90611c18565b6112ba5760405162461bcd60e51b815260206004820152601b60248201527f496e636f7272656374207061796d656e7420726563697069656e74000000000060448201526064016103ab565b5061131f565b608085015160a08701516112d391611c18565b61131f5760405162461bcd60e51b815260206004820152601b60248201527f496e636f7272656374207061796d656e7420726563697069656e74000000000060448201526064016103ab565b60006002546103e861133f60008a602001516115e890919063ffffffff16565b611349919061409d565b61135391906140d4565b905085606001518110156113a95760405162461bcd60e51b815260206004820152601b60248201527f496e636f7272656374207061796d656e742074696d657374616d70000000000060448201526064016103ab565b8560a0015187604001516040516020016113c39190613c87565b60405160208183030381529060405280519060200120146114265760405162461bcd60e51b815260206004820152601a60248201527f496e636f7272656374207061796d656e742063757272656e637900000000000060448201526064016103ab565b60405167434f4d504c45544560c01b60208201526028016040516020818303038152906040528051906020012087608001516040516020016114689190613c87565b60405160208183030381529060405280519060200120146114c45760405162461bcd60e51b8152602060048201526016602482015275496e76616c6964207061796d656e742073746174757360501b60448201526064016103ab565b50505050505050565b60015460405163169394bb60e01b8152600481018390526001600160a01b039091169063169394bb90602401602060405180830381865afa158015611516573d6000803e3d6000fd5b505050506040513d601f19601f8201168201806040525081019061153a91906140e7565b156115875760405162461bcd60e51b815260206004820152601f60248201527f4e756c6c69666965722068617320616c7265616479206265656e20757365640060448201526064016103ab565b600154604051632dea6f9960e11b8152600481018390526001600160a01b0390911690635bd4df3290602401600060405180830381600087803b1580156115cd57600080fd5b505af11580156115e1573d6000803e3d6000fd5b5050505050565b60006115f983601760f91b84611c71565b90505b92915050565b60008061165e8480548060200260200160405190810160405280929190818152602001828054801561165357602002820191906000526020600020905b81548152602001906001019080831161163f575b505050505084611e4e565b91509150806116a75760405162461bcd60e51b8152602060048201526015602482015274313cba32b99999103737ba1034b71030b93930bc9760591b60448201526064016103ab565b83546000906116b890600190613f41565b90508083146116fd578481815481106116d3576116d3613efc565b90600052602060002001548584815481106116f0576116f0613efc565b6000918252602090912001555b8480548061170d5761170d614026565b600190038181906000526020600020016000905590555050505050565b60008082600001518360200151846040015160405160200161174e93929190614104565b60408051601f1981840301815291905280516020909101209392505050565b6060600061177e8360000151611e9e565b905060008360200151516001600160401b0381111561179f5761179f61363c565b6040519080825280602002602001820160405280156117c8578160200160208202803683370190505b50905060005b84602001515181101561183e5761180283866020015183815181106117f5576117f5613efc565b6020026020010151611f2a565b82828151811061181457611814613efc565b6001600160a01b03909216602092830291909101909101528061183681613f28565b9150506117ce565b509392505050565b6000806118538484611f73565b95945050505050565b81516000908190815b818110156118ba57848051906020012086828151811061188757611887613efc565b602002602001015180519060200120036118a8579250600191506118c69050565b806118b281613f28565b915050611865565b50600019600092509250505b9250929050565b60606115f98284018461415f565b6118e36135de565b60006118fa836000015160400151600a6001611fd5565b90506040518061010001604052808260038151811061191b5761191b613efc565b602002602001015181526020018260058151811061193b5761193b613efc565b602002602001015181526020018260048151811061195b5761195b613efc565b602002602001015181526020018260068151811061197b5761197b613efc565b602002602001015181526020018260088151811061199b5761199b613efc565b60200260200101518152602001826007815181106119bb576119bb613efc565b60200260200101518152602001826001815181106119db576119db613efc565b60200260200101518152602001826009815181106119fb576119fb613efc565b6020026020010151815250915050919050565b6000600582604051611a209190613c87565b9081526040519081900360200190205460ff1692915050565b60006115f9611a49600284614193565b849060ff166115e8565b604080518082018252601081526f181899199a1a9b1b9c1cb0b131b232b360811b6020820152815160428082526080820190935260609260009190602082018180368337019050509050600360fc1b81600081518110611ab557611ab5613efc565b60200101906001600160f81b031916908160001a905350600f60fb1b81600181518110611ae457611ae4613efc565b60200101906001600160f81b031916908160001a90535060005b602081101561183e57826004868360208110611b1c57611b1c613efc565b1a60f81b6001600160f81b031916901c60f81c60ff1681518110611b4257611b42613efc565b01602001516001600160f81b03191682611b5d836002614070565b611b689060026140d4565b81518110611b7857611b78613efc565b60200101906001600160f81b031916908160001a90535082858260208110611ba257611ba2613efc565b825191901a600f16908110611bb957611bb9613efc565b01602001516001600160f81b03191682611bd4836002614070565b611bdf9060036140d4565b81518110611bef57611bef613efc565b60200101906001600160f81b031916908160001a90535080611c1081613f28565b915050611afe565b600081604051602001611c2b9190613c87565b6040516020818303038152906040528051906020012083604051602001611c529190613c87565b6040516020818303038152906040528051906020012014905092915050565b600083818080805b8451811015611dc757603060f81b858281518110611c9957611c99613efc565b01602001516001600160f81b03191610801590611cda5750603960f81b858281518110611cc857611cc8613efc565b01602001516001600160f81b03191611155b15611d1d576030858281518110611cf357611cf3613efc565b0160200151611d05919060f81c613f41565b611d1085600a614070565b611d1a91906140d4565b93505b8115611d315782611d2d81613f28565b9350505b876001600160f81b031916858281518110611d4e57611d4e613efc565b01602001516001600160f81b03191603611db5578115611db05760405162461bcd60e51b815260206004820152601c60248201527f537472696e6720686173206d756c7469706c6520646563696d616c730000000060448201526064016103ab565b600191505b80611dbf81613f28565b915050611c79565b5085821115611e235760405162461bcd60e51b815260206004820152602260248201527f537472696e672068617320746f6f206d616e7920646563696d616c20706c6163604482015261657360f01b60648201526084016103ab565b611e2d8287613f41565b611e3890600a614290565b611e429084614070565b98975050505050505050565b81516000908190815b818110156118ba5784868281518110611e7257611e72613efc565b602002602001015103611e8c579250600191506118c69050565b80611e9681613f28565b915050611e57565b6060611ece8260000151604051602001611eba91815260200190565b604051602081830303815290604052612ea6565b611edb8360200151613069565b611eee846040015163ffffffff166131d2565b611f01856060015163ffffffff166131d2565b604051602001611f14949392919061429c565b6040516020818303038152906040529050919050565b600080611f3784516131d2565b84604051602001611f49929190614315565b604051602081830303815290604052805190602001209050611f6b81846132fd565b949350505050565b81516000908190815b818110156118ba57846001600160a01b0316868281518110611fa057611fa0613efc565b60200260200101516001600160a01b031603611fc3579250600191506118c69050565b80611fcd81613f28565b915050611f7c565b606060008360ff16116120345760405162461bcd60e51b815260206004820152602160248201527f4d61782076616c756573206d7573742062652067726561746572207468616e206044820152600360fc1b60648201526084016103ab565b83600080808080806120478a6002614370565b60ff166001600160401b038111156120615761206161363c565b60405190808252806020026020018201604052801561208a578160200160208202803683370190505b50905060005b604051806040016040528060138152602001723d9131b7b73a32bc3a20b2323932b9b9911d1160691b8152505181101561216957604051806040016040528060138152602001723d9131b7b73a32bc3a20b2323932b9b9911d1160691b815250818151811061210157612101613efc565b01602001516001600160f81b0319168861211b838a6140d4565b8151811061212b5761212b613efc565b01602001516001600160f81b031916146121575760405162461bcd60e51b81526004016103ab90614393565b8061216181613f28565b915050612090565b50604051806040016040528060138152602001723d9131b7b73a32bc3a20b2323932b9b9911d1160691b81525051866121a291906140d4565b95508593505b86518610801561221857508686815181106121c5576121c5613efc565b6020910101516001600160f81b031916601160f91b1480156122165750866121ee600188613f41565b815181106121fe576121fe613efc565b6020910101516001600160f81b031916601760fa1b14155b155b1561222f578561222781613f28565b9650506121a8565b8651861061224f5760405162461bcd60e51b81526004016103ab90614393565b8592508383036122b75760405162461bcd60e51b815260206004820152602d60248201527f45787472616374696f6e206661696c65642e20456d70747920636f6e7465787460448201526c416464726573732076616c756560981b60648201526084016103ab565b83816122c4876002614070565b815181106122d4576122d4613efc565b602090810291909101015282816122ec876002614070565b6122f79060016140d4565b8151811061230757612307613efc565b60209081029190910101528461231c81613f28565b955061232b90506002876140d4565b955060005b604051806040016040528060128152602001711131b7b73a32bc3a26b2b9b9b0b3b2911d1160711b8152505181101561240757604051806040016040528060128152602001711131b7b73a32bc3a26b2b9b9b0b3b2911d1160711b815250818151811061239f5761239f613efc565b01602001516001600160f81b031916886123b9838a6140d4565b815181106123c9576123c9613efc565b01602001516001600160f81b031916146123f55760405162461bcd60e51b81526004016103ab906143de565b806123ff81613f28565b915050612330565b50604051806040016040528060128152602001711131b7b73a32bc3a26b2b9b9b0b3b2911d1160711b815250518661243f91906140d4565b95508593505b8651861080156124b5575086868151811061246257612462613efc565b6020910101516001600160f81b031916601160f91b1480156124b357508661248b600188613f41565b8151811061249b5761249b613efc565b6020910101516001600160f81b031916601760fa1b14155b155b156124cc57856124c481613f28565b965050612445565b865186106124ec5760405162461bcd60e51b81526004016103ab906143de565b8592508383036125545760405162461bcd60e51b815260206004820152602d60248201527f45787472616374696f6e206661696c65642e20456d70747920636f6e7465787460448201526c4d6573736167652076616c756560981b60648201526084016103ab565b8381612561876002614070565b8151811061257157612571613efc565b60209081029190910101528281612589876002614070565b6125949060016140d4565b815181106125a4576125a4613efc565b6020908102919091010152846125b981613f28565b95506125c890506002876140d4565b955060005b604051806040016040528060188152602001771132bc3a3930b1ba32b22830b930b6b2ba32b939911d3d9160411b815250518110156126f957604051806040016040528060188152602001771132bc3a3930b1ba32b22830b930b6b2ba32b939911d3d9160411b815250818151811061264857612648613efc565b01602001516001600160f81b03191688612662838a6140d4565b8151811061267257612672613efc565b01602001516001600160f81b031916146126e75760405162461bcd60e51b815260206004820152603060248201527f45787472616374696f6e206661696c65642e204d616c666f726d65642065787460448201526f726163746564506172616d657465727360801b60648201526084016103ab565b806126f181613f28565b9150506125cd565b50604051806040016040528060188152602001771132bc3a3930b1ba32b22830b930b6b2ba32b939911d3d9160411b815250518661273791906140d4565b9550600091505b8651861015612ae15786868151811061275957612759613efc565b6020910101516001600160f81b031916601160f91b1480156127aa575086612782600188613f41565b8151811061279257612792613efc565b6020910101516001600160f81b031916601760fa1b14155b6127c057856127b881613f28565b96505061273e565b816128c857866127d18760016140d4565b815181106127e1576127e1613efc565b6020910101516001600160f81b031916601d60f91b14801561283157508661280a8760026140d4565b8151811061281a5761281a613efc565b6020910101516001600160f81b031916601160f91b145b6128895760405162461bcd60e51b815260206004820152602360248201527f45787472616374696f6e206661696c65642e204d616c666f726d65642064617460448201526261203160e81b60648201526084016103ab565b6128946003876140d4565b95506001915085816128a7876002614070565b815181106128b7576128b7613efc565b60200260200101818152505061273e565b6000876128d68860016140d4565b815181106128e6576128e6613efc565b6020910101516001600160f81b031916600b60fa1b14801561293657508761290f8860026140d4565b8151811061291f5761291f613efc565b6020910101516001600160f81b031916601160f91b145b90506000886129468960016140d4565b8151811061295657612956613efc565b6020910101516001600160f81b031916607d60f81b1480156129a657508861297f8960026140d4565b8151811061298f5761298f613efc565b6020910101516001600160f81b031916600b60fa1b145b905081806129b15750805b612a095760405162461bcd60e51b815260206004820152602360248201527f45787472616374696f6e206661696c65642e204d616c666f726d65642064617460448201526230901960e91b60648201526084016103ab565b8783612a16896002614070565b612a219060016140d4565b81518110612a3157612a31613efc565b602090810291909101015286612a4681613f28565b9750508115612ac6578b60ff168703612ab05760405162461bcd60e51b815260206004820152602660248201527f45787472616374696f6e206661696c65642e204578636565646564206d61782060448201526576616c75657360d01b60648201526084016103ab565b612abb6003896140d4565b975060009350612ada565b612ad16003896140d4565b97505050612ae1565b505061273e565b8815612cee5760005b6040518060400160405280601081526020016f11383937bb34b232b92430b9b4111d1160811b81525051811015612bff576040518060400160405280601081526020016f11383937bb34b232b92430b9b4111d1160811b8152508181518110612b5557612b55613efc565b01602001516001600160f81b03191688612b6f838a6140d4565b81518110612b7f57612b7f613efc565b01602001516001600160f81b03191614612bed5760405162461bcd60e51b815260206004820152602960248201527f45787472616374696f6e206661696c65642e204d616c666f726d65642070726f6044820152680ecd2c8cae490c2e6d60bb1b60648201526084016103ab565b80612bf781613f28565b915050612aea565b506040518060400160405280601081526020016f11383937bb34b232b92430b9b4111d1160811b8152505186612c3591906140d4565b95508581612c44876002614070565b81518110612c5457612c54613efc565b6020026020010181815250505b865186108015612c965750868681518110612c7e57612c7e613efc565b6020910101516001600160f81b031916601160f91b14155b15612cad5785612ca581613f28565b965050612c61565b8581612cba876002614070565b612cc59060016140d4565b81518110612cd557612cd5613efc565b602090810291909101015284612cea81613f28565b9550505b6000856001600160401b03811115612d0857612d0861363c565b604051908082528060200260200182016040528015612d3b57816020015b6060815260200190600190039081612d265790505b50905060005b86811015612e965782612d55826002614070565b81518110612d6557612d65613efc565b6020026020010151955082816002612d7d9190614070565b612d889060016140d4565b81518110612d9857612d98613efc565b6020026020010151945060008686612db09190613f41565b6001600160401b03811115612dc757612dc761363c565b6040519080825280601f01601f191660200182016040528015612df1576020820181803683370190505b509050865b86811015612e63578a8181518110612e1057612e10613efc565b01602001516001600160f81b03191682612e2a8a84613f41565b81518110612e3a57612e3a613efc565b60200101906001600160f81b031916908160001a90535080612e5b81613f28565b915050612df6565b5080838381518110612e7757612e77613efc565b6020026020010181905250508080612e8e90613f28565b915050612d41565b509b9a5050505050505050505050565b6060600082516002612eb89190614070565b6001600160401b03811115612ecf57612ecf61363c565b6040519080825280601f01601f191660200182016040528015612ef9576020820181803683370190505b5060408051808201909152601081526f181899199a1a9b1b9c1cb0b131b232b360811b602082015290915060005b845181101561303f57818251868381518110612f4557612f45613efc565b0160200151612f57919060f81c61409d565b81518110612f6757612f67613efc565b01602001516001600160f81b03191683612f82836002614070565b81518110612f9257612f92613efc565b60200101906001600160f81b031916908160001a905350818251868381518110612fbe57612fbe613efc565b0160200151612fd0919060f81c614429565b81518110612fe057612fe0613efc565b01602001516001600160f81b03191683612ffb836002614070565b6130069060016140d4565b8151811061301657613016613efc565b60200101906001600160f81b031916908160001a9053508061303781613f28565b915050612f27565b5081604051602001613051919061443d565b60405160208183030381529060405292505050919050565b60408051602880825260608281019093526000919060208201818036833701905050905060005b60148110156131a95760006130a6826013613f41565b6130b1906008614070565b6130bc906002614290565b6130cf906001600160a01b03871661409d565b60f81b9050600060108260f81c6130e69190614467565b60f81b905060008160f81c60106130fd9190614370565b8360f81c61310b9190614193565b60f81b905061311982613319565b85613125866002614070565b8151811061313557613135613efc565b60200101906001600160f81b031916908160001a90535061315581613319565b85613161866002614070565b61316c9060016140d4565b8151811061317c5761317c613efc565b60200101906001600160f81b031916908160001a90535050505080806131a190613f28565b915050613090565b50806040516020016131bb919061443d565b604051602081830303815290604052915050919050565b6060816000036131f95750506040805180820190915260018152600360fc1b602082015290565b8160005b8115613223578061320d81613f28565b915061321c9050600a8361409d565b91506131fd565b6000816001600160401b0381111561323d5761323d61363c565b6040519080825280601f01601f191660200182016040528015613267576020820181803683370190505b509050815b85156132f45761327d600182613f41565b9050600061328c600a8861409d565b61329790600a614070565b6132a19088613f41565b6132ac906030614489565b905060008160f81b9050808484815181106132c9576132c9613efc565b60200101906001600160f81b031916908160001a9053506132eb600a8961409d565b9750505061326c565b50949350505050565b600080600061330c8585613354565b9150915061183e81613396565b6000600a60f883901c10156133405761333760f883901c6030614489565b60f81b92915050565b61333760f883901c6057614489565b919050565b600080825160410361338a5760208301516040840151606085015160001a61337e878285856134e0565b945094505050506118c6565b506000905060026118c6565b60008160048111156133aa576133aa6144a2565b036133b25750565b60018160048111156133c6576133c66144a2565b036134135760405162461bcd60e51b815260206004820152601860248201527f45434453413a20696e76616c6964207369676e6174757265000000000000000060448201526064016103ab565b6002816004811115613427576134276144a2565b036134745760405162461bcd60e51b815260206004820152601f60248201527f45434453413a20696e76616c6964207369676e6174757265206c656e6774680060448201526064016103ab565b6003816004811115613488576134886144a2565b03610a625760405162461bcd60e51b815260206004820152602260248201527f45434453413a20696e76616c6964207369676e6174757265202773272076616c604482015261756560f01b60648201526084016103ab565b6000807f7fffffffffffffffffffffffffffffff5d576e7357a4501ddfe92f46681b20a0831115613517575060009050600361359b565b6040805160008082526020820180845289905260ff881692820192909252606081018690526080810185905260019060a0016020604051602081039080840390855afa15801561356b573d6000803e3d6000fd5b5050604051601f1901519150506001600160a01b0381166135945760006001925092505061359b565b9150600090505b94509492505050565b5080546135b090613ca3565b6000825580601f106135c0575050565b601f016020900490600052602060002090810190610a629190613623565b60405180610100016040528060608152602001606081526020016060815260200160608152602001606081526020016060815260200160608152602001606081525090565b5b808211156136385760008155600101613624565b5090565b634e487b7160e01b600052604160045260246000fd5b604051608081016001600160401b03811182821017156136745761367461363c565b60405290565b604051606081016001600160401b03811182821017156136745761367461363c565b60405161010081016001600160401b03811182821017156136745761367461363c565b604051601f8201601f191681016001600160401b03811182821017156136e7576136e761363c565b604052919050565b600082601f83011261370057600080fd5b81356001600160401b038111156137195761371961363c565b61372c601f8201601f19166020016136bf565b81815284602083860101111561374157600080fd5b816020850160208301376000918101602001919091529392505050565b60006020828403121561377057600080fd5b81356001600160401b0381111561378657600080fd5b611f6b848285016136ef565b6000602082840312156137a457600080fd5b5035919050565b60005b838110156137c65781810151838201526020016137ae565b50506000910152565b600081518084526137e78160208601602086016137ab565b601f01601f19169290920160200192915050565b6020815260006115f960208301846137cf565b6020808252825182820181905260009190848201906040850190845b818110156138465783518352928401929184019160010161382a565b50909695505050505050565b60006020828403121561386457600080fd5b81356001600160401b0381111561387a57600080fd5b8201610100818503121561388d57600080fd5b9392505050565b6000602080830181845280855180835260408601915060408160051b870101925083870160005b828110156138e957603f198886030184526138d78583516137cf565b945092850192908501906001016138bb565b5092979650505050505050565b80356001600160a01b038116811461334f57600080fd5b60006020828403121561391f57600080fd5b6115f9826138f6565b803563ffffffff8116811461334f57600080fd5b60006001600160401b038211156139555761395561363c565b5060051b60200190565b600082601f83011261397057600080fd5b813560206139856139808361393c565b6136bf565b82815260059290921b840181019181810190868411156139a457600080fd5b8286015b848110156139e35780356001600160401b038111156139c75760008081fd5b6139d58986838b01016136ef565b8452509183019183016139a8565b509695505050505050565b600081830360a0811215613a0157600080fd5b604051604081016001600160401b038282108183111715613a2457613a2461363c565b816040528294506080841215613a3957600080fd5b613a41613652565b935085358452613a53602087016138f6565b6020850152613a6460408701613928565b6040850152613a7560608701613928565b606085015292825260808501359280841115613a9057600080fd5b5050613a9e8583860161395f565b6020820152505092915050565b8015158114610a6257600080fd5b803561334f81613aab565b600060608284031215613ad657600080fd5b613ade61367a565b905081356001600160401b0380821115613af757600080fd5b9083019060608286031215613b0b57600080fd5b613b1361367a565b823582811115613b2257600080fd5b613b2e878286016136ef565b825250602083013582811115613b4357600080fd5b613b4f878286016136ef565b602083015250604083013582811115613b6757600080fd5b613b73878286016136ef565b60408301525083526020840135915080821115613b8f57600080fd5b50613b9c848285016139ee565b602083015250613bae60408301613ab9565b604082015292915050565b600082601f830112613bca57600080fd5b81356020613bda6139808361393c565b82815260059290921b84018101918181019086841115613bf957600080fd5b8286015b848110156139e357613c0e816138f6565b8352918301918301613bfd565b600080600060608486031215613c3057600080fd5b83356001600160401b0380821115613c4757600080fd5b613c5387838801613ac4565b94506020860135915080821115613c6957600080fd5b50613c7686828701613bb9565b925050604084013590509250925092565b60008251613c998184602087016137ab565b9190910192915050565b600181811c90821680613cb757607f821691505b602082108103613cd757634e487b7160e01b600052602260045260246000fd5b50919050565b6000808335601e19843603018112613cf457600080fd5b8301803591506001600160401b03821115613d0e57600080fd5b6020019150368190038213156118c657600080fd5b60006101008236031215613d3657600080fd5b613d3e61369c565b82356001600160401b0380821115613d5557600080fd5b613d61368387016136ef565b8352613d6f602086016138f6565b602084015260408501356040840152606085013560608401526080850135915080821115613d9c57600080fd5b613da8368387016136ef565b608084015260a085013560a084015260c085013560c084015260e0850135915080821115613dd557600080fd5b50613de2368286016136ef565b60e08301525092915050565b601f821115613e3857600081815260208120601f850160051c81016020861015613e155750805b601f850160051c820191505b81811015613e3457828155600101613e21565b5050505b505050565b81516001600160401b03811115613e5657613e5661363c565b613e6a81613e648454613ca3565b84613dee565b602080601f831160018114613e9f5760008415613e875750858301515b600019600386901b1c1916600185901b178555613e34565b600085815260208120601f198616915b82811015613ece57888601518255948401946001909101908401613eaf565b5085821015613eec5787850151600019600388901b60f8161c191681555b5050505050600190811b01905550565b634e487b7160e01b600052603260045260246000fd5b634e487b7160e01b600052601160045260246000fd5b600060018201613f3a57613f3a613f12565b5060010190565b818103818111156115fc576115fc613f12565b818103613f5f575050565b613f698254613ca3565b6001600160401b03811115613f8057613f8061363c565b613f8e81613e648454613ca3565b6000601f821160018114613fc25760008315613faa5750848201545b600019600385901b1c1916600184901b1784556115e1565b600085815260209020601f19841690600086815260209020845b83811015613ffc5782860154825560019586019590910190602001613fdc565b5085831015613eec5793015460001960f8600387901b161c19169092555050600190811b01905550565b634e487b7160e01b600052603160045260246000fd5b60006020828403121561404e57600080fd5b81356001600160401b0381111561406457600080fd5b611f6b84828501613ac4565b80820281158282048414176115fc576115fc613f12565b634e487b7160e01b600052601260045260246000fd5b6000826140ac576140ac614087565b500490565b6000602082840312156140c357600080fd5b815160ff8116811461388d57600080fd5b808201808211156115fc576115fc613f12565b6000602082840312156140f957600080fd5b815161388d81613aab565b600084516141168184602089016137ab565b600560f91b9083018181528551909190614137816001850160208a016137ab565b600192019182015283516141528160028401602088016137ab565b0160020195945050505050565b60006020828403121561417157600080fd5b81356001600160401b0381111561418757600080fd5b611f6b84828501613bb9565b60ff82811682821603908111156115fc576115fc613f12565b600181815b808511156141e75781600019048211156141cd576141cd613f12565b808516156141da57918102915b93841c93908002906141b1565b509250929050565b6000826141fe575060016115fc565b8161420b575060006115fc565b8160018114614221576002811461422b57614247565b60019150506115fc565b60ff84111561423c5761423c613f12565b50506001821b6115fc565b5060208310610133831016604e8410600b841016171561426a575081810a6115fc565b61427483836141ac565b806000190482111561428857614288613f12565b029392505050565b60006115f983836141ef565b600085516142ae818460208a016137ab565b600560f91b90830181815286519091906142cf816001850160208b016137ab565b6001920191820181905285516142ec816002850160208a016137ab565b600292019182015283516143078160038401602088016137ab565b016003019695505050505050565b7f19457468657265756d205369676e6564204d6573736167653a0a00000000000081526000835161434d81601a8501602088016137ab565b83519083019061436481601a8401602088016137ab565b01601a01949350505050565b60ff818116838216029081169081811461438c5761438c613f12565b5092915050565b6020808252602b908201527f45787472616374696f6e206661696c65642e204d616c666f726d656420636f6e60408201526a746578744164647265737360a81b606082015260800190565b6020808252602b908201527f45787472616374696f6e206661696c65642e204d616c666f726d656420636f6e60408201526a746578744d65737361676560a81b606082015260800190565b60008261443857614438614087565b500690565b61060f60f31b81526000825161445a8160028501602087016137ab565b9190910160020192915050565b600060ff83168061447a5761447a614087565b8060ff84160491505092915050565b60ff81811683821601908111156115fc576115fc613f12565b634e487b7160e01b600052602160045260246000fdfea2646970667358221220a3414b253bcf0f3b5a6e4ccc630893bb34b4dc96c6885171bf3e598c7bee2a6c64736f6c63430008120033",
  "devdoc": {
    "kind": "dev",
    "methods": {
      "addCurrency(bytes32)": {
        "params": {
          "_currencyCode": "Currency code to add"
        }
      },
      "addProviderHash(string)": {
        "params": {
          "_newProviderHash": "New provider hash to be added"
        }
      },
      "owner()": {
        "details": "Returns the address of the current owner."
      },
      "removeCurrency(bytes32)": {
        "params": {
          "_currencyCode": "Currency code to remove"
        }
      },
      "removeProviderHash(string)": {
        "params": {
          "_removeProviderHash": "Provider hash to be removed"
        }
      },
      "renounceOwnership()": {
        "details": "Leaves the contract without owner. It will not be possible to call `onlyOwner` functions. Can only be called by the current owner. NOTE: Renouncing ownership will leave the contract without an owner, thereby disabling any functionality that is only available to the owner."
      },
      "setTimestampBuffer(uint256)": {
        "params": {
          "_timestampBuffer": "The timestamp buffer for payments"
        }
      },
      "transferOwnership(address)": {
        "details": "Transfers ownership of the contract to a new account (`newOwner`). Can only be called by the current owner."
      },
      "verifyPayment((bytes,address,uint256,uint256,string,bytes32,uint256,bytes))": {
        "params": {
          "_verifyPaymentData": "Payment proof and intent details required for verification"
        }
      },
      "verifyProofSignatures(((string,string,string),((bytes32,address,uint32,uint32),bytes[]),bool),address[],uint256)": {
        "params": {
          "_requiredThreshold": "Minimum number of signatures required from accepted witnesses",
          "_witnesses": "List of accepted witnesses",
          "proof": "Proof to be verified"
        }
      }
    },
    "version": 1
  },
  "userdoc": {
    "kind": "user",
    "methods": {
      "addCurrency(bytes32)": {
        "notice": "OWNER ONLY: Adds a currency code to supported currencies"
      },
      "addProviderHash(string)": {
        "notice": "ONLY OWNER: Add provider hash string. Provider hash must not have been previously added."
      },
      "removeCurrency(bytes32)": {
        "notice": "OWNER ONLY: Removes a currency code from supported currencies"
      },
      "removeProviderHash(string)": {
        "notice": "ONLY OWNER: Remove provider hash string. Provider hash must have been previously added."
      },
      "setTimestampBuffer(uint256)": {
        "notice": "OWNER ONLY: Sets the timestamp buffer for payments. This is the amount of time in seconds that the timestamp can be off by and still be considered valid. Necessary to build in flexibility  with L2 timestamps."
      },
      "verifyPayment((bytes,address,uint256,uint256,string,bytes32,uint256,bytes))": {
        "notice": "ONLY RAMP: Verifies a reclaim proof of an offchain Revolut payment. Ensures the right _intentAmount * _conversionRate USD was paid to _payeeDetails after _intentTimestamp + timestampBuffer on Revolut. Additionaly, checks the right fiatCurrency was paid and the payment status is COMPLETE."
      },
      "verifyProofSignatures(((string,string,string),((bytes32,address,uint32,uint32),bytes[]),bool),address[],uint256)": {
        "notice": "Verify proof generated by witnesses. Claim is constructed by hashing claimInfo (provider, context, parameters) to get the identifier. And then signing on (identifier, owner, timestamp, epoch) to get claim signature.  This function verifies a claim by performing the following checks on the claim - Calculates the hash of the claimInfo and checks if it matches the identifier in the claim - Checks if the signatures are valid and from the witnesses This function reverts if - No signatures are found on the proof - ClaimInfo hash does not match the identifier in the claim - Signatures are invalid (not from the witnesses)  DEV NOTE: This function does NOT validate that the claim provider hash is valid. That is the  responsibility of the caller. Ensure witnesses are unique otherwise the threshold can be met  with duplicate witnesses.  Parts of the code are adapted from: https://basescan.org/address/0x7281630e4346dd4c0b7ae3b4689c1d0102741410#code    "
      }
    },
    "version": 1
  },
  "storageLayout": {
    "storage": [
      {
        "astId": 7,
        "contract": "contracts/verifiers/CashappReclaimVerifeir.sol:CashappReclaimVerifier",
        "label": "_owner",
        "offset": 0,
        "slot": "0",
        "type": "t_address"
      },
      {
        "astId": 9435,
        "contract": "contracts/verifiers/CashappReclaimVerifeir.sol:CashappReclaimVerifier",
        "label": "nullifierRegistry",
        "offset": 0,
        "slot": "1",
        "type": "t_contract(INullifierRegistry)11898"
      },
      {
        "astId": 9437,
        "contract": "contracts/verifiers/CashappReclaimVerifeir.sol:CashappReclaimVerifier",
        "label": "timestampBuffer",
        "offset": 0,
        "slot": "2",
        "type": "t_uint256"
      },
      {
        "astId": 9440,
        "contract": "contracts/verifiers/CashappReclaimVerifeir.sol:CashappReclaimVerifier",
        "label": "currencies",
        "offset": 0,
        "slot": "3",
        "type": "t_array(t_bytes32)dyn_storage"
      },
      {
        "astId": 9444,
        "contract": "contracts/verifiers/CashappReclaimVerifeir.sol:CashappReclaimVerifier",
        "label": "isCurrency",
        "offset": 0,
        "slot": "4",
        "type": "t_mapping(t_bytes32,t_bool)"
      },
      {
        "astId": 9641,
        "contract": "contracts/verifiers/CashappReclaimVerifeir.sol:CashappReclaimVerifier",
        "label": "isProviderHash",
        "offset": 0,
        "slot": "5",
        "type": "t_mapping(t_string_memory_ptr,t_bool)"
      },
      {
        "astId": 9644,
        "contract": "contracts/verifiers/CashappReclaimVerifeir.sol:CashappReclaimVerifier",
        "label": "providerHashes",
        "offset": 0,
        "slot": "6",
        "type": "t_array(t_string_storage)dyn_storage"
      }
    ],
    "types": {
      "t_address": {
        "encoding": "inplace",
        "label": "address",
        "numberOfBytes": "20"
      },
      "t_array(t_bytes32)dyn_storage": {
        "base": "t_bytes32",
        "encoding": "dynamic_array",
        "label": "bytes32[]",
        "numberOfBytes": "32"
      },
      "t_array(t_string_storage)dyn_storage": {
        "base": "t_string_storage",
        "encoding": "dynamic_array",
        "label": "string[]",
        "numberOfBytes": "32"
      },
      "t_bool": {
        "encoding": "inplace",
        "label": "bool",
        "numberOfBytes": "1"
      },
      "t_bytes32": {
        "encoding": "inplace",
        "label": "bytes32",
        "numberOfBytes": "32"
      },
      "t_contract(INullifierRegistry)11898": {
        "encoding": "inplace",
        "label": "contract INullifierRegistry",
        "numberOfBytes": "20"
      },
      "t_mapping(t_bytes32,t_bool)": {
        "encoding": "mapping",
        "key": "t_bytes32",
        "label": "mapping(bytes32 => bool)",
        "numberOfBytes": "32",
        "value": "t_bool"
      },
      "t_mapping(t_string_memory_ptr,t_bool)": {
        "encoding": "mapping",
        "key": "t_string_memory_ptr",
        "label": "mapping(string => bool)",
        "numberOfBytes": "32",
        "value": "t_bool"
      },
      "t_string_memory_ptr": {
        "encoding": "bytes",
        "label": "string",
        "numberOfBytes": "32"
      },
      "t_string_storage": {
        "encoding": "bytes",
        "label": "string",
        "numberOfBytes": "32"
      },
      "t_uint256": {
        "encoding": "inplace",
        "label": "uint256",
        "numberOfBytes": "32"
      }
    }
  }
}