{
  "address": "0xeD0e847B101abc96E796260AC358e12BAa2f5B21",
  "abi": [
    {
      "inputs": [],
      "stateMutability": "nonpayable",
      "type": "constructor"
    },
    {
      "anonymous": false,
      "inputs": [
        {
          "indexed": false,
          "internalType": "bool",
          "name": "acceptAll",
          "type": "bool"
        }
      ],
      "name": "AcceptAllEscrowsUpdated",
      "type": "event"
    },
    {
      "anonymous": false,
      "inputs": [
        {
          "indexed": true,
          "internalType": "address",
          "name": "escrow",
          "type": "address"
        }
      ],
      "name": "EscrowAdded",
      "type": "event"
    },
    {
      "anonymous": false,
      "inputs": [
        {
          "indexed": true,
          "internalType": "address",
          "name": "escrow",
          "type": "address"
        }
      ],
      "name": "EscrowRemoved",
      "type": "event"
    },
    {
      "anonymous": false,
      "inputs": [
        {
          "indexed": true,
          "internalType": "address",
          "name": "previousOwner",
          "type": "address"
        },
        {
          "indexed": true,
          "internalType": "address",
          "name": "newOwner",
          "type": "address"
        }
      ],
      "name": "OwnershipTransferred",
      "type": "event"
    },
    {
      "inputs": [],
      "name": "acceptAllEscrows",
      "outputs": [
        {
          "internalType": "bool",
          "name": "",
          "type": "bool"
        }
      ],
      "stateMutability": "view",
      "type": "function"
    },
    {
      "inputs": [
        {
          "internalType": "address",
          "name": "_escrow",
          "type": "address"
        }
      ],
      "name": "addEscrow",
      "outputs": [],
      "stateMutability": "nonpayable",
      "type": "function"
    },
    {
      "inputs": [
        {
          "internalType": "uint256",
          "name": "",
          "type": "uint256"
        }
      ],
      "name": "escrows",
      "outputs": [
        {
          "internalType": "address",
          "name": "",
          "type": "address"
        }
      ],
      "stateMutability": "view",
      "type": "function"
    },
    {
      "inputs": [],
      "name": "getWhitelistedEscrows",
      "outputs": [
        {
          "internalType": "address[]",
          "name": "",
          "type": "address[]"
        }
      ],
      "stateMutability": "view",
      "type": "function"
    },
    {
      "inputs": [],
      "name": "isAcceptingAllEscrows",
      "outputs": [
        {
          "internalType": "bool",
          "name": "",
          "type": "bool"
        }
      ],
      "stateMutability": "view",
      "type": "function"
    },
    {
      "inputs": [
        {
          "internalType": "address",
          "name": "",
          "type": "address"
        }
      ],
      "name": "isWhitelistedEscrow",
      "outputs": [
        {
          "internalType": "bool",
          "name": "",
          "type": "bool"
        }
      ],
      "stateMutability": "view",
      "type": "function"
    },
    {
      "inputs": [],
      "name": "owner",
      "outputs": [
        {
          "internalType": "address",
          "name": "",
          "type": "address"
        }
      ],
      "stateMutability": "view",
      "type": "function"
    },
    {
      "inputs": [
        {
          "internalType": "address",
          "name": "_escrow",
          "type": "address"
        }
      ],
      "name": "removeEscrow",
      "outputs": [],
      "stateMutability": "nonpayable",
      "type": "function"
    },
    {
      "inputs": [],
      "name": "renounceOwnership",
      "outputs": [],
      "stateMutability": "nonpayable",
      "type": "function"
    },
    {
      "inputs": [
        {
          "internalType": "bool",
          "name": "_acceptAll",
          "type": "bool"
        }
      ],
      "name": "setAcceptAllEscrows",
      "outputs": [],
      "stateMutability": "nonpayable",
      "type": "function"
    },
    {
      "inputs": [
        {
          "internalType": "address",
          "name": "newOwner",
          "type": "address"
        }
      ],
      "name": "transferOwnership",
      "outputs": [],
      "stateMutability": "nonpayable",
      "type": "function"
    }
  ],
  "transactionHash": "0xdd5b631b6331f744806ced71bcbd1b83c51453e1f63324ab2ae5b3d28b299ceb",
  "args": [],
  "numDeployments": 1,
  "solcInputHash": "29b38fa2f0853a716ac0a544a2824744",
  "bytecode": "0x608060405234801561001057600080fd5b5061001a3361001f565b61006f565b600080546001600160a01b038381166001600160a01b0319831681178455604051919092169283917f8be0079c531659141344cd1fd0a4f28419497f9722a3daafe3b4186f6b6457e09190a35050565b6109438061007e6000396000f3fe608060405234801561001057600080fd5b50600436106100a95760003560e01c806393e467441161007157806393e4674414610132578063c7b1454e14610145578063cc224d4414610168578063d2fd0dd11461017b578063eb57d7521461018e578063f2fde38b146101a057600080fd5b8063012f52ee146100ae57806317505198146100de5780636c23f0be14610102578063715018a6146101175780638da5cb5b14610121575b600080fd5b6100c16100bc3660046107e1565b6101b3565b6040516001600160a01b0390911681526020015b60405180910390f35b6000546100f290600160a01b900460ff1681565b60405190151581526020016100d5565b61010a6101dd565b6040516100d591906107fa565b61011f61023f565b005b6000546001600160a01b03166100c1565b61011f610140366004610847565b610253565b6100f2610153366004610847565b60016020526000908152604090205460ff1681565b61011f610176366004610847565b610323565b61011f610189366004610877565b610476565b600054600160a01b900460ff166100f2565b61011f6101ae366004610847565b6104d6565b600281815481106101c357600080fd5b6000918252602090912001546001600160a01b0316905081565b6060600280548060200260200160405190810160405280929190818152602001828054801561023557602002820191906000526020600020905b81546001600160a01b03168152600190910190602001808311610217575b5050505050905090565b61024761054f565b61025160006105a9565b565b61025b61054f565b6001600160a01b03811660009081526001602052604090205460ff166102c15760405162461bcd60e51b8152602060048201526016602482015275115cd8dc9bddc81b9bdd081dda1a5d195b1a5cdd195960521b60448201526064015b60405180910390fd5b6001600160a01b0381166000908152600160205260409020805460ff191690556102ec6002826105f9565b6040516001600160a01b038216907f11b7e850ddbb17cad1c0bee1cd82ff930439a5dfde82c6a3472a64fba0f122de90600090a250565b61032b61054f565b6001600160a01b0381166103815760405162461bcd60e51b815260206004820152601d60248201527f457363726f772063616e6e6f74206265207a65726f206164647265737300000060448201526064016102b8565b6001600160a01b03811660009081526001602052604090205460ff16156103ea5760405162461bcd60e51b815260206004820152601a60248201527f457363726f7720616c72656164792077686974656c697374656400000000000060448201526064016102b8565b6001600160a01b0381166000818152600160208190526040808320805460ff19168317905560028054928301815583527f405787fa12a823e0f2b7631cc41b3ba8828b3321ca811111fa75cd3aa3bb5ace90910180546001600160a01b03191684179055517f187d4569055ab013405cf5670ad398a69b2970a64bfbb2b19a76e72120d471e59190a250565b61047e61054f565b60008054821515600160a01b0260ff60a01b199091161790556040517fdd3fc339b125647750858cfabb0cd183e0503728da630a81b3f9161d34b83495906104cb90831515815260200190565b60405180910390a150565b6104de61054f565b6001600160a01b0381166105435760405162461bcd60e51b815260206004820152602660248201527f4f776e61626c653a206e6577206f776e657220697320746865207a65726f206160448201526564647265737360d01b60648201526084016102b8565b61054c816105a9565b50565b6000546001600160a01b031633146102515760405162461bcd60e51b815260206004820181905260248201527f4f776e61626c653a2063616c6c6572206973206e6f7420746865206f776e657260448201526064016102b8565b600080546001600160a01b038381166001600160a01b0319831681178455604051919092169283917f8be0079c531659141344cd1fd0a4f28419497f9722a3daafe3b4186f6b6457e09190a35050565b60008061065f8480548060200260200160405190810160405280929190818152602001828054801561065457602002820191906000526020600020905b81546001600160a01b03168152600190910190602001808311610636575b50505050508461076c565b91509150806106a85760405162461bcd60e51b815260206004820152601560248201527420b2323932b9b9903737ba1034b71030b93930bc9760591b60448201526064016102b8565b83546000906106b9906001906108af565b9050808314610733578481815481106106d4576106d46108c8565b9060005260206000200160009054906101000a90046001600160a01b0316858481548110610704576107046108c8565b9060005260206000200160006101000a8154816001600160a01b0302191690836001600160a01b031602179055505b84805480610743576107436108de565b600082815260209020810160001990810180546001600160a01b03191690550190555050505050565b81516000908190815b818110156107ce57846001600160a01b0316868281518110610799576107996108c8565b60200260200101516001600160a01b0316036107bc579250600191506107da9050565b806107c6816108f4565b915050610775565b50600019600092509250505b9250929050565b6000602082840312156107f357600080fd5b5035919050565b6020808252825182820181905260009190848201906040850190845b8181101561083b5783516001600160a01b031683529284019291840191600101610816565b50909695505050505050565b60006020828403121561085957600080fd5b81356001600160a01b038116811461087057600080fd5b9392505050565b60006020828403121561088957600080fd5b8135801515811461087057600080fd5b634e487b7160e01b600052601160045260246000fd5b818103818111156108c2576108c2610899565b92915050565b634e487b7160e01b600052603260045260246000fd5b634e487b7160e01b600052603160045260246000fd5b60006001820161090657610906610899565b506001019056fea264697066735822122044dda0eded2795e1d848b0704a68a9bcea38e5f06586745e95994aaeadc4062e64736f6c63430008120033",
  "devdoc": {
    "kind": "dev",
    "methods": {
      "addEscrow(address)": {
        "params": {
          "_escrow": "The escrow address to add"
        }
      },
      "owner()": {
        "details": "Returns the address of the current owner."
      },
      "removeEscrow(address)": {
        "params": {
          "_escrow": "The escrow address to remove"
        }
      },
      "renounceOwnership()": {
        "details": "Leaves the contract without owner. It will not be possible to call `onlyOwner` functions. Can only be called by the current owner. NOTE: Renouncing ownership will leave the contract without an owner, thereby disabling any functionality that is only available to the owner."
      },
      "setAcceptAllEscrows(bool)": {
        "params": {
          "_acceptAll": "True to accept all escrows, false to require whitelisting"
        }
      },
      "transferOwnership(address)": {
        "details": "Transfers ownership of the contract to a new account (`newOwner`). Can only be called by the current owner."
      }
    },
    "version": 1
  },
  "userdoc": {
    "kind": "user",
    "methods": {
      "addEscrow(address)": {
        "notice": "ONLY OWNER: Adds an escrow to the whitelist."
      },
      "removeEscrow(address)": {
        "notice": "ONLY OWNER: Removes an escrow from the whitelist."
      },
      "setAcceptAllEscrows(bool)": {
        "notice": "ONLY OWNER: Sets whether all escrows can be used without whitelisting."
      }
    },
    "version": 1
  },
  "storageLayout": {
    "storage": [
      {
        "astId": 7,
        "contract": "contracts/registries/EscrowRegistry.sol:EscrowRegistry",
        "label": "_owner",
        "offset": 0,
        "slot": "0",
        "type": "t_address"
      },
      {
        "astId": 11711,
        "contract": "contracts/registries/EscrowRegistry.sol:EscrowRegistry",
        "label": "acceptAllEscrows",
        "offset": 20,
        "slot": "0",
        "type": "t_bool"
      },
      {
        "astId": 11715,
        "contract": "contracts/registries/EscrowRegistry.sol:EscrowRegistry",
        "label": "isWhitelistedEscrow",
        "offset": 0,
        "slot": "1",
        "type": "t_mapping(t_address,t_bool)"
      },
      {
        "astId": 11718,
        "contract": "contracts/registries/EscrowRegistry.sol:EscrowRegistry",
        "label": "escrows",
        "offset": 0,
        "slot": "2",
        "type": "t_array(t_address)dyn_storage"
      }
    ],
    "types": {
      "t_address": {
        "encoding": "inplace",
        "label": "address",
        "numberOfBytes": "20"
      },
      "t_array(t_address)dyn_storage": {
        "base": "t_address",
        "encoding": "dynamic_array",
        "label": "address[]",
        "numberOfBytes": "32"
      },
      "t_bool": {
        "encoding": "inplace",
        "label": "bool",
        "numberOfBytes": "1"
      },
      "t_mapping(t_address,t_bool)": {
        "encoding": "mapping",
        "key": "t_address",
        "label": "mapping(address => bool)",
        "numberOfBytes": "32",
        "value": "t_bool"
      }
    }
  }
}