{
  "address": "0x2b82D24437ff66Fb173eabDfD67ee2ACeb8bEb1e",
  "abi": [
    {
      "inputs": [],
      "stateMutability": "nonpayable",
      "type": "constructor"
    },
    {
      "anonymous": false,
      "inputs": [
        {
          "indexed": true,
          "internalType": "bytes32",
          "name": "paymentMethod",
          "type": "bytes32"
        },
        {
          "indexed": true,
          "internalType": "bytes32",
          "name": "currencyCode",
          "type": "bytes32"
        }
      ],
      "name": "CurrencyAdded",
      "type": "event"
    },
    {
      "anonymous": false,
      "inputs": [
        {
          "indexed": true,
          "internalType": "bytes32",
          "name": "paymentMethod",
          "type": "bytes32"
        },
        {
          "indexed": true,
          "internalType": "bytes32",
          "name": "currencyCode",
          "type": "bytes32"
        }
      ],
      "name": "CurrencyRemoved",
      "type": "event"
    },
    {
      "anonymous": false,
      "inputs": [
        {
          "indexed": true,
          "internalType": "address",
          "name": "previousOwner",
          "type": "address"
        },
        {
          "indexed": true,
          "internalType": "address",
          "name": "newOwner",
          "type": "address"
        }
      ],
      "name": "OwnershipTransferred",
      "type": "event"
    },
    {
      "anonymous": false,
      "inputs": [
        {
          "indexed": true,
          "internalType": "bytes32",
          "name": "paymentMethod",
          "type": "bytes32"
        }
      ],
      "name": "PaymentMethodAdded",
      "type": "event"
    },
    {
      "anonymous": false,
      "inputs": [
        {
          "indexed": true,
          "internalType": "bytes32",
          "name": "paymentMethod",
          "type": "bytes32"
        }
      ],
      "name": "PaymentMethodRemoved",
      "type": "event"
    },
    {
      "inputs": [
        {
          "internalType": "bytes32",
          "name": "_paymentMethod",
          "type": "bytes32"
        },
        {
          "internalType": "bytes32[]",
          "name": "_currencies",
          "type": "bytes32[]"
        }
      ],
      "name": "addCurrencies",
      "outputs": [],
      "stateMutability": "nonpayable",
      "type": "function"
    },
    {
      "inputs": [
        {
          "internalType": "bytes32",
          "name": "_paymentMethod",
          "type": "bytes32"
        },
        {
          "internalType": "address",
          "name": "_verifier",
          "type": "address"
        },
        {
          "internalType": "bytes32[]",
          "name": "_currencies",
          "type": "bytes32[]"
        }
      ],
      "name": "addPaymentMethod",
      "outputs": [],
      "stateMutability": "nonpayable",
      "type": "function"
    },
    {
      "inputs": [
        {
          "internalType": "bytes32",
          "name": "_paymentMethod",
          "type": "bytes32"
        }
      ],
      "name": "getCurrencies",
      "outputs": [
        {
          "internalType": "bytes32[]",
          "name": "",
          "type": "bytes32[]"
        }
      ],
      "stateMutability": "view",
      "type": "function"
    },
    {
      "inputs": [],
      "name": "getPaymentMethods",
      "outputs": [
        {
          "internalType": "bytes32[]",
          "name": "",
          "type": "bytes32[]"
        }
      ],
      "stateMutability": "view",
      "type": "function"
    },
    {
      "inputs": [
        {
          "internalType": "bytes32",
          "name": "_paymentMethod",
          "type": "bytes32"
        }
      ],
      "name": "getVerifier",
      "outputs": [
        {
          "internalType": "address",
          "name": "",
          "type": "address"
        }
      ],
      "stateMutability": "view",
      "type": "function"
    },
    {
      "inputs": [
        {
          "internalType": "bytes32",
          "name": "_paymentMethod",
          "type": "bytes32"
        },
        {
          "internalType": "bytes32",
          "name": "_currencyCode",
          "type": "bytes32"
        }
      ],
      "name": "isCurrency",
      "outputs": [
        {
          "internalType": "bool",
          "name": "",
          "type": "bool"
        }
      ],
      "stateMutability": "view",
      "type": "function"
    },
    {
      "inputs": [
        {
          "internalType": "bytes32",
          "name": "_paymentMethod",
          "type": "bytes32"
        }
      ],
      "name": "isPaymentMethod",
      "outputs": [
        {
          "internalType": "bool",
          "name": "",
          "type": "bool"
        }
      ],
      "stateMutability": "view",
      "type": "function"
    },
    {
      "inputs": [],
      "name": "owner",
      "outputs": [
        {
          "internalType": "address",
          "name": "",
          "type": "address"
        }
      ],
      "stateMutability": "view",
      "type": "function"
    },
    {
      "inputs": [
        {
          "internalType": "uint256",
          "name": "",
          "type": "uint256"
        }
      ],
      "name": "paymentMethods",
      "outputs": [
        {
          "internalType": "bytes32",
          "name": "",
          "type": "bytes32"
        }
      ],
      "stateMutability": "view",
      "type": "function"
    },
    {
      "inputs": [
        {
          "internalType": "bytes32",
          "name": "_paymentMethod",
          "type": "bytes32"
        },
        {
          "internalType": "bytes32[]",
          "name": "_currencies",
          "type": "bytes32[]"
        }
      ],
      "name": "removeCurrencies",
      "outputs": [],
      "stateMutability": "nonpayable",
      "type": "function"
    },
    {
      "inputs": [
        {
          "internalType": "bytes32",
          "name": "_paymentMethod",
          "type": "bytes32"
        }
      ],
      "name": "removePaymentMethod",
      "outputs": [],
      "stateMutability": "nonpayable",
      "type": "function"
    },
    {
      "inputs": [],
      "name": "renounceOwnership",
      "outputs": [],
      "stateMutability": "nonpayable",
      "type": "function"
    },
    {
      "inputs": [
        {
          "internalType": "bytes32",
          "name": "",
          "type": "bytes32"
        }
      ],
      "name": "store",
      "outputs": [
        {
          "internalType": "bool",
          "name": "initialized",
          "type": "bool"
        },
        {
          "internalType": "address",
          "name": "verifier",
          "type": "address"
        }
      ],
      "stateMutability": "view",
      "type": "function"
    },
    {
      "inputs": [
        {
          "internalType": "address",
          "name": "newOwner",
          "type": "address"
        }
      ],
      "name": "transferOwnership",
      "outputs": [],
      "stateMutability": "nonpayable",
      "type": "function"
    }
  ],
  "transactionHash": "0xd56f5718bfdd66e15b2714986fcbe22e97e6b5c9b6516253b2a0d9b60a146cd8",
  "args": [],
  "numDeployments": 1,
  "solcInputHash": "29b38fa2f0853a716ac0a544a2824744",
  "bytecode": "0x608060405234801561001057600080fd5b5061001a3361001f565b61006f565b600080546001600160a01b038381166001600160a01b0319831681178455604051919092169283917f8be0079c531659141344cd1fd0a4f28419497f9722a3daafe3b4186f6b6457e09190a35050565b610f098061007e6000396000f3fe608060405234801561001057600080fd5b50600436106100ea5760003560e01c80638da5cb5b1161008c578063a9ce20aa11610066578063a9ce20aa1461022e578063dbcb300514610241578063eeb7b24814610254578063f2fde38b1461028257600080fd5b80638da5cb5b146101ce5780639072ec4e146101f3578063a1627cd01461022657600080fd5b80635e5658d2116100c85780635e5658d21461012a578063654cf88c14610153578063715018a6146101a55780638b90cdc9146101ad57600080fd5b806312b1fe93146100ef578063334c2ef31461010457806358aabeeb14610117575b600080fd5b6101026100fd366004610ccb565b610295565b005b610102610112366004610d17565b610362565b610102610125366004610ccb565b6104d1565b61013d610138366004610d17565b610535565b60405161014a9190610d30565b60405180910390f35b610186610161366004610d17565b60016020526000908152604090205460ff81169061010090046001600160a01b031682565b6040805192151583526001600160a01b0390911660208301520161014a565b61010261059a565b6101c06101bb366004610d17565b6105ae565b60405190815260200161014a565b6000546001600160a01b03165b6040516001600160a01b03909116815260200161014a565b610216610201366004610d17565b60009081526001602052604090205460ff1690565b604051901515815260200161014a565b61013d6105cf565b61021661023c366004610d74565b610627565b61010261024f366004610db2565b61064d565b6101db610262366004610d17565b60009081526001602052604090205461010090046001600160a01b031690565b610102610290366004610e0c565b6107b8565b61029d610831565b60008381526001602052604090205460ff166103005760405162461bcd60e51b815260206004820152601d60248201527f5061796d656e74206d6574686f6420646f6573206e6f7420657869737400000060448201526064015b60405180910390fd5b8061031d5760405162461bcd60e51b81526004016102f790610e2e565b60005b8181101561035c5761034a8484848481811061033e5761033e610e65565b9050602002013561088b565b8061035481610e91565b915050610320565b50505050565b61036a610831565b60008181526001602052604090205460ff166103c85760405162461bcd60e51b815260206004820152601d60248201527f5061796d656e74206d6574686f6420646f6573206e6f7420657869737400000060448201526064016102f7565b60008181526001602090815260408083206002018054825181850281018501909352808352919290919083018282801561042157602002820191906000526020600020905b81548152602001906001019080831161040d575b5050505050905060005b8151811015610469576104578383838151811061044a5761044a610e65565b60200260200101516109a7565b8061046181610e91565b91505061042b565b50600082815260016020526040812080546001600160a81b0319168155906104946002830182610c54565b506104a29050600283610a79565b60405182907f0c831f94d9f98b9753b9607b5f1d9b1758d364178abe6e854ee65e97519c576490600090a25050565b6104d9610831565b806104f65760405162461bcd60e51b81526004016102f790610e2e565b60005b8181101561035c576105238484848481811061051757610517610e65565b905060200201356109a7565b8061052d81610e91565b9150506104f9565b60008181526001602090815260409182902060020180548351818402810184019094528084526060939283018282801561058e57602002820191906000526020600020905b81548152602001906001019080831161057a575b50505050509050919050565b6105a2610831565b6105ac6000610ba1565b565b600281815481106105be57600080fd5b600091825260209091200154905081565b6060600280548060200260200160405190810160405280929190818152602001828054801561061d57602002820191906000526020600020905b815481526020019060010190808311610609575b5050505050905090565b6000828152600160208181526040808420858552909201905290205460ff165b92915050565b610655610831565b60008481526001602052604090205460ff16156106b45760405162461bcd60e51b815260206004820152601d60248201527f5061796d656e74206d6574686f6420616c72656164792065786973747300000060448201526064016102f7565b6001600160a01b0383166106fd5760405162461bcd60e51b815260206004820152601060248201526f24b73b30b634b2103b32b934b334b2b960811b60448201526064016102f7565b8061071a5760405162461bcd60e51b81526004016102f790610e2e565b600084815260016020819052604090912080546001600160a81b0319166101006001600160a01b03871602179091179055610756848383610295565b6002805460018101825560009182527f405787fa12a823e0f2b7631cc41b3ba8828b3321ca811111fa75cd3aa3bb5ace0185905560405185917fa8b7ef1cdeb8ecb963885f69266685a6c19778bdbe18fd82fb494d536ae5ede891a250505050565b6107c0610831565b6001600160a01b0381166108255760405162461bcd60e51b815260206004820152602660248201527f4f776e61626c653a206e6577206f776e657220697320746865207a65726f206160448201526564647265737360d01b60648201526084016102f7565b61082e81610ba1565b50565b6000546001600160a01b031633146105ac5760405162461bcd60e51b815260206004820181905260248201527f4f776e61626c653a2063616c6c6572206973206e6f7420746865206f776e657260448201526064016102f7565b806108d05760405162461bcd60e51b8152602060048201526015602482015274496e76616c69642063757272656e637920636f646560581b60448201526064016102f7565b6000828152600160208181526040808420858552909201905290205460ff161561093c5760405162461bcd60e51b815260206004820152601760248201527f43757272656e637920616c72656164792065786973747300000000000000000060448201526064016102f7565b60008281526001602081815260408084208585528084018352818520805460ff19168517905583835260020180549384018155845290832090910183905551829184917fc8f017475bca3c28175d8dbac507c62a1cd9150a8da85f8b39e8947d4f5464409190a35050565b6000828152600160208181526040808420858552909201905290205460ff16610a125760405162461bcd60e51b815260206004820152601760248201527f43757272656e637920646f6573206e6f7420657869737400000000000000000060448201526064016102f7565b60008281526001602081815260408084208585528084018352908420805460ff191690559285905252610a489060020182610a79565b604051819083907f55afc4295737baf9bf7759d75fb64ad7bf91bf4c80c9a6a22b23d61a7924b4b590600090a35050565b600080610ad584805480602002602001604051908101604052809291908181526020018280548015610aca57602002820191906000526020600020905b815481526020019060010190808311610ab6575b505050505084610bf1565b9150915080610b1e5760405162461bcd60e51b8152602060048201526015602482015274313cba32b99999103737ba1034b71030b93930bc9760591b60448201526064016102f7565b8354600090610b2f90600190610eaa565b9050808314610b7457848181548110610b4a57610b4a610e65565b9060005260206000200154858481548110610b6757610b67610e65565b6000918252602090912001555b84805480610b8457610b84610ebd565b600190038181906000526020600020016000905590555050505050565b600080546001600160a01b038381166001600160a01b0319831681178455604051919092169283917f8be0079c531659141344cd1fd0a4f28419497f9722a3daafe3b4186f6b6457e09190a35050565b81516000908190815b81811015610c415784868281518110610c1557610c15610e65565b602002602001015103610c2f57925060019150610c4d9050565b80610c3981610e91565b915050610bfa565b50600019600092509250505b9250929050565b508054600082559060005260206000209081019061082e91905b80821115610c825760008155600101610c6e565b5090565b60008083601f840112610c9857600080fd5b50813567ffffffffffffffff811115610cb057600080fd5b6020830191508360208260051b8501011115610c4d57600080fd5b600080600060408486031215610ce057600080fd5b83359250602084013567ffffffffffffffff811115610cfe57600080fd5b610d0a86828701610c86565b9497909650939450505050565b600060208284031215610d2957600080fd5b5035919050565b6020808252825182820181905260009190848201906040850190845b81811015610d6857835183529284019291840191600101610d4c565b50909695505050505050565b60008060408385031215610d8757600080fd5b50508035926020909101359150565b80356001600160a01b0381168114610dad57600080fd5b919050565b60008060008060608587031215610dc857600080fd5b84359350610dd860208601610d96565b9250604085013567ffffffffffffffff811115610df457600080fd5b610e0087828801610c86565b95989497509550505050565b600060208284031215610e1e57600080fd5b610e2782610d96565b9392505050565b60208082526019908201527f496e76616c69642063757272656e63696573206c656e67746800000000000000604082015260600190565b634e487b7160e01b600052603260045260246000fd5b634e487b7160e01b600052601160045260246000fd5b600060018201610ea357610ea3610e7b565b5060010190565b8181038181111561064757610647610e7b565b634e487b7160e01b600052603160045260246000fdfea2646970667358221220bfbbb335cd0e23742491fa926e03a88f34abca57af17f3d27465cc6d6626d4bd64736f6c63430008120033",
  "devdoc": {
    "kind": "dev",
    "methods": {
      "addCurrencies(bytes32,bytes32[])": {
        "params": {
          "_currencies": "Array of currency code hashes (e.g., keccak256(\"USD\"), keccak256(\"EUR\"))",
          "_paymentMethod": "The payment method hash"
        }
      },
      "addPaymentMethod(bytes32,address,bytes32[])": {
        "params": {
          "_currencies": "Array of currency code hashes to support",
          "_paymentMethod": "The payment method hash; Hash the payment method name in lowercase",
          "_verifier": "The verifier address to add for this payment method"
        }
      },
      "owner()": {
        "details": "Returns the address of the current owner."
      },
      "removeCurrencies(bytes32,bytes32[])": {
        "params": {
          "_currencies": "Array of currency code hashes to remove",
          "_paymentMethod": "The payment method hash"
        }
      },
      "removePaymentMethod(bytes32)": {
        "details": "Only callable by owner",
        "params": {
          "_paymentMethod": "The payment method to remove"
        }
      },
      "renounceOwnership()": {
        "details": "Leaves the contract without owner. It will not be possible to call `onlyOwner` functions. Can only be called by the current owner. NOTE: Renouncing ownership will leave the contract without an owner, thereby disabling any functionality that is only available to the owner."
      },
      "transferOwnership(address)": {
        "details": "Transfers ownership of the contract to a new account (`newOwner`). Can only be called by the current owner."
      }
    },
    "version": 1
  },
  "userdoc": {
    "kind": "user",
    "methods": {
      "addCurrencies(bytes32,bytes32[])": {
        "notice": "Adds supported currencies for a specific payment method"
      },
      "addPaymentMethod(bytes32,address,bytes32[])": {
        "notice": "Adds a new payment method with processors and currencies"
      },
      "removeCurrencies(bytes32,bytes32[])": {
        "notice": "Removes supported currencies for a specific payment method"
      },
      "removePaymentMethod(bytes32)": {
        "notice": "Removes a payment method and associated configuration"
      }
    },
    "version": 1
  },
  "storageLayout": {
    "storage": [
      {
        "astId": 7,
        "contract": "contracts/registries/PaymentVerifierRegistry.sol:PaymentVerifierRegistry",
        "label": "_owner",
        "offset": 0,
        "slot": "0",
        "type": "t_address"
      },
      {
        "astId": 12050,
        "contract": "contracts/registries/PaymentVerifierRegistry.sol:PaymentVerifierRegistry",
        "label": "store",
        "offset": 0,
        "slot": "1",
        "type": "t_mapping(t_bytes32,t_struct(PaymentMethodConfig)12025_storage)"
      },
      {
        "astId": 12053,
        "contract": "contracts/registries/PaymentVerifierRegistry.sol:PaymentVerifierRegistry",
        "label": "paymentMethods",
        "offset": 0,
        "slot": "2",
        "type": "t_array(t_bytes32)dyn_storage"
      }
    ],
    "types": {
      "t_address": {
        "encoding": "inplace",
        "label": "address",
        "numberOfBytes": "20"
      },
      "t_array(t_bytes32)dyn_storage": {
        "base": "t_bytes32",
        "encoding": "dynamic_array",
        "label": "bytes32[]",
        "numberOfBytes": "32"
      },
      "t_bool": {
        "encoding": "inplace",
        "label": "bool",
        "numberOfBytes": "1"
      },
      "t_bytes32": {
        "encoding": "inplace",
        "label": "bytes32",
        "numberOfBytes": "32"
      },
      "t_mapping(t_bytes32,t_bool)": {
        "encoding": "mapping",
        "key": "t_bytes32",
        "label": "mapping(bytes32 => bool)",
        "numberOfBytes": "32",
        "value": "t_bool"
      },
      "t_mapping(t_bytes32,t_struct(PaymentMethodConfig)12025_storage)": {
        "encoding": "mapping",
        "key": "t_bytes32",
        "label": "mapping(bytes32 => struct PaymentVerifierRegistry.PaymentMethodConfig)",
        "numberOfBytes": "32",
        "value": "t_struct(PaymentMethodConfig)12025_storage"
      },
      "t_struct(PaymentMethodConfig)12025_storage": {
        "encoding": "inplace",
        "label": "struct PaymentVerifierRegistry.PaymentMethodConfig",
        "members": [
          {
            "astId": 12015,
            "contract": "contracts/registries/PaymentVerifierRegistry.sol:PaymentVerifierRegistry",
            "label": "initialized",
            "offset": 0,
            "slot": "0",
            "type": "t_bool"
          },
          {
            "astId": 12017,
            "contract": "contracts/registries/PaymentVerifierRegistry.sol:PaymentVerifierRegistry",
            "label": "verifier",
            "offset": 1,
            "slot": "0",
            "type": "t_address"
          },
          {
            "astId": 12021,
            "contract": "contracts/registries/PaymentVerifierRegistry.sol:PaymentVerifierRegistry",
            "label": "isCurrency",
            "offset": 0,
            "slot": "1",
            "type": "t_mapping(t_bytes32,t_bool)"
          },
          {
            "astId": 12024,
            "contract": "contracts/registries/PaymentVerifierRegistry.sol:PaymentVerifierRegistry",
            "label": "currencies",
            "offset": 0,
            "slot": "2",
            "type": "t_array(t_bytes32)dyn_storage"
          }
        ],
        "numberOfBytes": "96"
      }
    }
  }
}