{
  "address": "0x30B03De22328074Fbe8447C425ae988797146606",
  "abi": [
    {
      "inputs": [
        {
          "internalType": "address",
          "name": "_escrow",
          "type": "address"
        },
        {
          "internalType": "address",
          "name": "_orchestrator",
          "type": "address"
        }
      ],
      "stateMutability": "nonpayable",
      "type": "constructor"
    },
    {
      "inputs": [],
      "name": "escrowContract",
      "outputs": [
        {
          "internalType": "contract IEscrow",
          "name": "",
          "type": "address"
        }
      ],
      "stateMutability": "view",
      "type": "function"
    },
    {
      "inputs": [
        {
          "internalType": "address",
          "name": "_account",
          "type": "address"
        }
      ],
      "name": "getAccountDeposits",
      "outputs": [
        {
          "components": [
            {
              "internalType": "uint256",
              "name": "depositId",
              "type": "uint256"
            },
            {
              "components": [
                {
                  "internalType": "address",
                  "name": "depositor",
                  "type": "address"
                },
                {
                  "internalType": "address",
                  "name": "delegate",
                  "type": "address"
                },
                {
                  "internalType": "contract IERC20",
                  "name": "token",
                  "type": "address"
                },
                {
                  "components": [
                    {
                      "internalType": "uint256",
                      "name": "min",
                      "type": "uint256"
                    },
                    {
                      "internalType": "uint256",
                      "name": "max",
                      "type": "uint256"
                    }
                  ],
                  "internalType": "struct IEscrow.Range",
                  "name": "intentAmountRange",
                  "type": "tuple"
                },
                {
                  "internalType": "bool",
                  "name": "acceptingIntents",
                  "type": "bool"
                },
                {
                  "internalType": "uint256",
                  "name": "remainingDeposits",
                  "type": "uint256"
                },
                {
                  "internalType": "uint256",
                  "name": "outstandingIntentAmount",
                  "type": "uint256"
                },
                {
                  "internalType": "address",
                  "name": "intentGuardian",
                  "type": "address"
                },
                {
                  "internalType": "bool",
                  "name": "retainOnEmpty",
                  "type": "bool"
                }
              ],
              "internalType": "struct IEscrow.Deposit",
              "name": "deposit",
              "type": "tuple"
            },
            {
              "internalType": "uint256",
              "name": "availableLiquidity",
              "type": "uint256"
            },
            {
              "components": [
                {
                  "internalType": "bytes32",
                  "name": "paymentMethod",
                  "type": "bytes32"
                },
                {
                  "components": [
                    {
                      "internalType": "address",
                      "name": "intentGatingService",
                      "type": "address"
                    },
                    {
                      "internalType": "bytes32",
                      "name": "payeeDetails",
                      "type": "bytes32"
                    },
                    {
                      "internalType": "bytes",
                      "name": "data",
                      "type": "bytes"
                    }
                  ],
                  "internalType": "struct IEscrow.DepositPaymentMethodData",
                  "name": "verificationData",
                  "type": "tuple"
                },
                {
                  "components": [
                    {
                      "internalType": "bytes32",
                      "name": "code",
                      "type": "bytes32"
                    },
                    {
                      "internalType": "uint256",
                      "name": "minConversionRate",
                      "type": "uint256"
                    }
                  ],
                  "internalType": "struct IEscrow.Currency[]",
                  "name": "currencies",
                  "type": "tuple[]"
                }
              ],
              "internalType": "struct IProtocolViewer.PaymentMethodDataView[]",
              "name": "paymentMethods",
              "type": "tuple[]"
            },
            {
              "internalType": "bytes32[]",
              "name": "intentHashes",
              "type": "bytes32[]"
            }
          ],
          "internalType": "struct IProtocolViewer.DepositView[]",
          "name": "depositArray",
          "type": "tuple[]"
        }
      ],
      "stateMutability": "view",
      "type": "function"
    },
    {
      "inputs": [
        {
          "internalType": "address",
          "name": "_account",
          "type": "address"
        }
      ],
      "name": "getAccountIntents",
      "outputs": [
        {
          "components": [
            {
              "internalType": "bytes32",
              "name": "intentHash",
              "type": "bytes32"
            },
            {
              "components": [
                {
                  "internalType": "address",
                  "name": "owner",
                  "type": "address"
                },
                {
                  "internalType": "address",
                  "name": "to",
                  "type": "address"
                },
                {
                  "internalType": "address",
                  "name": "escrow",
                  "type": "address"
                },
                {
                  "internalType": "uint256",
                  "name": "depositId",
                  "type": "uint256"
                },
                {
                  "internalType": "uint256",
                  "name": "amount",
                  "type": "uint256"
                },
                {
                  "internalType": "uint256",
                  "name": "timestamp",
                  "type": "uint256"
                },
                {
                  "internalType": "bytes32",
                  "name": "paymentMethod",
                  "type": "bytes32"
                },
                {
                  "internalType": "bytes32",
                  "name": "fiatCurrency",
                  "type": "bytes32"
                },
                {
                  "internalType": "uint256",
                  "name": "conversionRate",
                  "type": "uint256"
                },
                {
                  "internalType": "bytes32",
                  "name": "payeeId",
                  "type": "bytes32"
                },
                {
                  "internalType": "address",
                  "name": "referrer",
                  "type": "address"
                },
                {
                  "internalType": "uint256",
                  "name": "referrerFee",
                  "type": "uint256"
                },
                {
                  "internalType": "contract IPostIntentHook",
                  "name": "postIntentHook",
                  "type": "address"
                },
                {
                  "internalType": "bytes",
                  "name": "data",
                  "type": "bytes"
                }
              ],
              "internalType": "struct IOrchestrator.Intent",
              "name": "intent",
              "type": "tuple"
            },
            {
              "components": [
                {
                  "internalType": "uint256",
                  "name": "depositId",
                  "type": "uint256"
                },
                {
                  "components": [
                    {
                      "internalType": "address",
                      "name": "depositor",
                      "type": "address"
                    },
                    {
                      "internalType": "address",
                      "name": "delegate",
                      "type": "address"
                    },
                    {
                      "internalType": "contract IERC20",
                      "name": "token",
                      "type": "address"
                    },
                    {
                      "components": [
                        {
                          "internalType": "uint256",
                          "name": "min",
                          "type": "uint256"
                        },
                        {
                          "internalType": "uint256",
                          "name": "max",
                          "type": "uint256"
                        }
                      ],
                      "internalType": "struct IEscrow.Range",
                      "name": "intentAmountRange",
                      "type": "tuple"
                    },
                    {
                      "internalType": "bool",
                      "name": "acceptingIntents",
                      "type": "bool"
                    },
                    {
                      "internalType": "uint256",
                      "name": "remainingDeposits",
                      "type": "uint256"
                    },
                    {
                      "internalType": "uint256",
                      "name": "outstandingIntentAmount",
                      "type": "uint256"
                    },
                    {
                      "internalType": "address",
                      "name": "intentGuardian",
                      "type": "address"
                    },
                    {
                      "internalType": "bool",
                      "name": "retainOnEmpty",
                      "type": "bool"
                    }
                  ],
                  "internalType": "struct IEscrow.Deposit",
                  "name": "deposit",
                  "type": "tuple"
                },
                {
                  "internalType": "uint256",
                  "name": "availableLiquidity",
                  "type": "uint256"
                },
                {
                  "components": [
                    {
                      "internalType": "bytes32",
                      "name": "paymentMethod",
                      "type": "bytes32"
                    },
                    {
                      "components": [
                        {
                          "internalType": "address",
                          "name": "intentGatingService",
                          "type": "address"
                        },
                        {
                          "internalType": "bytes32",
                          "name": "payeeDetails",
                          "type": "bytes32"
                        },
                        {
                          "internalType": "bytes",
                          "name": "data",
                          "type": "bytes"
                        }
                      ],
                      "internalType": "struct IEscrow.DepositPaymentMethodData",
                      "name": "verificationData",
                      "type": "tuple"
                    },
                    {
                      "components": [
                        {
                          "internalType": "bytes32",
                          "name": "code",
                          "type": "bytes32"
                        },
                        {
                          "internalType": "uint256",
                          "name": "minConversionRate",
                          "type": "uint256"
                        }
                      ],
                      "internalType": "struct IEscrow.Currency[]",
                      "name": "currencies",
                      "type": "tuple[]"
                    }
                  ],
                  "internalType": "struct IProtocolViewer.PaymentMethodDataView[]",
                  "name": "paymentMethods",
                  "type": "tuple[]"
                },
                {
                  "internalType": "bytes32[]",
                  "name": "intentHashes",
                  "type": "bytes32[]"
                }
              ],
              "internalType": "struct IProtocolViewer.DepositView",
              "name": "deposit",
              "type": "tuple"
            }
          ],
          "internalType": "struct IProtocolViewer.IntentView[]",
          "name": "intentViews",
          "type": "tuple[]"
        }
      ],
      "stateMutability": "view",
      "type": "function"
    },
    {
      "inputs": [
        {
          "internalType": "uint256",
          "name": "_depositId",
          "type": "uint256"
        }
      ],
      "name": "getDeposit",
      "outputs": [
        {
          "components": [
            {
              "internalType": "uint256",
              "name": "depositId",
              "type": "uint256"
            },
            {
              "components": [
                {
                  "internalType": "address",
                  "name": "depositor",
                  "type": "address"
                },
                {
                  "internalType": "address",
                  "name": "delegate",
                  "type": "address"
                },
                {
                  "internalType": "contract IERC20",
                  "name": "token",
                  "type": "address"
                },
                {
                  "components": [
                    {
                      "internalType": "uint256",
                      "name": "min",
                      "type": "uint256"
                    },
                    {
                      "internalType": "uint256",
                      "name": "max",
                      "type": "uint256"
                    }
                  ],
                  "internalType": "struct IEscrow.Range",
                  "name": "intentAmountRange",
                  "type": "tuple"
                },
                {
                  "internalType": "bool",
                  "name": "acceptingIntents",
                  "type": "bool"
                },
                {
                  "internalType": "uint256",
                  "name": "remainingDeposits",
                  "type": "uint256"
                },
                {
                  "internalType": "uint256",
                  "name": "outstandingIntentAmount",
                  "type": "uint256"
                },
                {
                  "internalType": "address",
                  "name": "intentGuardian",
                  "type": "address"
                },
                {
                  "internalType": "bool",
                  "name": "retainOnEmpty",
                  "type": "bool"
                }
              ],
              "internalType": "struct IEscrow.Deposit",
              "name": "deposit",
              "type": "tuple"
            },
            {
              "internalType": "uint256",
              "name": "availableLiquidity",
              "type": "uint256"
            },
            {
              "components": [
                {
                  "internalType": "bytes32",
                  "name": "paymentMethod",
                  "type": "bytes32"
                },
                {
                  "components": [
                    {
                      "internalType": "address",
                      "name": "intentGatingService",
                      "type": "address"
                    },
                    {
                      "internalType": "bytes32",
                      "name": "payeeDetails",
                      "type": "bytes32"
                    },
                    {
                      "internalType": "bytes",
                      "name": "data",
                      "type": "bytes"
                    }
                  ],
                  "internalType": "struct IEscrow.DepositPaymentMethodData",
                  "name": "verificationData",
                  "type": "tuple"
                },
                {
                  "components": [
                    {
                      "internalType": "bytes32",
                      "name": "code",
                      "type": "bytes32"
                    },
                    {
                      "internalType": "uint256",
                      "name": "minConversionRate",
                      "type": "uint256"
                    }
                  ],
                  "internalType": "struct IEscrow.Currency[]",
                  "name": "currencies",
                  "type": "tuple[]"
                }
              ],
              "internalType": "struct IProtocolViewer.PaymentMethodDataView[]",
              "name": "paymentMethods",
              "type": "tuple[]"
            },
            {
              "internalType": "bytes32[]",
              "name": "intentHashes",
              "type": "bytes32[]"
            }
          ],
          "internalType": "struct IProtocolViewer.DepositView",
          "name": "depositView",
          "type": "tuple"
        }
      ],
      "stateMutability": "view",
      "type": "function"
    },
    {
      "inputs": [
        {
          "internalType": "uint256[]",
          "name": "_depositIds",
          "type": "uint256[]"
        }
      ],
      "name": "getDepositFromIds",
      "outputs": [
        {
          "components": [
            {
              "internalType": "uint256",
              "name": "depositId",
              "type": "uint256"
            },
            {
              "components": [
                {
                  "internalType": "address",
                  "name": "depositor",
                  "type": "address"
                },
                {
                  "internalType": "address",
                  "name": "delegate",
                  "type": "address"
                },
                {
                  "internalType": "contract IERC20",
                  "name": "token",
                  "type": "address"
                },
                {
                  "components": [
                    {
                      "internalType": "uint256",
                      "name": "min",
                      "type": "uint256"
                    },
                    {
                      "internalType": "uint256",
                      "name": "max",
                      "type": "uint256"
                    }
                  ],
                  "internalType": "struct IEscrow.Range",
                  "name": "intentAmountRange",
                  "type": "tuple"
                },
                {
                  "internalType": "bool",
                  "name": "acceptingIntents",
                  "type": "bool"
                },
                {
                  "internalType": "uint256",
                  "name": "remainingDeposits",
                  "type": "uint256"
                },
                {
                  "internalType": "uint256",
                  "name": "outstandingIntentAmount",
                  "type": "uint256"
                },
                {
                  "internalType": "address",
                  "name": "intentGuardian",
                  "type": "address"
                },
                {
                  "internalType": "bool",
                  "name": "retainOnEmpty",
                  "type": "bool"
                }
              ],
              "internalType": "struct IEscrow.Deposit",
              "name": "deposit",
              "type": "tuple"
            },
            {
              "internalType": "uint256",
              "name": "availableLiquidity",
              "type": "uint256"
            },
            {
              "components": [
                {
                  "internalType": "bytes32",
                  "name": "paymentMethod",
                  "type": "bytes32"
                },
                {
                  "components": [
                    {
                      "internalType": "address",
                      "name": "intentGatingService",
                      "type": "address"
                    },
                    {
                      "internalType": "bytes32",
                      "name": "payeeDetails",
                      "type": "bytes32"
                    },
                    {
                      "internalType": "bytes",
                      "name": "data",
                      "type": "bytes"
                    }
                  ],
                  "internalType": "struct IEscrow.DepositPaymentMethodData",
                  "name": "verificationData",
                  "type": "tuple"
                },
                {
                  "components": [
                    {
                      "internalType": "bytes32",
                      "name": "code",
                      "type": "bytes32"
                    },
                    {
                      "internalType": "uint256",
                      "name": "minConversionRate",
                      "type": "uint256"
                    }
                  ],
                  "internalType": "struct IEscrow.Currency[]",
                  "name": "currencies",
                  "type": "tuple[]"
                }
              ],
              "internalType": "struct IProtocolViewer.PaymentMethodDataView[]",
              "name": "paymentMethods",
              "type": "tuple[]"
            },
            {
              "internalType": "bytes32[]",
              "name": "intentHashes",
              "type": "bytes32[]"
            }
          ],
          "internalType": "struct IProtocolViewer.DepositView[]",
          "name": "depositArray",
          "type": "tuple[]"
        }
      ],
      "stateMutability": "view",
      "type": "function"
    },
    {
      "inputs": [
        {
          "internalType": "bytes32",
          "name": "_intentHash",
          "type": "bytes32"
        }
      ],
      "name": "getIntent",
      "outputs": [
        {
          "components": [
            {
              "internalType": "bytes32",
              "name": "intentHash",
              "type": "bytes32"
            },
            {
              "components": [
                {
                  "internalType": "address",
                  "name": "owner",
                  "type": "address"
                },
                {
                  "internalType": "address",
                  "name": "to",
                  "type": "address"
                },
                {
                  "internalType": "address",
                  "name": "escrow",
                  "type": "address"
                },
                {
                  "internalType": "uint256",
                  "name": "depositId",
                  "type": "uint256"
                },
                {
                  "internalType": "uint256",
                  "name": "amount",
                  "type": "uint256"
                },
                {
                  "internalType": "uint256",
                  "name": "timestamp",
                  "type": "uint256"
                },
                {
                  "internalType": "bytes32",
                  "name": "paymentMethod",
                  "type": "bytes32"
                },
                {
                  "internalType": "bytes32",
                  "name": "fiatCurrency",
                  "type": "bytes32"
                },
                {
                  "internalType": "uint256",
                  "name": "conversionRate",
                  "type": "uint256"
                },
                {
                  "internalType": "bytes32",
                  "name": "payeeId",
                  "type": "bytes32"
                },
                {
                  "internalType": "address",
                  "name": "referrer",
                  "type": "address"
                },
                {
                  "internalType": "uint256",
                  "name": "referrerFee",
                  "type": "uint256"
                },
                {
                  "internalType": "contract IPostIntentHook",
                  "name": "postIntentHook",
                  "type": "address"
                },
                {
                  "internalType": "bytes",
                  "name": "data",
                  "type": "bytes"
                }
              ],
              "internalType": "struct IOrchestrator.Intent",
              "name": "intent",
              "type": "tuple"
            },
            {
              "components": [
                {
                  "internalType": "uint256",
                  "name": "depositId",
                  "type": "uint256"
                },
                {
                  "components": [
                    {
                      "internalType": "address",
                      "name": "depositor",
                      "type": "address"
                    },
                    {
                      "internalType": "address",
                      "name": "delegate",
                      "type": "address"
                    },
                    {
                      "internalType": "contract IERC20",
                      "name": "token",
                      "type": "address"
                    },
                    {
                      "components": [
                        {
                          "internalType": "uint256",
                          "name": "min",
                          "type": "uint256"
                        },
                        {
                          "internalType": "uint256",
                          "name": "max",
                          "type": "uint256"
                        }
                      ],
                      "internalType": "struct IEscrow.Range",
                      "name": "intentAmountRange",
                      "type": "tuple"
                    },
                    {
                      "internalType": "bool",
                      "name": "acceptingIntents",
                      "type": "bool"
                    },
                    {
                      "internalType": "uint256",
                      "name": "remainingDeposits",
                      "type": "uint256"
                    },
                    {
                      "internalType": "uint256",
                      "name": "outstandingIntentAmount",
                      "type": "uint256"
                    },
                    {
                      "internalType": "address",
                      "name": "intentGuardian",
                      "type": "address"
                    },
                    {
                      "internalType": "bool",
                      "name": "retainOnEmpty",
                      "type": "bool"
                    }
                  ],
                  "internalType": "struct IEscrow.Deposit",
                  "name": "deposit",
                  "type": "tuple"
                },
                {
                  "internalType": "uint256",
                  "name": "availableLiquidity",
                  "type": "uint256"
                },
                {
                  "components": [
                    {
                      "internalType": "bytes32",
                      "name": "paymentMethod",
                      "type": "bytes32"
                    },
                    {
                      "components": [
                        {
                          "internalType": "address",
                          "name": "intentGatingService",
                          "type": "address"
                        },
                        {
                          "internalType": "bytes32",
                          "name": "payeeDetails",
                          "type": "bytes32"
                        },
                        {
                          "internalType": "bytes",
                          "name": "data",
                          "type": "bytes"
                        }
                      ],
                      "internalType": "struct IEscrow.DepositPaymentMethodData",
                      "name": "verificationData",
                      "type": "tuple"
                    },
                    {
                      "components": [
                        {
                          "internalType": "bytes32",
                          "name": "code",
                          "type": "bytes32"
                        },
                        {
                          "internalType": "uint256",
                          "name": "minConversionRate",
                          "type": "uint256"
                        }
                      ],
                      "internalType": "struct IEscrow.Currency[]",
                      "name": "currencies",
                      "type": "tuple[]"
                    }
                  ],
                  "internalType": "struct IProtocolViewer.PaymentMethodDataView[]",
                  "name": "paymentMethods",
                  "type": "tuple[]"
                },
                {
                  "internalType": "bytes32[]",
                  "name": "intentHashes",
                  "type": "bytes32[]"
                }
              ],
              "internalType": "struct IProtocolViewer.DepositView",
              "name": "deposit",
              "type": "tuple"
            }
          ],
          "internalType": "struct IProtocolViewer.IntentView",
          "name": "intentView",
          "type": "tuple"
        }
      ],
      "stateMutability": "view",
      "type": "function"
    },
    {
      "inputs": [
        {
          "internalType": "bytes32[]",
          "name": "_intentHashes",
          "type": "bytes32[]"
        }
      ],
      "name": "getIntents",
      "outputs": [
        {
          "components": [
            {
              "internalType": "bytes32",
              "name": "intentHash",
              "type": "bytes32"
            },
            {
              "components": [
                {
                  "internalType": "address",
                  "name": "owner",
                  "type": "address"
                },
                {
                  "internalType": "address",
                  "name": "to",
                  "type": "address"
                },
                {
                  "internalType": "address",
                  "name": "escrow",
                  "type": "address"
                },
                {
                  "internalType": "uint256",
                  "name": "depositId",
                  "type": "uint256"
                },
                {
                  "internalType": "uint256",
                  "name": "amount",
                  "type": "uint256"
                },
                {
                  "internalType": "uint256",
                  "name": "timestamp",
                  "type": "uint256"
                },
                {
                  "internalType": "bytes32",
                  "name": "paymentMethod",
                  "type": "bytes32"
                },
                {
                  "internalType": "bytes32",
                  "name": "fiatCurrency",
                  "type": "bytes32"
                },
                {
                  "internalType": "uint256",
                  "name": "conversionRate",
                  "type": "uint256"
                },
                {
                  "internalType": "bytes32",
                  "name": "payeeId",
                  "type": "bytes32"
                },
                {
                  "internalType": "address",
                  "name": "referrer",
                  "type": "address"
                },
                {
                  "internalType": "uint256",
                  "name": "referrerFee",
                  "type": "uint256"
                },
                {
                  "internalType": "contract IPostIntentHook",
                  "name": "postIntentHook",
                  "type": "address"
                },
                {
                  "internalType": "bytes",
                  "name": "data",
                  "type": "bytes"
                }
              ],
              "internalType": "struct IOrchestrator.Intent",
              "name": "intent",
              "type": "tuple"
            },
            {
              "components": [
                {
                  "internalType": "uint256",
                  "name": "depositId",
                  "type": "uint256"
                },
                {
                  "components": [
                    {
                      "internalType": "address",
                      "name": "depositor",
                      "type": "address"
                    },
                    {
                      "internalType": "address",
                      "name": "delegate",
                      "type": "address"
                    },
                    {
                      "internalType": "contract IERC20",
                      "name": "token",
                      "type": "address"
                    },
                    {
                      "components": [
                        {
                          "internalType": "uint256",
                          "name": "min",
                          "type": "uint256"
                        },
                        {
                          "internalType": "uint256",
                          "name": "max",
                          "type": "uint256"
                        }
                      ],
                      "internalType": "struct IEscrow.Range",
                      "name": "intentAmountRange",
                      "type": "tuple"
                    },
                    {
                      "internalType": "bool",
                      "name": "acceptingIntents",
                      "type": "bool"
                    },
                    {
                      "internalType": "uint256",
                      "name": "remainingDeposits",
                      "type": "uint256"
                    },
                    {
                      "internalType": "uint256",
                      "name": "outstandingIntentAmount",
                      "type": "uint256"
                    },
                    {
                      "internalType": "address",
                      "name": "intentGuardian",
                      "type": "address"
                    },
                    {
                      "internalType": "bool",
                      "name": "retainOnEmpty",
                      "type": "bool"
                    }
                  ],
                  "internalType": "struct IEscrow.Deposit",
                  "name": "deposit",
                  "type": "tuple"
                },
                {
                  "internalType": "uint256",
                  "name": "availableLiquidity",
                  "type": "uint256"
                },
                {
                  "components": [
                    {
                      "internalType": "bytes32",
                      "name": "paymentMethod",
                      "type": "bytes32"
                    },
                    {
                      "components": [
                        {
                          "internalType": "address",
                          "name": "intentGatingService",
                          "type": "address"
                        },
                        {
                          "internalType": "bytes32",
                          "name": "payeeDetails",
                          "type": "bytes32"
                        },
                        {
                          "internalType": "bytes",
                          "name": "data",
                          "type": "bytes"
                        }
                      ],
                      "internalType": "struct IEscrow.DepositPaymentMethodData",
                      "name": "verificationData",
                      "type": "tuple"
                    },
                    {
                      "components": [
                        {
                          "internalType": "bytes32",
                          "name": "code",
                          "type": "bytes32"
                        },
                        {
                          "internalType": "uint256",
                          "name": "minConversionRate",
                          "type": "uint256"
                        }
                      ],
                      "internalType": "struct IEscrow.Currency[]",
                      "name": "currencies",
                      "type": "tuple[]"
                    }
                  ],
                  "internalType": "struct IProtocolViewer.PaymentMethodDataView[]",
                  "name": "paymentMethods",
                  "type": "tuple[]"
                },
                {
                  "internalType": "bytes32[]",
                  "name": "intentHashes",
                  "type": "bytes32[]"
                }
              ],
              "internalType": "struct IProtocolViewer.DepositView",
              "name": "deposit",
              "type": "tuple"
            }
          ],
          "internalType": "struct IProtocolViewer.IntentView[]",
          "name": "intentArray",
          "type": "tuple[]"
        }
      ],
      "stateMutability": "view",
      "type": "function"
    },
    {
      "inputs": [],
      "name": "orchestrator",
      "outputs": [
        {
          "internalType": "contract IOrchestrator",
          "name": "",
          "type": "address"
        }
      ],
      "stateMutability": "view",
      "type": "function"
    }
  ],
  "transactionHash": "0x44acc2c245384d3d85aa49e8020af37992fe491dca6d63135b70cbdde8c7ed00",
  "args": [
    "0x2f121CDDCA6d652f35e8B3E560f9760898888888",
    "0x88888883Ed048FF0a415271B28b2F52d431810D0"
  ],
  "numDeployments": 1,
  "solcInputHash": "29b38fa2f0853a716ac0a544a2824744",
  "bytecode": "0x60c06040523480156200001157600080fd5b5060405162001b5f38038062001b5f833981016040819052620000349162000069565b6001600160a01b039182166080521660a052620000a1565b80516001600160a01b03811681146200006457600080fd5b919050565b600080604083850312156200007d57600080fd5b62000088836200004c565b915062000098602084016200004c565b90509250929050565b60805160a051611a4b620001146000396000818161010e0152818161031b0152610c69015260008181610160015281816101c70152818161051d015281816105b501528181610649015281816106dc015281816107d2015281816108f80152818161099d0152610aa60152611a4b6000f3fe608060405234801561001057600080fd5b50600436106100885760003560e01c8063b74795d91161005b578063b74795d914610109578063ba7ae4af14610148578063e42a96e71461015b578063f13c46aa1461018257600080fd5b80635081d9521461008d57806356510510146100b657806371a28f69146100d65780639f9fb968146100e9575b600080fd5b6100a061009b366004610e9a565b6101a2565b6040516100ad9190611122565b60405180910390f35b6100c96100c4366004610e9a565b6102f6565b6040516100ad91906112a8565b6100a06100e43660046113b2565b61043d565b6100fc6100f7366004611447565b6104fc565b6040516100ad9190611460565b6101307f000000000000000000000000000000000000000000000000000000000000000081565b6040516001600160a01b0390911681526020016100ad565b6100c9610156366004611473565b610b91565b6101307f000000000000000000000000000000000000000000000000000000000000000081565b610195610190366004611447565b610c48565b6040516100ad91906114e7565b604051632840eca960e11b81526001600160a01b0382811660048301526060916000917f00000000000000000000000000000000000000000000000000000000000000001690635081d95290602401600060405180830381865afa15801561020e573d6000803e3d6000fd5b505050506040513d6000823e601f3d908101601f1916820160405261023691908101906114fa565b905080516001600160401b03811115610251576102516112fd565b60405190808252806020026020018201604052801561028a57816020015b610277610d14565b81526020019060019003908161026f5790505b50915060005b81518110156102ef5760008282815181106102ad576102ad61157f565b602002602001015190506102c0816104fc565b8483815181106102d2576102d261157f565b602002602001018190525050806102e8906115ab565b9050610290565b5050919050565b604051630565105160e41b81526001600160a01b0382811660048301526060916000917f00000000000000000000000000000000000000000000000000000000000000001690635651051090602401600060405180830381865afa158015610362573d6000803e3d6000fd5b505050506040513d6000823e601f3d908101601f1916820160405261038a919081019061162a565b905080516001600160401b038111156103a5576103a56112fd565b6040519080825280602002602001820160405280156103de57816020015b6103cb610d9f565b8152602001906001900390816103c35790505b50915060005b81518110156102ef5761040f8282815181106104025761040261157f565b6020026020010151610c48565b8382815181106104215761042161157f565b602002602001018190525080610436906115ab565b90506103e4565b606081516001600160401b03811115610458576104586112fd565b60405190808252806020026020018201604052801561049157816020015b61047e610d14565b8152602001906001900390816104765790505b50905060005b82518110156104f65760008382815181106104b4576104b461157f565b602002602001015190506104c7816104fc565b8383815181106104d9576104d961157f565b602002602001018190525050806104ef906115ab565b9050610497565b50919050565b610504610d14565b6040516313f3f72d60e31b8152600481018390526000907f00000000000000000000000000000000000000000000000000000000000000006001600160a01b031690639f9fb9689060240161014060405180830381865afa15801561056d573d6000803e3d6000fd5b505050506040513d601f19601f8201168201806040525081019061059191906116d4565b6040516360e70e6f60e11b8152600481018590529091506000906001600160a01b037f0000000000000000000000000000000000000000000000000000000000000000169063c1ce1cde90602401600060405180830381865afa1580156105fc573d6000803e3d6000fd5b505050506040513d6000823e601f3d908101601f19168201604052610624919081019061177e565b60405163345cb23760e11b815260048101879052909250600091506001600160a01b037f000000000000000000000000000000000000000000000000000000000000000016906368b9646e90602401600060405180830381865afa158015610690573d6000803e3d6000fd5b505050506040513d6000823e601f3d908101601f191682016040526106b8919081019061162a565b6040516373a19db760e11b8152600481018790529091506000906001600160a01b037f0000000000000000000000000000000000000000000000000000000000000000169063e7433b6e90602401600060405180830381865afa158015610723573d6000803e3d6000fd5b505050506040513d6000823e601f3d908101601f1916820160405261074b919081019061162a565b9050600081516001600160401b03811115610768576107686112fd565b6040519080825280602002602001820160405280156107a157816020015b61078e610e30565b8152602001906001900390816107865790505b50905060005b8251811015610b4e5760008382815181106107c4576107c461157f565b6020026020010151905060007f00000000000000000000000000000000000000000000000000000000000000006001600160a01b031663ad8054828b846040518363ffffffff1660e01b8152600401610827929190918252602082015260400190565b600060405180830381865afa158015610844573d6000803e3d6000fd5b505050506040513d6000823e601f3d908101601f1916820160405261086c919081019061162a565b516001600160401b03811115610884576108846112fd565b6040519080825280602002602001820160405280156108c957816020015b60408051808201909152600080825260208201528152602001906001900390816108a25790505b50905060005b8151811015610a6f576040516356c02a4160e11b8152600481018c9052602481018490526000907f00000000000000000000000000000000000000000000000000000000000000006001600160a01b03169063ad80548290604401600060405180830381865afa158015610947573d6000803e3d6000fd5b505050506040513d6000823e601f3d908101601f1916820160405261096f919081019061162a565b82815181106109805761098061157f565b6020026020010151905060405180604001604052808281526020017f00000000000000000000000000000000000000000000000000000000000000006001600160a01b03166320d8005a8f88866040518463ffffffff1660e01b81526004016109fc939291909283526020830191909152604082015260600190565b602060405180830381865afa158015610a19573d6000803e3d6000fd5b505050506040513d601f19601f82011682018060405250810190610a3d91906117c4565b815250838381518110610a5257610a5261157f565b60200260200101819052505080610a68906115ab565b90506108cf565b506040805160608101825283815290516317192c2960e01b8152600481018c90526024810184905260208201906001600160a01b037f000000000000000000000000000000000000000000000000000000000000000016906317192c2990604401600060405180830381865afa158015610aed573d6000803e3d6000fd5b505050506040513d6000823e601f3d908101601f19168201604052610b159190810190611840565b815260200182815250848481518110610b3057610b3061157f565b6020026020010181905250505080610b47906115ab565b90506107a7565b506040518060a00160405280888152602001868152602001858760a00151610b7691906118df565b81526020018281526020018481525095505050505050919050565b6060816001600160401b03811115610bab57610bab6112fd565b604051908082528060200260200182016040528015610be457816020015b610bd1610d9f565b815260200190600190039081610bc95790505b50905060005b82811015610c4157610c13848483818110610c0757610c0761157f565b90506020020135610c48565b828281518110610c2557610c2561157f565b602002602001018190525080610c3a906115ab565b9050610bea565b5092915050565b610c50610d9f565b60405163789e235560e11b8152600481018390526000907f00000000000000000000000000000000000000000000000000000000000000006001600160a01b03169063f13c46aa90602401600060405180830381865afa158015610cb8573d6000803e3d6000fd5b505050506040513d6000823e601f3d908101601f19168201604052610ce091908101906118f8565b90506000610cf182606001516104fc565b604080516060810182529586526020860193909352918401919091525090919050565b6040518060a0016040528060008152602001610d846040805161012081018252600080825260208083018290528284018290528351808501909452818452830152906060820190815260006020820181905260408201819052606082018190526080820181905260a09091015290565b81526020016000815260200160608152602001606081525090565b6040805160608082018352600080835283516101c08101855281815260208082018390528186018390528184018390526080820183905260a0820183905260c0820183905260e0820183905261010082018390526101208201839052610140820183905261016082018390526101808201929092526101a0810192909252820152908101610e2b610d14565b905290565b604051806060016040528060008019168152602001610e75604051806060016040528060006001600160a01b0316815260200160008019168152602001606081525090565b8152602001606081525090565b6001600160a01b0381168114610e9757600080fd5b50565b600060208284031215610eac57600080fd5b8135610eb781610e82565b9392505050565b60005b83811015610ed9578181015183820152602001610ec1565b50506000910152565b60008151808452610efa816020860160208601610ebe565b601f01601f19169290920160200192915050565b600081518084526020808501808196508360051b810191508286016000805b86811015610fdb578385038a5282518051865286810151606088880181905281516001600160a01b03168189015281890151608089015260409182015160a089018290529091610f8060c08a0183610ee2565b938101518985038a8301528051808652908b01948794508b0192505b80841015610fc5578451805184528b01518b840152938a01936001939093019291810191610f9c565b50509b88019b9650505091850191600101610f2d565b509298975050505050505050565b600081518084526020808501945080840160005b8381101561101957815187529582019590820190600101610ffd565b509495945050505050565b8051825260208082015180516001600160a01b031682850152908101516000916101c09161105d60408701826001600160a01b03169052565b5060408101516001600160a01b038116606087015250606081015180516080870152602081015160a087015250608081015180151560c08701525060a081015160e086015260c0810151610100818188015260e083015191506110cc6101208801836001600160a01b03169052565b91909101511515610140860152506040830151610160850152606083015161018085018290526110fe82860182610f0e565b91505060808301518482036101a08601526111198282610fe9565b95945050505050565b6000602080830181845280855180835260408601915060408160051b870101925083870160005b8281101561117757603f19888603018452611165858351611024565b94509285019290850190600101611149565b5092979650505050505050565b8051825260006020820151606060208501526111ac6060850182516001600160a01b03169052565b60208101516001600160a01b03811660808601525060408101516001600160a01b03811660a086015250606081015160c0850152608081015160e085015260a0810151610100818187015260c08301519150610120828188015260e0840151925061014083818901528285015193506101609250838389015281850151935061018091508382890152808501519350506101a0611253818901856001600160a01b03169052565b918401516101c088810191909152908401516001600160a01b03166101e08801529201516102008601929092525061128f610220850182610ee2565b9050604083015184820360408601526111198282611024565b6000602080830181845280855180835260408601915060408160051b870101925083870160005b8281101561117757603f198886030184526112eb858351611184565b945092850192908501906001016112cf565b634e487b7160e01b600052604160045260246000fd5b60405161012081016001600160401b0381118282101715611336576113366112fd565b60405290565b6040516101c081016001600160401b0381118282101715611336576113366112fd565b604051601f8201601f191681016001600160401b0381118282101715611387576113876112fd565b604052919050565b60006001600160401b038211156113a8576113a86112fd565b5060051b60200190565b600060208083850312156113c557600080fd5b82356001600160401b038111156113db57600080fd5b8301601f810185136113ec57600080fd5b80356113ff6113fa8261138f565b61135f565b81815260059190911b8201830190838101908783111561141e57600080fd5b928401925b8284101561143c57833582529284019290840190611423565b979650505050505050565b60006020828403121561145957600080fd5b5035919050565b602081526000610eb76020830184611024565b6000806020838503121561148657600080fd5b82356001600160401b038082111561149d57600080fd5b818501915085601f8301126114b157600080fd5b8135818111156114c057600080fd5b8660208260051b85010111156114d557600080fd5b60209290920196919550909350505050565b602081526000610eb76020830184611184565b6000602080838503121561150d57600080fd5b82516001600160401b0381111561152357600080fd5b8301601f8101851361153457600080fd5b80516115426113fa8261138f565b81815260059190911b8201830190838101908783111561156157600080fd5b928401925b8284101561143c57835182529284019290840190611566565b634e487b7160e01b600052603260045260246000fd5b634e487b7160e01b600052601160045260246000fd5b6000600182016115bd576115bd611595565b5060010190565b600082601f8301126115d557600080fd5b815160206115e56113fa8361138f565b82815260059290921b8401810191818101908684111561160457600080fd5b8286015b8481101561161f5780518352918301918301611608565b509695505050505050565b60006020828403121561163c57600080fd5b81516001600160401b0381111561165257600080fd5b61165e848285016115c4565b949350505050565b805161167181610e82565b919050565b60006040828403121561168857600080fd5b604051604081018181106001600160401b03821117156116aa576116aa6112fd565b604052825181526020928301519281019290925250919050565b8051801515811461167157600080fd5b600061014082840312156116e757600080fd5b6116ef611313565b6116f883611666565b815261170660208401611666565b602082015261171760408401611666565b60408201526117298460608501611676565b606082015261173a60a084016116c4565b608082015260c083015160a082015260e083015160c0820152610100611761818501611666565b60e083015261177361012085016116c4565b908201529392505050565b6000806040838503121561179157600080fd5b82516001600160401b038111156117a757600080fd5b6117b3858286016115c4565b925050602083015190509250929050565b6000602082840312156117d657600080fd5b5051919050565b600082601f8301126117ee57600080fd5b81516001600160401b03811115611807576118076112fd565b61181a601f8201601f191660200161135f565b81815284602083860101111561182f57600080fd5b61165e826020830160208701610ebe565b60006020828403121561185257600080fd5b81516001600160401b038082111561186957600080fd5b908301906060828603121561187d57600080fd5b604051606081018181108382111715611898576118986112fd565b60405282516118a681610e82565b8152602083810151908201526040830151828111156118c457600080fd5b6118d0878286016117dd565b60408301525095945050505050565b808201808211156118f2576118f2611595565b92915050565b60006020828403121561190a57600080fd5b81516001600160401b038082111561192157600080fd5b908301906101c0828603121561193657600080fd5b61193e61133c565b61194783611666565b815261195560208401611666565b602082015261196660408401611666565b6040820152606083015160608201526080830151608082015260a083015160a082015260c083015160c082015260e083015160e08201526101008084015181830152506101208084015181830152506101406119c3818501611666565b9082015261016083810151908201526101806119e0818501611666565b908201526101a083810151838111156119f857600080fd5b611a04888287016117dd565b91830191909152509594505050505056fea2646970667358221220cd3d1308ff68914451c051294745c377ba96a2d1c67bc006b38c1975b827d52a64736f6c63430008120033",
  "devdoc": {
    "kind": "dev",
    "methods": {
      "getAccountDeposits(address)": {
        "params": {
          "_account": "The account address."
        },
        "returns": {
          "depositArray": "Array of DepositView structs."
        }
      },
      "getAccountIntents(address)": {
        "params": {
          "_account": "The account address."
        },
        "returns": {
          "intentViews": "Array of IntentView structs."
        }
      },
      "getDeposit(uint256)": {
        "params": {
          "_depositId": "The ID of the deposit."
        },
        "returns": {
          "depositView": "The DepositView struct."
        }
      },
      "getDepositFromIds(uint256[])": {
        "params": {
          "_depositIds": "Array of deposit IDs."
        },
        "returns": {
          "depositArray": "Array of DepositView structs."
        }
      },
      "getIntent(bytes32)": {
        "params": {
          "_intentHash": "The hash of the intent."
        },
        "returns": {
          "intentView": "The IntentView struct."
        }
      },
      "getIntents(bytes32[])": {
        "params": {
          "_intentHashes": "Array of intent hashes."
        },
        "returns": {
          "intentArray": "Array of IntentView structs."
        }
      }
    },
    "version": 1
  },
  "userdoc": {
    "kind": "user",
    "methods": {
      "getAccountDeposits(address)": {
        "notice": "Gets all deposits for a specific account."
      },
      "getAccountIntents(address)": {
        "notice": "Gets the active intents for a specific account."
      },
      "getDeposit(uint256)": {
        "notice": "Gets details for a single deposit."
      },
      "getDepositFromIds(uint256[])": {
        "notice": "Gets deposit details for a list of deposit IDs."
      },
      "getIntent(bytes32)": {
        "notice": "Gets details for a single intent."
      },
      "getIntents(bytes32[])": {
        "notice": "Gets details for a list of intent hashes."
      }
    },
    "version": 1
  },
  "storageLayout": {
    "storage": [],
    "types": null
  }
}