{
  "address": "0x70A6d00fF8b54E09c442FD82e387b91aEe763b69",
  "abi": [
    {
      "inputs": [
        {
          "internalType": "address",
          "name": "_escrow",
          "type": "address"
        },
        {
          "internalType": "contract INullifierRegistry",
          "name": "_nullifierRegistry",
          "type": "address"
        },
        {
          "internalType": "uint256",
          "name": "_timestampBuffer",
          "type": "uint256"
        },
        {
          "internalType": "bytes32[]",
          "name": "_currencies",
          "type": "bytes32[]"
        },
        {
          "internalType": "string[]",
          "name": "_providerHashes",
          "type": "string[]"
        }
      ],
      "stateMutability": "nonpayable",
      "type": "constructor"
    },
    {
      "anonymous": false,
      "inputs": [
        {
          "indexed": false,
          "internalType": "bytes32",
          "name": "currencyCode",
          "type": "bytes32"
        }
      ],
      "name": "CurrencyAdded",
      "type": "event"
    },
    {
      "anonymous": false,
      "inputs": [
        {
          "indexed": false,
          "internalType": "bytes32",
          "name": "currencyCode",
          "type": "bytes32"
        }
      ],
      "name": "CurrencyRemoved",
      "type": "event"
    },
    {
      "anonymous": false,
      "inputs": [
        {
          "indexed": true,
          "internalType": "address",
          "name": "previousOwner",
          "type": "address"
        },
        {
          "indexed": true,
          "internalType": "address",
          "name": "newOwner",
          "type": "address"
        }
      ],
      "name": "OwnershipTransferred",
      "type": "event"
    },
    {
      "anonymous": false,
      "inputs": [
        {
          "indexed": false,
          "internalType": "string",
          "name": "providerHash",
          "type": "string"
        }
      ],
      "name": "ProviderHashAdded",
      "type": "event"
    },
    {
      "anonymous": false,
      "inputs": [
        {
          "indexed": false,
          "internalType": "string",
          "name": "providerHash",
          "type": "string"
        }
      ],
      "name": "ProviderHashRemoved",
      "type": "event"
    },
    {
      "anonymous": false,
      "inputs": [
        {
          "indexed": false,
          "internalType": "uint256",
          "name": "timestampBuffer",
          "type": "uint256"
        }
      ],
      "name": "TimestampBufferSet",
      "type": "event"
    },
    {
      "inputs": [
        {
          "internalType": "bytes32",
          "name": "_currencyCode",
          "type": "bytes32"
        }
      ],
      "name": "addCurrency",
      "outputs": [],
      "stateMutability": "nonpayable",
      "type": "function"
    },
    {
      "inputs": [
        {
          "internalType": "string",
          "name": "_newProviderHash",
          "type": "string"
        }
      ],
      "name": "addProviderHash",
      "outputs": [],
      "stateMutability": "nonpayable",
      "type": "function"
    },
    {
      "inputs": [],
      "name": "escrow",
      "outputs": [
        {
          "internalType": "address",
          "name": "",
          "type": "address"
        }
      ],
      "stateMutability": "view",
      "type": "function"
    },
    {
      "inputs": [],
      "name": "getCurrencies",
      "outputs": [
        {
          "internalType": "bytes32[]",
          "name": "",
          "type": "bytes32[]"
        }
      ],
      "stateMutability": "view",
      "type": "function"
    },
    {
      "inputs": [],
      "name": "getProviderHashes",
      "outputs": [
        {
          "internalType": "string[]",
          "name": "",
          "type": "string[]"
        }
      ],
      "stateMutability": "view",
      "type": "function"
    },
    {
      "inputs": [
        {
          "internalType": "bytes32",
          "name": "",
          "type": "bytes32"
        }
      ],
      "name": "isCurrency",
      "outputs": [
        {
          "internalType": "bool",
          "name": "",
          "type": "bool"
        }
      ],
      "stateMutability": "view",
      "type": "function"
    },
    {
      "inputs": [
        {
          "internalType": "string",
          "name": "",
          "type": "string"
        }
      ],
      "name": "isProviderHash",
      "outputs": [
        {
          "internalType": "bool",
          "name": "",
          "type": "bool"
        }
      ],
      "stateMutability": "view",
      "type": "function"
    },
    {
      "inputs": [],
      "name": "nullifierRegistry",
      "outputs": [
        {
          "internalType": "contract INullifierRegistry",
          "name": "",
          "type": "address"
        }
      ],
      "stateMutability": "view",
      "type": "function"
    },
    {
      "inputs": [],
      "name": "owner",
      "outputs": [
        {
          "internalType": "address",
          "name": "",
          "type": "address"
        }
      ],
      "stateMutability": "view",
      "type": "function"
    },
    {
      "inputs": [
        {
          "internalType": "uint256",
          "name": "",
          "type": "uint256"
        }
      ],
      "name": "providerHashes",
      "outputs": [
        {
          "internalType": "string",
          "name": "",
          "type": "string"
        }
      ],
      "stateMutability": "view",
      "type": "function"
    },
    {
      "inputs": [
        {
          "internalType": "bytes32",
          "name": "_currencyCode",
          "type": "bytes32"
        }
      ],
      "name": "removeCurrency",
      "outputs": [],
      "stateMutability": "nonpayable",
      "type": "function"
    },
    {
      "inputs": [
        {
          "internalType": "string",
          "name": "_removeProviderHash",
          "type": "string"
        }
      ],
      "name": "removeProviderHash",
      "outputs": [],
      "stateMutability": "nonpayable",
      "type": "function"
    },
    {
      "inputs": [],
      "name": "renounceOwnership",
      "outputs": [],
      "stateMutability": "nonpayable",
      "type": "function"
    },
    {
      "inputs": [
        {
          "internalType": "uint256",
          "name": "_timestampBuffer",
          "type": "uint256"
        }
      ],
      "name": "setTimestampBuffer",
      "outputs": [],
      "stateMutability": "nonpayable",
      "type": "function"
    },
    {
      "inputs": [],
      "name": "timestampBuffer",
      "outputs": [
        {
          "internalType": "uint256",
          "name": "",
          "type": "uint256"
        }
      ],
      "stateMutability": "view",
      "type": "function"
    },
    {
      "inputs": [
        {
          "internalType": "address",
          "name": "newOwner",
          "type": "address"
        }
      ],
      "name": "transferOwnership",
      "outputs": [],
      "stateMutability": "nonpayable",
      "type": "function"
    },
    {
      "inputs": [
        {
          "components": [
            {
              "internalType": "bytes",
              "name": "paymentProof",
              "type": "bytes"
            },
            {
              "internalType": "address",
              "name": "depositToken",
              "type": "address"
            },
            {
              "internalType": "uint256",
              "name": "intentAmount",
              "type": "uint256"
            },
            {
              "internalType": "uint256",
              "name": "intentTimestamp",
              "type": "uint256"
            },
            {
              "internalType": "string",
              "name": "payeeDetails",
              "type": "string"
            },
            {
              "internalType": "bytes32",
              "name": "fiatCurrency",
              "type": "bytes32"
            },
            {
              "internalType": "uint256",
              "name": "conversionRate",
              "type": "uint256"
            },
            {
              "internalType": "bytes",
              "name": "data",
              "type": "bytes"
            }
          ],
          "internalType": "struct IPaymentVerifier.VerifyPaymentData",
          "name": "_verifyPaymentData",
          "type": "tuple"
        }
      ],
      "name": "verifyPayment",
      "outputs": [
        {
          "internalType": "bool",
          "name": "",
          "type": "bool"
        },
        {
          "internalType": "bytes32",
          "name": "",
          "type": "bytes32"
        }
      ],
      "stateMutability": "nonpayable",
      "type": "function"
    },
    {
      "inputs": [
        {
          "components": [
            {
              "components": [
                {
                  "internalType": "string",
                  "name": "provider",
                  "type": "string"
                },
                {
                  "internalType": "string",
                  "name": "parameters",
                  "type": "string"
                },
                {
                  "internalType": "string",
                  "name": "context",
                  "type": "string"
                }
              ],
              "internalType": "struct Claims.ClaimInfo",
              "name": "claimInfo",
              "type": "tuple"
            },
            {
              "components": [
                {
                  "components": [
                    {
                      "internalType": "bytes32",
                      "name": "identifier",
                      "type": "bytes32"
                    },
                    {
                      "internalType": "address",
                      "name": "owner",
                      "type": "address"
                    },
                    {
                      "internalType": "uint32",
                      "name": "timestampS",
                      "type": "uint32"
                    },
                    {
                      "internalType": "uint32",
                      "name": "epoch",
                      "type": "uint32"
                    }
                  ],
                  "internalType": "struct Claims.CompleteClaimData",
                  "name": "claim",
                  "type": "tuple"
                },
                {
                  "internalType": "bytes[]",
                  "name": "signatures",
                  "type": "bytes[]"
                }
              ],
              "internalType": "struct Claims.SignedClaim",
              "name": "signedClaim",
              "type": "tuple"
            },
            {
              "internalType": "bool",
              "name": "isAppclipProof",
              "type": "bool"
            }
          ],
          "internalType": "struct IReclaimVerifier.ReclaimProof",
          "name": "proof",
          "type": "tuple"
        },
        {
          "internalType": "address[]",
          "name": "_witnesses",
          "type": "address[]"
        },
        {
          "internalType": "uint256",
          "name": "_requiredThreshold",
          "type": "uint256"
        }
      ],
      "name": "verifyProofSignatures",
      "outputs": [
        {
          "internalType": "bool",
          "name": "",
          "type": "bool"
        }
      ],
      "stateMutability": "pure",
      "type": "function"
    }
  ],
  "transactionHash": "0x880e9f51129404aadc0fc251d7800ffc4ab24c98f5376135364a7e36f0880feb",
  "args": [
    "0xf93e587C5DED846819cE2C0295EA070566446451",
    "0x8079AE92cb53F0Bb57172b7544f18Fcd1DAeF886",
    "30",
    [
      "0xc4ae21aac0c6549d71dd96035b7e0bdb6c79ebdba8891b666115bc976d16a29e"
    ],
    [
      "0xbbb4d6813c1ccac7253673094ce4c1e122fe358682392851cfa332fe8359b8fd",
      "0xec9a8c3fc521fef9a805fe97babb505856569a137c88dd4ec3a3c293082a4dbd",
      "0xa418bd79c7b7d49360af56e6ae96ae087742474da03fea0e99b919e093a8aebc",
      "0x52d1835e47c7cdcadb5f15e81bb1c870d304a5d0511f4d5ae8037c31c24cf0d3",
      "0xaa9825c58cbb0a6b42f20a7d926bb3eff6068243fed8da7f86baf0467f7bd45b",
      "0x694206270d22f47fd1f0acd12242700ace67bd6f629026a8ac43157c5d0b9b53",
      "0x2d0e9b6a4c10fd4c5daa0d1b8e7b57a800de7bfd20968fea366d3ef2fc68ae36",
      "0xf857aa76140222b43cd6096f2dbce3f952be598b0b749f1d250d8dbd1540da93",
      "0x355e435a6195179da0b88b894babb806c5a8cd86010d516276bd7810e013f00a",
      "0x2b2fb88b503f1862d6c7d507465355eb49ad54e3a67bb1c2b0216af3ed3f42d7",
      "0x14de8b5503a4a6973bbaa9aa301ec7843e9bcaa3af05e6610b54c6fcc56aa425"
    ]
  ],
  "numDeployments": 1,
  "solcInputHash": "8b3f1aa7d7ae8ca425971c538dcf04ce",
  "bytecode": "0x60a06040523480156200001157600080fd5b50604051620050f2380380620050f28339810160408190526200003491620005bc565b84848484848484848462000048336200027a565b6001600160a01b03848116608052600180546001600160a01b031916918516919091179055600282905560005b8151811015620000c157620000ac828281518110620000985762000098620006b9565b6020026020010151620002ca60201b60201c565b80620000b881620006cf565b91505062000075565b505050505060005b815181101562000269576005828281518110620000ea57620000ea620006b9565b6020026020010151604051620001019190620006f7565b9081526040519081900360200190205460ff1615620001675760405162461bcd60e51b815260206004820152601b60248201527f50726f7669646572206861736820616c7265616479206164646564000000000060448201526064015b60405180910390fd5b60016005838381518110620001805762000180620006b9565b6020026020010151604051620001979190620006f7565b908152602001604051809103902060006101000a81548160ff0219169083151502179055506006828281518110620001d357620001d3620006b9565b60209081029190910181015182546001810184556000938452919092200190620001fe9082620007a4565b507fc9e1c78701d1853eeb1eb35ad3449e4b336281f672d5837243d21239dc6f4096828281518110620002355762000235620006b9565b60200260200101516040516200024c919062000870565b60405180910390a1806200026081620006cf565b915050620000c9565b5050505050505050505050620008a5565b600080546001600160a01b038381166001600160a01b0319831681178455604051919092169283917f8be0079c531659141344cd1fd0a4f28419497f9722a3daafe3b4186f6b6457e09190a35050565b620002d4620003b6565b60008181526004602052604090205460ff1615620003355760405162461bcd60e51b815260206004820152601660248201527f43757272656e637920616c72656164792061646465640000000000000000000060448201526064016200015e565b6003805460018082019092557fc2575a0e9e593c00f959f8c92f12db2869c3395a3b0502d05e2516446f71f85b01829055600082815260046020908152604091829020805460ff1916909317909255518281527f15e2bb2d9733845f72b6cc683c4d7bafd2d79cfd5c160cb1be756b6faa97dbdc910160405180910390a150565b6000546001600160a01b03163314620004125760405162461bcd60e51b815260206004820181905260248201527f4f776e61626c653a2063616c6c6572206973206e6f7420746865206f776e657260448201526064016200015e565b565b6001600160a01b03811681146200042a57600080fd5b50565b634e487b7160e01b600052604160045260246000fd5b604051601f8201601f191681016001600160401b03811182821017156200046e576200046e6200042d565b604052919050565b60006001600160401b038211156200049257620004926200042d565b5060051b60200190565b60005b83811015620004b95781810151838201526020016200049f565b50506000910152565b6000601f8381840112620004d557600080fd5b82516020620004ee620004e88362000476565b62000443565b82815260059290921b850181019181810190878411156200050e57600080fd5b8287015b84811015620005b05780516001600160401b0380821115620005345760008081fd5b818a0191508a603f8301126200054a5760008081fd5b858201516040828211156200056357620005636200042d565b62000576828b01601f1916890162000443565b92508183528c818386010111156200058e5760008081fd5b6200059f828985018387016200049c565b505084525091830191830162000512565b50979650505050505050565b600080600080600060a08688031215620005d557600080fd5b8551620005e28162000414565b80955050602080870151620005f78162000414565b6040880151606089015191965094506001600160401b03808211156200061c57600080fd5b818901915089601f8301126200063157600080fd5b815162000642620004e88262000476565b81815260059190911b8301840190848101908c8311156200066257600080fd5b938501935b82851015620006825784518252938501939085019062000667565b60808c015190975094505050808311156200069c57600080fd5b5050620006ac88828901620004c2565b9150509295509295909350565b634e487b7160e01b600052603260045260246000fd5b600060018201620006f057634e487b7160e01b600052601160045260246000fd5b5060010190565b600082516200070b8184602087016200049c565b9190910192915050565b600181811c908216806200072a57607f821691505b6020821081036200074b57634e487b7160e01b600052602260045260246000fd5b50919050565b601f8211156200079f57600081815260208120601f850160051c810160208610156200077a5750805b601f850160051c820191505b818110156200079b5782815560010162000786565b5050505b505050565b81516001600160401b03811115620007c057620007c06200042d565b620007d881620007d1845462000715565b8462000751565b602080601f831160018114620008105760008415620007f75750858301515b600019600386901b1c1916600185901b1785556200079b565b600085815260208120601f198616915b82811015620008415788860151825594840194600190910190840162000820565b5085821015620008605787850151600019600388901b60f8161c191681555b5050505050600190811b01905550565b6020815260008251806020840152620008918160408501602087016200049c565b601f01601f19169190910160400192915050565b60805161482a620008c86000396000818161029f01526105e3015261482a6000f3fe608060405234801561001057600080fd5b50600436106101165760003560e01c8063b2a3fda4116100a2578063dbac582111610071578063dbac582114610283578063e2fdcc171461029a578063efd4ad5a146102c1578063f2fde38b146102d4578063fa93cd38146102e757600080fd5b8063b2a3fda414610235578063b870676c14610248578063bd6e77411461025b578063c2107e731461026e57600080fd5b806361c661de116100e957806361c661de146101b657806369037180146101cb578063715018a6146101de57806384c7b439146101e65780638da5cb5b1461021057600080fd5b80631cba9bed1461011b5780632ca6927d146101305780633e1d0edc1461017357806357c6e12a14610196575b600080fd5b61012e6101293660046139f4565b6102fa565b005b61015e61013e3660046139f4565b805160208183018101805160058252928201919093012091525460ff1681565b60405190151581526020015b60405180910390f35b61015e610181366004613a28565b60046020526000908152604090205460ff1681565b6101a96101a4366004613a28565b6103e2565b60405161016a9190613a91565b6101be61048e565b60405161016a9190613aa4565b61012e6101d9366004613a28565b6104e6565b61012e6105c1565b6101f96101f4366004613ae8565b6105d5565b60408051921515835260208301919091520161016a565b6000546001600160a01b03165b6040516001600160a01b03909116815260200161016a565b61012e610243366004613a28565b6106da565b60015461021d906001600160a01b031681565b61012e6102693660046139f4565b610717565b61027661082d565b60405161016a9190613b2a565b61028c60025481565b60405190815260200161016a565b61021d7f000000000000000000000000000000000000000000000000000000000000000081565b61012e6102cf366004613a28565b610906565b61012e6102e2366004613ba3565b6109b4565b61015e6102f5366004613eb1565b610a2d565b610302610ded565b6005816040516103129190613f1d565b9081526040519081900360200190205460ff166103765760405162461bcd60e51b815260206004820152601760248201527f50726f76696465722068617368206e6f7420666f756e6400000000000000000060448201526064015b60405180910390fd5b6005816040516103869190613f1d565b908152604051908190036020019020805460ff191690556103a8600682610e47565b7f6f594b4b4f0580c66aabba75218163a99fa1fe330a171cc9e2bfd8e167db22f8816040516103d79190613a91565b60405180910390a150565b600681815481106103f257600080fd5b90600052602060002001600091509050805461040d90613f39565b80601f016020809104026020016040519081016040528092919081815260200182805461043990613f39565b80156104865780601f1061045b57610100808354040283529160200191610486565b820191906000526020600020905b81548152906001019060200180831161046957829003601f168201915b505050505081565b606060038054806020026020016040519081016040528092919081815260200182805480156104dc57602002820191906000526020600020905b8154815260200190600101908083116104c8575b5050505050905090565b6104ee610ded565b60008181526004602052604090205460ff16156105465760405162461bcd60e51b815260206004820152601660248201527510dd5c9c995b98de48185b1c9958591e48185919195960521b604482015260640161036d565b6003805460018082019092557fc2575a0e9e593c00f959f8c92f12db2869c3395a3b0502d05e2516446f71f85b01829055600082815260046020908152604091829020805460ff1916909317909255518281527f15e2bb2d9733845f72b6cc683c4d7bafd2d79cfd5c160cb1be756b6faa97dbdc91016103d7565b6105c9610ded565b6105d36000611001565b565b600080336001600160a01b037f000000000000000000000000000000000000000000000000000000000000000016146106475760405162461bcd60e51b815260206004820152601460248201527313db9b1e48195cd8dc9bddc818d85b8818d85b1b60621b604482015260640161036d565b6000806106696106578680613f73565b61066460e0890189613f73565b611051565b91509150610681828661067b90613fb9565b83611124565b600082604001516040516020016106989190613f1d565b6040516020818303038152906040528051906020012090506106b981611396565b60808301516000906106cb90826114b1565b60019890975095505050505050565b6106e2610ded565b60028190556040518181527f11e8dda5412ecab251b7783921be2eb37fdf13b389fc7f671f2cee11a1dfefea906020016103d7565b61071f610ded565b60058160405161072f9190613f1d565b9081526040519081900360200190205460ff161561078f5760405162461bcd60e51b815260206004820152601b60248201527f50726f7669646572206861736820616c72656164792061646465640000000000604482015260640161036d565b60016005826040516107a19190613f1d565b908152604051908190036020019020805491151560ff19909216919091179055600680546001810182556000919091527ff652222313e28459528d920b65115c16c04f3efc82aaedc97be59f3f377c0d3f016107fd82826140d3565b507fc9e1c78701d1853eeb1eb35ad3449e4b336281f672d5837243d21239dc6f4096816040516103d79190613a91565b60606006805480602002602001604051908101604052809291908181526020016000905b828210156108fd57838290600052602060002001805461087090613f39565b80601f016020809104026020016040519081016040528092919081815260200182805461089c90613f39565b80156108e95780601f106108be576101008083540402835291602001916108e9565b820191906000526020600020905b8154815290600101906020018083116108cc57829003601f168201915b505050505081526020019060010190610851565b50505050905090565b61090e610ded565b60008181526004602052604090205460ff166109615760405162461bcd60e51b815260206004820152601260248201527110dd5c9c995b98de481b9bdd08185919195960721b604482015260640161036d565b61096c6003826114cb565b60008181526004602052604090819020805460ff19169055517fa3c6a408fb053e3ef5e9bcd22e3574324a5ae99fad263cc4080da481842d3d4c906103d79083815260200190565b6109bc610ded565b6001600160a01b038116610a215760405162461bcd60e51b815260206004820152602660248201527f4f776e61626c653a206e6577206f776e657220697320746865207a65726f206160448201526564647265737360d01b606482015260840161036d565b610a2a81611001565b50565b6000808211610a905760405162461bcd60e51b815260206004820152602960248201527f5265717569726564207468726573686f6c64206d75737420626520677265617460448201526806572207468616e20360bc1b606482015260840161036d565b8251821115610b155760405162461bcd60e51b8152602060048201526044602482018190527f5265717569726564207468726573686f6c64206d757374206265206c65737320908201527f7468616e206f7220657175616c20746f206e756d626572206f66207769746e656064820152637373657360e01b608482015260a40161036d565b60008460200151602001515111610b5e5760405162461bcd60e51b815260206004820152600d60248201526c4e6f207369676e61747572657360981b604482015260640161036d565b604080518082019091526020808601805151835251810151908201528451600090610b88906115f3565b602087015151519091508114610be05760405162461bcd60e51b815260206004820152601c60248201527f436c61696d496e666f206861736820646f65736e2774206d6174636800000000604482015260640161036d565b80610c265760405162461bcd60e51b8152602060048201526016602482015275436c61696d496e666f2068617368206973207a65726f60501b604482015260640161036d565b6000610c3183611636565b90508481511015610c955760405162461bcd60e51b815260206004820152602860248201527f4665776572207369676e617475726573207468616e20726571756972656420746044820152671a1c995cda1bdb1960c21b606482015260840161036d565b600081516001600160401b03811115610cb057610cb06138d2565b604051908082528060200260200182016040528015610cd9578160200160208202803683370190505b5090506000805b8351811015610d81576000848281518110610cfd57610cfd614192565b60200260200101519050610d1a818561170f90919063ffffffff16565b15610d255750610d6f565b610d2f8a8261170f565b15610d6d5780848481518110610d4757610d47614192565b6001600160a01b039092166020928302919091019091015282610d69816141be565b9350505b505b80610d79816141be565b915050610ce0565b5086811015610dde5760405162461bcd60e51b815260206004820152602360248201527f4e6f7420656e6f7567682076616c6964207769746e657373207369676e61747560448201526272657360e81b606482015260840161036d565b50600198975050505050505050565b6000546001600160a01b031633146105d35760405162461bcd60e51b815260206004820181905260248201527f4f776e61626c653a2063616c6c6572206973206e6f7420746865206f776e6572604482015260640161036d565b600080610f2484805480602002602001604051908101604052809291908181526020016000905b82821015610f1a578382906000526020600020018054610e8d90613f39565b80601f0160208091040260200160405190810160405280929190818152602001828054610eb990613f39565b8015610f065780601f10610edb57610100808354040283529160200191610f06565b820191906000526020600020905b815481529060010190602001808311610ee957829003601f168201915b505050505081526020019060010190610e6e565b5050505084611725565b9150915080610f6c5760405162461bcd60e51b815260206004820152601460248201527329ba3934b733903737ba1034b71030b93930bc9760611b604482015260640161036d565b8354600090610f7d906001906141d7565b9050808314610fcc57848181548110610f9857610f98614192565b90600052602060002001858481548110610fb457610fb4614192565b906000526020600020019081610fca91906141ea565b505b84805480610fdc57610fdc6142bc565b600190038181906000526020600020016000610ff89190613858565b90555050505050565b600080546001600160a01b038381166001600160a01b0319831681178455604051919092169283917f8be0079c531659141344cd1fd0a4f28419497f9722a3daafe3b4186f6b6457e09190a35050565b61108a6040518060c001604052806060815260200160608152602001606081526020016060815260200160608152602001606081525090565b600080611099868801886142d2565b905060006110a78686611796565b90506110b582826001610a2d565b506110bf826117a4565b93506110ce8460a001516118c7565b6111125760405162461bcd60e51b815260206004820152601560248201527409cde40ecc2d8d2c840e0e4deecd2c8cae490c2e6d605b1b604482015260640161036d565b81604001519250505094509492505050565b6000670de0b6b3a76400008360c0015184604001516111439190614306565b61114d9190614333565b9050600083602001516001600160a01b031663313ce5676040518163ffffffff1660e01b8152600401602060405180830381865afa158015611193573d6000803e3d6000fd5b505050506040513d601f19601f820116820180604052508101906111b79190614347565b85519091506000906111cc9060ff84166114b1565b90508281101561121e5760405162461bcd60e51b815260206004820152601860248201527f496e636f7272656374207061796d656e7420616d6f756e740000000000000000604482015260640161036d565b83156112bc576000866060015160405160200161123b9190613f1d565b60405160208183030381529060405280519060200120905061126a8660800151611264836118f2565b90611ab7565b6112b65760405162461bcd60e51b815260206004820152601b60248201527f496e636f7272656374207061796d656e7420726563697069656e740000000000604482015260640161036d565b5061131b565b608085015160608701516112cf91611ab7565b61131b5760405162461bcd60e51b815260206004820152601b60248201527f496e636f7272656374207061796d656e7420726563697069656e740000000000604482015260640161036d565b600060025461132d8860200151611b10565b611337919061436a565b9050856060015181101561138d5760405162461bcd60e51b815260206004820152601b60248201527f496e636f7272656374207061796d656e742074696d657374616d700000000000604482015260640161036d565b50505050505050565b60015460405163169394bb60e01b8152600481018390526001600160a01b039091169063169394bb90602401602060405180830381865afa1580156113df573d6000803e3d6000fd5b505050506040513d601f19601f82011682018060405250810190611403919061437d565b156114505760405162461bcd60e51b815260206004820152601f60248201527f4e756c6c69666965722068617320616c7265616479206265656e207573656400604482015260640161036d565b600154604051632dea6f9960e11b8152600481018390526001600160a01b0390911690635bd4df3290602401600060405180830381600087803b15801561149657600080fd5b505af11580156114aa573d6000803e3d6000fd5b5050505050565b60006114c283601760f91b84611ccc565b90505b92915050565b6000806115278480548060200260200160405190810160405280929190818152602001828054801561151c57602002820191906000526020600020905b815481526020019060010190808311611508575b505050505084611ea9565b91509150806115705760405162461bcd60e51b8152602060048201526015602482015274313cba32b99999103737ba1034b71030b93930bc9760591b604482015260640161036d565b8354600090611581906001906141d7565b90508083146115c65784818154811061159c5761159c614192565b90600052602060002001548584815481106115b9576115b9614192565b6000918252602090912001555b848054806115d6576115d66142bc565b600190038181906000526020600020016000905590555050505050565b6000808260000151836020015184604001516040516020016116179392919061439a565b60408051601f1981840301815291905280516020909101209392505050565b606060006116478360000151611ef9565b905060008360200151516001600160401b03811115611668576116686138d2565b604051908082528060200260200182016040528015611691578160200160208202803683370190505b50905060005b846020015151811015611707576116cb83866020015183815181106116be576116be614192565b6020026020010151611f85565b8282815181106116dd576116dd614192565b6001600160a01b0390921660209283029190910190910152806116ff816141be565b915050611697565b509392505050565b60008061171c8484611fce565b95945050505050565b81516000908190815b8181101561178357848051906020012086828151811061175057611750614192565b602002602001015180519060200120036117715792506001915061178f9050565b8061177b816141be565b91505061172e565b50600019600092509250505b9250929050565b60606114c2828401846143f5565b6117dd6040518060c001604052806060815260200160608152602001606081526020016060815260200160608152602001606081525090565b60006117f483600001516040015160086001612030565b90506040518060c001604052808260038151811061181457611814614192565b602002602001015181526020018260048151811061183457611834614192565b602002602001015181526020018260058151811061185457611854614192565b602002602001015181526020018260068151811061187457611874614192565b602002602001015181526020018260018151811061189457611894614192565b60200260200101518152602001826007815181106118b4576118b4614192565b6020026020010151815250915050919050565b60006005826040516118d99190613f1d565b9081526040519081900360200190205460ff1692915050565b604080518082018252601081526f181899199a1a9b1b9c1cb0b131b232b360811b6020820152815160428082526080820190935260609260009190602082018180368337019050509050600360fc1b8160008151811061195457611954614192565b60200101906001600160f81b031916908160001a905350600f60fb1b8160018151811061198357611983614192565b60200101906001600160f81b031916908160001a90535060005b6020811015611707578260048683602081106119bb576119bb614192565b1a60f81b6001600160f81b031916901c60f81c60ff16815181106119e1576119e1614192565b01602001516001600160f81b031916826119fc836002614306565b611a0790600261436a565b81518110611a1757611a17614192565b60200101906001600160f81b031916908160001a90535082858260208110611a4157611a41614192565b825191901a600f16908110611a5857611a58614192565b01602001516001600160f81b03191682611a73836002614306565b611a7e90600361436a565b81518110611a8e57611a8e614192565b60200101906001600160f81b031916908160001a90535080611aaf816141be565b91505061199d565b600081604051602001611aca9190613f1d565b6040516020818303038152906040528051906020012083604051602001611af19190613f1d565b6040516020818303038152906040528051906020012014905092915050565b6000611b1a613892565b60008060005b8551811015611c0357858181518110611b3b57611b3b614192565b6020910101516001600160f81b031916602d60f81b1480611b805750858181518110611b6957611b69614192565b6020910101516001600160f81b031916601d60f91b145b80611baf5750858181518110611b9857611b98614192565b6020910101516001600160f81b031916601560fa1b145b15611bf157611bbf868383612f01565b848460068110611bd157611bd1614192565b6020020152611be181600161436a565b915082611bed816141be565b9350505b80611bfb816141be565b915050611b20565b508451611c139086908390612f01565b838360068110611c2557611c25614192565b602002015260058214611c705760405162461bcd60e51b8152602060048201526013602482015272496e76616c6964206461746520737472696e6760681b604482015260640161036d565b61171c611c86600085815b6020020151906114b1565b611c936000866001611c7b565b611ca06000876002611c7b565b611cad6000886003611c7b565b611cba6000896004611c7b565b611cc760008a6005611c7b565b612fcd565b600083818080805b8451811015611e2257603060f81b858281518110611cf457611cf4614192565b01602001516001600160f81b03191610801590611d355750603960f81b858281518110611d2357611d23614192565b01602001516001600160f81b03191611155b15611d78576030858281518110611d4e57611d4e614192565b0160200151611d60919060f81c6141d7565b611d6b85600a614306565b611d75919061436a565b93505b8115611d8c5782611d88816141be565b9350505b876001600160f81b031916858281518110611da957611da9614192565b01602001516001600160f81b03191603611e10578115611e0b5760405162461bcd60e51b815260206004820152601c60248201527f537472696e6720686173206d756c7469706c6520646563696d616c7300000000604482015260640161036d565b600191505b80611e1a816141be565b915050611cd4565b5085821115611e7e5760405162461bcd60e51b815260206004820152602260248201527f537472696e672068617320746f6f206d616e7920646563696d616c20706c6163604482015261657360f01b606482015260840161036d565b611e8882876141d7565b611e9390600a61450d565b611e9d9084614306565b98975050505050505050565b81516000908190815b818110156117835784868281518110611ecd57611ecd614192565b602002602001015103611ee75792506001915061178f9050565b80611ef1816141be565b915050611eb2565b6060611f298260000151604051602001611f1591815260200190565b604051602081830303815290604052613029565b611f3683602001516131ec565b611f49846040015163ffffffff16613355565b611f5c856060015163ffffffff16613355565b604051602001611f6f9493929190614519565b6040516020818303038152906040529050919050565b600080611f928451613355565b84604051602001611fa4929190614592565b604051602081830303815290604052805190602001209050611fc68184613480565b949350505050565b81516000908190815b8181101561178357846001600160a01b0316868281518110611ffb57611ffb614192565b60200260200101516001600160a01b03160361201e5792506001915061178f9050565b80612028816141be565b915050611fd7565b606060008360ff161161208f5760405162461bcd60e51b815260206004820152602160248201527f4d61782076616c756573206d7573742062652067726561746572207468616e206044820152600360fc1b606482015260840161036d565b83600080808080806120a28a60026145ed565b60ff166001600160401b038111156120bc576120bc6138d2565b6040519080825280602002602001820160405280156120e5578160200160208202803683370190505b50905060005b604051806040016040528060138152602001723d9131b7b73a32bc3a20b2323932b9b9911d1160691b815250518110156121c457604051806040016040528060138152602001723d9131b7b73a32bc3a20b2323932b9b9911d1160691b815250818151811061215c5761215c614192565b01602001516001600160f81b03191688612176838a61436a565b8151811061218657612186614192565b01602001516001600160f81b031916146121b25760405162461bcd60e51b815260040161036d90614610565b806121bc816141be565b9150506120eb565b50604051806040016040528060138152602001723d9131b7b73a32bc3a20b2323932b9b9911d1160691b81525051866121fd919061436a565b95508593505b865186108015612273575086868151811061222057612220614192565b6020910101516001600160f81b031916601160f91b1480156122715750866122496001886141d7565b8151811061225957612259614192565b6020910101516001600160f81b031916601760fa1b14155b155b1561228a5785612282816141be565b965050612203565b865186106122aa5760405162461bcd60e51b815260040161036d90614610565b8592508383036123125760405162461bcd60e51b815260206004820152602d60248201527f45787472616374696f6e206661696c65642e20456d70747920636f6e7465787460448201526c416464726573732076616c756560981b606482015260840161036d565b838161231f876002614306565b8151811061232f5761232f614192565b60209081029190910101528281612347876002614306565b61235290600161436a565b8151811061236257612362614192565b602090810291909101015284612377816141be565b9550612386905060028761436a565b955060005b604051806040016040528060128152602001711131b7b73a32bc3a26b2b9b9b0b3b2911d1160711b8152505181101561246257604051806040016040528060128152602001711131b7b73a32bc3a26b2b9b9b0b3b2911d1160711b81525081815181106123fa576123fa614192565b01602001516001600160f81b03191688612414838a61436a565b8151811061242457612424614192565b01602001516001600160f81b031916146124505760405162461bcd60e51b815260040161036d9061465b565b8061245a816141be565b91505061238b565b50604051806040016040528060128152602001711131b7b73a32bc3a26b2b9b9b0b3b2911d1160711b815250518661249a919061436a565b95508593505b86518610801561251057508686815181106124bd576124bd614192565b6020910101516001600160f81b031916601160f91b14801561250e5750866124e66001886141d7565b815181106124f6576124f6614192565b6020910101516001600160f81b031916601760fa1b14155b155b15612527578561251f816141be565b9650506124a0565b865186106125475760405162461bcd60e51b815260040161036d9061465b565b8592508383036125af5760405162461bcd60e51b815260206004820152602d60248201527f45787472616374696f6e206661696c65642e20456d70747920636f6e7465787460448201526c4d6573736167652076616c756560981b606482015260840161036d565b83816125bc876002614306565b815181106125cc576125cc614192565b602090810291909101015282816125e4876002614306565b6125ef90600161436a565b815181106125ff576125ff614192565b602090810291909101015284612614816141be565b9550612623905060028761436a565b955060005b604051806040016040528060188152602001771132bc3a3930b1ba32b22830b930b6b2ba32b939911d3d9160411b8152505181101561275457604051806040016040528060188152602001771132bc3a3930b1ba32b22830b930b6b2ba32b939911d3d9160411b81525081815181106126a3576126a3614192565b01602001516001600160f81b031916886126bd838a61436a565b815181106126cd576126cd614192565b01602001516001600160f81b031916146127425760405162461bcd60e51b815260206004820152603060248201527f45787472616374696f6e206661696c65642e204d616c666f726d65642065787460448201526f726163746564506172616d657465727360801b606482015260840161036d565b8061274c816141be565b915050612628565b50604051806040016040528060188152602001771132bc3a3930b1ba32b22830b930b6b2ba32b939911d3d9160411b8152505186612792919061436a565b9550600091505b8651861015612b3c578686815181106127b4576127b4614192565b6020910101516001600160f81b031916601160f91b1480156128055750866127dd6001886141d7565b815181106127ed576127ed614192565b6020910101516001600160f81b031916601760fa1b14155b61281b5785612813816141be565b965050612799565b81612923578661282c87600161436a565b8151811061283c5761283c614192565b6020910101516001600160f81b031916601d60f91b14801561288c57508661286587600261436a565b8151811061287557612875614192565b6020910101516001600160f81b031916601160f91b145b6128e45760405162461bcd60e51b815260206004820152602360248201527f45787472616374696f6e206661696c65642e204d616c666f726d65642064617460448201526261203160e81b606482015260840161036d565b6128ef60038761436a565b9550600191508581612902876002614306565b8151811061291257612912614192565b602002602001018181525050612799565b60008761293188600161436a565b8151811061294157612941614192565b6020910101516001600160f81b031916600b60fa1b14801561299157508761296a88600261436a565b8151811061297a5761297a614192565b6020910101516001600160f81b031916601160f91b145b90506000886129a189600161436a565b815181106129b1576129b1614192565b6020910101516001600160f81b031916607d60f81b148015612a015750886129da89600261436a565b815181106129ea576129ea614192565b6020910101516001600160f81b031916600b60fa1b145b90508180612a0c5750805b612a645760405162461bcd60e51b815260206004820152602360248201527f45787472616374696f6e206661696c65642e204d616c666f726d65642064617460448201526230901960e91b606482015260840161036d565b8783612a71896002614306565b612a7c90600161436a565b81518110612a8c57612a8c614192565b602090810291909101015286612aa1816141be565b9750508115612b21578b60ff168703612b0b5760405162461bcd60e51b815260206004820152602660248201527f45787472616374696f6e206661696c65642e204578636565646564206d61782060448201526576616c75657360d01b606482015260840161036d565b612b1660038961436a565b975060009350612b35565b612b2c60038961436a565b97505050612b3c565b5050612799565b8815612d495760005b6040518060400160405280601081526020016f11383937bb34b232b92430b9b4111d1160811b81525051811015612c5a576040518060400160405280601081526020016f11383937bb34b232b92430b9b4111d1160811b8152508181518110612bb057612bb0614192565b01602001516001600160f81b03191688612bca838a61436a565b81518110612bda57612bda614192565b01602001516001600160f81b03191614612c485760405162461bcd60e51b815260206004820152602960248201527f45787472616374696f6e206661696c65642e204d616c666f726d65642070726f6044820152680ecd2c8cae490c2e6d60bb1b606482015260840161036d565b80612c52816141be565b915050612b45565b506040518060400160405280601081526020016f11383937bb34b232b92430b9b4111d1160811b8152505186612c90919061436a565b95508581612c9f876002614306565b81518110612caf57612caf614192565b6020026020010181815250505b865186108015612cf15750868681518110612cd957612cd9614192565b6020910101516001600160f81b031916601160f91b14155b15612d085785612d00816141be565b965050612cbc565b8581612d15876002614306565b612d2090600161436a565b81518110612d3057612d30614192565b602090810291909101015284612d45816141be565b9550505b6000856001600160401b03811115612d6357612d636138d2565b604051908082528060200260200182016040528015612d9657816020015b6060815260200190600190039081612d815790505b50905060005b86811015612ef15782612db0826002614306565b81518110612dc057612dc0614192565b6020026020010151955082816002612dd89190614306565b612de390600161436a565b81518110612df357612df3614192565b6020026020010151945060008686612e0b91906141d7565b6001600160401b03811115612e2257612e226138d2565b6040519080825280601f01601f191660200182016040528015612e4c576020820181803683370190505b509050865b86811015612ebe578a8181518110612e6b57612e6b614192565b01602001516001600160f81b03191682612e858a846141d7565b81518110612e9557612e95614192565b60200101906001600160f81b031916908160001a90535080612eb6816141be565b915050612e51565b5080838381518110612ed257612ed2614192565b6020026020010181905250508080612ee9906141be565b915050612d9c565b509b9a5050505050505050505050565b6060836000612f1085856141d7565b6001600160401b03811115612f2757612f276138d2565b6040519080825280601f01601f191660200182016040528015612f51576020820181803683370190505b509050845b84811015612fc357828181518110612f7057612f70614192565b01602001516001600160f81b03191682612f8a88846141d7565b81518110612f9a57612f9a614192565b60200101906001600160f81b031916908160001a90535080612fbb816141be565b915050612f56565b5095945050505050565b600081612fdb603c85614306565b612fe7610e1087614306565b62015180612ff68b8b8b61349c565b6130009190614306565b61300a919061436a565b613014919061436a565b61301e919061436a565b979650505050505050565b606060008251600261303b9190614306565b6001600160401b03811115613052576130526138d2565b6040519080825280601f01601f19166020018201604052801561307c576020820181803683370190505b5060408051808201909152601081526f181899199a1a9b1b9c1cb0b131b232b360811b602082015290915060005b84518110156131c2578182518683815181106130c8576130c8614192565b01602001516130da919060f81c614333565b815181106130ea576130ea614192565b01602001516001600160f81b03191683613105836002614306565b8151811061311557613115614192565b60200101906001600160f81b031916908160001a90535081825186838151811061314157613141614192565b0160200151613153919060f81c6146a6565b8151811061316357613163614192565b01602001516001600160f81b0319168361317e836002614306565b61318990600161436a565b8151811061319957613199614192565b60200101906001600160f81b031916908160001a905350806131ba816141be565b9150506130aa565b50816040516020016131d491906146ba565b60405160208183030381529060405292505050919050565b60408051602880825260608281019093526000919060208201818036833701905050905060005b601481101561332c5760006132298260136141d7565b613234906008614306565b61323f90600261450d565b613252906001600160a01b038716614333565b60f81b9050600060108260f81c61326991906146e4565b60f81b905060008160f81c601061328091906145ed565b8360f81c61328e9190614706565b60f81b905061329c826135cd565b856132a8866002614306565b815181106132b8576132b8614192565b60200101906001600160f81b031916908160001a9053506132d8816135cd565b856132e4866002614306565b6132ef90600161436a565b815181106132ff576132ff614192565b60200101906001600160f81b031916908160001a9053505050508080613324906141be565b915050613213565b508060405160200161333e91906146ba565b604051602081830303815290604052915050919050565b60608160000361337c5750506040805180820190915260018152600360fc1b602082015290565b8160005b81156133a65780613390816141be565b915061339f9050600a83614333565b9150613380565b6000816001600160401b038111156133c0576133c06138d2565b6040519080825280601f01601f1916602001820160405280156133ea576020820181803683370190505b509050815b8515613477576134006001826141d7565b9050600061340f600a88614333565b61341a90600a614306565b61342490886141d7565b61342f90603061471f565b905060008160f81b90508084848151811061344c5761344c614192565b60200101906001600160f81b031916908160001a90535061346e600a89614333565b975050506133ef565b50949350505050565b600080600061348f8585613608565b915091506117078161364a565b60006107b28410156134ad57600080fd5b838383600062253d8c60046064600c6134c7600e88614738565b6134d19190614758565b6134dd88611324614786565b6134e79190614786565b6134f19190614758565b6134fc9060036147ae565b6135069190614758565b600c80613514600e88614738565b61351e9190614758565b61352990600c6147ae565b613534600288614738565b61353e9190614738565b61354a9061016f6147ae565b6135549190614758565b6004600c613563600e89614738565b61356d9190614758565b613579896112c0614786565b6135839190614786565b61358f906105b56147ae565b6135999190614758565b6135a5617d4b87614738565b6135af9190614786565b6135b99190614786565b6135c39190614738565b611e9d9190614738565b6000600a60f883901c10156135f4576135eb60f883901c603061471f565b60f81b92915050565b6135eb60f883901c605761471f565b919050565b600080825160410361363e5760208301516040840151606085015160001a61363287828585613794565b9450945050505061178f565b5060009050600261178f565b600081600481111561365e5761365e6147de565b036136665750565b600181600481111561367a5761367a6147de565b036136c75760405162461bcd60e51b815260206004820152601860248201527f45434453413a20696e76616c6964207369676e61747572650000000000000000604482015260640161036d565b60028160048111156136db576136db6147de565b036137285760405162461bcd60e51b815260206004820152601f60248201527f45434453413a20696e76616c6964207369676e6174757265206c656e67746800604482015260640161036d565b600381600481111561373c5761373c6147de565b03610a2a5760405162461bcd60e51b815260206004820152602260248201527f45434453413a20696e76616c6964207369676e6174757265202773272076616c604482015261756560f01b606482015260840161036d565b6000807f7fffffffffffffffffffffffffffffff5d576e7357a4501ddfe92f46681b20a08311156137cb575060009050600361384f565b6040805160008082526020820180845289905260ff881692820192909252606081018690526080810185905260019060a0016020604051602081039080840390855afa15801561381f573d6000803e3d6000fd5b5050604051601f1901519150506001600160a01b0381166138485760006001925092505061384f565b9150600090505b94509492505050565b50805461386490613f39565b6000825580601f10613874575050565b601f016020900490600052602060002090810190610a2a91906138b9565b6040518060c001604052806006905b60608152602001906001900390816138a15790505090565b5b808211156138ce57600081556001016138ba565b5090565b634e487b7160e01b600052604160045260246000fd5b604051608081016001600160401b038111828210171561390a5761390a6138d2565b60405290565b604051606081016001600160401b038111828210171561390a5761390a6138d2565b60405161010081016001600160401b038111828210171561390a5761390a6138d2565b604051601f8201601f191681016001600160401b038111828210171561397d5761397d6138d2565b604052919050565b600082601f83011261399657600080fd5b81356001600160401b038111156139af576139af6138d2565b6139c2601f8201601f1916602001613955565b8181528460208386010111156139d757600080fd5b816020850160208301376000918101602001919091529392505050565b600060208284031215613a0657600080fd5b81356001600160401b03811115613a1c57600080fd5b611fc684828501613985565b600060208284031215613a3a57600080fd5b5035919050565b60005b83811015613a5c578181015183820152602001613a44565b50506000910152565b60008151808452613a7d816020860160208601613a41565b601f01601f19169290920160200192915050565b6020815260006114c26020830184613a65565b6020808252825182820181905260009190848201906040850190845b81811015613adc57835183529284019291840191600101613ac0565b50909695505050505050565b600060208284031215613afa57600080fd5b81356001600160401b03811115613b1057600080fd5b82016101008185031215613b2357600080fd5b9392505050565b6000602080830181845280855180835260408601915060408160051b870101925083870160005b82811015613b7f57603f19888603018452613b6d858351613a65565b94509285019290850190600101613b51565b5092979650505050505050565b80356001600160a01b038116811461360357600080fd5b600060208284031215613bb557600080fd5b6114c282613b8c565b803563ffffffff8116811461360357600080fd5b60006001600160401b03821115613beb57613beb6138d2565b5060051b60200190565b600082601f830112613c0657600080fd5b81356020613c1b613c1683613bd2565b613955565b82815260059290921b84018101918181019086841115613c3a57600080fd5b8286015b84811015613c795780356001600160401b03811115613c5d5760008081fd5b613c6b8986838b0101613985565b845250918301918301613c3e565b509695505050505050565b600081830360a0811215613c9757600080fd5b604051604081016001600160401b038282108183111715613cba57613cba6138d2565b816040528294506080841215613ccf57600080fd5b613cd76138e8565b935085358452613ce960208701613b8c565b6020850152613cfa60408701613bbe565b6040850152613d0b60608701613bbe565b606085015292825260808501359280841115613d2657600080fd5b5050613d3485838601613bf5565b6020820152505092915050565b8015158114610a2a57600080fd5b803561360381613d41565b600060608284031215613d6c57600080fd5b613d74613910565b905081356001600160401b0380821115613d8d57600080fd5b9083019060608286031215613da157600080fd5b613da9613910565b823582811115613db857600080fd5b613dc487828601613985565b825250602083013582811115613dd957600080fd5b613de587828601613985565b602083015250604083013582811115613dfd57600080fd5b613e0987828601613985565b60408301525083526020840135915080821115613e2557600080fd5b50613e3284828501613c84565b602083015250613e4460408301613d4f565b604082015292915050565b600082601f830112613e6057600080fd5b81356020613e70613c1683613bd2565b82815260059290921b84018101918181019086841115613e8f57600080fd5b8286015b84811015613c7957613ea481613b8c565b8352918301918301613e93565b600080600060608486031215613ec657600080fd5b83356001600160401b0380821115613edd57600080fd5b613ee987838801613d5a565b94506020860135915080821115613eff57600080fd5b50613f0c86828701613e4f565b925050604084013590509250925092565b60008251613f2f818460208701613a41565b9190910192915050565b600181811c90821680613f4d57607f821691505b602082108103613f6d57634e487b7160e01b600052602260045260246000fd5b50919050565b6000808335601e19843603018112613f8a57600080fd5b8301803591506001600160401b03821115613fa457600080fd5b60200191503681900382131561178f57600080fd5b60006101008236031215613fcc57600080fd5b613fd4613932565b82356001600160401b0380821115613feb57600080fd5b613ff736838701613985565b835261400560208601613b8c565b60208401526040850135604084015260608501356060840152608085013591508082111561403257600080fd5b61403e36838701613985565b608084015260a085013560a084015260c085013560c084015260e085013591508082111561406b57600080fd5b5061407836828601613985565b60e08301525092915050565b601f8211156140ce57600081815260208120601f850160051c810160208610156140ab5750805b601f850160051c820191505b818110156140ca578281556001016140b7565b5050505b505050565b81516001600160401b038111156140ec576140ec6138d2565b614100816140fa8454613f39565b84614084565b602080601f831160018114614135576000841561411d5750858301515b600019600386901b1c1916600185901b1785556140ca565b600085815260208120601f198616915b8281101561416457888601518255948401946001909101908401614145565b50858210156141825787850151600019600388901b60f8161c191681555b5050505050600190811b01905550565b634e487b7160e01b600052603260045260246000fd5b634e487b7160e01b600052601160045260246000fd5b6000600182016141d0576141d06141a8565b5060010190565b818103818111156114c5576114c56141a8565b8181036141f5575050565b6141ff8254613f39565b6001600160401b03811115614216576142166138d2565b614224816140fa8454613f39565b6000601f82116001811461425857600083156142405750848201545b600019600385901b1c1916600184901b1784556114aa565b600085815260209020601f19841690600086815260209020845b838110156142925782860154825560019586019590910190602001614272565b50858310156141825793015460001960f8600387901b161c19169092555050600190811b01905550565b634e487b7160e01b600052603160045260246000fd5b6000602082840312156142e457600080fd5b81356001600160401b038111156142fa57600080fd5b611fc684828501613d5a565b80820281158282048414176114c5576114c56141a8565b634e487b7160e01b600052601260045260246000fd5b6000826143425761434261431d565b500490565b60006020828403121561435957600080fd5b815160ff81168114613b2357600080fd5b808201808211156114c5576114c56141a8565b60006020828403121561438f57600080fd5b8151613b2381613d41565b600084516143ac818460208901613a41565b600560f91b90830181815285519091906143cd816001850160208a01613a41565b600192019182015283516143e8816002840160208801613a41565b0160020195945050505050565b60006020828403121561440757600080fd5b81356001600160401b0381111561441d57600080fd5b611fc684828501613e4f565b600181815b8085111561446457816000190482111561444a5761444a6141a8565b8085161561445757918102915b93841c939080029061442e565b509250929050565b60008261447b575060016114c5565b81614488575060006114c5565b816001811461449e57600281146144a8576144c4565b60019150506114c5565b60ff8411156144b9576144b96141a8565b50506001821b6114c5565b5060208310610133831016604e8410600b84101617156144e7575081810a6114c5565b6144f18383614429565b8060001904821115614505576145056141a8565b029392505050565b60006114c2838361446c565b6000855161452b818460208a01613a41565b600560f91b908301818152865190919061454c816001850160208b01613a41565b600192019182018190528551614569816002850160208a01613a41565b60029201918201528351614584816003840160208801613a41565b016003019695505050505050565b7f19457468657265756d205369676e6564204d6573736167653a0a0000000000008152600083516145ca81601a850160208801613a41565b8351908301906145e181601a840160208801613a41565b01601a01949350505050565b60ff8181168382160290811690818114614609576146096141a8565b5092915050565b6020808252602b908201527f45787472616374696f6e206661696c65642e204d616c666f726d656420636f6e60408201526a746578744164647265737360a81b606082015260800190565b6020808252602b908201527f45787472616374696f6e206661696c65642e204d616c666f726d656420636f6e60408201526a746578744d65737361676560a81b606082015260800190565b6000826146b5576146b561431d565b500690565b61060f60f31b8152600082516146d7816002850160208701613a41565b9190910160020192915050565b600060ff8316806146f7576146f761431d565b8060ff84160491505092915050565b60ff82811682821603908111156114c5576114c56141a8565b60ff81811683821601908111156114c5576114c56141a8565b8181036000831280158383131683831282161715614609576146096141a8565b6000826147675761476761431d565b600160ff1b821460001984141615614781576147816141a8565b500590565b80820182811260008312801582168215821617156147a6576147a66141a8565b505092915050565b80820260008212600160ff1b841416156147ca576147ca6141a8565b81810583148215176114c5576114c56141a8565b634e487b7160e01b600052602160045260246000fdfea2646970667358221220925e45366b7c24daac4a0b502f9080dc8dc50cb5b346c53338f71e1c99ed467764736f6c63430008120033",
  "devdoc": {
    "kind": "dev",
    "methods": {
      "addCurrency(bytes32)": {
        "params": {
          "_currencyCode": "Currency code to add"
        }
      },
      "addProviderHash(string)": {
        "params": {
          "_newProviderHash": "New provider hash to be added"
        }
      },
      "owner()": {
        "details": "Returns the address of the current owner."
      },
      "removeCurrency(bytes32)": {
        "params": {
          "_currencyCode": "Currency code to remove"
        }
      },
      "removeProviderHash(string)": {
        "params": {
          "_removeProviderHash": "Provider hash to be removed"
        }
      },
      "renounceOwnership()": {
        "details": "Leaves the contract without owner. It will not be possible to call `onlyOwner` functions. Can only be called by the current owner. NOTE: Renouncing ownership will leave the contract without an owner, thereby disabling any functionality that is only available to the owner."
      },
      "setTimestampBuffer(uint256)": {
        "params": {
          "_timestampBuffer": "The timestamp buffer for payments"
        }
      },
      "transferOwnership(address)": {
        "details": "Transfers ownership of the contract to a new account (`newOwner`). Can only be called by the current owner."
      },
      "verifyPayment((bytes,address,uint256,uint256,string,bytes32,uint256,bytes))": {
        "params": {
          "_verifyPaymentData": "Payment proof and intent details required for verification"
        }
      },
      "verifyProofSignatures(((string,string,string),((bytes32,address,uint32,uint32),bytes[]),bool),address[],uint256)": {
        "params": {
          "_requiredThreshold": "Minimum number of signatures required from accepted witnesses",
          "_witnesses": "List of accepted witnesses",
          "proof": "Proof to be verified"
        }
      }
    },
    "version": 1
  },
  "userdoc": {
    "kind": "user",
    "methods": {
      "addCurrency(bytes32)": {
        "notice": "OWNER ONLY: Adds a currency code to supported currencies"
      },
      "addProviderHash(string)": {
        "notice": "ONLY OWNER: Add provider hash string. Provider hash must not have been previously added."
      },
      "removeCurrency(bytes32)": {
        "notice": "OWNER ONLY: Removes a currency code from supported currencies"
      },
      "removeProviderHash(string)": {
        "notice": "ONLY OWNER: Remove provider hash string. Provider hash must have been previously added."
      },
      "setTimestampBuffer(uint256)": {
        "notice": "OWNER ONLY: Sets the timestamp buffer for payments. This is the amount of time in seconds that the timestamp can be off by and still be considered valid. Necessary to build in flexibility  with L2 timestamps."
      },
      "verifyPayment((bytes,address,uint256,uint256,string,bytes32,uint256,bytes))": {
        "notice": "ONLY RAMP: Verifies a reclaim proof of an offchain Venmo payment. Ensures the right _intentAmount * _conversionRate USD was paid to _payeeDetails after _intentTimestamp + timestampBuffer on Venmo. Note: For Venmo fiat currency is always USD. For other verifiers which support multiple currencies, _fiatCurrency needs to be checked against the fiat currency in the proof."
      },
      "verifyProofSignatures(((string,string,string),((bytes32,address,uint32,uint32),bytes[]),bool),address[],uint256)": {
        "notice": "Verify proof generated by witnesses. Claim is constructed by hashing claimInfo (provider, context, parameters) to get the identifier. And then signing on (identifier, owner, timestamp, epoch) to get claim signature.  This function verifies a claim by performing the following checks on the claim - Calculates the hash of the claimInfo and checks if it matches the identifier in the claim - Checks if the signatures are valid and from the witnesses This function reverts if - No signatures are found on the proof - ClaimInfo hash does not match the identifier in the claim - Signatures are invalid (not from the witnesses)  DEV NOTE: This function does NOT validate that the claim provider hash is valid. That is the  responsibility of the caller. Ensure witnesses are unique otherwise the threshold can be met  with duplicate witnesses.  Parts of the code are adapted from: https://basescan.org/address/0x7281630e4346dd4c0b7ae3b4689c1d0102741410#code    "
      }
    },
    "version": 1
  },
  "storageLayout": {
    "storage": [
      {
        "astId": 7,
        "contract": "contracts/verifiers/VenmoReclaimVerifier.sol:VenmoReclaimVerifier",
        "label": "_owner",
        "offset": 0,
        "slot": "0",
        "type": "t_address"
      },
      {
        "astId": 9426,
        "contract": "contracts/verifiers/VenmoReclaimVerifier.sol:VenmoReclaimVerifier",
        "label": "nullifierRegistry",
        "offset": 0,
        "slot": "1",
        "type": "t_contract(INullifierRegistry)11477"
      },
      {
        "astId": 9428,
        "contract": "contracts/verifiers/VenmoReclaimVerifier.sol:VenmoReclaimVerifier",
        "label": "timestampBuffer",
        "offset": 0,
        "slot": "2",
        "type": "t_uint256"
      },
      {
        "astId": 9431,
        "contract": "contracts/verifiers/VenmoReclaimVerifier.sol:VenmoReclaimVerifier",
        "label": "currencies",
        "offset": 0,
        "slot": "3",
        "type": "t_array(t_bytes32)dyn_storage"
      },
      {
        "astId": 9435,
        "contract": "contracts/verifiers/VenmoReclaimVerifier.sol:VenmoReclaimVerifier",
        "label": "isCurrency",
        "offset": 0,
        "slot": "4",
        "type": "t_mapping(t_bytes32,t_bool)"
      },
      {
        "astId": 9632,
        "contract": "contracts/verifiers/VenmoReclaimVerifier.sol:VenmoReclaimVerifier",
        "label": "isProviderHash",
        "offset": 0,
        "slot": "5",
        "type": "t_mapping(t_string_memory_ptr,t_bool)"
      },
      {
        "astId": 9635,
        "contract": "contracts/verifiers/VenmoReclaimVerifier.sol:VenmoReclaimVerifier",
        "label": "providerHashes",
        "offset": 0,
        "slot": "6",
        "type": "t_array(t_string_storage)dyn_storage"
      }
    ],
    "types": {
      "t_address": {
        "encoding": "inplace",
        "label": "address",
        "numberOfBytes": "20"
      },
      "t_array(t_bytes32)dyn_storage": {
        "base": "t_bytes32",
        "encoding": "dynamic_array",
        "label": "bytes32[]",
        "numberOfBytes": "32"
      },
      "t_array(t_string_storage)dyn_storage": {
        "base": "t_string_storage",
        "encoding": "dynamic_array",
        "label": "string[]",
        "numberOfBytes": "32"
      },
      "t_bool": {
        "encoding": "inplace",
        "label": "bool",
        "numberOfBytes": "1"
      },
      "t_bytes32": {
        "encoding": "inplace",
        "label": "bytes32",
        "numberOfBytes": "32"
      },
      "t_contract(INullifierRegistry)11477": {
        "encoding": "inplace",
        "label": "contract INullifierRegistry",
        "numberOfBytes": "20"
      },
      "t_mapping(t_bytes32,t_bool)": {
        "encoding": "mapping",
        "key": "t_bytes32",
        "label": "mapping(bytes32 => bool)",
        "numberOfBytes": "32",
        "value": "t_bool"
      },
      "t_mapping(t_string_memory_ptr,t_bool)": {
        "encoding": "mapping",
        "key": "t_string_memory_ptr",
        "label": "mapping(string => bool)",
        "numberOfBytes": "32",
        "value": "t_bool"
      },
      "t_string_memory_ptr": {
        "encoding": "bytes",
        "label": "string",
        "numberOfBytes": "32"
      },
      "t_string_storage": {
        "encoding": "bytes",
        "label": "string",
        "numberOfBytes": "32"
      },
      "t_uint256": {
        "encoding": "inplace",
        "label": "uint256",
        "numberOfBytes": "32"
      }
    }
  }
}