{
  "address": "0x809c7A20A2dbBB3210fC73Dd7C01Cd7Fa70C195F",
  "abi": [
    {
      "inputs": [
        {
          "internalType": "address",
          "name": "_baseVerifier",
          "type": "address"
        },
        {
          "internalType": "contract INullifierRegistry",
          "name": "_nullifierRegistry",
          "type": "address"
        },
        {
          "internalType": "string[]",
          "name": "_providerHashes",
          "type": "string[]"
        },
        {
          "internalType": "uint256",
          "name": "_timestampBuffer",
          "type": "uint256"
        }
      ],
      "stateMutability": "nonpayable",
      "type": "constructor"
    },
    {
      "anonymous": false,
      "inputs": [
        {
          "indexed": true,
          "internalType": "address",
          "name": "previousOwner",
          "type": "address"
        },
        {
          "indexed": true,
          "internalType": "address",
          "name": "newOwner",
          "type": "address"
        }
      ],
      "name": "OwnershipTransferred",
      "type": "event"
    },
    {
      "anonymous": false,
      "inputs": [
        {
          "indexed": false,
          "internalType": "string",
          "name": "providerHash",
          "type": "string"
        }
      ],
      "name": "ProviderHashAdded",
      "type": "event"
    },
    {
      "anonymous": false,
      "inputs": [
        {
          "indexed": false,
          "internalType": "string",
          "name": "providerHash",
          "type": "string"
        }
      ],
      "name": "ProviderHashRemoved",
      "type": "event"
    },
    {
      "anonymous": false,
      "inputs": [
        {
          "indexed": false,
          "internalType": "uint256",
          "name": "newTimestampBuffer",
          "type": "uint256"
        }
      ],
      "name": "TimestampBufferSet",
      "type": "event"
    },
    {
      "inputs": [],
      "name": "COMPLETED_STATUS",
      "outputs": [
        {
          "internalType": "bytes32",
          "name": "",
          "type": "bytes32"
        }
      ],
      "stateMutability": "view",
      "type": "function"
    },
    {
      "inputs": [
        {
          "internalType": "string",
          "name": "_newProviderHash",
          "type": "string"
        }
      ],
      "name": "addProviderHash",
      "outputs": [],
      "stateMutability": "nonpayable",
      "type": "function"
    },
    {
      "inputs": [],
      "name": "baseVerifier",
      "outputs": [
        {
          "internalType": "address",
          "name": "",
          "type": "address"
        }
      ],
      "stateMutability": "view",
      "type": "function"
    },
    {
      "inputs": [],
      "name": "getProviderHashes",
      "outputs": [
        {
          "internalType": "string[]",
          "name": "",
          "type": "string[]"
        }
      ],
      "stateMutability": "view",
      "type": "function"
    },
    {
      "inputs": [
        {
          "internalType": "string",
          "name": "",
          "type": "string"
        }
      ],
      "name": "isProviderHash",
      "outputs": [
        {
          "internalType": "bool",
          "name": "",
          "type": "bool"
        }
      ],
      "stateMutability": "view",
      "type": "function"
    },
    {
      "inputs": [],
      "name": "nullifierRegistry",
      "outputs": [
        {
          "internalType": "contract INullifierRegistry",
          "name": "",
          "type": "address"
        }
      ],
      "stateMutability": "view",
      "type": "function"
    },
    {
      "inputs": [],
      "name": "owner",
      "outputs": [
        {
          "internalType": "address",
          "name": "",
          "type": "address"
        }
      ],
      "stateMutability": "view",
      "type": "function"
    },
    {
      "inputs": [
        {
          "internalType": "uint256",
          "name": "",
          "type": "uint256"
        }
      ],
      "name": "providerHashes",
      "outputs": [
        {
          "internalType": "string",
          "name": "",
          "type": "string"
        }
      ],
      "stateMutability": "view",
      "type": "function"
    },
    {
      "inputs": [
        {
          "internalType": "string",
          "name": "_removeProviderHash",
          "type": "string"
        }
      ],
      "name": "removeProviderHash",
      "outputs": [],
      "stateMutability": "nonpayable",
      "type": "function"
    },
    {
      "inputs": [],
      "name": "renounceOwnership",
      "outputs": [],
      "stateMutability": "nonpayable",
      "type": "function"
    },
    {
      "inputs": [
        {
          "internalType": "uint256",
          "name": "_timestampBuffer",
          "type": "uint256"
        }
      ],
      "name": "setTimestampBuffer",
      "outputs": [],
      "stateMutability": "nonpayable",
      "type": "function"
    },
    {
      "inputs": [],
      "name": "timestampBuffer",
      "outputs": [
        {
          "internalType": "uint256",
          "name": "",
          "type": "uint256"
        }
      ],
      "stateMutability": "view",
      "type": "function"
    },
    {
      "inputs": [
        {
          "internalType": "address",
          "name": "newOwner",
          "type": "address"
        }
      ],
      "name": "transferOwnership",
      "outputs": [],
      "stateMutability": "nonpayable",
      "type": "function"
    },
    {
      "inputs": [
        {
          "components": [
            {
              "internalType": "bytes",
              "name": "paymentProof",
              "type": "bytes"
            },
            {
              "internalType": "address",
              "name": "depositToken",
              "type": "address"
            },
            {
              "internalType": "uint256",
              "name": "intentAmount",
              "type": "uint256"
            },
            {
              "internalType": "uint256",
              "name": "intentTimestamp",
              "type": "uint256"
            },
            {
              "internalType": "string",
              "name": "payeeDetails",
              "type": "string"
            },
            {
              "internalType": "bytes32",
              "name": "fiatCurrency",
              "type": "bytes32"
            },
            {
              "internalType": "uint256",
              "name": "conversionRate",
              "type": "uint256"
            },
            {
              "internalType": "bytes",
              "name": "data",
              "type": "bytes"
            }
          ],
          "internalType": "struct IPaymentVerifier.VerifyPaymentData",
          "name": "_verifyPaymentData",
          "type": "tuple"
        }
      ],
      "name": "verifyPayment",
      "outputs": [
        {
          "internalType": "bool",
          "name": "",
          "type": "bool"
        },
        {
          "internalType": "bytes32",
          "name": "",
          "type": "bytes32"
        }
      ],
      "stateMutability": "nonpayable",
      "type": "function"
    },
    {
      "inputs": [
        {
          "components": [
            {
              "components": [
                {
                  "internalType": "string",
                  "name": "provider",
                  "type": "string"
                },
                {
                  "internalType": "string",
                  "name": "parameters",
                  "type": "string"
                },
                {
                  "internalType": "string",
                  "name": "context",
                  "type": "string"
                }
              ],
              "internalType": "struct Claims.ClaimInfo",
              "name": "claimInfo",
              "type": "tuple"
            },
            {
              "components": [
                {
                  "components": [
                    {
                      "internalType": "bytes32",
                      "name": "identifier",
                      "type": "bytes32"
                    },
                    {
                      "internalType": "address",
                      "name": "owner",
                      "type": "address"
                    },
                    {
                      "internalType": "uint32",
                      "name": "timestampS",
                      "type": "uint32"
                    },
                    {
                      "internalType": "uint32",
                      "name": "epoch",
                      "type": "uint32"
                    }
                  ],
                  "internalType": "struct Claims.CompleteClaimData",
                  "name": "claim",
                  "type": "tuple"
                },
                {
                  "internalType": "bytes[]",
                  "name": "signatures",
                  "type": "bytes[]"
                }
              ],
              "internalType": "struct Claims.SignedClaim",
              "name": "signedClaim",
              "type": "tuple"
            },
            {
              "internalType": "bool",
              "name": "isAppclipProof",
              "type": "bool"
            }
          ],
          "internalType": "struct IReclaimVerifier.ReclaimProof",
          "name": "proof",
          "type": "tuple"
        },
        {
          "internalType": "address[]",
          "name": "_witnesses",
          "type": "address[]"
        },
        {
          "internalType": "uint256",
          "name": "_requiredThreshold",
          "type": "uint256"
        }
      ],
      "name": "verifyProofSignatures",
      "outputs": [
        {
          "internalType": "bool",
          "name": "",
          "type": "bool"
        }
      ],
      "stateMutability": "pure",
      "type": "function"
    }
  ],
  "transactionHash": "0xb2ca4c30e4c32fa23f34c8b18b1c9faf8dbe60eda3273bda4fc0d033ab88f79a",
  "args": [
    "0x431a078A5029146aAB239c768A615CD484519aF7",
    "0x27B4A4542af8EefB7eBf574a562C5D4DaA17137F",
    [
      "0x05eecaa422b995a513376f7ae0b3a16fab2bdcb7fb1eff38891475b56869a1bd",
      "0x7590feb5bf279eb5f0dbd6e419f29d3af8ec99dbdef405337758dbab813b83ac",
      "0x224453b6c54ab9d24d4d3c44c65fd41bf7c688d0a2945764c69097bb4096a232",
      "0x0f311d08ccd33835f7aaaaa1a3bd5f9bc8842f62b5e6f6016774d598209d81a6",
      "0x7063a969be444967642532977090a320c346eb0b9c0e37ebfcfe3c075f9f3f9e",
      "0x82667fe5517814d3ba3f4b6baa47913e436aa7ffcd051b4a66b24f0c66e3ea29",
      "0x17e8e900bdf8b54faeb3f04183993df5dd31367c7fa29e6b904ef8946c4372e8",
      "0x6fcd28cfd89f1ccb063574ec30d12ab46051920b2f44fafea9d140ef41fbc6a8",
      "0x43a10fdadcfd24fcc159d592bde69210afc955a3f62a89d42beb1c3bf59fc005",
      "0x85a910986d8579cea44c77b86877bf34615ea03bca2c5401e275463d669adbdb"
    ],
    "86400"
  ],
  "numDeployments": 1,
  "solcInputHash": "c65479e171ec1593895576ab536bd1a1",
  "bytecode": "0x60a06040523480156200001157600080fd5b50604051620049b9380380620049b98339810160408190526200003491620002ec565b81620000403362000214565b60005b8151811015620001e157600182828151811062000064576200006462000448565b60200260200101516040516200007b91906200045e565b9081526040519081900360200190205460ff1615620000e05760405162461bcd60e51b815260206004820152601b60248201527f50726f7669646572206861736820616c72656164792061646465640000000000604482015260640160405180910390fd5b600180838381518110620000f857620000f862000448565b60200260200101516040516200010f91906200045e565b908152602001604051809103902060006101000a81548160ff02191690831515021790555060028282815181106200014b576200014b62000448565b602090810291909101810151825460018101845560009384529190922001906200017690826200050b565b507fc9e1c78701d1853eeb1eb35ad3449e4b336281f672d5837243d21239dc6f4096828281518110620001ad57620001ad62000448565b6020026020010151604051620001c49190620005d7565b60405180910390a180620001d8816200060c565b91505062000043565b50506001600160a01b03938416608052600380546001600160a01b03191693909416929092179092556004555062000634565b600080546001600160a01b038381166001600160a01b0319831681178455604051919092169283917f8be0079c531659141344cd1fd0a4f28419497f9722a3daafe3b4186f6b6457e09190a35050565b6001600160a01b03811681146200027a57600080fd5b50565b634e487b7160e01b600052604160045260246000fd5b604051601f8201601f191681016001600160401b0381118282101715620002be57620002be6200027d565b604052919050565b60005b83811015620002e3578181015183820152602001620002c9565b50506000910152565b600080600080608085870312156200030357600080fd5b8451620003108162000264565b80945050602080860151620003258162000264565b60408701519094506001600160401b03808211156200034357600080fd5b818801915088601f8301126200035857600080fd5b8151818111156200036d576200036d6200027d565b8060051b6200037e85820162000293565b918252838101850191858101908c8411156200039957600080fd5b86860192505b838310156200043257825185811115620003b95760008081fd5b8601603f81018e13620003cc5760008081fd5b8781015186811115620003e357620003e36200027d565b620003f7601f8201601f19168a0162000293565b8181528f60408385010111156200040e5760008081fd5b62000420828b830160408601620002c6565b8452505091860191908601906200039f565b60609b909b0151999c989b505050505050505050565b634e487b7160e01b600052603260045260246000fd5b6000825162000472818460208701620002c6565b9190910192915050565b600181811c908216806200049157607f821691505b602082108103620004b257634e487b7160e01b600052602260045260246000fd5b50919050565b601f8211156200050657600081815260208120601f850160051c81016020861015620004e15750805b601f850160051c820191505b818110156200050257828155600101620004ed565b5050505b505050565b81516001600160401b038111156200052757620005276200027d565b6200053f816200053884546200047c565b84620004b8565b602080601f8311600181146200057757600084156200055e5750858301515b600019600386901b1c1916600185901b17855562000502565b600085815260208120601f198616915b82811015620005a85788860151825594840194600190910190840162000587565b5085821015620005c75787850151600019600388901b60f8161c191681555b5050505050600190811b01905550565b6020815260008251806020840152620005f8816040850160208701620002c6565b601f01601f19169190910160400192915050565b6000600182016200062d57634e487b7160e01b600052601160045260246000fd5b5060010190565b6080516143626200065760003960008181610267015261046501526143626000f3fe608060405234801561001057600080fd5b50600436106100f55760003560e01c8063b2a3fda411610097578063dbac582111610066578063dbac582114610259578063ea4a7bd714610262578063f2fde38b14610289578063fa93cd381461029c57600080fd5b8063b2a3fda41461020b578063b870676c1461021e578063bd6e774114610231578063c2107e731461024457600080fd5b806357c6e12a116100d357806357c6e12a14610194578063715018a6146101b457806384c7b439146101bc5780638da5cb5b146101e657600080fd5b806315bfa612146100fa5780631cba9bed146101415780632ca6927d14610156575b600080fd5b61012e6040516810d3d354131155115160ba1b60208201526029016040516020818303038152906040528051906020012081565b6040519081526020015b60405180910390f35b61015461014f366004613543565b6102af565b005b610184610164366004613543565b805160208183018101805160018252928201919093012091525460ff1681565b6040519015158152602001610138565b6101a76101a2366004613577565b610397565b60405161013891906135e0565b610154610443565b6101cf6101ca3660046135f3565b610457565b604080519215158352602083019190915201610138565b6000546001600160a01b03165b6040516001600160a01b039091168152602001610138565b610154610219366004613577565b61055e565b6003546101f3906001600160a01b031681565b61015461023f366004613543565b61059b565b61024c6106b0565b6040516101389190613635565b61012e60045481565b6101f37f000000000000000000000000000000000000000000000000000000000000000081565b6101546102973660046136ae565b610789565b6101846102aa3660046139bc565b610802565b6102b7610bc2565b6001816040516102c79190613a28565b9081526040519081900360200190205460ff1661032b5760405162461bcd60e51b815260206004820152601760248201527f50726f76696465722068617368206e6f7420666f756e6400000000000000000060448201526064015b60405180910390fd5b60018160405161033b9190613a28565b908152604051908190036020019020805460ff1916905561035d600282610c1c565b7f6f594b4b4f0580c66aabba75218163a99fa1fe330a171cc9e2bfd8e167db22f88160405161038c91906135e0565b60405180910390a150565b600281815481106103a757600080fd5b9060005260206000200160009150905080546103c290613a44565b80601f01602080910402602001604051908101604052809291908181526020018280546103ee90613a44565b801561043b5780601f106104105761010080835404028352916020019161043b565b820191906000526020600020905b81548152906001019060200180831161041e57829003601f168201915b505050505081565b61044b610bc2565b6104556000610dd6565b565b600080336001600160a01b037f000000000000000000000000000000000000000000000000000000000000000016146104d25760405162461bcd60e51b815260206004820152601b60248201527f4f6e6c7920626173652076657269666965722063616e2063616c6c00000000006044820152606401610322565b6000806104f46104e28680613a7e565b6104ef60e0890189613a7e565b610e26565b9150915061050c828661050690613ac4565b83610f00565b61053f82604001516040516020016105249190613a28565b60405160208183030381529060405280519060200120611191565b60a08201516001906105529060006112ac565b90969095509350505050565b610566610bc2565b60048190556040518181527f11e8dda5412ecab251b7783921be2eb37fdf13b389fc7f671f2cee11a1dfefea9060200161038c565b6105a3610bc2565b6001816040516105b39190613a28565b9081526040519081900360200190205460ff16156106135760405162461bcd60e51b815260206004820152601b60248201527f50726f7669646572206861736820616c726561647920616464656400000000006044820152606401610322565b600180826040516106249190613a28565b908152604051908190036020019020805491151560ff19909216919091179055600280546001810182556000919091527f405787fa12a823e0f2b7631cc41b3ba8828b3321ca811111fa75cd3aa3bb5ace016106808282613bde565b507fc9e1c78701d1853eeb1eb35ad3449e4b336281f672d5837243d21239dc6f40968160405161038c91906135e0565b60606002805480602002602001604051908101604052809291908181526020016000905b828210156107805783829060005260206000200180546106f390613a44565b80601f016020809104026020016040519081016040528092919081815260200182805461071f90613a44565b801561076c5780601f106107415761010080835404028352916020019161076c565b820191906000526020600020905b81548152906001019060200180831161074f57829003601f168201915b5050505050815260200190600101906106d4565b50505050905090565b610791610bc2565b6001600160a01b0381166107f65760405162461bcd60e51b815260206004820152602660248201527f4f776e61626c653a206e6577206f776e657220697320746865207a65726f206160448201526564647265737360d01b6064820152608401610322565b6107ff81610dd6565b50565b60008082116108655760405162461bcd60e51b815260206004820152602960248201527f5265717569726564207468726573686f6c64206d75737420626520677265617460448201526806572207468616e20360bc1b6064820152608401610322565b82518211156108ea5760405162461bcd60e51b8152602060048201526044602482018190527f5265717569726564207468726573686f6c64206d757374206265206c65737320908201527f7468616e206f7220657175616c20746f206e756d626572206f66207769746e656064820152637373657360e01b608482015260a401610322565b600084602001516020015151116109335760405162461bcd60e51b815260206004820152600d60248201526c4e6f207369676e61747572657360981b6044820152606401610322565b60408051808201909152602080860180515183525181015190820152845160009061095d906112c6565b6020870151515190915081146109b55760405162461bcd60e51b815260206004820152601c60248201527f436c61696d496e666f206861736820646f65736e2774206d61746368000000006044820152606401610322565b806109fb5760405162461bcd60e51b8152602060048201526016602482015275436c61696d496e666f2068617368206973207a65726f60501b6044820152606401610322565b6000610a0683611309565b90508481511015610a6a5760405162461bcd60e51b815260206004820152602860248201527f4665776572207369676e617475726573207468616e20726571756972656420746044820152671a1c995cda1bdb1960c21b6064820152608401610322565b600081516001600160401b03811115610a8557610a85613421565b604051908082528060200260200182016040528015610aae578160200160208202803683370190505b5090506000805b8351811015610b56576000848281518110610ad257610ad2613c9d565b60200260200101519050610aef81856113e290919063ffffffff16565b15610afa5750610b44565b610b048a826113e2565b15610b425780848481518110610b1c57610b1c613c9d565b6001600160a01b039092166020928302919091019091015282610b3e81613cc9565b9350505b505b80610b4e81613cc9565b915050610ab5565b5086811015610bb35760405162461bcd60e51b815260206004820152602360248201527f4e6f7420656e6f7567682076616c6964207769746e657373207369676e61747560448201526272657360e81b6064820152608401610322565b50600198975050505050505050565b6000546001600160a01b031633146104555760405162461bcd60e51b815260206004820181905260248201527f4f776e61626c653a2063616c6c6572206973206e6f7420746865206f776e65726044820152606401610322565b600080610cf984805480602002602001604051908101604052809291908181526020016000905b82821015610cef578382906000526020600020018054610c6290613a44565b80601f0160208091040260200160405190810160405280929190818152602001828054610c8e90613a44565b8015610cdb5780601f10610cb057610100808354040283529160200191610cdb565b820191906000526020600020905b815481529060010190602001808311610cbe57829003601f168201915b505050505081526020019060010190610c43565b50505050846113f8565b9150915080610d415760405162461bcd60e51b815260206004820152601460248201527329ba3934b733903737ba1034b71030b93930bc9760611b6044820152606401610322565b8354600090610d5290600190613ce2565b9050808314610da157848181548110610d6d57610d6d613c9d565b90600052602060002001858481548110610d8957610d89613c9d565b906000526020600020019081610d9f9190613cf5565b505b84805480610db157610db1613dc7565b600190038181906000526020600020016000610dcd91906133a7565b90555050505050565b600080546001600160a01b038381166001600160a01b0319831681178455604051919092169283917f8be0079c531659141344cd1fd0a4f28419497f9722a3daafe3b4186f6b6457e09190a35050565b610e666040518060e00160405280606081526020016060815260200160608152602001606081526020016060815260200160608152602001606081525090565b600080610e7586880188613ddd565b90506000610e838686611469565b9050610e9182826001610802565b50610e9b82611477565b9350610eaa8460c001516115c1565b610eee5760405162461bcd60e51b815260206004820152601560248201527409cde40ecc2d8d2c840e0e4deecd2c8cae490c2e6d605b1b6044820152606401610322565b81604001519250505094509492505050565b6000670de0b6b3a76400008360c001518460400151610f1f9190613e11565b610f299190613e3e565b9050600083602001516001600160a01b031663313ce5676040518163ffffffff1660e01b8152600401602060405180830381865afa158015610f6f573d6000803e3d6000fd5b505050506040513d601f19601f82011682018060405250810190610f939190613e52565b8551909150600090610fa89060ff84166112ac565b905082811015610ffa5760405162461bcd60e51b815260206004820152601860248201527f496e636f7272656374207061796d656e7420616d6f756e7400000000000000006044820152606401610322565b6080808601519087015161100d916115ec565b6110595760405162461bcd60e51b815260206004820152601b60248201527f496e636f7272656374207061796d656e7420726563697069656e7400000000006044820152606401610322565b600060045461108a88602001516040516020016110769190613e75565b604051602081830303815290604052611645565b6110949190613ea2565b905085606001518110156110ea5760405162461bcd60e51b815260206004820152601b60248201527f496e636f7272656374207061796d656e742074696d657374616d7000000000006044820152606401610322565b6040516810d3d354131155115160ba1b602082015260290160405160208183030381529060405280519060200120876060015160405160200161112d9190613a28565b60405160208183030381529060405280519060200120146111885760405162461bcd60e51b815260206004820152601560248201527414185e5b595b9d081b9bdd0818dbdb5c1b195d1959605a1b6044820152606401610322565b50505050505050565b60035460405163169394bb60e01b8152600481018390526001600160a01b039091169063169394bb90602401602060405180830381865afa1580156111da573d6000803e3d6000fd5b505050506040513d601f19601f820116820180604052508101906111fe9190613eb5565b1561124b5760405162461bcd60e51b815260206004820152601f60248201527f4e756c6c69666965722068617320616c7265616479206265656e2075736564006044820152606401610322565b600354604051632dea6f9960e11b8152600481018390526001600160a01b0390911690635bd4df3290602401600060405180830381600087803b15801561129157600080fd5b505af11580156112a5573d6000803e3d6000fd5b5050505050565b60006112bd83601760f91b8461186b565b90505b92915050565b6000808260000151836020015184604001516040516020016112ea93929190613ed2565b60408051601f1981840301815291905280516020909101209392505050565b6060600061131a8360000151611a48565b905060008360200151516001600160401b0381111561133b5761133b613421565b604051908082528060200260200182016040528015611364578160200160208202803683370190505b50905060005b8460200151518110156113da5761139e838660200151838151811061139157611391613c9d565b6020026020010151611ad4565b8282815181106113b0576113b0613c9d565b6001600160a01b0390921660209283029190910190910152806113d281613cc9565b91505061136a565b509392505050565b6000806113ef8484611b1d565b95945050505050565b81516000908190815b8181101561145657848051906020012086828151811061142357611423613c9d565b60200260200101518051906020012003611444579250600191506114629050565b8061144e81613cc9565b915050611401565b50600019600092509250505b9250929050565b60606112bd82840184613f2d565b6114b76040518060e00160405280606081526020016060815260200160608152602001606081526020016060815260200160608152602001606081525090565b60006114ce83600001516040015160086001611b7f565b90506040518060e00160405280826003815181106114ee576114ee613c9d565b602002602001015181526020018260068151811061150e5761150e613c9d565b602002602001015181526020018260048151811061152e5761152e613c9d565b602002602001015181526020018260058151811061154e5761154e613c9d565b602002602001015181526020018260028151811061156e5761156e613c9d565b602002602001015181526020018260018151811061158e5761158e613c9d565b60200260200101518152602001826007815181106115ae576115ae613c9d565b6020026020010151815250915050919050565b60006001826040516115d39190613a28565b9081526040519081900360200190205460ff1692915050565b6000816040516020016115ff9190613a28565b60405160208183030381529060405280519060200120836040516020016116269190613a28565b6040516020818303038152906040528051906020012014905092915050565b600061164f6133e1565b82516000908190815b8181101561179c5786818151811061167257611672613c9d565b6020910101516001600160f81b031916602d60f81b14806116b757508681815181106116a0576116a0613c9d565b6020910101516001600160f81b031916601d60f91b145b806116e657508681815181106116cf576116cf613c9d565b6020910101516001600160f81b031916601560fa1b145b8061171557508681815181106116fe576116fe613c9d565b6020910101516001600160f81b031916600160fd1b145b1561175757611725878483612a50565b85856006811061173757611737613c9d565b6020020152611747816001613ea2565b92508361175381613cc9565b9450505b86818151811061176957611769613c9d565b01602001516001600160f81b031916601760f91b0361178a5780915061179c565b8061179481613cc9565b915050611658565b506117a8868383612a50565b8484600681106117ba576117ba613c9d565b6020020152600583146118055760405162461bcd60e51b8152602060048201526013602482015272496e76616c6964206461746520737472696e6760681b6044820152606401610322565b61186161181b600086815b6020020151906112ac565b6118286000876001611810565b6118356000886002611810565b6118426000896003611810565b61184f60008a6004611810565b61185c60008b6005611810565b612b1c565b9695505050505050565b600083818080805b84518110156119c157603060f81b85828151811061189357611893613c9d565b01602001516001600160f81b031916108015906118d45750603960f81b8582815181106118c2576118c2613c9d565b01602001516001600160f81b03191611155b156119175760308582815181106118ed576118ed613c9d565b01602001516118ff919060f81c613ce2565b61190a85600a613e11565b6119149190613ea2565b93505b811561192b578261192781613cc9565b9350505b876001600160f81b03191685828151811061194857611948613c9d565b01602001516001600160f81b031916036119af5781156119aa5760405162461bcd60e51b815260206004820152601c60248201527f537472696e6720686173206d756c7469706c6520646563696d616c73000000006044820152606401610322565b600191505b806119b981613cc9565b915050611873565b5085821115611a1d5760405162461bcd60e51b815260206004820152602260248201527f537472696e672068617320746f6f206d616e7920646563696d616c20706c6163604482015261657360f01b6064820152608401610322565b611a278287613ce2565b611a3290600a614045565b611a3c9084613e11565b98975050505050505050565b6060611a788260000151604051602001611a6491815260200190565b604051602081830303815290604052612b78565b611a858360200151612d3b565b611a98846040015163ffffffff16612ea4565b611aab856060015163ffffffff16612ea4565b604051602001611abe9493929190614051565b6040516020818303038152906040529050919050565b600080611ae18451612ea4565b84604051602001611af39291906140ca565b604051602081830303815290604052805190602001209050611b158184612fcf565b949350505050565b81516000908190815b8181101561145657846001600160a01b0316868281518110611b4a57611b4a613c9d565b60200260200101516001600160a01b031603611b6d579250600191506114629050565b80611b7781613cc9565b915050611b26565b606060008360ff1611611bde5760405162461bcd60e51b815260206004820152602160248201527f4d61782076616c756573206d7573742062652067726561746572207468616e206044820152600360fc1b6064820152608401610322565b8360008080808080611bf18a6002614125565b60ff166001600160401b03811115611c0b57611c0b613421565b604051908082528060200260200182016040528015611c34578160200160208202803683370190505b50905060005b604051806040016040528060138152602001723d9131b7b73a32bc3a20b2323932b9b9911d1160691b81525051811015611d1357604051806040016040528060138152602001723d9131b7b73a32bc3a20b2323932b9b9911d1160691b8152508181518110611cab57611cab613c9d565b01602001516001600160f81b03191688611cc5838a613ea2565b81518110611cd557611cd5613c9d565b01602001516001600160f81b03191614611d015760405162461bcd60e51b815260040161032290614148565b80611d0b81613cc9565b915050611c3a565b50604051806040016040528060138152602001723d9131b7b73a32bc3a20b2323932b9b9911d1160691b8152505186611d4c9190613ea2565b95508593505b865186108015611dc25750868681518110611d6f57611d6f613c9d565b6020910101516001600160f81b031916601160f91b148015611dc0575086611d98600188613ce2565b81518110611da857611da8613c9d565b6020910101516001600160f81b031916601760fa1b14155b155b15611dd95785611dd181613cc9565b965050611d52565b86518610611df95760405162461bcd60e51b815260040161032290614148565b859250838303611e615760405162461bcd60e51b815260206004820152602d60248201527f45787472616374696f6e206661696c65642e20456d70747920636f6e7465787460448201526c416464726573732076616c756560981b6064820152608401610322565b8381611e6e876002613e11565b81518110611e7e57611e7e613c9d565b60209081029190910101528281611e96876002613e11565b611ea1906001613ea2565b81518110611eb157611eb1613c9d565b602090810291909101015284611ec681613cc9565b9550611ed59050600287613ea2565b955060005b604051806040016040528060128152602001711131b7b73a32bc3a26b2b9b9b0b3b2911d1160711b81525051811015611fb157604051806040016040528060128152602001711131b7b73a32bc3a26b2b9b9b0b3b2911d1160711b8152508181518110611f4957611f49613c9d565b01602001516001600160f81b03191688611f63838a613ea2565b81518110611f7357611f73613c9d565b01602001516001600160f81b03191614611f9f5760405162461bcd60e51b815260040161032290614193565b80611fa981613cc9565b915050611eda565b50604051806040016040528060128152602001711131b7b73a32bc3a26b2b9b9b0b3b2911d1160711b8152505186611fe99190613ea2565b95508593505b86518610801561205f575086868151811061200c5761200c613c9d565b6020910101516001600160f81b031916601160f91b14801561205d575086612035600188613ce2565b8151811061204557612045613c9d565b6020910101516001600160f81b031916601760fa1b14155b155b15612076578561206e81613cc9565b965050611fef565b865186106120965760405162461bcd60e51b815260040161032290614193565b8592508383036120fe5760405162461bcd60e51b815260206004820152602d60248201527f45787472616374696f6e206661696c65642e20456d70747920636f6e7465787460448201526c4d6573736167652076616c756560981b6064820152608401610322565b838161210b876002613e11565b8151811061211b5761211b613c9d565b60209081029190910101528281612133876002613e11565b61213e906001613ea2565b8151811061214e5761214e613c9d565b60209081029190910101528461216381613cc9565b95506121729050600287613ea2565b955060005b604051806040016040528060188152602001771132bc3a3930b1ba32b22830b930b6b2ba32b939911d3d9160411b815250518110156122a357604051806040016040528060188152602001771132bc3a3930b1ba32b22830b930b6b2ba32b939911d3d9160411b81525081815181106121f2576121f2613c9d565b01602001516001600160f81b0319168861220c838a613ea2565b8151811061221c5761221c613c9d565b01602001516001600160f81b031916146122915760405162461bcd60e51b815260206004820152603060248201527f45787472616374696f6e206661696c65642e204d616c666f726d65642065787460448201526f726163746564506172616d657465727360801b6064820152608401610322565b8061229b81613cc9565b915050612177565b50604051806040016040528060188152602001771132bc3a3930b1ba32b22830b930b6b2ba32b939911d3d9160411b81525051866122e19190613ea2565b9550600091505b865186101561268b5786868151811061230357612303613c9d565b6020910101516001600160f81b031916601160f91b14801561235457508661232c600188613ce2565b8151811061233c5761233c613c9d565b6020910101516001600160f81b031916601760fa1b14155b61236a578561236281613cc9565b9650506122e8565b81612472578661237b876001613ea2565b8151811061238b5761238b613c9d565b6020910101516001600160f81b031916601d60f91b1480156123db5750866123b4876002613ea2565b815181106123c4576123c4613c9d565b6020910101516001600160f81b031916601160f91b145b6124335760405162461bcd60e51b815260206004820152602360248201527f45787472616374696f6e206661696c65642e204d616c666f726d65642064617460448201526261203160e81b6064820152608401610322565b61243e600387613ea2565b9550600191508581612451876002613e11565b8151811061246157612461613c9d565b6020026020010181815250506122e8565b600087612480886001613ea2565b8151811061249057612490613c9d565b6020910101516001600160f81b031916600b60fa1b1480156124e05750876124b9886002613ea2565b815181106124c9576124c9613c9d565b6020910101516001600160f81b031916601160f91b145b90506000886124f0896001613ea2565b8151811061250057612500613c9d565b6020910101516001600160f81b031916607d60f81b148015612550575088612529896002613ea2565b8151811061253957612539613c9d565b6020910101516001600160f81b031916600b60fa1b145b9050818061255b5750805b6125b35760405162461bcd60e51b815260206004820152602360248201527f45787472616374696f6e206661696c65642e204d616c666f726d65642064617460448201526230901960e91b6064820152608401610322565b87836125c0896002613e11565b6125cb906001613ea2565b815181106125db576125db613c9d565b6020908102919091010152866125f081613cc9565b9750508115612670578b60ff16870361265a5760405162461bcd60e51b815260206004820152602660248201527f45787472616374696f6e206661696c65642e204578636565646564206d61782060448201526576616c75657360d01b6064820152608401610322565b612665600389613ea2565b975060009350612684565b61267b600389613ea2565b9750505061268b565b50506122e8565b88156128985760005b6040518060400160405280601081526020016f11383937bb34b232b92430b9b4111d1160811b815250518110156127a9576040518060400160405280601081526020016f11383937bb34b232b92430b9b4111d1160811b81525081815181106126ff576126ff613c9d565b01602001516001600160f81b03191688612719838a613ea2565b8151811061272957612729613c9d565b01602001516001600160f81b031916146127975760405162461bcd60e51b815260206004820152602960248201527f45787472616374696f6e206661696c65642e204d616c666f726d65642070726f6044820152680ecd2c8cae490c2e6d60bb1b6064820152608401610322565b806127a181613cc9565b915050612694565b506040518060400160405280601081526020016f11383937bb34b232b92430b9b4111d1160811b81525051866127df9190613ea2565b955085816127ee876002613e11565b815181106127fe576127fe613c9d565b6020026020010181815250505b865186108015612840575086868151811061282857612828613c9d565b6020910101516001600160f81b031916601160f91b14155b15612857578561284f81613cc9565b96505061280b565b8581612864876002613e11565b61286f906001613ea2565b8151811061287f5761287f613c9d565b60209081029190910101528461289481613cc9565b9550505b6000856001600160401b038111156128b2576128b2613421565b6040519080825280602002602001820160405280156128e557816020015b60608152602001906001900390816128d05790505b50905060005b86811015612a4057826128ff826002613e11565b8151811061290f5761290f613c9d565b60200260200101519550828160026129279190613e11565b612932906001613ea2565b8151811061294257612942613c9d565b602002602001015194506000868661295a9190613ce2565b6001600160401b0381111561297157612971613421565b6040519080825280601f01601f19166020018201604052801561299b576020820181803683370190505b509050865b86811015612a0d578a81815181106129ba576129ba613c9d565b01602001516001600160f81b031916826129d48a84613ce2565b815181106129e4576129e4613c9d565b60200101906001600160f81b031916908160001a90535080612a0581613cc9565b9150506129a0565b5080838381518110612a2157612a21613c9d565b6020026020010181905250508080612a3890613cc9565b9150506128eb565b509b9a5050505050505050505050565b6060836000612a5f8585613ce2565b6001600160401b03811115612a7657612a76613421565b6040519080825280601f01601f191660200182016040528015612aa0576020820181803683370190505b509050845b84811015612b1257828181518110612abf57612abf613c9d565b01602001516001600160f81b03191682612ad98884613ce2565b81518110612ae957612ae9613c9d565b60200101906001600160f81b031916908160001a90535080612b0a81613cc9565b915050612aa5565b5095945050505050565b600081612b2a603c85613e11565b612b36610e1087613e11565b62015180612b458b8b8b612feb565b612b4f9190613e11565b612b599190613ea2565b612b639190613ea2565b612b6d9190613ea2565b979650505050505050565b6060600082516002612b8a9190613e11565b6001600160401b03811115612ba157612ba1613421565b6040519080825280601f01601f191660200182016040528015612bcb576020820181803683370190505b5060408051808201909152601081526f181899199a1a9b1b9c1cb0b131b232b360811b602082015290915060005b8451811015612d1157818251868381518110612c1757612c17613c9d565b0160200151612c29919060f81c613e3e565b81518110612c3957612c39613c9d565b01602001516001600160f81b03191683612c54836002613e11565b81518110612c6457612c64613c9d565b60200101906001600160f81b031916908160001a905350818251868381518110612c9057612c90613c9d565b0160200151612ca2919060f81c6141de565b81518110612cb257612cb2613c9d565b01602001516001600160f81b03191683612ccd836002613e11565b612cd8906001613ea2565b81518110612ce857612ce8613c9d565b60200101906001600160f81b031916908160001a90535080612d0981613cc9565b915050612bf9565b5081604051602001612d2391906141f2565b60405160208183030381529060405292505050919050565b60408051602880825260608281019093526000919060208201818036833701905050905060005b6014811015612e7b576000612d78826013613ce2565b612d83906008613e11565b612d8e906002614045565b612da1906001600160a01b038716613e3e565b60f81b9050600060108260f81c612db8919061421c565b60f81b905060008160f81c6010612dcf9190614125565b8360f81c612ddd919061423e565b60f81b9050612deb8261311c565b85612df7866002613e11565b81518110612e0757612e07613c9d565b60200101906001600160f81b031916908160001a905350612e278161311c565b85612e33866002613e11565b612e3e906001613ea2565b81518110612e4e57612e4e613c9d565b60200101906001600160f81b031916908160001a9053505050508080612e7390613cc9565b915050612d62565b5080604051602001612e8d91906141f2565b604051602081830303815290604052915050919050565b606081600003612ecb5750506040805180820190915260018152600360fc1b602082015290565b8160005b8115612ef55780612edf81613cc9565b9150612eee9050600a83613e3e565b9150612ecf565b6000816001600160401b03811115612f0f57612f0f613421565b6040519080825280601f01601f191660200182016040528015612f39576020820181803683370190505b509050815b8515612fc657612f4f600182613ce2565b90506000612f5e600a88613e3e565b612f6990600a613e11565b612f739088613ce2565b612f7e906030614257565b905060008160f81b905080848481518110612f9b57612f9b613c9d565b60200101906001600160f81b031916908160001a905350612fbd600a89613e3e565b97505050612f3e565b50949350505050565b6000806000612fde8585613157565b915091506113da81613199565b60006107b2841015612ffc57600080fd5b838383600062253d8c60046064600c613016600e88614270565b6130209190614290565b61302c886113246142be565b61303691906142be565b6130409190614290565b61304b9060036142e6565b6130559190614290565b600c80613063600e88614270565b61306d9190614290565b61307890600c6142e6565b613083600288614270565b61308d9190614270565b6130999061016f6142e6565b6130a39190614290565b6004600c6130b2600e89614270565b6130bc9190614290565b6130c8896112c06142be565b6130d291906142be565b6130de906105b56142e6565b6130e89190614290565b6130f4617d4b87614270565b6130fe91906142be565b61310891906142be565b6131129190614270565b611a3c9190614270565b6000600a60f883901c10156131435761313a60f883901c6030614257565b60f81b92915050565b61313a60f883901c6057614257565b919050565b600080825160410361318d5760208301516040840151606085015160001a613181878285856132e3565b94509450505050611462565b50600090506002611462565b60008160048111156131ad576131ad614316565b036131b55750565b60018160048111156131c9576131c9614316565b036132165760405162461bcd60e51b815260206004820152601860248201527f45434453413a20696e76616c6964207369676e617475726500000000000000006044820152606401610322565b600281600481111561322a5761322a614316565b036132775760405162461bcd60e51b815260206004820152601f60248201527f45434453413a20696e76616c6964207369676e6174757265206c656e677468006044820152606401610322565b600381600481111561328b5761328b614316565b036107ff5760405162461bcd60e51b815260206004820152602260248201527f45434453413a20696e76616c6964207369676e6174757265202773272076616c604482015261756560f01b6064820152608401610322565b6000807f7fffffffffffffffffffffffffffffff5d576e7357a4501ddfe92f46681b20a083111561331a575060009050600361339e565b6040805160008082526020820180845289905260ff881692820192909252606081018690526080810185905260019060a0016020604051602081039080840390855afa15801561336e573d6000803e3d6000fd5b5050604051601f1901519150506001600160a01b0381166133975760006001925092505061339e565b9150600090505b94509492505050565b5080546133b390613a44565b6000825580601f106133c3575050565b601f0160209004906000526020600020908101906107ff9190613408565b6040518060c001604052806006905b60608152602001906001900390816133f05790505090565b5b8082111561341d5760008155600101613409565b5090565b634e487b7160e01b600052604160045260246000fd5b604051608081016001600160401b038111828210171561345957613459613421565b60405290565b604051606081016001600160401b038111828210171561345957613459613421565b60405161010081016001600160401b038111828210171561345957613459613421565b604051601f8201601f191681016001600160401b03811182821017156134cc576134cc613421565b604052919050565b600082601f8301126134e557600080fd5b81356001600160401b038111156134fe576134fe613421565b613511601f8201601f19166020016134a4565b81815284602083860101111561352657600080fd5b816020850160208301376000918101602001919091529392505050565b60006020828403121561355557600080fd5b81356001600160401b0381111561356b57600080fd5b611b15848285016134d4565b60006020828403121561358957600080fd5b5035919050565b60005b838110156135ab578181015183820152602001613593565b50506000910152565b600081518084526135cc816020860160208601613590565b601f01601f19169290920160200192915050565b6020815260006112bd60208301846135b4565b60006020828403121561360557600080fd5b81356001600160401b0381111561361b57600080fd5b8201610100818503121561362e57600080fd5b9392505050565b6000602080830181845280855180835260408601915060408160051b870101925083870160005b8281101561368a57603f198886030184526136788583516135b4565b9450928501929085019060010161365c565b5092979650505050505050565b80356001600160a01b038116811461315257600080fd5b6000602082840312156136c057600080fd5b6112bd82613697565b803563ffffffff8116811461315257600080fd5b60006001600160401b038211156136f6576136f6613421565b5060051b60200190565b600082601f83011261371157600080fd5b81356020613726613721836136dd565b6134a4565b82815260059290921b8401810191818101908684111561374557600080fd5b8286015b848110156137845780356001600160401b038111156137685760008081fd5b6137768986838b01016134d4565b845250918301918301613749565b509695505050505050565b600081830360a08112156137a257600080fd5b604051604081016001600160401b0382821081831117156137c5576137c5613421565b8160405282945060808412156137da57600080fd5b6137e2613437565b9350853584526137f460208701613697565b6020850152613805604087016136c9565b6040850152613816606087016136c9565b60608501529282526080850135928084111561383157600080fd5b505061383f85838601613700565b6020820152505092915050565b80151581146107ff57600080fd5b80356131528161384c565b60006060828403121561387757600080fd5b61387f61345f565b905081356001600160401b038082111561389857600080fd5b90830190606082860312156138ac57600080fd5b6138b461345f565b8235828111156138c357600080fd5b6138cf878286016134d4565b8252506020830135828111156138e457600080fd5b6138f0878286016134d4565b60208301525060408301358281111561390857600080fd5b613914878286016134d4565b6040830152508352602084013591508082111561393057600080fd5b5061393d8482850161378f565b60208301525061394f6040830161385a565b604082015292915050565b600082601f83011261396b57600080fd5b8135602061397b613721836136dd565b82815260059290921b8401810191818101908684111561399a57600080fd5b8286015b84811015613784576139af81613697565b835291830191830161399e565b6000806000606084860312156139d157600080fd5b83356001600160401b03808211156139e857600080fd5b6139f487838801613865565b94506020860135915080821115613a0a57600080fd5b50613a178682870161395a565b925050604084013590509250925092565b60008251613a3a818460208701613590565b9190910192915050565b600181811c90821680613a5857607f821691505b602082108103613a7857634e487b7160e01b600052602260045260246000fd5b50919050565b6000808335601e19843603018112613a9557600080fd5b8301803591506001600160401b03821115613aaf57600080fd5b60200191503681900382131561146257600080fd5b60006101008236031215613ad757600080fd5b613adf613481565b82356001600160401b0380821115613af657600080fd5b613b02368387016134d4565b8352613b1060208601613697565b602084015260408501356040840152606085013560608401526080850135915080821115613b3d57600080fd5b613b49368387016134d4565b608084015260a085013560a084015260c085013560c084015260e0850135915080821115613b7657600080fd5b50613b83368286016134d4565b60e08301525092915050565b601f821115613bd957600081815260208120601f850160051c81016020861015613bb65750805b601f850160051c820191505b81811015613bd557828155600101613bc2565b5050505b505050565b81516001600160401b03811115613bf757613bf7613421565b613c0b81613c058454613a44565b84613b8f565b602080601f831160018114613c405760008415613c285750858301515b600019600386901b1c1916600185901b178555613bd5565b600085815260208120601f198616915b82811015613c6f57888601518255948401946001909101908401613c50565b5085821015613c8d5787850151600019600388901b60f8161c191681555b5050505050600190811b01905550565b634e487b7160e01b600052603260045260246000fd5b634e487b7160e01b600052601160045260246000fd5b600060018201613cdb57613cdb613cb3565b5060010190565b818103818111156112c0576112c0613cb3565b818103613d00575050565b613d0a8254613a44565b6001600160401b03811115613d2157613d21613421565b613d2f81613c058454613a44565b6000601f821160018114613d635760008315613d4b5750848201545b600019600385901b1c1916600184901b1784556112a5565b600085815260209020601f19841690600086815260209020845b83811015613d9d5782860154825560019586019590910190602001613d7d565b5085831015613c8d5793015460001960f8600387901b161c19169092555050600190811b01905550565b634e487b7160e01b600052603160045260246000fd5b600060208284031215613def57600080fd5b81356001600160401b03811115613e0557600080fd5b611b1584828501613865565b80820281158282048414176112c0576112c0613cb3565b634e487b7160e01b600052601260045260246000fd5b600082613e4d57613e4d613e28565b500490565b600060208284031215613e6457600080fd5b815160ff8116811461362e57600080fd5b60008251613e87818460208701613590565b685432333a35393a353960b81b920191825250600901919050565b808201808211156112c0576112c0613cb3565b600060208284031215613ec757600080fd5b815161362e8161384c565b60008451613ee4818460208901613590565b600560f91b9083018181528551909190613f05816001850160208a01613590565b60019201918201528351613f20816002840160208801613590565b0160020195945050505050565b600060208284031215613f3f57600080fd5b81356001600160401b03811115613f5557600080fd5b611b158482850161395a565b600181815b80851115613f9c578160001904821115613f8257613f82613cb3565b80851615613f8f57918102915b93841c9390800290613f66565b509250929050565b600082613fb3575060016112c0565b81613fc0575060006112c0565b8160018114613fd65760028114613fe057613ffc565b60019150506112c0565b60ff841115613ff157613ff1613cb3565b50506001821b6112c0565b5060208310610133831016604e8410600b841016171561401f575081810a6112c0565b6140298383613f61565b806000190482111561403d5761403d613cb3565b029392505050565b60006112bd8383613fa4565b60008551614063818460208a01613590565b600560f91b9083018181528651909190614084816001850160208b01613590565b6001920191820181905285516140a1816002850160208a01613590565b600292019182015283516140bc816003840160208801613590565b016003019695505050505050565b7f19457468657265756d205369676e6564204d6573736167653a0a00000000000081526000835161410281601a850160208801613590565b83519083019061411981601a840160208801613590565b01601a01949350505050565b60ff818116838216029081169081811461414157614141613cb3565b5092915050565b6020808252602b908201527f45787472616374696f6e206661696c65642e204d616c666f726d656420636f6e60408201526a746578744164647265737360a81b606082015260800190565b6020808252602b908201527f45787472616374696f6e206661696c65642e204d616c666f726d656420636f6e60408201526a746578744d65737361676560a81b606082015260800190565b6000826141ed576141ed613e28565b500690565b61060f60f31b81526000825161420f816002850160208701613590565b9190910160020192915050565b600060ff83168061422f5761422f613e28565b8060ff84160491505092915050565b60ff82811682821603908111156112c0576112c0613cb3565b60ff81811683821601908111156112c0576112c0613cb3565b818103600083128015838313168383128216171561414157614141613cb3565b60008261429f5761429f613e28565b600160ff1b8214600019841416156142b9576142b9613cb3565b500590565b80820182811260008312801582168215821617156142de576142de613cb3565b505092915050565b80820260008212600160ff1b8414161561430257614302613cb3565b81810583148215176112c0576112c0613cb3565b634e487b7160e01b600052602160045260246000fdfea2646970667358221220d11d410f49d2b4141fbfd2bda7bb1898dda4b9160c5f1d05a58bbc50a4521a7764736f6c63430008120033",
  "devdoc": {
    "kind": "dev",
    "methods": {
      "addProviderHash(string)": {
        "params": {
          "_newProviderHash": "New provider hash to be added"
        }
      },
      "owner()": {
        "details": "Returns the address of the current owner."
      },
      "removeProviderHash(string)": {
        "params": {
          "_removeProviderHash": "Provider hash to be removed"
        }
      },
      "renounceOwnership()": {
        "details": "Leaves the contract without owner. It will not be possible to call `onlyOwner` functions. Can only be called by the current owner. NOTE: Renouncing ownership will leave the contract without an owner, thereby disabling any functionality that is only available to the owner."
      },
      "setTimestampBuffer(uint256)": {
        "params": {
          "_timestampBuffer": "The timestamp buffer for payments"
        }
      },
      "transferOwnership(address)": {
        "details": "Transfers ownership of the contract to a new account (`newOwner`). Can only be called by the current owner."
      },
      "verifyPayment((bytes,address,uint256,uint256,string,bytes32,uint256,bytes))": {
        "params": {
          "_verifyPaymentData": "Payment proof and intent details required for verification"
        }
      },
      "verifyProofSignatures(((string,string,string),((bytes32,address,uint32,uint32),bytes[]),bool),address[],uint256)": {
        "params": {
          "_requiredThreshold": "Minimum number of signatures required from accepted witnesses",
          "_witnesses": "List of accepted witnesses",
          "proof": "Proof to be verified"
        }
      }
    },
    "version": 1
  },
  "userdoc": {
    "kind": "user",
    "methods": {
      "addProviderHash(string)": {
        "notice": "ONLY OWNER: Add provider hash string. Provider hash must not have been previously added."
      },
      "removeProviderHash(string)": {
        "notice": "ONLY OWNER: Remove provider hash string. Provider hash must have been previously added."
      },
      "setTimestampBuffer(uint256)": {
        "notice": "OWNER ONLY: Sets the timestamp buffer for payments. This is the amount of time in seconds that the timestamp can be off by and still be considered valid. Necessary to build in flexibility  with L2 timestamps."
      },
      "verifyPayment((bytes,address,uint256,uint256,string,bytes32,uint256,bytes))": {
        "notice": "ONLY RAMP: Verifies a reclaim proof of an offchain Bank of America Zelle payment. Ensures the right _intentAmount * _conversionRate USD was paid to _aliasToken after _intentTimestamp + timestampBuffer on Bank of America Zelle. Note: For Bank of America Zelle fiat currency is always USD. For other verifiers which support multiple currencies, _fiatCurrency needs to be checked against the fiat currency in the proof."
      },
      "verifyProofSignatures(((string,string,string),((bytes32,address,uint32,uint32),bytes[]),bool),address[],uint256)": {
        "notice": "Verify proof generated by witnesses. Claim is constructed by hashing claimInfo (provider, context, parameters) to get the identifier. And then signing on (identifier, owner, timestamp, epoch) to get claim signature.  This function verifies a claim by performing the following checks on the claim - Calculates the hash of the claimInfo and checks if it matches the identifier in the claim - Checks if the signatures are valid and from the witnesses This function reverts if - No signatures are found on the proof - ClaimInfo hash does not match the identifier in the claim - Signatures are invalid (not from the witnesses)  DEV NOTE: This function does NOT validate that the claim provider hash is valid. That is the  responsibility of the caller. Ensure witnesses are unique otherwise the threshold can be met  with duplicate witnesses.  Parts of the code are adapted from: https://basescan.org/address/0x7281630e4346dd4c0b7ae3b4689c1d0102741410#code    "
      }
    },
    "version": 1
  },
  "storageLayout": {
    "storage": [
      {
        "astId": 7,
        "contract": "contracts/verifiers/ZelleVerifiers/ZelleBoAReclaimVerifier.sol:ZelleBoAReclaimVerifier",
        "label": "_owner",
        "offset": 0,
        "slot": "0",
        "type": "t_address"
      },
      {
        "astId": 10056,
        "contract": "contracts/verifiers/ZelleVerifiers/ZelleBoAReclaimVerifier.sol:ZelleBoAReclaimVerifier",
        "label": "isProviderHash",
        "offset": 0,
        "slot": "1",
        "type": "t_mapping(t_string_memory_ptr,t_bool)"
      },
      {
        "astId": 10059,
        "contract": "contracts/verifiers/ZelleVerifiers/ZelleBoAReclaimVerifier.sol:ZelleBoAReclaimVerifier",
        "label": "providerHashes",
        "offset": 0,
        "slot": "2",
        "type": "t_array(t_string_storage)dyn_storage"
      },
      {
        "astId": 12785,
        "contract": "contracts/verifiers/ZelleVerifiers/ZelleBoAReclaimVerifier.sol:ZelleBoAReclaimVerifier",
        "label": "nullifierRegistry",
        "offset": 0,
        "slot": "3",
        "type": "t_contract(INullifierRegistry)14491"
      },
      {
        "astId": 12787,
        "contract": "contracts/verifiers/ZelleVerifiers/ZelleBoAReclaimVerifier.sol:ZelleBoAReclaimVerifier",
        "label": "timestampBuffer",
        "offset": 0,
        "slot": "4",
        "type": "t_uint256"
      }
    ],
    "types": {
      "t_address": {
        "encoding": "inplace",
        "label": "address",
        "numberOfBytes": "20"
      },
      "t_array(t_string_storage)dyn_storage": {
        "base": "t_string_storage",
        "encoding": "dynamic_array",
        "label": "string[]",
        "numberOfBytes": "32"
      },
      "t_bool": {
        "encoding": "inplace",
        "label": "bool",
        "numberOfBytes": "1"
      },
      "t_contract(INullifierRegistry)14491": {
        "encoding": "inplace",
        "label": "contract INullifierRegistry",
        "numberOfBytes": "20"
      },
      "t_mapping(t_string_memory_ptr,t_bool)": {
        "encoding": "mapping",
        "key": "t_string_memory_ptr",
        "label": "mapping(string => bool)",
        "numberOfBytes": "32",
        "value": "t_bool"
      },
      "t_string_memory_ptr": {
        "encoding": "bytes",
        "label": "string",
        "numberOfBytes": "32"
      },
      "t_string_storage": {
        "encoding": "bytes",
        "label": "string",
        "numberOfBytes": "32"
      },
      "t_uint256": {
        "encoding": "inplace",
        "label": "uint256",
        "numberOfBytes": "32"
      }
    }
  }
}