{
  "address": "0x7B86c164Af064Ad1e31071aE981841d8E65713E3",
  "abi": [
    {
      "inputs": [
        {
          "internalType": "address",
          "name": "_escrow",
          "type": "address"
        },
        {
          "internalType": "contract INullifierRegistry",
          "name": "_nullifierRegistry",
          "type": "address"
        },
        {
          "internalType": "uint256",
          "name": "_timestampBuffer",
          "type": "uint256"
        },
        {
          "internalType": "bytes32[]",
          "name": "_currencies",
          "type": "bytes32[]"
        },
        {
          "internalType": "string[]",
          "name": "_providerHashes",
          "type": "string[]"
        }
      ],
      "stateMutability": "nonpayable",
      "type": "constructor"
    },
    {
      "anonymous": false,
      "inputs": [
        {
          "indexed": false,
          "internalType": "bytes32",
          "name": "currencyCode",
          "type": "bytes32"
        }
      ],
      "name": "CurrencyAdded",
      "type": "event"
    },
    {
      "anonymous": false,
      "inputs": [
        {
          "indexed": false,
          "internalType": "bytes32",
          "name": "currencyCode",
          "type": "bytes32"
        }
      ],
      "name": "CurrencyRemoved",
      "type": "event"
    },
    {
      "anonymous": false,
      "inputs": [
        {
          "indexed": true,
          "internalType": "address",
          "name": "previousOwner",
          "type": "address"
        },
        {
          "indexed": true,
          "internalType": "address",
          "name": "newOwner",
          "type": "address"
        }
      ],
      "name": "OwnershipTransferred",
      "type": "event"
    },
    {
      "anonymous": false,
      "inputs": [
        {
          "indexed": false,
          "internalType": "string",
          "name": "providerHash",
          "type": "string"
        }
      ],
      "name": "ProviderHashAdded",
      "type": "event"
    },
    {
      "anonymous": false,
      "inputs": [
        {
          "indexed": false,
          "internalType": "string",
          "name": "providerHash",
          "type": "string"
        }
      ],
      "name": "ProviderHashRemoved",
      "type": "event"
    },
    {
      "anonymous": false,
      "inputs": [
        {
          "indexed": false,
          "internalType": "uint256",
          "name": "timestampBuffer",
          "type": "uint256"
        }
      ],
      "name": "TimestampBufferSet",
      "type": "event"
    },
    {
      "inputs": [],
      "name": "COMPLETE_PAYMENT_STATUS",
      "outputs": [
        {
          "internalType": "bytes32",
          "name": "",
          "type": "bytes32"
        }
      ],
      "stateMutability": "view",
      "type": "function"
    },
    {
      "inputs": [
        {
          "internalType": "bytes32",
          "name": "_currencyCode",
          "type": "bytes32"
        }
      ],
      "name": "addCurrency",
      "outputs": [],
      "stateMutability": "nonpayable",
      "type": "function"
    },
    {
      "inputs": [
        {
          "internalType": "string",
          "name": "_newProviderHash",
          "type": "string"
        }
      ],
      "name": "addProviderHash",
      "outputs": [],
      "stateMutability": "nonpayable",
      "type": "function"
    },
    {
      "inputs": [],
      "name": "escrow",
      "outputs": [
        {
          "internalType": "address",
          "name": "",
          "type": "address"
        }
      ],
      "stateMutability": "view",
      "type": "function"
    },
    {
      "inputs": [],
      "name": "getCurrencies",
      "outputs": [
        {
          "internalType": "bytes32[]",
          "name": "",
          "type": "bytes32[]"
        }
      ],
      "stateMutability": "view",
      "type": "function"
    },
    {
      "inputs": [],
      "name": "getProviderHashes",
      "outputs": [
        {
          "internalType": "string[]",
          "name": "",
          "type": "string[]"
        }
      ],
      "stateMutability": "view",
      "type": "function"
    },
    {
      "inputs": [
        {
          "internalType": "bytes32",
          "name": "",
          "type": "bytes32"
        }
      ],
      "name": "isCurrency",
      "outputs": [
        {
          "internalType": "bool",
          "name": "",
          "type": "bool"
        }
      ],
      "stateMutability": "view",
      "type": "function"
    },
    {
      "inputs": [
        {
          "internalType": "string",
          "name": "",
          "type": "string"
        }
      ],
      "name": "isProviderHash",
      "outputs": [
        {
          "internalType": "bool",
          "name": "",
          "type": "bool"
        }
      ],
      "stateMutability": "view",
      "type": "function"
    },
    {
      "inputs": [],
      "name": "nullifierRegistry",
      "outputs": [
        {
          "internalType": "contract INullifierRegistry",
          "name": "",
          "type": "address"
        }
      ],
      "stateMutability": "view",
      "type": "function"
    },
    {
      "inputs": [],
      "name": "owner",
      "outputs": [
        {
          "internalType": "address",
          "name": "",
          "type": "address"
        }
      ],
      "stateMutability": "view",
      "type": "function"
    },
    {
      "inputs": [
        {
          "internalType": "uint256",
          "name": "",
          "type": "uint256"
        }
      ],
      "name": "providerHashes",
      "outputs": [
        {
          "internalType": "string",
          "name": "",
          "type": "string"
        }
      ],
      "stateMutability": "view",
      "type": "function"
    },
    {
      "inputs": [
        {
          "internalType": "bytes32",
          "name": "_currencyCode",
          "type": "bytes32"
        }
      ],
      "name": "removeCurrency",
      "outputs": [],
      "stateMutability": "nonpayable",
      "type": "function"
    },
    {
      "inputs": [
        {
          "internalType": "string",
          "name": "_removeProviderHash",
          "type": "string"
        }
      ],
      "name": "removeProviderHash",
      "outputs": [],
      "stateMutability": "nonpayable",
      "type": "function"
    },
    {
      "inputs": [],
      "name": "renounceOwnership",
      "outputs": [],
      "stateMutability": "nonpayable",
      "type": "function"
    },
    {
      "inputs": [
        {
          "internalType": "uint256",
          "name": "_timestampBuffer",
          "type": "uint256"
        }
      ],
      "name": "setTimestampBuffer",
      "outputs": [],
      "stateMutability": "nonpayable",
      "type": "function"
    },
    {
      "inputs": [],
      "name": "timestampBuffer",
      "outputs": [
        {
          "internalType": "uint256",
          "name": "",
          "type": "uint256"
        }
      ],
      "stateMutability": "view",
      "type": "function"
    },
    {
      "inputs": [
        {
          "internalType": "address",
          "name": "newOwner",
          "type": "address"
        }
      ],
      "name": "transferOwnership",
      "outputs": [],
      "stateMutability": "nonpayable",
      "type": "function"
    },
    {
      "inputs": [
        {
          "internalType": "bytes",
          "name": "_proof",
          "type": "bytes"
        },
        {
          "internalType": "address",
          "name": "_depositToken",
          "type": "address"
        },
        {
          "internalType": "uint256",
          "name": "_intentAmount",
          "type": "uint256"
        },
        {
          "internalType": "uint256",
          "name": "_intentTimestamp",
          "type": "uint256"
        },
        {
          "internalType": "string",
          "name": "_payeeDetails",
          "type": "string"
        },
        {
          "internalType": "bytes32",
          "name": "_fiatCurrency",
          "type": "bytes32"
        },
        {
          "internalType": "uint256",
          "name": "_conversionRate",
          "type": "uint256"
        },
        {
          "internalType": "bytes",
          "name": "_depositData",
          "type": "bytes"
        }
      ],
      "name": "verifyPayment",
      "outputs": [
        {
          "internalType": "bool",
          "name": "",
          "type": "bool"
        },
        {
          "internalType": "bytes32",
          "name": "",
          "type": "bytes32"
        }
      ],
      "stateMutability": "nonpayable",
      "type": "function"
    },
    {
      "inputs": [
        {
          "components": [
            {
              "components": [
                {
                  "internalType": "string",
                  "name": "provider",
                  "type": "string"
                },
                {
                  "internalType": "string",
                  "name": "parameters",
                  "type": "string"
                },
                {
                  "internalType": "string",
                  "name": "context",
                  "type": "string"
                }
              ],
              "internalType": "struct Claims.ClaimInfo",
              "name": "claimInfo",
              "type": "tuple"
            },
            {
              "components": [
                {
                  "components": [
                    {
                      "internalType": "bytes32",
                      "name": "identifier",
                      "type": "bytes32"
                    },
                    {
                      "internalType": "address",
                      "name": "owner",
                      "type": "address"
                    },
                    {
                      "internalType": "uint32",
                      "name": "timestampS",
                      "type": "uint32"
                    },
                    {
                      "internalType": "uint32",
                      "name": "epoch",
                      "type": "uint32"
                    }
                  ],
                  "internalType": "struct Claims.CompleteClaimData",
                  "name": "claim",
                  "type": "tuple"
                },
                {
                  "internalType": "bytes[]",
                  "name": "signatures",
                  "type": "bytes[]"
                }
              ],
              "internalType": "struct Claims.SignedClaim",
              "name": "signedClaim",
              "type": "tuple"
            }
          ],
          "internalType": "struct IReclaimVerifier.ReclaimProof",
          "name": "proof",
          "type": "tuple"
        },
        {
          "internalType": "address[]",
          "name": "_witnesses",
          "type": "address[]"
        },
        {
          "internalType": "uint256",
          "name": "_requiredThreshold",
          "type": "uint256"
        }
      ],
      "name": "verifyProofSignatures",
      "outputs": [
        {
          "internalType": "bool",
          "name": "",
          "type": "bool"
        }
      ],
      "stateMutability": "pure",
      "type": "function"
    }
  ],
  "transactionHash": "0xbcd6f7cafd40a4d40f914ad0b6d447fb51b587b801a5590e6b4e38ac47cb3238",
  "args": [
    "0x62055d989EFF377AEF3EbD6c37962348AB1C26fA",
    "0x5584a9f89FcE0cE187f925D5Bc0E2139658b9D82",
    "30",
    [
      "0xc4ae21aac0c6549d71dd96035b7e0bdb6c79ebdba8891b666115bc976d16a29e"
    ],
    [
      "0x5e3b19d2559f94bb09ec06bb3b11a099f47af374d54c8b98ee21efa3054357b1",
      "0xb03e3643371b78072eeaa716fd7a4817ee747c89eb4a4bab1596cb70c6b7a4a5",
      "0x007b71e8851d3164bb11ae5c87752d736ccd13d7c4da61ac4b6ef9656f9914c3",
      "0x94ec5a7a93a6cec9f698feb873cbcdfac7713e43e3ec7668733fea3d6ac76490",
      "0xea57e3cfddd27da488a4978ca409fce18fe1807e4a497097843e422bbcd8362d",
      "0x3cd9eec85a149743ac863ae77413035b351216c83390b5ebbf8079ad32b7941d",
      "0xa43372a0495ac5112be6e9c137ab47e89d2b40f2d1f1e99c539d956d893e36b1",
      "0xa5887be699d240b0c68eb2776c5b1376996abc47086d7bb5d23aff4c92afbcb0",
      "0xb4c0c5aae02661ad30a5ea9694c0d8042d97e60f27a2c500049087c69ac5a02b",
      "0xcd8f73c4deb3f3b68125102787da671bf08285578914aea229153398a13ec0bf",
      "0x20bdb76eb88364dec7e206ea36ea33143e9b4c198f5e8694907a08b7a7c33527",
      "0x93acc7ec44813fcc3d154413e990f6d5f6212402d4535a7aa93d26df557f47c3",
      "0xc3b9e2179a485c105e90900788a55347d8559630432cb6903409dcba151006c7",
      "0xdf0c89146134ac843a5d9a7ab44a7985a0a8b0602d4f5ef6d0d99cc88fe84dd9",
      "0x94ccfdf3ec40b72c280cce190d0d8164a5653bf2838fc1f29d8b7d1b01d210a1"
    ]
  ],
  "numDeployments": 1,
  "solcInputHash": "4f41effe5b2e563354f695e77a3da5fa",
  "bytecode": "0x60a06040523480156200001157600080fd5b5060405162003cc638038062003cc68339810160408190526200003491620005bc565b84848484848484848462000048336200027a565b6001600160a01b03848116608052600180546001600160a01b031916918516919091179055600282905560005b8151811015620000c157620000ac828281518110620000985762000098620006b9565b6020026020010151620002ca60201b60201c565b80620000b881620006cf565b91505062000075565b505050505060005b815181101562000269576005828281518110620000ea57620000ea620006b9565b6020026020010151604051620001019190620006f7565b9081526040519081900360200190205460ff1615620001675760405162461bcd60e51b815260206004820152601b60248201527f50726f7669646572206861736820616c7265616479206164646564000000000060448201526064015b60405180910390fd5b60016005838381518110620001805762000180620006b9565b6020026020010151604051620001979190620006f7565b908152602001604051809103902060006101000a81548160ff0219169083151502179055506006828281518110620001d357620001d3620006b9565b60209081029190910181015182546001810184556000938452919092200190620001fe9082620007a4565b507fc9e1c78701d1853eeb1eb35ad3449e4b336281f672d5837243d21239dc6f4096828281518110620002355762000235620006b9565b60200260200101516040516200024c919062000870565b60405180910390a1806200026081620006cf565b915050620000c9565b5050505050505050505050620008a5565b600080546001600160a01b038381166001600160a01b0319831681178455604051919092169283917f8be0079c531659141344cd1fd0a4f28419497f9722a3daafe3b4186f6b6457e09190a35050565b620002d4620003b6565b60008181526004602052604090205460ff1615620003355760405162461bcd60e51b815260206004820152601660248201527f43757272656e637920616c72656164792061646465640000000000000000000060448201526064016200015e565b6003805460018082019092557fc2575a0e9e593c00f959f8c92f12db2869c3395a3b0502d05e2516446f71f85b01829055600082815260046020908152604091829020805460ff1916909317909255518281527f15e2bb2d9733845f72b6cc683c4d7bafd2d79cfd5c160cb1be756b6faa97dbdc910160405180910390a150565b6000546001600160a01b03163314620004125760405162461bcd60e51b815260206004820181905260248201527f4f776e61626c653a2063616c6c6572206973206e6f7420746865206f776e657260448201526064016200015e565b565b6001600160a01b03811681146200042a57600080fd5b50565b634e487b7160e01b600052604160045260246000fd5b604051601f8201601f191681016001600160401b03811182821017156200046e576200046e6200042d565b604052919050565b60006001600160401b038211156200049257620004926200042d565b5060051b60200190565b60005b83811015620004b95781810151838201526020016200049f565b50506000910152565b6000601f8381840112620004d557600080fd5b82516020620004ee620004e88362000476565b62000443565b82815260059290921b850181019181810190878411156200050e57600080fd5b8287015b84811015620005b05780516001600160401b0380821115620005345760008081fd5b818a0191508a603f8301126200054a5760008081fd5b858201516040828211156200056357620005636200042d565b62000576828b01601f1916890162000443565b92508183528c818386010111156200058e5760008081fd5b6200059f828985018387016200049c565b505084525091830191830162000512565b50979650505050505050565b600080600080600060a08688031215620005d557600080fd5b8551620005e28162000414565b80955050602080870151620005f78162000414565b6040880151606089015191965094506001600160401b03808211156200061c57600080fd5b818901915089601f8301126200063157600080fd5b815162000642620004e88262000476565b81815260059190911b8301840190848101908c8311156200066257600080fd5b938501935b82851015620006825784518252938501939085019062000667565b60808c015190975094505050808311156200069c57600080fd5b5050620006ac88828901620004c2565b9150509295509295909350565b634e487b7160e01b600052603260045260246000fd5b600060018201620006f057634e487b7160e01b600052601160045260246000fd5b5060010190565b600082516200070b8184602087016200049c565b9190910192915050565b600181811c908216806200072a57607f821691505b6020821081036200074b57634e487b7160e01b600052602260045260246000fd5b50919050565b601f8211156200079f57600081815260208120601f850160051c810160208610156200077a5750805b601f850160051c820191505b818110156200079b5782815560010162000786565b5050505b505050565b81516001600160401b03811115620007c057620007c06200042d565b620007d881620007d1845462000715565b8462000751565b602080601f831160018114620008105760008415620007f75750858301515b600019600386901b1c1916600185901b1785556200079b565b600085815260208120601f198616915b82811015620008415788860151825594840194600190910190840162000820565b5085821015620008605787850151600019600388901b60f8161c191681555b5050505050600190811b01905550565b6020815260008251806020840152620008918160408501602087016200049c565b601f01601f19169190910160400192915050565b6080516133fe620008c8600039600081816102dd015261034601526133fe6000f3fe608060405234801561001057600080fd5b50600436106101215760003560e01c80638da5cb5b116100ad578063dbac582111610071578063dbac5821146102cf578063e2fdcc17146102d8578063efd4ad5a146102ff578063f2fde38b14610312578063f75885e21461032557600080fd5b80638da5cb5b1461025c578063b2a3fda414610281578063b870676c14610294578063bd6e7741146102a7578063c2107e73146102ba57600080fd5b806357c6e12a116100f457806357c6e12a146101cb57806361c661de146101eb578063680cc8f9146102005780636903718014610241578063715018a61461025457600080fd5b8063134586cc146101265780631cba9bed146101555780632ca6927d1461016a5780633e1d0edc146101a8575b600080fd5b6101396101343660046125b9565b610338565b6040805192151583526020830191909152015b60405180910390f35b6101686101633660046127a2565b61042a565b005b6101986101783660046127a2565b805160208183018101805160058252928201919093012091525460ff1681565b604051901515815260200161014c565b6101986101b63660046127d6565b60046020526000908152604090205460ff1681565b6101de6101d93660046127d6565b61050d565b60405161014c919061283f565b6101f36105b9565b60405161014c9190612852565b61023360405167434f4d504c45544560c01b60208201526028016040516020818303038152906040528051906020012081565b60405190815260200161014c565b61016861024f3660046127d6565b610611565b6101686106ec565b6000546001600160a01b03165b6040516001600160a01b03909116815260200161014c565b61016861028f3660046127d6565b610700565b600154610269906001600160a01b031681565b6101686102b53660046127a2565b61073d565b6102c2610853565b60405161014c9190612896565b61023360025481565b6102697f000000000000000000000000000000000000000000000000000000000000000081565b61016861030d3660046127d6565b61092c565b6101686103203660046128f8565b6109da565b610198610333366004612b89565b610a53565b600080336001600160a01b037f000000000000000000000000000000000000000000000000000000000000000016146103af5760405162461bcd60e51b815260206004820152601460248201527313db9b1e48195cd8dc9bddc818d85b8818d85b1b60621b60448201526064015b60405180910390fd5b60006103bd8e8e8787610d84565b90506103cf818d8d8d8d8d8d8d610e76565b61040281606001516040516020016103e79190612c54565b604051602081830303815290604052805190602001206111ad565b60c08101516001906104159060006112c8565b909f909e509c50505050505050505050505050565b6104326112e2565b6005816040516104429190612c54565b9081526040519081900360200190205460ff166104a15760405162461bcd60e51b815260206004820152601760248201527f50726f76696465722068617368206e6f7420666f756e6400000000000000000060448201526064016103a6565b6005816040516104b19190612c54565b908152604051908190036020019020805460ff191690556104d360068261133c565b7f6f594b4b4f0580c66aabba75218163a99fa1fe330a171cc9e2bfd8e167db22f881604051610502919061283f565b60405180910390a150565b6006818154811061051d57600080fd5b90600052602060002001600091509050805461053890612c70565b80601f016020809104026020016040519081016040528092919081815260200182805461056490612c70565b80156105b15780601f10610586576101008083540402835291602001916105b1565b820191906000526020600020905b81548152906001019060200180831161059457829003601f168201915b505050505081565b6060600380548060200260200160405190810160405280929190818152602001828054801561060757602002820191906000526020600020905b8154815260200190600101908083116105f3575b5050505050905090565b6106196112e2565b60008181526004602052604090205460ff16156106715760405162461bcd60e51b815260206004820152601660248201527510dd5c9c995b98de48185b1c9958591e48185919195960521b60448201526064016103a6565b6003805460018082019092557fc2575a0e9e593c00f959f8c92f12db2869c3395a3b0502d05e2516446f71f85b01829055600082815260046020908152604091829020805460ff1916909317909255518281527f15e2bb2d9733845f72b6cc683c4d7bafd2d79cfd5c160cb1be756b6faa97dbdc9101610502565b6106f46112e2565b6106fe60006114f6565b565b6107086112e2565b60028190556040518181527f11e8dda5412ecab251b7783921be2eb37fdf13b389fc7f671f2cee11a1dfefea90602001610502565b6107456112e2565b6005816040516107559190612c54565b9081526040519081900360200190205460ff16156107b55760405162461bcd60e51b815260206004820152601b60248201527f50726f7669646572206861736820616c7265616479206164646564000000000060448201526064016103a6565b60016005826040516107c79190612c54565b908152604051908190036020019020805491151560ff19909216919091179055600680546001810182556000919091527ff652222313e28459528d920b65115c16c04f3efc82aaedc97be59f3f377c0d3f016108238282612cf9565b507fc9e1c78701d1853eeb1eb35ad3449e4b336281f672d5837243d21239dc6f409681604051610502919061283f565b60606006805480602002602001604051908101604052809291908181526020016000905b8282101561092357838290600052602060002001805461089690612c70565b80601f01602080910402602001604051908101604052809291908181526020018280546108c290612c70565b801561090f5780601f106108e45761010080835404028352916020019161090f565b820191906000526020600020905b8154815290600101906020018083116108f257829003601f168201915b505050505081526020019060010190610877565b50505050905090565b6109346112e2565b60008181526004602052604090205460ff166109875760405162461bcd60e51b815260206004820152601260248201527110dd5c9c995b98de481b9bdd08185919195960721b60448201526064016103a6565b610992600382611546565b60008181526004602052604090819020805460ff19169055517fa3c6a408fb053e3ef5e9bcd22e3574324a5ae99fad263cc4080da481842d3d4c906105029083815260200190565b6109e26112e2565b6001600160a01b038116610a475760405162461bcd60e51b815260206004820152602660248201527f4f776e61626c653a206e6577206f776e657220697320746865207a65726f206160448201526564647265737360d01b60648201526084016103a6565b610a50816114f6565b50565b6000808211610ab65760405162461bcd60e51b815260206004820152602960248201527f5265717569726564207468726573686f6c64206d75737420626520677265617460448201526806572207468616e20360bc1b60648201526084016103a6565b8251821115610b3b5760405162461bcd60e51b8152602060048201526044602482018190527f5265717569726564207468726573686f6c64206d757374206265206c65737320908201527f7468616e206f7220657175616c20746f206e756d626572206f66207769746e656064820152637373657360e01b608482015260a4016103a6565b60008460200151602001515111610b845760405162461bcd60e51b815260206004820152600d60248201526c4e6f207369676e61747572657360981b60448201526064016103a6565b604080518082019091526020808601805151835251810151908201528451600090610bae9061166e565b602087015151519091508114610c065760405162461bcd60e51b815260206004820152601c60248201527f436c61696d496e666f206861736820646f65736e2774206d617463680000000060448201526064016103a6565b80610c4c5760405162461bcd60e51b8152602060048201526016602482015275436c61696d496e666f2068617368206973207a65726f60501b60448201526064016103a6565b6000610c57836116b1565b90508481511015610cbb5760405162461bcd60e51b815260206004820152602860248201527f4665776572207369676e617475726573207468616e20726571756972656420746044820152671a1c995cda1bdb1960c21b60648201526084016103a6565b6000805b8251811015610d1957610cf4838281518110610cdd57610cdd612db8565b60200260200101518961178a90919063ffffffff16565b15610d075781610d0381612de4565b9250505b80610d1181612de4565b915050610cbf565b5085811015610d765760405162461bcd60e51b815260206004820152602360248201527f4e6f7420656e6f7567682076616c6964207769746e657373207369676e61747560448201526272657360e81b60648201526084016103a6565b506001979650505050505050565b610d8c6124c5565b6000610d9a85870187612dfd565b90506000610da885856117a0565b60408051600180825281830190925291925060009190602080830190803683370190505090508181600081518110610de257610de2612db8565b60200260200101906001600160a01b031690816001600160a01b031681525050610e0e83826001610a53565b50610e18836117ae565b9350610e278460e00151611954565b610e6b5760405162461bcd60e51b815260206004820152601560248201527409cde40ecc2d8d2c840e0e4deecd2c8cae490c2e6d605b1b60448201526064016103a6565b505050949350505050565b6000670de0b6b3a7640000610e8b8389612e31565b610e959190612e5e565b90506000886001600160a01b031663313ce5676040518163ffffffff1660e01b8152600401602060405180830381865afa158015610ed7573d6000803e3d6000fd5b505050506040513d601f19601f82011682018060405250810190610efb9190612e72565b90506000610f0d8b600001518361197f565b905082811015610f5f5760405162461bcd60e51b815260206004820152601860248201527f496e636f7272656374207061796d656e7420616d6f756e74000000000000000060448201526064016103a6565b610fa387878080601f01602080910402602001604051908101604052809392919081815260200183838082843760009201919091525050505060a08d015190611999565b610fef5760405162461bcd60e51b815260206004820152601b60248201527f496e636f7272656374207061796d656e7420726563697069656e74000000000060448201526064016103a6565b60006002546103e861100f60008f602001516112c890919063ffffffff16565b6110199190612e5e565b6110239190612e95565b9050888110156110755760405162461bcd60e51b815260206004820152601b60248201527f496e636f7272656374207061796d656e742074696d657374616d70000000000060448201526064016103a6565b858c6040015160405160200161108b9190612c54565b60405160208183030381529060405280519060200120146110ee5760405162461bcd60e51b815260206004820152601a60248201527f496e636f7272656374207061796d656e742063757272656e637900000000000060448201526064016103a6565b60405167434f4d504c45544560c01b6020820152602801604051602081830303815290604052805190602001208c608001516040516020016111309190612c54565b604051602081830303815290604052805190602001201461119f5760405162461bcd60e51b8152602060048201526024808201527f5061796d656e7420737461747573206e6f7420636f6e6669726d6564206173206044820152631cd95b9d60e21b60648201526084016103a6565b505050505050505050505050565b60015460405163169394bb60e01b8152600481018390526001600160a01b039091169063169394bb90602401602060405180830381865afa1580156111f6573d6000803e3d6000fd5b505050506040513d601f19601f8201168201806040525081019061121a9190612ea8565b156112675760405162461bcd60e51b815260206004820152601f60248201527f4e756c6c69666965722068617320616c7265616479206265656e20757365640060448201526064016103a6565b600154604051632dea6f9960e11b8152600481018390526001600160a01b0390911690635bd4df3290602401600060405180830381600087803b1580156112ad57600080fd5b505af11580156112c1573d6000803e3d6000fd5b5050505050565b60006112d983601760f91b846119f2565b90505b92915050565b6000546001600160a01b031633146106fe5760405162461bcd60e51b815260206004820181905260248201527f4f776e61626c653a2063616c6c6572206973206e6f7420746865206f776e657260448201526064016103a6565b60008061141984805480602002602001604051908101604052809291908181526020016000905b8282101561140f57838290600052602060002001805461138290612c70565b80601f01602080910402602001604051908101604052809291908181526020018280546113ae90612c70565b80156113fb5780601f106113d0576101008083540402835291602001916113fb565b820191906000526020600020905b8154815290600101906020018083116113de57829003601f168201915b505050505081526020019060010190611363565b5050505084611bcf565b91509150806114615760405162461bcd60e51b815260206004820152601460248201527329ba3934b733903737ba1034b71030b93930bc9760611b60448201526064016103a6565b835460009061147290600190612eca565b90508083146114c15784818154811061148d5761148d612db8565b906000526020600020018584815481106114a9576114a9612db8565b9060005260206000200190816114bf9190612edd565b505b848054806114d1576114d1612faf565b6001900381819060005260206000200160006114ed919061250a565b90555050505050565b600080546001600160a01b038381166001600160a01b0319831681178455604051919092169283917f8be0079c531659141344cd1fd0a4f28419497f9722a3daafe3b4186f6b6457e09190a35050565b6000806115a28480548060200260200160405190810160405280929190818152602001828054801561159757602002820191906000526020600020905b815481526020019060010190808311611583575b505050505084611c40565b91509150806115eb5760405162461bcd60e51b8152602060048201526015602482015274313cba32b99999103737ba1034b71030b93930bc9760591b60448201526064016103a6565b83546000906115fc90600190612eca565b90508083146116415784818154811061161757611617612db8565b906000526020600020015485848154811061163457611634612db8565b6000918252602090912001555b8480548061165157611651612faf565b600190038181906000526020600020016000905590555050505050565b60008082600001518360200151846040015160405160200161169293929190612fc5565b60408051601f1981840301815291905280516020909101209392505050565b606060006116c28360000151611c90565b905060008360200151516001600160401b038111156116e3576116e361268d565b60405190808252806020026020018201604052801561170c578160200160208202803683370190505b50905060005b84602001515181101561178257611746838660200151838151811061173957611739612db8565b6020026020010151611d1c565b82828151811061175857611758612db8565b6001600160a01b03909216602092830291909101909101528061177a81612de4565b915050611712565b509392505050565b6000806117978484611d65565b95945050505050565b60006112d9828401846128f8565b6117b66124c5565b8151604090810151905163097cda9f60e31b8152600091737884818B6f9022A868623CbAAD4b80027EB361EE91634be6d4f8916117fb91600990600190600401613020565b600060405180830381865af4158015611818573d6000803e3d6000fd5b505050506040513d6000823e601f3d908101601f19168201604052611840919081019061304d565b90506040518061010001604052808260018151811061186157611861612db8565b602002602001015181526020018260038151811061188157611881612db8565b60200260200101518152602001826002815181106118a1576118a1612db8565b60200260200101518152602001826004815181106118c1576118c1612db8565b60200260200101518152602001826006815181106118e1576118e1612db8565b602002602001015181526020018260058151811061190157611901612db8565b602002602001015181526020018260078151811061192157611921612db8565b602002602001015181526020018260088151811061194157611941612db8565b6020026020010151815250915050919050565b60006005826040516119669190612c54565b9081526040519081900360200190205460ff1692915050565b60006112d961198f600284613139565b849060ff166112c8565b6000816040516020016119ac9190612c54565b60405160208183030381529060405280519060200120836040516020016119d39190612c54565b6040516020818303038152906040528051906020012014905092915050565b600083818080805b8451811015611b4857603060f81b858281518110611a1a57611a1a612db8565b01602001516001600160f81b03191610801590611a5b5750603960f81b858281518110611a4957611a49612db8565b01602001516001600160f81b03191611155b15611a9e576030858281518110611a7457611a74612db8565b0160200151611a86919060f81c612eca565b611a9185600a612e31565b611a9b9190612e95565b93505b8115611ab25782611aae81612de4565b9350505b876001600160f81b031916858281518110611acf57611acf612db8565b01602001516001600160f81b03191603611b36578115611b315760405162461bcd60e51b815260206004820152601c60248201527f537472696e6720686173206d756c7469706c6520646563696d616c730000000060448201526064016103a6565b600191505b80611b4081612de4565b9150506119fa565b5085821115611ba45760405162461bcd60e51b815260206004820152602260248201527f537472696e672068617320746f6f206d616e7920646563696d616c20706c6163604482015261657360f01b60648201526084016103a6565b611bae8287612eca565b611bb990600a613236565b611bc39084612e31565b98975050505050505050565b81516000908190815b81811015611c2d578480519060200120868281518110611bfa57611bfa612db8565b60200260200101518051906020012003611c1b57925060019150611c399050565b80611c2581612de4565b915050611bd8565b50600019600092509250505b9250929050565b81516000908190815b81811015611c2d5784868281518110611c6457611c64612db8565b602002602001015103611c7e57925060019150611c399050565b80611c8881612de4565b915050611c49565b6060611cc08260000151604051602001611cac91815260200190565b604051602081830303815290604052611dc7565b611ccd8360200151611f8a565b611ce0846040015163ffffffff166120f3565b611cf3856060015163ffffffff166120f3565b604051602001611d069493929190613242565b6040516020818303038152906040529050919050565b600080611d2984516120f3565b84604051602001611d3b9291906132bb565b604051602081830303815290604052805190602001209050611d5d818461221e565b949350505050565b81516000908190815b81811015611c2d57846001600160a01b0316868281518110611d9257611d92612db8565b60200260200101516001600160a01b031603611db557925060019150611c399050565b80611dbf81612de4565b915050611d6e565b6060600082516002611dd99190612e31565b6001600160401b03811115611df057611df061268d565b6040519080825280601f01601f191660200182016040528015611e1a576020820181803683370190505b5060408051808201909152601081526f181899199a1a9b1b9c1cb0b131b232b360811b602082015290915060005b8451811015611f6057818251868381518110611e6657611e66612db8565b0160200151611e78919060f81c612e5e565b81518110611e8857611e88612db8565b01602001516001600160f81b03191683611ea3836002612e31565b81518110611eb357611eb3612db8565b60200101906001600160f81b031916908160001a905350818251868381518110611edf57611edf612db8565b0160200151611ef1919060f81c613316565b81518110611f0157611f01612db8565b01602001516001600160f81b03191683611f1c836002612e31565b611f27906001612e95565b81518110611f3757611f37612db8565b60200101906001600160f81b031916908160001a90535080611f5881612de4565b915050611e48565b5081604051602001611f72919061332a565b60405160208183030381529060405292505050919050565b60408051602880825260608281019093526000919060208201818036833701905050905060005b60148110156120ca576000611fc7826013612eca565b611fd2906008612e31565b611fdd906002613236565b611ff0906001600160a01b038716612e5e565b60f81b9050600060108260f81c6120079190613354565b60f81b905060008160f81c601061201e9190613376565b8360f81c61202c9190613139565b60f81b905061203a8261223a565b85612046866002612e31565b8151811061205657612056612db8565b60200101906001600160f81b031916908160001a9053506120768161223a565b85612082866002612e31565b61208d906001612e95565b8151811061209d5761209d612db8565b60200101906001600160f81b031916908160001a90535050505080806120c290612de4565b915050611fb1565b50806040516020016120dc919061332a565b604051602081830303815290604052915050919050565b60608160000361211a5750506040805180820190915260018152600360fc1b602082015290565b8160005b8115612144578061212e81612de4565b915061213d9050600a83612e5e565b915061211e565b6000816001600160401b0381111561215e5761215e61268d565b6040519080825280601f01601f191660200182016040528015612188576020820181803683370190505b509050815b85156122155761219e600182612eca565b905060006121ad600a88612e5e565b6121b890600a612e31565b6121c29088612eca565b6121cd906030613399565b905060008160f81b9050808484815181106121ea576121ea612db8565b60200101906001600160f81b031916908160001a90535061220c600a89612e5e565b9750505061218d565b50949350505050565b600080600061222d8585612275565b91509150611782816122b7565b6000600a60f883901c10156122615761225860f883901c6030613399565b60f81b92915050565b61225860f883901c6057613399565b919050565b60008082516041036122ab5760208301516040840151606085015160001a61229f87828585612401565b94509450505050611c39565b50600090506002611c39565b60008160048111156122cb576122cb6133b2565b036122d35750565b60018160048111156122e7576122e76133b2565b036123345760405162461bcd60e51b815260206004820152601860248201527f45434453413a20696e76616c6964207369676e6174757265000000000000000060448201526064016103a6565b6002816004811115612348576123486133b2565b036123955760405162461bcd60e51b815260206004820152601f60248201527f45434453413a20696e76616c6964207369676e6174757265206c656e6774680060448201526064016103a6565b60038160048111156123a9576123a96133b2565b03610a505760405162461bcd60e51b815260206004820152602260248201527f45434453413a20696e76616c6964207369676e6174757265202773272076616c604482015261756560f01b60648201526084016103a6565b6000807f7fffffffffffffffffffffffffffffff5d576e7357a4501ddfe92f46681b20a083111561243857506000905060036124bc565b6040805160008082526020820180845289905260ff881692820192909252606081018690526080810185905260019060a0016020604051602081039080840390855afa15801561248c573d6000803e3d6000fd5b5050604051601f1901519150506001600160a01b0381166124b5576000600192509250506124bc565b9150600090505b94509492505050565b60405180610100016040528060608152602001606081526020016060815260200160608152602001606081526020016060815260200160608152602001606081525090565b50805461251690612c70565b6000825580601f10612526575050565b601f016020900490600052602060002090810190610a5091905b808211156125545760008155600101612540565b5090565b60008083601f84011261256a57600080fd5b5081356001600160401b0381111561258157600080fd5b602083019150836020828501011115611c3957600080fd5b6001600160a01b0381168114610a5057600080fd5b803561227081612599565b60008060008060008060008060008060006101008c8e0312156125db57600080fd5b6001600160401b03808d3511156125f157600080fd5b6125fe8e8e358f01612558565b909c509a5061260f60208e016125ae565b995060408d0135985060608d013597508060808e0135111561263057600080fd5b6126408e60808f01358f01612558565b909750955060a08d0135945060c08d0135935060e08d013581101561266457600080fd5b506126758d60e08e01358e01612558565b81935080925050509295989b509295989b9093969950565b634e487b7160e01b600052604160045260246000fd5b604080519081016001600160401b03811182821017156126c5576126c561268d565b60405290565b604051606081016001600160401b03811182821017156126c5576126c561268d565b604051601f8201601f191681016001600160401b03811182821017156127155761271561268d565b604052919050565b60006001600160401b038211156127365761273661268d565b50601f01601f191660200190565b60006127576127528461271d565b6126ed565b905082815283838301111561276b57600080fd5b828260208301376000602084830101529392505050565b600082601f83011261279357600080fd5b6112d983833560208501612744565b6000602082840312156127b457600080fd5b81356001600160401b038111156127ca57600080fd5b611d5d84828501612782565b6000602082840312156127e857600080fd5b5035919050565b60005b8381101561280a5781810151838201526020016127f2565b50506000910152565b6000815180845261282b8160208601602086016127ef565b601f01601f19169290920160200192915050565b6020815260006112d96020830184612813565b6020808252825182820181905260009190848201906040850190845b8181101561288a5783518352928401929184019160010161286e565b50909695505050505050565b6000602080830181845280855180835260408601915060408160051b870101925083870160005b828110156128eb57603f198886030184526128d9858351612813565b945092850192908501906001016128bd565b5092979650505050505050565b60006020828403121561290a57600080fd5b813561291581612599565b9392505050565b803563ffffffff8116811461227057600080fd5b60006001600160401b038211156129495761294961268d565b5060051b60200190565b600082601f83011261296457600080fd5b8135602061297461275283612930565b82815260059290921b8401810191818101908684111561299357600080fd5b8286015b848110156129e75780356001600160401b038111156129b65760008081fd5b8701603f810189136129c85760008081fd5b6129d9898683013560408401612744565b845250918301918301612997565b509695505050505050565b600081830360a0811215612a0557600080fd5b612a0d6126a3565b91506080811215612a1d57600080fd5b50604051608081016001600160401b038282108183111715612a4157612a4161268d565b816040528435835260208501359150612a5982612599565b816020840152612a6b6040860161291c565b6040840152612a7c6060860161291c565b606084015291835260808401359180831115612a9757600080fd5b5050612aa584828501612953565b60208301525092915050565b600060408284031215612ac357600080fd5b612acb6126a3565b905081356001600160401b0380821115612ae457600080fd5b9083019060608286031215612af857600080fd5b612b006126cb565b823582811115612b0f57600080fd5b612b1b87828601612782565b825250602083013582811115612b3057600080fd5b612b3c87828601612782565b602083015250604083013582811115612b5457600080fd5b612b6087828601612782565b60408301525083526020840135915080821115612b7c57600080fd5b50612aa5848285016129f2565b600080600060608486031215612b9e57600080fd5b83356001600160401b0380821115612bb557600080fd5b612bc187838801612ab1565b9450602091508186013581811115612bd857600080fd5b86019050601f81018713612beb57600080fd5b8035612bf961275282612930565b81815260059190911b82018301908381019089831115612c1857600080fd5b928401925b82841015612c3f578335612c3081612599565b82529284019290840190612c1d565b96999698505050506040949094013593505050565b60008251612c668184602087016127ef565b9190910192915050565b600181811c90821680612c8457607f821691505b602082108103612ca457634e487b7160e01b600052602260045260246000fd5b50919050565b601f821115612cf457600081815260208120601f850160051c81016020861015612cd15750805b601f850160051c820191505b81811015612cf057828155600101612cdd565b5050505b505050565b81516001600160401b03811115612d1257612d1261268d565b612d2681612d208454612c70565b84612caa565b602080601f831160018114612d5b5760008415612d435750858301515b600019600386901b1c1916600185901b178555612cf0565b600085815260208120601f198616915b82811015612d8a57888601518255948401946001909101908401612d6b565b5085821015612da85787850151600019600388901b60f8161c191681555b5050505050600190811b01905550565b634e487b7160e01b600052603260045260246000fd5b634e487b7160e01b600052601160045260246000fd5b600060018201612df657612df6612dce565b5060010190565b600060208284031215612e0f57600080fd5b81356001600160401b03811115612e2557600080fd5b611d5d84828501612ab1565b80820281158282048414176112dc576112dc612dce565b634e487b7160e01b600052601260045260246000fd5b600082612e6d57612e6d612e48565b500490565b600060208284031215612e8457600080fd5b815160ff8116811461291557600080fd5b808201808211156112dc576112dc612dce565b600060208284031215612eba57600080fd5b8151801515811461291557600080fd5b818103818111156112dc576112dc612dce565b818103612ee8575050565b612ef28254612c70565b6001600160401b03811115612f0957612f0961268d565b612f1781612d208454612c70565b6000601f821160018114612f4b5760008315612f335750848201545b600019600385901b1c1916600184901b1784556112c1565b600085815260209020601f19841690600086815260209020845b83811015612f855782860154825560019586019590910190602001612f65565b5085831015612da85793015460001960f8600387901b161c19169092555050600190811b01905550565b634e487b7160e01b600052603160045260246000fd5b60008451612fd78184602089016127ef565b600560f91b9083018181528551909190612ff8816001850160208a016127ef565b600192019182015283516130138160028401602088016127ef565b0160020195945050505050565b6060815260006130336060830186612813565b60ff94909416602083015250901515604090910152919050565b6000602080838503121561306057600080fd5b82516001600160401b038082111561307757600080fd5b818501915085601f83011261308b57600080fd5b815161309961275282612930565b81815260059190911b830184019084810190888311156130b857600080fd5b8585015b8381101561312c578051858111156130d45760008081fd5b8601603f81018b136130e65760008081fd5b8781015160406130f86127528361271d565b8281528d8284860101111561310d5760008081fd5b61311c838c83018487016127ef565b86525050509186019186016130bc565b5098975050505050505050565b60ff82811682821603908111156112dc576112dc612dce565b600181815b8085111561318d57816000190482111561317357613173612dce565b8085161561318057918102915b93841c9390800290613157565b509250929050565b6000826131a4575060016112dc565b816131b1575060006112dc565b81600181146131c757600281146131d1576131ed565b60019150506112dc565b60ff8411156131e2576131e2612dce565b50506001821b6112dc565b5060208310610133831016604e8410600b8410161715613210575081810a6112dc565b61321a8383613152565b806000190482111561322e5761322e612dce565b029392505050565b60006112d98383613195565b60008551613254818460208a016127ef565b600560f91b9083018181528651909190613275816001850160208b016127ef565b600192019182018190528551613292816002850160208a016127ef565b600292019182015283516132ad8160038401602088016127ef565b016003019695505050505050565b7f19457468657265756d205369676e6564204d6573736167653a0a0000000000008152600083516132f381601a8501602088016127ef565b83519083019061330a81601a8401602088016127ef565b01601a01949350505050565b60008261332557613325612e48565b500690565b61060f60f31b8152600082516133478160028501602087016127ef565b9190910160020192915050565b600060ff83168061336757613367612e48565b8060ff84160491505092915050565b60ff818116838216029081169081811461339257613392612dce565b5092915050565b60ff81811683821601908111156112dc576112dc612dce565b634e487b7160e01b600052602160045260246000fdfea2646970667358221220163ed3f8150ed24a21bd6ef94f04688c0548d197dbc3d24f6bdaa5833a9d8b8c64736f6c63430008120033",
  "deployedBytecode": "0x608060405234801561001057600080fd5b50600436106101215760003560e01c80638da5cb5b116100ad578063dbac582111610071578063dbac5821146102cf578063e2fdcc17146102d8578063efd4ad5a146102ff578063f2fde38b14610312578063f75885e21461032557600080fd5b80638da5cb5b1461025c578063b2a3fda414610281578063b870676c14610294578063bd6e7741146102a7578063c2107e73146102ba57600080fd5b806357c6e12a116100f457806357c6e12a146101cb57806361c661de146101eb578063680cc8f9146102005780636903718014610241578063715018a61461025457600080fd5b8063134586cc146101265780631cba9bed146101555780632ca6927d1461016a5780633e1d0edc146101a8575b600080fd5b6101396101343660046125b9565b610338565b6040805192151583526020830191909152015b60405180910390f35b6101686101633660046127a2565b61042a565b005b6101986101783660046127a2565b805160208183018101805160058252928201919093012091525460ff1681565b604051901515815260200161014c565b6101986101b63660046127d6565b60046020526000908152604090205460ff1681565b6101de6101d93660046127d6565b61050d565b60405161014c919061283f565b6101f36105b9565b60405161014c9190612852565b61023360405167434f4d504c45544560c01b60208201526028016040516020818303038152906040528051906020012081565b60405190815260200161014c565b61016861024f3660046127d6565b610611565b6101686106ec565b6000546001600160a01b03165b6040516001600160a01b03909116815260200161014c565b61016861028f3660046127d6565b610700565b600154610269906001600160a01b031681565b6101686102b53660046127a2565b61073d565b6102c2610853565b60405161014c9190612896565b61023360025481565b6102697f000000000000000000000000000000000000000000000000000000000000000081565b61016861030d3660046127d6565b61092c565b6101686103203660046128f8565b6109da565b610198610333366004612b89565b610a53565b600080336001600160a01b037f000000000000000000000000000000000000000000000000000000000000000016146103af5760405162461bcd60e51b815260206004820152601460248201527313db9b1e48195cd8dc9bddc818d85b8818d85b1b60621b60448201526064015b60405180910390fd5b60006103bd8e8e8787610d84565b90506103cf818d8d8d8d8d8d8d610e76565b61040281606001516040516020016103e79190612c54565b604051602081830303815290604052805190602001206111ad565b60c08101516001906104159060006112c8565b909f909e509c50505050505050505050505050565b6104326112e2565b6005816040516104429190612c54565b9081526040519081900360200190205460ff166104a15760405162461bcd60e51b815260206004820152601760248201527f50726f76696465722068617368206e6f7420666f756e6400000000000000000060448201526064016103a6565b6005816040516104b19190612c54565b908152604051908190036020019020805460ff191690556104d360068261133c565b7f6f594b4b4f0580c66aabba75218163a99fa1fe330a171cc9e2bfd8e167db22f881604051610502919061283f565b60405180910390a150565b6006818154811061051d57600080fd5b90600052602060002001600091509050805461053890612c70565b80601f016020809104026020016040519081016040528092919081815260200182805461056490612c70565b80156105b15780601f10610586576101008083540402835291602001916105b1565b820191906000526020600020905b81548152906001019060200180831161059457829003601f168201915b505050505081565b6060600380548060200260200160405190810160405280929190818152602001828054801561060757602002820191906000526020600020905b8154815260200190600101908083116105f3575b5050505050905090565b6106196112e2565b60008181526004602052604090205460ff16156106715760405162461bcd60e51b815260206004820152601660248201527510dd5c9c995b98de48185b1c9958591e48185919195960521b60448201526064016103a6565b6003805460018082019092557fc2575a0e9e593c00f959f8c92f12db2869c3395a3b0502d05e2516446f71f85b01829055600082815260046020908152604091829020805460ff1916909317909255518281527f15e2bb2d9733845f72b6cc683c4d7bafd2d79cfd5c160cb1be756b6faa97dbdc9101610502565b6106f46112e2565b6106fe60006114f6565b565b6107086112e2565b60028190556040518181527f11e8dda5412ecab251b7783921be2eb37fdf13b389fc7f671f2cee11a1dfefea90602001610502565b6107456112e2565b6005816040516107559190612c54565b9081526040519081900360200190205460ff16156107b55760405162461bcd60e51b815260206004820152601b60248201527f50726f7669646572206861736820616c7265616479206164646564000000000060448201526064016103a6565b60016005826040516107c79190612c54565b908152604051908190036020019020805491151560ff19909216919091179055600680546001810182556000919091527ff652222313e28459528d920b65115c16c04f3efc82aaedc97be59f3f377c0d3f016108238282612cf9565b507fc9e1c78701d1853eeb1eb35ad3449e4b336281f672d5837243d21239dc6f409681604051610502919061283f565b60606006805480602002602001604051908101604052809291908181526020016000905b8282101561092357838290600052602060002001805461089690612c70565b80601f01602080910402602001604051908101604052809291908181526020018280546108c290612c70565b801561090f5780601f106108e45761010080835404028352916020019161090f565b820191906000526020600020905b8154815290600101906020018083116108f257829003601f168201915b505050505081526020019060010190610877565b50505050905090565b6109346112e2565b60008181526004602052604090205460ff166109875760405162461bcd60e51b815260206004820152601260248201527110dd5c9c995b98de481b9bdd08185919195960721b60448201526064016103a6565b610992600382611546565b60008181526004602052604090819020805460ff19169055517fa3c6a408fb053e3ef5e9bcd22e3574324a5ae99fad263cc4080da481842d3d4c906105029083815260200190565b6109e26112e2565b6001600160a01b038116610a475760405162461bcd60e51b815260206004820152602660248201527f4f776e61626c653a206e6577206f776e657220697320746865207a65726f206160448201526564647265737360d01b60648201526084016103a6565b610a50816114f6565b50565b6000808211610ab65760405162461bcd60e51b815260206004820152602960248201527f5265717569726564207468726573686f6c64206d75737420626520677265617460448201526806572207468616e20360bc1b60648201526084016103a6565b8251821115610b3b5760405162461bcd60e51b8152602060048201526044602482018190527f5265717569726564207468726573686f6c64206d757374206265206c65737320908201527f7468616e206f7220657175616c20746f206e756d626572206f66207769746e656064820152637373657360e01b608482015260a4016103a6565b60008460200151602001515111610b845760405162461bcd60e51b815260206004820152600d60248201526c4e6f207369676e61747572657360981b60448201526064016103a6565b604080518082019091526020808601805151835251810151908201528451600090610bae9061166e565b602087015151519091508114610c065760405162461bcd60e51b815260206004820152601c60248201527f436c61696d496e666f206861736820646f65736e2774206d617463680000000060448201526064016103a6565b80610c4c5760405162461bcd60e51b8152602060048201526016602482015275436c61696d496e666f2068617368206973207a65726f60501b60448201526064016103a6565b6000610c57836116b1565b90508481511015610cbb5760405162461bcd60e51b815260206004820152602860248201527f4665776572207369676e617475726573207468616e20726571756972656420746044820152671a1c995cda1bdb1960c21b60648201526084016103a6565b6000805b8251811015610d1957610cf4838281518110610cdd57610cdd612db8565b60200260200101518961178a90919063ffffffff16565b15610d075781610d0381612de4565b9250505b80610d1181612de4565b915050610cbf565b5085811015610d765760405162461bcd60e51b815260206004820152602360248201527f4e6f7420656e6f7567682076616c6964207769746e657373207369676e61747560448201526272657360e81b60648201526084016103a6565b506001979650505050505050565b610d8c6124c5565b6000610d9a85870187612dfd565b90506000610da885856117a0565b60408051600180825281830190925291925060009190602080830190803683370190505090508181600081518110610de257610de2612db8565b60200260200101906001600160a01b031690816001600160a01b031681525050610e0e83826001610a53565b50610e18836117ae565b9350610e278460e00151611954565b610e6b5760405162461bcd60e51b815260206004820152601560248201527409cde40ecc2d8d2c840e0e4deecd2c8cae490c2e6d605b1b60448201526064016103a6565b505050949350505050565b6000670de0b6b3a7640000610e8b8389612e31565b610e959190612e5e565b90506000886001600160a01b031663313ce5676040518163ffffffff1660e01b8152600401602060405180830381865afa158015610ed7573d6000803e3d6000fd5b505050506040513d601f19601f82011682018060405250810190610efb9190612e72565b90506000610f0d8b600001518361197f565b905082811015610f5f5760405162461bcd60e51b815260206004820152601860248201527f496e636f7272656374207061796d656e7420616d6f756e74000000000000000060448201526064016103a6565b610fa387878080601f01602080910402602001604051908101604052809392919081815260200183838082843760009201919091525050505060a08d015190611999565b610fef5760405162461bcd60e51b815260206004820152601b60248201527f496e636f7272656374207061796d656e7420726563697069656e74000000000060448201526064016103a6565b60006002546103e861100f60008f602001516112c890919063ffffffff16565b6110199190612e5e565b6110239190612e95565b9050888110156110755760405162461bcd60e51b815260206004820152601b60248201527f496e636f7272656374207061796d656e742074696d657374616d70000000000060448201526064016103a6565b858c6040015160405160200161108b9190612c54565b60405160208183030381529060405280519060200120146110ee5760405162461bcd60e51b815260206004820152601a60248201527f496e636f7272656374207061796d656e742063757272656e637900000000000060448201526064016103a6565b60405167434f4d504c45544560c01b6020820152602801604051602081830303815290604052805190602001208c608001516040516020016111309190612c54565b604051602081830303815290604052805190602001201461119f5760405162461bcd60e51b8152602060048201526024808201527f5061796d656e7420737461747573206e6f7420636f6e6669726d6564206173206044820152631cd95b9d60e21b60648201526084016103a6565b505050505050505050505050565b60015460405163169394bb60e01b8152600481018390526001600160a01b039091169063169394bb90602401602060405180830381865afa1580156111f6573d6000803e3d6000fd5b505050506040513d601f19601f8201168201806040525081019061121a9190612ea8565b156112675760405162461bcd60e51b815260206004820152601f60248201527f4e756c6c69666965722068617320616c7265616479206265656e20757365640060448201526064016103a6565b600154604051632dea6f9960e11b8152600481018390526001600160a01b0390911690635bd4df3290602401600060405180830381600087803b1580156112ad57600080fd5b505af11580156112c1573d6000803e3d6000fd5b5050505050565b60006112d983601760f91b846119f2565b90505b92915050565b6000546001600160a01b031633146106fe5760405162461bcd60e51b815260206004820181905260248201527f4f776e61626c653a2063616c6c6572206973206e6f7420746865206f776e657260448201526064016103a6565b60008061141984805480602002602001604051908101604052809291908181526020016000905b8282101561140f57838290600052602060002001805461138290612c70565b80601f01602080910402602001604051908101604052809291908181526020018280546113ae90612c70565b80156113fb5780601f106113d0576101008083540402835291602001916113fb565b820191906000526020600020905b8154815290600101906020018083116113de57829003601f168201915b505050505081526020019060010190611363565b5050505084611bcf565b91509150806114615760405162461bcd60e51b815260206004820152601460248201527329ba3934b733903737ba1034b71030b93930bc9760611b60448201526064016103a6565b835460009061147290600190612eca565b90508083146114c15784818154811061148d5761148d612db8565b906000526020600020018584815481106114a9576114a9612db8565b9060005260206000200190816114bf9190612edd565b505b848054806114d1576114d1612faf565b6001900381819060005260206000200160006114ed919061250a565b90555050505050565b600080546001600160a01b038381166001600160a01b0319831681178455604051919092169283917f8be0079c531659141344cd1fd0a4f28419497f9722a3daafe3b4186f6b6457e09190a35050565b6000806115a28480548060200260200160405190810160405280929190818152602001828054801561159757602002820191906000526020600020905b815481526020019060010190808311611583575b505050505084611c40565b91509150806115eb5760405162461bcd60e51b8152602060048201526015602482015274313cba32b99999103737ba1034b71030b93930bc9760591b60448201526064016103a6565b83546000906115fc90600190612eca565b90508083146116415784818154811061161757611617612db8565b906000526020600020015485848154811061163457611634612db8565b6000918252602090912001555b8480548061165157611651612faf565b600190038181906000526020600020016000905590555050505050565b60008082600001518360200151846040015160405160200161169293929190612fc5565b60408051601f1981840301815291905280516020909101209392505050565b606060006116c28360000151611c90565b905060008360200151516001600160401b038111156116e3576116e361268d565b60405190808252806020026020018201604052801561170c578160200160208202803683370190505b50905060005b84602001515181101561178257611746838660200151838151811061173957611739612db8565b6020026020010151611d1c565b82828151811061175857611758612db8565b6001600160a01b03909216602092830291909101909101528061177a81612de4565b915050611712565b509392505050565b6000806117978484611d65565b95945050505050565b60006112d9828401846128f8565b6117b66124c5565b8151604090810151905163097cda9f60e31b815260009173__$5399d34e4905f321d0c79216424f87eb2e$__91634be6d4f8916117fb91600990600190600401613020565b600060405180830381865af4158015611818573d6000803e3d6000fd5b505050506040513d6000823e601f3d908101601f19168201604052611840919081019061304d565b90506040518061010001604052808260018151811061186157611861612db8565b602002602001015181526020018260038151811061188157611881612db8565b60200260200101518152602001826002815181106118a1576118a1612db8565b60200260200101518152602001826004815181106118c1576118c1612db8565b60200260200101518152602001826006815181106118e1576118e1612db8565b602002602001015181526020018260058151811061190157611901612db8565b602002602001015181526020018260078151811061192157611921612db8565b602002602001015181526020018260088151811061194157611941612db8565b6020026020010151815250915050919050565b60006005826040516119669190612c54565b9081526040519081900360200190205460ff1692915050565b60006112d961198f600284613139565b849060ff166112c8565b6000816040516020016119ac9190612c54565b60405160208183030381529060405280519060200120836040516020016119d39190612c54565b6040516020818303038152906040528051906020012014905092915050565b600083818080805b8451811015611b4857603060f81b858281518110611a1a57611a1a612db8565b01602001516001600160f81b03191610801590611a5b5750603960f81b858281518110611a4957611a49612db8565b01602001516001600160f81b03191611155b15611a9e576030858281518110611a7457611a74612db8565b0160200151611a86919060f81c612eca565b611a9185600a612e31565b611a9b9190612e95565b93505b8115611ab25782611aae81612de4565b9350505b876001600160f81b031916858281518110611acf57611acf612db8565b01602001516001600160f81b03191603611b36578115611b315760405162461bcd60e51b815260206004820152601c60248201527f537472696e6720686173206d756c7469706c6520646563696d616c730000000060448201526064016103a6565b600191505b80611b4081612de4565b9150506119fa565b5085821115611ba45760405162461bcd60e51b815260206004820152602260248201527f537472696e672068617320746f6f206d616e7920646563696d616c20706c6163604482015261657360f01b60648201526084016103a6565b611bae8287612eca565b611bb990600a613236565b611bc39084612e31565b98975050505050505050565b81516000908190815b81811015611c2d578480519060200120868281518110611bfa57611bfa612db8565b60200260200101518051906020012003611c1b57925060019150611c399050565b80611c2581612de4565b915050611bd8565b50600019600092509250505b9250929050565b81516000908190815b81811015611c2d5784868281518110611c6457611c64612db8565b602002602001015103611c7e57925060019150611c399050565b80611c8881612de4565b915050611c49565b6060611cc08260000151604051602001611cac91815260200190565b604051602081830303815290604052611dc7565b611ccd8360200151611f8a565b611ce0846040015163ffffffff166120f3565b611cf3856060015163ffffffff166120f3565b604051602001611d069493929190613242565b6040516020818303038152906040529050919050565b600080611d2984516120f3565b84604051602001611d3b9291906132bb565b604051602081830303815290604052805190602001209050611d5d818461221e565b949350505050565b81516000908190815b81811015611c2d57846001600160a01b0316868281518110611d9257611d92612db8565b60200260200101516001600160a01b031603611db557925060019150611c399050565b80611dbf81612de4565b915050611d6e565b6060600082516002611dd99190612e31565b6001600160401b03811115611df057611df061268d565b6040519080825280601f01601f191660200182016040528015611e1a576020820181803683370190505b5060408051808201909152601081526f181899199a1a9b1b9c1cb0b131b232b360811b602082015290915060005b8451811015611f6057818251868381518110611e6657611e66612db8565b0160200151611e78919060f81c612e5e565b81518110611e8857611e88612db8565b01602001516001600160f81b03191683611ea3836002612e31565b81518110611eb357611eb3612db8565b60200101906001600160f81b031916908160001a905350818251868381518110611edf57611edf612db8565b0160200151611ef1919060f81c613316565b81518110611f0157611f01612db8565b01602001516001600160f81b03191683611f1c836002612e31565b611f27906001612e95565b81518110611f3757611f37612db8565b60200101906001600160f81b031916908160001a90535080611f5881612de4565b915050611e48565b5081604051602001611f72919061332a565b60405160208183030381529060405292505050919050565b60408051602880825260608281019093526000919060208201818036833701905050905060005b60148110156120ca576000611fc7826013612eca565b611fd2906008612e31565b611fdd906002613236565b611ff0906001600160a01b038716612e5e565b60f81b9050600060108260f81c6120079190613354565b60f81b905060008160f81c601061201e9190613376565b8360f81c61202c9190613139565b60f81b905061203a8261223a565b85612046866002612e31565b8151811061205657612056612db8565b60200101906001600160f81b031916908160001a9053506120768161223a565b85612082866002612e31565b61208d906001612e95565b8151811061209d5761209d612db8565b60200101906001600160f81b031916908160001a90535050505080806120c290612de4565b915050611fb1565b50806040516020016120dc919061332a565b604051602081830303815290604052915050919050565b60608160000361211a5750506040805180820190915260018152600360fc1b602082015290565b8160005b8115612144578061212e81612de4565b915061213d9050600a83612e5e565b915061211e565b6000816001600160401b0381111561215e5761215e61268d565b6040519080825280601f01601f191660200182016040528015612188576020820181803683370190505b509050815b85156122155761219e600182612eca565b905060006121ad600a88612e5e565b6121b890600a612e31565b6121c29088612eca565b6121cd906030613399565b905060008160f81b9050808484815181106121ea576121ea612db8565b60200101906001600160f81b031916908160001a90535061220c600a89612e5e565b9750505061218d565b50949350505050565b600080600061222d8585612275565b91509150611782816122b7565b6000600a60f883901c10156122615761225860f883901c6030613399565b60f81b92915050565b61225860f883901c6057613399565b919050565b60008082516041036122ab5760208301516040840151606085015160001a61229f87828585612401565b94509450505050611c39565b50600090506002611c39565b60008160048111156122cb576122cb6133b2565b036122d35750565b60018160048111156122e7576122e76133b2565b036123345760405162461bcd60e51b815260206004820152601860248201527f45434453413a20696e76616c6964207369676e6174757265000000000000000060448201526064016103a6565b6002816004811115612348576123486133b2565b036123955760405162461bcd60e51b815260206004820152601f60248201527f45434453413a20696e76616c6964207369676e6174757265206c656e6774680060448201526064016103a6565b60038160048111156123a9576123a96133b2565b03610a505760405162461bcd60e51b815260206004820152602260248201527f45434453413a20696e76616c6964207369676e6174757265202773272076616c604482015261756560f01b60648201526084016103a6565b6000807f7fffffffffffffffffffffffffffffff5d576e7357a4501ddfe92f46681b20a083111561243857506000905060036124bc565b6040805160008082526020820180845289905260ff881692820192909252606081018690526080810185905260019060a0016020604051602081039080840390855afa15801561248c573d6000803e3d6000fd5b5050604051601f1901519150506001600160a01b0381166124b5576000600192509250506124bc565b9150600090505b94509492505050565b60405180610100016040528060608152602001606081526020016060815260200160608152602001606081526020016060815260200160608152602001606081525090565b50805461251690612c70565b6000825580601f10612526575050565b601f016020900490600052602060002090810190610a5091905b808211156125545760008155600101612540565b5090565b60008083601f84011261256a57600080fd5b5081356001600160401b0381111561258157600080fd5b602083019150836020828501011115611c3957600080fd5b6001600160a01b0381168114610a5057600080fd5b803561227081612599565b60008060008060008060008060008060006101008c8e0312156125db57600080fd5b6001600160401b03808d3511156125f157600080fd5b6125fe8e8e358f01612558565b909c509a5061260f60208e016125ae565b995060408d0135985060608d013597508060808e0135111561263057600080fd5b6126408e60808f01358f01612558565b909750955060a08d0135945060c08d0135935060e08d013581101561266457600080fd5b506126758d60e08e01358e01612558565b81935080925050509295989b509295989b9093969950565b634e487b7160e01b600052604160045260246000fd5b604080519081016001600160401b03811182821017156126c5576126c561268d565b60405290565b604051606081016001600160401b03811182821017156126c5576126c561268d565b604051601f8201601f191681016001600160401b03811182821017156127155761271561268d565b604052919050565b60006001600160401b038211156127365761273661268d565b50601f01601f191660200190565b60006127576127528461271d565b6126ed565b905082815283838301111561276b57600080fd5b828260208301376000602084830101529392505050565b600082601f83011261279357600080fd5b6112d983833560208501612744565b6000602082840312156127b457600080fd5b81356001600160401b038111156127ca57600080fd5b611d5d84828501612782565b6000602082840312156127e857600080fd5b5035919050565b60005b8381101561280a5781810151838201526020016127f2565b50506000910152565b6000815180845261282b8160208601602086016127ef565b601f01601f19169290920160200192915050565b6020815260006112d96020830184612813565b6020808252825182820181905260009190848201906040850190845b8181101561288a5783518352928401929184019160010161286e565b50909695505050505050565b6000602080830181845280855180835260408601915060408160051b870101925083870160005b828110156128eb57603f198886030184526128d9858351612813565b945092850192908501906001016128bd565b5092979650505050505050565b60006020828403121561290a57600080fd5b813561291581612599565b9392505050565b803563ffffffff8116811461227057600080fd5b60006001600160401b038211156129495761294961268d565b5060051b60200190565b600082601f83011261296457600080fd5b8135602061297461275283612930565b82815260059290921b8401810191818101908684111561299357600080fd5b8286015b848110156129e75780356001600160401b038111156129b65760008081fd5b8701603f810189136129c85760008081fd5b6129d9898683013560408401612744565b845250918301918301612997565b509695505050505050565b600081830360a0811215612a0557600080fd5b612a0d6126a3565b91506080811215612a1d57600080fd5b50604051608081016001600160401b038282108183111715612a4157612a4161268d565b816040528435835260208501359150612a5982612599565b816020840152612a6b6040860161291c565b6040840152612a7c6060860161291c565b606084015291835260808401359180831115612a9757600080fd5b5050612aa584828501612953565b60208301525092915050565b600060408284031215612ac357600080fd5b612acb6126a3565b905081356001600160401b0380821115612ae457600080fd5b9083019060608286031215612af857600080fd5b612b006126cb565b823582811115612b0f57600080fd5b612b1b87828601612782565b825250602083013582811115612b3057600080fd5b612b3c87828601612782565b602083015250604083013582811115612b5457600080fd5b612b6087828601612782565b60408301525083526020840135915080821115612b7c57600080fd5b50612aa5848285016129f2565b600080600060608486031215612b9e57600080fd5b83356001600160401b0380821115612bb557600080fd5b612bc187838801612ab1565b9450602091508186013581811115612bd857600080fd5b86019050601f81018713612beb57600080fd5b8035612bf961275282612930565b81815260059190911b82018301908381019089831115612c1857600080fd5b928401925b82841015612c3f578335612c3081612599565b82529284019290840190612c1d565b96999698505050506040949094013593505050565b60008251612c668184602087016127ef565b9190910192915050565b600181811c90821680612c8457607f821691505b602082108103612ca457634e487b7160e01b600052602260045260246000fd5b50919050565b601f821115612cf457600081815260208120601f850160051c81016020861015612cd15750805b601f850160051c820191505b81811015612cf057828155600101612cdd565b5050505b505050565b81516001600160401b03811115612d1257612d1261268d565b612d2681612d208454612c70565b84612caa565b602080601f831160018114612d5b5760008415612d435750858301515b600019600386901b1c1916600185901b178555612cf0565b600085815260208120601f198616915b82811015612d8a57888601518255948401946001909101908401612d6b565b5085821015612da85787850151600019600388901b60f8161c191681555b5050505050600190811b01905550565b634e487b7160e01b600052603260045260246000fd5b634e487b7160e01b600052601160045260246000fd5b600060018201612df657612df6612dce565b5060010190565b600060208284031215612e0f57600080fd5b81356001600160401b03811115612e2557600080fd5b611d5d84828501612ab1565b80820281158282048414176112dc576112dc612dce565b634e487b7160e01b600052601260045260246000fd5b600082612e6d57612e6d612e48565b500490565b600060208284031215612e8457600080fd5b815160ff8116811461291557600080fd5b808201808211156112dc576112dc612dce565b600060208284031215612eba57600080fd5b8151801515811461291557600080fd5b818103818111156112dc576112dc612dce565b818103612ee8575050565b612ef28254612c70565b6001600160401b03811115612f0957612f0961268d565b612f1781612d208454612c70565b6000601f821160018114612f4b5760008315612f335750848201545b600019600385901b1c1916600184901b1784556112c1565b600085815260209020601f19841690600086815260209020845b83811015612f855782860154825560019586019590910190602001612f65565b5085831015612da85793015460001960f8600387901b161c19169092555050600190811b01905550565b634e487b7160e01b600052603160045260246000fd5b60008451612fd78184602089016127ef565b600560f91b9083018181528551909190612ff8816001850160208a016127ef565b600192019182015283516130138160028401602088016127ef565b0160020195945050505050565b6060815260006130336060830186612813565b60ff94909416602083015250901515604090910152919050565b6000602080838503121561306057600080fd5b82516001600160401b038082111561307757600080fd5b818501915085601f83011261308b57600080fd5b815161309961275282612930565b81815260059190911b830184019084810190888311156130b857600080fd5b8585015b8381101561312c578051858111156130d45760008081fd5b8601603f81018b136130e65760008081fd5b8781015160406130f86127528361271d565b8281528d8284860101111561310d5760008081fd5b61311c838c83018487016127ef565b86525050509186019186016130bc565b5098975050505050505050565b60ff82811682821603908111156112dc576112dc612dce565b600181815b8085111561318d57816000190482111561317357613173612dce565b8085161561318057918102915b93841c9390800290613157565b509250929050565b6000826131a4575060016112dc565b816131b1575060006112dc565b81600181146131c757600281146131d1576131ed565b60019150506112dc565b60ff8411156131e2576131e2612dce565b50506001821b6112dc565b5060208310610133831016604e8410600b8410161715613210575081810a6112dc565b61321a8383613152565b806000190482111561322e5761322e612dce565b029392505050565b60006112d98383613195565b60008551613254818460208a016127ef565b600560f91b9083018181528651909190613275816001850160208b016127ef565b600192019182018190528551613292816002850160208a016127ef565b600292019182015283516132ad8160038401602088016127ef565b016003019695505050505050565b7f19457468657265756d205369676e6564204d6573736167653a0a0000000000008152600083516132f381601a8501602088016127ef565b83519083019061330a81601a8401602088016127ef565b01601a01949350505050565b60008261332557613325612e48565b500690565b61060f60f31b8152600082516133478160028501602087016127ef565b9190910160020192915050565b600060ff83168061336757613367612e48565b8060ff84160491505092915050565b60ff818116838216029081169081811461339257613392612dce565b5092915050565b60ff81811683821601908111156112dc576112dc612dce565b634e487b7160e01b600052602160045260246000fdfea2646970667358221220163ed3f8150ed24a21bd6ef94f04688c0548d197dbc3d24f6bdaa5833a9d8b8c64736f6c63430008120033",
  "libraries": {
    "ClaimVerifier": "0x7884818B6f9022A868623CbAAD4b80027EB361EE"
  },
  "devdoc": {
    "kind": "dev",
    "methods": {
      "addCurrency(bytes32)": {
        "params": {
          "_currencyCode": "Currency code to add"
        }
      },
      "addProviderHash(string)": {
        "params": {
          "_newProviderHash": "New provider hash to be added"
        }
      },
      "owner()": {
        "details": "Returns the address of the current owner."
      },
      "removeCurrency(bytes32)": {
        "params": {
          "_currencyCode": "Currency code to remove"
        }
      },
      "removeProviderHash(string)": {
        "params": {
          "_removeProviderHash": "Provider hash to be removed"
        }
      },
      "renounceOwnership()": {
        "details": "Leaves the contract without owner. It will not be possible to call `onlyOwner` functions. Can only be called by the current owner. NOTE: Renouncing ownership will leave the contract without an owner, thereby disabling any functionality that is only available to the owner."
      },
      "setTimestampBuffer(uint256)": {
        "params": {
          "_timestampBuffer": "The timestamp buffer for payments"
        }
      },
      "transferOwnership(address)": {
        "details": "Transfers ownership of the contract to a new account (`newOwner`). Can only be called by the current owner."
      },
      "verifyPayment(bytes,address,uint256,uint256,string,bytes32,uint256,bytes)": {
        "params": {
          "_conversionRate": "The conversion rate for the deposit token to offchain fiatCurrency",
          "_depositData": "Additional data required for proof verification. In this case, the attester's address.",
          "_depositToken": "The deposit token locked in escrow",
          "_fiatCurrency": "The currency ID of the payment",
          "_intentAmount": "Amount of deposit.token that the offchain payer wants to unlock from escrow",
          "_intentTimestamp": "The timestamp at which intent was created. Offchain payment must be made after this time.",
          "_payeeDetails": "The payee details (hash of the payee's Revolut username or just raw Revolut username; compared to recipientId in proof)",
          "_proof": "Proof to be verified"
        }
      },
      "verifyProofSignatures(((string,string,string),((bytes32,address,uint32,uint32),bytes[])),address[],uint256)": {
        "params": {
          "_requiredThreshold": "Minimum number of signatures required from accepted witnesses",
          "_witnesses": "List of accepted witnesses",
          "proof": "Proof to be verified"
        }
      }
    },
    "version": 1
  },
  "userdoc": {
    "kind": "user",
    "methods": {
      "addCurrency(bytes32)": {
        "notice": "OWNER ONLY: Adds a currency code to supported currencies"
      },
      "addProviderHash(string)": {
        "notice": "ONLY OWNER: Add provider hash string. Provider hash must not have been previously added."
      },
      "removeCurrency(bytes32)": {
        "notice": "OWNER ONLY: Removes a currency code from supported currencies"
      },
      "removeProviderHash(string)": {
        "notice": "ONLY OWNER: Remove provider hash string. Provider hash must have been previously added."
      },
      "setTimestampBuffer(uint256)": {
        "notice": "OWNER ONLY: Sets the timestamp buffer for payments. This is the amount of time in seconds that the timestamp can be off by and still be considered valid. Necessary to build in flexibility  with L2 timestamps."
      },
      "verifyPayment(bytes,address,uint256,uint256,string,bytes32,uint256,bytes)": {
        "notice": "ONLY RAMP: Verifies a reclaim proof of an offchain Revolut payment. Ensures the right _intentAmount * _conversionRate USD was paid to _payeeDetails after _intentTimestamp + timestampBuffer on Revolut. Additionaly, checks the right fiatCurrency was paid and the payment status is COMPLETE."
      },
      "verifyProofSignatures(((string,string,string),((bytes32,address,uint32,uint32),bytes[])),address[],uint256)": {
        "notice": "Verify proof generated by witnesses. Claim is constructed by hashing claimInfo (provider, context, parameters) to get the identifier. And then signing on (identifier, owner, timestamp, epoch) to get claim signature.  This function verifies a claim by performing the following checks on the claim - Calculates the hash of the claimInfo and checks if it matches the identifier in the claim - Checks if the signatures are valid and from the witnesses This function reverts if - No signatures are found on the proof - ClaimInfo hash does not match the identifier in the claim - Signatures are invalid (not from the witnesses)  DEV NOTE: This function does NOT validate that the claim provider hash is valid. That is the  responsibility of the caller. Ensure witnesses are unique otherwise the threshold can be met  with duplicate witnesses.  Parts of the code are adapted from: https://basescan.org/address/0x7281630e4346dd4c0b7ae3b4689c1d0102741410#code    "
      }
    },
    "version": 1
  },
  "storageLayout": {
    "storage": [
      {
        "astId": 7,
        "contract": "contracts/verifiers/CashappReclaimVerifeir.sol:CashappReclaimVerifier",
        "label": "_owner",
        "offset": 0,
        "slot": "0",
        "type": "t_address"
      },
      {
        "astId": 9179,
        "contract": "contracts/verifiers/CashappReclaimVerifeir.sol:CashappReclaimVerifier",
        "label": "nullifierRegistry",
        "offset": 0,
        "slot": "1",
        "type": "t_contract(INullifierRegistry)11147"
      },
      {
        "astId": 9181,
        "contract": "contracts/verifiers/CashappReclaimVerifeir.sol:CashappReclaimVerifier",
        "label": "timestampBuffer",
        "offset": 0,
        "slot": "2",
        "type": "t_uint256"
      },
      {
        "astId": 9184,
        "contract": "contracts/verifiers/CashappReclaimVerifeir.sol:CashappReclaimVerifier",
        "label": "currencies",
        "offset": 0,
        "slot": "3",
        "type": "t_array(t_bytes32)dyn_storage"
      },
      {
        "astId": 9188,
        "contract": "contracts/verifiers/CashappReclaimVerifeir.sol:CashappReclaimVerifier",
        "label": "isCurrency",
        "offset": 0,
        "slot": "4",
        "type": "t_mapping(t_bytes32,t_bool)"
      },
      {
        "astId": 9385,
        "contract": "contracts/verifiers/CashappReclaimVerifeir.sol:CashappReclaimVerifier",
        "label": "isProviderHash",
        "offset": 0,
        "slot": "5",
        "type": "t_mapping(t_string_memory_ptr,t_bool)"
      },
      {
        "astId": 9388,
        "contract": "contracts/verifiers/CashappReclaimVerifeir.sol:CashappReclaimVerifier",
        "label": "providerHashes",
        "offset": 0,
        "slot": "6",
        "type": "t_array(t_string_storage)dyn_storage"
      }
    ],
    "types": {
      "t_address": {
        "encoding": "inplace",
        "label": "address",
        "numberOfBytes": "20"
      },
      "t_array(t_bytes32)dyn_storage": {
        "base": "t_bytes32",
        "encoding": "dynamic_array",
        "label": "bytes32[]",
        "numberOfBytes": "32"
      },
      "t_array(t_string_storage)dyn_storage": {
        "base": "t_string_storage",
        "encoding": "dynamic_array",
        "label": "string[]",
        "numberOfBytes": "32"
      },
      "t_bool": {
        "encoding": "inplace",
        "label": "bool",
        "numberOfBytes": "1"
      },
      "t_bytes32": {
        "encoding": "inplace",
        "label": "bytes32",
        "numberOfBytes": "32"
      },
      "t_contract(INullifierRegistry)11147": {
        "encoding": "inplace",
        "label": "contract INullifierRegistry",
        "numberOfBytes": "20"
      },
      "t_mapping(t_bytes32,t_bool)": {
        "encoding": "mapping",
        "key": "t_bytes32",
        "label": "mapping(bytes32 => bool)",
        "numberOfBytes": "32",
        "value": "t_bool"
      },
      "t_mapping(t_string_memory_ptr,t_bool)": {
        "encoding": "mapping",
        "key": "t_string_memory_ptr",
        "label": "mapping(string => bool)",
        "numberOfBytes": "32",
        "value": "t_bool"
      },
      "t_string_memory_ptr": {
        "encoding": "bytes",
        "label": "string",
        "numberOfBytes": "32"
      },
      "t_string_storage": {
        "encoding": "bytes",
        "label": "string",
        "numberOfBytes": "32"
      },
      "t_uint256": {
        "encoding": "inplace",
        "label": "uint256",
        "numberOfBytes": "32"
      }
    }
  }
}