{
  "address": "0x7884818B6f9022A868623CbAAD4b80027EB361EE",
  "abi": [
    {
      "inputs": [
        {
          "internalType": "string",
          "name": "data",
          "type": "string"
        },
        {
          "internalType": "uint8",
          "name": "maxValues",
          "type": "uint8"
        },
        {
          "internalType": "bool",
          "name": "extractIntentAndProviderHash",
          "type": "bool"
        }
      ],
      "name": "extractAllFromContext",
      "outputs": [
        {
          "internalType": "string[]",
          "name": "",
          "type": "string[]"
        }
      ],
      "stateMutability": "pure",
      "type": "function"
    },
    {
      "inputs": [
        {
          "internalType": "string",
          "name": "data",
          "type": "string"
        },
        {
          "internalType": "string",
          "name": "prefix",
          "type": "string"
        }
      ],
      "name": "extractFieldFromContext",
      "outputs": [
        {
          "internalType": "string",
          "name": "",
          "type": "string"
        }
      ],
      "stateMutability": "pure",
      "type": "function"
    },
    {
      "inputs": [
        {
          "internalType": "string",
          "name": "data",
          "type": "string"
        },
        {
          "internalType": "string",
          "name": "target",
          "type": "string"
        }
      ],
      "name": "findSubstringEndIndex",
      "outputs": [
        {
          "internalType": "uint256",
          "name": "",
          "type": "uint256"
        }
      ],
      "stateMutability": "pure",
      "type": "function"
    }
  ],
  "transactionHash": "0xcd7afd72f5c6b917328afc7cce26fa26b50d4ad140786351c6f65c0cf3880981",
  "args": [],
  "numDeployments": 1,
  "solcInputHash": "4f41effe5b2e563354f695e77a3da5fa",
  "bytecode": "0x61113361003a600b82828239805160001a60731461002d57634e487b7160e01b600052600060045260246000fd5b30600052607381538281f3fe730000000000000000000000000000000000000000301460806040526004361061004b5760003560e01c80633755667e146100505780634be6d4f8146100795780634da485c614610099575b600080fd5b61006361005e366004610ec3565b6100ba565b6040516100709190610f6d565b60405180910390f35b61008c610087366004610f87565b610265565b6040516100709190610ff6565b6100ac6100a7366004610ec3565b610d2c565b604051908152602001610070565b606060006100c88484610d2c565b8451909150849082036100ee57604051806020016040528060008152509250505061025f565b815b815181108015610160575081818151811061010d5761010d611058565b6020910101516001600160f81b031916601160f91b14801561015e575081610136600183611084565b8151811061014657610146611058565b6020910101516001600160f81b031916601760fa1b14155b155b15610177578061016f81611097565b9150506100f0565b8281116101985760405180602001604052806000815250935050505061025f565b60006101a48483611084565b67ffffffffffffffff8111156101bc576101bc610e20565b6040519080825280601f01601f1916602001820160405280156101e6576020820181803683370190505b509050835b828110156102585783818151811061020557610205611058565b01602001516001600160f81b0319168261021f8784611084565b8151811061022f5761022f611058565b60200101906001600160f81b031916908160001a9053508061025081611097565b9150506101eb565b5093505050505b92915050565b606060008360ff16116102c95760405162461bcd60e51b815260206004820152602160248201527f4d61782076616c756573206d7573742062652067726561746572207468616e206044820152600360fc1b60648201526084015b60405180910390fd5b60408051808201909152601981527f7b22657874726163746564506172616d6574657273223a7b220000000000000060208201528490600090815b81518110156103d05781818151811061031f5761031f611058565b01602001516001600160f81b0319168461033983866110b0565b8151811061034957610349611058565b01602001516001600160f81b031916146103be5760405162461bcd60e51b815260206004820152603060248201527f45787472616374696f6e206661696c65642e204d616c666f726d65642065787460448201526f726163746564506172616d657465727360801b60648201526084016102c0565b806103c881611097565b915050610304565b5080516103dd90836110b0565b9150600080806103ee8960026110c3565b60ff1667ffffffffffffffff81111561040957610409610e20565b604051908082528060200260200182016040528015610432578160200160208202803683370190505b5090505b85518510156107f15785858151811061045157610451611058565b6020910101516001600160f81b031916601160f91b1480156104a257508561047a600187611084565b8151811061048a5761048a611058565b6020910101516001600160f81b031916601760fa1b14155b6104b857846104b081611097565b955050610436565b826105c057856104c98660016110b0565b815181106104d9576104d9611058565b6020910101516001600160f81b031916601d60f91b1480156105295750856105028660026110b0565b8151811061051257610512611058565b6020910101516001600160f81b031916601160f91b145b6105815760405162461bcd60e51b815260206004820152602360248201527f45787472616374696f6e206661696c65642e204d616c666f726d65642064617460448201526261203160e81b60648201526084016102c0565b61058c6003866110b0565b945060019250848161059f8460026110e6565b815181106105af576105af611058565b602002602001018181525050610436565b856105cc8660016110b0565b815181106105dc576105dc611058565b6020910101516001600160f81b031916600b60fa1b14801561062c5750856106058660026110b0565b8151811061061557610615611058565b6020910101516001600160f81b031916601160f91b145b8061069e57508561063e8660016110b0565b8151811061064e5761064e611058565b6020910101516001600160f81b031916607d60f81b14801561069e5750856106778660026110b0565b8151811061068757610687611058565b6020910101516001600160f81b031916600b60fa1b145b6106f65760405162461bcd60e51b815260206004820152602360248201527f45787472616374696f6e206661696c65642e204d616c666f726d65642064617460448201526230901960e91b60648201526084016102c0565b84816107038460026110e6565b61070e9060016110b0565b8151811061071e5761071e611058565b60209081029190910101528161073381611097565b92508690506107438660016110b0565b8151811061075357610753611058565b01602001516001600160f81b031916600b60fa1b036107e3578860ff1682036107cd5760405162461bcd60e51b815260206004820152602660248201527f45787472616374696f6e206661696c65642e204578636565646564206d61782060448201526576616c75657360d01b60648201526084016102c0565b6107d86003866110b0565b945060009250610436565b6107ee6003866110b0565b94505b8715610b6d5760408051808201909152600e81526d1134b73a32b73a2430b9b4111d1160911b602082015260005b81518110156108e25781818151811061083a5761083a611058565b01602001516001600160f81b03191688610854838a6110b0565b8151811061086457610864611058565b01602001516001600160f81b031916146108d05760405162461bcd60e51b815260206004820152602760248201527f45787472616374696f6e206661696c65642e204d616c666f726d656420696e746044820152660cadce890c2e6d60cb1b60648201526084016102c0565b806108da81611097565b91505061081f565b5080516108ef90876110b0565b955085826108fe8560026110e6565b8151811061090e5761090e611058565b6020026020010181815250505b865186108015610950575086868151811061093857610938611058565b6020910101516001600160f81b031916601160f91b14155b15610967578561095f81611097565b96505061091b565b85826109748560026110e6565b61097f9060016110b0565b8151811061098f5761098f611058565b6020908102919091010152826109a481611097565b93506109b390506002876110b0565b60408051808201909152601081526f11383937bb34b232b92430b9b4111d1160811b602082015290965060005b8151811015610aa5578181815181106109fb576109fb611058565b01602001516001600160f81b03191689610a15838b6110b0565b81518110610a2557610a25611058565b01602001516001600160f81b03191614610a935760405162461bcd60e51b815260206004820152602960248201527f45787472616374696f6e206661696c65642e204d616c666f726d65642070726f6044820152680ecd2c8cae490c2e6d60bb1b60648201526084016102c0565b80610a9d81611097565b9150506109e0565b508051610ab290886110b0565b96508683610ac18660026110e6565b81518110610ad157610ad1611058565b6020026020010181815250505b875187108015610b135750878781518110610afb57610afb611058565b6020910101516001600160f81b031916601160f91b14155b15610b2a5786610b2281611097565b975050610ade565b8683610b378660026110e6565b610b429060016110b0565b81518110610b5257610b52611058565b602090810291909101015283610b6781611097565b94505050505b60008267ffffffffffffffff811115610b8857610b88610e20565b604051908082528060200260200182016040528015610bbb57816020015b6060815260200190600190039081610ba65790505b50905060005b83811015610d1d57600083610bd78360026110e6565b81518110610be757610be7611058565b60200260200101519050600084836002610c0191906110e6565b610c0c9060016110b0565b81518110610c1c57610c1c611058565b6020026020010151905060008282610c349190611084565b67ffffffffffffffff811115610c4c57610c4c610e20565b6040519080825280601f01601f191660200182016040528015610c76576020820181803683370190505b509050825b82811015610ce8578b8181518110610c9557610c95611058565b01602001516001600160f81b03191682610caf8684611084565b81518110610cbf57610cbf611058565b60200101906001600160f81b031916908160001a90535080610ce081611097565b915050610c7b565b5080858581518110610cfc57610cfc611058565b60200260200101819052505050508080610d1590611097565b915050610bc1565b509a9950505050505050505050565b80518251600091849184911115610d49576000199250505061025f565b60005b81518351610d5a9190611084565b8111610e1357600160005b835181108015610d725750815b15610de257838181518110610d8957610d89611058565b01602001516001600160f81b03191685610da383866110b0565b81518110610db357610db3611058565b01602001516001600160f81b03191614610dd05760009150610de2565b80610dda81611097565b915050610d65565b508015610e00578251610df590836110b0565b94505050505061025f565b5080610e0b81611097565b915050610d4c565b5060001995945050505050565b634e487b7160e01b600052604160045260246000fd5b600082601f830112610e4757600080fd5b813567ffffffffffffffff80821115610e6257610e62610e20565b604051601f8301601f19908116603f01168101908282118183101715610e8a57610e8a610e20565b81604052838152866020858801011115610ea357600080fd5b836020870160208301376000602085830101528094505050505092915050565b60008060408385031215610ed657600080fd5b823567ffffffffffffffff80821115610eee57600080fd5b610efa86838701610e36565b93506020850135915080821115610f1057600080fd5b50610f1d85828601610e36565b9150509250929050565b6000815180845260005b81811015610f4d57602081850181015186830182015201610f31565b506000602082860101526020601f19601f83011685010191505092915050565b602081526000610f806020830184610f27565b9392505050565b600080600060608486031215610f9c57600080fd5b833567ffffffffffffffff811115610fb357600080fd5b610fbf86828701610e36565b935050602084013560ff81168114610fd657600080fd5b915060408401358015158114610feb57600080fd5b809150509250925092565b6000602080830181845280855180835260408601915060408160051b870101925083870160005b8281101561104b57603f19888603018452611039858351610f27565b9450928501929085019060010161101d565b5092979650505050505050565b634e487b7160e01b600052603260045260246000fd5b634e487b7160e01b600052601160045260246000fd5b8181038181111561025f5761025f61106e565b6000600182016110a9576110a961106e565b5060010190565b8082018082111561025f5761025f61106e565b60ff81811683821602908116908181146110df576110df61106e565b5092915050565b808202811582820484141761025f5761025f61106e56fea264697066735822122056d0148cdbe9f5a853c21a0754ae555772005cd4d446be429857e0334bda424b64736f6c63430008120033",
  "devdoc": {
    "kind": "dev",
    "methods": {
      "extractAllFromContext(string,uint8,bool)": {
        "params": {
          "data": "Context string from which target value needs to be extracted",
          "extractIntentAndProviderHash": "Extracts and returns intentHash and providerHash if true",
          "maxValues": "Maximum number of values to be extracted from extractedParameters including intentHash and providerHash"
        }
      },
      "extractFieldFromContext(string,string)": {
        "params": {
          "data": "Context string from which target value needs to be extracted",
          "prefix": "Prefix of the target value that needs to be extracted            "
        }
      }
    },
    "version": 1
  },
  "userdoc": {
    "kind": "user",
    "methods": {
      "extractAllFromContext(string,uint8,bool)": {
        "notice": "Extracts ALL values from context in a single pass. Context is stored as serialized JSON string with  two keys: extractedParameters and providerHash. ExtractedParameters itself is a JSON string with  key-value pairs. This function returns extracted individual values from extractedParameters along  with providerHash (if extractProviderHash is true). Use maxValues to limit the number of expected values to be extracted from extractedParameters. In most cases, one would need to extract all values from extractedParameters and providerHash, hence use this function over calling extractFieldFromContext  multiple times. "
      },
      "extractFieldFromContext(string,string)": {
        "notice": "Extracts given target field value from context in claims. Extracts only ONE value. Pass prefix formatted with quotes, for example '\"providerHash\\\":\\\"' Parts of the code are adapted from: https://basescan.org/address/0x7281630e4346dd4c0b7ae3b4689c1d0102741410#code"
      },
      "findSubstringEndIndex(string,string)": {
        "notice": "Find the end index of target string in the data string. Returns the end index + 1 if the target string in the data string if found. Returns type(uint256).max if: - Target is longer than data - Target is not found Parts of the code are adapted from: https://basescan.org/address/0x7281630e4346dd4c0b7ae3b4689c1d0102741410#code"
      }
    },
    "version": 1
  },
  "storageLayout": {
    "storage": [],
    "types": null
  }
}