{
  "address": "0xa70E7B29C372D71E0EE8E0a5c5721F3724e45CF3",
  "abi": [
    {
      "inputs": [
        {
          "internalType": "address",
          "name": "_escrow",
          "type": "address"
        },
        {
          "internalType": "contract INullifierRegistry",
          "name": "_nullifierRegistry",
          "type": "address"
        },
        {
          "internalType": "uint256",
          "name": "_timestampBuffer",
          "type": "uint256"
        },
        {
          "internalType": "bytes32[]",
          "name": "_currencies",
          "type": "bytes32[]"
        },
        {
          "internalType": "string[]",
          "name": "_providerHashes",
          "type": "string[]"
        }
      ],
      "stateMutability": "nonpayable",
      "type": "constructor"
    },
    {
      "anonymous": false,
      "inputs": [
        {
          "indexed": false,
          "internalType": "bytes32",
          "name": "currencyCode",
          "type": "bytes32"
        }
      ],
      "name": "CurrencyAdded",
      "type": "event"
    },
    {
      "anonymous": false,
      "inputs": [
        {
          "indexed": false,
          "internalType": "bytes32",
          "name": "currencyCode",
          "type": "bytes32"
        }
      ],
      "name": "CurrencyRemoved",
      "type": "event"
    },
    {
      "anonymous": false,
      "inputs": [
        {
          "indexed": true,
          "internalType": "address",
          "name": "previousOwner",
          "type": "address"
        },
        {
          "indexed": true,
          "internalType": "address",
          "name": "newOwner",
          "type": "address"
        }
      ],
      "name": "OwnershipTransferred",
      "type": "event"
    },
    {
      "anonymous": false,
      "inputs": [
        {
          "indexed": false,
          "internalType": "string",
          "name": "providerHash",
          "type": "string"
        }
      ],
      "name": "ProviderHashAdded",
      "type": "event"
    },
    {
      "anonymous": false,
      "inputs": [
        {
          "indexed": false,
          "internalType": "string",
          "name": "providerHash",
          "type": "string"
        }
      ],
      "name": "ProviderHashRemoved",
      "type": "event"
    },
    {
      "anonymous": false,
      "inputs": [
        {
          "indexed": false,
          "internalType": "uint256",
          "name": "timestampBuffer",
          "type": "uint256"
        }
      ],
      "name": "TimestampBufferSet",
      "type": "event"
    },
    {
      "inputs": [],
      "name": "COMPLETE_PAYMENT_STATUS",
      "outputs": [
        {
          "internalType": "bytes32",
          "name": "",
          "type": "bytes32"
        }
      ],
      "stateMutability": "view",
      "type": "function"
    },
    {
      "inputs": [],
      "name": "ONLINE_TRANSFER_TYPE",
      "outputs": [
        {
          "internalType": "bytes32",
          "name": "",
          "type": "bytes32"
        }
      ],
      "stateMutability": "view",
      "type": "function"
    },
    {
      "inputs": [],
      "name": "P2P_PAYMENT_TYPE",
      "outputs": [
        {
          "internalType": "bytes32",
          "name": "",
          "type": "bytes32"
        }
      ],
      "stateMutability": "view",
      "type": "function"
    },
    {
      "inputs": [
        {
          "internalType": "bytes32",
          "name": "_currencyCode",
          "type": "bytes32"
        }
      ],
      "name": "addCurrency",
      "outputs": [],
      "stateMutability": "nonpayable",
      "type": "function"
    },
    {
      "inputs": [
        {
          "internalType": "string",
          "name": "_newProviderHash",
          "type": "string"
        }
      ],
      "name": "addProviderHash",
      "outputs": [],
      "stateMutability": "nonpayable",
      "type": "function"
    },
    {
      "inputs": [],
      "name": "escrow",
      "outputs": [
        {
          "internalType": "address",
          "name": "",
          "type": "address"
        }
      ],
      "stateMutability": "view",
      "type": "function"
    },
    {
      "inputs": [],
      "name": "getCurrencies",
      "outputs": [
        {
          "internalType": "bytes32[]",
          "name": "",
          "type": "bytes32[]"
        }
      ],
      "stateMutability": "view",
      "type": "function"
    },
    {
      "inputs": [],
      "name": "getProviderHashes",
      "outputs": [
        {
          "internalType": "string[]",
          "name": "",
          "type": "string[]"
        }
      ],
      "stateMutability": "view",
      "type": "function"
    },
    {
      "inputs": [
        {
          "internalType": "bytes32",
          "name": "",
          "type": "bytes32"
        }
      ],
      "name": "isCurrency",
      "outputs": [
        {
          "internalType": "bool",
          "name": "",
          "type": "bool"
        }
      ],
      "stateMutability": "view",
      "type": "function"
    },
    {
      "inputs": [
        {
          "internalType": "string",
          "name": "",
          "type": "string"
        }
      ],
      "name": "isProviderHash",
      "outputs": [
        {
          "internalType": "bool",
          "name": "",
          "type": "bool"
        }
      ],
      "stateMutability": "view",
      "type": "function"
    },
    {
      "inputs": [],
      "name": "nullifierRegistry",
      "outputs": [
        {
          "internalType": "contract INullifierRegistry",
          "name": "",
          "type": "address"
        }
      ],
      "stateMutability": "view",
      "type": "function"
    },
    {
      "inputs": [],
      "name": "owner",
      "outputs": [
        {
          "internalType": "address",
          "name": "",
          "type": "address"
        }
      ],
      "stateMutability": "view",
      "type": "function"
    },
    {
      "inputs": [
        {
          "internalType": "uint256",
          "name": "",
          "type": "uint256"
        }
      ],
      "name": "providerHashes",
      "outputs": [
        {
          "internalType": "string",
          "name": "",
          "type": "string"
        }
      ],
      "stateMutability": "view",
      "type": "function"
    },
    {
      "inputs": [
        {
          "internalType": "bytes32",
          "name": "_currencyCode",
          "type": "bytes32"
        }
      ],
      "name": "removeCurrency",
      "outputs": [],
      "stateMutability": "nonpayable",
      "type": "function"
    },
    {
      "inputs": [
        {
          "internalType": "string",
          "name": "_removeProviderHash",
          "type": "string"
        }
      ],
      "name": "removeProviderHash",
      "outputs": [],
      "stateMutability": "nonpayable",
      "type": "function"
    },
    {
      "inputs": [],
      "name": "renounceOwnership",
      "outputs": [],
      "stateMutability": "nonpayable",
      "type": "function"
    },
    {
      "inputs": [
        {
          "internalType": "uint256",
          "name": "_timestampBuffer",
          "type": "uint256"
        }
      ],
      "name": "setTimestampBuffer",
      "outputs": [],
      "stateMutability": "nonpayable",
      "type": "function"
    },
    {
      "inputs": [],
      "name": "timestampBuffer",
      "outputs": [
        {
          "internalType": "uint256",
          "name": "",
          "type": "uint256"
        }
      ],
      "stateMutability": "view",
      "type": "function"
    },
    {
      "inputs": [
        {
          "internalType": "address",
          "name": "newOwner",
          "type": "address"
        }
      ],
      "name": "transferOwnership",
      "outputs": [],
      "stateMutability": "nonpayable",
      "type": "function"
    },
    {
      "inputs": [
        {
          "components": [
            {
              "internalType": "bytes",
              "name": "paymentProof",
              "type": "bytes"
            },
            {
              "internalType": "address",
              "name": "depositToken",
              "type": "address"
            },
            {
              "internalType": "uint256",
              "name": "intentAmount",
              "type": "uint256"
            },
            {
              "internalType": "uint256",
              "name": "intentTimestamp",
              "type": "uint256"
            },
            {
              "internalType": "string",
              "name": "payeeDetails",
              "type": "string"
            },
            {
              "internalType": "bytes32",
              "name": "fiatCurrency",
              "type": "bytes32"
            },
            {
              "internalType": "uint256",
              "name": "conversionRate",
              "type": "uint256"
            },
            {
              "internalType": "bytes",
              "name": "data",
              "type": "bytes"
            }
          ],
          "internalType": "struct IPaymentVerifier.VerifyPaymentData",
          "name": "_verifyPaymentData",
          "type": "tuple"
        }
      ],
      "name": "verifyPayment",
      "outputs": [
        {
          "internalType": "bool",
          "name": "",
          "type": "bool"
        },
        {
          "internalType": "bytes32",
          "name": "",
          "type": "bytes32"
        }
      ],
      "stateMutability": "nonpayable",
      "type": "function"
    },
    {
      "inputs": [
        {
          "components": [
            {
              "components": [
                {
                  "internalType": "string",
                  "name": "provider",
                  "type": "string"
                },
                {
                  "internalType": "string",
                  "name": "parameters",
                  "type": "string"
                },
                {
                  "internalType": "string",
                  "name": "context",
                  "type": "string"
                }
              ],
              "internalType": "struct Claims.ClaimInfo",
              "name": "claimInfo",
              "type": "tuple"
            },
            {
              "components": [
                {
                  "components": [
                    {
                      "internalType": "bytes32",
                      "name": "identifier",
                      "type": "bytes32"
                    },
                    {
                      "internalType": "address",
                      "name": "owner",
                      "type": "address"
                    },
                    {
                      "internalType": "uint32",
                      "name": "timestampS",
                      "type": "uint32"
                    },
                    {
                      "internalType": "uint32",
                      "name": "epoch",
                      "type": "uint32"
                    }
                  ],
                  "internalType": "struct Claims.CompleteClaimData",
                  "name": "claim",
                  "type": "tuple"
                },
                {
                  "internalType": "bytes[]",
                  "name": "signatures",
                  "type": "bytes[]"
                }
              ],
              "internalType": "struct Claims.SignedClaim",
              "name": "signedClaim",
              "type": "tuple"
            },
            {
              "internalType": "bool",
              "name": "isAppclipProof",
              "type": "bool"
            }
          ],
          "internalType": "struct IReclaimVerifier.ReclaimProof",
          "name": "proof",
          "type": "tuple"
        },
        {
          "internalType": "address[]",
          "name": "_witnesses",
          "type": "address[]"
        },
        {
          "internalType": "uint256",
          "name": "_requiredThreshold",
          "type": "uint256"
        }
      ],
      "name": "verifyProofSignatures",
      "outputs": [
        {
          "internalType": "bool",
          "name": "",
          "type": "bool"
        }
      ],
      "stateMutability": "pure",
      "type": "function"
    }
  ],
  "transactionHash": "0xb6152b9dfeb8b51a85c08371d8d246e5bf9bb911d60c4269e6f9b78ee1b37ed4",
  "args": [
    "0xFF0149799631D7A5bdE2e7eA9b306c42b3d9a9ca",
    "0x9cF61278C2Cc9C41578fE3a0ED375E9870D514F1",
    "30",
    [
      "0x8fd50654b7dd2dc839f7cab32800ba0c6f7f66e1ccf89b21c09405469c2175ec"
    ],
    [
      "0x09ff1db71c6ed6f079954a9cd5539cacf65cd3cf3c76b3c3c33ebfc4e5c0f7ee"
    ]
  ],
  "numDeployments": 1,
  "solcInputHash": "4a6689b8988ded9e23b8cf7c75a862e4",
  "bytecode": "0x60a06040523480156200001157600080fd5b50604051620054e0380380620054e08339810160408190526200003491620005bc565b84848484848484848462000048336200027a565b6001600160a01b03848116608052600180546001600160a01b031916918516919091179055600282905560005b8151811015620000c157620000ac828281518110620000985762000098620006b9565b6020026020010151620002ca60201b60201c565b80620000b881620006cf565b91505062000075565b505050505060005b815181101562000269576005828281518110620000ea57620000ea620006b9565b6020026020010151604051620001019190620006f7565b9081526040519081900360200190205460ff1615620001675760405162461bcd60e51b815260206004820152601b60248201527f50726f7669646572206861736820616c7265616479206164646564000000000060448201526064015b60405180910390fd5b60016005838381518110620001805762000180620006b9565b6020026020010151604051620001979190620006f7565b908152602001604051809103902060006101000a81548160ff0219169083151502179055506006828281518110620001d357620001d3620006b9565b60209081029190910181015182546001810184556000938452919092200190620001fe9082620007a4565b507fc9e1c78701d1853eeb1eb35ad3449e4b336281f672d5837243d21239dc6f4096828281518110620002355762000235620006b9565b60200260200101516040516200024c919062000870565b60405180910390a1806200026081620006cf565b915050620000c9565b5050505050505050505050620008a5565b600080546001600160a01b038381166001600160a01b0319831681178455604051919092169283917f8be0079c531659141344cd1fd0a4f28419497f9722a3daafe3b4186f6b6457e09190a35050565b620002d4620003b6565b60008181526004602052604090205460ff1615620003355760405162461bcd60e51b815260206004820152601660248201527f43757272656e637920616c72656164792061646465640000000000000000000060448201526064016200015e565b6003805460018082019092557fc2575a0e9e593c00f959f8c92f12db2869c3395a3b0502d05e2516446f71f85b01829055600082815260046020908152604091829020805460ff1916909317909255518281527f15e2bb2d9733845f72b6cc683c4d7bafd2d79cfd5c160cb1be756b6faa97dbdc910160405180910390a150565b6000546001600160a01b03163314620004125760405162461bcd60e51b815260206004820181905260248201527f4f776e61626c653a2063616c6c6572206973206e6f7420746865206f776e657260448201526064016200015e565b565b6001600160a01b03811681146200042a57600080fd5b50565b634e487b7160e01b600052604160045260246000fd5b604051601f8201601f191681016001600160401b03811182821017156200046e576200046e6200042d565b604052919050565b60006001600160401b038211156200049257620004926200042d565b5060051b60200190565b60005b83811015620004b95781810151838201526020016200049f565b50506000910152565b6000601f8381840112620004d557600080fd5b82516020620004ee620004e88362000476565b62000443565b82815260059290921b850181019181810190878411156200050e57600080fd5b8287015b84811015620005b05780516001600160401b0380821115620005345760008081fd5b818a0191508a603f8301126200054a5760008081fd5b858201516040828211156200056357620005636200042d565b62000576828b01601f1916890162000443565b92508183528c818386010111156200058e5760008081fd5b6200059f828985018387016200049c565b505084525091830191830162000512565b50979650505050505050565b600080600080600060a08688031215620005d557600080fd5b8551620005e28162000414565b80955050602080870151620005f78162000414565b6040880151606089015191965094506001600160401b03808211156200061c57600080fd5b818901915089601f8301126200063157600080fd5b815162000642620004e88262000476565b81815260059190911b8301840190848101908c8311156200066257600080fd5b938501935b82851015620006825784518252938501939085019062000667565b60808c015190975094505050808311156200069c57600080fd5b5050620006ac88828901620004c2565b9150509295509295909350565b634e487b7160e01b600052603260045260246000fd5b600060018201620006f057634e487b7160e01b600052601160045260246000fd5b5060010190565b600082516200070b8184602087016200049c565b9190910192915050565b600181811c908216806200072a57607f821691505b6020821081036200074b57634e487b7160e01b600052602260045260246000fd5b50919050565b601f8211156200079f57600081815260208120601f850160051c810160208610156200077a5750805b601f850160051c820191505b818110156200079b5782815560010162000786565b5050505b505050565b81516001600160401b03811115620007c057620007c06200042d565b620007d881620007d1845462000715565b8462000751565b602080601f831160018114620008105760008415620007f75750858301515b600019600386901b1c1916600185901b1785556200079b565b600085815260208120601f198616915b82811015620008415788860151825594840194600190910190840162000820565b5085821015620008605787850151600019600388901b60f8161c191681555b5050505050600190811b01905550565b6020815260008251806020840152620008918160408501602087016200049c565b601f01601f19169190910160400192915050565b608051614c18620008c8600039600081816102d8015261064d0152614c186000f3fe608060405234801561001057600080fd5b50600436106101375760003560e01c8063b2a3fda4116100b8578063cbcb3ea81161007c578063cbcb3ea8146102c2578063dbac5821146102ca578063e2fdcc17146102d3578063efd4ad5a146102fa578063f2fde38b1461030d578063fa93cd381461032057600080fd5b8063b2a3fda41461026c578063b870676c1461027f578063bd6e774114610292578063c2107e73146102a5578063cb37e35a146102ba57600080fd5b8063680cc8f9116100ff578063680cc8f9146101ec5780636903718014610202578063715018a61461021557806384c7b4391461021d5780638da5cb5b1461024757600080fd5b80631cba9bed1461013c5780632ca6927d146101515780633e1d0edc1461019457806357c6e12a146101b757806361c661de146101d7575b600080fd5b61014f61014a366004613de2565b610333565b005b61017f61015f366004613de2565b805160208183018101805160058252928201919093012091525460ff1681565b60405190151581526020015b60405180910390f35b61017f6101a2366004613e16565b60046020526000908152604090205460ff1681565b6101ca6101c5366004613e16565b61041b565b60405161018b9190613e7f565b6101df6104c7565b60405161018b9190613e92565b6101f461051f565b60405190815260200161018b565b61014f610210366004613e16565b610550565b61014f61062b565b61023061022b366004613ed6565b61063f565b60408051921515835260208301919091520161018b565b6000546001600160a01b03165b6040516001600160a01b03909116815260200161018b565b61014f61027a366004613e16565b610745565b600154610254906001600160a01b031681565b61014f6102a0366004613de2565b610782565b6102ad610898565b60405161018b9190613f18565b6101f4610971565b6101f4610994565b6101f460025481565b6102547f000000000000000000000000000000000000000000000000000000000000000081565b61014f610308366004613e16565b6109ba565b61014f61031b366004613f91565b610a68565b61017f61032e36600461429f565b610ae1565b61033b610ea1565b60058160405161034b919061430b565b9081526040519081900360200190205460ff166103af5760405162461bcd60e51b815260206004820152601760248201527f50726f76696465722068617368206e6f7420666f756e6400000000000000000060448201526064015b60405180910390fd5b6005816040516103bf919061430b565b908152604051908190036020019020805460ff191690556103e1600682610efb565b7f6f594b4b4f0580c66aabba75218163a99fa1fe330a171cc9e2bfd8e167db22f8816040516104109190613e7f565b60405180910390a150565b6006818154811061042b57600080fd5b90600052602060002001600091509050805461044690614327565b80601f016020809104026020016040519081016040528092919081815260200182805461047290614327565b80156104bf5780601f10610494576101008083540402835291602001916104bf565b820191906000526020600020905b8154815290600101906020018083116104a257829003601f168201915b505050505081565b6060600380548060200260200160405190810160405280929190818152602001828054801561051557602002820191906000526020600020905b815481526020019060010190808311610501575b5050505050905090565b60405167185c1c1c9bdd995960c21b60208201526028015b6040516020818303038152906040528051906020012081565b610558610ea1565b60008181526004602052604090205460ff16156105b05760405162461bcd60e51b815260206004820152601660248201527510dd5c9c995b98de48185b1c9958591e48185919195960521b60448201526064016103a6565b6003805460018082019092557fc2575a0e9e593c00f959f8c92f12db2869c3395a3b0502d05e2516446f71f85b01829055600082815260046020908152604091829020805460ff1916909317909255518281527f15e2bb2d9733845f72b6cc683c4d7bafd2d79cfd5c160cb1be756b6faa97dbdc9101610410565b610633610ea1565b61063d60006110b5565b565b600080336001600160a01b037f000000000000000000000000000000000000000000000000000000000000000016146106b15760405162461bcd60e51b815260206004820152601460248201527313db9b1e48195cd8dc9bddc818d85b8818d85b1b60621b60448201526064016103a6565b6000806106d36106c18680614361565b6106ce60e0890189614361565b611105565b915091506106eb82866106e5906143a7565b836111a8565b60008260800151604051602001610702919061430b565b6040516020818303038152906040528051906020012090506107238161163a565b6101008301516000906107369082611755565b60019890975095505050505050565b61074d610ea1565b60028190556040518181527f11e8dda5412ecab251b7783921be2eb37fdf13b389fc7f671f2cee11a1dfefea90602001610410565b61078a610ea1565b60058160405161079a919061430b565b9081526040519081900360200190205460ff16156107fa5760405162461bcd60e51b815260206004820152601b60248201527f50726f7669646572206861736820616c7265616479206164646564000000000060448201526064016103a6565b600160058260405161080c919061430b565b908152604051908190036020019020805491151560ff19909216919091179055600680546001810182556000919091527ff652222313e28459528d920b65115c16c04f3efc82aaedc97be59f3f377c0d3f0161086882826144c1565b507fc9e1c78701d1853eeb1eb35ad3449e4b336281f672d5837243d21239dc6f4096816040516104109190613e7f565b60606006805480602002602001604051908101604052809291908181526020016000905b828210156109685783829060005260206000200180546108db90614327565b80601f016020809104026020016040519081016040528092919081815260200182805461090790614327565b80156109545780601f1061092957610100808354040283529160200191610954565b820191906000526020600020905b81548152906001019060200180831161093757829003601f168201915b5050505050815260200190600101906108bc565b50505050905090565b6040516e7472616e736665725f6f6e6c696e6560881b6020820152602f01610537565b604051713819382fb6b7b732bcafba3930b739b332b960711b6020820152603201610537565b6109c2610ea1565b60008181526004602052604090205460ff16610a155760405162461bcd60e51b815260206004820152601260248201527110dd5c9c995b98de481b9bdd08185919195960721b60448201526064016103a6565b610a2060038261176f565b60008181526004602052604090819020805460ff19169055517fa3c6a408fb053e3ef5e9bcd22e3574324a5ae99fad263cc4080da481842d3d4c906104109083815260200190565b610a70610ea1565b6001600160a01b038116610ad55760405162461bcd60e51b815260206004820152602660248201527f4f776e61626c653a206e6577206f776e657220697320746865207a65726f206160448201526564647265737360d01b60648201526084016103a6565b610ade816110b5565b50565b6000808211610b445760405162461bcd60e51b815260206004820152602960248201527f5265717569726564207468726573686f6c64206d75737420626520677265617460448201526806572207468616e20360bc1b60648201526084016103a6565b8251821115610bc95760405162461bcd60e51b8152602060048201526044602482018190527f5265717569726564207468726573686f6c64206d757374206265206c65737320908201527f7468616e206f7220657175616c20746f206e756d626572206f66207769746e656064820152637373657360e01b608482015260a4016103a6565b60008460200151602001515111610c125760405162461bcd60e51b815260206004820152600d60248201526c4e6f207369676e61747572657360981b60448201526064016103a6565b604080518082019091526020808601805151835251810151908201528451600090610c3c90611897565b602087015151519091508114610c945760405162461bcd60e51b815260206004820152601c60248201527f436c61696d496e666f206861736820646f65736e2774206d617463680000000060448201526064016103a6565b80610cda5760405162461bcd60e51b8152602060048201526016602482015275436c61696d496e666f2068617368206973207a65726f60501b60448201526064016103a6565b6000610ce5836118da565b90508481511015610d495760405162461bcd60e51b815260206004820152602860248201527f4665776572207369676e617475726573207468616e20726571756972656420746044820152671a1c995cda1bdb1960c21b60648201526084016103a6565b600081516001600160401b03811115610d6457610d64613cc0565b604051908082528060200260200182016040528015610d8d578160200160208202803683370190505b5090506000805b8351811015610e35576000848281518110610db157610db1614580565b60200260200101519050610dce81856119b390919063ffffffff16565b15610dd95750610e23565b610de38a826119b3565b15610e215780848481518110610dfb57610dfb614580565b6001600160a01b039092166020928302919091019091015282610e1d816145ac565b9350505b505b80610e2d816145ac565b915050610d94565b5086811015610e925760405162461bcd60e51b815260206004820152602360248201527f4e6f7420656e6f7567682076616c6964207769746e657373207369676e61747560448201526272657360e81b60648201526084016103a6565b50600198975050505050505050565b6000546001600160a01b0316331461063d5760405162461bcd60e51b815260206004820181905260248201527f4f776e61626c653a2063616c6c6572206973206e6f7420746865206f776e657260448201526064016103a6565b600080610fd884805480602002602001604051908101604052809291908181526020016000905b82821015610fce578382906000526020600020018054610f4190614327565b80601f0160208091040260200160405190810160405280929190818152602001828054610f6d90614327565b8015610fba5780601f10610f8f57610100808354040283529160200191610fba565b820191906000526020600020905b815481529060010190602001808311610f9d57829003601f168201915b505050505081526020019060010190610f22565b50505050846119c9565b91509150806110205760405162461bcd60e51b815260206004820152601460248201527329ba3934b733903737ba1034b71030b93930bc9760611b60448201526064016103a6565b8354600090611031906001906145c5565b90508083146110805784818154811061104c5761104c614580565b9060005260206000200185848154811061106857611068614580565b90600052602060002001908161107e91906145d8565b505b84805480611090576110906146aa565b6001900381819060005260206000200160006110ac9190613bf3565b90555050505050565b600080546001600160a01b038381166001600160a01b0319831681178455604051919092169283917f8be0079c531659141344cd1fd0a4f28419497f9722a3daafe3b4186f6b6457e09190a35050565b61110d613c2d565b60008061111c868801886146c0565b9050600061112a8686611a3a565b905061113882826001610ae1565b5061114282611a48565b9350611152846101200151611bbb565b6111965760405162461bcd60e51b815260206004820152601560248201527409cde40ecc2d8d2c840e0e4deecd2c8cae490c2e6d605b1b60448201526064016103a6565b81604001519250505094509492505050565b6000670de0b6b3a76400008360c0015184604001516111c791906146f4565b6111d19190614721565b9050600083602001516001600160a01b031663313ce5676040518163ffffffff1660e01b8152600401602060405180830381865afa158015611217573d6000803e3d6000fd5b505050506040513d601f19601f8201168201806040525081019061123b9190614735565b905060006112528660000151876020015184611be6565b9050828110156112a45760405162461bcd60e51b815260206004820152601860248201527f496e636f7272656374207061796d656e7420616d6f756e74000000000000000060448201526064016103a6565b83156113425760008660e001516040516020016112c1919061430b565b6040516020818303038152906040528051906020012090506112f086608001516112ea83611c2d565b90611df2565b61133c5760405162461bcd60e51b815260206004820152601b60248201527f496e636f7272656374207061796d656e7420726563697069656e74000000000060448201526064016103a6565b506113a1565b608085015160e087015161135591611df2565b6113a15760405162461bcd60e51b815260206004820152601b60248201527f496e636f7272656374207061796d656e7420726563697069656e74000000000060448201526064016103a6565b60006002546113b38860400151611e4b565b6113bd9190614758565b905085606001518110156114135760405162461bcd60e51b815260206004820152601b60248201527f496e636f7272656374207061796d656e742074696d657374616d70000000000060448201526064016103a6565b6000876060015160405160200161142a919061430b565b6040516020818303038152906040528051906020012090508660a0015181146114955760405162461bcd60e51b815260206004820152601a60248201527f496e636f7272656374207061796d656e742063757272656e637900000000000060448201526064016103a6565b60008860c001516040516020016114ac919061430b565b6040516020818303038152906040528051906020012090506040516020016114ec90713819382fb6b7b732bcafba3930b739b332b960711b815260120190565b6040516020818303038152906040528051906020012081148061154157506040516e7472616e736665725f6f6e6c696e6560881b6020820152602f016040516020818303038152906040528051906020012081145b6115845760405162461bcd60e51b8152602060048201526014602482015273496e76616c6964207061796d656e74207479706560601b60448201526064016103a6565b60008960a0015160405160200161159b919061430b565b6040516020818303038152906040528051906020012090506040516020016115d19067185c1c1c9bdd995960c21b815260080190565b60405160208183030381529060405280519060200120811461162e5760405162461bcd60e51b8152602060048201526016602482015275496e76616c6964207061796d656e742073746174757360501b60448201526064016103a6565b50505050505050505050565b60015460405163169394bb60e01b8152600481018390526001600160a01b039091169063169394bb90602401602060405180830381865afa158015611683573d6000803e3d6000fd5b505050506040513d601f19601f820116820180604052508101906116a7919061476b565b156116f45760405162461bcd60e51b815260206004820152601f60248201527f4e756c6c69666965722068617320616c7265616479206265656e20757365640060448201526064016103a6565b600154604051632dea6f9960e11b8152600481018390526001600160a01b0390911690635bd4df3290602401600060405180830381600087803b15801561173a57600080fd5b505af115801561174e573d6000803e3d6000fd5b5050505050565b600061176683601760f91b84612067565b90505b92915050565b6000806117cb848054806020026020016040519081016040528092919081815260200182805480156117c057602002820191906000526020600020905b8154815260200190600101908083116117ac575b505050505084612244565b91509150806118145760405162461bcd60e51b8152602060048201526015602482015274313cba32b99999103737ba1034b71030b93930bc9760591b60448201526064016103a6565b8354600090611825906001906145c5565b905080831461186a5784818154811061184057611840614580565b906000526020600020015485848154811061185d5761185d614580565b6000918252602090912001555b8480548061187a5761187a6146aa565b600190038181906000526020600020016000905590555050505050565b6000808260000151836020015184604001516040516020016118bb93929190614788565b60408051601f1981840301815291905280516020909101209392505050565b606060006118eb8360000151612294565b905060008360200151516001600160401b0381111561190c5761190c613cc0565b604051908082528060200260200182016040528015611935578160200160208202803683370190505b50905060005b8460200151518110156119ab5761196f838660200151838151811061196257611962614580565b6020026020010151612320565b82828151811061198157611981614580565b6001600160a01b0390921660209283029190910190910152806119a3816145ac565b91505061193b565b509392505050565b6000806119c08484612369565b95945050505050565b81516000908190815b81811015611a275784805190602001208682815181106119f4576119f4614580565b60200260200101518051906020012003611a1557925060019150611a339050565b80611a1f816145ac565b9150506119d2565b50600019600092509250505b9250929050565b6060611766828401846147e3565b611a50613c2d565b6000611a67836000015160400151600d60016123cb565b905060405180610140016040528082600481518110611a8857611a88614580565b6020026020010151815260200182600581518110611aa857611aa8614580565b6020026020010151815260200182600781518110611ac857611ac8614580565b6020026020010151815260200182600681518110611ae857611ae8614580565b6020026020010151815260200182600881518110611b0857611b08614580565b6020026020010151815260200182600981518110611b2857611b28614580565b6020026020010151815260200182600a81518110611b4857611b48614580565b6020026020010151815260200182600b81518110611b6857611b68614580565b6020026020010151815260200182600181518110611b8857611b88614580565b6020026020010151815260200182600c81518110611ba857611ba8614580565b6020026020010151815250915050919050565b6000600582604051611bcd919061430b565b9081526040519081900360200190205460ff1692915050565b600080611bfb85600b60fa1b60ff8616612067565b90506000611c17611c0d600286614817565b869060ff16611755565b9050611c238183614758565b9695505050505050565b604080518082018252601081526f181899199a1a9b1b9c1cb0b131b232b360811b6020820152815160428082526080820190935260609260009190602082018180368337019050509050600360fc1b81600081518110611c8f57611c8f614580565b60200101906001600160f81b031916908160001a905350600f60fb1b81600181518110611cbe57611cbe614580565b60200101906001600160f81b031916908160001a90535060005b60208110156119ab57826004868360208110611cf657611cf6614580565b1a60f81b6001600160f81b031916901c60f81c60ff1681518110611d1c57611d1c614580565b01602001516001600160f81b03191682611d378360026146f4565b611d42906002614758565b81518110611d5257611d52614580565b60200101906001600160f81b031916908160001a90535082858260208110611d7c57611d7c614580565b825191901a600f16908110611d9357611d93614580565b01602001516001600160f81b03191682611dae8360026146f4565b611db9906003614758565b81518110611dc957611dc9614580565b60200101906001600160f81b031916908160001a90535080611dea816145ac565b915050611cd8565b600081604051602001611e05919061430b565b6040516020818303038152906040528051906020012083604051602001611e2c919061430b565b6040516020818303038152906040528051906020012014905092915050565b6000611e55613c80565b82516000908190815b81811015611fa257868181518110611e7857611e78614580565b6020910101516001600160f81b031916602d60f81b1480611ebd5750868181518110611ea657611ea6614580565b6020910101516001600160f81b031916601d60f91b145b80611eec5750868181518110611ed557611ed5614580565b6020910101516001600160f81b031916601560fa1b145b80611f1b5750868181518110611f0457611f04614580565b6020910101516001600160f81b031916600160fd1b145b15611f5d57611f2b87848361329c565b858560068110611f3d57611f3d614580565b6020020152611f4d816001614758565b925083611f59816145ac565b9450505b868181518110611f6f57611f6f614580565b01602001516001600160f81b031916601760f91b03611f9057809150611fa2565b80611f9a816145ac565b915050611e5e565b50611fae86838361329c565b848460068110611fc057611fc0614580565b60200201526005831461200b5760405162461bcd60e51b8152602060048201526013602482015272496e76616c6964206461746520737472696e6760681b60448201526064016103a6565b611c23612021600086815b602002015190611755565b61202e6000876001612016565b61203b6000886002612016565b6120486000896003612016565b61205560008a6004612016565b61206260008b6005612016565b613368565b600083818080805b84518110156121bd57603060f81b85828151811061208f5761208f614580565b01602001516001600160f81b031916108015906120d05750603960f81b8582815181106120be576120be614580565b01602001516001600160f81b03191611155b156121135760308582815181106120e9576120e9614580565b01602001516120fb919060f81c6145c5565b61210685600a6146f4565b6121109190614758565b93505b81156121275782612123816145ac565b9350505b876001600160f81b03191685828151811061214457612144614580565b01602001516001600160f81b031916036121ab5781156121a65760405162461bcd60e51b815260206004820152601c60248201527f537472696e6720686173206d756c7469706c6520646563696d616c730000000060448201526064016103a6565b600191505b806121b5816145ac565b91505061206f565b50858211156122195760405162461bcd60e51b815260206004820152602260248201527f537472696e672068617320746f6f206d616e7920646563696d616c20706c6163604482015261657360f01b60648201526084016103a6565b61222382876145c5565b61222e90600a614914565b61223890846146f4565b98975050505050505050565b81516000908190815b81811015611a27578486828151811061226857612268614580565b60200260200101510361228257925060019150611a339050565b8061228c816145ac565b91505061224d565b60606122c482600001516040516020016122b091815260200190565b6040516020818303038152906040526133c4565b6122d18360200151613587565b6122e4846040015163ffffffff166136f0565b6122f7856060015163ffffffff166136f0565b60405160200161230a9493929190614920565b6040516020818303038152906040529050919050565b60008061232d84516136f0565b8460405160200161233f929190614999565b604051602081830303815290604052805190602001209050612361818461381b565b949350505050565b81516000908190815b81811015611a2757846001600160a01b031686828151811061239657612396614580565b60200260200101516001600160a01b0316036123b957925060019150611a339050565b806123c3816145ac565b915050612372565b606060008360ff161161242a5760405162461bcd60e51b815260206004820152602160248201527f4d61782076616c756573206d7573742062652067726561746572207468616e206044820152600360fc1b60648201526084016103a6565b836000808080808061243d8a60026149f4565b60ff166001600160401b0381111561245757612457613cc0565b604051908082528060200260200182016040528015612480578160200160208202803683370190505b50905060005b604051806040016040528060138152602001723d9131b7b73a32bc3a20b2323932b9b9911d1160691b8152505181101561255f57604051806040016040528060138152602001723d9131b7b73a32bc3a20b2323932b9b9911d1160691b81525081815181106124f7576124f7614580565b01602001516001600160f81b03191688612511838a614758565b8151811061252157612521614580565b01602001516001600160f81b0319161461254d5760405162461bcd60e51b81526004016103a690614a17565b80612557816145ac565b915050612486565b50604051806040016040528060138152602001723d9131b7b73a32bc3a20b2323932b9b9911d1160691b81525051866125989190614758565b95508593505b86518610801561260e57508686815181106125bb576125bb614580565b6020910101516001600160f81b031916601160f91b14801561260c5750866125e46001886145c5565b815181106125f4576125f4614580565b6020910101516001600160f81b031916601760fa1b14155b155b15612625578561261d816145ac565b96505061259e565b865186106126455760405162461bcd60e51b81526004016103a690614a17565b8592508383036126ad5760405162461bcd60e51b815260206004820152602d60248201527f45787472616374696f6e206661696c65642e20456d70747920636f6e7465787460448201526c416464726573732076616c756560981b60648201526084016103a6565b83816126ba8760026146f4565b815181106126ca576126ca614580565b602090810291909101015282816126e28760026146f4565b6126ed906001614758565b815181106126fd576126fd614580565b602090810291909101015284612712816145ac565b95506127219050600287614758565b955060005b604051806040016040528060128152602001711131b7b73a32bc3a26b2b9b9b0b3b2911d1160711b815250518110156127fd57604051806040016040528060128152602001711131b7b73a32bc3a26b2b9b9b0b3b2911d1160711b815250818151811061279557612795614580565b01602001516001600160f81b031916886127af838a614758565b815181106127bf576127bf614580565b01602001516001600160f81b031916146127eb5760405162461bcd60e51b81526004016103a690614a62565b806127f5816145ac565b915050612726565b50604051806040016040528060128152602001711131b7b73a32bc3a26b2b9b9b0b3b2911d1160711b81525051866128359190614758565b95508593505b8651861080156128ab575086868151811061285857612858614580565b6020910101516001600160f81b031916601160f91b1480156128a95750866128816001886145c5565b8151811061289157612891614580565b6020910101516001600160f81b031916601760fa1b14155b155b156128c257856128ba816145ac565b96505061283b565b865186106128e25760405162461bcd60e51b81526004016103a690614a62565b85925083830361294a5760405162461bcd60e51b815260206004820152602d60248201527f45787472616374696f6e206661696c65642e20456d70747920636f6e7465787460448201526c4d6573736167652076616c756560981b60648201526084016103a6565b83816129578760026146f4565b8151811061296757612967614580565b6020908102919091010152828161297f8760026146f4565b61298a906001614758565b8151811061299a5761299a614580565b6020908102919091010152846129af816145ac565b95506129be9050600287614758565b955060005b604051806040016040528060188152602001771132bc3a3930b1ba32b22830b930b6b2ba32b939911d3d9160411b81525051811015612aef57604051806040016040528060188152602001771132bc3a3930b1ba32b22830b930b6b2ba32b939911d3d9160411b8152508181518110612a3e57612a3e614580565b01602001516001600160f81b03191688612a58838a614758565b81518110612a6857612a68614580565b01602001516001600160f81b03191614612add5760405162461bcd60e51b815260206004820152603060248201527f45787472616374696f6e206661696c65642e204d616c666f726d65642065787460448201526f726163746564506172616d657465727360801b60648201526084016103a6565b80612ae7816145ac565b9150506129c3565b50604051806040016040528060188152602001771132bc3a3930b1ba32b22830b930b6b2ba32b939911d3d9160411b8152505186612b2d9190614758565b9550600091505b8651861015612ed757868681518110612b4f57612b4f614580565b6020910101516001600160f81b031916601160f91b148015612ba0575086612b786001886145c5565b81518110612b8857612b88614580565b6020910101516001600160f81b031916601760fa1b14155b612bb65785612bae816145ac565b965050612b34565b81612cbe5786612bc7876001614758565b81518110612bd757612bd7614580565b6020910101516001600160f81b031916601d60f91b148015612c27575086612c00876002614758565b81518110612c1057612c10614580565b6020910101516001600160f81b031916601160f91b145b612c7f5760405162461bcd60e51b815260206004820152602360248201527f45787472616374696f6e206661696c65642e204d616c666f726d65642064617460448201526261203160e81b60648201526084016103a6565b612c8a600387614758565b9550600191508581612c9d8760026146f4565b81518110612cad57612cad614580565b602002602001018181525050612b34565b600087612ccc886001614758565b81518110612cdc57612cdc614580565b6020910101516001600160f81b031916600b60fa1b148015612d2c575087612d05886002614758565b81518110612d1557612d15614580565b6020910101516001600160f81b031916601160f91b145b9050600088612d3c896001614758565b81518110612d4c57612d4c614580565b6020910101516001600160f81b031916607d60f81b148015612d9c575088612d75896002614758565b81518110612d8557612d85614580565b6020910101516001600160f81b031916600b60fa1b145b90508180612da75750805b612dff5760405162461bcd60e51b815260206004820152602360248201527f45787472616374696f6e206661696c65642e204d616c666f726d65642064617460448201526230901960e91b60648201526084016103a6565b8783612e0c8960026146f4565b612e17906001614758565b81518110612e2757612e27614580565b602090810291909101015286612e3c816145ac565b9750508115612ebc578b60ff168703612ea65760405162461bcd60e51b815260206004820152602660248201527f45787472616374696f6e206661696c65642e204578636565646564206d61782060448201526576616c75657360d01b60648201526084016103a6565b612eb1600389614758565b975060009350612ed0565b612ec7600389614758565b97505050612ed7565b5050612b34565b88156130e45760005b6040518060400160405280601081526020016f11383937bb34b232b92430b9b4111d1160811b81525051811015612ff5576040518060400160405280601081526020016f11383937bb34b232b92430b9b4111d1160811b8152508181518110612f4b57612f4b614580565b01602001516001600160f81b03191688612f65838a614758565b81518110612f7557612f75614580565b01602001516001600160f81b03191614612fe35760405162461bcd60e51b815260206004820152602960248201527f45787472616374696f6e206661696c65642e204d616c666f726d65642070726f6044820152680ecd2c8cae490c2e6d60bb1b60648201526084016103a6565b80612fed816145ac565b915050612ee0565b506040518060400160405280601081526020016f11383937bb34b232b92430b9b4111d1160811b815250518661302b9190614758565b9550858161303a8760026146f4565b8151811061304a5761304a614580565b6020026020010181815250505b86518610801561308c575086868151811061307457613074614580565b6020910101516001600160f81b031916601160f91b14155b156130a3578561309b816145ac565b965050613057565b85816130b08760026146f4565b6130bb906001614758565b815181106130cb576130cb614580565b6020908102919091010152846130e0816145ac565b9550505b6000856001600160401b038111156130fe576130fe613cc0565b60405190808252806020026020018201604052801561313157816020015b606081526020019060019003908161311c5790505b50905060005b8681101561328c578261314b8260026146f4565b8151811061315b5761315b614580565b602002602001015195508281600261317391906146f4565b61317e906001614758565b8151811061318e5761318e614580565b60200260200101519450600086866131a691906145c5565b6001600160401b038111156131bd576131bd613cc0565b6040519080825280601f01601f1916602001820160405280156131e7576020820181803683370190505b509050865b86811015613259578a818151811061320657613206614580565b01602001516001600160f81b031916826132208a846145c5565b8151811061323057613230614580565b60200101906001600160f81b031916908160001a90535080613251816145ac565b9150506131ec565b508083838151811061326d5761326d614580565b6020026020010181905250508080613284906145ac565b915050613137565b509b9a5050505050505050505050565b60608360006132ab85856145c5565b6001600160401b038111156132c2576132c2613cc0565b6040519080825280601f01601f1916602001820160405280156132ec576020820181803683370190505b509050845b8481101561335e5782818151811061330b5761330b614580565b01602001516001600160f81b0319168261332588846145c5565b8151811061333557613335614580565b60200101906001600160f81b031916908160001a90535080613356816145ac565b9150506132f1565b5095945050505050565b600081613376603c856146f4565b613382610e10876146f4565b620151806133918b8b8b613837565b61339b91906146f4565b6133a59190614758565b6133af9190614758565b6133b99190614758565b979650505050505050565b60606000825160026133d691906146f4565b6001600160401b038111156133ed576133ed613cc0565b6040519080825280601f01601f191660200182016040528015613417576020820181803683370190505b5060408051808201909152601081526f181899199a1a9b1b9c1cb0b131b232b360811b602082015290915060005b845181101561355d5781825186838151811061346357613463614580565b0160200151613475919060f81c614721565b8151811061348557613485614580565b01602001516001600160f81b031916836134a08360026146f4565b815181106134b0576134b0614580565b60200101906001600160f81b031916908160001a9053508182518683815181106134dc576134dc614580565b01602001516134ee919060f81c614aad565b815181106134fe576134fe614580565b01602001516001600160f81b031916836135198360026146f4565b613524906001614758565b8151811061353457613534614580565b60200101906001600160f81b031916908160001a90535080613555816145ac565b915050613445565b508160405160200161356f9190614ac1565b60405160208183030381529060405292505050919050565b60408051602880825260608281019093526000919060208201818036833701905050905060005b60148110156136c75760006135c48260136145c5565b6135cf9060086146f4565b6135da906002614914565b6135ed906001600160a01b038716614721565b60f81b9050600060108260f81c6136049190614aeb565b60f81b905060008160f81c601061361b91906149f4565b8360f81c6136299190614817565b60f81b905061363782613968565b856136438660026146f4565b8151811061365357613653614580565b60200101906001600160f81b031916908160001a90535061367381613968565b8561367f8660026146f4565b61368a906001614758565b8151811061369a5761369a614580565b60200101906001600160f81b031916908160001a90535050505080806136bf906145ac565b9150506135ae565b50806040516020016136d99190614ac1565b604051602081830303815290604052915050919050565b6060816000036137175750506040805180820190915260018152600360fc1b602082015290565b8160005b8115613741578061372b816145ac565b915061373a9050600a83614721565b915061371b565b6000816001600160401b0381111561375b5761375b613cc0565b6040519080825280601f01601f191660200182016040528015613785576020820181803683370190505b509050815b85156138125761379b6001826145c5565b905060006137aa600a88614721565b6137b590600a6146f4565b6137bf90886145c5565b6137ca906030614b0d565b905060008160f81b9050808484815181106137e7576137e7614580565b60200101906001600160f81b031916908160001a905350613809600a89614721565b9750505061378a565b50949350505050565b600080600061382a85856139a3565b915091506119ab816139e5565b60006107b284101561384857600080fd5b838383600062253d8c60046064600c613862600e88614b26565b61386c9190614b46565b61387888611324614b74565b6138829190614b74565b61388c9190614b46565b613897906003614b9c565b6138a19190614b46565b600c806138af600e88614b26565b6138b99190614b46565b6138c490600c614b9c565b6138cf600288614b26565b6138d99190614b26565b6138e59061016f614b9c565b6138ef9190614b46565b6004600c6138fe600e89614b26565b6139089190614b46565b613914896112c0614b74565b61391e9190614b74565b61392a906105b5614b9c565b6139349190614b46565b613940617d4b87614b26565b61394a9190614b74565b6139549190614b74565b61395e9190614b26565b6122389190614b26565b6000600a60f883901c101561398f5761398660f883901c6030614b0d565b60f81b92915050565b61398660f883901c6057614b0d565b919050565b60008082516041036139d95760208301516040840151606085015160001a6139cd87828585613b2f565b94509450505050611a33565b50600090506002611a33565b60008160048111156139f9576139f9614bcc565b03613a015750565b6001816004811115613a1557613a15614bcc565b03613a625760405162461bcd60e51b815260206004820152601860248201527f45434453413a20696e76616c6964207369676e6174757265000000000000000060448201526064016103a6565b6002816004811115613a7657613a76614bcc565b03613ac35760405162461bcd60e51b815260206004820152601f60248201527f45434453413a20696e76616c6964207369676e6174757265206c656e6774680060448201526064016103a6565b6003816004811115613ad757613ad7614bcc565b03610ade5760405162461bcd60e51b815260206004820152602260248201527f45434453413a20696e76616c6964207369676e6174757265202773272076616c604482015261756560f01b60648201526084016103a6565b6000807f7fffffffffffffffffffffffffffffff5d576e7357a4501ddfe92f46681b20a0831115613b665750600090506003613bea565b6040805160008082526020820180845289905260ff881692820192909252606081018690526080810185905260019060a0016020604051602081039080840390855afa158015613bba573d6000803e3d6000fd5b5050604051601f1901519150506001600160a01b038116613be357600060019250925050613bea565b9150600090505b94509492505050565b508054613bff90614327565b6000825580601f10613c0f575050565b601f016020900490600052602060002090810190610ade9190613ca7565b604051806101400160405280606081526020016060815260200160608152602001606081526020016060815260200160608152602001606081526020016060815260200160608152602001606081525090565b6040518060c001604052806006905b6060815260200190600190039081613c8f5790505090565b5b80821115613cbc5760008155600101613ca8565b5090565b634e487b7160e01b600052604160045260246000fd5b604051608081016001600160401b0381118282101715613cf857613cf8613cc0565b60405290565b604051606081016001600160401b0381118282101715613cf857613cf8613cc0565b60405161010081016001600160401b0381118282101715613cf857613cf8613cc0565b604051601f8201601f191681016001600160401b0381118282101715613d6b57613d6b613cc0565b604052919050565b600082601f830112613d8457600080fd5b81356001600160401b03811115613d9d57613d9d613cc0565b613db0601f8201601f1916602001613d43565b818152846020838601011115613dc557600080fd5b816020850160208301376000918101602001919091529392505050565b600060208284031215613df457600080fd5b81356001600160401b03811115613e0a57600080fd5b61236184828501613d73565b600060208284031215613e2857600080fd5b5035919050565b60005b83811015613e4a578181015183820152602001613e32565b50506000910152565b60008151808452613e6b816020860160208601613e2f565b601f01601f19169290920160200192915050565b6020815260006117666020830184613e53565b6020808252825182820181905260009190848201906040850190845b81811015613eca57835183529284019291840191600101613eae565b50909695505050505050565b600060208284031215613ee857600080fd5b81356001600160401b03811115613efe57600080fd5b82016101008185031215613f1157600080fd5b9392505050565b6000602080830181845280855180835260408601915060408160051b870101925083870160005b82811015613f6d57603f19888603018452613f5b858351613e53565b94509285019290850190600101613f3f565b5092979650505050505050565b80356001600160a01b038116811461399e57600080fd5b600060208284031215613fa357600080fd5b61176682613f7a565b803563ffffffff8116811461399e57600080fd5b60006001600160401b03821115613fd957613fd9613cc0565b5060051b60200190565b600082601f830112613ff457600080fd5b8135602061400961400483613fc0565b613d43565b82815260059290921b8401810191818101908684111561402857600080fd5b8286015b848110156140675780356001600160401b0381111561404b5760008081fd5b6140598986838b0101613d73565b84525091830191830161402c565b509695505050505050565b600081830360a081121561408557600080fd5b604051604081016001600160401b0382821081831117156140a8576140a8613cc0565b8160405282945060808412156140bd57600080fd5b6140c5613cd6565b9350853584526140d760208701613f7a565b60208501526140e860408701613fac565b60408501526140f960608701613fac565b60608501529282526080850135928084111561411457600080fd5b505061412285838601613fe3565b6020820152505092915050565b8015158114610ade57600080fd5b803561399e8161412f565b60006060828403121561415a57600080fd5b614162613cfe565b905081356001600160401b038082111561417b57600080fd5b908301906060828603121561418f57600080fd5b614197613cfe565b8235828111156141a657600080fd5b6141b287828601613d73565b8252506020830135828111156141c757600080fd5b6141d387828601613d73565b6020830152506040830135828111156141eb57600080fd5b6141f787828601613d73565b6040830152508352602084013591508082111561421357600080fd5b5061422084828501614072565b6020830152506142326040830161413d565b604082015292915050565b600082601f83011261424e57600080fd5b8135602061425e61400483613fc0565b82815260059290921b8401810191818101908684111561427d57600080fd5b8286015b848110156140675761429281613f7a565b8352918301918301614281565b6000806000606084860312156142b457600080fd5b83356001600160401b03808211156142cb57600080fd5b6142d787838801614148565b945060208601359150808211156142ed57600080fd5b506142fa8682870161423d565b925050604084013590509250925092565b6000825161431d818460208701613e2f565b9190910192915050565b600181811c9082168061433b57607f821691505b60208210810361435b57634e487b7160e01b600052602260045260246000fd5b50919050565b6000808335601e1984360301811261437857600080fd5b8301803591506001600160401b0382111561439257600080fd5b602001915036819003821315611a3357600080fd5b600061010082360312156143ba57600080fd5b6143c2613d20565b82356001600160401b03808211156143d957600080fd5b6143e536838701613d73565b83526143f360208601613f7a565b60208401526040850135604084015260608501356060840152608085013591508082111561442057600080fd5b61442c36838701613d73565b608084015260a085013560a084015260c085013560c084015260e085013591508082111561445957600080fd5b5061446636828601613d73565b60e08301525092915050565b601f8211156144bc57600081815260208120601f850160051c810160208610156144995750805b601f850160051c820191505b818110156144b8578281556001016144a5565b5050505b505050565b81516001600160401b038111156144da576144da613cc0565b6144ee816144e88454614327565b84614472565b602080601f831160018114614523576000841561450b5750858301515b600019600386901b1c1916600185901b1785556144b8565b600085815260208120601f198616915b8281101561455257888601518255948401946001909101908401614533565b50858210156145705787850151600019600388901b60f8161c191681555b5050505050600190811b01905550565b634e487b7160e01b600052603260045260246000fd5b634e487b7160e01b600052601160045260246000fd5b6000600182016145be576145be614596565b5060010190565b8181038181111561176957611769614596565b8181036145e3575050565b6145ed8254614327565b6001600160401b0381111561460457614604613cc0565b614612816144e88454614327565b6000601f821160018114614646576000831561462e5750848201545b600019600385901b1c1916600184901b17845561174e565b600085815260209020601f19841690600086815260209020845b838110156146805782860154825560019586019590910190602001614660565b50858310156145705793015460001960f8600387901b161c19169092555050600190811b01905550565b634e487b7160e01b600052603160045260246000fd5b6000602082840312156146d257600080fd5b81356001600160401b038111156146e857600080fd5b61236184828501614148565b808202811582820484141761176957611769614596565b634e487b7160e01b600052601260045260246000fd5b6000826147305761473061470b565b500490565b60006020828403121561474757600080fd5b815160ff81168114613f1157600080fd5b8082018082111561176957611769614596565b60006020828403121561477d57600080fd5b8151613f118161412f565b6000845161479a818460208901613e2f565b600560f91b90830181815285519091906147bb816001850160208a01613e2f565b600192019182015283516147d6816002840160208801613e2f565b0160020195945050505050565b6000602082840312156147f557600080fd5b81356001600160401b0381111561480b57600080fd5b6123618482850161423d565b60ff828116828216039081111561176957611769614596565b600181815b8085111561486b57816000190482111561485157614851614596565b8085161561485e57918102915b93841c9390800290614835565b509250929050565b60008261488257506001611769565b8161488f57506000611769565b81600181146148a557600281146148af576148cb565b6001915050611769565b60ff8411156148c0576148c0614596565b50506001821b611769565b5060208310610133831016604e8410600b84101617156148ee575081810a611769565b6148f88383614830565b806000190482111561490c5761490c614596565b029392505050565b60006117668383614873565b60008551614932818460208a01613e2f565b600560f91b9083018181528651909190614953816001850160208b01613e2f565b600192019182018190528551614970816002850160208a01613e2f565b6002920191820152835161498b816003840160208801613e2f565b016003019695505050505050565b7f19457468657265756d205369676e6564204d6573736167653a0a0000000000008152600083516149d181601a850160208801613e2f565b8351908301906149e881601a840160208801613e2f565b01601a01949350505050565b60ff8181168382160290811690818114614a1057614a10614596565b5092915050565b6020808252602b908201527f45787472616374696f6e206661696c65642e204d616c666f726d656420636f6e60408201526a746578744164647265737360a81b606082015260800190565b6020808252602b908201527f45787472616374696f6e206661696c65642e204d616c666f726d656420636f6e60408201526a746578744d65737361676560a81b606082015260800190565b600082614abc57614abc61470b565b500690565b61060f60f31b815260008251614ade816002850160208701613e2f565b9190910160020192915050565b600060ff831680614afe57614afe61470b565b8060ff84160491505092915050565b60ff818116838216019081111561176957611769614596565b8181036000831280158383131683831282161715614a1057614a10614596565b600082614b5557614b5561470b565b600160ff1b821460001984141615614b6f57614b6f614596565b500590565b8082018281126000831280158216821582161715614b9457614b94614596565b505092915050565b80820260008212600160ff1b84141615614bb857614bb8614596565b818105831482151761176957611769614596565b634e487b7160e01b600052602160045260246000fdfea26469706673582212201cfbcfb2f1d2dc81741615e88325a24776d8b3d217d8be54eb628604208e02a964736f6c63430008120033",
  "devdoc": {
    "kind": "dev",
    "methods": {
      "addCurrency(bytes32)": {
        "params": {
          "_currencyCode": "Currency code to add"
        }
      },
      "addProviderHash(string)": {
        "params": {
          "_newProviderHash": "New provider hash to be added"
        }
      },
      "owner()": {
        "details": "Returns the address of the current owner."
      },
      "removeCurrency(bytes32)": {
        "params": {
          "_currencyCode": "Currency code to remove"
        }
      },
      "removeProviderHash(string)": {
        "params": {
          "_removeProviderHash": "Provider hash to be removed"
        }
      },
      "renounceOwnership()": {
        "details": "Leaves the contract without owner. It will not be possible to call `onlyOwner` functions. Can only be called by the current owner. NOTE: Renouncing ownership will leave the contract without an owner, thereby disabling any functionality that is only available to the owner."
      },
      "setTimestampBuffer(uint256)": {
        "params": {
          "_timestampBuffer": "The timestamp buffer for payments"
        }
      },
      "transferOwnership(address)": {
        "details": "Transfers ownership of the contract to a new account (`newOwner`). Can only be called by the current owner."
      },
      "verifyPayment((bytes,address,uint256,uint256,string,bytes32,uint256,bytes))": {
        "params": {
          "_verifyPaymentData": "Payment proof and intent details required for verification"
        }
      },
      "verifyProofSignatures(((string,string,string),((bytes32,address,uint32,uint32),bytes[]),bool),address[],uint256)": {
        "params": {
          "_requiredThreshold": "Minimum number of signatures required from accepted witnesses",
          "_witnesses": "List of accepted witnesses",
          "proof": "Proof to be verified"
        }
      }
    },
    "version": 1
  },
  "userdoc": {
    "kind": "user",
    "methods": {
      "addCurrency(bytes32)": {
        "notice": "OWNER ONLY: Adds a currency code to supported currencies"
      },
      "addProviderHash(string)": {
        "notice": "ONLY OWNER: Add provider hash string. Provider hash must not have been previously added."
      },
      "removeCurrency(bytes32)": {
        "notice": "OWNER ONLY: Removes a currency code from supported currencies"
      },
      "removeProviderHash(string)": {
        "notice": "ONLY OWNER: Remove provider hash string. Provider hash must have been previously added."
      },
      "setTimestampBuffer(uint256)": {
        "notice": "OWNER ONLY: Sets the timestamp buffer for payments. This is the amount of time in seconds that the timestamp can be off by and still be considered valid. Necessary to build in flexibility  with L2 timestamps."
      },
      "verifyPayment((bytes,address,uint256,uint256,string,bytes32,uint256,bytes))": {
        "notice": "ONLY RAMP: Verifies a reclaim proof of an offchain Mercado Pago payment. Ensures the right _intentAmount * _conversionRate was paid to _payeeDetails after _intentTimestamp + timestampBuffer on Mercado Pago. Additionaly, checks the right fiatCurrency was paid and the payment status is correct."
      },
      "verifyProofSignatures(((string,string,string),((bytes32,address,uint32,uint32),bytes[]),bool),address[],uint256)": {
        "notice": "Verify proof generated by witnesses. Claim is constructed by hashing claimInfo (provider, context, parameters) to get the identifier. And then signing on (identifier, owner, timestamp, epoch) to get claim signature.  This function verifies a claim by performing the following checks on the claim - Calculates the hash of the claimInfo and checks if it matches the identifier in the claim - Checks if the signatures are valid and from the witnesses This function reverts if - No signatures are found on the proof - ClaimInfo hash does not match the identifier in the claim - Signatures are invalid (not from the witnesses)  DEV NOTE: This function does NOT validate that the claim provider hash is valid. That is the  responsibility of the caller. Ensure witnesses are unique otherwise the threshold can be met  with duplicate witnesses.  Parts of the code are adapted from: https://basescan.org/address/0x7281630e4346dd4c0b7ae3b4689c1d0102741410#code    "
      }
    },
    "version": 1
  },
  "storageLayout": {
    "storage": [
      {
        "astId": 7,
        "contract": "contracts/verifiers/MercadoPagoReclaimVerifier.sol:MercadoPagoReclaimVerifier",
        "label": "_owner",
        "offset": 0,
        "slot": "0",
        "type": "t_address"
      },
      {
        "astId": 9450,
        "contract": "contracts/verifiers/MercadoPagoReclaimVerifier.sol:MercadoPagoReclaimVerifier",
        "label": "nullifierRegistry",
        "offset": 0,
        "slot": "1",
        "type": "t_contract(INullifierRegistry)12414"
      },
      {
        "astId": 9452,
        "contract": "contracts/verifiers/MercadoPagoReclaimVerifier.sol:MercadoPagoReclaimVerifier",
        "label": "timestampBuffer",
        "offset": 0,
        "slot": "2",
        "type": "t_uint256"
      },
      {
        "astId": 9455,
        "contract": "contracts/verifiers/MercadoPagoReclaimVerifier.sol:MercadoPagoReclaimVerifier",
        "label": "currencies",
        "offset": 0,
        "slot": "3",
        "type": "t_array(t_bytes32)dyn_storage"
      },
      {
        "astId": 9459,
        "contract": "contracts/verifiers/MercadoPagoReclaimVerifier.sol:MercadoPagoReclaimVerifier",
        "label": "isCurrency",
        "offset": 0,
        "slot": "4",
        "type": "t_mapping(t_bytes32,t_bool)"
      },
      {
        "astId": 9656,
        "contract": "contracts/verifiers/MercadoPagoReclaimVerifier.sol:MercadoPagoReclaimVerifier",
        "label": "isProviderHash",
        "offset": 0,
        "slot": "5",
        "type": "t_mapping(t_string_memory_ptr,t_bool)"
      },
      {
        "astId": 9659,
        "contract": "contracts/verifiers/MercadoPagoReclaimVerifier.sol:MercadoPagoReclaimVerifier",
        "label": "providerHashes",
        "offset": 0,
        "slot": "6",
        "type": "t_array(t_string_storage)dyn_storage"
      }
    ],
    "types": {
      "t_address": {
        "encoding": "inplace",
        "label": "address",
        "numberOfBytes": "20"
      },
      "t_array(t_bytes32)dyn_storage": {
        "base": "t_bytes32",
        "encoding": "dynamic_array",
        "label": "bytes32[]",
        "numberOfBytes": "32"
      },
      "t_array(t_string_storage)dyn_storage": {
        "base": "t_string_storage",
        "encoding": "dynamic_array",
        "label": "string[]",
        "numberOfBytes": "32"
      },
      "t_bool": {
        "encoding": "inplace",
        "label": "bool",
        "numberOfBytes": "1"
      },
      "t_bytes32": {
        "encoding": "inplace",
        "label": "bytes32",
        "numberOfBytes": "32"
      },
      "t_contract(INullifierRegistry)12414": {
        "encoding": "inplace",
        "label": "contract INullifierRegistry",
        "numberOfBytes": "20"
      },
      "t_mapping(t_bytes32,t_bool)": {
        "encoding": "mapping",
        "key": "t_bytes32",
        "label": "mapping(bytes32 => bool)",
        "numberOfBytes": "32",
        "value": "t_bool"
      },
      "t_mapping(t_string_memory_ptr,t_bool)": {
        "encoding": "mapping",
        "key": "t_string_memory_ptr",
        "label": "mapping(string => bool)",
        "numberOfBytes": "32",
        "value": "t_bool"
      },
      "t_string_memory_ptr": {
        "encoding": "bytes",
        "label": "string",
        "numberOfBytes": "32"
      },
      "t_string_storage": {
        "encoding": "bytes",
        "label": "string",
        "numberOfBytes": "32"
      },
      "t_uint256": {
        "encoding": "inplace",
        "label": "uint256",
        "numberOfBytes": "32"
      }
    }
  }
}