{
  "address": "0x3D1752E0cC528fd4e3f29f3E0C49faB9ff4c1285",
  "abi": [
    {
      "inputs": [
        {
          "internalType": "address",
          "name": "_escrow",
          "type": "address"
        },
        {
          "internalType": "contract INullifierRegistry",
          "name": "_nullifierRegistry",
          "type": "address"
        },
        {
          "internalType": "uint256",
          "name": "_timestampBuffer",
          "type": "uint256"
        },
        {
          "internalType": "bytes32[]",
          "name": "_currencies",
          "type": "bytes32[]"
        },
        {
          "internalType": "string[]",
          "name": "_providerHashes",
          "type": "string[]"
        }
      ],
      "stateMutability": "nonpayable",
      "type": "constructor"
    },
    {
      "anonymous": false,
      "inputs": [
        {
          "indexed": false,
          "internalType": "bytes32",
          "name": "currencyCode",
          "type": "bytes32"
        }
      ],
      "name": "CurrencyAdded",
      "type": "event"
    },
    {
      "anonymous": false,
      "inputs": [
        {
          "indexed": false,
          "internalType": "bytes32",
          "name": "currencyCode",
          "type": "bytes32"
        }
      ],
      "name": "CurrencyRemoved",
      "type": "event"
    },
    {
      "anonymous": false,
      "inputs": [
        {
          "indexed": true,
          "internalType": "address",
          "name": "previousOwner",
          "type": "address"
        },
        {
          "indexed": true,
          "internalType": "address",
          "name": "newOwner",
          "type": "address"
        }
      ],
      "name": "OwnershipTransferred",
      "type": "event"
    },
    {
      "anonymous": false,
      "inputs": [
        {
          "indexed": false,
          "internalType": "string",
          "name": "providerHash",
          "type": "string"
        }
      ],
      "name": "ProviderHashAdded",
      "type": "event"
    },
    {
      "anonymous": false,
      "inputs": [
        {
          "indexed": false,
          "internalType": "string",
          "name": "providerHash",
          "type": "string"
        }
      ],
      "name": "ProviderHashRemoved",
      "type": "event"
    },
    {
      "anonymous": false,
      "inputs": [
        {
          "indexed": false,
          "internalType": "uint256",
          "name": "timestampBuffer",
          "type": "uint256"
        }
      ],
      "name": "TimestampBufferSet",
      "type": "event"
    },
    {
      "inputs": [],
      "name": "COMPLETE_PAYMENT_STATUS",
      "outputs": [
        {
          "internalType": "bytes32",
          "name": "",
          "type": "bytes32"
        }
      ],
      "stateMutability": "view",
      "type": "function"
    },
    {
      "inputs": [],
      "name": "P2P_PAYMENT_TYPE",
      "outputs": [
        {
          "internalType": "bytes32",
          "name": "",
          "type": "bytes32"
        }
      ],
      "stateMutability": "view",
      "type": "function"
    },
    {
      "inputs": [
        {
          "internalType": "bytes32",
          "name": "_currencyCode",
          "type": "bytes32"
        }
      ],
      "name": "addCurrency",
      "outputs": [],
      "stateMutability": "nonpayable",
      "type": "function"
    },
    {
      "inputs": [
        {
          "internalType": "string",
          "name": "_newProviderHash",
          "type": "string"
        }
      ],
      "name": "addProviderHash",
      "outputs": [],
      "stateMutability": "nonpayable",
      "type": "function"
    },
    {
      "inputs": [],
      "name": "escrow",
      "outputs": [
        {
          "internalType": "address",
          "name": "",
          "type": "address"
        }
      ],
      "stateMutability": "view",
      "type": "function"
    },
    {
      "inputs": [],
      "name": "getCurrencies",
      "outputs": [
        {
          "internalType": "bytes32[]",
          "name": "",
          "type": "bytes32[]"
        }
      ],
      "stateMutability": "view",
      "type": "function"
    },
    {
      "inputs": [],
      "name": "getProviderHashes",
      "outputs": [
        {
          "internalType": "string[]",
          "name": "",
          "type": "string[]"
        }
      ],
      "stateMutability": "view",
      "type": "function"
    },
    {
      "inputs": [
        {
          "internalType": "bytes32",
          "name": "",
          "type": "bytes32"
        }
      ],
      "name": "isCurrency",
      "outputs": [
        {
          "internalType": "bool",
          "name": "",
          "type": "bool"
        }
      ],
      "stateMutability": "view",
      "type": "function"
    },
    {
      "inputs": [
        {
          "internalType": "string",
          "name": "",
          "type": "string"
        }
      ],
      "name": "isProviderHash",
      "outputs": [
        {
          "internalType": "bool",
          "name": "",
          "type": "bool"
        }
      ],
      "stateMutability": "view",
      "type": "function"
    },
    {
      "inputs": [],
      "name": "nullifierRegistry",
      "outputs": [
        {
          "internalType": "contract INullifierRegistry",
          "name": "",
          "type": "address"
        }
      ],
      "stateMutability": "view",
      "type": "function"
    },
    {
      "inputs": [],
      "name": "owner",
      "outputs": [
        {
          "internalType": "address",
          "name": "",
          "type": "address"
        }
      ],
      "stateMutability": "view",
      "type": "function"
    },
    {
      "inputs": [
        {
          "internalType": "uint256",
          "name": "",
          "type": "uint256"
        }
      ],
      "name": "providerHashes",
      "outputs": [
        {
          "internalType": "string",
          "name": "",
          "type": "string"
        }
      ],
      "stateMutability": "view",
      "type": "function"
    },
    {
      "inputs": [
        {
          "internalType": "bytes32",
          "name": "_currencyCode",
          "type": "bytes32"
        }
      ],
      "name": "removeCurrency",
      "outputs": [],
      "stateMutability": "nonpayable",
      "type": "function"
    },
    {
      "inputs": [
        {
          "internalType": "string",
          "name": "_removeProviderHash",
          "type": "string"
        }
      ],
      "name": "removeProviderHash",
      "outputs": [],
      "stateMutability": "nonpayable",
      "type": "function"
    },
    {
      "inputs": [],
      "name": "renounceOwnership",
      "outputs": [],
      "stateMutability": "nonpayable",
      "type": "function"
    },
    {
      "inputs": [
        {
          "internalType": "uint256",
          "name": "_timestampBuffer",
          "type": "uint256"
        }
      ],
      "name": "setTimestampBuffer",
      "outputs": [],
      "stateMutability": "nonpayable",
      "type": "function"
    },
    {
      "inputs": [],
      "name": "timestampBuffer",
      "outputs": [
        {
          "internalType": "uint256",
          "name": "",
          "type": "uint256"
        }
      ],
      "stateMutability": "view",
      "type": "function"
    },
    {
      "inputs": [
        {
          "internalType": "address",
          "name": "newOwner",
          "type": "address"
        }
      ],
      "name": "transferOwnership",
      "outputs": [],
      "stateMutability": "nonpayable",
      "type": "function"
    },
    {
      "inputs": [
        {
          "components": [
            {
              "internalType": "bytes",
              "name": "paymentProof",
              "type": "bytes"
            },
            {
              "internalType": "address",
              "name": "depositToken",
              "type": "address"
            },
            {
              "internalType": "uint256",
              "name": "intentAmount",
              "type": "uint256"
            },
            {
              "internalType": "uint256",
              "name": "intentTimestamp",
              "type": "uint256"
            },
            {
              "internalType": "string",
              "name": "payeeDetails",
              "type": "string"
            },
            {
              "internalType": "bytes32",
              "name": "fiatCurrency",
              "type": "bytes32"
            },
            {
              "internalType": "uint256",
              "name": "conversionRate",
              "type": "uint256"
            },
            {
              "internalType": "bytes",
              "name": "data",
              "type": "bytes"
            }
          ],
          "internalType": "struct IPaymentVerifier.VerifyPaymentData",
          "name": "_verifyPaymentData",
          "type": "tuple"
        }
      ],
      "name": "verifyPayment",
      "outputs": [
        {
          "internalType": "bool",
          "name": "",
          "type": "bool"
        },
        {
          "internalType": "bytes32",
          "name": "",
          "type": "bytes32"
        }
      ],
      "stateMutability": "nonpayable",
      "type": "function"
    },
    {
      "inputs": [
        {
          "components": [
            {
              "components": [
                {
                  "internalType": "string",
                  "name": "provider",
                  "type": "string"
                },
                {
                  "internalType": "string",
                  "name": "parameters",
                  "type": "string"
                },
                {
                  "internalType": "string",
                  "name": "context",
                  "type": "string"
                }
              ],
              "internalType": "struct Claims.ClaimInfo",
              "name": "claimInfo",
              "type": "tuple"
            },
            {
              "components": [
                {
                  "components": [
                    {
                      "internalType": "bytes32",
                      "name": "identifier",
                      "type": "bytes32"
                    },
                    {
                      "internalType": "address",
                      "name": "owner",
                      "type": "address"
                    },
                    {
                      "internalType": "uint32",
                      "name": "timestampS",
                      "type": "uint32"
                    },
                    {
                      "internalType": "uint32",
                      "name": "epoch",
                      "type": "uint32"
                    }
                  ],
                  "internalType": "struct Claims.CompleteClaimData",
                  "name": "claim",
                  "type": "tuple"
                },
                {
                  "internalType": "bytes[]",
                  "name": "signatures",
                  "type": "bytes[]"
                }
              ],
              "internalType": "struct Claims.SignedClaim",
              "name": "signedClaim",
              "type": "tuple"
            },
            {
              "internalType": "bool",
              "name": "isAppclipProof",
              "type": "bool"
            }
          ],
          "internalType": "struct IReclaimVerifier.ReclaimProof",
          "name": "proof",
          "type": "tuple"
        },
        {
          "internalType": "address[]",
          "name": "_witnesses",
          "type": "address[]"
        },
        {
          "internalType": "uint256",
          "name": "_requiredThreshold",
          "type": "uint256"
        }
      ],
      "name": "verifyProofSignatures",
      "outputs": [
        {
          "internalType": "bool",
          "name": "",
          "type": "bool"
        }
      ],
      "stateMutability": "pure",
      "type": "function"
    }
  ],
  "transactionHash": "0x4f3a57f26d585fd39a4bd9421f6af423c50e2c2e565e192cdc98ba11b29ac4a4",
  "args": [
    "0xFF0149799631D7A5bdE2e7eA9b306c42b3d9a9ca",
    "0x9cF61278C2Cc9C41578fE3a0ED375E9870D514F1",
    "30",
    [
      "0x8fd50654b7dd2dc839f7cab32800ba0c6f7f66e1ccf89b21c09405469c2175ec"
    ],
    [
      "0x496c6289b4a6aab1c733d4bc871837266e6096172d92a1870f73c46bd37e2aed",
      "0xb7dcbcc5b413ad040ee9d02eafb9794e6472647b8e50247813fa2d3392727203"
    ]
  ],
  "numDeployments": 1,
  "solcInputHash": "dbe228fb8a8172d8407e5eaef9f241da",
  "bytecode": "0x60a06040523480156200001157600080fd5b5060405162005468380380620054688339810160408190526200003491620005bc565b84848484848484848462000048336200027a565b6001600160a01b03848116608052600180546001600160a01b031916918516919091179055600282905560005b8151811015620000c157620000ac828281518110620000985762000098620006b9565b6020026020010151620002ca60201b60201c565b80620000b881620006cf565b91505062000075565b505050505060005b815181101562000269576005828281518110620000ea57620000ea620006b9565b6020026020010151604051620001019190620006f7565b9081526040519081900360200190205460ff1615620001675760405162461bcd60e51b815260206004820152601b60248201527f50726f7669646572206861736820616c7265616479206164646564000000000060448201526064015b60405180910390fd5b60016005838381518110620001805762000180620006b9565b6020026020010151604051620001979190620006f7565b908152602001604051809103902060006101000a81548160ff0219169083151502179055506006828281518110620001d357620001d3620006b9565b60209081029190910181015182546001810184556000938452919092200190620001fe9082620007a4565b507fc9e1c78701d1853eeb1eb35ad3449e4b336281f672d5837243d21239dc6f4096828281518110620002355762000235620006b9565b60200260200101516040516200024c919062000870565b60405180910390a1806200026081620006cf565b915050620000c9565b5050505050505050505050620008a5565b600080546001600160a01b038381166001600160a01b0319831681178455604051919092169283917f8be0079c531659141344cd1fd0a4f28419497f9722a3daafe3b4186f6b6457e09190a35050565b620002d4620003b6565b60008181526004602052604090205460ff1615620003355760405162461bcd60e51b815260206004820152601660248201527f43757272656e637920616c72656164792061646465640000000000000000000060448201526064016200015e565b6003805460018082019092557fc2575a0e9e593c00f959f8c92f12db2869c3395a3b0502d05e2516446f71f85b01829055600082815260046020908152604091829020805460ff1916909317909255518281527f15e2bb2d9733845f72b6cc683c4d7bafd2d79cfd5c160cb1be756b6faa97dbdc910160405180910390a150565b6000546001600160a01b03163314620004125760405162461bcd60e51b815260206004820181905260248201527f4f776e61626c653a2063616c6c6572206973206e6f7420746865206f776e657260448201526064016200015e565b565b6001600160a01b03811681146200042a57600080fd5b50565b634e487b7160e01b600052604160045260246000fd5b604051601f8201601f191681016001600160401b03811182821017156200046e576200046e6200042d565b604052919050565b60006001600160401b038211156200049257620004926200042d565b5060051b60200190565b60005b83811015620004b95781810151838201526020016200049f565b50506000910152565b6000601f8381840112620004d557600080fd5b82516020620004ee620004e88362000476565b62000443565b82815260059290921b850181019181810190878411156200050e57600080fd5b8287015b84811015620005b05780516001600160401b0380821115620005345760008081fd5b818a0191508a603f8301126200054a5760008081fd5b858201516040828211156200056357620005636200042d565b62000576828b01601f1916890162000443565b92508183528c818386010111156200058e5760008081fd5b6200059f828985018387016200049c565b505084525091830191830162000512565b50979650505050505050565b600080600080600060a08688031215620005d557600080fd5b8551620005e28162000414565b80955050602080870151620005f78162000414565b6040880151606089015191965094506001600160401b03808211156200061c57600080fd5b818901915089601f8301126200063157600080fd5b815162000642620004e88262000476565b81815260059190911b8301840190848101908c8311156200066257600080fd5b938501935b82851015620006825784518252938501939085019062000667565b60808c015190975094505050808311156200069c57600080fd5b5050620006ac88828901620004c2565b9150509295509295909350565b634e487b7160e01b600052603260045260246000fd5b600060018201620006f057634e487b7160e01b600052601160045260246000fd5b5060010190565b600082516200070b8184602087016200049c565b9190910192915050565b600181811c908216806200072a57607f821691505b6020821081036200074b57634e487b7160e01b600052602260045260246000fd5b50919050565b601f8211156200079f57600081815260208120601f850160051c810160208610156200077a5750805b601f850160051c820191505b818110156200079b5782815560010162000786565b5050505b505050565b81516001600160401b03811115620007c057620007c06200042d565b620007d881620007d1845462000715565b8462000751565b602080601f831160018114620008105760008415620007f75750858301515b600019600386901b1c1916600185901b1785556200079b565b600085815260208120601f198616915b82811015620008415788860151825594840194600190910190840162000820565b5085821015620008605787850151600019600388901b60f8161c191681555b5050505050600190811b01905550565b6020815260008251806020840152620008918160408501602087016200049c565b601f01601f19169190910160400192915050565b608051614ba0620008c8600039600081816102c5015261063a0152614ba06000f3fe608060405234801561001057600080fd5b506004361061012c5760003560e01c8063b2a3fda4116100ad578063dbac582111610071578063dbac5821146102b7578063e2fdcc17146102c0578063efd4ad5a146102e7578063f2fde38b146102fa578063fa93cd381461030d57600080fd5b8063b2a3fda414610261578063b870676c14610274578063bd6e774114610287578063c2107e731461029a578063cbcb3ea8146102af57600080fd5b8063680cc8f9116100f4578063680cc8f9146101e157806369037180146101f7578063715018a61461020a57806384c7b439146102125780638da5cb5b1461023c57600080fd5b80631cba9bed146101315780632ca6927d146101465780633e1d0edc1461018957806357c6e12a146101ac57806361c661de146101cc575b600080fd5b61014461013f366004613d6a565b610320565b005b610174610154366004613d6a565b805160208183018101805160058252928201919093012091525460ff1681565b60405190151581526020015b60405180910390f35b610174610197366004613d9e565b60046020526000908152604090205460ff1681565b6101bf6101ba366004613d9e565b610408565b6040516101809190613e07565b6101d46104b4565b6040516101809190613e1a565b6101e961050c565b604051908152602001610180565b610144610205366004613d9e565b61053d565b610144610618565b610225610220366004613e5e565b61062c565b604080519215158352602083019190915201610180565b6000546001600160a01b03165b6040516001600160a01b039091168152602001610180565b61014461026f366004613d9e565b610732565b600154610249906001600160a01b031681565b610144610295366004613d6a565b61076f565b6102a2610885565b6040516101809190613ea0565b6101e961095e565b6101e960025481565b6102497f000000000000000000000000000000000000000000000000000000000000000081565b6101446102f5366004613d9e565b610984565b610144610308366004613f19565b610a32565b61017461031b366004614227565b610aab565b610328610e6b565b6005816040516103389190614293565b9081526040519081900360200190205460ff1661039c5760405162461bcd60e51b815260206004820152601760248201527f50726f76696465722068617368206e6f7420666f756e6400000000000000000060448201526064015b60405180910390fd5b6005816040516103ac9190614293565b908152604051908190036020019020805460ff191690556103ce600682610ec5565b7f6f594b4b4f0580c66aabba75218163a99fa1fe330a171cc9e2bfd8e167db22f8816040516103fd9190613e07565b60405180910390a150565b6006818154811061041857600080fd5b906000526020600020016000915090508054610433906142af565b80601f016020809104026020016040519081016040528092919081815260200182805461045f906142af565b80156104ac5780601f10610481576101008083540402835291602001916104ac565b820191906000526020600020905b81548152906001019060200180831161048f57829003601f168201915b505050505081565b6060600380548060200260200160405190810160405280929190818152602001828054801561050257602002820191906000526020600020905b8154815260200190600101908083116104ee575b5050505050905090565b60405167185c1c1c9bdd995960c21b60208201526028015b6040516020818303038152906040528051906020012081565b610545610e6b565b60008181526004602052604090205460ff161561059d5760405162461bcd60e51b815260206004820152601660248201527510dd5c9c995b98de48185b1c9958591e48185919195960521b6044820152606401610393565b6003805460018082019092557fc2575a0e9e593c00f959f8c92f12db2869c3395a3b0502d05e2516446f71f85b01829055600082815260046020908152604091829020805460ff1916909317909255518281527f15e2bb2d9733845f72b6cc683c4d7bafd2d79cfd5c160cb1be756b6faa97dbdc91016103fd565b610620610e6b565b61062a600061107f565b565b600080336001600160a01b037f0000000000000000000000000000000000000000000000000000000000000000161461069e5760405162461bcd60e51b815260206004820152601460248201527313db9b1e48195cd8dc9bddc818d85b8818d85b1b60621b6044820152606401610393565b6000806106c06106ae86806142e9565b6106bb60e08901896142e9565b6110cf565b915091506106d882866106d29061432f565b83611172565b600082608001516040516020016106ef9190614293565b604051602081830303815290604052805190602001209050610710816115c7565b61010083015160009061072390826116e2565b60019890975095505050505050565b61073a610e6b565b60028190556040518181527f11e8dda5412ecab251b7783921be2eb37fdf13b389fc7f671f2cee11a1dfefea906020016103fd565b610777610e6b565b6005816040516107879190614293565b9081526040519081900360200190205460ff16156107e75760405162461bcd60e51b815260206004820152601b60248201527f50726f7669646572206861736820616c726561647920616464656400000000006044820152606401610393565b60016005826040516107f99190614293565b908152604051908190036020019020805491151560ff19909216919091179055600680546001810182556000919091527ff652222313e28459528d920b65115c16c04f3efc82aaedc97be59f3f377c0d3f016108558282614449565b507fc9e1c78701d1853eeb1eb35ad3449e4b336281f672d5837243d21239dc6f4096816040516103fd9190613e07565b60606006805480602002602001604051908101604052809291908181526020016000905b828210156109555783829060005260206000200180546108c8906142af565b80601f01602080910402602001604051908101604052809291908181526020018280546108f4906142af565b80156109415780601f1061091657610100808354040283529160200191610941565b820191906000526020600020905b81548152906001019060200180831161092457829003601f168201915b5050505050815260200190600101906108a9565b50505050905090565b604051713819382fb6b7b732bcafba3930b739b332b960711b6020820152603201610524565b61098c610e6b565b60008181526004602052604090205460ff166109df5760405162461bcd60e51b815260206004820152601260248201527110dd5c9c995b98de481b9bdd08185919195960721b6044820152606401610393565b6109ea6003826116fc565b60008181526004602052604090819020805460ff19169055517fa3c6a408fb053e3ef5e9bcd22e3574324a5ae99fad263cc4080da481842d3d4c906103fd9083815260200190565b610a3a610e6b565b6001600160a01b038116610a9f5760405162461bcd60e51b815260206004820152602660248201527f4f776e61626c653a206e6577206f776e657220697320746865207a65726f206160448201526564647265737360d01b6064820152608401610393565b610aa88161107f565b50565b6000808211610b0e5760405162461bcd60e51b815260206004820152602960248201527f5265717569726564207468726573686f6c64206d75737420626520677265617460448201526806572207468616e20360bc1b6064820152608401610393565b8251821115610b935760405162461bcd60e51b8152602060048201526044602482018190527f5265717569726564207468726573686f6c64206d757374206265206c65737320908201527f7468616e206f7220657175616c20746f206e756d626572206f66207769746e656064820152637373657360e01b608482015260a401610393565b60008460200151602001515111610bdc5760405162461bcd60e51b815260206004820152600d60248201526c4e6f207369676e61747572657360981b6044820152606401610393565b604080518082019091526020808601805151835251810151908201528451600090610c0690611824565b602087015151519091508114610c5e5760405162461bcd60e51b815260206004820152601c60248201527f436c61696d496e666f206861736820646f65736e2774206d61746368000000006044820152606401610393565b80610ca45760405162461bcd60e51b8152602060048201526016602482015275436c61696d496e666f2068617368206973207a65726f60501b6044820152606401610393565b6000610caf83611867565b90508481511015610d135760405162461bcd60e51b815260206004820152602860248201527f4665776572207369676e617475726573207468616e20726571756972656420746044820152671a1c995cda1bdb1960c21b6064820152608401610393565b600081516001600160401b03811115610d2e57610d2e613c48565b604051908082528060200260200182016040528015610d57578160200160208202803683370190505b5090506000805b8351811015610dff576000848281518110610d7b57610d7b614508565b60200260200101519050610d98818561194090919063ffffffff16565b15610da35750610ded565b610dad8a82611940565b15610deb5780848481518110610dc557610dc5614508565b6001600160a01b039092166020928302919091019091015282610de781614534565b9350505b505b80610df781614534565b915050610d5e565b5086811015610e5c5760405162461bcd60e51b815260206004820152602360248201527f4e6f7420656e6f7567682076616c6964207769746e657373207369676e61747560448201526272657360e81b6064820152608401610393565b50600198975050505050505050565b6000546001600160a01b0316331461062a5760405162461bcd60e51b815260206004820181905260248201527f4f776e61626c653a2063616c6c6572206973206e6f7420746865206f776e65726044820152606401610393565b600080610fa284805480602002602001604051908101604052809291908181526020016000905b82821015610f98578382906000526020600020018054610f0b906142af565b80601f0160208091040260200160405190810160405280929190818152602001828054610f37906142af565b8015610f845780601f10610f5957610100808354040283529160200191610f84565b820191906000526020600020905b815481529060010190602001808311610f6757829003601f168201915b505050505081526020019060010190610eec565b5050505084611956565b9150915080610fea5760405162461bcd60e51b815260206004820152601460248201527329ba3934b733903737ba1034b71030b93930bc9760611b6044820152606401610393565b8354600090610ffb9060019061454d565b905080831461104a5784818154811061101657611016614508565b9060005260206000200185848154811061103257611032614508565b9060005260206000200190816110489190614560565b505b8480548061105a5761105a614632565b6001900381819060005260206000200160006110769190613b7b565b90555050505050565b600080546001600160a01b038381166001600160a01b0319831681178455604051919092169283917f8be0079c531659141344cd1fd0a4f28419497f9722a3daafe3b4186f6b6457e09190a35050565b6110d7613bb5565b6000806110e686880188614648565b905060006110f486866119c7565b905061110282826001610aab565b5061110c826119d5565b935061111c846101200151611b48565b6111605760405162461bcd60e51b815260206004820152601560248201527409cde40ecc2d8d2c840e0e4deecd2c8cae490c2e6d605b1b6044820152606401610393565b81604001519250505094509492505050565b6000670de0b6b3a76400008360c001518460400151611191919061467c565b61119b91906146a9565b9050600083602001516001600160a01b031663313ce5676040518163ffffffff1660e01b8152600401602060405180830381865afa1580156111e1573d6000803e3d6000fd5b505050506040513d601f19601f8201168201806040525081019061120591906146bd565b9050600061121c8660000151876020015184611b73565b90508281101561126e5760405162461bcd60e51b815260206004820152601860248201527f496e636f7272656374207061796d656e7420616d6f756e7400000000000000006044820152606401610393565b831561130c5760008660e0015160405160200161128b9190614293565b6040516020818303038152906040528051906020012090506112ba86608001516112b483611bb5565b90611d7a565b6113065760405162461bcd60e51b815260206004820152601b60248201527f496e636f7272656374207061796d656e7420726563697069656e7400000000006044820152606401610393565b5061136b565b608085015160e087015161131f91611d7a565b61136b5760405162461bcd60e51b815260206004820152601b60248201527f496e636f7272656374207061796d656e7420726563697069656e7400000000006044820152606401610393565b600060025461137d8860400151611dd3565b61138791906146e0565b905085606001518110156113dd5760405162461bcd60e51b815260206004820152601b60248201527f496e636f7272656374207061796d656e742074696d657374616d7000000000006044820152606401610393565b600087606001516040516020016113f49190614293565b6040516020818303038152906040528051906020012090508660a00151811461145f5760405162461bcd60e51b815260206004820152601a60248201527f496e636f7272656374207061796d656e742063757272656e63790000000000006044820152606401610393565b60008860c001516040516020016114769190614293565b6040516020818303038152906040528051906020012090506040516020016114b690713819382fb6b7b732bcafba3930b739b332b960711b815260120190565b6040516020818303038152906040528051906020012081146115115760405162461bcd60e51b8152602060048201526014602482015273496e76616c6964207061796d656e74207479706560601b6044820152606401610393565b60008960a001516040516020016115289190614293565b60405160208183030381529060405280519060200120905060405160200161155e9067185c1c1c9bdd995960c21b815260080190565b6040516020818303038152906040528051906020012081146115bb5760405162461bcd60e51b8152602060048201526016602482015275496e76616c6964207061796d656e742073746174757360501b6044820152606401610393565b50505050505050505050565b60015460405163169394bb60e01b8152600481018390526001600160a01b039091169063169394bb90602401602060405180830381865afa158015611610573d6000803e3d6000fd5b505050506040513d601f19601f8201168201806040525081019061163491906146f3565b156116815760405162461bcd60e51b815260206004820152601f60248201527f4e756c6c69666965722068617320616c7265616479206265656e2075736564006044820152606401610393565b600154604051632dea6f9960e11b8152600481018390526001600160a01b0390911690635bd4df3290602401600060405180830381600087803b1580156116c757600080fd5b505af11580156116db573d6000803e3d6000fd5b5050505050565b60006116f383601760f91b84611fef565b90505b92915050565b6000806117588480548060200260200160405190810160405280929190818152602001828054801561174d57602002820191906000526020600020905b815481526020019060010190808311611739575b5050505050846121cc565b91509150806117a15760405162461bcd60e51b8152602060048201526015602482015274313cba32b99999103737ba1034b71030b93930bc9760591b6044820152606401610393565b83546000906117b29060019061454d565b90508083146117f7578481815481106117cd576117cd614508565b90600052602060002001548584815481106117ea576117ea614508565b6000918252602090912001555b8480548061180757611807614632565b600190038181906000526020600020016000905590555050505050565b60008082600001518360200151846040015160405160200161184893929190614710565b60408051601f1981840301815291905280516020909101209392505050565b60606000611878836000015161221c565b905060008360200151516001600160401b0381111561189957611899613c48565b6040519080825280602002602001820160405280156118c2578160200160208202803683370190505b50905060005b846020015151811015611938576118fc83866020015183815181106118ef576118ef614508565b60200260200101516122a8565b82828151811061190e5761190e614508565b6001600160a01b03909216602092830291909101909101528061193081614534565b9150506118c8565b509392505050565b60008061194d84846122f1565b95945050505050565b81516000908190815b818110156119b457848051906020012086828151811061198157611981614508565b602002602001015180519060200120036119a2579250600191506119c09050565b806119ac81614534565b91505061195f565b50600019600092509250505b9250929050565b60606116f38284018461476b565b6119dd613bb5565b60006119f4836000015160400151600d6001612353565b905060405180610140016040528082600481518110611a1557611a15614508565b6020026020010151815260200182600581518110611a3557611a35614508565b6020026020010151815260200182600781518110611a5557611a55614508565b6020026020010151815260200182600681518110611a7557611a75614508565b6020026020010151815260200182600881518110611a9557611a95614508565b6020026020010151815260200182600981518110611ab557611ab5614508565b6020026020010151815260200182600a81518110611ad557611ad5614508565b6020026020010151815260200182600b81518110611af557611af5614508565b6020026020010151815260200182600181518110611b1557611b15614508565b6020026020010151815260200182600c81518110611b3557611b35614508565b6020026020010151815250915050919050565b6000600582604051611b5a9190614293565b9081526040519081900360200190205460ff1692915050565b600080611b838560ff85166116e2565b90506000611b9f611b9560028661479f565b869060ff166116e2565b9050611bab81836146e0565b9695505050505050565b604080518082018252601081526f181899199a1a9b1b9c1cb0b131b232b360811b6020820152815160428082526080820190935260609260009190602082018180368337019050509050600360fc1b81600081518110611c1757611c17614508565b60200101906001600160f81b031916908160001a905350600f60fb1b81600181518110611c4657611c46614508565b60200101906001600160f81b031916908160001a90535060005b602081101561193857826004868360208110611c7e57611c7e614508565b1a60f81b6001600160f81b031916901c60f81c60ff1681518110611ca457611ca4614508565b01602001516001600160f81b03191682611cbf83600261467c565b611cca9060026146e0565b81518110611cda57611cda614508565b60200101906001600160f81b031916908160001a90535082858260208110611d0457611d04614508565b825191901a600f16908110611d1b57611d1b614508565b01602001516001600160f81b03191682611d3683600261467c565b611d419060036146e0565b81518110611d5157611d51614508565b60200101906001600160f81b031916908160001a90535080611d7281614534565b915050611c60565b600081604051602001611d8d9190614293565b6040516020818303038152906040528051906020012083604051602001611db49190614293565b6040516020818303038152906040528051906020012014905092915050565b6000611ddd613c08565b82516000908190815b81811015611f2a57868181518110611e0057611e00614508565b6020910101516001600160f81b031916602d60f81b1480611e455750868181518110611e2e57611e2e614508565b6020910101516001600160f81b031916601d60f91b145b80611e745750868181518110611e5d57611e5d614508565b6020910101516001600160f81b031916601560fa1b145b80611ea35750868181518110611e8c57611e8c614508565b6020910101516001600160f81b031916600160fd1b145b15611ee557611eb3878483613224565b858560068110611ec557611ec5614508565b6020020152611ed58160016146e0565b925083611ee181614534565b9450505b868181518110611ef757611ef7614508565b01602001516001600160f81b031916601760f91b03611f1857809150611f2a565b80611f2281614534565b915050611de6565b50611f36868383613224565b848460068110611f4857611f48614508565b602002015260058314611f935760405162461bcd60e51b8152602060048201526013602482015272496e76616c6964206461746520737472696e6760681b6044820152606401610393565b611bab611fa9600086815b6020020151906116e2565b611fb66000876001611f9e565b611fc36000886002611f9e565b611fd06000896003611f9e565b611fdd60008a6004611f9e565b611fea60008b6005611f9e565b6132f0565b600083818080805b845181101561214557603060f81b85828151811061201757612017614508565b01602001516001600160f81b031916108015906120585750603960f81b85828151811061204657612046614508565b01602001516001600160f81b03191611155b1561209b57603085828151811061207157612071614508565b0160200151612083919060f81c61454d565b61208e85600a61467c565b61209891906146e0565b93505b81156120af57826120ab81614534565b9350505b876001600160f81b0319168582815181106120cc576120cc614508565b01602001516001600160f81b0319160361213357811561212e5760405162461bcd60e51b815260206004820152601c60248201527f537472696e6720686173206d756c7469706c6520646563696d616c73000000006044820152606401610393565b600191505b8061213d81614534565b915050611ff7565b50858211156121a15760405162461bcd60e51b815260206004820152602260248201527f537472696e672068617320746f6f206d616e7920646563696d616c20706c6163604482015261657360f01b6064820152608401610393565b6121ab828761454d565b6121b690600a61489c565b6121c0908461467c565b98975050505050505050565b81516000908190815b818110156119b457848682815181106121f0576121f0614508565b60200260200101510361220a579250600191506119c09050565b8061221481614534565b9150506121d5565b606061224c826000015160405160200161223891815260200190565b60405160208183030381529060405261334c565b612259836020015161350f565b61226c846040015163ffffffff16613678565b61227f856060015163ffffffff16613678565b60405160200161229294939291906148a8565b6040516020818303038152906040529050919050565b6000806122b58451613678565b846040516020016122c7929190614921565b6040516020818303038152906040528051906020012090506122e981846137a3565b949350505050565b81516000908190815b818110156119b457846001600160a01b031686828151811061231e5761231e614508565b60200260200101516001600160a01b031603612341579250600191506119c09050565b8061234b81614534565b9150506122fa565b606060008360ff16116123b25760405162461bcd60e51b815260206004820152602160248201527f4d61782076616c756573206d7573742062652067726561746572207468616e206044820152600360fc1b6064820152608401610393565b83600080808080806123c58a600261497c565b60ff166001600160401b038111156123df576123df613c48565b604051908082528060200260200182016040528015612408578160200160208202803683370190505b50905060005b604051806040016040528060138152602001723d9131b7b73a32bc3a20b2323932b9b9911d1160691b815250518110156124e757604051806040016040528060138152602001723d9131b7b73a32bc3a20b2323932b9b9911d1160691b815250818151811061247f5761247f614508565b01602001516001600160f81b03191688612499838a6146e0565b815181106124a9576124a9614508565b01602001516001600160f81b031916146124d55760405162461bcd60e51b81526004016103939061499f565b806124df81614534565b91505061240e565b50604051806040016040528060138152602001723d9131b7b73a32bc3a20b2323932b9b9911d1160691b815250518661252091906146e0565b95508593505b865186108015612596575086868151811061254357612543614508565b6020910101516001600160f81b031916601160f91b14801561259457508661256c60018861454d565b8151811061257c5761257c614508565b6020910101516001600160f81b031916601760fa1b14155b155b156125ad57856125a581614534565b965050612526565b865186106125cd5760405162461bcd60e51b81526004016103939061499f565b8592508383036126355760405162461bcd60e51b815260206004820152602d60248201527f45787472616374696f6e206661696c65642e20456d70747920636f6e7465787460448201526c416464726573732076616c756560981b6064820152608401610393565b838161264287600261467c565b8151811061265257612652614508565b6020908102919091010152828161266a87600261467c565b6126759060016146e0565b8151811061268557612685614508565b60209081029190910101528461269a81614534565b95506126a990506002876146e0565b955060005b604051806040016040528060128152602001711131b7b73a32bc3a26b2b9b9b0b3b2911d1160711b8152505181101561278557604051806040016040528060128152602001711131b7b73a32bc3a26b2b9b9b0b3b2911d1160711b815250818151811061271d5761271d614508565b01602001516001600160f81b03191688612737838a6146e0565b8151811061274757612747614508565b01602001516001600160f81b031916146127735760405162461bcd60e51b8152600401610393906149ea565b8061277d81614534565b9150506126ae565b50604051806040016040528060128152602001711131b7b73a32bc3a26b2b9b9b0b3b2911d1160711b81525051866127bd91906146e0565b95508593505b86518610801561283357508686815181106127e0576127e0614508565b6020910101516001600160f81b031916601160f91b14801561283157508661280960018861454d565b8151811061281957612819614508565b6020910101516001600160f81b031916601760fa1b14155b155b1561284a578561284281614534565b9650506127c3565b8651861061286a5760405162461bcd60e51b8152600401610393906149ea565b8592508383036128d25760405162461bcd60e51b815260206004820152602d60248201527f45787472616374696f6e206661696c65642e20456d70747920636f6e7465787460448201526c4d6573736167652076616c756560981b6064820152608401610393565b83816128df87600261467c565b815181106128ef576128ef614508565b6020908102919091010152828161290787600261467c565b6129129060016146e0565b8151811061292257612922614508565b60209081029190910101528461293781614534565b955061294690506002876146e0565b955060005b604051806040016040528060188152602001771132bc3a3930b1ba32b22830b930b6b2ba32b939911d3d9160411b81525051811015612a7757604051806040016040528060188152602001771132bc3a3930b1ba32b22830b930b6b2ba32b939911d3d9160411b81525081815181106129c6576129c6614508565b01602001516001600160f81b031916886129e0838a6146e0565b815181106129f0576129f0614508565b01602001516001600160f81b03191614612a655760405162461bcd60e51b815260206004820152603060248201527f45787472616374696f6e206661696c65642e204d616c666f726d65642065787460448201526f726163746564506172616d657465727360801b6064820152608401610393565b80612a6f81614534565b91505061294b565b50604051806040016040528060188152602001771132bc3a3930b1ba32b22830b930b6b2ba32b939911d3d9160411b8152505186612ab591906146e0565b9550600091505b8651861015612e5f57868681518110612ad757612ad7614508565b6020910101516001600160f81b031916601160f91b148015612b28575086612b0060018861454d565b81518110612b1057612b10614508565b6020910101516001600160f81b031916601760fa1b14155b612b3e5785612b3681614534565b965050612abc565b81612c465786612b4f8760016146e0565b81518110612b5f57612b5f614508565b6020910101516001600160f81b031916601d60f91b148015612baf575086612b888760026146e0565b81518110612b9857612b98614508565b6020910101516001600160f81b031916601160f91b145b612c075760405162461bcd60e51b815260206004820152602360248201527f45787472616374696f6e206661696c65642e204d616c666f726d65642064617460448201526261203160e81b6064820152608401610393565b612c126003876146e0565b9550600191508581612c2587600261467c565b81518110612c3557612c35614508565b602002602001018181525050612abc565b600087612c548860016146e0565b81518110612c6457612c64614508565b6020910101516001600160f81b031916600b60fa1b148015612cb4575087612c8d8860026146e0565b81518110612c9d57612c9d614508565b6020910101516001600160f81b031916601160f91b145b9050600088612cc48960016146e0565b81518110612cd457612cd4614508565b6020910101516001600160f81b031916607d60f81b148015612d24575088612cfd8960026146e0565b81518110612d0d57612d0d614508565b6020910101516001600160f81b031916600b60fa1b145b90508180612d2f5750805b612d875760405162461bcd60e51b815260206004820152602360248201527f45787472616374696f6e206661696c65642e204d616c666f726d65642064617460448201526230901960e91b6064820152608401610393565b8783612d9489600261467c565b612d9f9060016146e0565b81518110612daf57612daf614508565b602090810291909101015286612dc481614534565b9750508115612e44578b60ff168703612e2e5760405162461bcd60e51b815260206004820152602660248201527f45787472616374696f6e206661696c65642e204578636565646564206d61782060448201526576616c75657360d01b6064820152608401610393565b612e396003896146e0565b975060009350612e58565b612e4f6003896146e0565b97505050612e5f565b5050612abc565b881561306c5760005b6040518060400160405280601081526020016f11383937bb34b232b92430b9b4111d1160811b81525051811015612f7d576040518060400160405280601081526020016f11383937bb34b232b92430b9b4111d1160811b8152508181518110612ed357612ed3614508565b01602001516001600160f81b03191688612eed838a6146e0565b81518110612efd57612efd614508565b01602001516001600160f81b03191614612f6b5760405162461bcd60e51b815260206004820152602960248201527f45787472616374696f6e206661696c65642e204d616c666f726d65642070726f6044820152680ecd2c8cae490c2e6d60bb1b6064820152608401610393565b80612f7581614534565b915050612e68565b506040518060400160405280601081526020016f11383937bb34b232b92430b9b4111d1160811b8152505186612fb391906146e0565b95508581612fc287600261467c565b81518110612fd257612fd2614508565b6020026020010181815250505b8651861080156130145750868681518110612ffc57612ffc614508565b6020910101516001600160f81b031916601160f91b14155b1561302b578561302381614534565b965050612fdf565b858161303887600261467c565b6130439060016146e0565b8151811061305357613053614508565b60209081029190910101528461306881614534565b9550505b6000856001600160401b0381111561308657613086613c48565b6040519080825280602002602001820160405280156130b957816020015b60608152602001906001900390816130a45790505b50905060005b8681101561321457826130d382600261467c565b815181106130e3576130e3614508565b60200260200101519550828160026130fb919061467c565b6131069060016146e0565b8151811061311657613116614508565b602002602001015194506000868661312e919061454d565b6001600160401b0381111561314557613145613c48565b6040519080825280601f01601f19166020018201604052801561316f576020820181803683370190505b509050865b868110156131e1578a818151811061318e5761318e614508565b01602001516001600160f81b031916826131a88a8461454d565b815181106131b8576131b8614508565b60200101906001600160f81b031916908160001a905350806131d981614534565b915050613174565b50808383815181106131f5576131f5614508565b602002602001018190525050808061320c90614534565b9150506130bf565b509b9a5050505050505050505050565b6060836000613233858561454d565b6001600160401b0381111561324a5761324a613c48565b6040519080825280601f01601f191660200182016040528015613274576020820181803683370190505b509050845b848110156132e65782818151811061329357613293614508565b01602001516001600160f81b031916826132ad888461454d565b815181106132bd576132bd614508565b60200101906001600160f81b031916908160001a905350806132de81614534565b915050613279565b5095945050505050565b6000816132fe603c8561467c565b61330a610e108761467c565b620151806133198b8b8b6137bf565b613323919061467c565b61332d91906146e0565b61333791906146e0565b61334191906146e0565b979650505050505050565b606060008251600261335e919061467c565b6001600160401b0381111561337557613375613c48565b6040519080825280601f01601f19166020018201604052801561339f576020820181803683370190505b5060408051808201909152601081526f181899199a1a9b1b9c1cb0b131b232b360811b602082015290915060005b84518110156134e5578182518683815181106133eb576133eb614508565b01602001516133fd919060f81c6146a9565b8151811061340d5761340d614508565b01602001516001600160f81b0319168361342883600261467c565b8151811061343857613438614508565b60200101906001600160f81b031916908160001a90535081825186838151811061346457613464614508565b0160200151613476919060f81c614a35565b8151811061348657613486614508565b01602001516001600160f81b031916836134a183600261467c565b6134ac9060016146e0565b815181106134bc576134bc614508565b60200101906001600160f81b031916908160001a905350806134dd81614534565b9150506133cd565b50816040516020016134f79190614a49565b60405160208183030381529060405292505050919050565b60408051602880825260608281019093526000919060208201818036833701905050905060005b601481101561364f57600061354c82601361454d565b61355790600861467c565b61356290600261489c565b613575906001600160a01b0387166146a9565b60f81b9050600060108260f81c61358c9190614a73565b60f81b905060008160f81c60106135a3919061497c565b8360f81c6135b1919061479f565b60f81b90506135bf826138f0565b856135cb86600261467c565b815181106135db576135db614508565b60200101906001600160f81b031916908160001a9053506135fb816138f0565b8561360786600261467c565b6136129060016146e0565b8151811061362257613622614508565b60200101906001600160f81b031916908160001a905350505050808061364790614534565b915050613536565b50806040516020016136619190614a49565b604051602081830303815290604052915050919050565b60608160000361369f5750506040805180820190915260018152600360fc1b602082015290565b8160005b81156136c957806136b381614534565b91506136c29050600a836146a9565b91506136a3565b6000816001600160401b038111156136e3576136e3613c48565b6040519080825280601f01601f19166020018201604052801561370d576020820181803683370190505b509050815b851561379a5761372360018261454d565b90506000613732600a886146a9565b61373d90600a61467c565b613747908861454d565b613752906030614a95565b905060008160f81b90508084848151811061376f5761376f614508565b60200101906001600160f81b031916908160001a905350613791600a896146a9565b97505050613712565b50949350505050565b60008060006137b2858561392b565b915091506119388161396d565b60006107b28410156137d057600080fd5b838383600062253d8c60046064600c6137ea600e88614aae565b6137f49190614ace565b61380088611324614afc565b61380a9190614afc565b6138149190614ace565b61381f906003614b24565b6138299190614ace565b600c80613837600e88614aae565b6138419190614ace565b61384c90600c614b24565b613857600288614aae565b6138619190614aae565b61386d9061016f614b24565b6138779190614ace565b6004600c613886600e89614aae565b6138909190614ace565b61389c896112c0614afc565b6138a69190614afc565b6138b2906105b5614b24565b6138bc9190614ace565b6138c8617d4b87614aae565b6138d29190614afc565b6138dc9190614afc565b6138e69190614aae565b6121c09190614aae565b6000600a60f883901c10156139175761390e60f883901c6030614a95565b60f81b92915050565b61390e60f883901c6057614a95565b919050565b60008082516041036139615760208301516040840151606085015160001a61395587828585613ab7565b945094505050506119c0565b506000905060026119c0565b600081600481111561398157613981614b54565b036139895750565b600181600481111561399d5761399d614b54565b036139ea5760405162461bcd60e51b815260206004820152601860248201527f45434453413a20696e76616c6964207369676e617475726500000000000000006044820152606401610393565b60028160048111156139fe576139fe614b54565b03613a4b5760405162461bcd60e51b815260206004820152601f60248201527f45434453413a20696e76616c6964207369676e6174757265206c656e677468006044820152606401610393565b6003816004811115613a5f57613a5f614b54565b03610aa85760405162461bcd60e51b815260206004820152602260248201527f45434453413a20696e76616c6964207369676e6174757265202773272076616c604482015261756560f01b6064820152608401610393565b6000807f7fffffffffffffffffffffffffffffff5d576e7357a4501ddfe92f46681b20a0831115613aee5750600090506003613b72565b6040805160008082526020820180845289905260ff881692820192909252606081018690526080810185905260019060a0016020604051602081039080840390855afa158015613b42573d6000803e3d6000fd5b5050604051601f1901519150506001600160a01b038116613b6b57600060019250925050613b72565b9150600090505b94509492505050565b508054613b87906142af565b6000825580601f10613b97575050565b601f016020900490600052602060002090810190610aa89190613c2f565b604051806101400160405280606081526020016060815260200160608152602001606081526020016060815260200160608152602001606081526020016060815260200160608152602001606081525090565b6040518060c001604052806006905b6060815260200190600190039081613c175790505090565b5b80821115613c445760008155600101613c30565b5090565b634e487b7160e01b600052604160045260246000fd5b604051608081016001600160401b0381118282101715613c8057613c80613c48565b60405290565b604051606081016001600160401b0381118282101715613c8057613c80613c48565b60405161010081016001600160401b0381118282101715613c8057613c80613c48565b604051601f8201601f191681016001600160401b0381118282101715613cf357613cf3613c48565b604052919050565b600082601f830112613d0c57600080fd5b81356001600160401b03811115613d2557613d25613c48565b613d38601f8201601f1916602001613ccb565b818152846020838601011115613d4d57600080fd5b816020850160208301376000918101602001919091529392505050565b600060208284031215613d7c57600080fd5b81356001600160401b03811115613d9257600080fd5b6122e984828501613cfb565b600060208284031215613db057600080fd5b5035919050565b60005b83811015613dd2578181015183820152602001613dba565b50506000910152565b60008151808452613df3816020860160208601613db7565b601f01601f19169290920160200192915050565b6020815260006116f36020830184613ddb565b6020808252825182820181905260009190848201906040850190845b81811015613e5257835183529284019291840191600101613e36565b50909695505050505050565b600060208284031215613e7057600080fd5b81356001600160401b03811115613e8657600080fd5b82016101008185031215613e9957600080fd5b9392505050565b6000602080830181845280855180835260408601915060408160051b870101925083870160005b82811015613ef557603f19888603018452613ee3858351613ddb565b94509285019290850190600101613ec7565b5092979650505050505050565b80356001600160a01b038116811461392657600080fd5b600060208284031215613f2b57600080fd5b6116f382613f02565b803563ffffffff8116811461392657600080fd5b60006001600160401b03821115613f6157613f61613c48565b5060051b60200190565b600082601f830112613f7c57600080fd5b81356020613f91613f8c83613f48565b613ccb565b82815260059290921b84018101918181019086841115613fb057600080fd5b8286015b84811015613fef5780356001600160401b03811115613fd35760008081fd5b613fe18986838b0101613cfb565b845250918301918301613fb4565b509695505050505050565b600081830360a081121561400d57600080fd5b604051604081016001600160401b03828210818311171561403057614030613c48565b81604052829450608084121561404557600080fd5b61404d613c5e565b93508535845261405f60208701613f02565b602085015261407060408701613f34565b604085015261408160608701613f34565b60608501529282526080850135928084111561409c57600080fd5b50506140aa85838601613f6b565b6020820152505092915050565b8015158114610aa857600080fd5b8035613926816140b7565b6000606082840312156140e257600080fd5b6140ea613c86565b905081356001600160401b038082111561410357600080fd5b908301906060828603121561411757600080fd5b61411f613c86565b82358281111561412e57600080fd5b61413a87828601613cfb565b82525060208301358281111561414f57600080fd5b61415b87828601613cfb565b60208301525060408301358281111561417357600080fd5b61417f87828601613cfb565b6040830152508352602084013591508082111561419b57600080fd5b506141a884828501613ffa565b6020830152506141ba604083016140c5565b604082015292915050565b600082601f8301126141d657600080fd5b813560206141e6613f8c83613f48565b82815260059290921b8401810191818101908684111561420557600080fd5b8286015b84811015613fef5761421a81613f02565b8352918301918301614209565b60008060006060848603121561423c57600080fd5b83356001600160401b038082111561425357600080fd5b61425f878388016140d0565b9450602086013591508082111561427557600080fd5b50614282868287016141c5565b925050604084013590509250925092565b600082516142a5818460208701613db7565b9190910192915050565b600181811c908216806142c357607f821691505b6020821081036142e357634e487b7160e01b600052602260045260246000fd5b50919050565b6000808335601e1984360301811261430057600080fd5b8301803591506001600160401b0382111561431a57600080fd5b6020019150368190038213156119c057600080fd5b6000610100823603121561434257600080fd5b61434a613ca8565b82356001600160401b038082111561436157600080fd5b61436d36838701613cfb565b835261437b60208601613f02565b6020840152604085013560408401526060850135606084015260808501359150808211156143a857600080fd5b6143b436838701613cfb565b608084015260a085013560a084015260c085013560c084015260e08501359150808211156143e157600080fd5b506143ee36828601613cfb565b60e08301525092915050565b601f82111561444457600081815260208120601f850160051c810160208610156144215750805b601f850160051c820191505b818110156144405782815560010161442d565b5050505b505050565b81516001600160401b0381111561446257614462613c48565b6144768161447084546142af565b846143fa565b602080601f8311600181146144ab57600084156144935750858301515b600019600386901b1c1916600185901b178555614440565b600085815260208120601f198616915b828110156144da578886015182559484019460019091019084016144bb565b50858210156144f85787850151600019600388901b60f8161c191681555b5050505050600190811b01905550565b634e487b7160e01b600052603260045260246000fd5b634e487b7160e01b600052601160045260246000fd5b6000600182016145465761454661451e565b5060010190565b818103818111156116f6576116f661451e565b81810361456b575050565b61457582546142af565b6001600160401b0381111561458c5761458c613c48565b61459a8161447084546142af565b6000601f8211600181146145ce57600083156145b65750848201545b600019600385901b1c1916600184901b1784556116db565b600085815260209020601f19841690600086815260209020845b8381101561460857828601548255600195860195909101906020016145e8565b50858310156144f85793015460001960f8600387901b161c19169092555050600190811b01905550565b634e487b7160e01b600052603160045260246000fd5b60006020828403121561465a57600080fd5b81356001600160401b0381111561467057600080fd5b6122e9848285016140d0565b80820281158282048414176116f6576116f661451e565b634e487b7160e01b600052601260045260246000fd5b6000826146b8576146b8614693565b500490565b6000602082840312156146cf57600080fd5b815160ff81168114613e9957600080fd5b808201808211156116f6576116f661451e565b60006020828403121561470557600080fd5b8151613e99816140b7565b60008451614722818460208901613db7565b600560f91b9083018181528551909190614743816001850160208a01613db7565b6001920191820152835161475e816002840160208801613db7565b0160020195945050505050565b60006020828403121561477d57600080fd5b81356001600160401b0381111561479357600080fd5b6122e9848285016141c5565b60ff82811682821603908111156116f6576116f661451e565b600181815b808511156147f35781600019048211156147d9576147d961451e565b808516156147e657918102915b93841c93908002906147bd565b509250929050565b60008261480a575060016116f6565b81614817575060006116f6565b816001811461482d576002811461483757614853565b60019150506116f6565b60ff8411156148485761484861451e565b50506001821b6116f6565b5060208310610133831016604e8410600b8410161715614876575081810a6116f6565b61488083836147b8565b80600019048211156148945761489461451e565b029392505050565b60006116f383836147fb565b600085516148ba818460208a01613db7565b600560f91b90830181815286519091906148db816001850160208b01613db7565b6001920191820181905285516148f8816002850160208a01613db7565b60029201918201528351614913816003840160208801613db7565b016003019695505050505050565b7f19457468657265756d205369676e6564204d6573736167653a0a00000000000081526000835161495981601a850160208801613db7565b83519083019061497081601a840160208801613db7565b01601a01949350505050565b60ff81811683821602908116908181146149985761499861451e565b5092915050565b6020808252602b908201527f45787472616374696f6e206661696c65642e204d616c666f726d656420636f6e60408201526a746578744164647265737360a81b606082015260800190565b6020808252602b908201527f45787472616374696f6e206661696c65642e204d616c666f726d656420636f6e60408201526a746578744d65737361676560a81b606082015260800190565b600082614a4457614a44614693565b500690565b61060f60f31b815260008251614a66816002850160208701613db7565b9190910160020192915050565b600060ff831680614a8657614a86614693565b8060ff84160491505092915050565b60ff81811683821601908111156116f6576116f661451e565b81810360008312801583831316838312821617156149985761499861451e565b600082614add57614add614693565b600160ff1b821460001984141615614af757614af761451e565b500590565b8082018281126000831280158216821582161715614b1c57614b1c61451e565b505092915050565b80820260008212600160ff1b84141615614b4057614b4061451e565b81810583148215176116f6576116f661451e565b634e487b7160e01b600052602160045260246000fdfea2646970667358221220a9b71c4d6cc240f786cc5fe7f929295a86faf8c315062cd7562aeadcc046dc7164736f6c63430008120033",
  "devdoc": {
    "kind": "dev",
    "methods": {
      "addCurrency(bytes32)": {
        "params": {
          "_currencyCode": "Currency code to add"
        }
      },
      "addProviderHash(string)": {
        "params": {
          "_newProviderHash": "New provider hash to be added"
        }
      },
      "owner()": {
        "details": "Returns the address of the current owner."
      },
      "removeCurrency(bytes32)": {
        "params": {
          "_currencyCode": "Currency code to remove"
        }
      },
      "removeProviderHash(string)": {
        "params": {
          "_removeProviderHash": "Provider hash to be removed"
        }
      },
      "renounceOwnership()": {
        "details": "Leaves the contract without owner. It will not be possible to call `onlyOwner` functions. Can only be called by the current owner. NOTE: Renouncing ownership will leave the contract without an owner, thereby disabling any functionality that is only available to the owner."
      },
      "setTimestampBuffer(uint256)": {
        "params": {
          "_timestampBuffer": "The timestamp buffer for payments"
        }
      },
      "transferOwnership(address)": {
        "details": "Transfers ownership of the contract to a new account (`newOwner`). Can only be called by the current owner."
      },
      "verifyPayment((bytes,address,uint256,uint256,string,bytes32,uint256,bytes))": {
        "params": {
          "_verifyPaymentData": "Payment proof and intent details required for verification"
        }
      },
      "verifyProofSignatures(((string,string,string),((bytes32,address,uint32,uint32),bytes[]),bool),address[],uint256)": {
        "params": {
          "_requiredThreshold": "Minimum number of signatures required from accepted witnesses",
          "_witnesses": "List of accepted witnesses",
          "proof": "Proof to be verified"
        }
      }
    },
    "version": 1
  },
  "userdoc": {
    "kind": "user",
    "methods": {
      "addCurrency(bytes32)": {
        "notice": "OWNER ONLY: Adds a currency code to supported currencies"
      },
      "addProviderHash(string)": {
        "notice": "ONLY OWNER: Add provider hash string. Provider hash must not have been previously added."
      },
      "removeCurrency(bytes32)": {
        "notice": "OWNER ONLY: Removes a currency code from supported currencies"
      },
      "removeProviderHash(string)": {
        "notice": "ONLY OWNER: Remove provider hash string. Provider hash must have been previously added."
      },
      "setTimestampBuffer(uint256)": {
        "notice": "OWNER ONLY: Sets the timestamp buffer for payments. This is the amount of time in seconds that the timestamp can be off by and still be considered valid. Necessary to build in flexibility  with L2 timestamps."
      },
      "verifyPayment((bytes,address,uint256,uint256,string,bytes32,uint256,bytes))": {
        "notice": "ONLY RAMP: Verifies a reclaim proof of an offchain Mercado Pago payment. Ensures the right _intentAmount * _conversionRate was paid to _payeeDetails after _intentTimestamp + timestampBuffer on Mercado Pago. Additionaly, checks the right fiatCurrency was paid and the payment status is correct."
      },
      "verifyProofSignatures(((string,string,string),((bytes32,address,uint32,uint32),bytes[]),bool),address[],uint256)": {
        "notice": "Verify proof generated by witnesses. Claim is constructed by hashing claimInfo (provider, context, parameters) to get the identifier. And then signing on (identifier, owner, timestamp, epoch) to get claim signature.  This function verifies a claim by performing the following checks on the claim - Calculates the hash of the claimInfo and checks if it matches the identifier in the claim - Checks if the signatures are valid and from the witnesses This function reverts if - No signatures are found on the proof - ClaimInfo hash does not match the identifier in the claim - Signatures are invalid (not from the witnesses)  DEV NOTE: This function does NOT validate that the claim provider hash is valid. That is the  responsibility of the caller. Ensure witnesses are unique otherwise the threshold can be met  with duplicate witnesses.  Parts of the code are adapted from: https://basescan.org/address/0x7281630e4346dd4c0b7ae3b4689c1d0102741410#code    "
      }
    },
    "version": 1
  },
  "storageLayout": {
    "storage": [
      {
        "astId": 7,
        "contract": "contracts/verifiers/MercadoPagoReclaimVerifier.sol:MercadoPagoReclaimVerifier",
        "label": "_owner",
        "offset": 0,
        "slot": "0",
        "type": "t_address"
      },
      {
        "astId": 9450,
        "contract": "contracts/verifiers/MercadoPagoReclaimVerifier.sol:MercadoPagoReclaimVerifier",
        "label": "nullifierRegistry",
        "offset": 0,
        "slot": "1",
        "type": "t_contract(INullifierRegistry)12401"
      },
      {
        "astId": 9452,
        "contract": "contracts/verifiers/MercadoPagoReclaimVerifier.sol:MercadoPagoReclaimVerifier",
        "label": "timestampBuffer",
        "offset": 0,
        "slot": "2",
        "type": "t_uint256"
      },
      {
        "astId": 9455,
        "contract": "contracts/verifiers/MercadoPagoReclaimVerifier.sol:MercadoPagoReclaimVerifier",
        "label": "currencies",
        "offset": 0,
        "slot": "3",
        "type": "t_array(t_bytes32)dyn_storage"
      },
      {
        "astId": 9459,
        "contract": "contracts/verifiers/MercadoPagoReclaimVerifier.sol:MercadoPagoReclaimVerifier",
        "label": "isCurrency",
        "offset": 0,
        "slot": "4",
        "type": "t_mapping(t_bytes32,t_bool)"
      },
      {
        "astId": 9656,
        "contract": "contracts/verifiers/MercadoPagoReclaimVerifier.sol:MercadoPagoReclaimVerifier",
        "label": "isProviderHash",
        "offset": 0,
        "slot": "5",
        "type": "t_mapping(t_string_memory_ptr,t_bool)"
      },
      {
        "astId": 9659,
        "contract": "contracts/verifiers/MercadoPagoReclaimVerifier.sol:MercadoPagoReclaimVerifier",
        "label": "providerHashes",
        "offset": 0,
        "slot": "6",
        "type": "t_array(t_string_storage)dyn_storage"
      }
    ],
    "types": {
      "t_address": {
        "encoding": "inplace",
        "label": "address",
        "numberOfBytes": "20"
      },
      "t_array(t_bytes32)dyn_storage": {
        "base": "t_bytes32",
        "encoding": "dynamic_array",
        "label": "bytes32[]",
        "numberOfBytes": "32"
      },
      "t_array(t_string_storage)dyn_storage": {
        "base": "t_string_storage",
        "encoding": "dynamic_array",
        "label": "string[]",
        "numberOfBytes": "32"
      },
      "t_bool": {
        "encoding": "inplace",
        "label": "bool",
        "numberOfBytes": "1"
      },
      "t_bytes32": {
        "encoding": "inplace",
        "label": "bytes32",
        "numberOfBytes": "32"
      },
      "t_contract(INullifierRegistry)12401": {
        "encoding": "inplace",
        "label": "contract INullifierRegistry",
        "numberOfBytes": "20"
      },
      "t_mapping(t_bytes32,t_bool)": {
        "encoding": "mapping",
        "key": "t_bytes32",
        "label": "mapping(bytes32 => bool)",
        "numberOfBytes": "32",
        "value": "t_bool"
      },
      "t_mapping(t_string_memory_ptr,t_bool)": {
        "encoding": "mapping",
        "key": "t_string_memory_ptr",
        "label": "mapping(string => bool)",
        "numberOfBytes": "32",
        "value": "t_bool"
      },
      "t_string_memory_ptr": {
        "encoding": "bytes",
        "label": "string",
        "numberOfBytes": "32"
      },
      "t_string_storage": {
        "encoding": "bytes",
        "label": "string",
        "numberOfBytes": "32"
      },
      "t_uint256": {
        "encoding": "inplace",
        "label": "uint256",
        "numberOfBytes": "32"
      }
    }
  }
}