{
  "address": "0x294154683C012B67266D51538258012b26a95E6f",
  "abi": [
    {
      "inputs": [
        {
          "internalType": "address",
          "name": "_escrow",
          "type": "address"
        },
        {
          "internalType": "contract INullifierRegistry",
          "name": "_nullifierRegistry",
          "type": "address"
        },
        {
          "internalType": "uint256",
          "name": "_timestampBuffer",
          "type": "uint256"
        },
        {
          "internalType": "bytes32[]",
          "name": "_currencies",
          "type": "bytes32[]"
        },
        {
          "internalType": "string[]",
          "name": "_providerHashes",
          "type": "string[]"
        }
      ],
      "stateMutability": "nonpayable",
      "type": "constructor"
    },
    {
      "anonymous": false,
      "inputs": [
        {
          "indexed": false,
          "internalType": "bytes32",
          "name": "currencyCode",
          "type": "bytes32"
        }
      ],
      "name": "CurrencyAdded",
      "type": "event"
    },
    {
      "anonymous": false,
      "inputs": [
        {
          "indexed": false,
          "internalType": "bytes32",
          "name": "currencyCode",
          "type": "bytes32"
        }
      ],
      "name": "CurrencyRemoved",
      "type": "event"
    },
    {
      "anonymous": false,
      "inputs": [
        {
          "indexed": true,
          "internalType": "address",
          "name": "previousOwner",
          "type": "address"
        },
        {
          "indexed": true,
          "internalType": "address",
          "name": "newOwner",
          "type": "address"
        }
      ],
      "name": "OwnershipTransferred",
      "type": "event"
    },
    {
      "anonymous": false,
      "inputs": [
        {
          "indexed": false,
          "internalType": "string",
          "name": "providerHash",
          "type": "string"
        }
      ],
      "name": "ProviderHashAdded",
      "type": "event"
    },
    {
      "anonymous": false,
      "inputs": [
        {
          "indexed": false,
          "internalType": "string",
          "name": "providerHash",
          "type": "string"
        }
      ],
      "name": "ProviderHashRemoved",
      "type": "event"
    },
    {
      "anonymous": false,
      "inputs": [
        {
          "indexed": false,
          "internalType": "uint256",
          "name": "timestampBuffer",
          "type": "uint256"
        }
      ],
      "name": "TimestampBufferSet",
      "type": "event"
    },
    {
      "inputs": [],
      "name": "COMPLETE_PAYMENT_STATUS",
      "outputs": [
        {
          "internalType": "bytes32",
          "name": "",
          "type": "bytes32"
        }
      ],
      "stateMutability": "view",
      "type": "function"
    },
    {
      "inputs": [],
      "name": "P2P_PAYMENT_TYPE",
      "outputs": [
        {
          "internalType": "bytes32",
          "name": "",
          "type": "bytes32"
        }
      ],
      "stateMutability": "view",
      "type": "function"
    },
    {
      "inputs": [
        {
          "internalType": "bytes32",
          "name": "_currencyCode",
          "type": "bytes32"
        }
      ],
      "name": "addCurrency",
      "outputs": [],
      "stateMutability": "nonpayable",
      "type": "function"
    },
    {
      "inputs": [
        {
          "internalType": "string",
          "name": "_newProviderHash",
          "type": "string"
        }
      ],
      "name": "addProviderHash",
      "outputs": [],
      "stateMutability": "nonpayable",
      "type": "function"
    },
    {
      "inputs": [],
      "name": "escrow",
      "outputs": [
        {
          "internalType": "address",
          "name": "",
          "type": "address"
        }
      ],
      "stateMutability": "view",
      "type": "function"
    },
    {
      "inputs": [],
      "name": "getCurrencies",
      "outputs": [
        {
          "internalType": "bytes32[]",
          "name": "",
          "type": "bytes32[]"
        }
      ],
      "stateMutability": "view",
      "type": "function"
    },
    {
      "inputs": [],
      "name": "getProviderHashes",
      "outputs": [
        {
          "internalType": "string[]",
          "name": "",
          "type": "string[]"
        }
      ],
      "stateMutability": "view",
      "type": "function"
    },
    {
      "inputs": [
        {
          "internalType": "bytes32",
          "name": "",
          "type": "bytes32"
        }
      ],
      "name": "isCurrency",
      "outputs": [
        {
          "internalType": "bool",
          "name": "",
          "type": "bool"
        }
      ],
      "stateMutability": "view",
      "type": "function"
    },
    {
      "inputs": [
        {
          "internalType": "string",
          "name": "",
          "type": "string"
        }
      ],
      "name": "isProviderHash",
      "outputs": [
        {
          "internalType": "bool",
          "name": "",
          "type": "bool"
        }
      ],
      "stateMutability": "view",
      "type": "function"
    },
    {
      "inputs": [],
      "name": "nullifierRegistry",
      "outputs": [
        {
          "internalType": "contract INullifierRegistry",
          "name": "",
          "type": "address"
        }
      ],
      "stateMutability": "view",
      "type": "function"
    },
    {
      "inputs": [],
      "name": "owner",
      "outputs": [
        {
          "internalType": "address",
          "name": "",
          "type": "address"
        }
      ],
      "stateMutability": "view",
      "type": "function"
    },
    {
      "inputs": [
        {
          "internalType": "uint256",
          "name": "",
          "type": "uint256"
        }
      ],
      "name": "providerHashes",
      "outputs": [
        {
          "internalType": "string",
          "name": "",
          "type": "string"
        }
      ],
      "stateMutability": "view",
      "type": "function"
    },
    {
      "inputs": [
        {
          "internalType": "bytes32",
          "name": "_currencyCode",
          "type": "bytes32"
        }
      ],
      "name": "removeCurrency",
      "outputs": [],
      "stateMutability": "nonpayable",
      "type": "function"
    },
    {
      "inputs": [
        {
          "internalType": "string",
          "name": "_removeProviderHash",
          "type": "string"
        }
      ],
      "name": "removeProviderHash",
      "outputs": [],
      "stateMutability": "nonpayable",
      "type": "function"
    },
    {
      "inputs": [],
      "name": "renounceOwnership",
      "outputs": [],
      "stateMutability": "nonpayable",
      "type": "function"
    },
    {
      "inputs": [
        {
          "internalType": "uint256",
          "name": "_timestampBuffer",
          "type": "uint256"
        }
      ],
      "name": "setTimestampBuffer",
      "outputs": [],
      "stateMutability": "nonpayable",
      "type": "function"
    },
    {
      "inputs": [],
      "name": "timestampBuffer",
      "outputs": [
        {
          "internalType": "uint256",
          "name": "",
          "type": "uint256"
        }
      ],
      "stateMutability": "view",
      "type": "function"
    },
    {
      "inputs": [
        {
          "internalType": "address",
          "name": "newOwner",
          "type": "address"
        }
      ],
      "name": "transferOwnership",
      "outputs": [],
      "stateMutability": "nonpayable",
      "type": "function"
    },
    {
      "inputs": [
        {
          "components": [
            {
              "internalType": "bytes",
              "name": "paymentProof",
              "type": "bytes"
            },
            {
              "internalType": "address",
              "name": "depositToken",
              "type": "address"
            },
            {
              "internalType": "uint256",
              "name": "intentAmount",
              "type": "uint256"
            },
            {
              "internalType": "uint256",
              "name": "intentTimestamp",
              "type": "uint256"
            },
            {
              "internalType": "string",
              "name": "payeeDetails",
              "type": "string"
            },
            {
              "internalType": "bytes32",
              "name": "fiatCurrency",
              "type": "bytes32"
            },
            {
              "internalType": "uint256",
              "name": "conversionRate",
              "type": "uint256"
            },
            {
              "internalType": "bytes",
              "name": "data",
              "type": "bytes"
            }
          ],
          "internalType": "struct IPaymentVerifier.VerifyPaymentData",
          "name": "_verifyPaymentData",
          "type": "tuple"
        }
      ],
      "name": "verifyPayment",
      "outputs": [
        {
          "internalType": "bool",
          "name": "",
          "type": "bool"
        },
        {
          "internalType": "bytes32",
          "name": "",
          "type": "bytes32"
        }
      ],
      "stateMutability": "nonpayable",
      "type": "function"
    },
    {
      "inputs": [
        {
          "components": [
            {
              "components": [
                {
                  "internalType": "string",
                  "name": "provider",
                  "type": "string"
                },
                {
                  "internalType": "string",
                  "name": "parameters",
                  "type": "string"
                },
                {
                  "internalType": "string",
                  "name": "context",
                  "type": "string"
                }
              ],
              "internalType": "struct Claims.ClaimInfo",
              "name": "claimInfo",
              "type": "tuple"
            },
            {
              "components": [
                {
                  "components": [
                    {
                      "internalType": "bytes32",
                      "name": "identifier",
                      "type": "bytes32"
                    },
                    {
                      "internalType": "address",
                      "name": "owner",
                      "type": "address"
                    },
                    {
                      "internalType": "uint32",
                      "name": "timestampS",
                      "type": "uint32"
                    },
                    {
                      "internalType": "uint32",
                      "name": "epoch",
                      "type": "uint32"
                    }
                  ],
                  "internalType": "struct Claims.CompleteClaimData",
                  "name": "claim",
                  "type": "tuple"
                },
                {
                  "internalType": "bytes[]",
                  "name": "signatures",
                  "type": "bytes[]"
                }
              ],
              "internalType": "struct Claims.SignedClaim",
              "name": "signedClaim",
              "type": "tuple"
            },
            {
              "internalType": "bool",
              "name": "isAppclipProof",
              "type": "bool"
            }
          ],
          "internalType": "struct IReclaimVerifier.ReclaimProof",
          "name": "proof",
          "type": "tuple"
        },
        {
          "internalType": "address[]",
          "name": "_witnesses",
          "type": "address[]"
        },
        {
          "internalType": "uint256",
          "name": "_requiredThreshold",
          "type": "uint256"
        }
      ],
      "name": "verifyProofSignatures",
      "outputs": [
        {
          "internalType": "bool",
          "name": "",
          "type": "bool"
        }
      ],
      "stateMutability": "pure",
      "type": "function"
    }
  ],
  "transactionHash": "0xb53221f2499054e93f811dac45e0dab8c79955c1e92b38e4bf0fba8041bf0445",
  "args": [
    "0xFF0149799631D7A5bdE2e7eA9b306c42b3d9a9ca",
    "0x9cF61278C2Cc9C41578fE3a0ED375E9870D514F1",
    "30",
    [
      "0x8fd50654b7dd2dc839f7cab32800ba0c6f7f66e1ccf89b21c09405469c2175ec"
    ],
    [
      "0xef587a1bff6a93867da994cb1c61ef8d5225391adc3096455386acf87c4ab1f2"
    ]
  ],
  "numDeployments": 1,
  "solcInputHash": "892cc67c51abc9bd1e33c196fe135493",
  "bytecode": "0x60a06040523480156200001157600080fd5b506040516200546d3803806200546d8339810160408190526200003491620005bc565b84848484848484848462000048336200027a565b6001600160a01b03848116608052600180546001600160a01b031916918516919091179055600282905560005b8151811015620000c157620000ac828281518110620000985762000098620006b9565b6020026020010151620002ca60201b60201c565b80620000b881620006cf565b91505062000075565b505050505060005b815181101562000269576005828281518110620000ea57620000ea620006b9565b6020026020010151604051620001019190620006f7565b9081526040519081900360200190205460ff1615620001675760405162461bcd60e51b815260206004820152601b60248201527f50726f7669646572206861736820616c7265616479206164646564000000000060448201526064015b60405180910390fd5b60016005838381518110620001805762000180620006b9565b6020026020010151604051620001979190620006f7565b908152602001604051809103902060006101000a81548160ff0219169083151502179055506006828281518110620001d357620001d3620006b9565b60209081029190910181015182546001810184556000938452919092200190620001fe9082620007a4565b507fc9e1c78701d1853eeb1eb35ad3449e4b336281f672d5837243d21239dc6f4096828281518110620002355762000235620006b9565b60200260200101516040516200024c919062000870565b60405180910390a1806200026081620006cf565b915050620000c9565b5050505050505050505050620008a5565b600080546001600160a01b038381166001600160a01b0319831681178455604051919092169283917f8be0079c531659141344cd1fd0a4f28419497f9722a3daafe3b4186f6b6457e09190a35050565b620002d4620003b6565b60008181526004602052604090205460ff1615620003355760405162461bcd60e51b815260206004820152601660248201527f43757272656e637920616c72656164792061646465640000000000000000000060448201526064016200015e565b6003805460018082019092557fc2575a0e9e593c00f959f8c92f12db2869c3395a3b0502d05e2516446f71f85b01829055600082815260046020908152604091829020805460ff1916909317909255518281527f15e2bb2d9733845f72b6cc683c4d7bafd2d79cfd5c160cb1be756b6faa97dbdc910160405180910390a150565b6000546001600160a01b03163314620004125760405162461bcd60e51b815260206004820181905260248201527f4f776e61626c653a2063616c6c6572206973206e6f7420746865206f776e657260448201526064016200015e565b565b6001600160a01b03811681146200042a57600080fd5b50565b634e487b7160e01b600052604160045260246000fd5b604051601f8201601f191681016001600160401b03811182821017156200046e576200046e6200042d565b604052919050565b60006001600160401b038211156200049257620004926200042d565b5060051b60200190565b60005b83811015620004b95781810151838201526020016200049f565b50506000910152565b6000601f8381840112620004d557600080fd5b82516020620004ee620004e88362000476565b62000443565b82815260059290921b850181019181810190878411156200050e57600080fd5b8287015b84811015620005b05780516001600160401b0380821115620005345760008081fd5b818a0191508a603f8301126200054a5760008081fd5b858201516040828211156200056357620005636200042d565b62000576828b01601f1916890162000443565b92508183528c818386010111156200058e5760008081fd5b6200059f828985018387016200049c565b505084525091830191830162000512565b50979650505050505050565b600080600080600060a08688031215620005d557600080fd5b8551620005e28162000414565b80955050602080870151620005f78162000414565b6040880151606089015191965094506001600160401b03808211156200061c57600080fd5b818901915089601f8301126200063157600080fd5b815162000642620004e88262000476565b81815260059190911b8301840190848101908c8311156200066257600080fd5b938501935b82851015620006825784518252938501939085019062000667565b60808c015190975094505050808311156200069c57600080fd5b5050620006ac88828901620004c2565b9150509295509295909350565b634e487b7160e01b600052603260045260246000fd5b600060018201620006f057634e487b7160e01b600052601160045260246000fd5b5060010190565b600082516200070b8184602087016200049c565b9190910192915050565b600181811c908216806200072a57607f821691505b6020821081036200074b57634e487b7160e01b600052602260045260246000fd5b50919050565b601f8211156200079f57600081815260208120601f850160051c810160208610156200077a5750805b601f850160051c820191505b818110156200079b5782815560010162000786565b5050505b505050565b81516001600160401b03811115620007c057620007c06200042d565b620007d881620007d1845462000715565b8462000751565b602080601f831160018114620008105760008415620007f75750858301515b600019600386901b1c1916600185901b1785556200079b565b600085815260208120601f198616915b82811015620008415788860151825594840194600190910190840162000820565b5085821015620008605787850151600019600388901b60f8161c191681555b5050505050600190811b01905550565b6020815260008251806020840152620008918160408501602087016200049c565b601f01601f19169190910160400192915050565b608051614ba5620008c8600039600081816102c5015261063a0152614ba56000f3fe608060405234801561001057600080fd5b506004361061012c5760003560e01c8063b2a3fda4116100ad578063dbac582111610071578063dbac5821146102b7578063e2fdcc17146102c0578063efd4ad5a146102e7578063f2fde38b146102fa578063fa93cd381461030d57600080fd5b8063b2a3fda414610261578063b870676c14610274578063bd6e774114610287578063c2107e731461029a578063cbcb3ea8146102af57600080fd5b8063680cc8f9116100f4578063680cc8f9146101e157806369037180146101f7578063715018a61461020a57806384c7b439146102125780638da5cb5b1461023c57600080fd5b80631cba9bed146101315780632ca6927d146101465780633e1d0edc1461018957806357c6e12a146101ac57806361c661de146101cc575b600080fd5b61014461013f366004613d6f565b610320565b005b610174610154366004613d6f565b805160208183018101805160058252928201919093012091525460ff1681565b60405190151581526020015b60405180910390f35b610174610197366004613da3565b60046020526000908152604090205460ff1681565b6101bf6101ba366004613da3565b610408565b6040516101809190613e0c565b6101d46104b4565b6040516101809190613e1f565b6101e961050c565b604051908152602001610180565b610144610205366004613da3565b61053d565b610144610618565b610225610220366004613e63565b61062c565b604080519215158352602083019190915201610180565b6000546001600160a01b03165b6040516001600160a01b039091168152602001610180565b61014461026f366004613da3565b610732565b600154610249906001600160a01b031681565b610144610295366004613d6f565b61076f565b6102a2610885565b6040516101809190613ea5565b6101e961095e565b6101e960025481565b6102497f000000000000000000000000000000000000000000000000000000000000000081565b6101446102f5366004613da3565b610984565b610144610308366004613f1e565b610a32565b61017461031b36600461422c565b610aab565b610328610e6b565b6005816040516103389190614298565b9081526040519081900360200190205460ff1661039c5760405162461bcd60e51b815260206004820152601760248201527f50726f76696465722068617368206e6f7420666f756e6400000000000000000060448201526064015b60405180910390fd5b6005816040516103ac9190614298565b908152604051908190036020019020805460ff191690556103ce600682610ec5565b7f6f594b4b4f0580c66aabba75218163a99fa1fe330a171cc9e2bfd8e167db22f8816040516103fd9190613e0c565b60405180910390a150565b6006818154811061041857600080fd5b906000526020600020016000915090508054610433906142b4565b80601f016020809104026020016040519081016040528092919081815260200182805461045f906142b4565b80156104ac5780601f10610481576101008083540402835291602001916104ac565b820191906000526020600020905b81548152906001019060200180831161048f57829003601f168201915b505050505081565b6060600380548060200260200160405190810160405280929190818152602001828054801561050257602002820191906000526020600020905b8154815260200190600101908083116104ee575b5050505050905090565b60405167185c1c1c9bdd995960c21b60208201526028015b6040516020818303038152906040528051906020012081565b610545610e6b565b60008181526004602052604090205460ff161561059d5760405162461bcd60e51b815260206004820152601660248201527510dd5c9c995b98de48185b1c9958591e48185919195960521b6044820152606401610393565b6003805460018082019092557fc2575a0e9e593c00f959f8c92f12db2869c3395a3b0502d05e2516446f71f85b01829055600082815260046020908152604091829020805460ff1916909317909255518281527f15e2bb2d9733845f72b6cc683c4d7bafd2d79cfd5c160cb1be756b6faa97dbdc91016103fd565b610620610e6b565b61062a600061107f565b565b600080336001600160a01b037f0000000000000000000000000000000000000000000000000000000000000000161461069e5760405162461bcd60e51b815260206004820152601460248201527313db9b1e48195cd8dc9bddc818d85b8818d85b1b60621b6044820152606401610393565b6000806106c06106ae86806142ee565b6106bb60e08901896142ee565b6110cf565b915091506106d882866106d290614334565b83611172565b600082608001516040516020016106ef9190614298565b604051602081830303815290604052805190602001209050610710816115c7565b61010083015160009061072390826116e2565b60019890975095505050505050565b61073a610e6b565b60028190556040518181527f11e8dda5412ecab251b7783921be2eb37fdf13b389fc7f671f2cee11a1dfefea906020016103fd565b610777610e6b565b6005816040516107879190614298565b9081526040519081900360200190205460ff16156107e75760405162461bcd60e51b815260206004820152601b60248201527f50726f7669646572206861736820616c726561647920616464656400000000006044820152606401610393565b60016005826040516107f99190614298565b908152604051908190036020019020805491151560ff19909216919091179055600680546001810182556000919091527ff652222313e28459528d920b65115c16c04f3efc82aaedc97be59f3f377c0d3f01610855828261444e565b507fc9e1c78701d1853eeb1eb35ad3449e4b336281f672d5837243d21239dc6f4096816040516103fd9190613e0c565b60606006805480602002602001604051908101604052809291908181526020016000905b828210156109555783829060005260206000200180546108c8906142b4565b80601f01602080910402602001604051908101604052809291908181526020018280546108f4906142b4565b80156109415780601f1061091657610100808354040283529160200191610941565b820191906000526020600020905b81548152906001019060200180831161092457829003601f168201915b5050505050815260200190600101906108a9565b50505050905090565b604051713819382fb6b7b732bcafba3930b739b332b960711b6020820152603201610524565b61098c610e6b565b60008181526004602052604090205460ff166109df5760405162461bcd60e51b815260206004820152601260248201527110dd5c9c995b98de481b9bdd08185919195960721b6044820152606401610393565b6109ea6003826116fc565b60008181526004602052604090819020805460ff19169055517fa3c6a408fb053e3ef5e9bcd22e3574324a5ae99fad263cc4080da481842d3d4c906103fd9083815260200190565b610a3a610e6b565b6001600160a01b038116610a9f5760405162461bcd60e51b815260206004820152602660248201527f4f776e61626c653a206e6577206f776e657220697320746865207a65726f206160448201526564647265737360d01b6064820152608401610393565b610aa88161107f565b50565b6000808211610b0e5760405162461bcd60e51b815260206004820152602960248201527f5265717569726564207468726573686f6c64206d75737420626520677265617460448201526806572207468616e20360bc1b6064820152608401610393565b8251821115610b935760405162461bcd60e51b8152602060048201526044602482018190527f5265717569726564207468726573686f6c64206d757374206265206c65737320908201527f7468616e206f7220657175616c20746f206e756d626572206f66207769746e656064820152637373657360e01b608482015260a401610393565b60008460200151602001515111610bdc5760405162461bcd60e51b815260206004820152600d60248201526c4e6f207369676e61747572657360981b6044820152606401610393565b604080518082019091526020808601805151835251810151908201528451600090610c0690611824565b602087015151519091508114610c5e5760405162461bcd60e51b815260206004820152601c60248201527f436c61696d496e666f206861736820646f65736e2774206d61746368000000006044820152606401610393565b80610ca45760405162461bcd60e51b8152602060048201526016602482015275436c61696d496e666f2068617368206973207a65726f60501b6044820152606401610393565b6000610caf83611867565b90508481511015610d135760405162461bcd60e51b815260206004820152602860248201527f4665776572207369676e617475726573207468616e20726571756972656420746044820152671a1c995cda1bdb1960c21b6064820152608401610393565b600081516001600160401b03811115610d2e57610d2e613c4d565b604051908082528060200260200182016040528015610d57578160200160208202803683370190505b5090506000805b8351811015610dff576000848281518110610d7b57610d7b61450d565b60200260200101519050610d98818561194090919063ffffffff16565b15610da35750610ded565b610dad8a82611940565b15610deb5780848481518110610dc557610dc561450d565b6001600160a01b039092166020928302919091019091015282610de781614539565b9350505b505b80610df781614539565b915050610d5e565b5086811015610e5c5760405162461bcd60e51b815260206004820152602360248201527f4e6f7420656e6f7567682076616c6964207769746e657373207369676e61747560448201526272657360e81b6064820152608401610393565b50600198975050505050505050565b6000546001600160a01b0316331461062a5760405162461bcd60e51b815260206004820181905260248201527f4f776e61626c653a2063616c6c6572206973206e6f7420746865206f776e65726044820152606401610393565b600080610fa284805480602002602001604051908101604052809291908181526020016000905b82821015610f98578382906000526020600020018054610f0b906142b4565b80601f0160208091040260200160405190810160405280929190818152602001828054610f37906142b4565b8015610f845780601f10610f5957610100808354040283529160200191610f84565b820191906000526020600020905b815481529060010190602001808311610f6757829003601f168201915b505050505081526020019060010190610eec565b5050505084611956565b9150915080610fea5760405162461bcd60e51b815260206004820152601460248201527329ba3934b733903737ba1034b71030b93930bc9760611b6044820152606401610393565b8354600090610ffb90600190614552565b905080831461104a578481815481106110165761101661450d565b906000526020600020018584815481106110325761103261450d565b9060005260206000200190816110489190614565565b505b8480548061105a5761105a614637565b6001900381819060005260206000200160006110769190613b80565b90555050505050565b600080546001600160a01b038381166001600160a01b0319831681178455604051919092169283917f8be0079c531659141344cd1fd0a4f28419497f9722a3daafe3b4186f6b6457e09190a35050565b6110d7613bba565b6000806110e68688018861464d565b905060006110f486866119c7565b905061110282826001610aab565b5061110c826119d5565b935061111c846101200151611b48565b6111605760405162461bcd60e51b815260206004820152601560248201527409cde40ecc2d8d2c840e0e4deecd2c8cae490c2e6d605b1b6044820152606401610393565b81604001519250505094509492505050565b6000670de0b6b3a76400008360c0015184604001516111919190614681565b61119b91906146ae565b9050600083602001516001600160a01b031663313ce5676040518163ffffffff1660e01b8152600401602060405180830381865afa1580156111e1573d6000803e3d6000fd5b505050506040513d601f19601f8201168201806040525081019061120591906146c2565b9050600061121c8660000151876020015184611b73565b90508281101561126e5760405162461bcd60e51b815260206004820152601860248201527f496e636f7272656374207061796d656e7420616d6f756e7400000000000000006044820152606401610393565b831561130c5760008660e0015160405160200161128b9190614298565b6040516020818303038152906040528051906020012090506112ba86608001516112b483611bba565b90611d7f565b6113065760405162461bcd60e51b815260206004820152601b60248201527f496e636f7272656374207061796d656e7420726563697069656e7400000000006044820152606401610393565b5061136b565b608085015160e087015161131f91611d7f565b61136b5760405162461bcd60e51b815260206004820152601b60248201527f496e636f7272656374207061796d656e7420726563697069656e7400000000006044820152606401610393565b600060025461137d8860400151611dd8565b61138791906146e5565b905085606001518110156113dd5760405162461bcd60e51b815260206004820152601b60248201527f496e636f7272656374207061796d656e742074696d657374616d7000000000006044820152606401610393565b600087606001516040516020016113f49190614298565b6040516020818303038152906040528051906020012090508660a00151811461145f5760405162461bcd60e51b815260206004820152601a60248201527f496e636f7272656374207061796d656e742063757272656e63790000000000006044820152606401610393565b60008860c001516040516020016114769190614298565b6040516020818303038152906040528051906020012090506040516020016114b690713819382fb6b7b732bcafba3930b739b332b960711b815260120190565b6040516020818303038152906040528051906020012081146115115760405162461bcd60e51b8152602060048201526014602482015273496e76616c6964207061796d656e74207479706560601b6044820152606401610393565b60008960a001516040516020016115289190614298565b60405160208183030381529060405280519060200120905060405160200161155e9067185c1c1c9bdd995960c21b815260080190565b6040516020818303038152906040528051906020012081146115bb5760405162461bcd60e51b8152602060048201526016602482015275496e76616c6964207061796d656e742073746174757360501b6044820152606401610393565b50505050505050505050565b60015460405163169394bb60e01b8152600481018390526001600160a01b039091169063169394bb90602401602060405180830381865afa158015611610573d6000803e3d6000fd5b505050506040513d601f19601f8201168201806040525081019061163491906146f8565b156116815760405162461bcd60e51b815260206004820152601f60248201527f4e756c6c69666965722068617320616c7265616479206265656e2075736564006044820152606401610393565b600154604051632dea6f9960e11b8152600481018390526001600160a01b0390911690635bd4df3290602401600060405180830381600087803b1580156116c757600080fd5b505af11580156116db573d6000803e3d6000fd5b5050505050565b60006116f383601760f91b84611ff4565b90505b92915050565b6000806117588480548060200260200160405190810160405280929190818152602001828054801561174d57602002820191906000526020600020905b815481526020019060010190808311611739575b5050505050846121d1565b91509150806117a15760405162461bcd60e51b8152602060048201526015602482015274313cba32b99999103737ba1034b71030b93930bc9760591b6044820152606401610393565b83546000906117b290600190614552565b90508083146117f7578481815481106117cd576117cd61450d565b90600052602060002001548584815481106117ea576117ea61450d565b6000918252602090912001555b8480548061180757611807614637565b600190038181906000526020600020016000905590555050505050565b60008082600001518360200151846040015160405160200161184893929190614715565b60408051601f1981840301815291905280516020909101209392505050565b606060006118788360000151612221565b905060008360200151516001600160401b0381111561189957611899613c4d565b6040519080825280602002602001820160405280156118c2578160200160208202803683370190505b50905060005b846020015151811015611938576118fc83866020015183815181106118ef576118ef61450d565b60200260200101516122ad565b82828151811061190e5761190e61450d565b6001600160a01b03909216602092830291909101909101528061193081614539565b9150506118c8565b509392505050565b60008061194d84846122f6565b95945050505050565b81516000908190815b818110156119b45784805190602001208682815181106119815761198161450d565b602002602001015180519060200120036119a2579250600191506119c09050565b806119ac81614539565b91505061195f565b50600019600092509250505b9250929050565b60606116f382840184614770565b6119dd613bba565b60006119f4836000015160400151600d6001612358565b905060405180610140016040528082600481518110611a1557611a1561450d565b6020026020010151815260200182600581518110611a3557611a3561450d565b6020026020010151815260200182600781518110611a5557611a5561450d565b6020026020010151815260200182600681518110611a7557611a7561450d565b6020026020010151815260200182600881518110611a9557611a9561450d565b6020026020010151815260200182600981518110611ab557611ab561450d565b6020026020010151815260200182600a81518110611ad557611ad561450d565b6020026020010151815260200182600b81518110611af557611af561450d565b6020026020010151815260200182600181518110611b1557611b1561450d565b6020026020010151815260200182600c81518110611b3557611b3561450d565b6020026020010151815250915050919050565b6000600582604051611b5a9190614298565b9081526040519081900360200190205460ff1692915050565b600080611b8885600b60fa1b60ff8616611ff4565b90506000611ba4611b9a6002866147a4565b869060ff166116e2565b9050611bb081836146e5565b9695505050505050565b604080518082018252601081526f181899199a1a9b1b9c1cb0b131b232b360811b6020820152815160428082526080820190935260609260009190602082018180368337019050509050600360fc1b81600081518110611c1c57611c1c61450d565b60200101906001600160f81b031916908160001a905350600f60fb1b81600181518110611c4b57611c4b61450d565b60200101906001600160f81b031916908160001a90535060005b602081101561193857826004868360208110611c8357611c8361450d565b1a60f81b6001600160f81b031916901c60f81c60ff1681518110611ca957611ca961450d565b01602001516001600160f81b03191682611cc4836002614681565b611ccf9060026146e5565b81518110611cdf57611cdf61450d565b60200101906001600160f81b031916908160001a90535082858260208110611d0957611d0961450d565b825191901a600f16908110611d2057611d2061450d565b01602001516001600160f81b03191682611d3b836002614681565b611d469060036146e5565b81518110611d5657611d5661450d565b60200101906001600160f81b031916908160001a90535080611d7781614539565b915050611c65565b600081604051602001611d929190614298565b6040516020818303038152906040528051906020012083604051602001611db99190614298565b6040516020818303038152906040528051906020012014905092915050565b6000611de2613c0d565b82516000908190815b81811015611f2f57868181518110611e0557611e0561450d565b6020910101516001600160f81b031916602d60f81b1480611e4a5750868181518110611e3357611e3361450d565b6020910101516001600160f81b031916601d60f91b145b80611e795750868181518110611e6257611e6261450d565b6020910101516001600160f81b031916601560fa1b145b80611ea85750868181518110611e9157611e9161450d565b6020910101516001600160f81b031916600160fd1b145b15611eea57611eb8878483613229565b858560068110611eca57611eca61450d565b6020020152611eda8160016146e5565b925083611ee681614539565b9450505b868181518110611efc57611efc61450d565b01602001516001600160f81b031916601760f91b03611f1d57809150611f2f565b80611f2781614539565b915050611deb565b50611f3b868383613229565b848460068110611f4d57611f4d61450d565b602002015260058314611f985760405162461bcd60e51b8152602060048201526013602482015272496e76616c6964206461746520737472696e6760681b6044820152606401610393565b611bb0611fae600086815b6020020151906116e2565b611fbb6000876001611fa3565b611fc86000886002611fa3565b611fd56000896003611fa3565b611fe260008a6004611fa3565b611fef60008b6005611fa3565b6132f5565b600083818080805b845181101561214a57603060f81b85828151811061201c5761201c61450d565b01602001516001600160f81b0319161080159061205d5750603960f81b85828151811061204b5761204b61450d565b01602001516001600160f81b03191611155b156120a05760308582815181106120765761207661450d565b0160200151612088919060f81c614552565b61209385600a614681565b61209d91906146e5565b93505b81156120b457826120b081614539565b9350505b876001600160f81b0319168582815181106120d1576120d161450d565b01602001516001600160f81b031916036121385781156121335760405162461bcd60e51b815260206004820152601c60248201527f537472696e6720686173206d756c7469706c6520646563696d616c73000000006044820152606401610393565b600191505b8061214281614539565b915050611ffc565b50858211156121a65760405162461bcd60e51b815260206004820152602260248201527f537472696e672068617320746f6f206d616e7920646563696d616c20706c6163604482015261657360f01b6064820152608401610393565b6121b08287614552565b6121bb90600a6148a1565b6121c59084614681565b98975050505050505050565b81516000908190815b818110156119b457848682815181106121f5576121f561450d565b60200260200101510361220f579250600191506119c09050565b8061221981614539565b9150506121da565b6060612251826000015160405160200161223d91815260200190565b604051602081830303815290604052613351565b61225e8360200151613514565b612271846040015163ffffffff1661367d565b612284856060015163ffffffff1661367d565b60405160200161229794939291906148ad565b6040516020818303038152906040529050919050565b6000806122ba845161367d565b846040516020016122cc929190614926565b6040516020818303038152906040528051906020012090506122ee81846137a8565b949350505050565b81516000908190815b818110156119b457846001600160a01b03168682815181106123235761232361450d565b60200260200101516001600160a01b031603612346579250600191506119c09050565b8061235081614539565b9150506122ff565b606060008360ff16116123b75760405162461bcd60e51b815260206004820152602160248201527f4d61782076616c756573206d7573742062652067726561746572207468616e206044820152600360fc1b6064820152608401610393565b83600080808080806123ca8a6002614981565b60ff166001600160401b038111156123e4576123e4613c4d565b60405190808252806020026020018201604052801561240d578160200160208202803683370190505b50905060005b604051806040016040528060138152602001723d9131b7b73a32bc3a20b2323932b9b9911d1160691b815250518110156124ec57604051806040016040528060138152602001723d9131b7b73a32bc3a20b2323932b9b9911d1160691b81525081815181106124845761248461450d565b01602001516001600160f81b0319168861249e838a6146e5565b815181106124ae576124ae61450d565b01602001516001600160f81b031916146124da5760405162461bcd60e51b8152600401610393906149a4565b806124e481614539565b915050612413565b50604051806040016040528060138152602001723d9131b7b73a32bc3a20b2323932b9b9911d1160691b815250518661252591906146e5565b95508593505b86518610801561259b57508686815181106125485761254861450d565b6020910101516001600160f81b031916601160f91b148015612599575086612571600188614552565b815181106125815761258161450d565b6020910101516001600160f81b031916601760fa1b14155b155b156125b257856125aa81614539565b96505061252b565b865186106125d25760405162461bcd60e51b8152600401610393906149a4565b85925083830361263a5760405162461bcd60e51b815260206004820152602d60248201527f45787472616374696f6e206661696c65642e20456d70747920636f6e7465787460448201526c416464726573732076616c756560981b6064820152608401610393565b8381612647876002614681565b815181106126575761265761450d565b6020908102919091010152828161266f876002614681565b61267a9060016146e5565b8151811061268a5761268a61450d565b60209081029190910101528461269f81614539565b95506126ae90506002876146e5565b955060005b604051806040016040528060128152602001711131b7b73a32bc3a26b2b9b9b0b3b2911d1160711b8152505181101561278a57604051806040016040528060128152602001711131b7b73a32bc3a26b2b9b9b0b3b2911d1160711b81525081815181106127225761272261450d565b01602001516001600160f81b0319168861273c838a6146e5565b8151811061274c5761274c61450d565b01602001516001600160f81b031916146127785760405162461bcd60e51b8152600401610393906149ef565b8061278281614539565b9150506126b3565b50604051806040016040528060128152602001711131b7b73a32bc3a26b2b9b9b0b3b2911d1160711b81525051866127c291906146e5565b95508593505b86518610801561283857508686815181106127e5576127e561450d565b6020910101516001600160f81b031916601160f91b14801561283657508661280e600188614552565b8151811061281e5761281e61450d565b6020910101516001600160f81b031916601760fa1b14155b155b1561284f578561284781614539565b9650506127c8565b8651861061286f5760405162461bcd60e51b8152600401610393906149ef565b8592508383036128d75760405162461bcd60e51b815260206004820152602d60248201527f45787472616374696f6e206661696c65642e20456d70747920636f6e7465787460448201526c4d6573736167652076616c756560981b6064820152608401610393565b83816128e4876002614681565b815181106128f4576128f461450d565b6020908102919091010152828161290c876002614681565b6129179060016146e5565b815181106129275761292761450d565b60209081029190910101528461293c81614539565b955061294b90506002876146e5565b955060005b604051806040016040528060188152602001771132bc3a3930b1ba32b22830b930b6b2ba32b939911d3d9160411b81525051811015612a7c57604051806040016040528060188152602001771132bc3a3930b1ba32b22830b930b6b2ba32b939911d3d9160411b81525081815181106129cb576129cb61450d565b01602001516001600160f81b031916886129e5838a6146e5565b815181106129f5576129f561450d565b01602001516001600160f81b03191614612a6a5760405162461bcd60e51b815260206004820152603060248201527f45787472616374696f6e206661696c65642e204d616c666f726d65642065787460448201526f726163746564506172616d657465727360801b6064820152608401610393565b80612a7481614539565b915050612950565b50604051806040016040528060188152602001771132bc3a3930b1ba32b22830b930b6b2ba32b939911d3d9160411b8152505186612aba91906146e5565b9550600091505b8651861015612e6457868681518110612adc57612adc61450d565b6020910101516001600160f81b031916601160f91b148015612b2d575086612b05600188614552565b81518110612b1557612b1561450d565b6020910101516001600160f81b031916601760fa1b14155b612b435785612b3b81614539565b965050612ac1565b81612c4b5786612b548760016146e5565b81518110612b6457612b6461450d565b6020910101516001600160f81b031916601d60f91b148015612bb4575086612b8d8760026146e5565b81518110612b9d57612b9d61450d565b6020910101516001600160f81b031916601160f91b145b612c0c5760405162461bcd60e51b815260206004820152602360248201527f45787472616374696f6e206661696c65642e204d616c666f726d65642064617460448201526261203160e81b6064820152608401610393565b612c176003876146e5565b9550600191508581612c2a876002614681565b81518110612c3a57612c3a61450d565b602002602001018181525050612ac1565b600087612c598860016146e5565b81518110612c6957612c6961450d565b6020910101516001600160f81b031916600b60fa1b148015612cb9575087612c928860026146e5565b81518110612ca257612ca261450d565b6020910101516001600160f81b031916601160f91b145b9050600088612cc98960016146e5565b81518110612cd957612cd961450d565b6020910101516001600160f81b031916607d60f81b148015612d29575088612d028960026146e5565b81518110612d1257612d1261450d565b6020910101516001600160f81b031916600b60fa1b145b90508180612d345750805b612d8c5760405162461bcd60e51b815260206004820152602360248201527f45787472616374696f6e206661696c65642e204d616c666f726d65642064617460448201526230901960e91b6064820152608401610393565b8783612d99896002614681565b612da49060016146e5565b81518110612db457612db461450d565b602090810291909101015286612dc981614539565b9750508115612e49578b60ff168703612e335760405162461bcd60e51b815260206004820152602660248201527f45787472616374696f6e206661696c65642e204578636565646564206d61782060448201526576616c75657360d01b6064820152608401610393565b612e3e6003896146e5565b975060009350612e5d565b612e546003896146e5565b97505050612e64565b5050612ac1565b88156130715760005b6040518060400160405280601081526020016f11383937bb34b232b92430b9b4111d1160811b81525051811015612f82576040518060400160405280601081526020016f11383937bb34b232b92430b9b4111d1160811b8152508181518110612ed857612ed861450d565b01602001516001600160f81b03191688612ef2838a6146e5565b81518110612f0257612f0261450d565b01602001516001600160f81b03191614612f705760405162461bcd60e51b815260206004820152602960248201527f45787472616374696f6e206661696c65642e204d616c666f726d65642070726f6044820152680ecd2c8cae490c2e6d60bb1b6064820152608401610393565b80612f7a81614539565b915050612e6d565b506040518060400160405280601081526020016f11383937bb34b232b92430b9b4111d1160811b8152505186612fb891906146e5565b95508581612fc7876002614681565b81518110612fd757612fd761450d565b6020026020010181815250505b86518610801561301957508686815181106130015761300161450d565b6020910101516001600160f81b031916601160f91b14155b15613030578561302881614539565b965050612fe4565b858161303d876002614681565b6130489060016146e5565b815181106130585761305861450d565b60209081029190910101528461306d81614539565b9550505b6000856001600160401b0381111561308b5761308b613c4d565b6040519080825280602002602001820160405280156130be57816020015b60608152602001906001900390816130a95790505b50905060005b8681101561321957826130d8826002614681565b815181106130e8576130e861450d565b60200260200101519550828160026131009190614681565b61310b9060016146e5565b8151811061311b5761311b61450d565b60200260200101519450600086866131339190614552565b6001600160401b0381111561314a5761314a613c4d565b6040519080825280601f01601f191660200182016040528015613174576020820181803683370190505b509050865b868110156131e6578a81815181106131935761319361450d565b01602001516001600160f81b031916826131ad8a84614552565b815181106131bd576131bd61450d565b60200101906001600160f81b031916908160001a905350806131de81614539565b915050613179565b50808383815181106131fa576131fa61450d565b602002602001018190525050808061321190614539565b9150506130c4565b509b9a5050505050505050505050565b60608360006132388585614552565b6001600160401b0381111561324f5761324f613c4d565b6040519080825280601f01601f191660200182016040528015613279576020820181803683370190505b509050845b848110156132eb578281815181106132985761329861450d565b01602001516001600160f81b031916826132b28884614552565b815181106132c2576132c261450d565b60200101906001600160f81b031916908160001a905350806132e381614539565b91505061327e565b5095945050505050565b600081613303603c85614681565b61330f610e1087614681565b6201518061331e8b8b8b6137c4565b6133289190614681565b61333291906146e5565b61333c91906146e5565b61334691906146e5565b979650505050505050565b60606000825160026133639190614681565b6001600160401b0381111561337a5761337a613c4d565b6040519080825280601f01601f1916602001820160405280156133a4576020820181803683370190505b5060408051808201909152601081526f181899199a1a9b1b9c1cb0b131b232b360811b602082015290915060005b84518110156134ea578182518683815181106133f0576133f061450d565b0160200151613402919060f81c6146ae565b815181106134125761341261450d565b01602001516001600160f81b0319168361342d836002614681565b8151811061343d5761343d61450d565b60200101906001600160f81b031916908160001a9053508182518683815181106134695761346961450d565b016020015161347b919060f81c614a3a565b8151811061348b5761348b61450d565b01602001516001600160f81b031916836134a6836002614681565b6134b19060016146e5565b815181106134c1576134c161450d565b60200101906001600160f81b031916908160001a905350806134e281614539565b9150506133d2565b50816040516020016134fc9190614a4e565b60405160208183030381529060405292505050919050565b60408051602880825260608281019093526000919060208201818036833701905050905060005b6014811015613654576000613551826013614552565b61355c906008614681565b6135679060026148a1565b61357a906001600160a01b0387166146ae565b60f81b9050600060108260f81c6135919190614a78565b60f81b905060008160f81c60106135a89190614981565b8360f81c6135b691906147a4565b60f81b90506135c4826138f5565b856135d0866002614681565b815181106135e0576135e061450d565b60200101906001600160f81b031916908160001a905350613600816138f5565b8561360c866002614681565b6136179060016146e5565b815181106136275761362761450d565b60200101906001600160f81b031916908160001a905350505050808061364c90614539565b91505061353b565b50806040516020016136669190614a4e565b604051602081830303815290604052915050919050565b6060816000036136a45750506040805180820190915260018152600360fc1b602082015290565b8160005b81156136ce57806136b881614539565b91506136c79050600a836146ae565b91506136a8565b6000816001600160401b038111156136e8576136e8613c4d565b6040519080825280601f01601f191660200182016040528015613712576020820181803683370190505b509050815b851561379f57613728600182614552565b90506000613737600a886146ae565b61374290600a614681565b61374c9088614552565b613757906030614a9a565b905060008160f81b9050808484815181106137745761377461450d565b60200101906001600160f81b031916908160001a905350613796600a896146ae565b97505050613717565b50949350505050565b60008060006137b78585613930565b9150915061193881613972565b60006107b28410156137d557600080fd5b838383600062253d8c60046064600c6137ef600e88614ab3565b6137f99190614ad3565b61380588611324614b01565b61380f9190614b01565b6138199190614ad3565b613824906003614b29565b61382e9190614ad3565b600c8061383c600e88614ab3565b6138469190614ad3565b61385190600c614b29565b61385c600288614ab3565b6138669190614ab3565b6138729061016f614b29565b61387c9190614ad3565b6004600c61388b600e89614ab3565b6138959190614ad3565b6138a1896112c0614b01565b6138ab9190614b01565b6138b7906105b5614b29565b6138c19190614ad3565b6138cd617d4b87614ab3565b6138d79190614b01565b6138e19190614b01565b6138eb9190614ab3565b6121c59190614ab3565b6000600a60f883901c101561391c5761391360f883901c6030614a9a565b60f81b92915050565b61391360f883901c6057614a9a565b919050565b60008082516041036139665760208301516040840151606085015160001a61395a87828585613abc565b945094505050506119c0565b506000905060026119c0565b600081600481111561398657613986614b59565b0361398e5750565b60018160048111156139a2576139a2614b59565b036139ef5760405162461bcd60e51b815260206004820152601860248201527f45434453413a20696e76616c6964207369676e617475726500000000000000006044820152606401610393565b6002816004811115613a0357613a03614b59565b03613a505760405162461bcd60e51b815260206004820152601f60248201527f45434453413a20696e76616c6964207369676e6174757265206c656e677468006044820152606401610393565b6003816004811115613a6457613a64614b59565b03610aa85760405162461bcd60e51b815260206004820152602260248201527f45434453413a20696e76616c6964207369676e6174757265202773272076616c604482015261756560f01b6064820152608401610393565b6000807f7fffffffffffffffffffffffffffffff5d576e7357a4501ddfe92f46681b20a0831115613af35750600090506003613b77565b6040805160008082526020820180845289905260ff881692820192909252606081018690526080810185905260019060a0016020604051602081039080840390855afa158015613b47573d6000803e3d6000fd5b5050604051601f1901519150506001600160a01b038116613b7057600060019250925050613b77565b9150600090505b94509492505050565b508054613b8c906142b4565b6000825580601f10613b9c575050565b601f016020900490600052602060002090810190610aa89190613c34565b604051806101400160405280606081526020016060815260200160608152602001606081526020016060815260200160608152602001606081526020016060815260200160608152602001606081525090565b6040518060c001604052806006905b6060815260200190600190039081613c1c5790505090565b5b80821115613c495760008155600101613c35565b5090565b634e487b7160e01b600052604160045260246000fd5b604051608081016001600160401b0381118282101715613c8557613c85613c4d565b60405290565b604051606081016001600160401b0381118282101715613c8557613c85613c4d565b60405161010081016001600160401b0381118282101715613c8557613c85613c4d565b604051601f8201601f191681016001600160401b0381118282101715613cf857613cf8613c4d565b604052919050565b600082601f830112613d1157600080fd5b81356001600160401b03811115613d2a57613d2a613c4d565b613d3d601f8201601f1916602001613cd0565b818152846020838601011115613d5257600080fd5b816020850160208301376000918101602001919091529392505050565b600060208284031215613d8157600080fd5b81356001600160401b03811115613d9757600080fd5b6122ee84828501613d00565b600060208284031215613db557600080fd5b5035919050565b60005b83811015613dd7578181015183820152602001613dbf565b50506000910152565b60008151808452613df8816020860160208601613dbc565b601f01601f19169290920160200192915050565b6020815260006116f36020830184613de0565b6020808252825182820181905260009190848201906040850190845b81811015613e5757835183529284019291840191600101613e3b565b50909695505050505050565b600060208284031215613e7557600080fd5b81356001600160401b03811115613e8b57600080fd5b82016101008185031215613e9e57600080fd5b9392505050565b6000602080830181845280855180835260408601915060408160051b870101925083870160005b82811015613efa57603f19888603018452613ee8858351613de0565b94509285019290850190600101613ecc565b5092979650505050505050565b80356001600160a01b038116811461392b57600080fd5b600060208284031215613f3057600080fd5b6116f382613f07565b803563ffffffff8116811461392b57600080fd5b60006001600160401b03821115613f6657613f66613c4d565b5060051b60200190565b600082601f830112613f8157600080fd5b81356020613f96613f9183613f4d565b613cd0565b82815260059290921b84018101918181019086841115613fb557600080fd5b8286015b84811015613ff45780356001600160401b03811115613fd85760008081fd5b613fe68986838b0101613d00565b845250918301918301613fb9565b509695505050505050565b600081830360a081121561401257600080fd5b604051604081016001600160401b03828210818311171561403557614035613c4d565b81604052829450608084121561404a57600080fd5b614052613c63565b93508535845261406460208701613f07565b602085015261407560408701613f39565b604085015261408660608701613f39565b6060850152928252608085013592808411156140a157600080fd5b50506140af85838601613f70565b6020820152505092915050565b8015158114610aa857600080fd5b803561392b816140bc565b6000606082840312156140e757600080fd5b6140ef613c8b565b905081356001600160401b038082111561410857600080fd5b908301906060828603121561411c57600080fd5b614124613c8b565b82358281111561413357600080fd5b61413f87828601613d00565b82525060208301358281111561415457600080fd5b61416087828601613d00565b60208301525060408301358281111561417857600080fd5b61418487828601613d00565b604083015250835260208401359150808211156141a057600080fd5b506141ad84828501613fff565b6020830152506141bf604083016140ca565b604082015292915050565b600082601f8301126141db57600080fd5b813560206141eb613f9183613f4d565b82815260059290921b8401810191818101908684111561420a57600080fd5b8286015b84811015613ff45761421f81613f07565b835291830191830161420e565b60008060006060848603121561424157600080fd5b83356001600160401b038082111561425857600080fd5b614264878388016140d5565b9450602086013591508082111561427a57600080fd5b50614287868287016141ca565b925050604084013590509250925092565b600082516142aa818460208701613dbc565b9190910192915050565b600181811c908216806142c857607f821691505b6020821081036142e857634e487b7160e01b600052602260045260246000fd5b50919050565b6000808335601e1984360301811261430557600080fd5b8301803591506001600160401b0382111561431f57600080fd5b6020019150368190038213156119c057600080fd5b6000610100823603121561434757600080fd5b61434f613cad565b82356001600160401b038082111561436657600080fd5b61437236838701613d00565b835261438060208601613f07565b6020840152604085013560408401526060850135606084015260808501359150808211156143ad57600080fd5b6143b936838701613d00565b608084015260a085013560a084015260c085013560c084015260e08501359150808211156143e657600080fd5b506143f336828601613d00565b60e08301525092915050565b601f82111561444957600081815260208120601f850160051c810160208610156144265750805b601f850160051c820191505b8181101561444557828155600101614432565b5050505b505050565b81516001600160401b0381111561446757614467613c4d565b61447b8161447584546142b4565b846143ff565b602080601f8311600181146144b057600084156144985750858301515b600019600386901b1c1916600185901b178555614445565b600085815260208120601f198616915b828110156144df578886015182559484019460019091019084016144c0565b50858210156144fd5787850151600019600388901b60f8161c191681555b5050505050600190811b01905550565b634e487b7160e01b600052603260045260246000fd5b634e487b7160e01b600052601160045260246000fd5b60006001820161454b5761454b614523565b5060010190565b818103818111156116f6576116f6614523565b818103614570575050565b61457a82546142b4565b6001600160401b0381111561459157614591613c4d565b61459f8161447584546142b4565b6000601f8211600181146145d357600083156145bb5750848201545b600019600385901b1c1916600184901b1784556116db565b600085815260209020601f19841690600086815260209020845b8381101561460d57828601548255600195860195909101906020016145ed565b50858310156144fd5793015460001960f8600387901b161c19169092555050600190811b01905550565b634e487b7160e01b600052603160045260246000fd5b60006020828403121561465f57600080fd5b81356001600160401b0381111561467557600080fd5b6122ee848285016140d5565b80820281158282048414176116f6576116f6614523565b634e487b7160e01b600052601260045260246000fd5b6000826146bd576146bd614698565b500490565b6000602082840312156146d457600080fd5b815160ff81168114613e9e57600080fd5b808201808211156116f6576116f6614523565b60006020828403121561470a57600080fd5b8151613e9e816140bc565b60008451614727818460208901613dbc565b600560f91b9083018181528551909190614748816001850160208a01613dbc565b60019201918201528351614763816002840160208801613dbc565b0160020195945050505050565b60006020828403121561478257600080fd5b81356001600160401b0381111561479857600080fd5b6122ee848285016141ca565b60ff82811682821603908111156116f6576116f6614523565b600181815b808511156147f85781600019048211156147de576147de614523565b808516156147eb57918102915b93841c93908002906147c2565b509250929050565b60008261480f575060016116f6565b8161481c575060006116f6565b8160018114614832576002811461483c57614858565b60019150506116f6565b60ff84111561484d5761484d614523565b50506001821b6116f6565b5060208310610133831016604e8410600b841016171561487b575081810a6116f6565b61488583836147bd565b806000190482111561489957614899614523565b029392505050565b60006116f38383614800565b600085516148bf818460208a01613dbc565b600560f91b90830181815286519091906148e0816001850160208b01613dbc565b6001920191820181905285516148fd816002850160208a01613dbc565b60029201918201528351614918816003840160208801613dbc565b016003019695505050505050565b7f19457468657265756d205369676e6564204d6573736167653a0a00000000000081526000835161495e81601a850160208801613dbc565b83519083019061497581601a840160208801613dbc565b01601a01949350505050565b60ff818116838216029081169081811461499d5761499d614523565b5092915050565b6020808252602b908201527f45787472616374696f6e206661696c65642e204d616c666f726d656420636f6e60408201526a746578744164647265737360a81b606082015260800190565b6020808252602b908201527f45787472616374696f6e206661696c65642e204d616c666f726d656420636f6e60408201526a746578744d65737361676560a81b606082015260800190565b600082614a4957614a49614698565b500690565b61060f60f31b815260008251614a6b816002850160208701613dbc565b9190910160020192915050565b600060ff831680614a8b57614a8b614698565b8060ff84160491505092915050565b60ff81811683821601908111156116f6576116f6614523565b818103600083128015838313168383128216171561499d5761499d614523565b600082614ae257614ae2614698565b600160ff1b821460001984141615614afc57614afc614523565b500590565b8082018281126000831280158216821582161715614b2157614b21614523565b505092915050565b80820260008212600160ff1b84141615614b4557614b45614523565b81810583148215176116f6576116f6614523565b634e487b7160e01b600052602160045260246000fdfea2646970667358221220f9b884ac2854d34b30b76be802af48470f57f4992a1aee9f9fe9815e1e1e2e8c64736f6c63430008120033",
  "devdoc": {
    "kind": "dev",
    "methods": {
      "addCurrency(bytes32)": {
        "params": {
          "_currencyCode": "Currency code to add"
        }
      },
      "addProviderHash(string)": {
        "params": {
          "_newProviderHash": "New provider hash to be added"
        }
      },
      "owner()": {
        "details": "Returns the address of the current owner."
      },
      "removeCurrency(bytes32)": {
        "params": {
          "_currencyCode": "Currency code to remove"
        }
      },
      "removeProviderHash(string)": {
        "params": {
          "_removeProviderHash": "Provider hash to be removed"
        }
      },
      "renounceOwnership()": {
        "details": "Leaves the contract without owner. It will not be possible to call `onlyOwner` functions. Can only be called by the current owner. NOTE: Renouncing ownership will leave the contract without an owner, thereby disabling any functionality that is only available to the owner."
      },
      "setTimestampBuffer(uint256)": {
        "params": {
          "_timestampBuffer": "The timestamp buffer for payments"
        }
      },
      "transferOwnership(address)": {
        "details": "Transfers ownership of the contract to a new account (`newOwner`). Can only be called by the current owner."
      },
      "verifyPayment((bytes,address,uint256,uint256,string,bytes32,uint256,bytes))": {
        "params": {
          "_verifyPaymentData": "Payment proof and intent details required for verification"
        }
      },
      "verifyProofSignatures(((string,string,string),((bytes32,address,uint32,uint32),bytes[]),bool),address[],uint256)": {
        "params": {
          "_requiredThreshold": "Minimum number of signatures required from accepted witnesses",
          "_witnesses": "List of accepted witnesses",
          "proof": "Proof to be verified"
        }
      }
    },
    "version": 1
  },
  "userdoc": {
    "kind": "user",
    "methods": {
      "addCurrency(bytes32)": {
        "notice": "OWNER ONLY: Adds a currency code to supported currencies"
      },
      "addProviderHash(string)": {
        "notice": "ONLY OWNER: Add provider hash string. Provider hash must not have been previously added."
      },
      "removeCurrency(bytes32)": {
        "notice": "OWNER ONLY: Removes a currency code from supported currencies"
      },
      "removeProviderHash(string)": {
        "notice": "ONLY OWNER: Remove provider hash string. Provider hash must have been previously added."
      },
      "setTimestampBuffer(uint256)": {
        "notice": "OWNER ONLY: Sets the timestamp buffer for payments. This is the amount of time in seconds that the timestamp can be off by and still be considered valid. Necessary to build in flexibility  with L2 timestamps."
      },
      "verifyPayment((bytes,address,uint256,uint256,string,bytes32,uint256,bytes))": {
        "notice": "ONLY RAMP: Verifies a reclaim proof of an offchain Mercado Pago payment. Ensures the right _intentAmount * _conversionRate was paid to _payeeDetails after _intentTimestamp + timestampBuffer on Mercado Pago. Additionaly, checks the right fiatCurrency was paid and the payment status is correct."
      },
      "verifyProofSignatures(((string,string,string),((bytes32,address,uint32,uint32),bytes[]),bool),address[],uint256)": {
        "notice": "Verify proof generated by witnesses. Claim is constructed by hashing claimInfo (provider, context, parameters) to get the identifier. And then signing on (identifier, owner, timestamp, epoch) to get claim signature.  This function verifies a claim by performing the following checks on the claim - Calculates the hash of the claimInfo and checks if it matches the identifier in the claim - Checks if the signatures are valid and from the witnesses This function reverts if - No signatures are found on the proof - ClaimInfo hash does not match the identifier in the claim - Signatures are invalid (not from the witnesses)  DEV NOTE: This function does NOT validate that the claim provider hash is valid. That is the  responsibility of the caller. Ensure witnesses are unique otherwise the threshold can be met  with duplicate witnesses.  Parts of the code are adapted from: https://basescan.org/address/0x7281630e4346dd4c0b7ae3b4689c1d0102741410#code    "
      }
    },
    "version": 1
  },
  "storageLayout": {
    "storage": [
      {
        "astId": 7,
        "contract": "contracts/verifiers/MercadoPagoReclaimVerifier.sol:MercadoPagoReclaimVerifier",
        "label": "_owner",
        "offset": 0,
        "slot": "0",
        "type": "t_address"
      },
      {
        "astId": 9450,
        "contract": "contracts/verifiers/MercadoPagoReclaimVerifier.sol:MercadoPagoReclaimVerifier",
        "label": "nullifierRegistry",
        "offset": 0,
        "slot": "1",
        "type": "t_contract(INullifierRegistry)12402"
      },
      {
        "astId": 9452,
        "contract": "contracts/verifiers/MercadoPagoReclaimVerifier.sol:MercadoPagoReclaimVerifier",
        "label": "timestampBuffer",
        "offset": 0,
        "slot": "2",
        "type": "t_uint256"
      },
      {
        "astId": 9455,
        "contract": "contracts/verifiers/MercadoPagoReclaimVerifier.sol:MercadoPagoReclaimVerifier",
        "label": "currencies",
        "offset": 0,
        "slot": "3",
        "type": "t_array(t_bytes32)dyn_storage"
      },
      {
        "astId": 9459,
        "contract": "contracts/verifiers/MercadoPagoReclaimVerifier.sol:MercadoPagoReclaimVerifier",
        "label": "isCurrency",
        "offset": 0,
        "slot": "4",
        "type": "t_mapping(t_bytes32,t_bool)"
      },
      {
        "astId": 9656,
        "contract": "contracts/verifiers/MercadoPagoReclaimVerifier.sol:MercadoPagoReclaimVerifier",
        "label": "isProviderHash",
        "offset": 0,
        "slot": "5",
        "type": "t_mapping(t_string_memory_ptr,t_bool)"
      },
      {
        "astId": 9659,
        "contract": "contracts/verifiers/MercadoPagoReclaimVerifier.sol:MercadoPagoReclaimVerifier",
        "label": "providerHashes",
        "offset": 0,
        "slot": "6",
        "type": "t_array(t_string_storage)dyn_storage"
      }
    ],
    "types": {
      "t_address": {
        "encoding": "inplace",
        "label": "address",
        "numberOfBytes": "20"
      },
      "t_array(t_bytes32)dyn_storage": {
        "base": "t_bytes32",
        "encoding": "dynamic_array",
        "label": "bytes32[]",
        "numberOfBytes": "32"
      },
      "t_array(t_string_storage)dyn_storage": {
        "base": "t_string_storage",
        "encoding": "dynamic_array",
        "label": "string[]",
        "numberOfBytes": "32"
      },
      "t_bool": {
        "encoding": "inplace",
        "label": "bool",
        "numberOfBytes": "1"
      },
      "t_bytes32": {
        "encoding": "inplace",
        "label": "bytes32",
        "numberOfBytes": "32"
      },
      "t_contract(INullifierRegistry)12402": {
        "encoding": "inplace",
        "label": "contract INullifierRegistry",
        "numberOfBytes": "20"
      },
      "t_mapping(t_bytes32,t_bool)": {
        "encoding": "mapping",
        "key": "t_bytes32",
        "label": "mapping(bytes32 => bool)",
        "numberOfBytes": "32",
        "value": "t_bool"
      },
      "t_mapping(t_string_memory_ptr,t_bool)": {
        "encoding": "mapping",
        "key": "t_string_memory_ptr",
        "label": "mapping(string => bool)",
        "numberOfBytes": "32",
        "value": "t_bool"
      },
      "t_string_memory_ptr": {
        "encoding": "bytes",
        "label": "string",
        "numberOfBytes": "32"
      },
      "t_string_storage": {
        "encoding": "bytes",
        "label": "string",
        "numberOfBytes": "32"
      },
      "t_uint256": {
        "encoding": "inplace",
        "label": "uint256",
        "numberOfBytes": "32"
      }
    }
  }
}