{
  "address": "0x159a0C1060c301290DfeB7c162BC916E7FD62c9C",
  "abi": [
    {
      "inputs": [
        {
          "internalType": "address",
          "name": "_escrow",
          "type": "address"
        },
        {
          "internalType": "contract INullifierRegistry",
          "name": "_nullifierRegistry",
          "type": "address"
        },
        {
          "internalType": "uint256",
          "name": "_timestampBuffer",
          "type": "uint256"
        },
        {
          "internalType": "bytes32[]",
          "name": "_currencies",
          "type": "bytes32[]"
        },
        {
          "internalType": "string[]",
          "name": "_providerHashes",
          "type": "string[]"
        }
      ],
      "stateMutability": "nonpayable",
      "type": "constructor"
    },
    {
      "anonymous": false,
      "inputs": [
        {
          "indexed": false,
          "internalType": "bytes32",
          "name": "currencyCode",
          "type": "bytes32"
        }
      ],
      "name": "CurrencyAdded",
      "type": "event"
    },
    {
      "anonymous": false,
      "inputs": [
        {
          "indexed": false,
          "internalType": "bytes32",
          "name": "currencyCode",
          "type": "bytes32"
        }
      ],
      "name": "CurrencyRemoved",
      "type": "event"
    },
    {
      "anonymous": false,
      "inputs": [
        {
          "indexed": true,
          "internalType": "address",
          "name": "previousOwner",
          "type": "address"
        },
        {
          "indexed": true,
          "internalType": "address",
          "name": "newOwner",
          "type": "address"
        }
      ],
      "name": "OwnershipTransferred",
      "type": "event"
    },
    {
      "anonymous": false,
      "inputs": [
        {
          "indexed": false,
          "internalType": "string",
          "name": "providerHash",
          "type": "string"
        }
      ],
      "name": "ProviderHashAdded",
      "type": "event"
    },
    {
      "anonymous": false,
      "inputs": [
        {
          "indexed": false,
          "internalType": "string",
          "name": "providerHash",
          "type": "string"
        }
      ],
      "name": "ProviderHashRemoved",
      "type": "event"
    },
    {
      "anonymous": false,
      "inputs": [
        {
          "indexed": false,
          "internalType": "uint256",
          "name": "timestampBuffer",
          "type": "uint256"
        }
      ],
      "name": "TimestampBufferSet",
      "type": "event"
    },
    {
      "inputs": [
        {
          "internalType": "bytes32",
          "name": "_currencyCode",
          "type": "bytes32"
        }
      ],
      "name": "addCurrency",
      "outputs": [],
      "stateMutability": "nonpayable",
      "type": "function"
    },
    {
      "inputs": [
        {
          "internalType": "string",
          "name": "_newProviderHash",
          "type": "string"
        }
      ],
      "name": "addProviderHash",
      "outputs": [],
      "stateMutability": "nonpayable",
      "type": "function"
    },
    {
      "inputs": [],
      "name": "escrow",
      "outputs": [
        {
          "internalType": "address",
          "name": "",
          "type": "address"
        }
      ],
      "stateMutability": "view",
      "type": "function"
    },
    {
      "inputs": [],
      "name": "getCurrencies",
      "outputs": [
        {
          "internalType": "bytes32[]",
          "name": "",
          "type": "bytes32[]"
        }
      ],
      "stateMutability": "view",
      "type": "function"
    },
    {
      "inputs": [],
      "name": "getProviderHashes",
      "outputs": [
        {
          "internalType": "string[]",
          "name": "",
          "type": "string[]"
        }
      ],
      "stateMutability": "view",
      "type": "function"
    },
    {
      "inputs": [
        {
          "internalType": "bytes32",
          "name": "",
          "type": "bytes32"
        }
      ],
      "name": "isCurrency",
      "outputs": [
        {
          "internalType": "bool",
          "name": "",
          "type": "bool"
        }
      ],
      "stateMutability": "view",
      "type": "function"
    },
    {
      "inputs": [
        {
          "internalType": "string",
          "name": "",
          "type": "string"
        }
      ],
      "name": "isProviderHash",
      "outputs": [
        {
          "internalType": "bool",
          "name": "",
          "type": "bool"
        }
      ],
      "stateMutability": "view",
      "type": "function"
    },
    {
      "inputs": [],
      "name": "nullifierRegistry",
      "outputs": [
        {
          "internalType": "contract INullifierRegistry",
          "name": "",
          "type": "address"
        }
      ],
      "stateMutability": "view",
      "type": "function"
    },
    {
      "inputs": [],
      "name": "owner",
      "outputs": [
        {
          "internalType": "address",
          "name": "",
          "type": "address"
        }
      ],
      "stateMutability": "view",
      "type": "function"
    },
    {
      "inputs": [
        {
          "internalType": "uint256",
          "name": "",
          "type": "uint256"
        }
      ],
      "name": "providerHashes",
      "outputs": [
        {
          "internalType": "string",
          "name": "",
          "type": "string"
        }
      ],
      "stateMutability": "view",
      "type": "function"
    },
    {
      "inputs": [
        {
          "internalType": "bytes32",
          "name": "_currencyCode",
          "type": "bytes32"
        }
      ],
      "name": "removeCurrency",
      "outputs": [],
      "stateMutability": "nonpayable",
      "type": "function"
    },
    {
      "inputs": [
        {
          "internalType": "string",
          "name": "_removeProviderHash",
          "type": "string"
        }
      ],
      "name": "removeProviderHash",
      "outputs": [],
      "stateMutability": "nonpayable",
      "type": "function"
    },
    {
      "inputs": [],
      "name": "renounceOwnership",
      "outputs": [],
      "stateMutability": "nonpayable",
      "type": "function"
    },
    {
      "inputs": [
        {
          "internalType": "uint256",
          "name": "_timestampBuffer",
          "type": "uint256"
        }
      ],
      "name": "setTimestampBuffer",
      "outputs": [],
      "stateMutability": "nonpayable",
      "type": "function"
    },
    {
      "inputs": [],
      "name": "timestampBuffer",
      "outputs": [
        {
          "internalType": "uint256",
          "name": "",
          "type": "uint256"
        }
      ],
      "stateMutability": "view",
      "type": "function"
    },
    {
      "inputs": [
        {
          "internalType": "address",
          "name": "newOwner",
          "type": "address"
        }
      ],
      "name": "transferOwnership",
      "outputs": [],
      "stateMutability": "nonpayable",
      "type": "function"
    },
    {
      "inputs": [
        {
          "internalType": "bytes",
          "name": "_proof",
          "type": "bytes"
        },
        {
          "internalType": "address",
          "name": "_depositToken",
          "type": "address"
        },
        {
          "internalType": "uint256",
          "name": "_intentAmount",
          "type": "uint256"
        },
        {
          "internalType": "uint256",
          "name": "_intentTimestamp",
          "type": "uint256"
        },
        {
          "internalType": "string",
          "name": "_payeeDetails",
          "type": "string"
        },
        {
          "internalType": "bytes32",
          "name": "",
          "type": "bytes32"
        },
        {
          "internalType": "uint256",
          "name": "_conversionRate",
          "type": "uint256"
        },
        {
          "internalType": "bytes",
          "name": "_depositData",
          "type": "bytes"
        }
      ],
      "name": "verifyPayment",
      "outputs": [
        {
          "internalType": "bool",
          "name": "",
          "type": "bool"
        },
        {
          "internalType": "bytes32",
          "name": "",
          "type": "bytes32"
        }
      ],
      "stateMutability": "nonpayable",
      "type": "function"
    },
    {
      "inputs": [
        {
          "components": [
            {
              "components": [
                {
                  "internalType": "string",
                  "name": "provider",
                  "type": "string"
                },
                {
                  "internalType": "string",
                  "name": "parameters",
                  "type": "string"
                },
                {
                  "internalType": "string",
                  "name": "context",
                  "type": "string"
                }
              ],
              "internalType": "struct Claims.ClaimInfo",
              "name": "claimInfo",
              "type": "tuple"
            },
            {
              "components": [
                {
                  "components": [
                    {
                      "internalType": "bytes32",
                      "name": "identifier",
                      "type": "bytes32"
                    },
                    {
                      "internalType": "address",
                      "name": "owner",
                      "type": "address"
                    },
                    {
                      "internalType": "uint32",
                      "name": "timestampS",
                      "type": "uint32"
                    },
                    {
                      "internalType": "uint32",
                      "name": "epoch",
                      "type": "uint32"
                    }
                  ],
                  "internalType": "struct Claims.CompleteClaimData",
                  "name": "claim",
                  "type": "tuple"
                },
                {
                  "internalType": "bytes[]",
                  "name": "signatures",
                  "type": "bytes[]"
                }
              ],
              "internalType": "struct Claims.SignedClaim",
              "name": "signedClaim",
              "type": "tuple"
            }
          ],
          "internalType": "struct IReclaimVerifier.ReclaimProof",
          "name": "proof",
          "type": "tuple"
        },
        {
          "internalType": "address[]",
          "name": "_witnesses",
          "type": "address[]"
        },
        {
          "internalType": "uint256",
          "name": "_requiredThreshold",
          "type": "uint256"
        }
      ],
      "name": "verifyProofSignatures",
      "outputs": [
        {
          "internalType": "bool",
          "name": "",
          "type": "bool"
        }
      ],
      "stateMutability": "pure",
      "type": "function"
    }
  ],
  "transactionHash": "0xef313988e9c30ee254f2db15513daabf9949791df59b49b5c0470fb3a2c3d06b",
  "args": [
    "0x62055d989EFF377AEF3EbD6c37962348AB1C26fA",
    "0x5584a9f89FcE0cE187f925D5Bc0E2139658b9D82",
    "30",
    [
      "0xc4ae21aac0c6549d71dd96035b7e0bdb6c79ebdba8891b666115bc976d16a29e"
    ],
    [
      "0x018ddd9ee6e342119ca207c6db1c55b22d111ee00d559bf5a09950c08ae082d6",
      "0x9ee2a6265ad72cc3dde75f506d0968e2546aaf8606ad6e22acb0b6aaf7e3e881",
      "0xe42c2e8404457531b18fe2d66ff42ea8633e7a65059196b420d49259ae6c48f6",
      "0x8dd623033191dc75c56b1b2fbb030d0deb4e0d32f8fd5915249f195aeb1adef7",
      "0x32d1f389587540f9623f5f144d06413c9a1856c81af0fca3394db42aeba32535",
      "0xb9c35a1118c8b12ed0f51a29422036720eb62faefe3f2fde1b3f2ac4af54fc86",
      "0xc6ead800a25ce7a2f41713d3acb29ecd5d05c4b9ecbd529685c6b90e7f67ea82",
      "0xeca211605adeeb66939f961515a6040b89ee4ed0cbd717b14a0f87570543ff87",
      "0xfaa7ff32449e41a89fcc6be9719079762f52f11f04955798638b3c75387c1ebf",
      "0x273a0e6151802f0b0174804dafece191584720bcd8d810f415aa856259b296a5"
    ]
  ],
  "numDeployments": 1,
  "solcInputHash": "4f41effe5b2e563354f695e77a3da5fa",
  "bytecode": "0x60a06040523480156200001157600080fd5b5060405162003ff838038062003ff88339810160408190526200003491620005bc565b84848484848484848462000048336200027a565b6001600160a01b03848116608052600180546001600160a01b031916918516919091179055600282905560005b8151811015620000c157620000ac828281518110620000985762000098620006b9565b6020026020010151620002ca60201b60201c565b80620000b881620006cf565b91505062000075565b505050505060005b815181101562000269576005828281518110620000ea57620000ea620006b9565b6020026020010151604051620001019190620006f7565b9081526040519081900360200190205460ff1615620001675760405162461bcd60e51b815260206004820152601b60248201527f50726f7669646572206861736820616c7265616479206164646564000000000060448201526064015b60405180910390fd5b60016005838381518110620001805762000180620006b9565b6020026020010151604051620001979190620006f7565b908152602001604051809103902060006101000a81548160ff0219169083151502179055506006828281518110620001d357620001d3620006b9565b60209081029190910181015182546001810184556000938452919092200190620001fe9082620007a4565b507fc9e1c78701d1853eeb1eb35ad3449e4b336281f672d5837243d21239dc6f4096828281518110620002355762000235620006b9565b60200260200101516040516200024c919062000870565b60405180910390a1806200026081620006cf565b915050620000c9565b5050505050505050505050620008a5565b600080546001600160a01b038381166001600160a01b0319831681178455604051919092169283917f8be0079c531659141344cd1fd0a4f28419497f9722a3daafe3b4186f6b6457e09190a35050565b620002d4620003b6565b60008181526004602052604090205460ff1615620003355760405162461bcd60e51b815260206004820152601660248201527f43757272656e637920616c72656164792061646465640000000000000000000060448201526064016200015e565b6003805460018082019092557fc2575a0e9e593c00f959f8c92f12db2869c3395a3b0502d05e2516446f71f85b01829055600082815260046020908152604091829020805460ff1916909317909255518281527f15e2bb2d9733845f72b6cc683c4d7bafd2d79cfd5c160cb1be756b6faa97dbdc910160405180910390a150565b6000546001600160a01b03163314620004125760405162461bcd60e51b815260206004820181905260248201527f4f776e61626c653a2063616c6c6572206973206e6f7420746865206f776e657260448201526064016200015e565b565b6001600160a01b03811681146200042a57600080fd5b50565b634e487b7160e01b600052604160045260246000fd5b604051601f8201601f191681016001600160401b03811182821017156200046e576200046e6200042d565b604052919050565b60006001600160401b038211156200049257620004926200042d565b5060051b60200190565b60005b83811015620004b95781810151838201526020016200049f565b50506000910152565b6000601f8381840112620004d557600080fd5b82516020620004ee620004e88362000476565b62000443565b82815260059290921b850181019181810190878411156200050e57600080fd5b8287015b84811015620005b05780516001600160401b0380821115620005345760008081fd5b818a0191508a603f8301126200054a5760008081fd5b858201516040828211156200056357620005636200042d565b62000576828b01601f1916890162000443565b92508183528c818386010111156200058e5760008081fd5b6200059f828985018387016200049c565b505084525091830191830162000512565b50979650505050505050565b600080600080600060a08688031215620005d557600080fd5b8551620005e28162000414565b80955050602080870151620005f78162000414565b6040880151606089015191965094506001600160401b03808211156200061c57600080fd5b818901915089601f8301126200063157600080fd5b815162000642620004e88262000476565b81815260059190911b8301840190848101908c8311156200066257600080fd5b938501935b82851015620006825784518252938501939085019062000667565b60808c015190975094505050808311156200069c57600080fd5b5050620006ac88828901620004c2565b9150509295509295909350565b634e487b7160e01b600052603260045260246000fd5b600060018201620006f057634e487b7160e01b600052601160045260246000fd5b5060010190565b600082516200070b8184602087016200049c565b9190910192915050565b600181811c908216806200072a57607f821691505b6020821081036200074b57634e487b7160e01b600052602260045260246000fd5b50919050565b601f8211156200079f57600081815260208120601f850160051c810160208610156200077a5750805b601f850160051c820191505b818110156200079b5782815560010162000786565b5050505b505050565b81516001600160401b03811115620007c057620007c06200042d565b620007d881620007d1845462000715565b8462000751565b602080601f831160018114620008105760008415620007f75750858301515b600019600386901b1c1916600185901b1785556200079b565b600085815260208120601f198616915b82811015620008415788860151825594840194600190910190840162000820565b5085821015620008605787850151600019600388901b60f8161c191681555b5050505050600190811b01905550565b6020815260008251806020840152620008918160408501602087016200049c565b601f01601f19169190910160400192915050565b608051613730620008c86000396000818161029f015261030801526137306000f3fe608060405234801561001057600080fd5b50600436106101165760003560e01c8063b2a3fda4116100a2578063dbac582111610071578063dbac582114610283578063e2fdcc171461029a578063efd4ad5a146102c1578063f2fde38b146102d4578063f75885e2146102e757600080fd5b8063b2a3fda414610235578063b870676c14610248578063bd6e77411461025b578063c2107e731461026e57600080fd5b806357c6e12a116100e957806357c6e12a146101c057806361c661de146101e057806369037180146101f5578063715018a6146102085780638da5cb5b1461021057600080fd5b8063134586cc1461011b5780631cba9bed1461014a5780632ca6927d1461015f5780633e1d0edc1461019d575b600080fd5b61012e610129366004612845565b6102fa565b6040805192151583526020830191909152015b60405180910390f35b61015d610158366004612a2e565b6103f3565b005b61018d61016d366004612a2e565b805160208183018101805160058252928201919093012091525460ff1681565b6040519015158152602001610141565b61018d6101ab366004612a62565b60046020526000908152604090205460ff1681565b6101d36101ce366004612a62565b6104d6565b6040516101419190612acb565b6101e8610582565b6040516101419190612ade565b61015d610203366004612a62565b6105da565b61015d6106b5565b6000546001600160a01b03165b6040516001600160a01b039091168152602001610141565b61015d610243366004612a62565b6106c9565b60015461021d906001600160a01b031681565b61015d610269366004612a2e565b610706565b61027661081c565b6040516101419190612b22565b61028c60025481565b604051908152602001610141565b61021d7f000000000000000000000000000000000000000000000000000000000000000081565b61015d6102cf366004612a62565b6108f5565b61015d6102e2366004612b84565b6109a3565b61018d6102f5366004612e15565b610a1c565b600080336001600160a01b037f000000000000000000000000000000000000000000000000000000000000000016146103715760405162461bcd60e51b815260206004820152601460248201527313db9b1e48195cd8dc9bddc818d85b8818d85b1b60621b60448201526064015b60405180910390fd5b600061037f8e8e8787610d4d565b9050610390818d8d8d8d8d8c610e70565b600081604001516040516020016103a79190612ee0565b6040516020818303038152906040528051906020012090506103c881611067565b60808201516000906103da9082611182565b6001955093505050509b509b9950505050505050505050565b6103fb61119c565b60058160405161040b9190612ee0565b9081526040519081900360200190205460ff1661046a5760405162461bcd60e51b815260206004820152601760248201527f50726f76696465722068617368206e6f7420666f756e640000000000000000006044820152606401610368565b60058160405161047a9190612ee0565b908152604051908190036020019020805460ff1916905561049c6006826111f6565b7f6f594b4b4f0580c66aabba75218163a99fa1fe330a171cc9e2bfd8e167db22f8816040516104cb9190612acb565b60405180910390a150565b600681815481106104e657600080fd5b90600052602060002001600091509050805461050190612efc565b80601f016020809104026020016040519081016040528092919081815260200182805461052d90612efc565b801561057a5780601f1061054f5761010080835404028352916020019161057a565b820191906000526020600020905b81548152906001019060200180831161055d57829003601f168201915b505050505081565b606060038054806020026020016040519081016040528092919081815260200182805480156105d057602002820191906000526020600020905b8154815260200190600101908083116105bc575b5050505050905090565b6105e261119c565b60008181526004602052604090205460ff161561063a5760405162461bcd60e51b815260206004820152601660248201527510dd5c9c995b98de48185b1c9958591e48185919195960521b6044820152606401610368565b6003805460018082019092557fc2575a0e9e593c00f959f8c92f12db2869c3395a3b0502d05e2516446f71f85b01829055600082815260046020908152604091829020805460ff1916909317909255518281527f15e2bb2d9733845f72b6cc683c4d7bafd2d79cfd5c160cb1be756b6faa97dbdc91016104cb565b6106bd61119c565b6106c760006113b0565b565b6106d161119c565b60028190556040518181527f11e8dda5412ecab251b7783921be2eb37fdf13b389fc7f671f2cee11a1dfefea906020016104cb565b61070e61119c565b60058160405161071e9190612ee0565b9081526040519081900360200190205460ff161561077e5760405162461bcd60e51b815260206004820152601b60248201527f50726f7669646572206861736820616c726561647920616464656400000000006044820152606401610368565b60016005826040516107909190612ee0565b908152604051908190036020019020805491151560ff19909216919091179055600680546001810182556000919091527ff652222313e28459528d920b65115c16c04f3efc82aaedc97be59f3f377c0d3f016107ec8282612f85565b507fc9e1c78701d1853eeb1eb35ad3449e4b336281f672d5837243d21239dc6f4096816040516104cb9190612acb565b60606006805480602002602001604051908101604052809291908181526020016000905b828210156108ec57838290600052602060002001805461085f90612efc565b80601f016020809104026020016040519081016040528092919081815260200182805461088b90612efc565b80156108d85780601f106108ad576101008083540402835291602001916108d8565b820191906000526020600020905b8154815290600101906020018083116108bb57829003601f168201915b505050505081526020019060010190610840565b50505050905090565b6108fd61119c565b60008181526004602052604090205460ff166109505760405162461bcd60e51b815260206004820152601260248201527110dd5c9c995b98de481b9bdd08185919195960721b6044820152606401610368565b61095b600382611400565b60008181526004602052604090819020805460ff19169055517fa3c6a408fb053e3ef5e9bcd22e3574324a5ae99fad263cc4080da481842d3d4c906104cb9083815260200190565b6109ab61119c565b6001600160a01b038116610a105760405162461bcd60e51b815260206004820152602660248201527f4f776e61626c653a206e6577206f776e657220697320746865207a65726f206160448201526564647265737360d01b6064820152608401610368565b610a19816113b0565b50565b6000808211610a7f5760405162461bcd60e51b815260206004820152602960248201527f5265717569726564207468726573686f6c64206d75737420626520677265617460448201526806572207468616e20360bc1b6064820152608401610368565b8251821115610b045760405162461bcd60e51b8152602060048201526044602482018190527f5265717569726564207468726573686f6c64206d757374206265206c65737320908201527f7468616e206f7220657175616c20746f206e756d626572206f66207769746e656064820152637373657360e01b608482015260a401610368565b60008460200151602001515111610b4d5760405162461bcd60e51b815260206004820152600d60248201526c4e6f207369676e61747572657360981b6044820152606401610368565b604080518082019091526020808601805151835251810151908201528451600090610b7790611528565b602087015151519091508114610bcf5760405162461bcd60e51b815260206004820152601c60248201527f436c61696d496e666f206861736820646f65736e2774206d61746368000000006044820152606401610368565b80610c155760405162461bcd60e51b8152602060048201526016602482015275436c61696d496e666f2068617368206973207a65726f60501b6044820152606401610368565b6000610c208361156b565b90508481511015610c845760405162461bcd60e51b815260206004820152602860248201527f4665776572207369676e617475726573207468616e20726571756972656420746044820152671a1c995cda1bdb1960c21b6064820152608401610368565b6000805b8251811015610ce257610cbd838281518110610ca657610ca6613044565b60200260200101518961164490919063ffffffff16565b15610cd05781610ccc81613070565b9250505b80610cda81613070565b915050610c88565b5085811015610d3f5760405162461bcd60e51b815260206004820152602360248201527f4e6f7420656e6f7567682076616c6964207769746e657373207369676e61747560448201526272657360e81b6064820152608401610368565b506001979650505050505050565b610d866040518060c001604052806060815260200160608152602001606081526020016060815260200160608152602001606081525090565b6000610d9485870187613089565b90506000610da2858561165a565b60408051600180825281830190925291925060009190602080830190803683370190505090508181600081518110610ddc57610ddc613044565b60200260200101906001600160a01b031690816001600160a01b031681525050610e0883826001610a1c565b50610e1283611668565b9350610e218460a001516117fe565b610e655760405162461bcd60e51b815260206004820152601560248201527409cde40ecc2d8d2c840e0e4deecd2c8cae490c2e6d605b1b6044820152606401610368565b505050949350505050565b6000670de0b6b3a7640000610e8583886130bd565b610e8f91906130ea565b90506000876001600160a01b031663313ce5676040518163ffffffff1660e01b8152600401602060405180830381865afa158015610ed1573d6000803e3d6000fd5b505050506040513d601f19601f82011682018060405250810190610ef591906130fe565b8951909150600090610f0a9060ff8416611182565b905082811015610f5c5760405162461bcd60e51b815260206004820152601860248201527f496e636f7272656374207061796d656e7420616d6f756e7400000000000000006044820152606401610368565b610fa086868080601f01602080910402602001604051908101604052809392919081815260200183838082843760009201919091525050505060608c015190611829565b610fec5760405162461bcd60e51b815260206004820152601b60248201527f496e636f7272656374207061796d656e7420726563697069656e7400000000006044820152606401610368565b6000600254610ffe8c60200151611882565b6110089190613121565b90508781101561105a5760405162461bcd60e51b815260206004820152601b60248201527f496e636f7272656374207061796d656e742074696d657374616d7000000000006044820152606401610368565b5050505050505050505050565b60015460405163169394bb60e01b8152600481018390526001600160a01b039091169063169394bb90602401602060405180830381865afa1580156110b0573d6000803e3d6000fd5b505050506040513d601f19601f820116820180604052508101906110d49190613134565b156111215760405162461bcd60e51b815260206004820152601f60248201527f4e756c6c69666965722068617320616c7265616479206265656e2075736564006044820152606401610368565b600154604051632dea6f9960e11b8152600481018390526001600160a01b0390911690635bd4df3290602401600060405180830381600087803b15801561116757600080fd5b505af115801561117b573d6000803e3d6000fd5b5050505050565b600061119383601760f91b84611a3e565b90505b92915050565b6000546001600160a01b031633146106c75760405162461bcd60e51b815260206004820181905260248201527f4f776e61626c653a2063616c6c6572206973206e6f7420746865206f776e65726044820152606401610368565b6000806112d384805480602002602001604051908101604052809291908181526020016000905b828210156112c957838290600052602060002001805461123c90612efc565b80601f016020809104026020016040519081016040528092919081815260200182805461126890612efc565b80156112b55780601f1061128a576101008083540402835291602001916112b5565b820191906000526020600020905b81548152906001019060200180831161129857829003601f168201915b50505050508152602001906001019061121d565b5050505084611c1b565b915091508061131b5760405162461bcd60e51b815260206004820152601460248201527329ba3934b733903737ba1034b71030b93930bc9760611b6044820152606401610368565b835460009061132c90600190613156565b905080831461137b5784818154811061134757611347613044565b9060005260206000200185848154811061136357611363613044565b9060005260206000200190816113799190613169565b505b8480548061138b5761138b61323b565b6001900381819060005260206000200160006113a7919061276a565b90555050505050565b600080546001600160a01b038381166001600160a01b0319831681178455604051919092169283917f8be0079c531659141344cd1fd0a4f28419497f9722a3daafe3b4186f6b6457e09190a35050565b60008061145c8480548060200260200160405190810160405280929190818152602001828054801561145157602002820191906000526020600020905b81548152602001906001019080831161143d575b505050505084611c8c565b91509150806114a55760405162461bcd60e51b8152602060048201526015602482015274313cba32b99999103737ba1034b71030b93930bc9760591b6044820152606401610368565b83546000906114b690600190613156565b90508083146114fb578481815481106114d1576114d1613044565b90600052602060002001548584815481106114ee576114ee613044565b6000918252602090912001555b8480548061150b5761150b61323b565b600190038181906000526020600020016000905590555050505050565b60008082600001518360200151846040015160405160200161154c93929190613251565b60408051601f1981840301815291905280516020909101209392505050565b6060600061157c8360000151611cdc565b905060008360200151516001600160401b0381111561159d5761159d612919565b6040519080825280602002602001820160405280156115c6578160200160208202803683370190505b50905060005b84602001515181101561163c5761160083866020015183815181106115f3576115f3613044565b6020026020010151611d68565b82828151811061161257611612613044565b6001600160a01b03909216602092830291909101909101528061163481613070565b9150506115cc565b509392505050565b6000806116518484611db1565b95945050505050565b600061119382840184612b84565b6116a16040518060c001604052806060815260200160608152602001606081526020016060815260200160608152602001606081525090565b8151604090810151905163097cda9f60e31b8152600091737884818B6f9022A868623CbAAD4b80027EB361EE91634be6d4f8916116e6916007906001906004016132ac565b600060405180830381865af4158015611703573d6000803e3d6000fd5b505050506040513d6000823e601f3d908101601f1916820160405261172b91908101906132d9565b90506040518060c001604052808260018151811061174b5761174b613044565b602002602001015181526020018260028151811061176b5761176b613044565b602002602001015181526020018260038151811061178b5761178b613044565b60200260200101518152602001826004815181106117ab576117ab613044565b60200260200101518152602001826005815181106117cb576117cb613044565b60200260200101518152602001826006815181106117eb576117eb613044565b6020026020010151815250915050919050565b60006005826040516118109190612ee0565b9081526040519081900360200190205460ff1692915050565b60008160405160200161183c9190612ee0565b60405160208183030381529060405280519060200120836040516020016118639190612ee0565b6040516020818303038152906040528051906020012014905092915050565b600061188c6127a4565b60008060005b8551811015611975578581815181106118ad576118ad613044565b6020910101516001600160f81b031916602d60f81b14806118f257508581815181106118db576118db613044565b6020910101516001600160f81b031916601d60f91b145b80611921575085818151811061190a5761190a613044565b6020910101516001600160f81b031916601560fa1b145b1561196357611931868383611e13565b84846006811061194357611943613044565b6020020152611953816001613121565b91508261195f81613070565b9350505b8061196d81613070565b915050611892565b5084516119859086908390611e13565b83836006811061199757611997613044565b6020020152600582146119e25760405162461bcd60e51b8152602060048201526013602482015272496e76616c6964206461746520737472696e6760681b6044820152606401610368565b6116516119f8600085815b602002015190611182565b611a0560008660016119ed565b611a1260008760026119ed565b611a1f60008860036119ed565b611a2c60008960046119ed565b611a3960008a60056119ed565b611edf565b600083818080805b8451811015611b9457603060f81b858281518110611a6657611a66613044565b01602001516001600160f81b03191610801590611aa75750603960f81b858281518110611a9557611a95613044565b01602001516001600160f81b03191611155b15611aea576030858281518110611ac057611ac0613044565b0160200151611ad2919060f81c613156565b611add85600a6130bd565b611ae79190613121565b93505b8115611afe5782611afa81613070565b9350505b876001600160f81b031916858281518110611b1b57611b1b613044565b01602001516001600160f81b03191603611b82578115611b7d5760405162461bcd60e51b815260206004820152601c60248201527f537472696e6720686173206d756c7469706c6520646563696d616c73000000006044820152606401610368565b600191505b80611b8c81613070565b915050611a46565b5085821115611bf05760405162461bcd60e51b815260206004820152602260248201527f537472696e672068617320746f6f206d616e7920646563696d616c20706c6163604482015261657360f01b6064820152608401610368565b611bfa8287613156565b611c0590600a6134a9565b611c0f90846130bd565b98975050505050505050565b81516000908190815b81811015611c79578480519060200120868281518110611c4657611c46613044565b60200260200101518051906020012003611c6757925060019150611c859050565b80611c7181613070565b915050611c24565b50600019600092509250505b9250929050565b81516000908190815b81811015611c795784868281518110611cb057611cb0613044565b602002602001015103611cca57925060019150611c859050565b80611cd481613070565b915050611c95565b6060611d0c8260000151604051602001611cf891815260200190565b604051602081830303815290604052611f3b565b611d1983602001516120fe565b611d2c846040015163ffffffff16612267565b611d3f856060015163ffffffff16612267565b604051602001611d5294939291906134b5565b6040516020818303038152906040529050919050565b600080611d758451612267565b84604051602001611d8792919061352e565b604051602081830303815290604052805190602001209050611da98184612392565b949350505050565b81516000908190815b81811015611c7957846001600160a01b0316868281518110611dde57611dde613044565b60200260200101516001600160a01b031603611e0157925060019150611c859050565b80611e0b81613070565b915050611dba565b6060836000611e228585613156565b6001600160401b03811115611e3957611e39612919565b6040519080825280601f01601f191660200182016040528015611e63576020820181803683370190505b509050845b84811015611ed557828181518110611e8257611e82613044565b01602001516001600160f81b03191682611e9c8884613156565b81518110611eac57611eac613044565b60200101906001600160f81b031916908160001a90535080611ecd81613070565b915050611e68565b5095945050505050565b600081611eed603c856130bd565b611ef9610e10876130bd565b62015180611f088b8b8b6123ae565b611f1291906130bd565b611f1c9190613121565b611f269190613121565b611f309190613121565b979650505050505050565b6060600082516002611f4d91906130bd565b6001600160401b03811115611f6457611f64612919565b6040519080825280601f01601f191660200182016040528015611f8e576020820181803683370190505b5060408051808201909152601081526f181899199a1a9b1b9c1cb0b131b232b360811b602082015290915060005b84518110156120d457818251868381518110611fda57611fda613044565b0160200151611fec919060f81c6130ea565b81518110611ffc57611ffc613044565b01602001516001600160f81b031916836120178360026130bd565b8151811061202757612027613044565b60200101906001600160f81b031916908160001a90535081825186838151811061205357612053613044565b0160200151612065919060f81c613589565b8151811061207557612075613044565b01602001516001600160f81b031916836120908360026130bd565b61209b906001613121565b815181106120ab576120ab613044565b60200101906001600160f81b031916908160001a905350806120cc81613070565b915050611fbc565b50816040516020016120e6919061359d565b60405160208183030381529060405292505050919050565b60408051602880825260608281019093526000919060208201818036833701905050905060005b601481101561223e57600061213b826013613156565b6121469060086130bd565b6121519060026134a9565b612164906001600160a01b0387166130ea565b60f81b9050600060108260f81c61217b91906135c7565b60f81b905060008160f81c601061219291906135e9565b8360f81c6121a0919061360c565b60f81b90506121ae826124df565b856121ba8660026130bd565b815181106121ca576121ca613044565b60200101906001600160f81b031916908160001a9053506121ea816124df565b856121f68660026130bd565b612201906001613121565b8151811061221157612211613044565b60200101906001600160f81b031916908160001a905350505050808061223690613070565b915050612125565b5080604051602001612250919061359d565b604051602081830303815290604052915050919050565b60608160000361228e5750506040805180820190915260018152600360fc1b602082015290565b8160005b81156122b857806122a281613070565b91506122b19050600a836130ea565b9150612292565b6000816001600160401b038111156122d2576122d2612919565b6040519080825280601f01601f1916602001820160405280156122fc576020820181803683370190505b509050815b851561238957612312600182613156565b90506000612321600a886130ea565b61232c90600a6130bd565b6123369088613156565b612341906030613625565b905060008160f81b90508084848151811061235e5761235e613044565b60200101906001600160f81b031916908160001a905350612380600a896130ea565b97505050612301565b50949350505050565b60008060006123a1858561251a565b9150915061163c8161255c565b60006107b28410156123bf57600080fd5b838383600062253d8c60046064600c6123d9600e8861363e565b6123e3919061365e565b6123ef8861132461368c565b6123f9919061368c565b612403919061365e565b61240e9060036136b4565b612418919061365e565b600c80612426600e8861363e565b612430919061365e565b61243b90600c6136b4565b61244660028861363e565b612450919061363e565b61245c9061016f6136b4565b612466919061365e565b6004600c612475600e8961363e565b61247f919061365e565b61248b896112c061368c565b612495919061368c565b6124a1906105b56136b4565b6124ab919061365e565b6124b7617d4b8761363e565b6124c1919061368c565b6124cb919061368c565b6124d5919061363e565b611c0f919061363e565b6000600a60f883901c1015612506576124fd60f883901c6030613625565b60f81b92915050565b6124fd60f883901c6057613625565b919050565b60008082516041036125505760208301516040840151606085015160001a612544878285856126a6565b94509450505050611c85565b50600090506002611c85565b6000816004811115612570576125706136e4565b036125785750565b600181600481111561258c5761258c6136e4565b036125d95760405162461bcd60e51b815260206004820152601860248201527f45434453413a20696e76616c6964207369676e617475726500000000000000006044820152606401610368565b60028160048111156125ed576125ed6136e4565b0361263a5760405162461bcd60e51b815260206004820152601f60248201527f45434453413a20696e76616c6964207369676e6174757265206c656e677468006044820152606401610368565b600381600481111561264e5761264e6136e4565b03610a195760405162461bcd60e51b815260206004820152602260248201527f45434453413a20696e76616c6964207369676e6174757265202773272076616c604482015261756560f01b6064820152608401610368565b6000807f7fffffffffffffffffffffffffffffff5d576e7357a4501ddfe92f46681b20a08311156126dd5750600090506003612761565b6040805160008082526020820180845289905260ff881692820192909252606081018690526080810185905260019060a0016020604051602081039080840390855afa158015612731573d6000803e3d6000fd5b5050604051601f1901519150506001600160a01b03811661275a57600060019250925050612761565b9150600090505b94509492505050565b50805461277690612efc565b6000825580601f10612786575050565b601f016020900490600052602060002090810190610a1991906127cb565b6040518060c001604052806006905b60608152602001906001900390816127b35790505090565b5b808211156127e057600081556001016127cc565b5090565b60008083601f8401126127f657600080fd5b5081356001600160401b0381111561280d57600080fd5b602083019150836020828501011115611c8557600080fd5b6001600160a01b0381168114610a1957600080fd5b803561251581612825565b60008060008060008060008060008060006101008c8e03121561286757600080fd5b6001600160401b03808d35111561287d57600080fd5b61288a8e8e358f016127e4565b909c509a5061289b60208e0161283a565b995060408d0135985060608d013597508060808e013511156128bc57600080fd5b6128cc8e60808f01358f016127e4565b909750955060a08d0135945060c08d0135935060e08d01358110156128f057600080fd5b506129018d60e08e01358e016127e4565b81935080925050509295989b509295989b9093969950565b634e487b7160e01b600052604160045260246000fd5b604080519081016001600160401b038111828210171561295157612951612919565b60405290565b604051606081016001600160401b038111828210171561295157612951612919565b604051601f8201601f191681016001600160401b03811182821017156129a1576129a1612919565b604052919050565b60006001600160401b038211156129c2576129c2612919565b50601f01601f191660200190565b60006129e36129de846129a9565b612979565b90508281528383830111156129f757600080fd5b828260208301376000602084830101529392505050565b600082601f830112612a1f57600080fd5b611193838335602085016129d0565b600060208284031215612a4057600080fd5b81356001600160401b03811115612a5657600080fd5b611da984828501612a0e565b600060208284031215612a7457600080fd5b5035919050565b60005b83811015612a96578181015183820152602001612a7e565b50506000910152565b60008151808452612ab7816020860160208601612a7b565b601f01601f19169290920160200192915050565b6020815260006111936020830184612a9f565b6020808252825182820181905260009190848201906040850190845b81811015612b1657835183529284019291840191600101612afa565b50909695505050505050565b6000602080830181845280855180835260408601915060408160051b870101925083870160005b82811015612b7757603f19888603018452612b65858351612a9f565b94509285019290850190600101612b49565b5092979650505050505050565b600060208284031215612b9657600080fd5b8135612ba181612825565b9392505050565b803563ffffffff8116811461251557600080fd5b60006001600160401b03821115612bd557612bd5612919565b5060051b60200190565b600082601f830112612bf057600080fd5b81356020612c006129de83612bbc565b82815260059290921b84018101918181019086841115612c1f57600080fd5b8286015b84811015612c735780356001600160401b03811115612c425760008081fd5b8701603f81018913612c545760008081fd5b612c658986830135604084016129d0565b845250918301918301612c23565b509695505050505050565b600081830360a0811215612c9157600080fd5b612c9961292f565b91506080811215612ca957600080fd5b50604051608081016001600160401b038282108183111715612ccd57612ccd612919565b816040528435835260208501359150612ce582612825565b816020840152612cf760408601612ba8565b6040840152612d0860608601612ba8565b606084015291835260808401359180831115612d2357600080fd5b5050612d3184828501612bdf565b60208301525092915050565b600060408284031215612d4f57600080fd5b612d5761292f565b905081356001600160401b0380821115612d7057600080fd5b9083019060608286031215612d8457600080fd5b612d8c612957565b823582811115612d9b57600080fd5b612da787828601612a0e565b825250602083013582811115612dbc57600080fd5b612dc887828601612a0e565b602083015250604083013582811115612de057600080fd5b612dec87828601612a0e565b60408301525083526020840135915080821115612e0857600080fd5b50612d3184828501612c7e565b600080600060608486031215612e2a57600080fd5b83356001600160401b0380821115612e4157600080fd5b612e4d87838801612d3d565b9450602091508186013581811115612e6457600080fd5b86019050601f81018713612e7757600080fd5b8035612e856129de82612bbc565b81815260059190911b82018301908381019089831115612ea457600080fd5b928401925b82841015612ecb578335612ebc81612825565b82529284019290840190612ea9565b96999698505050506040949094013593505050565b60008251612ef2818460208701612a7b565b9190910192915050565b600181811c90821680612f1057607f821691505b602082108103612f3057634e487b7160e01b600052602260045260246000fd5b50919050565b601f821115612f8057600081815260208120601f850160051c81016020861015612f5d5750805b601f850160051c820191505b81811015612f7c57828155600101612f69565b5050505b505050565b81516001600160401b03811115612f9e57612f9e612919565b612fb281612fac8454612efc565b84612f36565b602080601f831160018114612fe75760008415612fcf5750858301515b600019600386901b1c1916600185901b178555612f7c565b600085815260208120601f198616915b8281101561301657888601518255948401946001909101908401612ff7565b50858210156130345787850151600019600388901b60f8161c191681555b5050505050600190811b01905550565b634e487b7160e01b600052603260045260246000fd5b634e487b7160e01b600052601160045260246000fd5b6000600182016130825761308261305a565b5060010190565b60006020828403121561309b57600080fd5b81356001600160401b038111156130b157600080fd5b611da984828501612d3d565b80820281158282048414176111965761119661305a565b634e487b7160e01b600052601260045260246000fd5b6000826130f9576130f96130d4565b500490565b60006020828403121561311057600080fd5b815160ff81168114612ba157600080fd5b808201808211156111965761119661305a565b60006020828403121561314657600080fd5b81518015158114612ba157600080fd5b818103818111156111965761119661305a565b818103613174575050565b61317e8254612efc565b6001600160401b0381111561319557613195612919565b6131a381612fac8454612efc565b6000601f8211600181146131d757600083156131bf5750848201545b600019600385901b1c1916600184901b17845561117b565b600085815260209020601f19841690600086815260209020845b8381101561321157828601548255600195860195909101906020016131f1565b50858310156130345793015460001960f8600387901b161c19169092555050600190811b01905550565b634e487b7160e01b600052603160045260246000fd5b60008451613263818460208901612a7b565b600560f91b9083018181528551909190613284816001850160208a01612a7b565b6001920191820152835161329f816002840160208801612a7b565b0160020195945050505050565b6060815260006132bf6060830186612a9f565b60ff94909416602083015250901515604090910152919050565b600060208083850312156132ec57600080fd5b82516001600160401b038082111561330357600080fd5b818501915085601f83011261331757600080fd5b81516133256129de82612bbc565b81815260059190911b8301840190848101908883111561334457600080fd5b8585015b838110156133b8578051858111156133605760008081fd5b8601603f81018b136133725760008081fd5b8781015160406133846129de836129a9565b8281528d828486010111156133995760008081fd5b6133a8838c8301848701612a7b565b8652505050918601918601613348565b5098975050505050505050565b600181815b808511156134005781600019048211156133e6576133e661305a565b808516156133f357918102915b93841c93908002906133ca565b509250929050565b60008261341757506001611196565b8161342457506000611196565b816001811461343a576002811461344457613460565b6001915050611196565b60ff8411156134555761345561305a565b50506001821b611196565b5060208310610133831016604e8410600b8410161715613483575081810a611196565b61348d83836133c5565b80600019048211156134a1576134a161305a565b029392505050565b60006111938383613408565b600085516134c7818460208a01612a7b565b600560f91b90830181815286519091906134e8816001850160208b01612a7b565b600192019182018190528551613505816002850160208a01612a7b565b60029201918201528351613520816003840160208801612a7b565b016003019695505050505050565b7f19457468657265756d205369676e6564204d6573736167653a0a00000000000081526000835161356681601a850160208801612a7b565b83519083019061357d81601a840160208801612a7b565b01601a01949350505050565b600082613598576135986130d4565b500690565b61060f60f31b8152600082516135ba816002850160208701612a7b565b9190910160020192915050565b600060ff8316806135da576135da6130d4565b8060ff84160491505092915050565b60ff81811683821602908116908181146136055761360561305a565b5092915050565b60ff82811682821603908111156111965761119661305a565b60ff81811683821601908111156111965761119661305a565b81810360008312801583831316838312821617156136055761360561305a565b60008261366d5761366d6130d4565b600160ff1b8214600019841416156136875761368761305a565b500590565b80820182811260008312801582168215821617156136ac576136ac61305a565b505092915050565b80820260008212600160ff1b841416156136d0576136d061305a565b81810583148215176111965761119661305a565b634e487b7160e01b600052602160045260246000fdfea264697066735822122074c4f0ee26df87caefca3da79d235e75cbd2b8d1d09f8960798e5e5aafec87ee64736f6c63430008120033",
  "deployedBytecode": "0x608060405234801561001057600080fd5b50600436106101165760003560e01c8063b2a3fda4116100a2578063dbac582111610071578063dbac582114610283578063e2fdcc171461029a578063efd4ad5a146102c1578063f2fde38b146102d4578063f75885e2146102e757600080fd5b8063b2a3fda414610235578063b870676c14610248578063bd6e77411461025b578063c2107e731461026e57600080fd5b806357c6e12a116100e957806357c6e12a146101c057806361c661de146101e057806369037180146101f5578063715018a6146102085780638da5cb5b1461021057600080fd5b8063134586cc1461011b5780631cba9bed1461014a5780632ca6927d1461015f5780633e1d0edc1461019d575b600080fd5b61012e610129366004612845565b6102fa565b6040805192151583526020830191909152015b60405180910390f35b61015d610158366004612a2e565b6103f3565b005b61018d61016d366004612a2e565b805160208183018101805160058252928201919093012091525460ff1681565b6040519015158152602001610141565b61018d6101ab366004612a62565b60046020526000908152604090205460ff1681565b6101d36101ce366004612a62565b6104d6565b6040516101419190612acb565b6101e8610582565b6040516101419190612ade565b61015d610203366004612a62565b6105da565b61015d6106b5565b6000546001600160a01b03165b6040516001600160a01b039091168152602001610141565b61015d610243366004612a62565b6106c9565b60015461021d906001600160a01b031681565b61015d610269366004612a2e565b610706565b61027661081c565b6040516101419190612b22565b61028c60025481565b604051908152602001610141565b61021d7f000000000000000000000000000000000000000000000000000000000000000081565b61015d6102cf366004612a62565b6108f5565b61015d6102e2366004612b84565b6109a3565b61018d6102f5366004612e15565b610a1c565b600080336001600160a01b037f000000000000000000000000000000000000000000000000000000000000000016146103715760405162461bcd60e51b815260206004820152601460248201527313db9b1e48195cd8dc9bddc818d85b8818d85b1b60621b60448201526064015b60405180910390fd5b600061037f8e8e8787610d4d565b9050610390818d8d8d8d8d8c610e70565b600081604001516040516020016103a79190612ee0565b6040516020818303038152906040528051906020012090506103c881611067565b60808201516000906103da9082611182565b6001955093505050509b509b9950505050505050505050565b6103fb61119c565b60058160405161040b9190612ee0565b9081526040519081900360200190205460ff1661046a5760405162461bcd60e51b815260206004820152601760248201527f50726f76696465722068617368206e6f7420666f756e640000000000000000006044820152606401610368565b60058160405161047a9190612ee0565b908152604051908190036020019020805460ff1916905561049c6006826111f6565b7f6f594b4b4f0580c66aabba75218163a99fa1fe330a171cc9e2bfd8e167db22f8816040516104cb9190612acb565b60405180910390a150565b600681815481106104e657600080fd5b90600052602060002001600091509050805461050190612efc565b80601f016020809104026020016040519081016040528092919081815260200182805461052d90612efc565b801561057a5780601f1061054f5761010080835404028352916020019161057a565b820191906000526020600020905b81548152906001019060200180831161055d57829003601f168201915b505050505081565b606060038054806020026020016040519081016040528092919081815260200182805480156105d057602002820191906000526020600020905b8154815260200190600101908083116105bc575b5050505050905090565b6105e261119c565b60008181526004602052604090205460ff161561063a5760405162461bcd60e51b815260206004820152601660248201527510dd5c9c995b98de48185b1c9958591e48185919195960521b6044820152606401610368565b6003805460018082019092557fc2575a0e9e593c00f959f8c92f12db2869c3395a3b0502d05e2516446f71f85b01829055600082815260046020908152604091829020805460ff1916909317909255518281527f15e2bb2d9733845f72b6cc683c4d7bafd2d79cfd5c160cb1be756b6faa97dbdc91016104cb565b6106bd61119c565b6106c760006113b0565b565b6106d161119c565b60028190556040518181527f11e8dda5412ecab251b7783921be2eb37fdf13b389fc7f671f2cee11a1dfefea906020016104cb565b61070e61119c565b60058160405161071e9190612ee0565b9081526040519081900360200190205460ff161561077e5760405162461bcd60e51b815260206004820152601b60248201527f50726f7669646572206861736820616c726561647920616464656400000000006044820152606401610368565b60016005826040516107909190612ee0565b908152604051908190036020019020805491151560ff19909216919091179055600680546001810182556000919091527ff652222313e28459528d920b65115c16c04f3efc82aaedc97be59f3f377c0d3f016107ec8282612f85565b507fc9e1c78701d1853eeb1eb35ad3449e4b336281f672d5837243d21239dc6f4096816040516104cb9190612acb565b60606006805480602002602001604051908101604052809291908181526020016000905b828210156108ec57838290600052602060002001805461085f90612efc565b80601f016020809104026020016040519081016040528092919081815260200182805461088b90612efc565b80156108d85780601f106108ad576101008083540402835291602001916108d8565b820191906000526020600020905b8154815290600101906020018083116108bb57829003601f168201915b505050505081526020019060010190610840565b50505050905090565b6108fd61119c565b60008181526004602052604090205460ff166109505760405162461bcd60e51b815260206004820152601260248201527110dd5c9c995b98de481b9bdd08185919195960721b6044820152606401610368565b61095b600382611400565b60008181526004602052604090819020805460ff19169055517fa3c6a408fb053e3ef5e9bcd22e3574324a5ae99fad263cc4080da481842d3d4c906104cb9083815260200190565b6109ab61119c565b6001600160a01b038116610a105760405162461bcd60e51b815260206004820152602660248201527f4f776e61626c653a206e6577206f776e657220697320746865207a65726f206160448201526564647265737360d01b6064820152608401610368565b610a19816113b0565b50565b6000808211610a7f5760405162461bcd60e51b815260206004820152602960248201527f5265717569726564207468726573686f6c64206d75737420626520677265617460448201526806572207468616e20360bc1b6064820152608401610368565b8251821115610b045760405162461bcd60e51b8152602060048201526044602482018190527f5265717569726564207468726573686f6c64206d757374206265206c65737320908201527f7468616e206f7220657175616c20746f206e756d626572206f66207769746e656064820152637373657360e01b608482015260a401610368565b60008460200151602001515111610b4d5760405162461bcd60e51b815260206004820152600d60248201526c4e6f207369676e61747572657360981b6044820152606401610368565b604080518082019091526020808601805151835251810151908201528451600090610b7790611528565b602087015151519091508114610bcf5760405162461bcd60e51b815260206004820152601c60248201527f436c61696d496e666f206861736820646f65736e2774206d61746368000000006044820152606401610368565b80610c155760405162461bcd60e51b8152602060048201526016602482015275436c61696d496e666f2068617368206973207a65726f60501b6044820152606401610368565b6000610c208361156b565b90508481511015610c845760405162461bcd60e51b815260206004820152602860248201527f4665776572207369676e617475726573207468616e20726571756972656420746044820152671a1c995cda1bdb1960c21b6064820152608401610368565b6000805b8251811015610ce257610cbd838281518110610ca657610ca6613044565b60200260200101518961164490919063ffffffff16565b15610cd05781610ccc81613070565b9250505b80610cda81613070565b915050610c88565b5085811015610d3f5760405162461bcd60e51b815260206004820152602360248201527f4e6f7420656e6f7567682076616c6964207769746e657373207369676e61747560448201526272657360e81b6064820152608401610368565b506001979650505050505050565b610d866040518060c001604052806060815260200160608152602001606081526020016060815260200160608152602001606081525090565b6000610d9485870187613089565b90506000610da2858561165a565b60408051600180825281830190925291925060009190602080830190803683370190505090508181600081518110610ddc57610ddc613044565b60200260200101906001600160a01b031690816001600160a01b031681525050610e0883826001610a1c565b50610e1283611668565b9350610e218460a001516117fe565b610e655760405162461bcd60e51b815260206004820152601560248201527409cde40ecc2d8d2c840e0e4deecd2c8cae490c2e6d605b1b6044820152606401610368565b505050949350505050565b6000670de0b6b3a7640000610e8583886130bd565b610e8f91906130ea565b90506000876001600160a01b031663313ce5676040518163ffffffff1660e01b8152600401602060405180830381865afa158015610ed1573d6000803e3d6000fd5b505050506040513d601f19601f82011682018060405250810190610ef591906130fe565b8951909150600090610f0a9060ff8416611182565b905082811015610f5c5760405162461bcd60e51b815260206004820152601860248201527f496e636f7272656374207061796d656e7420616d6f756e7400000000000000006044820152606401610368565b610fa086868080601f01602080910402602001604051908101604052809392919081815260200183838082843760009201919091525050505060608c015190611829565b610fec5760405162461bcd60e51b815260206004820152601b60248201527f496e636f7272656374207061796d656e7420726563697069656e7400000000006044820152606401610368565b6000600254610ffe8c60200151611882565b6110089190613121565b90508781101561105a5760405162461bcd60e51b815260206004820152601b60248201527f496e636f7272656374207061796d656e742074696d657374616d7000000000006044820152606401610368565b5050505050505050505050565b60015460405163169394bb60e01b8152600481018390526001600160a01b039091169063169394bb90602401602060405180830381865afa1580156110b0573d6000803e3d6000fd5b505050506040513d601f19601f820116820180604052508101906110d49190613134565b156111215760405162461bcd60e51b815260206004820152601f60248201527f4e756c6c69666965722068617320616c7265616479206265656e2075736564006044820152606401610368565b600154604051632dea6f9960e11b8152600481018390526001600160a01b0390911690635bd4df3290602401600060405180830381600087803b15801561116757600080fd5b505af115801561117b573d6000803e3d6000fd5b5050505050565b600061119383601760f91b84611a3e565b90505b92915050565b6000546001600160a01b031633146106c75760405162461bcd60e51b815260206004820181905260248201527f4f776e61626c653a2063616c6c6572206973206e6f7420746865206f776e65726044820152606401610368565b6000806112d384805480602002602001604051908101604052809291908181526020016000905b828210156112c957838290600052602060002001805461123c90612efc565b80601f016020809104026020016040519081016040528092919081815260200182805461126890612efc565b80156112b55780601f1061128a576101008083540402835291602001916112b5565b820191906000526020600020905b81548152906001019060200180831161129857829003601f168201915b50505050508152602001906001019061121d565b5050505084611c1b565b915091508061131b5760405162461bcd60e51b815260206004820152601460248201527329ba3934b733903737ba1034b71030b93930bc9760611b6044820152606401610368565b835460009061132c90600190613156565b905080831461137b5784818154811061134757611347613044565b9060005260206000200185848154811061136357611363613044565b9060005260206000200190816113799190613169565b505b8480548061138b5761138b61323b565b6001900381819060005260206000200160006113a7919061276a565b90555050505050565b600080546001600160a01b038381166001600160a01b0319831681178455604051919092169283917f8be0079c531659141344cd1fd0a4f28419497f9722a3daafe3b4186f6b6457e09190a35050565b60008061145c8480548060200260200160405190810160405280929190818152602001828054801561145157602002820191906000526020600020905b81548152602001906001019080831161143d575b505050505084611c8c565b91509150806114a55760405162461bcd60e51b8152602060048201526015602482015274313cba32b99999103737ba1034b71030b93930bc9760591b6044820152606401610368565b83546000906114b690600190613156565b90508083146114fb578481815481106114d1576114d1613044565b90600052602060002001548584815481106114ee576114ee613044565b6000918252602090912001555b8480548061150b5761150b61323b565b600190038181906000526020600020016000905590555050505050565b60008082600001518360200151846040015160405160200161154c93929190613251565b60408051601f1981840301815291905280516020909101209392505050565b6060600061157c8360000151611cdc565b905060008360200151516001600160401b0381111561159d5761159d612919565b6040519080825280602002602001820160405280156115c6578160200160208202803683370190505b50905060005b84602001515181101561163c5761160083866020015183815181106115f3576115f3613044565b6020026020010151611d68565b82828151811061161257611612613044565b6001600160a01b03909216602092830291909101909101528061163481613070565b9150506115cc565b509392505050565b6000806116518484611db1565b95945050505050565b600061119382840184612b84565b6116a16040518060c001604052806060815260200160608152602001606081526020016060815260200160608152602001606081525090565b8151604090810151905163097cda9f60e31b815260009173__$5399d34e4905f321d0c79216424f87eb2e$__91634be6d4f8916116e6916007906001906004016132ac565b600060405180830381865af4158015611703573d6000803e3d6000fd5b505050506040513d6000823e601f3d908101601f1916820160405261172b91908101906132d9565b90506040518060c001604052808260018151811061174b5761174b613044565b602002602001015181526020018260028151811061176b5761176b613044565b602002602001015181526020018260038151811061178b5761178b613044565b60200260200101518152602001826004815181106117ab576117ab613044565b60200260200101518152602001826005815181106117cb576117cb613044565b60200260200101518152602001826006815181106117eb576117eb613044565b6020026020010151815250915050919050565b60006005826040516118109190612ee0565b9081526040519081900360200190205460ff1692915050565b60008160405160200161183c9190612ee0565b60405160208183030381529060405280519060200120836040516020016118639190612ee0565b6040516020818303038152906040528051906020012014905092915050565b600061188c6127a4565b60008060005b8551811015611975578581815181106118ad576118ad613044565b6020910101516001600160f81b031916602d60f81b14806118f257508581815181106118db576118db613044565b6020910101516001600160f81b031916601d60f91b145b80611921575085818151811061190a5761190a613044565b6020910101516001600160f81b031916601560fa1b145b1561196357611931868383611e13565b84846006811061194357611943613044565b6020020152611953816001613121565b91508261195f81613070565b9350505b8061196d81613070565b915050611892565b5084516119859086908390611e13565b83836006811061199757611997613044565b6020020152600582146119e25760405162461bcd60e51b8152602060048201526013602482015272496e76616c6964206461746520737472696e6760681b6044820152606401610368565b6116516119f8600085815b602002015190611182565b611a0560008660016119ed565b611a1260008760026119ed565b611a1f60008860036119ed565b611a2c60008960046119ed565b611a3960008a60056119ed565b611edf565b600083818080805b8451811015611b9457603060f81b858281518110611a6657611a66613044565b01602001516001600160f81b03191610801590611aa75750603960f81b858281518110611a9557611a95613044565b01602001516001600160f81b03191611155b15611aea576030858281518110611ac057611ac0613044565b0160200151611ad2919060f81c613156565b611add85600a6130bd565b611ae79190613121565b93505b8115611afe5782611afa81613070565b9350505b876001600160f81b031916858281518110611b1b57611b1b613044565b01602001516001600160f81b03191603611b82578115611b7d5760405162461bcd60e51b815260206004820152601c60248201527f537472696e6720686173206d756c7469706c6520646563696d616c73000000006044820152606401610368565b600191505b80611b8c81613070565b915050611a46565b5085821115611bf05760405162461bcd60e51b815260206004820152602260248201527f537472696e672068617320746f6f206d616e7920646563696d616c20706c6163604482015261657360f01b6064820152608401610368565b611bfa8287613156565b611c0590600a6134a9565b611c0f90846130bd565b98975050505050505050565b81516000908190815b81811015611c79578480519060200120868281518110611c4657611c46613044565b60200260200101518051906020012003611c6757925060019150611c859050565b80611c7181613070565b915050611c24565b50600019600092509250505b9250929050565b81516000908190815b81811015611c795784868281518110611cb057611cb0613044565b602002602001015103611cca57925060019150611c859050565b80611cd481613070565b915050611c95565b6060611d0c8260000151604051602001611cf891815260200190565b604051602081830303815290604052611f3b565b611d1983602001516120fe565b611d2c846040015163ffffffff16612267565b611d3f856060015163ffffffff16612267565b604051602001611d5294939291906134b5565b6040516020818303038152906040529050919050565b600080611d758451612267565b84604051602001611d8792919061352e565b604051602081830303815290604052805190602001209050611da98184612392565b949350505050565b81516000908190815b81811015611c7957846001600160a01b0316868281518110611dde57611dde613044565b60200260200101516001600160a01b031603611e0157925060019150611c859050565b80611e0b81613070565b915050611dba565b6060836000611e228585613156565b6001600160401b03811115611e3957611e39612919565b6040519080825280601f01601f191660200182016040528015611e63576020820181803683370190505b509050845b84811015611ed557828181518110611e8257611e82613044565b01602001516001600160f81b03191682611e9c8884613156565b81518110611eac57611eac613044565b60200101906001600160f81b031916908160001a90535080611ecd81613070565b915050611e68565b5095945050505050565b600081611eed603c856130bd565b611ef9610e10876130bd565b62015180611f088b8b8b6123ae565b611f1291906130bd565b611f1c9190613121565b611f269190613121565b611f309190613121565b979650505050505050565b6060600082516002611f4d91906130bd565b6001600160401b03811115611f6457611f64612919565b6040519080825280601f01601f191660200182016040528015611f8e576020820181803683370190505b5060408051808201909152601081526f181899199a1a9b1b9c1cb0b131b232b360811b602082015290915060005b84518110156120d457818251868381518110611fda57611fda613044565b0160200151611fec919060f81c6130ea565b81518110611ffc57611ffc613044565b01602001516001600160f81b031916836120178360026130bd565b8151811061202757612027613044565b60200101906001600160f81b031916908160001a90535081825186838151811061205357612053613044565b0160200151612065919060f81c613589565b8151811061207557612075613044565b01602001516001600160f81b031916836120908360026130bd565b61209b906001613121565b815181106120ab576120ab613044565b60200101906001600160f81b031916908160001a905350806120cc81613070565b915050611fbc565b50816040516020016120e6919061359d565b60405160208183030381529060405292505050919050565b60408051602880825260608281019093526000919060208201818036833701905050905060005b601481101561223e57600061213b826013613156565b6121469060086130bd565b6121519060026134a9565b612164906001600160a01b0387166130ea565b60f81b9050600060108260f81c61217b91906135c7565b60f81b905060008160f81c601061219291906135e9565b8360f81c6121a0919061360c565b60f81b90506121ae826124df565b856121ba8660026130bd565b815181106121ca576121ca613044565b60200101906001600160f81b031916908160001a9053506121ea816124df565b856121f68660026130bd565b612201906001613121565b8151811061221157612211613044565b60200101906001600160f81b031916908160001a905350505050808061223690613070565b915050612125565b5080604051602001612250919061359d565b604051602081830303815290604052915050919050565b60608160000361228e5750506040805180820190915260018152600360fc1b602082015290565b8160005b81156122b857806122a281613070565b91506122b19050600a836130ea565b9150612292565b6000816001600160401b038111156122d2576122d2612919565b6040519080825280601f01601f1916602001820160405280156122fc576020820181803683370190505b509050815b851561238957612312600182613156565b90506000612321600a886130ea565b61232c90600a6130bd565b6123369088613156565b612341906030613625565b905060008160f81b90508084848151811061235e5761235e613044565b60200101906001600160f81b031916908160001a905350612380600a896130ea565b97505050612301565b50949350505050565b60008060006123a1858561251a565b9150915061163c8161255c565b60006107b28410156123bf57600080fd5b838383600062253d8c60046064600c6123d9600e8861363e565b6123e3919061365e565b6123ef8861132461368c565b6123f9919061368c565b612403919061365e565b61240e9060036136b4565b612418919061365e565b600c80612426600e8861363e565b612430919061365e565b61243b90600c6136b4565b61244660028861363e565b612450919061363e565b61245c9061016f6136b4565b612466919061365e565b6004600c612475600e8961363e565b61247f919061365e565b61248b896112c061368c565b612495919061368c565b6124a1906105b56136b4565b6124ab919061365e565b6124b7617d4b8761363e565b6124c1919061368c565b6124cb919061368c565b6124d5919061363e565b611c0f919061363e565b6000600a60f883901c1015612506576124fd60f883901c6030613625565b60f81b92915050565b6124fd60f883901c6057613625565b919050565b60008082516041036125505760208301516040840151606085015160001a612544878285856126a6565b94509450505050611c85565b50600090506002611c85565b6000816004811115612570576125706136e4565b036125785750565b600181600481111561258c5761258c6136e4565b036125d95760405162461bcd60e51b815260206004820152601860248201527f45434453413a20696e76616c6964207369676e617475726500000000000000006044820152606401610368565b60028160048111156125ed576125ed6136e4565b0361263a5760405162461bcd60e51b815260206004820152601f60248201527f45434453413a20696e76616c6964207369676e6174757265206c656e677468006044820152606401610368565b600381600481111561264e5761264e6136e4565b03610a195760405162461bcd60e51b815260206004820152602260248201527f45434453413a20696e76616c6964207369676e6174757265202773272076616c604482015261756560f01b6064820152608401610368565b6000807f7fffffffffffffffffffffffffffffff5d576e7357a4501ddfe92f46681b20a08311156126dd5750600090506003612761565b6040805160008082526020820180845289905260ff881692820192909252606081018690526080810185905260019060a0016020604051602081039080840390855afa158015612731573d6000803e3d6000fd5b5050604051601f1901519150506001600160a01b03811661275a57600060019250925050612761565b9150600090505b94509492505050565b50805461277690612efc565b6000825580601f10612786575050565b601f016020900490600052602060002090810190610a1991906127cb565b6040518060c001604052806006905b60608152602001906001900390816127b35790505090565b5b808211156127e057600081556001016127cc565b5090565b60008083601f8401126127f657600080fd5b5081356001600160401b0381111561280d57600080fd5b602083019150836020828501011115611c8557600080fd5b6001600160a01b0381168114610a1957600080fd5b803561251581612825565b60008060008060008060008060008060006101008c8e03121561286757600080fd5b6001600160401b03808d35111561287d57600080fd5b61288a8e8e358f016127e4565b909c509a5061289b60208e0161283a565b995060408d0135985060608d013597508060808e013511156128bc57600080fd5b6128cc8e60808f01358f016127e4565b909750955060a08d0135945060c08d0135935060e08d01358110156128f057600080fd5b506129018d60e08e01358e016127e4565b81935080925050509295989b509295989b9093969950565b634e487b7160e01b600052604160045260246000fd5b604080519081016001600160401b038111828210171561295157612951612919565b60405290565b604051606081016001600160401b038111828210171561295157612951612919565b604051601f8201601f191681016001600160401b03811182821017156129a1576129a1612919565b604052919050565b60006001600160401b038211156129c2576129c2612919565b50601f01601f191660200190565b60006129e36129de846129a9565b612979565b90508281528383830111156129f757600080fd5b828260208301376000602084830101529392505050565b600082601f830112612a1f57600080fd5b611193838335602085016129d0565b600060208284031215612a4057600080fd5b81356001600160401b03811115612a5657600080fd5b611da984828501612a0e565b600060208284031215612a7457600080fd5b5035919050565b60005b83811015612a96578181015183820152602001612a7e565b50506000910152565b60008151808452612ab7816020860160208601612a7b565b601f01601f19169290920160200192915050565b6020815260006111936020830184612a9f565b6020808252825182820181905260009190848201906040850190845b81811015612b1657835183529284019291840191600101612afa565b50909695505050505050565b6000602080830181845280855180835260408601915060408160051b870101925083870160005b82811015612b7757603f19888603018452612b65858351612a9f565b94509285019290850190600101612b49565b5092979650505050505050565b600060208284031215612b9657600080fd5b8135612ba181612825565b9392505050565b803563ffffffff8116811461251557600080fd5b60006001600160401b03821115612bd557612bd5612919565b5060051b60200190565b600082601f830112612bf057600080fd5b81356020612c006129de83612bbc565b82815260059290921b84018101918181019086841115612c1f57600080fd5b8286015b84811015612c735780356001600160401b03811115612c425760008081fd5b8701603f81018913612c545760008081fd5b612c658986830135604084016129d0565b845250918301918301612c23565b509695505050505050565b600081830360a0811215612c9157600080fd5b612c9961292f565b91506080811215612ca957600080fd5b50604051608081016001600160401b038282108183111715612ccd57612ccd612919565b816040528435835260208501359150612ce582612825565b816020840152612cf760408601612ba8565b6040840152612d0860608601612ba8565b606084015291835260808401359180831115612d2357600080fd5b5050612d3184828501612bdf565b60208301525092915050565b600060408284031215612d4f57600080fd5b612d5761292f565b905081356001600160401b0380821115612d7057600080fd5b9083019060608286031215612d8457600080fd5b612d8c612957565b823582811115612d9b57600080fd5b612da787828601612a0e565b825250602083013582811115612dbc57600080fd5b612dc887828601612a0e565b602083015250604083013582811115612de057600080fd5b612dec87828601612a0e565b60408301525083526020840135915080821115612e0857600080fd5b50612d3184828501612c7e565b600080600060608486031215612e2a57600080fd5b83356001600160401b0380821115612e4157600080fd5b612e4d87838801612d3d565b9450602091508186013581811115612e6457600080fd5b86019050601f81018713612e7757600080fd5b8035612e856129de82612bbc565b81815260059190911b82018301908381019089831115612ea457600080fd5b928401925b82841015612ecb578335612ebc81612825565b82529284019290840190612ea9565b96999698505050506040949094013593505050565b60008251612ef2818460208701612a7b565b9190910192915050565b600181811c90821680612f1057607f821691505b602082108103612f3057634e487b7160e01b600052602260045260246000fd5b50919050565b601f821115612f8057600081815260208120601f850160051c81016020861015612f5d5750805b601f850160051c820191505b81811015612f7c57828155600101612f69565b5050505b505050565b81516001600160401b03811115612f9e57612f9e612919565b612fb281612fac8454612efc565b84612f36565b602080601f831160018114612fe75760008415612fcf5750858301515b600019600386901b1c1916600185901b178555612f7c565b600085815260208120601f198616915b8281101561301657888601518255948401946001909101908401612ff7565b50858210156130345787850151600019600388901b60f8161c191681555b5050505050600190811b01905550565b634e487b7160e01b600052603260045260246000fd5b634e487b7160e01b600052601160045260246000fd5b6000600182016130825761308261305a565b5060010190565b60006020828403121561309b57600080fd5b81356001600160401b038111156130b157600080fd5b611da984828501612d3d565b80820281158282048414176111965761119661305a565b634e487b7160e01b600052601260045260246000fd5b6000826130f9576130f96130d4565b500490565b60006020828403121561311057600080fd5b815160ff81168114612ba157600080fd5b808201808211156111965761119661305a565b60006020828403121561314657600080fd5b81518015158114612ba157600080fd5b818103818111156111965761119661305a565b818103613174575050565b61317e8254612efc565b6001600160401b0381111561319557613195612919565b6131a381612fac8454612efc565b6000601f8211600181146131d757600083156131bf5750848201545b600019600385901b1c1916600184901b17845561117b565b600085815260209020601f19841690600086815260209020845b8381101561321157828601548255600195860195909101906020016131f1565b50858310156130345793015460001960f8600387901b161c19169092555050600190811b01905550565b634e487b7160e01b600052603160045260246000fd5b60008451613263818460208901612a7b565b600560f91b9083018181528551909190613284816001850160208a01612a7b565b6001920191820152835161329f816002840160208801612a7b565b0160020195945050505050565b6060815260006132bf6060830186612a9f565b60ff94909416602083015250901515604090910152919050565b600060208083850312156132ec57600080fd5b82516001600160401b038082111561330357600080fd5b818501915085601f83011261331757600080fd5b81516133256129de82612bbc565b81815260059190911b8301840190848101908883111561334457600080fd5b8585015b838110156133b8578051858111156133605760008081fd5b8601603f81018b136133725760008081fd5b8781015160406133846129de836129a9565b8281528d828486010111156133995760008081fd5b6133a8838c8301848701612a7b565b8652505050918601918601613348565b5098975050505050505050565b600181815b808511156134005781600019048211156133e6576133e661305a565b808516156133f357918102915b93841c93908002906133ca565b509250929050565b60008261341757506001611196565b8161342457506000611196565b816001811461343a576002811461344457613460565b6001915050611196565b60ff8411156134555761345561305a565b50506001821b611196565b5060208310610133831016604e8410600b8410161715613483575081810a611196565b61348d83836133c5565b80600019048211156134a1576134a161305a565b029392505050565b60006111938383613408565b600085516134c7818460208a01612a7b565b600560f91b90830181815286519091906134e8816001850160208b01612a7b565b600192019182018190528551613505816002850160208a01612a7b565b60029201918201528351613520816003840160208801612a7b565b016003019695505050505050565b7f19457468657265756d205369676e6564204d6573736167653a0a00000000000081526000835161356681601a850160208801612a7b565b83519083019061357d81601a840160208801612a7b565b01601a01949350505050565b600082613598576135986130d4565b500690565b61060f60f31b8152600082516135ba816002850160208701612a7b565b9190910160020192915050565b600060ff8316806135da576135da6130d4565b8060ff84160491505092915050565b60ff81811683821602908116908181146136055761360561305a565b5092915050565b60ff82811682821603908111156111965761119661305a565b60ff81811683821601908111156111965761119661305a565b81810360008312801583831316838312821617156136055761360561305a565b60008261366d5761366d6130d4565b600160ff1b8214600019841416156136875761368761305a565b500590565b80820182811260008312801582168215821617156136ac576136ac61305a565b505092915050565b80820260008212600160ff1b841416156136d0576136d061305a565b81810583148215176111965761119661305a565b634e487b7160e01b600052602160045260246000fdfea264697066735822122074c4f0ee26df87caefca3da79d235e75cbd2b8d1d09f8960798e5e5aafec87ee64736f6c63430008120033",
  "libraries": {
    "ClaimVerifier": "0x7884818B6f9022A868623CbAAD4b80027EB361EE"
  },
  "devdoc": {
    "kind": "dev",
    "methods": {
      "addCurrency(bytes32)": {
        "params": {
          "_currencyCode": "Currency code to add"
        }
      },
      "addProviderHash(string)": {
        "params": {
          "_newProviderHash": "New provider hash to be added"
        }
      },
      "owner()": {
        "details": "Returns the address of the current owner."
      },
      "removeCurrency(bytes32)": {
        "params": {
          "_currencyCode": "Currency code to remove"
        }
      },
      "removeProviderHash(string)": {
        "params": {
          "_removeProviderHash": "Provider hash to be removed"
        }
      },
      "renounceOwnership()": {
        "details": "Leaves the contract without owner. It will not be possible to call `onlyOwner` functions. Can only be called by the current owner. NOTE: Renouncing ownership will leave the contract without an owner, thereby disabling any functionality that is only available to the owner."
      },
      "setTimestampBuffer(uint256)": {
        "params": {
          "_timestampBuffer": "The timestamp buffer for payments"
        }
      },
      "transferOwnership(address)": {
        "details": "Transfers ownership of the contract to a new account (`newOwner`). Can only be called by the current owner."
      },
      "verifyPayment(bytes,address,uint256,uint256,string,bytes32,uint256,bytes)": {
        "params": {
          "_conversionRate": "The conversion rate for the deposit token to offchain USD",
          "_depositData": "Additional data required for proof verification. In this case, the attester's address.",
          "_depositToken": "The deposit token locked in escrow",
          "_intentAmount": "Amount of deposit.token that the offchain payer wants to unlock from escrow",
          "_intentTimestamp": "The timestamp at which intent was created. Offchain payment must be made after this time.",
          "_payeeDetails": "The payee details (hash of the payee's Venmo ID or just raw Venmo ID; compared to recipientId in proof)",
          "_proof": "Proof to be verified"
        }
      },
      "verifyProofSignatures(((string,string,string),((bytes32,address,uint32,uint32),bytes[])),address[],uint256)": {
        "params": {
          "_requiredThreshold": "Minimum number of signatures required from accepted witnesses",
          "_witnesses": "List of accepted witnesses",
          "proof": "Proof to be verified"
        }
      }
    },
    "version": 1
  },
  "userdoc": {
    "kind": "user",
    "methods": {
      "addCurrency(bytes32)": {
        "notice": "OWNER ONLY: Adds a currency code to supported currencies"
      },
      "addProviderHash(string)": {
        "notice": "ONLY OWNER: Add provider hash string. Provider hash must not have been previously added."
      },
      "removeCurrency(bytes32)": {
        "notice": "OWNER ONLY: Removes a currency code from supported currencies"
      },
      "removeProviderHash(string)": {
        "notice": "ONLY OWNER: Remove provider hash string. Provider hash must have been previously added."
      },
      "setTimestampBuffer(uint256)": {
        "notice": "OWNER ONLY: Sets the timestamp buffer for payments. This is the amount of time in seconds that the timestamp can be off by and still be considered valid. Necessary to build in flexibility  with L2 timestamps."
      },
      "verifyPayment(bytes,address,uint256,uint256,string,bytes32,uint256,bytes)": {
        "notice": "ONLY RAMP: Verifies a reclaim proof of an offchain Venmo payment. Ensures the right _intentAmount * _conversionRate USD was paid to _payeeDetails after _intentTimestamp + timestampBuffer on Venmo. Note: For Venmo fiat currency is always USD. For other verifiers which support multiple currencies, _fiatCurrency needs to be checked against the fiat currency in the proof."
      },
      "verifyProofSignatures(((string,string,string),((bytes32,address,uint32,uint32),bytes[])),address[],uint256)": {
        "notice": "Verify proof generated by witnesses. Claim is constructed by hashing claimInfo (provider, context, parameters) to get the identifier. And then signing on (identifier, owner, timestamp, epoch) to get claim signature.  This function verifies a claim by performing the following checks on the claim - Calculates the hash of the claimInfo and checks if it matches the identifier in the claim - Checks if the signatures are valid and from the witnesses This function reverts if - No signatures are found on the proof - ClaimInfo hash does not match the identifier in the claim - Signatures are invalid (not from the witnesses)  DEV NOTE: This function does NOT validate that the claim provider hash is valid. That is the  responsibility of the caller. Ensure witnesses are unique otherwise the threshold can be met  with duplicate witnesses.  Parts of the code are adapted from: https://basescan.org/address/0x7281630e4346dd4c0b7ae3b4689c1d0102741410#code    "
      }
    },
    "version": 1
  },
  "storageLayout": {
    "storage": [
      {
        "astId": 7,
        "contract": "contracts/verifiers/VenmoReclaimVerifier.sol:VenmoReclaimVerifier",
        "label": "_owner",
        "offset": 0,
        "slot": "0",
        "type": "t_address"
      },
      {
        "astId": 9179,
        "contract": "contracts/verifiers/VenmoReclaimVerifier.sol:VenmoReclaimVerifier",
        "label": "nullifierRegistry",
        "offset": 0,
        "slot": "1",
        "type": "t_contract(INullifierRegistry)11147"
      },
      {
        "astId": 9181,
        "contract": "contracts/verifiers/VenmoReclaimVerifier.sol:VenmoReclaimVerifier",
        "label": "timestampBuffer",
        "offset": 0,
        "slot": "2",
        "type": "t_uint256"
      },
      {
        "astId": 9184,
        "contract": "contracts/verifiers/VenmoReclaimVerifier.sol:VenmoReclaimVerifier",
        "label": "currencies",
        "offset": 0,
        "slot": "3",
        "type": "t_array(t_bytes32)dyn_storage"
      },
      {
        "astId": 9188,
        "contract": "contracts/verifiers/VenmoReclaimVerifier.sol:VenmoReclaimVerifier",
        "label": "isCurrency",
        "offset": 0,
        "slot": "4",
        "type": "t_mapping(t_bytes32,t_bool)"
      },
      {
        "astId": 9385,
        "contract": "contracts/verifiers/VenmoReclaimVerifier.sol:VenmoReclaimVerifier",
        "label": "isProviderHash",
        "offset": 0,
        "slot": "5",
        "type": "t_mapping(t_string_memory_ptr,t_bool)"
      },
      {
        "astId": 9388,
        "contract": "contracts/verifiers/VenmoReclaimVerifier.sol:VenmoReclaimVerifier",
        "label": "providerHashes",
        "offset": 0,
        "slot": "6",
        "type": "t_array(t_string_storage)dyn_storage"
      }
    ],
    "types": {
      "t_address": {
        "encoding": "inplace",
        "label": "address",
        "numberOfBytes": "20"
      },
      "t_array(t_bytes32)dyn_storage": {
        "base": "t_bytes32",
        "encoding": "dynamic_array",
        "label": "bytes32[]",
        "numberOfBytes": "32"
      },
      "t_array(t_string_storage)dyn_storage": {
        "base": "t_string_storage",
        "encoding": "dynamic_array",
        "label": "string[]",
        "numberOfBytes": "32"
      },
      "t_bool": {
        "encoding": "inplace",
        "label": "bool",
        "numberOfBytes": "1"
      },
      "t_bytes32": {
        "encoding": "inplace",
        "label": "bytes32",
        "numberOfBytes": "32"
      },
      "t_contract(INullifierRegistry)11147": {
        "encoding": "inplace",
        "label": "contract INullifierRegistry",
        "numberOfBytes": "20"
      },
      "t_mapping(t_bytes32,t_bool)": {
        "encoding": "mapping",
        "key": "t_bytes32",
        "label": "mapping(bytes32 => bool)",
        "numberOfBytes": "32",
        "value": "t_bool"
      },
      "t_mapping(t_string_memory_ptr,t_bool)": {
        "encoding": "mapping",
        "key": "t_string_memory_ptr",
        "label": "mapping(string => bool)",
        "numberOfBytes": "32",
        "value": "t_bool"
      },
      "t_string_memory_ptr": {
        "encoding": "bytes",
        "label": "string",
        "numberOfBytes": "32"
      },
      "t_string_storage": {
        "encoding": "bytes",
        "label": "string",
        "numberOfBytes": "32"
      },
      "t_uint256": {
        "encoding": "inplace",
        "label": "uint256",
        "numberOfBytes": "32"
      }
    }
  }
}