{
  "address": "0xf906F893326a1A98e62cAB45C980b2afE0e2A8a0",
  "abi": [
    {
      "inputs": [
        {
          "internalType": "address",
          "name": "_owner",
          "type": "address"
        },
        {
          "internalType": "uint256",
          "name": "_chainId",
          "type": "uint256"
        },
        {
          "internalType": "address",
          "name": "_paymentVerifierRegistry",
          "type": "address"
        },
        {
          "internalType": "uint256",
          "name": "_makerProtocolFee",
          "type": "uint256"
        },
        {
          "internalType": "address",
          "name": "_makerFeeRecipient",
          "type": "address"
        },
        {
          "internalType": "uint256",
          "name": "_dustThreshold",
          "type": "uint256"
        },
        {
          "internalType": "uint256",
          "name": "_maxIntentsPerDeposit",
          "type": "uint256"
        },
        {
          "internalType": "uint256",
          "name": "_intentExpirationPeriod",
          "type": "uint256"
        }
      ],
      "stateMutability": "nonpayable",
      "type": "constructor"
    },
    {
      "inputs": [
        {
          "internalType": "uint256",
          "name": "amount",
          "type": "uint256"
        },
        {
          "internalType": "uint256",
          "name": "max",
          "type": "uint256"
        }
      ],
      "name": "AmountAboveMax",
      "type": "error"
    },
    {
      "inputs": [
        {
          "internalType": "uint256",
          "name": "amount",
          "type": "uint256"
        },
        {
          "internalType": "uint256",
          "name": "min",
          "type": "uint256"
        }
      ],
      "name": "AmountBelowMin",
      "type": "error"
    },
    {
      "inputs": [
        {
          "internalType": "uint256",
          "name": "requested",
          "type": "uint256"
        },
        {
          "internalType": "uint256",
          "name": "available",
          "type": "uint256"
        }
      ],
      "name": "AmountExceedsAvailable",
      "type": "error"
    },
    {
      "inputs": [
        {
          "internalType": "uint256",
          "name": "length1",
          "type": "uint256"
        },
        {
          "internalType": "uint256",
          "name": "length2",
          "type": "uint256"
        }
      ],
      "name": "ArrayLengthMismatch",
      "type": "error"
    },
    {
      "inputs": [
        {
          "internalType": "address",
          "name": "verifier",
          "type": "address"
        },
        {
          "internalType": "bytes32",
          "name": "currency",
          "type": "bytes32"
        }
      ],
      "name": "CurrencyAlreadyExists",
      "type": "error"
    },
    {
      "inputs": [
        {
          "internalType": "address",
          "name": "verifier",
          "type": "address"
        },
        {
          "internalType": "bytes32",
          "name": "currency",
          "type": "bytes32"
        }
      ],
      "name": "CurrencyNotFound",
      "type": "error"
    },
    {
      "inputs": [
        {
          "internalType": "address",
          "name": "verifier",
          "type": "address"
        },
        {
          "internalType": "bytes32",
          "name": "currency",
          "type": "bytes32"
        }
      ],
      "name": "CurrencyNotSupported",
      "type": "error"
    },
    {
      "inputs": [
        {
          "internalType": "uint256",
          "name": "depositId",
          "type": "uint256"
        }
      ],
      "name": "DelegateNotFound",
      "type": "error"
    },
    {
      "inputs": [
        {
          "internalType": "uint256",
          "name": "depositId",
          "type": "uint256"
        },
        {
          "internalType": "bool",
          "name": "currentState",
          "type": "bool"
        }
      ],
      "name": "DepositAlreadyInState",
      "type": "error"
    },
    {
      "inputs": [
        {
          "internalType": "uint256",
          "name": "depositId",
          "type": "uint256"
        }
      ],
      "name": "DepositNotAcceptingIntents",
      "type": "error"
    },
    {
      "inputs": [
        {
          "internalType": "uint256",
          "name": "depositId",
          "type": "uint256"
        }
      ],
      "name": "DepositNotFound",
      "type": "error"
    },
    {
      "inputs": [],
      "name": "EmptyPayeeDetails",
      "type": "error"
    },
    {
      "inputs": [
        {
          "internalType": "uint256",
          "name": "fee",
          "type": "uint256"
        },
        {
          "internalType": "uint256",
          "name": "maximum",
          "type": "uint256"
        }
      ],
      "name": "FeeExceedsMaximum",
      "type": "error"
    },
    {
      "inputs": [
        {
          "internalType": "uint256",
          "name": "depositId",
          "type": "uint256"
        },
        {
          "internalType": "uint256",
          "name": "available",
          "type": "uint256"
        },
        {
          "internalType": "uint256",
          "name": "required",
          "type": "uint256"
        }
      ],
      "name": "InsufficientDepositLiquidity",
      "type": "error"
    },
    {
      "inputs": [
        {
          "internalType": "bytes32",
          "name": "intentHash",
          "type": "bytes32"
        }
      ],
      "name": "IntentNotFound",
      "type": "error"
    },
    {
      "inputs": [
        {
          "internalType": "uint256",
          "name": "min",
          "type": "uint256"
        },
        {
          "internalType": "uint256",
          "name": "max",
          "type": "uint256"
        }
      ],
      "name": "InvalidRange",
      "type": "error"
    },
    {
      "inputs": [],
      "name": "InvalidReferrerFeeConfiguration",
      "type": "error"
    },
    {
      "inputs": [
        {
          "internalType": "uint256",
          "name": "depositId",
          "type": "uint256"
        },
        {
          "internalType": "uint256",
          "name": "current",
          "type": "uint256"
        },
        {
          "internalType": "uint256",
          "name": "max",
          "type": "uint256"
        }
      ],
      "name": "MaxIntentsExceeded",
      "type": "error"
    },
    {
      "inputs": [
        {
          "internalType": "address",
          "name": "caller",
          "type": "address"
        },
        {
          "internalType": "address",
          "name": "authorized",
          "type": "address"
        }
      ],
      "name": "UnauthorizedCaller",
      "type": "error"
    },
    {
      "inputs": [
        {
          "internalType": "address",
          "name": "caller",
          "type": "address"
        },
        {
          "internalType": "address",
          "name": "owner",
          "type": "address"
        },
        {
          "internalType": "address",
          "name": "delegate",
          "type": "address"
        }
      ],
      "name": "UnauthorizedCallerOrDelegate",
      "type": "error"
    },
    {
      "inputs": [
        {
          "internalType": "uint256",
          "name": "depositId",
          "type": "uint256"
        },
        {
          "internalType": "address",
          "name": "verifier",
          "type": "address"
        }
      ],
      "name": "VerifierAlreadyExists",
      "type": "error"
    },
    {
      "inputs": [
        {
          "internalType": "uint256",
          "name": "depositId",
          "type": "uint256"
        },
        {
          "internalType": "address",
          "name": "verifier",
          "type": "address"
        }
      ],
      "name": "VerifierNotFound",
      "type": "error"
    },
    {
      "inputs": [
        {
          "internalType": "address",
          "name": "verifier",
          "type": "address"
        }
      ],
      "name": "VerifierNotWhitelisted",
      "type": "error"
    },
    {
      "inputs": [],
      "name": "ZeroAddress",
      "type": "error"
    },
    {
      "inputs": [],
      "name": "ZeroConversionRate",
      "type": "error"
    },
    {
      "inputs": [],
      "name": "ZeroMinValue",
      "type": "error"
    },
    {
      "inputs": [],
      "name": "ZeroValue",
      "type": "error"
    },
    {
      "anonymous": false,
      "inputs": [
        {
          "indexed": true,
          "internalType": "uint256",
          "name": "depositId",
          "type": "uint256"
        },
        {
          "indexed": false,
          "internalType": "bool",
          "name": "acceptingIntents",
          "type": "bool"
        }
      ],
      "name": "DepositAcceptingIntentsUpdated",
      "type": "event"
    },
    {
      "anonymous": false,
      "inputs": [
        {
          "indexed": false,
          "internalType": "uint256",
          "name": "depositId",
          "type": "uint256"
        },
        {
          "indexed": false,
          "internalType": "address",
          "name": "depositor",
          "type": "address"
        }
      ],
      "name": "DepositClosed",
      "type": "event"
    },
    {
      "anonymous": false,
      "inputs": [
        {
          "indexed": true,
          "internalType": "uint256",
          "name": "depositId",
          "type": "uint256"
        },
        {
          "indexed": true,
          "internalType": "address",
          "name": "verifier",
          "type": "address"
        },
        {
          "indexed": true,
          "internalType": "bytes32",
          "name": "currency",
          "type": "bytes32"
        },
        {
          "indexed": false,
          "internalType": "uint256",
          "name": "conversionRate",
          "type": "uint256"
        }
      ],
      "name": "DepositCurrencyAdded",
      "type": "event"
    },
    {
      "anonymous": false,
      "inputs": [
        {
          "indexed": true,
          "internalType": "uint256",
          "name": "depositId",
          "type": "uint256"
        },
        {
          "indexed": true,
          "internalType": "address",
          "name": "verifier",
          "type": "address"
        },
        {
          "indexed": true,
          "internalType": "bytes32",
          "name": "currencyCode",
          "type": "bytes32"
        }
      ],
      "name": "DepositCurrencyRemoved",
      "type": "event"
    },
    {
      "anonymous": false,
      "inputs": [
        {
          "indexed": true,
          "internalType": "uint256",
          "name": "depositId",
          "type": "uint256"
        },
        {
          "indexed": true,
          "internalType": "address",
          "name": "depositor",
          "type": "address"
        }
      ],
      "name": "DepositDelegateRemoved",
      "type": "event"
    },
    {
      "anonymous": false,
      "inputs": [
        {
          "indexed": true,
          "internalType": "uint256",
          "name": "depositId",
          "type": "uint256"
        },
        {
          "indexed": true,
          "internalType": "address",
          "name": "depositor",
          "type": "address"
        },
        {
          "indexed": true,
          "internalType": "address",
          "name": "delegate",
          "type": "address"
        }
      ],
      "name": "DepositDelegateSet",
      "type": "event"
    },
    {
      "anonymous": false,
      "inputs": [
        {
          "indexed": true,
          "internalType": "uint256",
          "name": "depositId",
          "type": "uint256"
        },
        {
          "indexed": true,
          "internalType": "address",
          "name": "depositor",
          "type": "address"
        },
        {
          "indexed": false,
          "internalType": "uint256",
          "name": "amount",
          "type": "uint256"
        }
      ],
      "name": "DepositFundsAdded",
      "type": "event"
    },
    {
      "anonymous": false,
      "inputs": [
        {
          "indexed": true,
          "internalType": "uint256",
          "name": "depositId",
          "type": "uint256"
        },
        {
          "components": [
            {
              "internalType": "uint256",
              "name": "min",
              "type": "uint256"
            },
            {
              "internalType": "uint256",
              "name": "max",
              "type": "uint256"
            }
          ],
          "indexed": false,
          "internalType": "struct IEscrow.Range",
          "name": "intentAmountRange",
          "type": "tuple"
        }
      ],
      "name": "DepositIntentAmountRangeUpdated",
      "type": "event"
    },
    {
      "anonymous": false,
      "inputs": [
        {
          "indexed": true,
          "internalType": "uint256",
          "name": "depositId",
          "type": "uint256"
        },
        {
          "indexed": true,
          "internalType": "address",
          "name": "verifier",
          "type": "address"
        },
        {
          "indexed": true,
          "internalType": "bytes32",
          "name": "currency",
          "type": "bytes32"
        },
        {
          "indexed": false,
          "internalType": "uint256",
          "name": "newMinConversionRate",
          "type": "uint256"
        }
      ],
      "name": "DepositMinConversionRateUpdated",
      "type": "event"
    },
    {
      "anonymous": false,
      "inputs": [
        {
          "indexed": true,
          "internalType": "uint256",
          "name": "depositId",
          "type": "uint256"
        },
        {
          "indexed": true,
          "internalType": "address",
          "name": "depositor",
          "type": "address"
        },
        {
          "indexed": true,
          "internalType": "contract IERC20",
          "name": "token",
          "type": "address"
        },
        {
          "indexed": false,
          "internalType": "uint256",
          "name": "amount",
          "type": "uint256"
        },
        {
          "components": [
            {
              "internalType": "uint256",
              "name": "min",
              "type": "uint256"
            },
            {
              "internalType": "uint256",
              "name": "max",
              "type": "uint256"
            }
          ],
          "indexed": false,
          "internalType": "struct IEscrow.Range",
          "name": "intentAmountRange",
          "type": "tuple"
        },
        {
          "indexed": false,
          "internalType": "address",
          "name": "delegate",
          "type": "address"
        },
        {
          "indexed": false,
          "internalType": "address",
          "name": "intentGuardian",
          "type": "address"
        }
      ],
      "name": "DepositReceived",
      "type": "event"
    },
    {
      "anonymous": false,
      "inputs": [
        {
          "indexed": true,
          "internalType": "uint256",
          "name": "depositId",
          "type": "uint256"
        },
        {
          "indexed": true,
          "internalType": "address",
          "name": "verifier",
          "type": "address"
        },
        {
          "indexed": true,
          "internalType": "bytes32",
          "name": "payeeDetailsHash",
          "type": "bytes32"
        },
        {
          "indexed": false,
          "internalType": "address",
          "name": "intentGatingService",
          "type": "address"
        }
      ],
      "name": "DepositVerifierAdded",
      "type": "event"
    },
    {
      "anonymous": false,
      "inputs": [
        {
          "indexed": true,
          "internalType": "uint256",
          "name": "depositId",
          "type": "uint256"
        },
        {
          "indexed": true,
          "internalType": "address",
          "name": "verifier",
          "type": "address"
        }
      ],
      "name": "DepositVerifierRemoved",
      "type": "event"
    },
    {
      "anonymous": false,
      "inputs": [
        {
          "indexed": true,
          "internalType": "uint256",
          "name": "depositId",
          "type": "uint256"
        },
        {
          "indexed": true,
          "internalType": "address",
          "name": "depositor",
          "type": "address"
        },
        {
          "indexed": false,
          "internalType": "uint256",
          "name": "amount",
          "type": "uint256"
        },
        {
          "indexed": false,
          "internalType": "bool",
          "name": "acceptingIntents",
          "type": "bool"
        }
      ],
      "name": "DepositWithdrawn",
      "type": "event"
    },
    {
      "anonymous": false,
      "inputs": [
        {
          "indexed": true,
          "internalType": "uint256",
          "name": "depositId",
          "type": "uint256"
        },
        {
          "indexed": false,
          "internalType": "uint256",
          "name": "dustAmount",
          "type": "uint256"
        },
        {
          "indexed": true,
          "internalType": "address",
          "name": "makerFeeRecipient",
          "type": "address"
        }
      ],
      "name": "DustCollected",
      "type": "event"
    },
    {
      "anonymous": false,
      "inputs": [
        {
          "indexed": false,
          "internalType": "uint256",
          "name": "dustThreshold",
          "type": "uint256"
        }
      ],
      "name": "DustThresholdUpdated",
      "type": "event"
    },
    {
      "anonymous": false,
      "inputs": [
        {
          "indexed": true,
          "internalType": "uint256",
          "name": "depositId",
          "type": "uint256"
        },
        {
          "indexed": true,
          "internalType": "bytes32",
          "name": "intentHash",
          "type": "bytes32"
        },
        {
          "indexed": false,
          "internalType": "uint256",
          "name": "amount",
          "type": "uint256"
        },
        {
          "indexed": false,
          "internalType": "uint256",
          "name": "expiryTime",
          "type": "uint256"
        }
      ],
      "name": "FundsLocked",
      "type": "event"
    },
    {
      "anonymous": false,
      "inputs": [
        {
          "indexed": true,
          "internalType": "uint256",
          "name": "depositId",
          "type": "uint256"
        },
        {
          "indexed": true,
          "internalType": "bytes32",
          "name": "intentHash",
          "type": "bytes32"
        },
        {
          "indexed": false,
          "internalType": "uint256",
          "name": "amount",
          "type": "uint256"
        }
      ],
      "name": "FundsUnlocked",
      "type": "event"
    },
    {
      "anonymous": false,
      "inputs": [
        {
          "indexed": true,
          "internalType": "uint256",
          "name": "depositId",
          "type": "uint256"
        },
        {
          "indexed": true,
          "internalType": "bytes32",
          "name": "intentHash",
          "type": "bytes32"
        },
        {
          "indexed": false,
          "internalType": "uint256",
          "name": "unlockedAmount",
          "type": "uint256"
        },
        {
          "indexed": false,
          "internalType": "uint256",
          "name": "transferredAmount",
          "type": "uint256"
        },
        {
          "indexed": false,
          "internalType": "uint256",
          "name": "makerFees",
          "type": "uint256"
        },
        {
          "indexed": false,
          "internalType": "uint256",
          "name": "referrerFees",
          "type": "uint256"
        },
        {
          "indexed": false,
          "internalType": "address",
          "name": "to",
          "type": "address"
        }
      ],
      "name": "FundsUnlockedAndTransferred",
      "type": "event"
    },
    {
      "anonymous": false,
      "inputs": [
        {
          "indexed": false,
          "internalType": "uint256",
          "name": "intentExpirationPeriod",
          "type": "uint256"
        }
      ],
      "name": "IntentExpirationPeriodUpdated",
      "type": "event"
    },
    {
      "anonymous": false,
      "inputs": [
        {
          "indexed": true,
          "internalType": "uint256",
          "name": "depositId",
          "type": "uint256"
        },
        {
          "indexed": true,
          "internalType": "bytes32",
          "name": "intentHash",
          "type": "bytes32"
        },
        {
          "indexed": false,
          "internalType": "uint256",
          "name": "newExpiryTime",
          "type": "uint256"
        }
      ],
      "name": "IntentExpiryExtended",
      "type": "event"
    },
    {
      "anonymous": false,
      "inputs": [
        {
          "indexed": true,
          "internalType": "address",
          "name": "makerFeeRecipient",
          "type": "address"
        }
      ],
      "name": "MakerFeeRecipientUpdated",
      "type": "event"
    },
    {
      "anonymous": false,
      "inputs": [
        {
          "indexed": true,
          "internalType": "uint256",
          "name": "depositId",
          "type": "uint256"
        },
        {
          "indexed": false,
          "internalType": "uint256",
          "name": "collectedFees",
          "type": "uint256"
        },
        {
          "indexed": true,
          "internalType": "address",
          "name": "makerFeeRecipient",
          "type": "address"
        }
      ],
      "name": "MakerFeesCollected",
      "type": "event"
    },
    {
      "anonymous": false,
      "inputs": [
        {
          "indexed": false,
          "internalType": "uint256",
          "name": "makerProtocolFee",
          "type": "uint256"
        }
      ],
      "name": "MakerProtocolFeeUpdated",
      "type": "event"
    },
    {
      "anonymous": false,
      "inputs": [
        {
          "indexed": false,
          "internalType": "uint256",
          "name": "maxIntentsPerDeposit",
          "type": "uint256"
        }
      ],
      "name": "MaxIntentsPerDepositUpdated",
      "type": "event"
    },
    {
      "anonymous": false,
      "inputs": [
        {
          "indexed": false,
          "internalType": "uint256",
          "name": "minDepositAmount",
          "type": "uint256"
        }
      ],
      "name": "MinDepositAmountSet",
      "type": "event"
    },
    {
      "anonymous": false,
      "inputs": [
        {
          "indexed": true,
          "internalType": "address",
          "name": "orchestrator",
          "type": "address"
        }
      ],
      "name": "OrchestratorUpdated",
      "type": "event"
    },
    {
      "anonymous": false,
      "inputs": [
        {
          "indexed": true,
          "internalType": "address",
          "name": "previousOwner",
          "type": "address"
        },
        {
          "indexed": true,
          "internalType": "address",
          "name": "newOwner",
          "type": "address"
        }
      ],
      "name": "OwnershipTransferred",
      "type": "event"
    },
    {
      "anonymous": false,
      "inputs": [
        {
          "indexed": false,
          "internalType": "address",
          "name": "account",
          "type": "address"
        }
      ],
      "name": "Paused",
      "type": "event"
    },
    {
      "anonymous": false,
      "inputs": [
        {
          "indexed": true,
          "internalType": "address",
          "name": "paymentVerifierRegistry",
          "type": "address"
        }
      ],
      "name": "PaymentVerifierRegistryUpdated",
      "type": "event"
    },
    {
      "anonymous": false,
      "inputs": [
        {
          "indexed": true,
          "internalType": "uint256",
          "name": "depositId",
          "type": "uint256"
        },
        {
          "indexed": false,
          "internalType": "uint256",
          "name": "collectedFees",
          "type": "uint256"
        },
        {
          "indexed": true,
          "internalType": "address",
          "name": "referrer",
          "type": "address"
        }
      ],
      "name": "ReferrerFeesCollected",
      "type": "event"
    },
    {
      "anonymous": false,
      "inputs": [
        {
          "indexed": false,
          "internalType": "address",
          "name": "account",
          "type": "address"
        }
      ],
      "name": "Unpaused",
      "type": "event"
    },
    {
      "inputs": [
        {
          "internalType": "uint256",
          "name": "_depositId",
          "type": "uint256"
        },
        {
          "internalType": "address",
          "name": "_verifier",
          "type": "address"
        },
        {
          "components": [
            {
              "internalType": "bytes32",
              "name": "code",
              "type": "bytes32"
            },
            {
              "internalType": "uint256",
              "name": "minConversionRate",
              "type": "uint256"
            }
          ],
          "internalType": "struct IEscrow.Currency[]",
          "name": "_currencies",
          "type": "tuple[]"
        }
      ],
      "name": "addCurrenciesToDepositVerifier",
      "outputs": [],
      "stateMutability": "nonpayable",
      "type": "function"
    },
    {
      "inputs": [
        {
          "internalType": "uint256",
          "name": "_depositId",
          "type": "uint256"
        },
        {
          "internalType": "uint256",
          "name": "_amount",
          "type": "uint256"
        }
      ],
      "name": "addFundsToDeposit",
      "outputs": [],
      "stateMutability": "nonpayable",
      "type": "function"
    },
    {
      "inputs": [
        {
          "internalType": "uint256",
          "name": "_depositId",
          "type": "uint256"
        },
        {
          "internalType": "address[]",
          "name": "_verifiers",
          "type": "address[]"
        },
        {
          "components": [
            {
              "internalType": "address",
              "name": "intentGatingService",
              "type": "address"
            },
            {
              "internalType": "string",
              "name": "payeeDetails",
              "type": "string"
            },
            {
              "internalType": "bytes",
              "name": "data",
              "type": "bytes"
            }
          ],
          "internalType": "struct IEscrow.DepositVerifierData[]",
          "name": "_verifierData",
          "type": "tuple[]"
        },
        {
          "components": [
            {
              "internalType": "bytes32",
              "name": "code",
              "type": "bytes32"
            },
            {
              "internalType": "uint256",
              "name": "minConversionRate",
              "type": "uint256"
            }
          ],
          "internalType": "struct IEscrow.Currency[][]",
          "name": "_currencies",
          "type": "tuple[][]"
        }
      ],
      "name": "addVerifiersToDeposit",
      "outputs": [],
      "stateMutability": "nonpayable",
      "type": "function"
    },
    {
      "inputs": [],
      "name": "chainId",
      "outputs": [
        {
          "internalType": "uint256",
          "name": "",
          "type": "uint256"
        }
      ],
      "stateMutability": "view",
      "type": "function"
    },
    {
      "inputs": [
        {
          "components": [
            {
              "internalType": "contract IERC20",
              "name": "token",
              "type": "address"
            },
            {
              "internalType": "uint256",
              "name": "amount",
              "type": "uint256"
            },
            {
              "components": [
                {
                  "internalType": "uint256",
                  "name": "min",
                  "type": "uint256"
                },
                {
                  "internalType": "uint256",
                  "name": "max",
                  "type": "uint256"
                }
              ],
              "internalType": "struct IEscrow.Range",
              "name": "intentAmountRange",
              "type": "tuple"
            },
            {
              "internalType": "address[]",
              "name": "verifiers",
              "type": "address[]"
            },
            {
              "components": [
                {
                  "internalType": "address",
                  "name": "intentGatingService",
                  "type": "address"
                },
                {
                  "internalType": "string",
                  "name": "payeeDetails",
                  "type": "string"
                },
                {
                  "internalType": "bytes",
                  "name": "data",
                  "type": "bytes"
                }
              ],
              "internalType": "struct IEscrow.DepositVerifierData[]",
              "name": "verifierData",
              "type": "tuple[]"
            },
            {
              "components": [
                {
                  "internalType": "bytes32",
                  "name": "code",
                  "type": "bytes32"
                },
                {
                  "internalType": "uint256",
                  "name": "minConversionRate",
                  "type": "uint256"
                }
              ],
              "internalType": "struct IEscrow.Currency[][]",
              "name": "currencies",
              "type": "tuple[][]"
            },
            {
              "internalType": "address",
              "name": "delegate",
              "type": "address"
            },
            {
              "internalType": "address",
              "name": "intentGuardian",
              "type": "address"
            },
            {
              "internalType": "address",
              "name": "referrer",
              "type": "address"
            },
            {
              "internalType": "uint256",
              "name": "referrerFee",
              "type": "uint256"
            }
          ],
          "internalType": "struct IEscrow.CreateDepositParams",
          "name": "_params",
          "type": "tuple"
        }
      ],
      "name": "createDeposit",
      "outputs": [],
      "stateMutability": "nonpayable",
      "type": "function"
    },
    {
      "inputs": [],
      "name": "depositCounter",
      "outputs": [
        {
          "internalType": "uint256",
          "name": "",
          "type": "uint256"
        }
      ],
      "stateMutability": "view",
      "type": "function"
    },
    {
      "inputs": [],
      "name": "dustThreshold",
      "outputs": [
        {
          "internalType": "uint256",
          "name": "",
          "type": "uint256"
        }
      ],
      "stateMutability": "view",
      "type": "function"
    },
    {
      "inputs": [
        {
          "internalType": "uint256",
          "name": "_depositId",
          "type": "uint256"
        },
        {
          "internalType": "bytes32",
          "name": "_intentHash",
          "type": "bytes32"
        },
        {
          "internalType": "uint256",
          "name": "_additionalTime",
          "type": "uint256"
        }
      ],
      "name": "extendIntentExpiry",
      "outputs": [],
      "stateMutability": "nonpayable",
      "type": "function"
    },
    {
      "inputs": [
        {
          "internalType": "address",
          "name": "_account",
          "type": "address"
        }
      ],
      "name": "getAccountDeposits",
      "outputs": [
        {
          "internalType": "uint256[]",
          "name": "",
          "type": "uint256[]"
        }
      ],
      "stateMutability": "view",
      "type": "function"
    },
    {
      "inputs": [
        {
          "internalType": "uint256",
          "name": "_depositId",
          "type": "uint256"
        }
      ],
      "name": "getDeposit",
      "outputs": [
        {
          "components": [
            {
              "internalType": "address",
              "name": "depositor",
              "type": "address"
            },
            {
              "internalType": "address",
              "name": "delegate",
              "type": "address"
            },
            {
              "internalType": "contract IERC20",
              "name": "token",
              "type": "address"
            },
            {
              "internalType": "uint256",
              "name": "amount",
              "type": "uint256"
            },
            {
              "components": [
                {
                  "internalType": "uint256",
                  "name": "min",
                  "type": "uint256"
                },
                {
                  "internalType": "uint256",
                  "name": "max",
                  "type": "uint256"
                }
              ],
              "internalType": "struct IEscrow.Range",
              "name": "intentAmountRange",
              "type": "tuple"
            },
            {
              "internalType": "bool",
              "name": "acceptingIntents",
              "type": "bool"
            },
            {
              "internalType": "uint256",
              "name": "remainingDeposits",
              "type": "uint256"
            },
            {
              "internalType": "uint256",
              "name": "outstandingIntentAmount",
              "type": "uint256"
            },
            {
              "internalType": "uint256",
              "name": "makerProtocolFee",
              "type": "uint256"
            },
            {
              "internalType": "uint256",
              "name": "reservedMakerFees",
              "type": "uint256"
            },
            {
              "internalType": "uint256",
              "name": "accruedMakerFees",
              "type": "uint256"
            },
            {
              "internalType": "uint256",
              "name": "accruedReferrerFees",
              "type": "uint256"
            },
            {
              "internalType": "address",
              "name": "intentGuardian",
              "type": "address"
            },
            {
              "internalType": "address",
              "name": "referrer",
              "type": "address"
            },
            {
              "internalType": "uint256",
              "name": "referrerFee",
              "type": "uint256"
            }
          ],
          "internalType": "struct IEscrow.Deposit",
          "name": "",
          "type": "tuple"
        }
      ],
      "stateMutability": "view",
      "type": "function"
    },
    {
      "inputs": [
        {
          "internalType": "uint256",
          "name": "_depositId",
          "type": "uint256"
        },
        {
          "internalType": "address",
          "name": "_verifier",
          "type": "address"
        }
      ],
      "name": "getDepositCurrencies",
      "outputs": [
        {
          "internalType": "bytes32[]",
          "name": "",
          "type": "bytes32[]"
        }
      ],
      "stateMutability": "view",
      "type": "function"
    },
    {
      "inputs": [
        {
          "internalType": "uint256",
          "name": "_depositId",
          "type": "uint256"
        },
        {
          "internalType": "address",
          "name": "_verifier",
          "type": "address"
        },
        {
          "internalType": "bytes32",
          "name": "_currencyCode",
          "type": "bytes32"
        }
      ],
      "name": "getDepositCurrencyMinRate",
      "outputs": [
        {
          "internalType": "uint256",
          "name": "",
          "type": "uint256"
        }
      ],
      "stateMutability": "view",
      "type": "function"
    },
    {
      "inputs": [
        {
          "internalType": "uint256",
          "name": "_depositId",
          "type": "uint256"
        },
        {
          "internalType": "bytes32",
          "name": "_intentHash",
          "type": "bytes32"
        }
      ],
      "name": "getDepositIntent",
      "outputs": [
        {
          "components": [
            {
              "internalType": "bytes32",
              "name": "intentHash",
              "type": "bytes32"
            },
            {
              "internalType": "uint256",
              "name": "amount",
              "type": "uint256"
            },
            {
              "internalType": "uint256",
              "name": "timestamp",
              "type": "uint256"
            },
            {
              "internalType": "uint256",
              "name": "expiryTime",
              "type": "uint256"
            }
          ],
          "internalType": "struct IEscrow.Intent",
          "name": "",
          "type": "tuple"
        }
      ],
      "stateMutability": "view",
      "type": "function"
    },
    {
      "inputs": [
        {
          "internalType": "uint256",
          "name": "_depositId",
          "type": "uint256"
        }
      ],
      "name": "getDepositIntentHashes",
      "outputs": [
        {
          "internalType": "bytes32[]",
          "name": "",
          "type": "bytes32[]"
        }
      ],
      "stateMutability": "view",
      "type": "function"
    },
    {
      "inputs": [
        {
          "internalType": "uint256",
          "name": "_depositId",
          "type": "uint256"
        },
        {
          "internalType": "address",
          "name": "_verifier",
          "type": "address"
        }
      ],
      "name": "getDepositVerifierData",
      "outputs": [
        {
          "components": [
            {
              "internalType": "address",
              "name": "intentGatingService",
              "type": "address"
            },
            {
              "internalType": "string",
              "name": "payeeDetails",
              "type": "string"
            },
            {
              "internalType": "bytes",
              "name": "data",
              "type": "bytes"
            }
          ],
          "internalType": "struct IEscrow.DepositVerifierData",
          "name": "",
          "type": "tuple"
        }
      ],
      "stateMutability": "view",
      "type": "function"
    },
    {
      "inputs": [
        {
          "internalType": "uint256",
          "name": "_depositId",
          "type": "uint256"
        }
      ],
      "name": "getDepositVerifiers",
      "outputs": [
        {
          "internalType": "address[]",
          "name": "",
          "type": "address[]"
        }
      ],
      "stateMutability": "view",
      "type": "function"
    },
    {
      "inputs": [
        {
          "internalType": "uint256",
          "name": "_depositId",
          "type": "uint256"
        }
      ],
      "name": "getExpiredIntents",
      "outputs": [
        {
          "internalType": "bytes32[]",
          "name": "expiredIntents",
          "type": "bytes32[]"
        },
        {
          "internalType": "uint256",
          "name": "reclaimedAmount",
          "type": "uint256"
        }
      ],
      "stateMutability": "view",
      "type": "function"
    },
    {
      "inputs": [],
      "name": "intentExpirationPeriod",
      "outputs": [
        {
          "internalType": "uint256",
          "name": "",
          "type": "uint256"
        }
      ],
      "stateMutability": "view",
      "type": "function"
    },
    {
      "inputs": [
        {
          "internalType": "uint256",
          "name": "_depositId",
          "type": "uint256"
        },
        {
          "internalType": "bytes32",
          "name": "_intentHash",
          "type": "bytes32"
        },
        {
          "internalType": "uint256",
          "name": "_amount",
          "type": "uint256"
        }
      ],
      "name": "lockFunds",
      "outputs": [],
      "stateMutability": "nonpayable",
      "type": "function"
    },
    {
      "inputs": [],
      "name": "makerFeeRecipient",
      "outputs": [
        {
          "internalType": "address",
          "name": "",
          "type": "address"
        }
      ],
      "stateMutability": "view",
      "type": "function"
    },
    {
      "inputs": [],
      "name": "makerProtocolFee",
      "outputs": [
        {
          "internalType": "uint256",
          "name": "",
          "type": "uint256"
        }
      ],
      "stateMutability": "view",
      "type": "function"
    },
    {
      "inputs": [],
      "name": "maxIntentsPerDeposit",
      "outputs": [
        {
          "internalType": "uint256",
          "name": "",
          "type": "uint256"
        }
      ],
      "stateMutability": "view",
      "type": "function"
    },
    {
      "inputs": [],
      "name": "orchestrator",
      "outputs": [
        {
          "internalType": "contract IOrchestrator",
          "name": "",
          "type": "address"
        }
      ],
      "stateMutability": "view",
      "type": "function"
    },
    {
      "inputs": [],
      "name": "owner",
      "outputs": [
        {
          "internalType": "address",
          "name": "",
          "type": "address"
        }
      ],
      "stateMutability": "view",
      "type": "function"
    },
    {
      "inputs": [],
      "name": "pauseEscrow",
      "outputs": [],
      "stateMutability": "nonpayable",
      "type": "function"
    },
    {
      "inputs": [],
      "name": "paused",
      "outputs": [
        {
          "internalType": "bool",
          "name": "",
          "type": "bool"
        }
      ],
      "stateMutability": "view",
      "type": "function"
    },
    {
      "inputs": [],
      "name": "paymentVerifierRegistry",
      "outputs": [
        {
          "internalType": "contract IPaymentVerifierRegistry",
          "name": "",
          "type": "address"
        }
      ],
      "stateMutability": "view",
      "type": "function"
    },
    {
      "inputs": [
        {
          "internalType": "uint256",
          "name": "_depositId",
          "type": "uint256"
        }
      ],
      "name": "pruneExpiredIntents",
      "outputs": [],
      "stateMutability": "nonpayable",
      "type": "function"
    },
    {
      "inputs": [
        {
          "internalType": "uint256",
          "name": "_depositId",
          "type": "uint256"
        },
        {
          "internalType": "address",
          "name": "_verifier",
          "type": "address"
        },
        {
          "internalType": "bytes32",
          "name": "_currencyCode",
          "type": "bytes32"
        }
      ],
      "name": "removeCurrencyFromDepositVerifier",
      "outputs": [],
      "stateMutability": "nonpayable",
      "type": "function"
    },
    {
      "inputs": [
        {
          "internalType": "uint256",
          "name": "_depositId",
          "type": "uint256"
        }
      ],
      "name": "removeDepositDelegate",
      "outputs": [],
      "stateMutability": "nonpayable",
      "type": "function"
    },
    {
      "inputs": [
        {
          "internalType": "uint256",
          "name": "_depositId",
          "type": "uint256"
        },
        {
          "internalType": "uint256",
          "name": "_amount",
          "type": "uint256"
        }
      ],
      "name": "removeFundsFromDeposit",
      "outputs": [],
      "stateMutability": "nonpayable",
      "type": "function"
    },
    {
      "inputs": [
        {
          "internalType": "uint256",
          "name": "_depositId",
          "type": "uint256"
        },
        {
          "internalType": "address",
          "name": "_verifier",
          "type": "address"
        }
      ],
      "name": "removeVerifierFromDeposit",
      "outputs": [],
      "stateMutability": "nonpayable",
      "type": "function"
    },
    {
      "inputs": [],
      "name": "renounceOwnership",
      "outputs": [],
      "stateMutability": "nonpayable",
      "type": "function"
    },
    {
      "inputs": [
        {
          "internalType": "uint256",
          "name": "_depositId",
          "type": "uint256"
        },
        {
          "internalType": "bool",
          "name": "_acceptingIntents",
          "type": "bool"
        }
      ],
      "name": "setDepositAcceptingIntents",
      "outputs": [],
      "stateMutability": "nonpayable",
      "type": "function"
    },
    {
      "inputs": [
        {
          "internalType": "uint256",
          "name": "_depositId",
          "type": "uint256"
        },
        {
          "internalType": "address",
          "name": "_delegate",
          "type": "address"
        }
      ],
      "name": "setDepositDelegate",
      "outputs": [],
      "stateMutability": "nonpayable",
      "type": "function"
    },
    {
      "inputs": [
        {
          "internalType": "uint256",
          "name": "_dustThreshold",
          "type": "uint256"
        }
      ],
      "name": "setDustThreshold",
      "outputs": [],
      "stateMutability": "nonpayable",
      "type": "function"
    },
    {
      "inputs": [
        {
          "internalType": "uint256",
          "name": "_intentExpirationPeriod",
          "type": "uint256"
        }
      ],
      "name": "setIntentExpirationPeriod",
      "outputs": [],
      "stateMutability": "nonpayable",
      "type": "function"
    },
    {
      "inputs": [
        {
          "internalType": "address",
          "name": "_makerFeeRecipient",
          "type": "address"
        }
      ],
      "name": "setMakerFeeRecipient",
      "outputs": [],
      "stateMutability": "nonpayable",
      "type": "function"
    },
    {
      "inputs": [
        {
          "internalType": "uint256",
          "name": "_makerProtocolFee",
          "type": "uint256"
        }
      ],
      "name": "setMakerProtocolFee",
      "outputs": [],
      "stateMutability": "nonpayable",
      "type": "function"
    },
    {
      "inputs": [
        {
          "internalType": "uint256",
          "name": "_maxIntentsPerDeposit",
          "type": "uint256"
        }
      ],
      "name": "setMaxIntentsPerDeposit",
      "outputs": [],
      "stateMutability": "nonpayable",
      "type": "function"
    },
    {
      "inputs": [
        {
          "internalType": "address",
          "name": "_orchestrator",
          "type": "address"
        }
      ],
      "name": "setOrchestrator",
      "outputs": [],
      "stateMutability": "nonpayable",
      "type": "function"
    },
    {
      "inputs": [
        {
          "internalType": "address",
          "name": "_paymentVerifierRegistry",
          "type": "address"
        }
      ],
      "name": "setPaymentVerifierRegistry",
      "outputs": [],
      "stateMutability": "nonpayable",
      "type": "function"
    },
    {
      "inputs": [
        {
          "internalType": "address",
          "name": "newOwner",
          "type": "address"
        }
      ],
      "name": "transferOwnership",
      "outputs": [],
      "stateMutability": "nonpayable",
      "type": "function"
    },
    {
      "inputs": [
        {
          "internalType": "uint256",
          "name": "_depositId",
          "type": "uint256"
        },
        {
          "internalType": "bytes32",
          "name": "_intentHash",
          "type": "bytes32"
        },
        {
          "internalType": "uint256",
          "name": "_transferAmount",
          "type": "uint256"
        },
        {
          "internalType": "address",
          "name": "_to",
          "type": "address"
        }
      ],
      "name": "unlockAndTransferFunds",
      "outputs": [],
      "stateMutability": "nonpayable",
      "type": "function"
    },
    {
      "inputs": [
        {
          "internalType": "uint256",
          "name": "_depositId",
          "type": "uint256"
        },
        {
          "internalType": "bytes32",
          "name": "_intentHash",
          "type": "bytes32"
        }
      ],
      "name": "unlockFunds",
      "outputs": [],
      "stateMutability": "nonpayable",
      "type": "function"
    },
    {
      "inputs": [],
      "name": "unpauseEscrow",
      "outputs": [],
      "stateMutability": "nonpayable",
      "type": "function"
    },
    {
      "inputs": [
        {
          "internalType": "uint256",
          "name": "_depositId",
          "type": "uint256"
        },
        {
          "components": [
            {
              "internalType": "uint256",
              "name": "min",
              "type": "uint256"
            },
            {
              "internalType": "uint256",
              "name": "max",
              "type": "uint256"
            }
          ],
          "internalType": "struct IEscrow.Range",
          "name": "_intentAmountRange",
          "type": "tuple"
        }
      ],
      "name": "updateDepositIntentAmountRange",
      "outputs": [],
      "stateMutability": "nonpayable",
      "type": "function"
    },
    {
      "inputs": [
        {
          "internalType": "uint256",
          "name": "_depositId",
          "type": "uint256"
        },
        {
          "internalType": "address",
          "name": "_verifier",
          "type": "address"
        },
        {
          "internalType": "bytes32",
          "name": "_fiatCurrency",
          "type": "bytes32"
        },
        {
          "internalType": "uint256",
          "name": "_newMinConversionRate",
          "type": "uint256"
        }
      ],
      "name": "updateDepositMinConversionRate",
      "outputs": [],
      "stateMutability": "nonpayable",
      "type": "function"
    },
    {
      "inputs": [
        {
          "internalType": "uint256",
          "name": "_depositId",
          "type": "uint256"
        }
      ],
      "name": "withdrawDeposit",
      "outputs": [],
      "stateMutability": "nonpayable",
      "type": "function"
    }
  ],
  "transactionHash": "0x5bcc2b67dc3d34b6c5fa7383dbdd88df617dfdcc18a2fd9dddddb01062b07234",
  "args": [
    "0x84e113087C97Cd80eA9D78983D4B8Ff61ECa1929",
    84532,
    "0x60354e0DFF25404D8722f4dF8640b9103A78Cc3A",
    "0",
    "0x84e113087C97Cd80eA9D78983D4B8Ff61ECa1929",
    "0",
    200,
    "180"
  ],
  "numDeployments": 1,
  "solcInputHash": "22aa06e4f37e501f1f267dbeb03cdb0b",
  "bytecode": "0x60a06040523480156200001157600080fd5b50604051620053e6380380620053e68339810160408190526200003491620001fc565b6200003f33620000ae565b6000805460ff60a01b191690556080879052600280546001600160a01b038089166001600160a01b031992831617909255600c879055600d805492871692909116919091179055600e839055600f8290556010819055620000a088620000fe565b505050505050505062000277565b600080546001600160a01b038381166001600160a01b0319831681178455604051919092169283917f8be0079c531659141344cd1fd0a4f28419497f9722a3daafe3b4186f6b6457e09190a35050565b6200010862000181565b6001600160a01b038116620001735760405162461bcd60e51b815260206004820152602660248201527f4f776e61626c653a206e6577206f776e657220697320746865207a65726f206160448201526564647265737360d01b60648201526084015b60405180910390fd5b6200017e81620000ae565b50565b6000546001600160a01b03163314620001dd5760405162461bcd60e51b815260206004820181905260248201527f4f776e61626c653a2063616c6c6572206973206e6f7420746865206f776e657260448201526064016200016a565b565b80516001600160a01b0381168114620001f757600080fd5b919050565b600080600080600080600080610100898b0312156200021a57600080fd5b6200022589620001df565b9750602089015196506200023c60408a01620001df565b9550606089015194506200025360808a01620001df565b935060a0890151925060c0890151915060e089015190509295985092959890939650565b60805161515362000293600039600061054a01526151536000f3fe608060405234801561001057600080fd5b50600436106102bb5760003560e01c80638b51955111610182578063c1d38271116100e9578063e8462e8f116100a2578063efb765de1161007c578063efb765de146106b9578063f16c4c6b146106cc578063f2fde38b146106df578063f9176206146106f257600080fd5b8063e8462e8f14610694578063eb14f6691461069d578063ecb3dc88146106b057600080fd5b8063c1d38271146105f8578063c846d07314610635578063c84b5cf914610648578063cd28ef0d1461065b578063d69586021461066e578063d8f91ba51461068157600080fd5b8063a16087d21161013b578063a16087d21461058c578063a1a954b714610595578063ad7e55ba1461059e578063b4bdf25d146105b1578063b74795d9146105c4578063c1ce1cde146105d757600080fd5b80638b519551146104d35780638d08e550146104e65780638da5cb5b1461052c57806395fe9a5e1461053d5780639a8a0592146105455780639f9fb9681461056c57600080fd5b8063432e707b116102265780635e50f269116101df5780635e50f269146104525780636631fda71461047257806368b9646e14610492578063715018a6146104a557806381ceb735146104ad57806389d8e071146104c057600080fd5b8063432e707b146103b85780634adc43f8146103cb5780634de088ff146103e25780634e019ef0146103f55780635081d952146104155780635c975abb1461043557600080fd5b806333289a461161027857806333289a46146103515780633420cf241461036457806337a6b5e2146103775780633abb7c061461037f578063407c8d431461039257806342987349146103a557600080fd5b806301c263ac146102c05780630812b581146102d557806309207525146102e8578063277166f5146102fb5780632811b8e61461030e5780632d43b48414610321575b600080fd5b6102d36102ce3660046145c4565b610705565b005b6102d36102e336600461467d565b6107b1565b6102d36102f63660046146ad565b610872565b6102d36103093660046146d9565b610aea565b6102d361031c3660046146fb565b610c97565b600d54610334906001600160a01b031681565b6040516001600160a01b0390911681526020015b60405180910390f35b6102d361035f366004614733565b610ee2565b6102d3610372366004614733565b6110c9565b6102d3611182565b6102d361038d366004614733565b611194565b6102d36103a036600461474c565b6111b0565b6102d36103b3366004614733565b6114c6565b6102d36103c63660046146d9565b61152b565b6103d4600c5481565b604051908152602001610348565b6102d36103f0366004614733565b61168d565b610408610403366004614733565b6116eb565b604051610348919061478d565b6104286104233660046147da565b611757565b60405161034891906147fe565b600054600160a01b900460ff166040519015158152602001610348565b61046561046036600461467d565b6117c2565b604051610348919061487c565b61048561048036600461467d565b611956565b604051610348919061490b565b6104856104a0366004614733565b6119ca565b6102d3611a2a565b600254610334906001600160a01b031681565b6102d36104ce36600461491e565b611a3c565b6102d36104e13660046149aa565b611c08565b6104f96104f43660046146d9565b611d46565b60405161034891908151815260208083015190820152604080830151908201526060918201519181019190915260800190565b6000546001600160a01b0316610334565b6102d3611dc0565b6103d47f000000000000000000000000000000000000000000000000000000000000000081565b61057f61057a366004614733565b611dd0565b60405161034891906149e2565b6103d4600f5481565b6103d460105481565b6102d36105ac366004614733565b611f4e565b6102d36105bf366004614af6565b611fbb565b600154610334906001600160a01b031681565b6105ea6105e5366004614733565b612122565b604051610348929190614b33565b6103d46106063660046146fb565b60009283526006602090815260408085206001600160a01b039490941685529281528284209184525290205490565b6102d3610643366004614733565b612138565b6102d36106563660046146ad565b6121ad565b6102d36106693660046147da565b61232b565b6102d361067c3660046146d9565b6123a4565b6102d361068f366004614b63565b61255c565b6103d4600e5481565b6102d36106ab3660046147da565b6126a6565b6103d4600b5481565b6102d36106c7366004614b88565b61271f565b6102d36106da36600461467d565b612c41565b6102d36106ed3660046147da565b612e36565b6102d36107003660046147da565b612eac565b61070d612f25565b600087815260086020526040902080548891906001600160a01b0316331480610759575060018101546001600160a01b031615801590610759575060018101546001600160a01b031633145b6107975780546001820154604051639a313e5960e01b815261078e9233926001600160a01b0391821692911690600401614bc4565b60405180910390fd5b6107a689898989898989612f72565b505050505050505050565b600082815260086020526040902080546001600160a01b031633146107f957805460405163536dd9ef60e01b815261078e9133916001600160a01b0390911690600401614be7565b6001600160a01b0382166108205760405163d92e233d60e01b815260040160405180910390fd5b6001810180546001600160a01b0319166001600160a01b038416908117909155604051339085907f177e76a486c6b85fe60246345e71d615cb0c8448a2290461819040cafdbfe71a90600090a4505050565b6001546001600160a01b031633146108ae5760015460405163536dd9ef60e01b815261078e9133916001600160a01b0390911690600401614be7565b600083815260086020526040902080546001600160a01b03166108e757604051631585bdab60e31b81526004810185905260240161078e565b600681015460ff1661090f576040516333b4460d60e11b81526004810185905260240161078e565b6004810154821015610941576004818101546040516338fcec4360e01b8152918201849052602482015260440161078e565b6005810154821115610976576005810154604051637e53d67d60e11b815261078e918491600401918252602082015260400190565b60008481526009602052604090205460078201548311806109995750600f548110155b156109f0576109a9828685613406565b50600084815260096020526040902054600f5481106109f057600f546040516344d2ea2360e01b81526004810187905260248101839052604481019190915260640161078e565b82826007016000828254610a049190614c17565b9250508190555082826008016000828254610a1f9190614c2a565b909155505060008581526009602090815260408220805460018101825590835290822001859055601054610a539042614c2a565b604080516080810182528781526020808201888152428385019081526060840186815260008d8152600a85528681208d825285528690209451855591516001850155516002840155516003909201919091558151878152908101839052919250869188917fb40d75557428cec6806c7ebb58634796f8a5870a0874bcd0d299328b5518665b910160405180910390a3505050505050565b610af2612f25565b600082815260086020526040902080546001600160a01b03163314610b3a57805460405163536dd9ef60e01b815261078e9133916001600160a01b0390911690600401614be7565b81600003610b5b57604051637c946ed760e01b815260040160405180910390fd5b8181600701541015610b7257610b72818484613406565b81816003016000828254610b869190614c17565b9250508190555081816007016000828254610ba19190614c17565b9091555050600681015460ff168015610bc1575060048101546007820154105b15610bd35760068101805460ff191690555b60068101546040805184815260ff90921615156020830152339185917ff166a4b8f8ccdf7c44ee5fc7db601bed0ea7cbabf0aad7a8df3e4773de26c6c7910160405180910390a3600281015460405163a9059cbb60e01b81526001600160a01b039091169063a9059cbb90610c4e9033908690600401614c3d565b6020604051808303816000875af1158015610c6d573d6000803e3d6000fd5b505050506040513d601f19601f82011682018060405250810190610c919190614c56565b50505050565b610c9f612f25565b600083815260086020526040902080548491906001600160a01b0316331480610ceb575060018101546001600160a01b031615801590610ceb575060018101546001600160a01b031633145b610d205780546001820154604051639a313e5960e01b815261078e9233926001600160a01b0391821692911690600401614bc4565b60008581526004602090815260408083206001600160a01b038816845290915281206001018054610d5090614c73565b80601f0160208091040260200160405190810160405280929190818152602001828054610d7c90614c73565b8015610dc95780601f10610d9e57610100808354040283529160200191610dc9565b820191906000526020600020905b815481529060010190602001808311610dac57829003601f168201915b505050505090508051600003610e045760405163c9e0f32760e01b8152600481018790526001600160a01b038616602482015260440161078e565b60008681526006602090815260408083206001600160a01b0389168452825280832087845290915281205490819003610e54578585604051630c645daf60e21b815260040161078e929190614c3d565b60008781526007602090815260408083206001600160a01b038a1684529091529020610e8090866134a0565b60008781526006602090815260408083206001600160a01b038a168085529083528184208985529092528083208390555187928a917f3098fb72c9da8f24cd2c60dafaa2d8ec6cb6e553dc87cca8837a9228d4ee861d9190a450505050505050565b600081815260086020526040902080546001600160a01b03163314610f2a57805460405163536dd9ef60e01b815261078e9133916001600160a01b0390911690600401614be7565b600080610f36846135c8565b91509150610f448483613759565b600083600c015484600b015485600a0154610f5f9190614c17565b610f699190614c17565b9050600081838660070154610f7e9190614c2a565b610f889190614c2a565b9050610f9486866138a0565b610f9e8686613978565b60028501546008860180546001600160a01b0390921691859190600090610fc6908490614c17565b909155505060006007870181905560068701805460ff19169055600b8701819055600c870181905586546040805185815260208101939093526001600160a01b039091169189917ff166a4b8f8ccdf7c44ee5fc7db601bed0ea7cbabf0aad7a8df3e4773de26c6c7910160405180910390a3856008015460000361104e5761104e8787613a4b565b60405163a9059cbb60e01b81526001600160a01b0382169063a9059cbb9061107c9033908690600401614c3d565b6020604051808303816000875af115801561109b573d6000803e3d6000fd5b505050506040513d601f19601f820116820180604052508101906110bf9190614c56565b5050505050505050565b600081815260086020526040902080546001600160a01b0316331461111157805460405163536dd9ef60e01b815261078e9133916001600160a01b0390911690600401614be7565b60018101546001600160a01b031661113f57604051632dd920ef60e01b81526004810183905260240161078e565b6001810180546001600160a01b0319169055604051339083907fa8461c8fb28662d101f3bf3eb596a71303b9c564229ee651fba61bc142ecbf9990600090a35050565b61118a613b5b565b611192613bb5565b565b60008181526008602052604081206111ad918390613406565b50565b6001546001600160a01b031633146111ec5760015460405163536dd9ef60e01b815261078e9133916001600160a01b0390911690600401614be7565b6000848152600860209081526040808320600a835281842087855283529281902081516080810183528154815260018201549381019390935260028101549183019190915260030154606082015281546001600160a01b031661126557604051631585bdab60e31b81526004810187905260240161078e565b805161128757604051639481f8b960e01b81526004810186905260240161078e565b836000036112a857604051637c946ed760e01b815260040160405180910390fd5b80602001518411156112dd5760208101516040516368d9260360e01b815261078e918691600401918252602082015260400190565b60008060008460090154111561132c57670de0b6b3a76400008460090154876113069190614cad565b6113109190614cc4565b91508184600b0160008282546113269190614c2a565b90915550505b600f8401541561137557670de0b6b3a764000084600f01548761134f9190614cad565b6113599190614cc4565b90508084600c01600082825461136f9190614c2a565b90915550505b826020015184600801600082825461138d9190614c17565b909155505060208301518610156113c7578583602001516113ae9190614c17565b8460070160008282546113c19190614c2a565b90915550505b6113d18888613c0a565b60028401546001600160a01b03166113e98986613c4e565b60208085015160408051918252918101899052908101849052606081018390526001600160a01b038716608082015288908a907f6dbf53407bcd47aca0cfeba90ede22088256bf9b28578eba2a7a0dd355253ba19060a00160405180910390a360405163a9059cbb60e01b81526001600160a01b0382169063a9059cbb906114779089908b90600401614c3d565b6020604051808303816000875af1158015611496573d6000803e3d6000fd5b505050506040513d601f19601f820116820180604052508101906114ba9190614c56565b50505050505050505050565b6114ce613b5b565b806000036114ef57604051637c946ed760e01b815260040160405180910390fd5b60108190556040518181527f084016fbffe5e2f11ac2b66a265f9d57ae10335d188ff1ca7d9d1efb35b71e0f906020015b60405180910390a150565b6001546001600160a01b031633146115675760015460405163536dd9ef60e01b815261078e9133916001600160a01b0390911690600401614be7565b6000828152600860209081526040808320600a835281842085855283529281902081516080810183528154815260018201549381019390935260028101549183019190915260030154606082015281546001600160a01b03166115e057604051631585bdab60e31b81526004810185905260240161078e565b805161160257604051639481f8b960e01b81526004810184905260240161078e565b806020015182600701600082825461161a9190614c2a565b90915550506020810151600883018054600090611638908490614c17565b9091555061164890508484613c0a565b82847f683f6606eec92f04a68f1797d32d15f840b9b3d410a8ec9b4fdab4c30813796d836020015160405161167f91815260200190565b60405180910390a350505050565b611695613b5b565b806000036116b657604051637c946ed760e01b815260040160405180910390fd5b600f8190556040518181527f079e53dc927596d8e1015cfdf0b2e3135c2e06774fa76e2e4bff009fd030d7a290602001611520565b60008181526005602090815260409182902080548351818402810184019094528084526060939283018282801561174b57602002820191906000526020600020905b81546001600160a01b0316815260019091019060200180831161172d575b50505050509050919050565b6001600160a01b03811660009081526003602090815260409182902080548351818402810184019094528084526060939283018282801561174b57602002820191906000526020600020905b8154815260200190600101908083116117a35750505050509050919050565b6117ef604051806060016040528060006001600160a01b0316815260200160608152602001606081525090565b60008381526004602090815260408083206001600160a01b038087168552908352928190208151606081019092528054909316815260018301805491939284019161183990614c73565b80601f016020809104026020016040519081016040528092919081815260200182805461186590614c73565b80156118b25780601f10611887576101008083540402835291602001916118b2565b820191906000526020600020905b81548152906001019060200180831161189557829003601f168201915b505050505081526020016002820180546118cb90614c73565b80601f01602080910402602001604051908101604052809291908181526020018280546118f790614c73565b80156119445780601f1061191957610100808354040283529160200191611944565b820191906000526020600020905b81548152906001019060200180831161192757829003601f168201915b50505050508152505090505b92915050565b60008281526007602090815260408083206001600160a01b03851684528252918290208054835181840281018401909452808452606093928301828280156119bd57602002820191906000526020600020905b8154815260200190600101908083116119a9575b5050505050905092915050565b60008181526009602090815260409182902080548351818402810184019094528084526060939283018282801561174b57602002820191906000526020600020908154815260200190600101908083116117a35750505050509050919050565b611a32613b5b565b6111926000613da2565b611a44612f25565b600084815260086020526040902080548591906001600160a01b0316331480611a90575060018101546001600160a01b031615801590611a90575060018101546001600160a01b031633145b611ac55780546001820154604051639a313e5960e01b815261078e9233926001600160a01b0391821692911690600401614bc4565b60008681526004602090815260408083206001600160a01b038916845290915281206001018054611af590614c73565b80601f0160208091040260200160405190810160405280929190818152602001828054611b2190614c73565b8015611b6e5780601f10611b4357610100808354040283529160200191611b6e565b820191906000526020600020905b815481529060010190602001808311611b5157829003601f168201915b505050505090508051600003611ba95760405163c9e0f32760e01b8152600481018890526001600160a01b038716602482015260440161078e565b60005b848110156110bf57611bf68888888885818110611bcb57611bcb614ce6565b90506040020160000135898986818110611be757611be7614ce6565b90506040020160200135613df2565b80611c0081614cfc565b915050611bac565b611c10612f25565b600082815260086020526040902080548391906001600160a01b0316331480611c5c575060018101546001600160a01b031615801590611c5c575060018101546001600160a01b031633145b611c915780546001820154604051639a313e5960e01b815261078e9233926001600160a01b0391821692911690600401614bc4565b60008481526008602052604081209084359003611cc1576040516314d323eb60e21b815260040160405180910390fd5b602084013584351115611cf457604051632457cde760e01b8152843560048201526020850135602482015260440161078e565b833560048201556020840135600582015560405185907fdf91c8dff53bac50f3157cba47dee1c65eeeafe480d9f529e9db0c5bc4a9ba3990611d37908790614d15565b60405180910390a25050505050565b611d746040518060800160405280600080191681526020016000815260200160008152602001600081525090565b506000918252600a602090815260408084209284529181529181902081516080810183528154815260018201549381019390935260028101549183019190915260030154606082015290565b611dc8613b5b565b611192613f7a565b611e6c604080516101e08101825260008082526020808301829052828401829052606083018290528351808501909452818452830152906080820190815260200160001515815260200160008152602001600081526020016000815260200160008152602001600081526020016000815260200160006001600160a01b0316815260200160006001600160a01b03168152602001600081525090565b5060009081526008602081815260409283902083516101e08101855281546001600160a01b03908116825260018301548116828501526002830154811682870152600383015460608301528551808701909652600483015486526005830154938601939093526080810194909452600681015460ff16151560a0850152600781015460c08501529182015460e08401526009820154610100840152600a820154610120840152600b820154610140840152600c820154610160840152600d8201548116610180840152600e820154166101a0830152600f01546101c082015290565b611f56613b5b565b620f4240811115611f8657604051637e53d67d60e11b815260048101829052620f4240602482015260440161078e565b600e8190556040518181527f4514c31bd13e0eecf1250995ffc6e6fb3eaec9377d728cc3325b3c87a58a323a90602001611520565b611fc3612f25565b600084815260086020526040902080548591906001600160a01b031633148061200f575060018101546001600160a01b03161580159061200f575060018101546001600160a01b031633145b6120445780546001820154604051639a313e5960e01b815261078e9233926001600160a01b0391821692911690600401614bc4565b60008681526006602090815260408083206001600160a01b038916845282528083208784529091528120549081900361209457858560405163246d656b60e21b815260040161078e929190614c3d565b836000036120b55760405163123d7ce760e11b815260040160405180910390fd5b60008781526006602090815260408083206001600160a01b038a16808552908352818420898552835292819020879055518681528792918a917f34ceea7094c68ad0f9ddccca81c6d84fc2059dd2173150a82b9fac128e6215d8910160405180910390a450505050505050565b6060600061212f836135c8565b91509150915091565b612140613b5b565b66b1a2bc2ec5000081111561217857604051637e53d67d60e11b81526004810182905266b1a2bc2ec50000602482015260440161078e565b600c8190556040518181527f1c2f54f036b3e1aa8653a459b08c14d2e057aa9c3a5faa400edb66603d9a437290602001611520565b6000838152600860209081526040808320600a835281842086855290925290912081546001600160a01b03166121f957604051631585bdab60e31b81526004810186905260240161078e565b805461221b57604051639481f8b960e01b81526004810185905260240161078e565b600d8201546001600160a01b0316331461225b57600d82015460405163536dd9ef60e01b815261078e9133916001600160a01b0390911690600401614be7565b8260000361227c57604051637c946ed760e01b815260040160405180910390fd5b62069780816002015461228f9190614c2a565b83826003015461229f9190614c2a565b11156122ca57604051637e53d67d60e11b81526004810184905262069780602482015260440161078e565b828160030160008282546122de9190614c2a565b9250508190555083857f25d8768b3a9457fb1df954be09208c92c28109be47542d0eb8726e83ab48c5c7836003015460405161231c91815260200190565b60405180910390a35050505050565b612333613b5b565b6001600160a01b03811661235a5760405163d92e233d60e01b815260040160405180910390fd5b600180546001600160a01b0319166001600160a01b0383169081179091556040517fdde46f8c71b67178c4fdd3cd7e4a49fac7292e29d2bb2ef7d2b9819be1fb890a90600090a250565b6123ac612f25565b600082815260086020526040902080546001600160a01b031633146123f457805460405163536dd9ef60e01b815261078e9133916001600160a01b0390911690600401614be7565b8160000361241557604051637c946ed760e01b815260040160405180910390fd5b60008060008360090154111561244b57670de0b6b3a764000083600901548561243e9190614cad565b6124489190614cc4565b91505b600f8301541561247b57670de0b6b3a764000083600f01548561246e9190614cad565b6124789190614cc4565b90505b60006124878284614c2a565b905060006124958287614c17565b9050858560030160008282546124ab9190614c2a565b92505081905550808560070160008282546124c69190614c2a565b925050819055508185600a0160008282546124e19190614c2a565b9091555050604051868152339088907f6dd055b2e2bf3452b033736068d30d709ffb26f2016b48ba9a612c3701bf33a99060200160405180910390a360028501546040516323b872dd60e01b8152336004820152306024820152604481018890526001600160a01b03909116906323b872dd9060640161107c565b612564612f25565b600082815260086020526040902080548391906001600160a01b03163314806125b0575060018101546001600160a01b0316158015906125b0575060018101546001600160a01b031633145b6125e55780546001820154604051639a313e5960e01b815261078e9233926001600160a01b0391821692911690600401614bc4565b6000848152600860205260409020600681015484151560ff90911615150361262b576040516358efc88160e01b815260048101869052841515602482015260440161078e565b80600701546000036126615760405163c3df48f360e01b815260048101869052600060248201526001604482015260640161078e565b60068101805460ff191685151590811790915560405190815285907f184e3738774b2dc98019706750a38aeb01148b3b0c263e9b3374288835adc07d90602001611d37565b6126ae613b5b565b6001600160a01b0381166126d55760405163d92e233d60e01b815260040160405180910390fd5b600280546001600160a01b0319166001600160a01b0383169081179091556040517fe94f9ee78059bc733bb08fb7b593ad1873182fd795acdaefe39664192e20288290600090a250565b612727612f25565b604081013560000361274c576040516314d323eb60e21b815260040160405180910390fd5b6060810135604082013511156127855760408051632457cde760e01b81529082013560048201526060820135602482015260440161078e565b66b1a2bc2ec5000081610140013511156127c65760405163037664ab60e21b8152610140820135600482015266b1a2bc2ec50000602482015260440161078e565b60006127da610140830161012084016147da565b6001600160a01b03161480156127f4575061014081013515155b1561281157604051625daeb360e91b815260040160405180910390fd5b600c546000901561284e57670de0b6b3a7640000600c5483602001356128379190614cad565b6128419190614cc4565b61284b9082614c2a565b90505b6101408201351561288c57670de0b6b3a76400006128756101408401356020850135614cad565b61287f9190614cc4565b6128899082614c2a565b90505b600061289c826020850135614c17565b905060408301358110156128d057604080516338fcec4360e01b81526004810183905290840135602482015260440161078e565b600b8054600091826128e183614cfc565b9091555033600081815260036020908152604080832080546001810182559084529282902090920184905581516101e08101909252918152919250810161292f610100870160e088016147da565b6001600160a01b0316815260209081019061294c908701876147da565b6001600160a01b0316815260200185602001358152602001856040018036038101906129789190614d6b565b815260200160011515815260200183815260200160008152602001600c5481526020018481526020016000815260200160008152602001856101000160208101906129c391906147da565b6001600160a01b031681526020016129e3610140870161012088016147da565b6001600160a01b0390811682526101408088013560209384015260008581526008808552604091829020865181549086166001600160a01b0319918216178255878701516001830180549188169183169190911790559287015160028201805491871691851691909117905560608701516003820155608087015180516004830155860151600582015560a087015160068201805491151560ff1990921691909117905560c0870151600782015560e0870151918101919091556101008601516009820155610120860151600a82015591850151600b830155610160850151600c830155610180850151600d830180549185169183169190911790556101a0850151600e83018054919094169116179091556101c090920151600f90920191909155612b11908501856147da565b6001600160a01b031633827f1236dbdc184b6c8721974cce53dabb6018679bca9a43784ab2ad71bcdb1d7dd1602088013560408901612b576101008b0160e08c016147da565b612b696101208c016101008d016147da565b604051612b799493929190614d9d565b60405180910390a4612bb181612b926080870187614dde565b612b9f60a0890189614dde565b612bac60c08b018b614dde565b612f72565b612bbe60208501856147da565b6040516323b872dd60e01b8152336004820152306024820152602086013560448201526001600160a01b0391909116906323b872dd906064016020604051808303816000875af1158015612c16573d6000803e3d6000fd5b505050506040513d601f19601f82011682018060405250810190612c3a9190614c56565b5050505050565b612c49612f25565b600082815260086020526040902080548391906001600160a01b0316331480612c95575060018101546001600160a01b031615801590612c95575060018101546001600160a01b031633145b612cca5780546001820154604051639a313e5960e01b815261078e9233926001600160a01b0391821692911690600401614bc4565b60008481526004602090815260408083206001600160a01b038716845290915290206001018054612cfa90614c73565b9050600003612d2e5760405163c9e0f32760e01b8152600481018590526001600160a01b038416602482015260440161078e565b6000848152600560205260409020612d469084613fbd565b60008481526007602090815260408083206001600160a01b03871684529091528120905b8154811015612dcd576000828281548110612d8757612d87614ce6565b60009182526020808320909101548983526006825260408084206001600160a01b038b168552835280842091845291528120555080612dc581614cfc565b915050612d6a565b5060008581526007602090815260408083206001600160a01b03881684529091528120612df991614512565b6040516001600160a01b0385169086907fc0158ebffcbc74de584480ab1b0fab26be61d6f8cdd4352fc97c4ce84ab7d32790600090a35050505050565b612e3e613b5b565b6001600160a01b038116612ea35760405162461bcd60e51b815260206004820152602660248201527f4f776e61626c653a206e6577206f776e657220697320746865207a65726f206160448201526564647265737360d01b606482015260840161078e565b6111ad81613da2565b612eb4613b5b565b6001600160a01b038116612edb5760405163d92e233d60e01b815260040160405180910390fd5b600d80546001600160a01b0319166001600160a01b0383169081179091556040517fb17d0f94214468d231763642efa720a144bf1b18ebab313a4eb474d158957a8e90600090a250565b600054600160a01b900460ff16156111925760405162461bcd60e51b815260206004820152601060248201526f14185d5cd8589b194e881c185d5cd95960821b604482015260640161078e565b848314612f9c57604051631f4bb7c160e31b8152600481018690526024810184905260440161078e565b848114612fc657604051631f4bb7c160e31b8152600481018690526024810182905260440161078e565b60005b858110156110bf576000878783818110612fe557612fe5614ce6565b9050602002016020810190612ffa91906147da565b90506001600160a01b0381166130235760405163d92e233d60e01b815260040160405180910390fd5b6002546040516317784b6360e21b81526001600160a01b03838116600483015290911690635de12d8c90602401602060405180830381865afa15801561306d573d6000803e3d6000fd5b505050506040513d601f19601f820116820180604052508101906130919190614c56565b8061310e5750600260009054906101000a90046001600160a01b03166001600160a01b0316635b0bc9a26040518163ffffffff1660e01b8152600401602060405180830381865afa1580156130ea573d6000803e3d6000fd5b505050506040513d601f19601f8201168201806040525081019061310e9190614c56565b61313657604051631f312d3b60e31b81526001600160a01b038216600482015260240161078e565b85858381811061314857613148614ce6565b905060200281019061315a9190614e28565b613168906020810190614e48565b905060000361318a57604051635fd1a61d60e11b815260040160405180910390fd5b60008981526004602090815260408083206001600160a01b0385168452909152902060010180546131ba90614c73565b1590506131ec57604051635d3b9ba160e11b8152600481018a90526001600160a01b038216602482015260440161078e565b8585838181106131fe576131fe614ce6565b90506020028101906132109190614e28565b60008a81526004602090815260408083206001600160a01b0386168452909152902061323c8282614f9d565b50506000898152600560209081526040822080546001810182559083529082200180546001600160a01b0319166001600160a01b03841617905586868481811061328857613288614ce6565b905060200281019061329a9190614e28565b6132a8906020810190614e48565b6040516020016132b99291906150ad565b60405160208183030381529060405280519060200120905080826001600160a01b03168b7ff3974774ee5983730c946903fcd556c6cce507f5ac938d7cc01dfef68b27c4c88a8a8881811061331057613310614ce6565b90506020028101906133229190614e28565b6133309060208101906147da565b6040516001600160a01b03909116815260200160405180910390a460005b85858581811061336057613360614ce6565b905060200281019061337291906150bd565b90508110156133f057600086868681811061338f5761338f614ce6565b90506020028101906133a191906150bd565b838181106133b1576133b1614ce6565b9050604002018036038101906133c79190614d6b565b90506133dd8c8583600001518460200151613df2565b50806133e881614cfc565b91505061334e565b50505080806133fe90614cfc565b915050612fc9565b600080613412846135c8565b600787015491935091506134268282614c2a565b90508381101561345a5760405163c3df48f360e01b815260048101869052602481018290526044810185905260640161078e565b6134648584613759565b818660070160008282546134789190614c2a565b92505081905550818660080160008282546134939190614c17565b9091555050505050505050565b6000806134fc848054806020026020016040519081016040528092919081815260200182805480156134f157602002820191906000526020600020905b8154815260200190600101908083116134dd575b505050505084614130565b91509150806135455760405162461bcd60e51b8152602060048201526015602482015274313cba32b99999103737ba1034b71030b93930bc9760591b604482015260640161078e565b835460009061355690600190614c17565b905080831461359b5784818154811061357157613571614ce6565b906000526020600020015485848154811061358e5761358e614ce6565b6000918252602090912001555b848054806135ab576135ab615107565b600190038181906000526020600020016000905590555050505050565b6000818152600960209081526040808320805482518185028101850190935280835260609493849392919083018282801561362257602002820191906000526020600020905b81548152602001906001019080831161360e575b50505050509050805167ffffffffffffffff81111561364357613643614d2c565b60405190808252806020026020018201604052801561366c578160200160208202803683370190505b50925060005b8151811015613752576000858152600a602052604081208351829085908590811061369f5761369f614ce6565b60200260200101518152602001908152602001600020604051806080016040529081600082015481526020016001820154815260200160028201548152602001600382015481525050905042816060015110156137415782828151811061370857613708614ce6565b602002602001015185838151811061372257613722614ce6565b60200260200101818152505080602001518461373e9190614c2a565b93505b5061374b81614cfc565b9050613672565b5050915091565b600154604051632cc410dd60e01b81526001600160a01b0390911690632cc410dd9061378990849060040161490b565b600060405180830381600087803b1580156137a357600080fd5b505af19250505080156137b4575060015b5060005b815181101561389b576000838152600a60205260408120835182908590859081106137e5576137e5614ce6565b6020026020010151815260200190815260200160002060405180608001604052908160008201548152602001600182015481526020016002820154815260200160038201548152505090506000801b8160000151146138885761384c848260000151613c0a565b805160208083015160405190815286917f683f6606eec92f04a68f1797d32d15f840b9b3d410a8ec9b4fdab4c30813796d910160405180910390a35b508061389381614cfc565b9150506137b8565b505050565b600b81015415613974576002810154600d54600b83015460405163a9059cbb60e01b81526001600160a01b039384169363a9059cbb936138e593911691600401614c3d565b6020604051808303816000875af1158015613904573d6000803e3d6000fd5b505050506040513d601f19601f820116820180604052508101906139289190614c56565b50600d54600b8201546040519081526001600160a01b039091169083907ff7aa3dedfefb5cb523229619f17a50a7f31686da29a7f0404c03893a528ca49d906020015b60405180910390a35b5050565b600c81015415613974576002810154600e820154600c83015460405163a9059cbb60e01b81526001600160a01b039384169363a9059cbb936139bf93911691600401614c3d565b6020604051808303816000875af11580156139de573d6000803e3d6000fd5b505050506040513d601f19601f82011682018060405250810190613a029190614c56565b50600e810154600c8201546040519081526001600160a01b039091169083907f7bd165ab634d14ac2ffecb9d1b5edab3c35b90bcc9af591f193f089316b6f8859060200161396b565b80546001600160a01b03166000818152600360205260409020613a6e9084614193565b613a7783614238565b600083815260086020818152604080842080546001600160a01b03199081168255600182018054821690556002820180548216905560038201869055600482018690556005820186905560068201805460ff191690556007820186905593810185905560098101859055600a8101859055600b8101859055600c8101859055600d8101805485169055600e81018054909416909355600f9092019290925580518581526001600160a01b038416928101929092527f8ac07cc6e38c6222dd0309c80353c1962354bacf222b825d7401cc80e93ff3cc910160405180910390a1505050565b6000546001600160a01b031633146111925760405162461bcd60e51b815260206004820181905260248201527f4f776e61626c653a2063616c6c6572206973206e6f7420746865206f776e6572604482015260640161078e565b613bbd614410565b6000805460ff60a01b191690557f5db9ee0a495bf2e6ff9c91a7834c1ba4fdd244a5e8aa4e537bd38aeae4b073aa335b6040516001600160a01b03909116815260200160405180910390a1565b6000828152600a60209081526040808320848452825280832083815560018101849055600281018490556003018390558483526009909152902061397490826134a0565b8060070154600003613c675760068101805460ff191690555b600081600c015482600b015483600a0154613c829190614c17565b613c8c9190614c17565b90506000818360070154613ca09190614c2a565b905082600801546000148015613cb85750600e548111155b15610c9157613cc784846138a0565b613cd18484613978565b8015613d98576002830154600d5460405163a9059cbb60e01b81526001600160a01b039283169263a9059cbb92613d0f929116908590600401614c3d565b6020604051808303816000875af1158015613d2e573d6000803e3d6000fd5b505050506040513d601f19601f82011682018060405250810190613d529190614c56565b50600d546040518281526001600160a01b039091169085907f3e73fc0f76c9d35dff306ff859166692f079fb15a5686aa4997177493cc5562f9060200160405180910390a35b610c918484613a4b565b600080546001600160a01b038381166001600160a01b0319831681178455604051919092169283917f8be0079c531659141344cd1fd0a4f28419497f9722a3daafe3b4186f6b6457e09190a35050565b604051630f8743b760e21b8152600481018390526001600160a01b03841690633e1d0edc90602401602060405180830381865afa158015613e37573d6000803e3d6000fd5b505050506040513d601f19601f82011682018060405250810190613e5b9190614c56565b613e7c57828260405163246d656b60e21b815260040161078e929190614c3d565b80600003613e9d5760405163123d7ce760e11b815260040160405180910390fd5b60008481526006602090815260408083206001600160a01b0387168452825280832085845290915290205415613eea57828260405163048dc86560e51b815260040161078e929190614c3d565b60008481526006602090815260408083206001600160a01b03871680855290835281842086855283528184208590558784526007835281842081855283528184208054600181018255908552938390209093018590555183815284929187917f074bccd7762d78b7ef74448569e5c21e47ec220937f028a23b14f2eb0caf39aa910160405180910390a450505050565b613f82612f25565b6000805460ff60a01b1916600160a01b1790557f62e78cea01bee320cd4e420270b5ea74000d11b0c9f74754ebdbfc544b05a258613bed3390565b6000806140238480548060200260200160405190810160405280929190818152602001828054801561401857602002820191906000526020600020905b81546001600160a01b03168152600190910190602001808311613ffa575b505050505084614460565b915091508061406c5760405162461bcd60e51b815260206004820152601560248201527420b2323932b9b9903737ba1034b71030b93930bc9760591b604482015260640161078e565b835460009061407d90600190614c17565b90508083146140f75784818154811061409857614098614ce6565b9060005260206000200160009054906101000a90046001600160a01b03168584815481106140c8576140c8614ce6565b9060005260206000200160006101000a8154816001600160a01b0302191690836001600160a01b031602179055505b8480548061410757614107615107565b600082815260209020810160001990810180546001600160a01b03191690550190555050505050565b81516000908190815b81811015614180578486828151811061415457614154614ce6565b60200260200101510361416e5792506001915061418c9050565b8061417881614cfc565b915050614139565b50600019600092509250505b9250929050565b6000806141ef848054806020026020016040519081016040528092919081815260200182805480156141e457602002820191906000526020600020905b8154815260200190600101908083116141d0575b5050505050846144c2565b91509150806135455760405162461bcd60e51b81526020600482015260156024820152743ab4b73a191a9b103737ba1034b71030b93930bc9760591b604482015260640161078e565b60008181526005602090815260408083208054825181850281018501909352808352919290919083018282801561429857602002820191906000526020600020905b81546001600160a01b0316815260019091019060200180831161427a575b5050505050905060005b815181101561389b5760008282815181106142bf576142bf614ce6565b60209081029190910181015160008681526004835260408082206001600160a01b038416835290935291822080546001600160a01b03191681559092509061430a6001830182614530565b614318600283016000614530565b505060008481526007602090815260408083206001600160a01b038516845282528083208054825181850281018501909352808352919290919083018282801561438157602002820191906000526020600020905b81548152602001906001019080831161436d575b5050505050905060005b81518110156143fa5760008681526006602090815260408083206001600160a01b0387168452909152812083519091908490849081106143cd576143cd614ce6565b602002602001015181526020019081526020016000206000905580806143f290614cfc565b91505061438b565b505050808061440890614cfc565b9150506142a2565b600054600160a01b900460ff166111925760405162461bcd60e51b815260206004820152601460248201527314185d5cd8589b194e881b9bdd081c185d5cd95960621b604482015260640161078e565b81516000908190815b8181101561418057846001600160a01b031686828151811061448d5761448d614ce6565b60200260200101516001600160a01b0316036144b05792506001915061418c9050565b806144ba81614cfc565b915050614469565b81516000908190815b8181101561418057848682815181106144e6576144e6614ce6565b6020026020010151036145005792506001915061418c9050565b8061450a81614cfc565b9150506144cb565b50805460008255906000526020600020908101906111ad9190614566565b50805461453c90614c73565b6000825580601f1061454c575050565b601f0160209004906000526020600020908101906111ad91905b5b8082111561457b5760008155600101614567565b5090565b60008083601f84011261459157600080fd5b50813567ffffffffffffffff8111156145a957600080fd5b6020830191508360208260051b850101111561418c57600080fd5b60008060008060008060006080888a0312156145df57600080fd5b87359650602088013567ffffffffffffffff808211156145fe57600080fd5b61460a8b838c0161457f565b909850965060408a013591508082111561462357600080fd5b61462f8b838c0161457f565b909650945060608a013591508082111561464857600080fd5b506146558a828b0161457f565b989b979a50959850939692959293505050565b6001600160a01b03811681146111ad57600080fd5b6000806040838503121561469057600080fd5b8235915060208301356146a281614668565b809150509250929050565b6000806000606084860312156146c257600080fd5b505081359360208301359350604090920135919050565b600080604083850312156146ec57600080fd5b50508035926020909101359150565b60008060006060848603121561471057600080fd5b83359250602084013561472281614668565b929592945050506040919091013590565b60006020828403121561474557600080fd5b5035919050565b6000806000806080858703121561476257600080fd5b843593506020850135925060408501359150606085013561478281614668565b939692955090935050565b6020808252825182820181905260009190848201906040850190845b818110156147ce5783516001600160a01b0316835292840192918401916001016147a9565b50909695505050505050565b6000602082840312156147ec57600080fd5b81356147f781614668565b9392505050565b6020808252825182820181905260009190848201906040850190845b818110156147ce5783518352928401929184019160010161481a565b6000815180845260005b8181101561485c57602081850181015186830182015201614840565b506000602082860101526020601f19601f83011685010191505092915050565b602080825282516001600160a01b031682820152820151606060408301526000906148aa6080840182614836565b90506040840151601f198483030160608501526148c78282614836565b95945050505050565b600081518084526020808501945080840160005b83811015614900578151875295820195908201906001016148e4565b509495945050505050565b6020815260006147f760208301846148d0565b6000806000806060858703121561493457600080fd5b84359350602085013561494681614668565b9250604085013567ffffffffffffffff8082111561496357600080fd5b818701915087601f83011261497757600080fd5b81358181111561498657600080fd5b8860208260061b850101111561499b57600080fd5b95989497505060200194505050565b60008082840360608112156149be57600080fd5b833592506040601f19820112156149d457600080fd5b506020830190509250929050565b81516001600160a01b0316815261020081016020830151614a0e60208401826001600160a01b03169052565b506040830151614a2960408401826001600160a01b03169052565b50606083015160608301526080830151614a50608084018280518252602090810151910152565b5060a083015180151560c08401525060c083015160e08381019190915283015161010080840191909152830151610120808401919091528301516101408084019190915283015161016080840191909152830151610180808401919091528301516101a0614ac8818501836001600160a01b03169052565b84015190506101c0614ae4848201836001600160a01b03169052565b808501516101e0850152505092915050565b60008060008060808587031215614b0c57600080fd5b843593506020850135614b1e81614668565b93969395505050506040820135916060013590565b604081526000614b4660408301856148d0565b90508260208301529392505050565b80151581146111ad57600080fd5b60008060408385031215614b7657600080fd5b8235915060208301356146a281614b55565b600060208284031215614b9a57600080fd5b813567ffffffffffffffff811115614bb157600080fd5b820161016081850312156147f757600080fd5b6001600160a01b0393841681529183166020830152909116604082015260600190565b6001600160a01b0392831681529116602082015260400190565b634e487b7160e01b600052601160045260246000fd5b8181038181111561195057611950614c01565b8082018082111561195057611950614c01565b6001600160a01b03929092168252602082015260400190565b600060208284031215614c6857600080fd5b81516147f781614b55565b600181811c90821680614c8757607f821691505b602082108103614ca757634e487b7160e01b600052602260045260246000fd5b50919050565b808202811582820484141761195057611950614c01565b600082614ce157634e487b7160e01b600052601260045260246000fd5b500490565b634e487b7160e01b600052603260045260246000fd5b600060018201614d0e57614d0e614c01565b5060010190565b813581526020808301359082015260408101611950565b634e487b7160e01b600052604160045260246000fd5b6040805190810167ffffffffffffffff81118282101715614d6557614d65614d2c565b60405290565b600060408284031215614d7d57600080fd5b614d85614d42565b82358152602083013560208201528091505092915050565b84815260a08101614dbb602083018680358252602090810135910152565b6001600160a01b0393841660608301529190921660809092019190915292915050565b6000808335601e19843603018112614df557600080fd5b83018035915067ffffffffffffffff821115614e1057600080fd5b6020019150600581901b360382131561418c57600080fd5b60008235605e19833603018112614e3e57600080fd5b9190910192915050565b6000808335601e19843603018112614e5f57600080fd5b83018035915067ffffffffffffffff821115614e7a57600080fd5b60200191503681900382131561418c57600080fd5b601f82111561389b57600081815260208120601f850160051c81016020861015614eb65750805b601f850160051c820191505b81811015614ed557828155600101614ec2565b505050505050565b67ffffffffffffffff831115614ef557614ef5614d2c565b614f0983614f038354614c73565b83614e8f565b6000601f841160018114614f3d5760008515614f255750838201355b600019600387901b1c1916600186901b178355612c3a565b600083815260209020601f19861690835b82811015614f6e5786850135825560209485019460019092019101614f4e565b5086821015614f8b5760001960f88860031b161c19848701351681555b505060018560011b0183555050505050565b8135614fa881614668565b81546001600160a01b0319166001600160a01b039190911617815560018181016020614fd685820186614e48565b67ffffffffffffffff811115614fee57614fee614d2c565b61500281614ffc8654614c73565b86614e8f565b6000601f821160018114615036576000831561501e5750838201355b600019600385901b1c1916600184901b17865561508b565b600086815260209020601f19841690835b828110156150645786850135825593870193908901908701615047565b50848210156150815760001960f88660031b161c19848701351681555b50508683881b0186555b5050505050505061509f6040830183614e48565b610c91818360028601614edd565b8183823760009101908152919050565b6000808335601e198436030181126150d457600080fd5b83018035915067ffffffffffffffff8211156150ef57600080fd5b6020019150600681901b360382131561418c57600080fd5b634e487b7160e01b600052603160045260246000fdfea26469706673582212206532e5595f4fdb79484a235ecf3e02387b036480c8a24240c58673f34e8d26a464736f6c63430008120033",
  "devdoc": {
    "events": {
      "Paused(address)": {
        "details": "Emitted when the pause is triggered by `account`."
      },
      "Unpaused(address)": {
        "details": "Emitted when the pause is lifted by `account`."
      }
    },
    "kind": "dev",
    "methods": {
      "addCurrenciesToDepositVerifier(uint256,address,(bytes32,uint256)[])": {
        "params": {
          "_currencies": "The currencies to add (code and conversion rate)",
          "_depositId": "The deposit ID",
          "_verifier": "The payment verifier"
        }
      },
      "addFundsToDeposit(uint256,uint256)": {
        "params": {
          "_amount": "The amount of tokens to add",
          "_depositId": "The deposit ID to add funds to"
        }
      },
      "addVerifiersToDeposit(uint256,address[],(address,string,bytes)[],(bytes32,uint256)[][])": {
        "params": {
          "_currencies": "The currencies for the verifiers",
          "_depositId": "The deposit ID",
          "_verifierData": "The payment verification data for the verifiers",
          "_verifiers": "The payment verifiers to add"
        }
      },
      "extendIntentExpiry(uint256,bytes32,uint256)": {
        "params": {
          "_additionalTime": "The additional time to extend the expiry by",
          "_depositId": "The deposit ID containing the intent",
          "_intentHash": "The intent hash to extend expiry for"
        }
      },
      "lockFunds(uint256,bytes32,uint256)": {
        "params": {
          "_amount": "The amount to lock",
          "_depositId": "The deposit ID to lock funds from",
          "_intentHash": "The intent hash this intent corresponds to"
        }
      },
      "owner()": {
        "details": "Returns the address of the current owner."
      },
      "paused()": {
        "details": "Returns true if the contract is paused, and false otherwise."
      },
      "pruneExpiredIntents(uint256)": {
        "params": {
          "_depositId": "The deposit ID to prune expired intents for"
        }
      },
      "removeCurrencyFromDepositVerifier(uint256,address,bytes32)": {
        "params": {
          "_currencyCode": "The currency code to remove",
          "_depositId": "The deposit ID",
          "_verifier": "The payment verifier"
        }
      },
      "removeDepositDelegate(uint256)": {
        "params": {
          "_depositId": "The deposit ID"
        }
      },
      "removeFundsFromDeposit(uint256,uint256)": {
        "params": {
          "_amount": "The amount of tokens to remove",
          "_depositId": "The deposit ID to remove funds from"
        }
      },
      "removeVerifierFromDeposit(uint256,address)": {
        "params": {
          "_depositId": "The deposit ID",
          "_verifier": "The payment verifier to remove"
        }
      },
      "renounceOwnership()": {
        "details": "Leaves the contract without owner. It will not be possible to call `onlyOwner` functions. Can only be called by the current owner. NOTE: Renouncing ownership will leave the contract without an owner, thereby disabling any functionality that is only available to the owner."
      },
      "setDepositAcceptingIntents(uint256,bool)": {
        "params": {
          "_acceptingIntents": "The new accepting intents state",
          "_depositId": "The deposit ID"
        }
      },
      "setDepositDelegate(uint256,address)": {
        "params": {
          "_delegate": "The address to set as delegate (address(0) to remove delegate)",
          "_depositId": "The deposit ID"
        }
      },
      "setDustThreshold(uint256)": {
        "params": {
          "_dustThreshold": "The new dust threshold amount"
        }
      },
      "setIntentExpirationPeriod(uint256)": {
        "params": {
          "_intentExpirationPeriod": "The new intent expiration period in seconds"
        }
      },
      "setMakerFeeRecipient(address)": {
        "params": {
          "_makerFeeRecipient": "The address to receive maker fees"
        }
      },
      "setMakerProtocolFee(uint256)": {
        "params": {
          "_makerProtocolFee": "The maker protocol fee in preciseUnits (1e16 = 1%)"
        }
      },
      "setMaxIntentsPerDeposit(uint256)": {
        "params": {
          "_maxIntentsPerDeposit": "The new maximum number of active intents per deposit"
        }
      },
      "setOrchestrator(address)": {
        "params": {
          "_orchestrator": "The orchestrator contract address"
        }
      },
      "setPaymentVerifierRegistry(address)": {
        "params": {
          "_paymentVerifierRegistry": "New payment verifier registry address"
        }
      },
      "transferOwnership(address)": {
        "details": "Transfers ownership of the contract to a new account (`newOwner`). Can only be called by the current owner."
      },
      "unlockAndTransferFunds(uint256,bytes32,uint256,address)": {
        "params": {
          "_depositId": "The deposit ID to transfer from",
          "_intentHash": "The intent hash to find and remove the intent for",
          "_to": "The address to transfer to (orchestrator)",
          "_transferAmount": "The amount to actually transfer (may be less than intent amount)"
        }
      },
      "unlockFunds(uint256,bytes32)": {
        "params": {
          "_depositId": "The deposit ID to unlock funds from",
          "_intentHash": "The intent hash to find and remove the intent for"
        }
      },
      "updateDepositIntentAmountRange(uint256,(uint256,uint256))": {
        "params": {
          "_depositId": "The deposit ID",
          "_intentAmountRange": "The new intent amount range"
        }
      },
      "updateDepositMinConversionRate(uint256,address,bytes32,uint256)": {
        "params": {
          "_depositId": "The deposit ID",
          "_fiatCurrency": "The fiat currency code to update the min conversion rate for",
          "_newMinConversionRate": "The new min conversion rate. Must be greater than 0.",
          "_verifier": "The payment verifier address to update the min conversion rate for"
        }
      },
      "withdrawDeposit(uint256)": {
        "params": {
          "_depositId": "DepositId the depositor is attempting to withdraw"
        }
      }
    },
    "title": "Escrow",
    "version": 1
  },
  "userdoc": {
    "kind": "user",
    "methods": {
      "addCurrenciesToDepositVerifier(uint256,address,(bytes32,uint256)[])": {
        "notice": "Allows depositor to add a new currencies to an existing verifier for a deposit."
      },
      "addFundsToDeposit(uint256,uint256)": {
        "notice": "Adds additional funds to an existing deposit. Only the depositor can add funds. The funds will be added to the remaining deposits amount, making it available for new intents."
      },
      "addVerifiersToDeposit(uint256,address[],(address,string,bytes)[],(bytes32,uint256)[][])": {
        "notice": "Allows depositor to add a new payment verifier and its associated currencies to an existing deposit."
      },
      "createDeposit((address,uint256,(uint256,uint256),address[],(address,string,bytes)[],(bytes32,uint256)[][],address,address,address,uint256))": {
        "notice": "Creates a deposit entry by locking liquidity in the escrow contract that can be taken by signaling intents. This function will  not add to previous deposits. Every deposit has it's own unique identifier. User must approve the contract to transfer the deposit amount of deposit token. Every deposit specifies the payment services it supports by specifying their corresponding verifier addresses and  verification data, supported currencies and their min conversion rates for each payment service. Optionally, a referrer and a referrer  fee can be specified. Note that the order of the verifiers, verification data, and currency data must match."
      },
      "extendIntentExpiry(uint256,bytes32,uint256)": {
        "notice": "INTENT GUARDIAN ONLY: Extends the expiry time of an existing intent. Only callable by intent guardian. "
      },
      "lockFunds(uint256,bytes32,uint256)": {
        "notice": "ORCHESTRATOR ONLY: Locks funds for an intent with expiry time. Only callable by orchestrator."
      },
      "pauseEscrow()": {
        "notice": "GOVERNANCE ONLY: Pauses deposit creation, intent creation and intent fulfillment functionality for the escrow. Functionalities that are paused: - Deposit creation - Updating conversion rates TODO: Update this list. Functionalities that remain unpaused to allow users to retrieve funds in contract: - Deposit withdrawal"
      },
      "pruneExpiredIntents(uint256)": {
        "notice": "ANYONE: Can be called by anyone to clean up expired intents. "
      },
      "removeCurrencyFromDepositVerifier(uint256,address,bytes32)": {
        "notice": "Allows depositor to remove an existing currency from a verifier for a deposit."
      },
      "removeDepositDelegate(uint256)": {
        "notice": "Allows depositor to remove the delegate for a specific deposit"
      },
      "removeFundsFromDeposit(uint256,uint256)": {
        "notice": "Removes funds from an existing deposit. Only the depositor can remove funds. If the amount to remove is greater than the remaining deposits, then expired intents will be pruned to reclaim liquidity. If the remaining deposits is less than the min intent amount, then the deposit will be marked as not accepting intents. Reserved maker fees remain locked until full withdrawal via withdrawDeposit()."
      },
      "removeVerifierFromDeposit(uint256,address)": {
        "notice": "Allows depositor to remove an existing payment verifier from a deposit.  NOTE: This function does not delete the veirifier data, it only removes the verifier from the deposit."
      },
      "setDepositAcceptingIntents(uint256,bool)": {
        "notice": "Allows depositor or delegateto set the accepting intents state for a deposit."
      },
      "setDepositDelegate(uint256,address)": {
        "notice": "Allows depositor to set a delegate address that can manage a specific deposit"
      },
      "setDustThreshold(uint256)": {
        "notice": "GOVERNANCE ONLY: Sets the dust threshold below which deposits can be closed automatically."
      },
      "setIntentExpirationPeriod(uint256)": {
        "notice": "GOVERNANCE ONLY: Sets the intent expiration period."
      },
      "setMakerFeeRecipient(address)": {
        "notice": "GOVERNANCE ONLY: Sets the address that receives maker protocol fees."
      },
      "setMakerProtocolFee(uint256)": {
        "notice": "GOVERNANCE ONLY: Sets the maker protocol fee rate. This fee is charged to makers upon fulfillment of  intents."
      },
      "setMaxIntentsPerDeposit(uint256)": {
        "notice": "GOVERNANCE ONLY: Sets the maximum number of active intents per deposit."
      },
      "setOrchestrator(address)": {
        "notice": "NEW: Sets the orchestrator contract address. Only callable by owner."
      },
      "setPaymentVerifierRegistry(address)": {
        "notice": "GOVERNANCE ONLY: Updates the payment verifier registry address."
      },
      "unlockAndTransferFunds(uint256,bytes32,uint256,address)": {
        "notice": "ORCHESTRATOR ONLY: Unlocks and transfers funds from a fulfilled intent by removing the specific intent. Only callable by orchestrator. "
      },
      "unlockFunds(uint256,bytes32)": {
        "notice": "ORCHESTRATOR ONLY: Unlocks funds from a cancelled intent by removing the specific intent.  Only callable by orchestrator. "
      },
      "unpauseEscrow()": {
        "notice": "GOVERNANCE ONLY: Restarts paused functionality for the escrow."
      },
      "updateDepositIntentAmountRange(uint256,(uint256,uint256))": {
        "notice": "Allows depositor to update the intent amount range for a deposit. Since intent's are already created within the previous intent amount range, changing the intent amount range will not affect any intents that have already been signaled."
      },
      "updateDepositMinConversionRate(uint256,address,bytes32,uint256)": {
        "notice": "Only callable by the depositor for a deposit. Allows depositor to update the min conversion rate for a currency for a  payment verifier. Since intent's store the conversion rate at the time of intent, changing the min conversion rate will not affect any intents that have already been signaled."
      },
      "withdrawDeposit(uint256)": {
        "notice": "Depositor is returned all remaining deposits, any outstanding intents that are expired, and unused maker fees. Only the depositor can withdraw. If an intent is not expired then those funds will not be returned. Deposit is marked as to not accept new intents and the funds locked due to intents can be withdrawn once they expire by calling this function again. Deposit will be deleted and accrued maker fees collected to protocol as long as there are no more outstanding intents."
      }
    },
    "notice": "Escrows deposits and manages deposit lifecycle.",
    "version": 1
  },
  "storageLayout": {
    "storage": [
      {
        "astId": 7,
        "contract": "contracts/Escrow.sol:Escrow",
        "label": "_owner",
        "offset": 0,
        "slot": "0",
        "type": "t_address"
      },
      {
        "astId": 144,
        "contract": "contracts/Escrow.sol:Escrow",
        "label": "_paused",
        "offset": 20,
        "slot": "0",
        "type": "t_bool"
      },
      {
        "astId": 2761,
        "contract": "contracts/Escrow.sol:Escrow",
        "label": "orchestrator",
        "offset": 0,
        "slot": "1",
        "type": "t_contract(IOrchestrator)10433"
      },
      {
        "astId": 2764,
        "contract": "contracts/Escrow.sol:Escrow",
        "label": "paymentVerifierRegistry",
        "offset": 0,
        "slot": "2",
        "type": "t_contract(IPaymentVerifierRegistry)10454"
      },
      {
        "astId": 2771,
        "contract": "contracts/Escrow.sol:Escrow",
        "label": "accountDeposits",
        "offset": 0,
        "slot": "3",
        "type": "t_mapping(t_address,t_array(t_uint256)dyn_storage)"
      },
      {
        "astId": 2778,
        "contract": "contracts/Escrow.sol:Escrow",
        "label": "depositVerifierData",
        "offset": 0,
        "slot": "4",
        "type": "t_mapping(t_uint256,t_mapping(t_address,t_struct(DepositVerifierData)9601_storage))"
      },
      {
        "astId": 2783,
        "contract": "contracts/Escrow.sol:Escrow",
        "label": "depositVerifiers",
        "offset": 0,
        "slot": "5",
        "type": "t_mapping(t_uint256,t_array(t_address)dyn_storage)"
      },
      {
        "astId": 2791,
        "contract": "contracts/Escrow.sol:Escrow",
        "label": "depositCurrencyMinRate",
        "offset": 0,
        "slot": "6",
        "type": "t_mapping(t_uint256,t_mapping(t_address,t_mapping(t_bytes32,t_uint256)))"
      },
      {
        "astId": 2798,
        "contract": "contracts/Escrow.sol:Escrow",
        "label": "depositCurrencies",
        "offset": 0,
        "slot": "7",
        "type": "t_mapping(t_uint256,t_mapping(t_address,t_array(t_bytes32)dyn_storage))"
      },
      {
        "astId": 2803,
        "contract": "contracts/Escrow.sol:Escrow",
        "label": "deposits",
        "offset": 0,
        "slot": "8",
        "type": "t_mapping(t_uint256,t_struct(Deposit)9589_storage)"
      },
      {
        "astId": 2808,
        "contract": "contracts/Escrow.sol:Escrow",
        "label": "depositIntentHashes",
        "offset": 0,
        "slot": "9",
        "type": "t_mapping(t_uint256,t_array(t_bytes32)dyn_storage)"
      },
      {
        "astId": 2815,
        "contract": "contracts/Escrow.sol:Escrow",
        "label": "depositIntents",
        "offset": 0,
        "slot": "10",
        "type": "t_mapping(t_uint256,t_mapping(t_bytes32,t_struct(Intent)9551_storage))"
      },
      {
        "astId": 2817,
        "contract": "contracts/Escrow.sol:Escrow",
        "label": "depositCounter",
        "offset": 0,
        "slot": "11",
        "type": "t_uint256"
      },
      {
        "astId": 2819,
        "contract": "contracts/Escrow.sol:Escrow",
        "label": "makerProtocolFee",
        "offset": 0,
        "slot": "12",
        "type": "t_uint256"
      },
      {
        "astId": 2821,
        "contract": "contracts/Escrow.sol:Escrow",
        "label": "makerFeeRecipient",
        "offset": 0,
        "slot": "13",
        "type": "t_address"
      },
      {
        "astId": 2823,
        "contract": "contracts/Escrow.sol:Escrow",
        "label": "dustThreshold",
        "offset": 0,
        "slot": "14",
        "type": "t_uint256"
      },
      {
        "astId": 2825,
        "contract": "contracts/Escrow.sol:Escrow",
        "label": "maxIntentsPerDeposit",
        "offset": 0,
        "slot": "15",
        "type": "t_uint256"
      },
      {
        "astId": 2827,
        "contract": "contracts/Escrow.sol:Escrow",
        "label": "intentExpirationPeriod",
        "offset": 0,
        "slot": "16",
        "type": "t_uint256"
      }
    ],
    "types": {
      "t_address": {
        "encoding": "inplace",
        "label": "address",
        "numberOfBytes": "20"
      },
      "t_array(t_address)dyn_storage": {
        "base": "t_address",
        "encoding": "dynamic_array",
        "label": "address[]",
        "numberOfBytes": "32"
      },
      "t_array(t_bytes32)dyn_storage": {
        "base": "t_bytes32",
        "encoding": "dynamic_array",
        "label": "bytes32[]",
        "numberOfBytes": "32"
      },
      "t_array(t_uint256)dyn_storage": {
        "base": "t_uint256",
        "encoding": "dynamic_array",
        "label": "uint256[]",
        "numberOfBytes": "32"
      },
      "t_bool": {
        "encoding": "inplace",
        "label": "bool",
        "numberOfBytes": "1"
      },
      "t_bytes32": {
        "encoding": "inplace",
        "label": "bytes32",
        "numberOfBytes": "32"
      },
      "t_bytes_storage": {
        "encoding": "bytes",
        "label": "bytes",
        "numberOfBytes": "32"
      },
      "t_contract(IERC20)964": {
        "encoding": "inplace",
        "label": "contract IERC20",
        "numberOfBytes": "20"
      },
      "t_contract(IOrchestrator)10433": {
        "encoding": "inplace",
        "label": "contract IOrchestrator",
        "numberOfBytes": "20"
      },
      "t_contract(IPaymentVerifierRegistry)10454": {
        "encoding": "inplace",
        "label": "contract IPaymentVerifierRegistry",
        "numberOfBytes": "20"
      },
      "t_mapping(t_address,t_array(t_bytes32)dyn_storage)": {
        "encoding": "mapping",
        "key": "t_address",
        "label": "mapping(address => bytes32[])",
        "numberOfBytes": "32",
        "value": "t_array(t_bytes32)dyn_storage"
      },
      "t_mapping(t_address,t_array(t_uint256)dyn_storage)": {
        "encoding": "mapping",
        "key": "t_address",
        "label": "mapping(address => uint256[])",
        "numberOfBytes": "32",
        "value": "t_array(t_uint256)dyn_storage"
      },
      "t_mapping(t_address,t_mapping(t_bytes32,t_uint256))": {
        "encoding": "mapping",
        "key": "t_address",
        "label": "mapping(address => mapping(bytes32 => uint256))",
        "numberOfBytes": "32",
        "value": "t_mapping(t_bytes32,t_uint256)"
      },
      "t_mapping(t_address,t_struct(DepositVerifierData)9601_storage)": {
        "encoding": "mapping",
        "key": "t_address",
        "label": "mapping(address => struct IEscrow.DepositVerifierData)",
        "numberOfBytes": "32",
        "value": "t_struct(DepositVerifierData)9601_storage"
      },
      "t_mapping(t_bytes32,t_struct(Intent)9551_storage)": {
        "encoding": "mapping",
        "key": "t_bytes32",
        "label": "mapping(bytes32 => struct IEscrow.Intent)",
        "numberOfBytes": "32",
        "value": "t_struct(Intent)9551_storage"
      },
      "t_mapping(t_bytes32,t_uint256)": {
        "encoding": "mapping",
        "key": "t_bytes32",
        "label": "mapping(bytes32 => uint256)",
        "numberOfBytes": "32",
        "value": "t_uint256"
      },
      "t_mapping(t_uint256,t_array(t_address)dyn_storage)": {
        "encoding": "mapping",
        "key": "t_uint256",
        "label": "mapping(uint256 => address[])",
        "numberOfBytes": "32",
        "value": "t_array(t_address)dyn_storage"
      },
      "t_mapping(t_uint256,t_array(t_bytes32)dyn_storage)": {
        "encoding": "mapping",
        "key": "t_uint256",
        "label": "mapping(uint256 => bytes32[])",
        "numberOfBytes": "32",
        "value": "t_array(t_bytes32)dyn_storage"
      },
      "t_mapping(t_uint256,t_mapping(t_address,t_array(t_bytes32)dyn_storage))": {
        "encoding": "mapping",
        "key": "t_uint256",
        "label": "mapping(uint256 => mapping(address => bytes32[]))",
        "numberOfBytes": "32",
        "value": "t_mapping(t_address,t_array(t_bytes32)dyn_storage)"
      },
      "t_mapping(t_uint256,t_mapping(t_address,t_mapping(t_bytes32,t_uint256)))": {
        "encoding": "mapping",
        "key": "t_uint256",
        "label": "mapping(uint256 => mapping(address => mapping(bytes32 => uint256)))",
        "numberOfBytes": "32",
        "value": "t_mapping(t_address,t_mapping(t_bytes32,t_uint256))"
      },
      "t_mapping(t_uint256,t_mapping(t_address,t_struct(DepositVerifierData)9601_storage))": {
        "encoding": "mapping",
        "key": "t_uint256",
        "label": "mapping(uint256 => mapping(address => struct IEscrow.DepositVerifierData))",
        "numberOfBytes": "32",
        "value": "t_mapping(t_address,t_struct(DepositVerifierData)9601_storage)"
      },
      "t_mapping(t_uint256,t_mapping(t_bytes32,t_struct(Intent)9551_storage))": {
        "encoding": "mapping",
        "key": "t_uint256",
        "label": "mapping(uint256 => mapping(bytes32 => struct IEscrow.Intent))",
        "numberOfBytes": "32",
        "value": "t_mapping(t_bytes32,t_struct(Intent)9551_storage)"
      },
      "t_mapping(t_uint256,t_struct(Deposit)9589_storage)": {
        "encoding": "mapping",
        "key": "t_uint256",
        "label": "mapping(uint256 => struct IEscrow.Deposit)",
        "numberOfBytes": "32",
        "value": "t_struct(Deposit)9589_storage"
      },
      "t_string_storage": {
        "encoding": "bytes",
        "label": "string",
        "numberOfBytes": "32"
      },
      "t_struct(Deposit)9589_storage": {
        "encoding": "inplace",
        "label": "struct IEscrow.Deposit",
        "members": [
          {
            "astId": 9558,
            "contract": "contracts/Escrow.sol:Escrow",
            "label": "depositor",
            "offset": 0,
            "slot": "0",
            "type": "t_address"
          },
          {
            "astId": 9560,
            "contract": "contracts/Escrow.sol:Escrow",
            "label": "delegate",
            "offset": 0,
            "slot": "1",
            "type": "t_address"
          },
          {
            "astId": 9563,
            "contract": "contracts/Escrow.sol:Escrow",
            "label": "token",
            "offset": 0,
            "slot": "2",
            "type": "t_contract(IERC20)964"
          },
          {
            "astId": 9565,
            "contract": "contracts/Escrow.sol:Escrow",
            "label": "amount",
            "offset": 0,
            "slot": "3",
            "type": "t_uint256"
          },
          {
            "astId": 9568,
            "contract": "contracts/Escrow.sol:Escrow",
            "label": "intentAmountRange",
            "offset": 0,
            "slot": "4",
            "type": "t_struct(Range)9556_storage"
          },
          {
            "astId": 9570,
            "contract": "contracts/Escrow.sol:Escrow",
            "label": "acceptingIntents",
            "offset": 0,
            "slot": "6",
            "type": "t_bool"
          },
          {
            "astId": 9572,
            "contract": "contracts/Escrow.sol:Escrow",
            "label": "remainingDeposits",
            "offset": 0,
            "slot": "7",
            "type": "t_uint256"
          },
          {
            "astId": 9574,
            "contract": "contracts/Escrow.sol:Escrow",
            "label": "outstandingIntentAmount",
            "offset": 0,
            "slot": "8",
            "type": "t_uint256"
          },
          {
            "astId": 9576,
            "contract": "contracts/Escrow.sol:Escrow",
            "label": "makerProtocolFee",
            "offset": 0,
            "slot": "9",
            "type": "t_uint256"
          },
          {
            "astId": 9578,
            "contract": "contracts/Escrow.sol:Escrow",
            "label": "reservedMakerFees",
            "offset": 0,
            "slot": "10",
            "type": "t_uint256"
          },
          {
            "astId": 9580,
            "contract": "contracts/Escrow.sol:Escrow",
            "label": "accruedMakerFees",
            "offset": 0,
            "slot": "11",
            "type": "t_uint256"
          },
          {
            "astId": 9582,
            "contract": "contracts/Escrow.sol:Escrow",
            "label": "accruedReferrerFees",
            "offset": 0,
            "slot": "12",
            "type": "t_uint256"
          },
          {
            "astId": 9584,
            "contract": "contracts/Escrow.sol:Escrow",
            "label": "intentGuardian",
            "offset": 0,
            "slot": "13",
            "type": "t_address"
          },
          {
            "astId": 9586,
            "contract": "contracts/Escrow.sol:Escrow",
            "label": "referrer",
            "offset": 0,
            "slot": "14",
            "type": "t_address"
          },
          {
            "astId": 9588,
            "contract": "contracts/Escrow.sol:Escrow",
            "label": "referrerFee",
            "offset": 0,
            "slot": "15",
            "type": "t_uint256"
          }
        ],
        "numberOfBytes": "512"
      },
      "t_struct(DepositVerifierData)9601_storage": {
        "encoding": "inplace",
        "label": "struct IEscrow.DepositVerifierData",
        "members": [
          {
            "astId": 9596,
            "contract": "contracts/Escrow.sol:Escrow",
            "label": "intentGatingService",
            "offset": 0,
            "slot": "0",
            "type": "t_address"
          },
          {
            "astId": 9598,
            "contract": "contracts/Escrow.sol:Escrow",
            "label": "payeeDetails",
            "offset": 0,
            "slot": "1",
            "type": "t_string_storage"
          },
          {
            "astId": 9600,
            "contract": "contracts/Escrow.sol:Escrow",
            "label": "data",
            "offset": 0,
            "slot": "2",
            "type": "t_bytes_storage"
          }
        ],
        "numberOfBytes": "96"
      },
      "t_struct(Intent)9551_storage": {
        "encoding": "inplace",
        "label": "struct IEscrow.Intent",
        "members": [
          {
            "astId": 9544,
            "contract": "contracts/Escrow.sol:Escrow",
            "label": "intentHash",
            "offset": 0,
            "slot": "0",
            "type": "t_bytes32"
          },
          {
            "astId": 9546,
            "contract": "contracts/Escrow.sol:Escrow",
            "label": "amount",
            "offset": 0,
            "slot": "1",
            "type": "t_uint256"
          },
          {
            "astId": 9548,
            "contract": "contracts/Escrow.sol:Escrow",
            "label": "timestamp",
            "offset": 0,
            "slot": "2",
            "type": "t_uint256"
          },
          {
            "astId": 9550,
            "contract": "contracts/Escrow.sol:Escrow",
            "label": "expiryTime",
            "offset": 0,
            "slot": "3",
            "type": "t_uint256"
          }
        ],
        "numberOfBytes": "128"
      },
      "t_struct(Range)9556_storage": {
        "encoding": "inplace",
        "label": "struct IEscrow.Range",
        "members": [
          {
            "astId": 9553,
            "contract": "contracts/Escrow.sol:Escrow",
            "label": "min",
            "offset": 0,
            "slot": "0",
            "type": "t_uint256"
          },
          {
            "astId": 9555,
            "contract": "contracts/Escrow.sol:Escrow",
            "label": "max",
            "offset": 0,
            "slot": "1",
            "type": "t_uint256"
          }
        ],
        "numberOfBytes": "64"
      },
      "t_uint256": {
        "encoding": "inplace",
        "label": "uint256",
        "numberOfBytes": "32"
      }
    }
  }
}