{
  "address": "0x6a5e11c3D87e22b828d02ee65a4e8f322BF6B97E",
  "abi": [
    {
      "inputs": [
        {
          "internalType": "address",
          "name": "_owner",
          "type": "address"
        },
        {
          "internalType": "uint256",
          "name": "_chainId",
          "type": "uint256"
        },
        {
          "internalType": "address",
          "name": "_paymentVerifierRegistry",
          "type": "address"
        },
        {
          "internalType": "uint256",
          "name": "_makerProtocolFee",
          "type": "uint256"
        },
        {
          "internalType": "address",
          "name": "_makerFeeRecipient",
          "type": "address"
        },
        {
          "internalType": "uint256",
          "name": "_dustThreshold",
          "type": "uint256"
        },
        {
          "internalType": "uint256",
          "name": "_maxIntentsPerDeposit",
          "type": "uint256"
        },
        {
          "internalType": "uint256",
          "name": "_intentExpirationPeriod",
          "type": "uint256"
        }
      ],
      "stateMutability": "nonpayable",
      "type": "constructor"
    },
    {
      "inputs": [
        {
          "internalType": "uint256",
          "name": "amount",
          "type": "uint256"
        },
        {
          "internalType": "uint256",
          "name": "max",
          "type": "uint256"
        }
      ],
      "name": "AmountAboveMax",
      "type": "error"
    },
    {
      "inputs": [
        {
          "internalType": "uint256",
          "name": "amount",
          "type": "uint256"
        },
        {
          "internalType": "uint256",
          "name": "min",
          "type": "uint256"
        }
      ],
      "name": "AmountBelowMin",
      "type": "error"
    },
    {
      "inputs": [
        {
          "internalType": "uint256",
          "name": "requested",
          "type": "uint256"
        },
        {
          "internalType": "uint256",
          "name": "available",
          "type": "uint256"
        }
      ],
      "name": "AmountExceedsAvailable",
      "type": "error"
    },
    {
      "inputs": [
        {
          "internalType": "uint256",
          "name": "length1",
          "type": "uint256"
        },
        {
          "internalType": "uint256",
          "name": "length2",
          "type": "uint256"
        }
      ],
      "name": "ArrayLengthMismatch",
      "type": "error"
    },
    {
      "inputs": [
        {
          "internalType": "bytes32",
          "name": "paymentMethod",
          "type": "bytes32"
        },
        {
          "internalType": "bytes32",
          "name": "currency",
          "type": "bytes32"
        }
      ],
      "name": "CurrencyAlreadyExists",
      "type": "error"
    },
    {
      "inputs": [
        {
          "internalType": "bytes32",
          "name": "paymentMethod",
          "type": "bytes32"
        },
        {
          "internalType": "bytes32",
          "name": "currency",
          "type": "bytes32"
        }
      ],
      "name": "CurrencyNotFound",
      "type": "error"
    },
    {
      "inputs": [
        {
          "internalType": "bytes32",
          "name": "paymentMethod",
          "type": "bytes32"
        },
        {
          "internalType": "bytes32",
          "name": "currency",
          "type": "bytes32"
        }
      ],
      "name": "CurrencyNotSupported",
      "type": "error"
    },
    {
      "inputs": [
        {
          "internalType": "uint256",
          "name": "depositId",
          "type": "uint256"
        }
      ],
      "name": "DelegateNotFound",
      "type": "error"
    },
    {
      "inputs": [
        {
          "internalType": "uint256",
          "name": "depositId",
          "type": "uint256"
        },
        {
          "internalType": "bool",
          "name": "currentState",
          "type": "bool"
        }
      ],
      "name": "DepositAlreadyInState",
      "type": "error"
    },
    {
      "inputs": [
        {
          "internalType": "uint256",
          "name": "depositId",
          "type": "uint256"
        }
      ],
      "name": "DepositNotAcceptingIntents",
      "type": "error"
    },
    {
      "inputs": [
        {
          "internalType": "uint256",
          "name": "depositId",
          "type": "uint256"
        }
      ],
      "name": "DepositNotFound",
      "type": "error"
    },
    {
      "inputs": [],
      "name": "EmptyPayeeDetails",
      "type": "error"
    },
    {
      "inputs": [
        {
          "internalType": "uint256",
          "name": "fee",
          "type": "uint256"
        },
        {
          "internalType": "uint256",
          "name": "maximum",
          "type": "uint256"
        }
      ],
      "name": "FeeExceedsMaximum",
      "type": "error"
    },
    {
      "inputs": [
        {
          "internalType": "uint256",
          "name": "depositId",
          "type": "uint256"
        },
        {
          "internalType": "uint256",
          "name": "available",
          "type": "uint256"
        },
        {
          "internalType": "uint256",
          "name": "required",
          "type": "uint256"
        }
      ],
      "name": "InsufficientDepositLiquidity",
      "type": "error"
    },
    {
      "inputs": [
        {
          "internalType": "bytes32",
          "name": "intentHash",
          "type": "bytes32"
        }
      ],
      "name": "IntentNotFound",
      "type": "error"
    },
    {
      "inputs": [
        {
          "internalType": "uint256",
          "name": "min",
          "type": "uint256"
        },
        {
          "internalType": "uint256",
          "name": "max",
          "type": "uint256"
        }
      ],
      "name": "InvalidRange",
      "type": "error"
    },
    {
      "inputs": [],
      "name": "InvalidReferrerFeeConfiguration",
      "type": "error"
    },
    {
      "inputs": [
        {
          "internalType": "uint256",
          "name": "depositId",
          "type": "uint256"
        },
        {
          "internalType": "uint256",
          "name": "current",
          "type": "uint256"
        },
        {
          "internalType": "uint256",
          "name": "max",
          "type": "uint256"
        }
      ],
      "name": "MaxIntentsExceeded",
      "type": "error"
    },
    {
      "inputs": [
        {
          "internalType": "uint256",
          "name": "depositId",
          "type": "uint256"
        },
        {
          "internalType": "bytes32",
          "name": "paymentMethod",
          "type": "bytes32"
        }
      ],
      "name": "PaymentMethodAlreadyExists",
      "type": "error"
    },
    {
      "inputs": [
        {
          "internalType": "uint256",
          "name": "depositId",
          "type": "uint256"
        },
        {
          "internalType": "bytes32",
          "name": "paymentMethod",
          "type": "bytes32"
        }
      ],
      "name": "PaymentMethodNotFound",
      "type": "error"
    },
    {
      "inputs": [
        {
          "internalType": "bytes32",
          "name": "paymentMethod",
          "type": "bytes32"
        }
      ],
      "name": "PaymentMethodNotWhitelisted",
      "type": "error"
    },
    {
      "inputs": [
        {
          "internalType": "address",
          "name": "caller",
          "type": "address"
        },
        {
          "internalType": "address",
          "name": "authorized",
          "type": "address"
        }
      ],
      "name": "UnauthorizedCaller",
      "type": "error"
    },
    {
      "inputs": [
        {
          "internalType": "address",
          "name": "caller",
          "type": "address"
        },
        {
          "internalType": "address",
          "name": "owner",
          "type": "address"
        },
        {
          "internalType": "address",
          "name": "delegate",
          "type": "address"
        }
      ],
      "name": "UnauthorizedCallerOrDelegate",
      "type": "error"
    },
    {
      "inputs": [],
      "name": "ZeroAddress",
      "type": "error"
    },
    {
      "inputs": [],
      "name": "ZeroConversionRate",
      "type": "error"
    },
    {
      "inputs": [],
      "name": "ZeroMinValue",
      "type": "error"
    },
    {
      "inputs": [],
      "name": "ZeroValue",
      "type": "error"
    },
    {
      "anonymous": false,
      "inputs": [
        {
          "indexed": true,
          "internalType": "uint256",
          "name": "depositId",
          "type": "uint256"
        },
        {
          "indexed": false,
          "internalType": "bool",
          "name": "acceptingIntents",
          "type": "bool"
        }
      ],
      "name": "DepositAcceptingIntentsUpdated",
      "type": "event"
    },
    {
      "anonymous": false,
      "inputs": [
        {
          "indexed": false,
          "internalType": "uint256",
          "name": "depositId",
          "type": "uint256"
        },
        {
          "indexed": false,
          "internalType": "address",
          "name": "depositor",
          "type": "address"
        }
      ],
      "name": "DepositClosed",
      "type": "event"
    },
    {
      "anonymous": false,
      "inputs": [
        {
          "indexed": true,
          "internalType": "uint256",
          "name": "depositId",
          "type": "uint256"
        },
        {
          "indexed": true,
          "internalType": "bytes32",
          "name": "paymentMethod",
          "type": "bytes32"
        },
        {
          "indexed": true,
          "internalType": "bytes32",
          "name": "currency",
          "type": "bytes32"
        },
        {
          "indexed": false,
          "internalType": "uint256",
          "name": "minConversionRate",
          "type": "uint256"
        }
      ],
      "name": "DepositCurrencyAdded",
      "type": "event"
    },
    {
      "anonymous": false,
      "inputs": [
        {
          "indexed": true,
          "internalType": "uint256",
          "name": "depositId",
          "type": "uint256"
        },
        {
          "indexed": true,
          "internalType": "bytes32",
          "name": "paymentMethod",
          "type": "bytes32"
        },
        {
          "indexed": true,
          "internalType": "bytes32",
          "name": "currencyCode",
          "type": "bytes32"
        }
      ],
      "name": "DepositCurrencyRemoved",
      "type": "event"
    },
    {
      "anonymous": false,
      "inputs": [
        {
          "indexed": true,
          "internalType": "uint256",
          "name": "depositId",
          "type": "uint256"
        },
        {
          "indexed": true,
          "internalType": "address",
          "name": "depositor",
          "type": "address"
        }
      ],
      "name": "DepositDelegateRemoved",
      "type": "event"
    },
    {
      "anonymous": false,
      "inputs": [
        {
          "indexed": true,
          "internalType": "uint256",
          "name": "depositId",
          "type": "uint256"
        },
        {
          "indexed": true,
          "internalType": "address",
          "name": "depositor",
          "type": "address"
        },
        {
          "indexed": true,
          "internalType": "address",
          "name": "delegate",
          "type": "address"
        }
      ],
      "name": "DepositDelegateSet",
      "type": "event"
    },
    {
      "anonymous": false,
      "inputs": [
        {
          "indexed": true,
          "internalType": "uint256",
          "name": "depositId",
          "type": "uint256"
        },
        {
          "indexed": true,
          "internalType": "address",
          "name": "depositor",
          "type": "address"
        },
        {
          "indexed": false,
          "internalType": "uint256",
          "name": "amount",
          "type": "uint256"
        },
        {
          "indexed": false,
          "internalType": "uint256",
          "name": "netAdditionalAmount",
          "type": "uint256"
        }
      ],
      "name": "DepositFundsAdded",
      "type": "event"
    },
    {
      "anonymous": false,
      "inputs": [
        {
          "indexed": true,
          "internalType": "uint256",
          "name": "depositId",
          "type": "uint256"
        },
        {
          "components": [
            {
              "internalType": "uint256",
              "name": "min",
              "type": "uint256"
            },
            {
              "internalType": "uint256",
              "name": "max",
              "type": "uint256"
            }
          ],
          "indexed": false,
          "internalType": "struct IEscrow.Range",
          "name": "intentAmountRange",
          "type": "tuple"
        }
      ],
      "name": "DepositIntentAmountRangeUpdated",
      "type": "event"
    },
    {
      "anonymous": false,
      "inputs": [
        {
          "indexed": true,
          "internalType": "uint256",
          "name": "depositId",
          "type": "uint256"
        },
        {
          "indexed": true,
          "internalType": "bytes32",
          "name": "paymentMethod",
          "type": "bytes32"
        },
        {
          "indexed": true,
          "internalType": "bytes32",
          "name": "currency",
          "type": "bytes32"
        },
        {
          "indexed": false,
          "internalType": "uint256",
          "name": "newMinConversionRate",
          "type": "uint256"
        }
      ],
      "name": "DepositMinConversionRateUpdated",
      "type": "event"
    },
    {
      "anonymous": false,
      "inputs": [
        {
          "indexed": true,
          "internalType": "uint256",
          "name": "depositId",
          "type": "uint256"
        },
        {
          "indexed": true,
          "internalType": "bytes32",
          "name": "paymentMethod",
          "type": "bytes32"
        },
        {
          "indexed": true,
          "internalType": "bytes32",
          "name": "payeeDetails",
          "type": "bytes32"
        },
        {
          "indexed": false,
          "internalType": "address",
          "name": "intentGatingService",
          "type": "address"
        }
      ],
      "name": "DepositPaymentMethodAdded",
      "type": "event"
    },
    {
      "anonymous": false,
      "inputs": [
        {
          "indexed": true,
          "internalType": "uint256",
          "name": "depositId",
          "type": "uint256"
        },
        {
          "indexed": true,
          "internalType": "bytes32",
          "name": "paymentMethod",
          "type": "bytes32"
        }
      ],
      "name": "DepositPaymentMethodRemoved",
      "type": "event"
    },
    {
      "anonymous": false,
      "inputs": [
        {
          "indexed": true,
          "internalType": "uint256",
          "name": "depositId",
          "type": "uint256"
        },
        {
          "indexed": true,
          "internalType": "address",
          "name": "depositor",
          "type": "address"
        },
        {
          "indexed": true,
          "internalType": "contract IERC20",
          "name": "token",
          "type": "address"
        },
        {
          "indexed": false,
          "internalType": "uint256",
          "name": "amount",
          "type": "uint256"
        },
        {
          "indexed": false,
          "internalType": "uint256",
          "name": "netDepositAmount",
          "type": "uint256"
        },
        {
          "components": [
            {
              "internalType": "uint256",
              "name": "min",
              "type": "uint256"
            },
            {
              "internalType": "uint256",
              "name": "max",
              "type": "uint256"
            }
          ],
          "indexed": false,
          "internalType": "struct IEscrow.Range",
          "name": "intentAmountRange",
          "type": "tuple"
        },
        {
          "indexed": false,
          "internalType": "address",
          "name": "delegate",
          "type": "address"
        },
        {
          "indexed": false,
          "internalType": "address",
          "name": "intentGuardian",
          "type": "address"
        }
      ],
      "name": "DepositReceived",
      "type": "event"
    },
    {
      "anonymous": false,
      "inputs": [
        {
          "indexed": true,
          "internalType": "uint256",
          "name": "depositId",
          "type": "uint256"
        },
        {
          "indexed": true,
          "internalType": "address",
          "name": "depositor",
          "type": "address"
        },
        {
          "indexed": false,
          "internalType": "uint256",
          "name": "amount",
          "type": "uint256"
        },
        {
          "indexed": false,
          "internalType": "bool",
          "name": "acceptingIntents",
          "type": "bool"
        }
      ],
      "name": "DepositWithdrawn",
      "type": "event"
    },
    {
      "anonymous": false,
      "inputs": [
        {
          "indexed": true,
          "internalType": "uint256",
          "name": "depositId",
          "type": "uint256"
        },
        {
          "indexed": false,
          "internalType": "uint256",
          "name": "dustAmount",
          "type": "uint256"
        },
        {
          "indexed": true,
          "internalType": "address",
          "name": "makerFeeRecipient",
          "type": "address"
        }
      ],
      "name": "DustCollected",
      "type": "event"
    },
    {
      "anonymous": false,
      "inputs": [
        {
          "indexed": false,
          "internalType": "uint256",
          "name": "dustThreshold",
          "type": "uint256"
        }
      ],
      "name": "DustThresholdUpdated",
      "type": "event"
    },
    {
      "anonymous": false,
      "inputs": [
        {
          "indexed": true,
          "internalType": "uint256",
          "name": "depositId",
          "type": "uint256"
        },
        {
          "indexed": true,
          "internalType": "bytes32",
          "name": "intentHash",
          "type": "bytes32"
        },
        {
          "indexed": false,
          "internalType": "uint256",
          "name": "amount",
          "type": "uint256"
        },
        {
          "indexed": false,
          "internalType": "uint256",
          "name": "expiryTime",
          "type": "uint256"
        }
      ],
      "name": "FundsLocked",
      "type": "event"
    },
    {
      "anonymous": false,
      "inputs": [
        {
          "indexed": true,
          "internalType": "uint256",
          "name": "depositId",
          "type": "uint256"
        },
        {
          "indexed": true,
          "internalType": "bytes32",
          "name": "intentHash",
          "type": "bytes32"
        },
        {
          "indexed": false,
          "internalType": "uint256",
          "name": "amount",
          "type": "uint256"
        }
      ],
      "name": "FundsUnlocked",
      "type": "event"
    },
    {
      "anonymous": false,
      "inputs": [
        {
          "indexed": true,
          "internalType": "uint256",
          "name": "depositId",
          "type": "uint256"
        },
        {
          "indexed": true,
          "internalType": "bytes32",
          "name": "intentHash",
          "type": "bytes32"
        },
        {
          "indexed": false,
          "internalType": "uint256",
          "name": "unlockedAmount",
          "type": "uint256"
        },
        {
          "indexed": false,
          "internalType": "uint256",
          "name": "transferredAmount",
          "type": "uint256"
        },
        {
          "indexed": false,
          "internalType": "uint256",
          "name": "makerFees",
          "type": "uint256"
        },
        {
          "indexed": false,
          "internalType": "uint256",
          "name": "referrerFees",
          "type": "uint256"
        },
        {
          "indexed": false,
          "internalType": "address",
          "name": "to",
          "type": "address"
        }
      ],
      "name": "FundsUnlockedAndTransferred",
      "type": "event"
    },
    {
      "anonymous": false,
      "inputs": [
        {
          "indexed": false,
          "internalType": "uint256",
          "name": "intentExpirationPeriod",
          "type": "uint256"
        }
      ],
      "name": "IntentExpirationPeriodUpdated",
      "type": "event"
    },
    {
      "anonymous": false,
      "inputs": [
        {
          "indexed": true,
          "internalType": "uint256",
          "name": "depositId",
          "type": "uint256"
        },
        {
          "indexed": true,
          "internalType": "bytes32",
          "name": "intentHash",
          "type": "bytes32"
        },
        {
          "indexed": false,
          "internalType": "uint256",
          "name": "newExpiryTime",
          "type": "uint256"
        }
      ],
      "name": "IntentExpiryExtended",
      "type": "event"
    },
    {
      "anonymous": false,
      "inputs": [
        {
          "indexed": true,
          "internalType": "address",
          "name": "makerFeeRecipient",
          "type": "address"
        }
      ],
      "name": "MakerFeeRecipientUpdated",
      "type": "event"
    },
    {
      "anonymous": false,
      "inputs": [
        {
          "indexed": true,
          "internalType": "uint256",
          "name": "depositId",
          "type": "uint256"
        },
        {
          "indexed": false,
          "internalType": "uint256",
          "name": "collectedFees",
          "type": "uint256"
        },
        {
          "indexed": true,
          "internalType": "address",
          "name": "makerFeeRecipient",
          "type": "address"
        }
      ],
      "name": "MakerFeesCollected",
      "type": "event"
    },
    {
      "anonymous": false,
      "inputs": [
        {
          "indexed": false,
          "internalType": "uint256",
          "name": "makerProtocolFee",
          "type": "uint256"
        }
      ],
      "name": "MakerProtocolFeeUpdated",
      "type": "event"
    },
    {
      "anonymous": false,
      "inputs": [
        {
          "indexed": false,
          "internalType": "uint256",
          "name": "maxIntentsPerDeposit",
          "type": "uint256"
        }
      ],
      "name": "MaxIntentsPerDepositUpdated",
      "type": "event"
    },
    {
      "anonymous": false,
      "inputs": [
        {
          "indexed": false,
          "internalType": "uint256",
          "name": "minDepositAmount",
          "type": "uint256"
        }
      ],
      "name": "MinDepositAmountSet",
      "type": "event"
    },
    {
      "anonymous": false,
      "inputs": [
        {
          "indexed": true,
          "internalType": "address",
          "name": "orchestrator",
          "type": "address"
        }
      ],
      "name": "OrchestratorUpdated",
      "type": "event"
    },
    {
      "anonymous": false,
      "inputs": [
        {
          "indexed": true,
          "internalType": "address",
          "name": "previousOwner",
          "type": "address"
        },
        {
          "indexed": true,
          "internalType": "address",
          "name": "newOwner",
          "type": "address"
        }
      ],
      "name": "OwnershipTransferred",
      "type": "event"
    },
    {
      "anonymous": false,
      "inputs": [
        {
          "indexed": false,
          "internalType": "address",
          "name": "account",
          "type": "address"
        }
      ],
      "name": "Paused",
      "type": "event"
    },
    {
      "anonymous": false,
      "inputs": [
        {
          "indexed": true,
          "internalType": "address",
          "name": "paymentVerifierRegistry",
          "type": "address"
        }
      ],
      "name": "PaymentVerifierRegistryUpdated",
      "type": "event"
    },
    {
      "anonymous": false,
      "inputs": [
        {
          "indexed": true,
          "internalType": "uint256",
          "name": "depositId",
          "type": "uint256"
        },
        {
          "indexed": false,
          "internalType": "uint256",
          "name": "collectedFees",
          "type": "uint256"
        },
        {
          "indexed": true,
          "internalType": "address",
          "name": "referrer",
          "type": "address"
        }
      ],
      "name": "ReferrerFeesCollected",
      "type": "event"
    },
    {
      "anonymous": false,
      "inputs": [
        {
          "indexed": false,
          "internalType": "address",
          "name": "account",
          "type": "address"
        }
      ],
      "name": "Unpaused",
      "type": "event"
    },
    {
      "inputs": [
        {
          "internalType": "uint256",
          "name": "_depositId",
          "type": "uint256"
        },
        {
          "internalType": "bytes32",
          "name": "_paymentMethod",
          "type": "bytes32"
        },
        {
          "components": [
            {
              "internalType": "bytes32",
              "name": "code",
              "type": "bytes32"
            },
            {
              "internalType": "uint256",
              "name": "minConversionRate",
              "type": "uint256"
            }
          ],
          "internalType": "struct IEscrow.Currency[]",
          "name": "_currencies",
          "type": "tuple[]"
        }
      ],
      "name": "addCurrenciesToDepositPaymentMethod",
      "outputs": [],
      "stateMutability": "nonpayable",
      "type": "function"
    },
    {
      "inputs": [
        {
          "internalType": "uint256",
          "name": "_depositId",
          "type": "uint256"
        },
        {
          "internalType": "uint256",
          "name": "_amount",
          "type": "uint256"
        }
      ],
      "name": "addFundsToDeposit",
      "outputs": [],
      "stateMutability": "nonpayable",
      "type": "function"
    },
    {
      "inputs": [
        {
          "internalType": "uint256",
          "name": "_depositId",
          "type": "uint256"
        },
        {
          "internalType": "bytes32[]",
          "name": "_paymentMethods",
          "type": "bytes32[]"
        },
        {
          "components": [
            {
              "internalType": "address",
              "name": "intentGatingService",
              "type": "address"
            },
            {
              "internalType": "bytes32",
              "name": "payeeDetails",
              "type": "bytes32"
            },
            {
              "internalType": "bytes",
              "name": "data",
              "type": "bytes"
            }
          ],
          "internalType": "struct IEscrow.DepositPaymentMethodData[]",
          "name": "_paymentMethodData",
          "type": "tuple[]"
        },
        {
          "components": [
            {
              "internalType": "bytes32",
              "name": "code",
              "type": "bytes32"
            },
            {
              "internalType": "uint256",
              "name": "minConversionRate",
              "type": "uint256"
            }
          ],
          "internalType": "struct IEscrow.Currency[][]",
          "name": "_currencies",
          "type": "tuple[][]"
        }
      ],
      "name": "addPaymentMethodsToDeposit",
      "outputs": [],
      "stateMutability": "nonpayable",
      "type": "function"
    },
    {
      "inputs": [],
      "name": "chainId",
      "outputs": [
        {
          "internalType": "uint256",
          "name": "",
          "type": "uint256"
        }
      ],
      "stateMutability": "view",
      "type": "function"
    },
    {
      "inputs": [
        {
          "components": [
            {
              "internalType": "contract IERC20",
              "name": "token",
              "type": "address"
            },
            {
              "internalType": "uint256",
              "name": "amount",
              "type": "uint256"
            },
            {
              "components": [
                {
                  "internalType": "uint256",
                  "name": "min",
                  "type": "uint256"
                },
                {
                  "internalType": "uint256",
                  "name": "max",
                  "type": "uint256"
                }
              ],
              "internalType": "struct IEscrow.Range",
              "name": "intentAmountRange",
              "type": "tuple"
            },
            {
              "internalType": "bytes32[]",
              "name": "paymentMethods",
              "type": "bytes32[]"
            },
            {
              "components": [
                {
                  "internalType": "address",
                  "name": "intentGatingService",
                  "type": "address"
                },
                {
                  "internalType": "bytes32",
                  "name": "payeeDetails",
                  "type": "bytes32"
                },
                {
                  "internalType": "bytes",
                  "name": "data",
                  "type": "bytes"
                }
              ],
              "internalType": "struct IEscrow.DepositPaymentMethodData[]",
              "name": "paymentMethodData",
              "type": "tuple[]"
            },
            {
              "components": [
                {
                  "internalType": "bytes32",
                  "name": "code",
                  "type": "bytes32"
                },
                {
                  "internalType": "uint256",
                  "name": "minConversionRate",
                  "type": "uint256"
                }
              ],
              "internalType": "struct IEscrow.Currency[][]",
              "name": "currencies",
              "type": "tuple[][]"
            },
            {
              "internalType": "address",
              "name": "delegate",
              "type": "address"
            },
            {
              "internalType": "address",
              "name": "intentGuardian",
              "type": "address"
            },
            {
              "internalType": "address",
              "name": "referrer",
              "type": "address"
            },
            {
              "internalType": "uint256",
              "name": "referrerFee",
              "type": "uint256"
            }
          ],
          "internalType": "struct IEscrow.CreateDepositParams",
          "name": "_params",
          "type": "tuple"
        }
      ],
      "name": "createDeposit",
      "outputs": [],
      "stateMutability": "nonpayable",
      "type": "function"
    },
    {
      "inputs": [],
      "name": "depositCounter",
      "outputs": [
        {
          "internalType": "uint256",
          "name": "",
          "type": "uint256"
        }
      ],
      "stateMutability": "view",
      "type": "function"
    },
    {
      "inputs": [],
      "name": "dustThreshold",
      "outputs": [
        {
          "internalType": "uint256",
          "name": "",
          "type": "uint256"
        }
      ],
      "stateMutability": "view",
      "type": "function"
    },
    {
      "inputs": [
        {
          "internalType": "uint256",
          "name": "_depositId",
          "type": "uint256"
        },
        {
          "internalType": "bytes32",
          "name": "_intentHash",
          "type": "bytes32"
        },
        {
          "internalType": "uint256",
          "name": "_additionalTime",
          "type": "uint256"
        }
      ],
      "name": "extendIntentExpiry",
      "outputs": [],
      "stateMutability": "nonpayable",
      "type": "function"
    },
    {
      "inputs": [
        {
          "internalType": "address",
          "name": "_account",
          "type": "address"
        }
      ],
      "name": "getAccountDeposits",
      "outputs": [
        {
          "internalType": "uint256[]",
          "name": "",
          "type": "uint256[]"
        }
      ],
      "stateMutability": "view",
      "type": "function"
    },
    {
      "inputs": [
        {
          "internalType": "uint256",
          "name": "_depositId",
          "type": "uint256"
        }
      ],
      "name": "getDeposit",
      "outputs": [
        {
          "components": [
            {
              "internalType": "address",
              "name": "depositor",
              "type": "address"
            },
            {
              "internalType": "address",
              "name": "delegate",
              "type": "address"
            },
            {
              "internalType": "contract IERC20",
              "name": "token",
              "type": "address"
            },
            {
              "internalType": "uint256",
              "name": "amount",
              "type": "uint256"
            },
            {
              "components": [
                {
                  "internalType": "uint256",
                  "name": "min",
                  "type": "uint256"
                },
                {
                  "internalType": "uint256",
                  "name": "max",
                  "type": "uint256"
                }
              ],
              "internalType": "struct IEscrow.Range",
              "name": "intentAmountRange",
              "type": "tuple"
            },
            {
              "internalType": "bool",
              "name": "acceptingIntents",
              "type": "bool"
            },
            {
              "internalType": "uint256",
              "name": "remainingDeposits",
              "type": "uint256"
            },
            {
              "internalType": "uint256",
              "name": "outstandingIntentAmount",
              "type": "uint256"
            },
            {
              "internalType": "uint256",
              "name": "makerProtocolFee",
              "type": "uint256"
            },
            {
              "internalType": "uint256",
              "name": "reservedMakerFees",
              "type": "uint256"
            },
            {
              "internalType": "uint256",
              "name": "accruedMakerFees",
              "type": "uint256"
            },
            {
              "internalType": "uint256",
              "name": "accruedReferrerFees",
              "type": "uint256"
            },
            {
              "internalType": "address",
              "name": "intentGuardian",
              "type": "address"
            },
            {
              "internalType": "address",
              "name": "referrer",
              "type": "address"
            },
            {
              "internalType": "uint256",
              "name": "referrerFee",
              "type": "uint256"
            }
          ],
          "internalType": "struct IEscrow.Deposit",
          "name": "",
          "type": "tuple"
        }
      ],
      "stateMutability": "view",
      "type": "function"
    },
    {
      "inputs": [
        {
          "internalType": "uint256",
          "name": "_depositId",
          "type": "uint256"
        },
        {
          "internalType": "bytes32",
          "name": "_paymentMethod",
          "type": "bytes32"
        }
      ],
      "name": "getDepositCurrencies",
      "outputs": [
        {
          "internalType": "bytes32[]",
          "name": "",
          "type": "bytes32[]"
        }
      ],
      "stateMutability": "view",
      "type": "function"
    },
    {
      "inputs": [
        {
          "internalType": "uint256",
          "name": "_depositId",
          "type": "uint256"
        },
        {
          "internalType": "bytes32",
          "name": "_paymentMethod",
          "type": "bytes32"
        },
        {
          "internalType": "bytes32",
          "name": "_currencyCode",
          "type": "bytes32"
        }
      ],
      "name": "getDepositCurrencyMinRate",
      "outputs": [
        {
          "internalType": "uint256",
          "name": "",
          "type": "uint256"
        }
      ],
      "stateMutability": "view",
      "type": "function"
    },
    {
      "inputs": [
        {
          "internalType": "uint256",
          "name": "_depositId",
          "type": "uint256"
        },
        {
          "internalType": "bytes32",
          "name": "_intentHash",
          "type": "bytes32"
        }
      ],
      "name": "getDepositIntent",
      "outputs": [
        {
          "components": [
            {
              "internalType": "bytes32",
              "name": "intentHash",
              "type": "bytes32"
            },
            {
              "internalType": "uint256",
              "name": "amount",
              "type": "uint256"
            },
            {
              "internalType": "uint256",
              "name": "timestamp",
              "type": "uint256"
            },
            {
              "internalType": "uint256",
              "name": "expiryTime",
              "type": "uint256"
            }
          ],
          "internalType": "struct IEscrow.Intent",
          "name": "",
          "type": "tuple"
        }
      ],
      "stateMutability": "view",
      "type": "function"
    },
    {
      "inputs": [
        {
          "internalType": "uint256",
          "name": "_depositId",
          "type": "uint256"
        }
      ],
      "name": "getDepositIntentHashes",
      "outputs": [
        {
          "internalType": "bytes32[]",
          "name": "",
          "type": "bytes32[]"
        }
      ],
      "stateMutability": "view",
      "type": "function"
    },
    {
      "inputs": [
        {
          "internalType": "uint256",
          "name": "_depositId",
          "type": "uint256"
        },
        {
          "internalType": "bytes32",
          "name": "_paymentMethod",
          "type": "bytes32"
        }
      ],
      "name": "getDepositPaymentMethodData",
      "outputs": [
        {
          "components": [
            {
              "internalType": "address",
              "name": "intentGatingService",
              "type": "address"
            },
            {
              "internalType": "bytes32",
              "name": "payeeDetails",
              "type": "bytes32"
            },
            {
              "internalType": "bytes",
              "name": "data",
              "type": "bytes"
            }
          ],
          "internalType": "struct IEscrow.DepositPaymentMethodData",
          "name": "",
          "type": "tuple"
        }
      ],
      "stateMutability": "view",
      "type": "function"
    },
    {
      "inputs": [
        {
          "internalType": "uint256",
          "name": "_depositId",
          "type": "uint256"
        }
      ],
      "name": "getDepositPaymentMethods",
      "outputs": [
        {
          "internalType": "bytes32[]",
          "name": "",
          "type": "bytes32[]"
        }
      ],
      "stateMutability": "view",
      "type": "function"
    },
    {
      "inputs": [
        {
          "internalType": "uint256",
          "name": "_depositId",
          "type": "uint256"
        }
      ],
      "name": "getExpiredIntents",
      "outputs": [
        {
          "internalType": "bytes32[]",
          "name": "expiredIntents",
          "type": "bytes32[]"
        },
        {
          "internalType": "uint256",
          "name": "reclaimedAmount",
          "type": "uint256"
        }
      ],
      "stateMutability": "view",
      "type": "function"
    },
    {
      "inputs": [],
      "name": "intentExpirationPeriod",
      "outputs": [
        {
          "internalType": "uint256",
          "name": "",
          "type": "uint256"
        }
      ],
      "stateMutability": "view",
      "type": "function"
    },
    {
      "inputs": [
        {
          "internalType": "uint256",
          "name": "_depositId",
          "type": "uint256"
        },
        {
          "internalType": "bytes32",
          "name": "_intentHash",
          "type": "bytes32"
        },
        {
          "internalType": "uint256",
          "name": "_amount",
          "type": "uint256"
        }
      ],
      "name": "lockFunds",
      "outputs": [],
      "stateMutability": "nonpayable",
      "type": "function"
    },
    {
      "inputs": [],
      "name": "makerFeeRecipient",
      "outputs": [
        {
          "internalType": "address",
          "name": "",
          "type": "address"
        }
      ],
      "stateMutability": "view",
      "type": "function"
    },
    {
      "inputs": [],
      "name": "makerProtocolFee",
      "outputs": [
        {
          "internalType": "uint256",
          "name": "",
          "type": "uint256"
        }
      ],
      "stateMutability": "view",
      "type": "function"
    },
    {
      "inputs": [],
      "name": "maxIntentsPerDeposit",
      "outputs": [
        {
          "internalType": "uint256",
          "name": "",
          "type": "uint256"
        }
      ],
      "stateMutability": "view",
      "type": "function"
    },
    {
      "inputs": [],
      "name": "orchestrator",
      "outputs": [
        {
          "internalType": "contract IOrchestrator",
          "name": "",
          "type": "address"
        }
      ],
      "stateMutability": "view",
      "type": "function"
    },
    {
      "inputs": [],
      "name": "owner",
      "outputs": [
        {
          "internalType": "address",
          "name": "",
          "type": "address"
        }
      ],
      "stateMutability": "view",
      "type": "function"
    },
    {
      "inputs": [],
      "name": "pauseEscrow",
      "outputs": [],
      "stateMutability": "nonpayable",
      "type": "function"
    },
    {
      "inputs": [],
      "name": "paused",
      "outputs": [
        {
          "internalType": "bool",
          "name": "",
          "type": "bool"
        }
      ],
      "stateMutability": "view",
      "type": "function"
    },
    {
      "inputs": [],
      "name": "paymentVerifierRegistry",
      "outputs": [
        {
          "internalType": "contract IPaymentVerifierRegistry",
          "name": "",
          "type": "address"
        }
      ],
      "stateMutability": "view",
      "type": "function"
    },
    {
      "inputs": [
        {
          "internalType": "uint256",
          "name": "_depositId",
          "type": "uint256"
        }
      ],
      "name": "pruneExpiredIntents",
      "outputs": [],
      "stateMutability": "nonpayable",
      "type": "function"
    },
    {
      "inputs": [
        {
          "internalType": "uint256",
          "name": "_depositId",
          "type": "uint256"
        },
        {
          "internalType": "bytes32",
          "name": "_paymentMethod",
          "type": "bytes32"
        },
        {
          "internalType": "bytes32",
          "name": "_currencyCode",
          "type": "bytes32"
        }
      ],
      "name": "removeCurrencyFromDepositPaymentMethod",
      "outputs": [],
      "stateMutability": "nonpayable",
      "type": "function"
    },
    {
      "inputs": [
        {
          "internalType": "uint256",
          "name": "_depositId",
          "type": "uint256"
        }
      ],
      "name": "removeDepositDelegate",
      "outputs": [],
      "stateMutability": "nonpayable",
      "type": "function"
    },
    {
      "inputs": [
        {
          "internalType": "uint256",
          "name": "_depositId",
          "type": "uint256"
        },
        {
          "internalType": "uint256",
          "name": "_amount",
          "type": "uint256"
        }
      ],
      "name": "removeFundsFromDeposit",
      "outputs": [],
      "stateMutability": "nonpayable",
      "type": "function"
    },
    {
      "inputs": [
        {
          "internalType": "uint256",
          "name": "_depositId",
          "type": "uint256"
        },
        {
          "internalType": "bytes32",
          "name": "_paymentMethod",
          "type": "bytes32"
        }
      ],
      "name": "removePaymentMethodFromDeposit",
      "outputs": [],
      "stateMutability": "nonpayable",
      "type": "function"
    },
    {
      "inputs": [],
      "name": "renounceOwnership",
      "outputs": [],
      "stateMutability": "nonpayable",
      "type": "function"
    },
    {
      "inputs": [
        {
          "internalType": "uint256",
          "name": "_depositId",
          "type": "uint256"
        },
        {
          "internalType": "bool",
          "name": "_acceptingIntents",
          "type": "bool"
        }
      ],
      "name": "setDepositAcceptingIntents",
      "outputs": [],
      "stateMutability": "nonpayable",
      "type": "function"
    },
    {
      "inputs": [
        {
          "internalType": "uint256",
          "name": "_depositId",
          "type": "uint256"
        },
        {
          "internalType": "address",
          "name": "_delegate",
          "type": "address"
        }
      ],
      "name": "setDepositDelegate",
      "outputs": [],
      "stateMutability": "nonpayable",
      "type": "function"
    },
    {
      "inputs": [
        {
          "internalType": "uint256",
          "name": "_dustThreshold",
          "type": "uint256"
        }
      ],
      "name": "setDustThreshold",
      "outputs": [],
      "stateMutability": "nonpayable",
      "type": "function"
    },
    {
      "inputs": [
        {
          "internalType": "uint256",
          "name": "_intentExpirationPeriod",
          "type": "uint256"
        }
      ],
      "name": "setIntentExpirationPeriod",
      "outputs": [],
      "stateMutability": "nonpayable",
      "type": "function"
    },
    {
      "inputs": [
        {
          "internalType": "address",
          "name": "_makerFeeRecipient",
          "type": "address"
        }
      ],
      "name": "setMakerFeeRecipient",
      "outputs": [],
      "stateMutability": "nonpayable",
      "type": "function"
    },
    {
      "inputs": [
        {
          "internalType": "uint256",
          "name": "_makerProtocolFee",
          "type": "uint256"
        }
      ],
      "name": "setMakerProtocolFee",
      "outputs": [],
      "stateMutability": "nonpayable",
      "type": "function"
    },
    {
      "inputs": [
        {
          "internalType": "uint256",
          "name": "_maxIntentsPerDeposit",
          "type": "uint256"
        }
      ],
      "name": "setMaxIntentsPerDeposit",
      "outputs": [],
      "stateMutability": "nonpayable",
      "type": "function"
    },
    {
      "inputs": [
        {
          "internalType": "address",
          "name": "_orchestrator",
          "type": "address"
        }
      ],
      "name": "setOrchestrator",
      "outputs": [],
      "stateMutability": "nonpayable",
      "type": "function"
    },
    {
      "inputs": [
        {
          "internalType": "address",
          "name": "_paymentVerifierRegistry",
          "type": "address"
        }
      ],
      "name": "setPaymentVerifierRegistry",
      "outputs": [],
      "stateMutability": "nonpayable",
      "type": "function"
    },
    {
      "inputs": [
        {
          "internalType": "address",
          "name": "newOwner",
          "type": "address"
        }
      ],
      "name": "transferOwnership",
      "outputs": [],
      "stateMutability": "nonpayable",
      "type": "function"
    },
    {
      "inputs": [
        {
          "internalType": "uint256",
          "name": "_depositId",
          "type": "uint256"
        },
        {
          "internalType": "bytes32",
          "name": "_intentHash",
          "type": "bytes32"
        },
        {
          "internalType": "uint256",
          "name": "_transferAmount",
          "type": "uint256"
        },
        {
          "internalType": "address",
          "name": "_to",
          "type": "address"
        }
      ],
      "name": "unlockAndTransferFunds",
      "outputs": [],
      "stateMutability": "nonpayable",
      "type": "function"
    },
    {
      "inputs": [
        {
          "internalType": "uint256",
          "name": "_depositId",
          "type": "uint256"
        },
        {
          "internalType": "bytes32",
          "name": "_intentHash",
          "type": "bytes32"
        }
      ],
      "name": "unlockFunds",
      "outputs": [],
      "stateMutability": "nonpayable",
      "type": "function"
    },
    {
      "inputs": [],
      "name": "unpauseEscrow",
      "outputs": [],
      "stateMutability": "nonpayable",
      "type": "function"
    },
    {
      "inputs": [
        {
          "internalType": "uint256",
          "name": "_depositId",
          "type": "uint256"
        },
        {
          "components": [
            {
              "internalType": "uint256",
              "name": "min",
              "type": "uint256"
            },
            {
              "internalType": "uint256",
              "name": "max",
              "type": "uint256"
            }
          ],
          "internalType": "struct IEscrow.Range",
          "name": "_intentAmountRange",
          "type": "tuple"
        }
      ],
      "name": "updateDepositIntentAmountRange",
      "outputs": [],
      "stateMutability": "nonpayable",
      "type": "function"
    },
    {
      "inputs": [
        {
          "internalType": "uint256",
          "name": "_depositId",
          "type": "uint256"
        },
        {
          "internalType": "bytes32",
          "name": "_paymentMethod",
          "type": "bytes32"
        },
        {
          "internalType": "bytes32",
          "name": "_fiatCurrency",
          "type": "bytes32"
        },
        {
          "internalType": "uint256",
          "name": "_newMinConversionRate",
          "type": "uint256"
        }
      ],
      "name": "updateDepositMinConversionRate",
      "outputs": [],
      "stateMutability": "nonpayable",
      "type": "function"
    },
    {
      "inputs": [
        {
          "internalType": "uint256",
          "name": "_depositId",
          "type": "uint256"
        }
      ],
      "name": "withdrawDeposit",
      "outputs": [],
      "stateMutability": "nonpayable",
      "type": "function"
    }
  ],
  "transactionHash": "0x5796ce76d18412d5caa541966e7809f681476eb31ce3a9f8fe974e318620c5ff",
  "args": [
    "0x84e113087C97Cd80eA9D78983D4B8Ff61ECa1929",
    84532,
    "0x251b544f0fBFF4D55aCb02dF17F6A9bB19861062",
    "0",
    "0x84e113087C97Cd80eA9D78983D4B8Ff61ECa1929",
    "100000",
    200,
    "3600"
  ],
  "numDeployments": 1,
  "solcInputHash": "aef08870d3f91cb961cac0c2a62c44a9",
  "bytecode": "0x60a06040523480156200001157600080fd5b5060405162004d4b38038062004d4b8339810160408190526200003491620001fc565b6200003f33620000ae565b6000805460ff60a01b191690556080879052600280546001600160a01b038089166001600160a01b031992831617909255600c879055600d805492871692909116919091179055600e839055600f8290556010819055620000a088620000fe565b505050505050505062000277565b600080546001600160a01b038381166001600160a01b0319831681178455604051919092169283917f8be0079c531659141344cd1fd0a4f28419497f9722a3daafe3b4186f6b6457e09190a35050565b6200010862000181565b6001600160a01b038116620001735760405162461bcd60e51b815260206004820152602660248201527f4f776e61626c653a206e6577206f776e657220697320746865207a65726f206160448201526564647265737360d01b60648201526084015b60405180910390fd5b6200017e81620000ae565b50565b6000546001600160a01b03163314620001dd5760405162461bcd60e51b815260206004820181905260248201527f4f776e61626c653a2063616c6c6572206973206e6f7420746865206f776e657260448201526064016200016a565b565b80516001600160a01b0381168114620001f757600080fd5b919050565b600080600080600080600080610100898b0312156200021a57600080fd5b6200022589620001df565b9750602089015196506200023c60408a01620001df565b9550606089015194506200025360808a01620001df565b935060a0890151925060c0890151915060e089015190509295985092959890939650565b608051614ab862000293600039600061054d0152614ab86000f3fe608060405234801561001057600080fd5b50600436106102bb5760003560e01c80638da5cb5b11610182578063c846d073116100e9578063e8462e8f116100a2578063eb14f6691161007c578063eb14f669146106af578063ecb3dc88146106c2578063f2fde38b146106cb578063f9176206146106de57600080fd5b8063e8462e8f14610680578063e9788d7414610689578063ea94a1c71461069c57600080fd5b8063c846d0731461060e578063c84b5cf914610621578063cd28ef0d14610634578063d695860214610647578063d8f91ba51461065a578063e7433b6e1461066d57600080fd5b8063a1a954b71161013b578063a1a954b714610598578063ad7e55ba146105a1578063ad805482146105b4578063af8ee836146105c7578063b74795d9146105da578063c1ce1cde146105ed57600080fd5b80638da5cb5b1461051c57806395fe9a5e1461052d57806396825358146105355780639a8a0592146105485780639f9fb9681461056f578063a16087d21461058f57600080fd5b8063432e707b116102265780636ea22869116101df5780636ea2286914610482578063715018a61461049557806381ceb7351461049d578063891a14a9146104b05780638b519551146104c35780638d08e550146104d657600080fd5b8063432e707b146103f65780634adc43f8146104095780634de088ff146104125780635081d952146104255780635c975abb1461044557806368b9646e1461046257600080fd5b806333289a461161027857806333289a461461038f5780633420cf24146103a257806337a6b5e2146103b55780633abb7c06146103bd578063407c8d43146103d057806342987349146103e357600080fd5b80630812b581146102c057806309207525146102d557806317192c29146102e857806320d8005a14610311578063277166f5146103515780632d43b48414610364575b600080fd5b6102d36102ce3660046140c1565b6106f1565b005b6102d36102e33660046140f1565b6107bb565b6102fb6102f636600461411d565b610a33565b604051610308919061418f565b60405180910390f35b61034361031f3660046140f1565b60009283526006602090815260408085209385529281528284209184525290205490565b604051908152602001610308565b6102d361035f36600461411d565b610b27565b600d54610377906001600160a01b031681565b6040516001600160a01b039091168152602001610308565b6102d361039d3660046141c6565b610c75565b6102d36103b03660046141c6565b610dfe565b6102d3610eb7565b6102d36103cb3660046141c6565b610ec9565b6102d36103de3660046141df565b610ee5565b6102d36103f13660046141c6565b61119d565b6102d361040436600461411d565b611202565b610343600c5481565b6102d36104203660046141c6565b611364565b610438610433366004614220565b6113c2565b6040516103089190614244565b600054600160a01b900460ff166040519015158152602001610308565b6104756104703660046141c6565b61142e565b60405161030891906142c3565b6102d36104903660046142d6565b61148e565b6102d3611977565b600254610377906001600160a01b031681565b6102d36104be36600461411d565b611989565b6102d36104d1366004614312565b611b3a565b6104e96104e436600461411d565b611c78565b60405161030891908151815260208083015190820152604080830151908201526060918201519181019190915260800190565b6000546001600160a01b0316610377565b6102d3611cf2565b6102d361054336600461434a565b611d02565b6103437f000000000000000000000000000000000000000000000000000000000000000081565b61058261057d3660046141c6565b611e39565b60405161030891906143cd565b610343600f5481565b61034360105481565b6102d36105af3660046141c6565b611fb7565b6104756105c236600461411d565b612024565b6102d36105d53660046140f1565b61208f565b600154610377906001600160a01b031681565b6106006105fb3660046141c6565b612225565b6040516103089291906144e1565b6102d361061c3660046141c6565b61223b565b6102d361062f3660046140f1565b6122b0565b6102d3610642366004614220565b61242e565b6102d361065536600461411d565b6124a7565b6102d3610668366004614511565b612640565b61047561067b3660046141c6565b61278a565b610343600e5481565b6102d3610697366004614536565b6127ea565b6102d36106aa3660046145ad565b612945565b6102d36106bd366004614220565b6129dd565b610343600b5481565b6102d36106d9366004614220565b612a56565b6102d36106ec366004614220565b612acc565b600082815260086020526040902080546001600160a01b0316331461074257805460405163536dd9ef60e01b81526107399133916001600160a01b0390911690600401614651565b60405180910390fd5b6001600160a01b0382166107695760405163d92e233d60e01b815260040160405180910390fd5b6001810180546001600160a01b0319166001600160a01b038416908117909155604051339085907f177e76a486c6b85fe60246345e71d615cb0c8448a2290461819040cafdbfe71a90600090a4505050565b6001546001600160a01b031633146107f75760015460405163536dd9ef60e01b81526107399133916001600160a01b0390911690600401614651565b600083815260086020526040902080546001600160a01b031661083057604051631585bdab60e31b815260048101859052602401610739565b600681015460ff16610858576040516333b4460d60e11b815260048101859052602401610739565b600481015482101561088a576004818101546040516338fcec4360e01b81529182018490526024820152604401610739565b60058101548211156108bf576005810154604051637e53d67d60e11b8152610739918491600401918252602082015260400190565b60008481526009602052604090205460078201548311806108e25750600f548110155b15610939576108f2828685612b45565b50600084815260096020526040902054600f54811061093957600f546040516344d2ea2360e01b815260048101879052602481018390526044810191909152606401610739565b8282600701600082825461094d9190614681565b92505081905550828260080160008282546109689190614694565b90915550506000858152600960209081526040822080546001810182559083529082200185905560105461099c9042614694565b604080516080810182528781526020808201888152428385019081526060840186815260008d8152600a85528681208d825285528690209451855591516001850155516002840155516003909201919091558151878152908101839052919250869188917fb40d75557428cec6806c7ebb58634796f8a5870a0874bcd0d299328b5518665b910160405180910390a3505050505050565b604080516060808201835260008083526020808401829052838501839052868252600481528482208683528152908490208451928301855280546001600160a01b03168352600181015491830191909152600281018054939492939192840191610a9c906146a7565b80601f0160208091040260200160405190810160405280929190818152602001828054610ac8906146a7565b8015610b155780601f10610aea57610100808354040283529160200191610b15565b820191906000526020600020905b815481529060010190602001808311610af857829003601f168201915b50505050508152505090505b92915050565b610b2f612bdf565b600082815260086020526040902080546001600160a01b03163314610b7757805460405163536dd9ef60e01b81526107399133916001600160a01b0390911690600401614651565b81600003610b9857604051637c946ed760e01b815260040160405180910390fd5b8181600701541015610baf57610baf818484612b45565b81816003016000828254610bc39190614681565b9250508190555081816007016000828254610bde9190614681565b9091555050600681015460ff168015610bfe575060048101546007820154105b15610c105760068101805460ff191690555b60068101546040805184815260ff90921615156020830152339185917ff166a4b8f8ccdf7c44ee5fc7db601bed0ea7cbabf0aad7a8df3e4773de26c6c7910160405180910390a36002810154610c70906001600160a01b03163384612c2c565b505050565b600081815260086020526040902080546001600160a01b03163314610cbd57805460405163536dd9ef60e01b81526107399133916001600160a01b0390911690600401614651565b600080610cc984612c8f565b91509150610cd78483612e20565b600083600c015484600b015485600a0154610cf29190614681565b610cfc9190614681565b9050600081838660070154610d119190614694565b610d1b9190614694565b9050610d278686612f62565b610d318686612fe0565b60028501546008860180546001600160a01b0390921691859190600090610d59908490614681565b909155505060006007870181905560068701805460ff19169055600b8701819055600c870181905586546040805185815260208101939093526001600160a01b039091169189917ff166a4b8f8ccdf7c44ee5fc7db601bed0ea7cbabf0aad7a8df3e4773de26c6c7910160405180910390a38560080154600003610de157610de18787613059565b610df56001600160a01b0382163384612c2c565b50505050505050565b600081815260086020526040902080546001600160a01b03163314610e4657805460405163536dd9ef60e01b81526107399133916001600160a01b0390911690600401614651565b60018101546001600160a01b0316610e7457604051632dd920ef60e01b815260048101839052602401610739565b6001810180546001600160a01b0319169055604051339083907fa8461c8fb28662d101f3bf3eb596a71303b9c564229ee651fba61bc142ecbf9990600090a35050565b610ebf613169565b610ec76131c3565b565b6000818152600860205260408120610ee2918390612b45565b50565b6001546001600160a01b03163314610f215760015460405163536dd9ef60e01b81526107399133916001600160a01b0390911690600401614651565b6000848152600860209081526040808320600a835281842087855283529281902081516080810183528154815260018201549381019390935260028101549183019190915260030154606082015281546001600160a01b0316610f9a57604051631585bdab60e31b815260048101879052602401610739565b8051610fbc57604051639481f8b960e01b815260048101869052602401610739565b83600003610fdd57604051637c946ed760e01b815260040160405180910390fd5b80602001518411156110125760208101516040516368d9260360e01b8152610739918691600401918252602082015260400190565b60008060008460090154111561106157670de0b6b3a764000084600901548761103b91906146e1565b61104591906146f8565b91508184600b01600082825461105b9190614694565b90915550505b600f840154156110aa57670de0b6b3a764000084600f01548761108491906146e1565b61108e91906146f8565b90508084600c0160008282546110a49190614694565b90915550505b82602001518460080160008282546110c29190614681565b909155505060208301518610156110fc578583602001516110e39190614681565b8460070160008282546110f69190614694565b90915550505b6111068888613218565b60028401546001600160a01b031661111e898661325c565b60208085015160408051918252918101899052908101849052606081018390526001600160a01b038716608082015288908a907f6dbf53407bcd47aca0cfeba90ede22088256bf9b28578eba2a7a0dd355253ba19060a00160405180910390a36111926001600160a01b0382168789612c2c565b505050505050505050565b6111a5613169565b806000036111c657604051637c946ed760e01b815260040160405180910390fd5b60108190556040518181527f084016fbffe5e2f11ac2b66a265f9d57ae10335d188ff1ca7d9d1efb35b71e0f906020015b60405180910390a150565b6001546001600160a01b0316331461123e5760015460405163536dd9ef60e01b81526107399133916001600160a01b0390911690600401614651565b6000828152600860209081526040808320600a835281842085855283529281902081516080810183528154815260018201549381019390935260028101549183019190915260030154606082015281546001600160a01b03166112b757604051631585bdab60e31b815260048101859052602401610739565b80516112d957604051639481f8b960e01b815260048101849052602401610739565b80602001518260070160008282546112f19190614694565b9091555050602081015160088301805460009061130f908490614681565b9091555061131f90508484613218565b82847f683f6606eec92f04a68f1797d32d15f840b9b3d410a8ec9b4fdab4c30813796d836020015160405161135691815260200190565b60405180910390a350505050565b61136c613169565b8060000361138d57604051637c946ed760e01b815260040160405180910390fd5b600f8190556040518181527f079e53dc927596d8e1015cfdf0b2e3135c2e06774fa76e2e4bff009fd030d7a2906020016111f7565b6001600160a01b03811660009081526003602090815260409182902080548351818402810184019094528084526060939283018282801561142257602002820191906000526020600020905b81548152602001906001019080831161140e575b50505050509050919050565b600081815260096020908152604091829020805483518184028101840190945280845260609392830182828015611422576020028201919060005260206000209081548152602001906001019080831161140e5750505050509050919050565b611496612bdf565b60408101356000036114bb576040516314d323eb60e21b815260040160405180910390fd5b6060810135604082013511156114f45760408051632457cde760e01b815290820135600482015260608201356024820152604401610739565b66b1a2bc2ec5000081610140013511156115355760405163037664ab60e21b8152610140820135600482015266b1a2bc2ec500006024820152604401610739565b600061154961014083016101208401614220565b6001600160a01b0316148015611563575061014081013515155b1561158057604051625daeb360e91b815260040160405180910390fd5b600c54600090156115bd57670de0b6b3a7640000600c5483602001356115a691906146e1565b6115b091906146f8565b6115ba9082614694565b90505b610140820135156115fb57670de0b6b3a76400006115e461014084013560208501356146e1565b6115ee91906146f8565b6115f89082614694565b90505b600061160b826020850135614681565b9050604083013581101561163f57604080516338fcec4360e01b815260048101839052908401356024820152604401610739565b600b8054600091826116508361471a565b9091555033600081815260036020908152604080832080546001810182559084529282902090920184905581516101e08101909252918152919250810161169e610100870160e08801614220565b6001600160a01b031681526020908101906116bb90870187614220565b6001600160a01b0316815260200185602001358152602001856040018036038101906116e79190614780565b815260200160011515815260200183815260200160008152602001600c5481526020018481526020016000815260200160008152602001856101000160208101906117329190614220565b6001600160a01b0316815260200161175261014087016101208801614220565b6001600160a01b0390811682526101408088013560209384015260008581526008808552604091829020865181549086166001600160a01b0319918216178255878701516001830180549188169183169190911790559287015160028201805491871691851691909117905560608701516003820155608087015180516004830155860151600582015560a087015160068201805491151560ff1990921691909117905560c0870151600782015560e0870151918101919091556101008601516009820155610120860151600a82015591850151600b830155610160850151600c830155610180850151600d830180549185169183169190911790556101a0850151600e83018054919094169116179091556101c090920151600f9092019190915561188090850185614220565b6001600160a01b031633827f2d8a585fa7275c25192f78ab81ed5de85aaf0afc02cbd6356160473fe59e243d60208801358660408a016118c76101008c0160e08d01614220565b6118d96101208d016101008e01614220565b60408051958652602080870195909552833590860152929091013560608401526001600160a01b0390811660808401521660a082015260c00160405180910390a461194a8161192b60808701876147b2565b61193860a08901896147b2565b61194560c08b018b6147b2565b613353565b6119713330602087018035906119609089614220565b6001600160a01b03169291906136c6565b50505050565b61197f613169565b610ec760006136fe565b611991612bdf565b600082815260086020526040902080548391906001600160a01b03163314806119dd575060018101546001600160a01b0316158015906119dd575060018101546001600160a01b031633145b611a125780546001820154604051639a313e5960e01b81526107399233926001600160a01b03918216929116906004016147fc565b6000848152600460209081526040808320868452909152902060010154611a5657604051630900b7e560e21b81526004810185905260248101849052604401610739565b6000848152600560205260409020611a6e908461374e565b60008481526007602090815260408083208684529091528120905b8154811015611ae3576000828281548110611aa657611aa661481f565b60009182526020808320909101548983526006825260408084208a8552835280842091845291528120555080611adb8161471a565b915050611a89565b5060008581526007602090815260408083208784529091528120611b069161403f565b604051849086907ff9edde644ec5573d64528a7c29f08992338481abee107068e917b8938655528190600090a35050505050565b611b42612bdf565b600082815260086020526040902080548391906001600160a01b0316331480611b8e575060018101546001600160a01b031615801590611b8e575060018101546001600160a01b031633145b611bc35780546001820154604051639a313e5960e01b81526107399233926001600160a01b03918216929116906004016147fc565b60008481526008602052604081209084359003611bf3576040516314d323eb60e21b815260040160405180910390fd5b602084013584351115611c2657604051632457cde760e01b81528435600482015260208501356024820152604401610739565b833560048201556020840135600582015560405185907fdf91c8dff53bac50f3157cba47dee1c65eeeafe480d9f529e9db0c5bc4a9ba3990611c69908790614835565b60405180910390a25050505050565b611ca66040518060800160405280600080191681526020016000815260200160008152602001600081525090565b506000918252600a602090815260408084209284529181529181902081516080810183528154815260018201549381019390935260028101549183019190915260030154606082015290565b611cfa613169565b610ec7613876565b611d0a612bdf565b600084815260086020526040902080548591906001600160a01b0316331480611d56575060018101546001600160a01b031615801590611d56575060018101546001600160a01b031633145b611d8b5780546001820154604051639a313e5960e01b81526107399233926001600160a01b03918216929116906004016147fc565b600086815260046020908152604080832088845290915290206001015480611dd057604051630900b7e560e21b81526004810188905260248101879052604401610739565b60005b84811015611e2f57611e1d8888888885818110611df257611df261481f565b90506040020160000135898986818110611e0e57611e0e61481f565b905060400201602001356138b9565b80611e278161471a565b915050611dd3565b5050505050505050565b611ed5604080516101e08101825260008082526020808301829052828401829052606083018290528351808501909452818452830152906080820190815260200160001515815260200160008152602001600081526020016000815260200160008152602001600081526020016000815260200160006001600160a01b0316815260200160006001600160a01b03168152602001600081525090565b5060009081526008602081815260409283902083516101e08101855281546001600160a01b03908116825260018301548116828501526002830154811682870152600383015460608301528551808701909652600483015486526005830154938601939093526080810194909452600681015460ff16151560a0850152600781015460c08501529182015460e08401526009820154610100840152600a820154610120840152600b820154610140840152600c820154610160840152600d8201548116610180840152600e820154166101a0830152600f01546101c082015290565b611fbf613169565b620f4240811115611fef57604051637e53d67d60e11b815260048101829052620f42406024820152604401610739565b600e8190556040518181527f4514c31bd13e0eecf1250995ffc6e6fb3eaec9377d728cc3325b3c87a58a323a906020016111f7565b600082815260076020908152604080832084845282529182902080548351818402810184019094528084526060939283018282801561208257602002820191906000526020600020905b81548152602001906001019080831161206e575b5050505050905092915050565b612097612bdf565b600083815260086020526040902080548491906001600160a01b03163314806120e3575060018101546001600160a01b0316158015906120e3575060018101546001600160a01b031633145b6121185780546001820154604051639a313e5960e01b81526107399233926001600160a01b03918216929116906004016147fc565b60008581526004602090815260408083208784529091529020600101548061215d57604051630900b7e560e21b81526004810187905260248101869052604401610739565b60008681526006602090815260408083208884528252808320878452909152812054908190036121aa57604051630dca536360e41b81526004810187905260248101869052604401610739565b600087815260076020908152604080832089845290915290206121cd908661374e565b6000878152600660209081526040808320898452825280832088845290915280822082905551869188918a917f3615392519247c1af2b0eb1d02817d8ed7170072f59dd9f67637190becb175d291a450505050505050565b6060600061223283612c8f565b91509150915091565b612243613169565b66b1a2bc2ec5000081111561227b57604051637e53d67d60e11b81526004810182905266b1a2bc2ec500006024820152604401610739565b600c8190556040518181527f1c2f54f036b3e1aa8653a459b08c14d2e057aa9c3a5faa400edb66603d9a4372906020016111f7565b6000838152600860209081526040808320600a835281842086855290925290912081546001600160a01b03166122fc57604051631585bdab60e31b815260048101869052602401610739565b805461231e57604051639481f8b960e01b815260048101859052602401610739565b600d8201546001600160a01b0316331461235e57600d82015460405163536dd9ef60e01b81526107399133916001600160a01b0390911690600401614651565b8260000361237f57604051637c946ed760e01b815260040160405180910390fd5b6206978081600201546123929190614694565b8382600301546123a29190614694565b11156123cd57604051637e53d67d60e11b815260048101849052620697806024820152604401610739565b828160030160008282546123e19190614694565b9250508190555083857f25d8768b3a9457fb1df954be09208c92c28109be47542d0eb8726e83ab48c5c7836003015460405161241f91815260200190565b60405180910390a35050505050565b612436613169565b6001600160a01b03811661245d5760405163d92e233d60e01b815260040160405180910390fd5b600180546001600160a01b0319166001600160a01b0383169081179091556040517fdde46f8c71b67178c4fdd3cd7e4a49fac7292e29d2bb2ef7d2b9819be1fb890a90600090a250565b6124af612bdf565b600082815260086020526040902080546001600160a01b031633146124f757805460405163536dd9ef60e01b81526107399133916001600160a01b0390911690600401614651565b8160000361251857604051637c946ed760e01b815260040160405180910390fd5b60008060008360090154111561254e57670de0b6b3a764000083600901548561254191906146e1565b61254b91906146f8565b91505b600f8301541561257e57670de0b6b3a764000083600f01548561257191906146e1565b61257b91906146f8565b90505b600061258a8284614694565b905060006125988287614681565b9050858560030160008282546125ae9190614694565b92505081905550808560070160008282546125c99190614694565b925050819055508185600a0160008282546125e49190614694565b90915550506040805187815260208101839052339189917fc0f59959c6147d4c3c64cb5064ba9892a630e39bf1c760a2311514abdae33438910160405180910390a36002850154610df5906001600160a01b03163330896136c6565b612648612bdf565b600082815260086020526040902080548391906001600160a01b0316331480612694575060018101546001600160a01b031615801590612694575060018101546001600160a01b031633145b6126c95780546001820154604051639a313e5960e01b81526107399233926001600160a01b03918216929116906004016147fc565b6000848152600860205260409020600681015484151560ff90911615150361270f576040516358efc88160e01b8152600481018690528415156024820152604401610739565b80600701546000036127455760405163c3df48f360e01b8152600481018690526000602482015260016044820152606401610739565b60068101805460ff191685151590811790915560405190815285907f184e3738774b2dc98019706750a38aeb01148b3b0c263e9b3374288835adc07d90602001611c69565b600081815260056020908152604091829020805483518184028101840190945280845260609392830182828015611422576020028201919060005260206000209081548152602001906001019080831161140e5750505050509050919050565b6127f2612bdf565b600084815260086020526040902080548591906001600160a01b031633148061283e575060018101546001600160a01b03161580159061283e575060018101546001600160a01b031633145b6128735780546001820154604051639a313e5960e01b81526107399233926001600160a01b03918216929116906004016147fc565b60008681526006602090815260408083208884528252808320878452909152812054908190036128c057604051636bb6647d60e11b81526004810187905260248101869052604401610739565b836000036128e15760405163123d7ce760e11b815260040160405180910390fd5b600087815260066020908152604080832089845282528083208884528252918290208690559051858152869188918a917fd12c0bb04d0c36c3143ef1c16a65cddd4ec064708de79e997d96e86f3bbd1597910160405180910390a450505050505050565b61294d612bdf565b600087815260086020526040902080548891906001600160a01b0316331480612999575060018101546001600160a01b031615801590612999575060018101546001600160a01b031633145b6129ce5780546001820154604051639a313e5960e01b81526107399233926001600160a01b03918216929116906004016147fc565b61119289898989898989613353565b6129e5613169565b6001600160a01b038116612a0c5760405163d92e233d60e01b815260040160405180910390fd5b600280546001600160a01b0319166001600160a01b0383169081179091556040517fe94f9ee78059bc733bb08fb7b593ad1873182fd795acdaefe39664192e20288290600090a250565b612a5e613169565b6001600160a01b038116612ac35760405162461bcd60e51b815260206004820152602660248201527f4f776e61626c653a206e6577206f776e657220697320746865207a65726f206160448201526564647265737360d01b6064820152608401610739565b610ee2816136fe565b612ad4613169565b6001600160a01b038116612afb5760405163d92e233d60e01b815260040160405180910390fd5b600d80546001600160a01b0319166001600160a01b0383169081179091556040517fb17d0f94214468d231763642efa720a144bf1b18ebab313a4eb474d158957a8e90600090a250565b600080612b5184612c8f565b60078701549193509150612b658282614694565b905083811015612b995760405163c3df48f360e01b8152600481018690526024810182905260448101859052606401610739565b612ba38584612e20565b81866007016000828254612bb79190614694565b9250508190555081866008016000828254612bd29190614681565b9091555050505050505050565b600054600160a01b900460ff1615610ec75760405162461bcd60e51b815260206004820152601060248201526f14185d5cd8589b194e881c185d5cd95960821b6044820152606401610739565b6040516001600160a01b038316602482015260448101829052610c7090849063a9059cbb60e01b906064015b60408051601f198184030181529190526020810180516001600160e01b03166001600160e01b031990931692909217909152613a4c565b60008181526009602090815260408083208054825181850281018501909352808352606094938493929190830182828015612ce957602002820191906000526020600020905b815481526020019060010190808311612cd5575b50505050509050805167ffffffffffffffff811115612d0a57612d0a614733565b604051908082528060200260200182016040528015612d33578160200160208202803683370190505b50925060005b8151811015612e19576000858152600a6020526040812083518290859085908110612d6657612d6661481f565b6020026020010151815260200190815260200160002060405180608001604052908160008201548152602001600182015481526020016002820154815260200160038201548152505090504281606001511015612e0857828281518110612dcf57612dcf61481f565b6020026020010151858381518110612de957612de961481f565b602002602001018181525050806020015184612e059190614694565b93505b50612e128161471a565b9050612d39565b5050915091565b600154604051632cc410dd60e01b81526001600160a01b0390911690632cc410dd90612e509084906004016142c3565b600060405180830381600087803b158015612e6a57600080fd5b505af1925050508015612e7b575060015b5060005b8151811015610c70576000838152600a6020526040812083518290859085908110612eac57612eac61481f565b6020026020010151815260200190815260200160002060405180608001604052908160008201548152602001600182015481526020016002820154815260200160038201548152505090506000801b816000015114612f4f57612f13848260000151613218565b805160208083015160405190815286917f683f6606eec92f04a68f1797d32d15f840b9b3d410a8ec9b4fdab4c30813796d910160405180910390a35b5080612f5a8161471a565b915050612e7f565b600b81015415612fdc57600d54600b8201546002830154612f91926001600160a01b0391821692911690612c2c565b600d54600b8201546040519081526001600160a01b039091169083907ff7aa3dedfefb5cb523229619f17a50a7f31686da29a7f0404c03893a528ca49d906020015b60405180910390a35b5050565b600c81015415612fdc57600e810154600c8201546002830154613011926001600160a01b0391821692911690612c2c565b600e810154600c8201546040519081526001600160a01b039091169083907f7bd165ab634d14ac2ffecb9d1b5edab3c35b90bcc9af591f193f089316b6f88590602001612fd3565b80546001600160a01b0316600081815260036020526040902061307c9084613b21565b61308583613bc6565b600083815260086020818152604080842080546001600160a01b03199081168255600182018054821690556002820180548216905560038201869055600482018690556005820186905560068201805460ff191690556007820186905593810185905560098101859055600a8101859055600b8101859055600c8101859055600d8101805485169055600e81018054909416909355600f9092019290925580518581526001600160a01b038416928101929092527f8ac07cc6e38c6222dd0309c80353c1962354bacf222b825d7401cc80e93ff3cc910160405180910390a1505050565b6000546001600160a01b03163314610ec75760405162461bcd60e51b815260206004820181905260248201527f4f776e61626c653a2063616c6c6572206973206e6f7420746865206f776e65726044820152606401610739565b6131cb613dac565b6000805460ff60a01b191690557f5db9ee0a495bf2e6ff9c91a7834c1ba4fdd244a5e8aa4e537bd38aeae4b073aa335b6040516001600160a01b03909116815260200160405180910390a1565b6000828152600a602090815260408083208484528252808320838155600181018490556002810184905560030183905584835260099091529020612fdc908261374e565b80600701546000036132755760068101805460ff191690555b600081600c015482600b015483600a01546132909190614681565b61329a9190614681565b905060008183600701546132ae9190614694565b9050826008015460001480156132c65750600e548111155b15611971576132d58484612f62565b6132df8484612fe0565b801561334957600d546002840154613304916001600160a01b03918216911683612c2c565b600d546040518281526001600160a01b039091169085907f3e73fc0f76c9d35dff306ff859166692f079fb15a5686aa4997177493cc5562f9060200160405180910390a35b6119718484613059565b84831461337d57604051631f4bb7c160e31b81526004810186905260248101849052604401610739565b8481146133a757604051631f4bb7c160e31b81526004810186905260248101829052604401610739565b60005b85811015611e2f5760008787838181106133c6576133c661481f565b602002919091013591508190506133f05760405163d92e233d60e01b815260040160405180910390fd5b600254604051634839762760e11b8152600481018390526001600160a01b0390911690639072ec4e90602401602060405180830381865afa158015613439573d6000803e3d6000fd5b505050506040513d601f19601f8201168201806040525081019061345d919061484c565b61347d5760405163060f97e560e01b815260048101829052602401610739565b60008686848181106134915761349161481f565b90506020028101906134a39190614869565b60200135036134c557604051635fd1a61d60e11b815260040160405180910390fd5b60008981526004602090815260408083208484529091529020600101541561350a5760405163de5a6b7360e01b8152600481018a905260248101829052604401610739565b85858381811061351c5761351c61481f565b905060200281019061352e9190614869565b60008a8152600460209081526040808320858452909152902061355182826148d7565b50506000898152600560209081526040822080546001810182559083529120018190558585838181106135865761358661481f565b90506020028101906135989190614869565b60200135818a7f70bc150f4694f93722b39f936610105e3af883bc610a906afc7750c9c286e4ec8989878181106135d1576135d161481f565b90506020028101906135e39190614869565b6135f1906020810190614220565b6040516001600160a01b03909116815260200160405180910390a460005b8484848181106136215761362161481f565b905060200281019061363391906149fd565b90508110156136b15760008585858181106136505761365061481f565b905060200281019061366291906149fd565b838181106136725761367261481f565b9050604002018036038101906136889190614780565b905061369e8b84836000015184602001516138b9565b50806136a98161471a565b91505061360f565b505080806136be9061471a565b9150506133aa565b6040516001600160a01b03808516602483015283166044820152606481018290526119719085906323b872dd60e01b90608401612c58565b600080546001600160a01b038381166001600160a01b0319831681178455604051919092169283917f8be0079c531659141344cd1fd0a4f28419497f9722a3daafe3b4186f6b6457e09190a35050565b6000806137aa8480548060200260200160405190810160405280929190818152602001828054801561379f57602002820191906000526020600020905b81548152602001906001019080831161378b575b505050505084613dfc565b91509150806137f35760405162461bcd60e51b8152602060048201526015602482015274313cba32b99999103737ba1034b71030b93930bc9760591b6044820152606401610739565b835460009061380490600190614681565b90508083146138495784818154811061381f5761381f61481f565b906000526020600020015485848154811061383c5761383c61481f565b6000918252602090912001555b8480548061385957613859614a47565b600190038181906000526020600020016000905590555050505050565b61387e612bdf565b6000805460ff60a01b1916600160a01b1790557f62e78cea01bee320cd4e420270b5ea74000d11b0c9f74754ebdbfc544b05a2586131fb3390565b6002546040516354e7105560e11b815260048101859052602481018490526001600160a01b039091169063a9ce20aa90604401602060405180830381865afa158015613909573d6000803e3d6000fd5b505050506040513d601f19601f8201168201806040525081019061392d919061484c565b61395457604051636bb6647d60e11b81526004810184905260248101839052604401610739565b806000036139755760405163123d7ce760e11b815260040160405180910390fd5b60008481526006602090815260408083208684528252808320858452909152902054156139bf5760405163ce83125960e01b81526004810184905260248101839052604401610739565b60008481526006602090815260408083208684528252808320858452825280832084905586835260078252808320868452825280832080546001810182559084529190922001839055518290849086907f4eb2088b4fe1a7bcb1a232b3842804fd8290524696748bc7cc886d137fde155490613a3e9086815260200190565b60405180910390a450505050565b6000613aa1826040518060400160405280602081526020017f5361666545524332303a206c6f772d6c6576656c2063616c6c206661696c6564815250856001600160a01b0316613e5f9092919063ffffffff16565b9050805160001480613ac2575080806020019051810190613ac2919061484c565b610c705760405162461bcd60e51b815260206004820152602a60248201527f5361666545524332303a204552433230206f7065726174696f6e20646964206e6044820152691bdd081cdd58d8d9595960b21b6064820152608401610739565b600080613b7d84805480602002602001604051908101604052809291908181526020018280548015613b7257602002820191906000526020600020905b815481526020019060010190808311613b5e575b505050505084613e76565b91509150806137f35760405162461bcd60e51b81526020600482015260156024820152743ab4b73a191a9b103737ba1034b71030b93930bc9760591b6044820152606401610739565b600081815260056020908152604080832080548251818502810185019093528083529192909190830182828015613c1c57602002820191906000526020600020905b815481526020019060010190808311613c08575b5050505050905060005b8151811015613d94576000828281518110613c4357613c4361481f565b602090810291909101810151600086815260048352604080822083835290935291822080546001600160a01b03191681556001810183905590925090613c8c600283018261405d565b50506000848152600760209081526040808320848452825280832080548251818502810185019093528083529192909190830182828015613cec57602002820191906000526020600020905b815481526020019060010190808311613cd8575b5050505050905060005b8151811015613d5c57600086815260066020908152604080832086845290915281208351909190849084908110613d2f57613d2f61481f565b60200260200101518152602001908152602001600020600090558080613d549061471a565b915050613cf6565b5060008581526007602090815260408083208584529091528120613d7f9161403f565b50508080613d8c9061471a565b915050613c26565b506000828152600560205260408120612fdc9161403f565b600054600160a01b900460ff16610ec75760405162461bcd60e51b815260206004820152601460248201527314185d5cd8589b194e881b9bdd081c185d5cd95960621b6044820152606401610739565b81516000908190815b81811015613e4c5784868281518110613e2057613e2061481f565b602002602001015103613e3a57925060019150613e589050565b80613e448161471a565b915050613e05565b50600019600092509250505b9250929050565b6060613e6e8484600085613ec6565b949350505050565b81516000908190815b81811015613e4c5784868281518110613e9a57613e9a61481f565b602002602001015103613eb457925060019150613e589050565b80613ebe8161471a565b915050613e7f565b606082471015613f275760405162461bcd60e51b815260206004820152602660248201527f416464726573733a20696e73756666696369656e742062616c616e636520666f6044820152651c8818d85b1b60d21b6064820152608401610739565b600080866001600160a01b03168587604051613f439190614a5d565b60006040518083038185875af1925050503d8060008114613f80576040519150601f19603f3d011682016040523d82523d6000602084013e613f85565b606091505b5091509150613f9687838387613fa1565b979650505050505050565b60608315614010578251600003614009576001600160a01b0385163b6140095760405162461bcd60e51b815260206004820152601d60248201527f416464726573733a2063616c6c20746f206e6f6e2d636f6e74726163740000006044820152606401610739565b5081613e6e565b613e6e83838151156140255781518083602001fd5b8060405162461bcd60e51b81526004016107399190614a6f565b5080546000825590600052602060002090810190610ee29190614093565b508054614069906146a7565b6000825580601f10614079575050565b601f016020900490600052602060002090810190610ee291905b5b808211156140a85760008155600101614094565b5090565b6001600160a01b0381168114610ee257600080fd5b600080604083850312156140d457600080fd5b8235915060208301356140e6816140ac565b809150509250929050565b60008060006060848603121561410657600080fd5b505081359360208301359350604090920135919050565b6000806040838503121561413057600080fd5b50508035926020909101359150565b60005b8381101561415a578181015183820152602001614142565b50506000910152565b6000815180845261417b81602086016020860161413f565b601f01601f19169290920160200192915050565b6020815260018060a01b0382511660208201526020820151604082015260006040830151606080840152613e6e6080840182614163565b6000602082840312156141d857600080fd5b5035919050565b600080600080608085870312156141f557600080fd5b8435935060208501359250604085013591506060850135614215816140ac565b939692955090935050565b60006020828403121561423257600080fd5b813561423d816140ac565b9392505050565b6020808252825182820181905260009190848201906040850190845b8181101561427c57835183529284019291840191600101614260565b50909695505050505050565b600081518084526020808501945080840160005b838110156142b85781518752958201959082019060010161429c565b509495945050505050565b60208152600061423d6020830184614288565b6000602082840312156142e857600080fd5b813567ffffffffffffffff8111156142ff57600080fd5b8201610160818503121561423d57600080fd5b600080828403606081121561432657600080fd5b833592506040601f198201121561433c57600080fd5b506020830190509250929050565b6000806000806060858703121561436057600080fd5b8435935060208501359250604085013567ffffffffffffffff8082111561438657600080fd5b818701915087601f83011261439a57600080fd5b8135818111156143a957600080fd5b8860208260061b85010111156143be57600080fd5b95989497505060200194505050565b81516001600160a01b03168152610200810160208301516143f960208401826001600160a01b03169052565b50604083015161441460408401826001600160a01b03169052565b5060608301516060830152608083015161443b608084018280518252602090810151910152565b5060a083015180151560c08401525060c083015160e08381019190915283015161010080840191909152830151610120808401919091528301516101408084019190915283015161016080840191909152830151610180808401919091528301516101a06144b3818501836001600160a01b03169052565b84015190506101c06144cf848201836001600160a01b03169052565b808501516101e0850152505092915050565b6040815260006144f46040830185614288565b90508260208301529392505050565b8015158114610ee257600080fd5b6000806040838503121561452457600080fd5b8235915060208301356140e681614503565b6000806000806080858703121561454c57600080fd5b5050823594602084013594506040840135936060013592509050565b60008083601f84011261457a57600080fd5b50813567ffffffffffffffff81111561459257600080fd5b6020830191508360208260051b8501011115613e5857600080fd5b60008060008060008060006080888a0312156145c857600080fd5b87359650602088013567ffffffffffffffff808211156145e757600080fd5b6145f38b838c01614568565b909850965060408a013591508082111561460c57600080fd5b6146188b838c01614568565b909650945060608a013591508082111561463157600080fd5b5061463e8a828b01614568565b989b979a50959850939692959293505050565b6001600160a01b0392831681529116602082015260400190565b634e487b7160e01b600052601160045260246000fd5b81810381811115610b2157610b2161466b565b80820180821115610b2157610b2161466b565b600181811c908216806146bb57607f821691505b6020821081036146db57634e487b7160e01b600052602260045260246000fd5b50919050565b8082028115828204841417610b2157610b2161466b565b60008261471557634e487b7160e01b600052601260045260246000fd5b500490565b60006001820161472c5761472c61466b565b5060010190565b634e487b7160e01b600052604160045260246000fd5b6040805190810167ffffffffffffffff8111828210171561477a57634e487b7160e01b600052604160045260246000fd5b60405290565b60006040828403121561479257600080fd5b61479a614749565b82358152602083013560208201528091505092915050565b6000808335601e198436030181126147c957600080fd5b83018035915067ffffffffffffffff8211156147e457600080fd5b6020019150600581901b3603821315613e5857600080fd5b6001600160a01b0393841681529183166020830152909116604082015260600190565b634e487b7160e01b600052603260045260246000fd5b813581526020808301359082015260408101610b21565b60006020828403121561485e57600080fd5b815161423d81614503565b60008235605e1983360301811261487f57600080fd5b9190910192915050565b601f821115610c7057600081815260208120601f850160051c810160208610156148b05750805b601f850160051c820191505b818110156148cf578281556001016148bc565b505050505050565b81356148e2816140ac565b81546001600160a01b0319166001600160a01b03919091161781556020828101356001838101919091559060028301604085013536869003601e1901811261492957600080fd5b8501803567ffffffffffffffff81111561494257600080fd5b803603848301131561495357600080fd5b6149678161496185546146a7565b85614889565b6000601f82116001811461499d576000831561498557508382018601355b600019600385901b1c1916600184901b178555611192565b600085815260209020601f19841690835b828110156149cd578685018901358255938801939089019088016149ae565b50848210156149ec5760001960f88660031b161c198885880101351681555b50505050841b909301905550505050565b6000808335601e19843603018112614a1457600080fd5b83018035915067ffffffffffffffff821115614a2f57600080fd5b6020019150600681901b3603821315613e5857600080fd5b634e487b7160e01b600052603160045260246000fd5b6000825161487f81846020870161413f565b60208152600061423d602083018461416356fea2646970667358221220383aa3b22ef4e5a2eb9c3b6060654e43684218e06d2c96b062c1df5a3b70444d64736f6c63430008120033",
  "devdoc": {
    "events": {
      "Paused(address)": {
        "details": "Emitted when the pause is triggered by `account`."
      },
      "Unpaused(address)": {
        "details": "Emitted when the pause is lifted by `account`."
      }
    },
    "kind": "dev",
    "methods": {
      "addCurrenciesToDepositPaymentMethod(uint256,bytes32,(bytes32,uint256)[])": {
        "details": "WARNING: Adding excessive currencies may cause withdrawal to exceed gas limits. Depositors can remove entries individually if needed. Recommended: <50 currencies per payment method.",
        "params": {
          "_currencies": "The currencies to add (code and conversion rate)",
          "_depositId": "The deposit ID",
          "_paymentMethod": "The payment method"
        }
      },
      "addFundsToDeposit(uint256,uint256)": {
        "params": {
          "_amount": "The amount of tokens to add",
          "_depositId": "The deposit ID to add funds to"
        }
      },
      "addPaymentMethodsToDeposit(uint256,bytes32[],(address,bytes32,bytes)[],(bytes32,uint256)[][])": {
        "details": "WARNING: Adding excessive payment methods or currencies may cause withdrawal to exceed gas limits. Depositors can remove entries individually if needed. Recommended: <10 payment methods, <50 currencies each.",
        "params": {
          "_currencies": "The currencies for the payment methods",
          "_depositId": "The deposit ID",
          "_paymentMethodData": "The payment verification data for the payment methods",
          "_paymentMethods": "The payment methods to add"
        }
      },
      "extendIntentExpiry(uint256,bytes32,uint256)": {
        "params": {
          "_additionalTime": "The additional time to extend the expiry by",
          "_depositId": "The deposit ID containing the intent",
          "_intentHash": "The intent hash to extend expiry for"
        }
      },
      "lockFunds(uint256,bytes32,uint256)": {
        "params": {
          "_amount": "The amount to lock",
          "_depositId": "The deposit ID to lock funds from",
          "_intentHash": "The intent hash this intent corresponds to"
        }
      },
      "owner()": {
        "details": "Returns the address of the current owner."
      },
      "paused()": {
        "details": "Returns true if the contract is paused, and false otherwise."
      },
      "pruneExpiredIntents(uint256)": {
        "params": {
          "_depositId": "The deposit ID to prune expired intents for"
        }
      },
      "removeCurrencyFromDepositPaymentMethod(uint256,bytes32,bytes32)": {
        "params": {
          "_currencyCode": "The currency code to remove",
          "_depositId": "The deposit ID",
          "_paymentMethod": "The payment method"
        }
      },
      "removeDepositDelegate(uint256)": {
        "params": {
          "_depositId": "The deposit ID"
        }
      },
      "removeFundsFromDeposit(uint256,uint256)": {
        "params": {
          "_amount": "The amount of tokens to remove",
          "_depositId": "The deposit ID to remove funds from"
        }
      },
      "removePaymentMethodFromDeposit(uint256,bytes32)": {
        "params": {
          "_depositId": "The deposit ID",
          "_paymentMethod": "The payment method to remove"
        }
      },
      "renounceOwnership()": {
        "details": "Leaves the contract without owner. It will not be possible to call `onlyOwner` functions. Can only be called by the current owner. NOTE: Renouncing ownership will leave the contract without an owner, thereby disabling any functionality that is only available to the owner."
      },
      "setDepositAcceptingIntents(uint256,bool)": {
        "params": {
          "_acceptingIntents": "The new accepting intents state",
          "_depositId": "The deposit ID"
        }
      },
      "setDepositDelegate(uint256,address)": {
        "params": {
          "_delegate": "The address to set as delegate (address(0) to remove delegate)",
          "_depositId": "The deposit ID"
        }
      },
      "setDustThreshold(uint256)": {
        "params": {
          "_dustThreshold": "The new dust threshold amount"
        }
      },
      "setIntentExpirationPeriod(uint256)": {
        "params": {
          "_intentExpirationPeriod": "The new intent expiration period in seconds"
        }
      },
      "setMakerFeeRecipient(address)": {
        "params": {
          "_makerFeeRecipient": "The address to receive maker fees"
        }
      },
      "setMakerProtocolFee(uint256)": {
        "params": {
          "_makerProtocolFee": "The maker protocol fee in preciseUnits (1e16 = 1%)"
        }
      },
      "setMaxIntentsPerDeposit(uint256)": {
        "params": {
          "_maxIntentsPerDeposit": "The new maximum number of active intents per deposit"
        }
      },
      "setOrchestrator(address)": {
        "params": {
          "_orchestrator": "The orchestrator contract address"
        }
      },
      "setPaymentVerifierRegistry(address)": {
        "params": {
          "_paymentVerifierRegistry": "New payment verifier registry address"
        }
      },
      "transferOwnership(address)": {
        "details": "Transfers ownership of the contract to a new account (`newOwner`). Can only be called by the current owner."
      },
      "unlockAndTransferFunds(uint256,bytes32,uint256,address)": {
        "params": {
          "_depositId": "The deposit ID to transfer from",
          "_intentHash": "The intent hash to find and remove the intent for",
          "_to": "The address to transfer to (orchestrator)",
          "_transferAmount": "The amount to actually transfer (may be less than intent amount)"
        }
      },
      "unlockFunds(uint256,bytes32)": {
        "params": {
          "_depositId": "The deposit ID to unlock funds from",
          "_intentHash": "The intent hash to find and remove the intent for"
        }
      },
      "updateDepositIntentAmountRange(uint256,(uint256,uint256))": {
        "params": {
          "_depositId": "The deposit ID",
          "_intentAmountRange": "The new intent amount range"
        }
      },
      "updateDepositMinConversionRate(uint256,bytes32,bytes32,uint256)": {
        "params": {
          "_depositId": "The deposit ID",
          "_fiatCurrency": "The fiat currency code to update the min conversion rate for",
          "_newMinConversionRate": "The new min conversion rate. Must be greater than 0.",
          "_paymentMethod": "The payment method to update the min conversion rate for"
        }
      },
      "withdrawDeposit(uint256)": {
        "params": {
          "_depositId": "DepositId the depositor is attempting to withdraw"
        }
      }
    },
    "title": "Escrow",
    "version": 1
  },
  "userdoc": {
    "kind": "user",
    "methods": {
      "addCurrenciesToDepositPaymentMethod(uint256,bytes32,(bytes32,uint256)[])": {
        "notice": "Allows depositor to add a new currencies to an existing verifier for a deposit."
      },
      "addFundsToDeposit(uint256,uint256)": {
        "notice": "Adds additional funds to an existing deposit. Only the depositor can add funds. The funds will be added to the remaining deposits amount, making it available for new intents."
      },
      "addPaymentMethodsToDeposit(uint256,bytes32[],(address,bytes32,bytes)[],(bytes32,uint256)[][])": {
        "notice": "Allows depositor to add a new payment verifier and its associated currencies to an existing deposit."
      },
      "createDeposit((address,uint256,(uint256,uint256),bytes32[],(address,bytes32,bytes)[],(bytes32,uint256)[][],address,address,address,uint256))": {
        "notice": "Creates a deposit entry by locking liquidity in the escrow contract that can be taken by signaling intents. This function will  not add to previous deposits. Every deposit has it's own unique identifier. User must approve the contract to transfer the deposit amount of deposit token. Every deposit specifies the payment methods it supports by specifying their verification data, supported currencies and  their min conversion rates for each payment method. Optionally, a referrer and a referrer fee can be specified. Note that the order of the payment methods, verification data, and currency data must match."
      },
      "extendIntentExpiry(uint256,bytes32,uint256)": {
        "notice": "INTENT GUARDIAN ONLY: Extends the expiry time of an existing intent. Only callable by intent guardian. "
      },
      "lockFunds(uint256,bytes32,uint256)": {
        "notice": "ORCHESTRATOR ONLY: Locks funds for an intent with expiry time. Only callable by orchestrator."
      },
      "pauseEscrow()": {
        "notice": "GOVERNANCE ONLY: Pauses deposit modifications and new deposit creation.  Functionalities that are paused: - Deposit creation (createDeposit) - Adding/removing funds to deposits (addFundsToDeposit, removeFundsFromDeposit) - Updating deposit parameters (conversion rates, intent ranges, accepting intents state) - Adding/removing payment methods and currencies Functionalities that remain unpaused to allow users to retrieve funds: - Full deposit withdrawal (withdrawDeposit) - Delegate management (setDepositDelegate, removeDepositDelegate) - Expired intent pruning (pruneExpiredIntents) - Orchestrator operations (lockFunds, unlockFunds, unlockAndTransferFunds) - Intent expiry extensions by guardian - All view functions"
      },
      "pruneExpiredIntents(uint256)": {
        "notice": "ANYONE: Can be called by anyone to clean up expired intents. "
      },
      "removeCurrencyFromDepositPaymentMethod(uint256,bytes32,bytes32)": {
        "notice": "Allows depositor to remove an existing currency from a verifier for a deposit."
      },
      "removeDepositDelegate(uint256)": {
        "notice": "Allows depositor to remove the delegate for a specific deposit"
      },
      "removeFundsFromDeposit(uint256,uint256)": {
        "notice": "Removes funds from an existing deposit. Only the depositor can remove funds. If the amount to remove is greater than the remaining deposits, then expired intents will be pruned to reclaim liquidity. If the remaining deposits is less than the min intent amount, then the deposit will be marked as not accepting intents. Reserved maker fees remain locked until full withdrawal via withdrawDeposit()."
      },
      "removePaymentMethodFromDeposit(uint256,bytes32)": {
        "notice": "Allows depositor to remove an existing payment verifier from a deposit.  NOTE: This function does not delete the veirifier data, it only removes the verifier from the deposit."
      },
      "setDepositAcceptingIntents(uint256,bool)": {
        "notice": "Allows depositor or delegateto set the accepting intents state for a deposit."
      },
      "setDepositDelegate(uint256,address)": {
        "notice": "Allows depositor to set a delegate address that can manage a specific deposit"
      },
      "setDustThreshold(uint256)": {
        "notice": "GOVERNANCE ONLY: Sets the dust threshold below which deposits can be closed automatically."
      },
      "setIntentExpirationPeriod(uint256)": {
        "notice": "GOVERNANCE ONLY: Sets the intent expiration period."
      },
      "setMakerFeeRecipient(address)": {
        "notice": "GOVERNANCE ONLY: Sets the address that receives maker protocol fees."
      },
      "setMakerProtocolFee(uint256)": {
        "notice": "GOVERNANCE ONLY: Sets the maker protocol fee rate. This fee is charged to makers upon fulfillment of  intents."
      },
      "setMaxIntentsPerDeposit(uint256)": {
        "notice": "GOVERNANCE ONLY: Sets the maximum number of active intents per deposit."
      },
      "setOrchestrator(address)": {
        "notice": "NEW: Sets the orchestrator contract address. Only callable by owner."
      },
      "setPaymentVerifierRegistry(address)": {
        "notice": "GOVERNANCE ONLY: Updates the payment verifier registry address."
      },
      "unlockAndTransferFunds(uint256,bytes32,uint256,address)": {
        "notice": "ORCHESTRATOR ONLY: Unlocks and transfers funds from a fulfilled intent by removing the specific intent. Only callable by orchestrator. "
      },
      "unlockFunds(uint256,bytes32)": {
        "notice": "ORCHESTRATOR ONLY: Unlocks funds from a cancelled intent by removing the specific intent.  Only callable by orchestrator. "
      },
      "unpauseEscrow()": {
        "notice": "GOVERNANCE ONLY: Restarts paused functionality for the escrow."
      },
      "updateDepositIntentAmountRange(uint256,(uint256,uint256))": {
        "notice": "Allows depositor to update the intent amount range for a deposit. Since intent's are already created within the previous intent amount range, changing the intent amount range will not affect any intents that have already been signaled."
      },
      "updateDepositMinConversionRate(uint256,bytes32,bytes32,uint256)": {
        "notice": "Only callable by the depositor for a deposit. Allows depositor to update the min conversion rate for a currency for a  payment verifier. Since intent's store the conversion rate at the time of intent, changing the min conversion rate will not affect any intents that have already been signaled."
      },
      "withdrawDeposit(uint256)": {
        "notice": "Depositor is returned all remaining deposits, any outstanding intents that are expired, and unused maker fees. Only the depositor can withdraw. If an intent is not expired then those funds will not be returned. Deposit is marked as to not accept new intents and the funds locked due to intents can be withdrawn once they expire by calling this function again. Deposit will be deleted and accrued maker fees collected to protocol as long as there are no more outstanding intents."
      }
    },
    "notice": "Escrows deposits and manages deposit lifecycle.",
    "version": 1
  },
  "storageLayout": {
    "storage": [
      {
        "astId": 7,
        "contract": "contracts/Escrow.sol:Escrow",
        "label": "_owner",
        "offset": 0,
        "slot": "0",
        "type": "t_address"
      },
      {
        "astId": 144,
        "contract": "contracts/Escrow.sol:Escrow",
        "label": "_paused",
        "offset": 20,
        "slot": "0",
        "type": "t_bool"
      },
      {
        "astId": 3507,
        "contract": "contracts/Escrow.sol:Escrow",
        "label": "orchestrator",
        "offset": 0,
        "slot": "1",
        "type": "t_contract(IOrchestrator)10168"
      },
      {
        "astId": 3510,
        "contract": "contracts/Escrow.sol:Escrow",
        "label": "paymentVerifierRegistry",
        "offset": 0,
        "slot": "2",
        "type": "t_contract(IPaymentVerifierRegistry)10234"
      },
      {
        "astId": 3517,
        "contract": "contracts/Escrow.sol:Escrow",
        "label": "accountDeposits",
        "offset": 0,
        "slot": "3",
        "type": "t_mapping(t_address,t_array(t_uint256)dyn_storage)"
      },
      {
        "astId": 3524,
        "contract": "contracts/Escrow.sol:Escrow",
        "label": "depositPaymentMethodData",
        "offset": 0,
        "slot": "4",
        "type": "t_mapping(t_uint256,t_mapping(t_bytes32,t_struct(DepositPaymentMethodData)9338_storage))"
      },
      {
        "astId": 3529,
        "contract": "contracts/Escrow.sol:Escrow",
        "label": "depositPaymentMethods",
        "offset": 0,
        "slot": "5",
        "type": "t_mapping(t_uint256,t_array(t_bytes32)dyn_storage)"
      },
      {
        "astId": 3537,
        "contract": "contracts/Escrow.sol:Escrow",
        "label": "depositCurrencyMinRate",
        "offset": 0,
        "slot": "6",
        "type": "t_mapping(t_uint256,t_mapping(t_bytes32,t_mapping(t_bytes32,t_uint256)))"
      },
      {
        "astId": 3544,
        "contract": "contracts/Escrow.sol:Escrow",
        "label": "depositCurrencies",
        "offset": 0,
        "slot": "7",
        "type": "t_mapping(t_uint256,t_mapping(t_bytes32,t_array(t_bytes32)dyn_storage))"
      },
      {
        "astId": 3549,
        "contract": "contracts/Escrow.sol:Escrow",
        "label": "deposits",
        "offset": 0,
        "slot": "8",
        "type": "t_mapping(t_uint256,t_struct(Deposit)9326_storage)"
      },
      {
        "astId": 3554,
        "contract": "contracts/Escrow.sol:Escrow",
        "label": "depositIntentHashes",
        "offset": 0,
        "slot": "9",
        "type": "t_mapping(t_uint256,t_array(t_bytes32)dyn_storage)"
      },
      {
        "astId": 3561,
        "contract": "contracts/Escrow.sol:Escrow",
        "label": "depositIntents",
        "offset": 0,
        "slot": "10",
        "type": "t_mapping(t_uint256,t_mapping(t_bytes32,t_struct(Intent)9288_storage))"
      },
      {
        "astId": 3563,
        "contract": "contracts/Escrow.sol:Escrow",
        "label": "depositCounter",
        "offset": 0,
        "slot": "11",
        "type": "t_uint256"
      },
      {
        "astId": 3565,
        "contract": "contracts/Escrow.sol:Escrow",
        "label": "makerProtocolFee",
        "offset": 0,
        "slot": "12",
        "type": "t_uint256"
      },
      {
        "astId": 3567,
        "contract": "contracts/Escrow.sol:Escrow",
        "label": "makerFeeRecipient",
        "offset": 0,
        "slot": "13",
        "type": "t_address"
      },
      {
        "astId": 3569,
        "contract": "contracts/Escrow.sol:Escrow",
        "label": "dustThreshold",
        "offset": 0,
        "slot": "14",
        "type": "t_uint256"
      },
      {
        "astId": 3571,
        "contract": "contracts/Escrow.sol:Escrow",
        "label": "maxIntentsPerDeposit",
        "offset": 0,
        "slot": "15",
        "type": "t_uint256"
      },
      {
        "astId": 3573,
        "contract": "contracts/Escrow.sol:Escrow",
        "label": "intentExpirationPeriod",
        "offset": 0,
        "slot": "16",
        "type": "t_uint256"
      }
    ],
    "types": {
      "t_address": {
        "encoding": "inplace",
        "label": "address",
        "numberOfBytes": "20"
      },
      "t_array(t_bytes32)dyn_storage": {
        "base": "t_bytes32",
        "encoding": "dynamic_array",
        "label": "bytes32[]",
        "numberOfBytes": "32"
      },
      "t_array(t_uint256)dyn_storage": {
        "base": "t_uint256",
        "encoding": "dynamic_array",
        "label": "uint256[]",
        "numberOfBytes": "32"
      },
      "t_bool": {
        "encoding": "inplace",
        "label": "bool",
        "numberOfBytes": "1"
      },
      "t_bytes32": {
        "encoding": "inplace",
        "label": "bytes32",
        "numberOfBytes": "32"
      },
      "t_bytes_storage": {
        "encoding": "bytes",
        "label": "bytes",
        "numberOfBytes": "32"
      },
      "t_contract(IERC20)964": {
        "encoding": "inplace",
        "label": "contract IERC20",
        "numberOfBytes": "20"
      },
      "t_contract(IOrchestrator)10168": {
        "encoding": "inplace",
        "label": "contract IOrchestrator",
        "numberOfBytes": "20"
      },
      "t_contract(IPaymentVerifierRegistry)10234": {
        "encoding": "inplace",
        "label": "contract IPaymentVerifierRegistry",
        "numberOfBytes": "20"
      },
      "t_mapping(t_address,t_array(t_uint256)dyn_storage)": {
        "encoding": "mapping",
        "key": "t_address",
        "label": "mapping(address => uint256[])",
        "numberOfBytes": "32",
        "value": "t_array(t_uint256)dyn_storage"
      },
      "t_mapping(t_bytes32,t_array(t_bytes32)dyn_storage)": {
        "encoding": "mapping",
        "key": "t_bytes32",
        "label": "mapping(bytes32 => bytes32[])",
        "numberOfBytes": "32",
        "value": "t_array(t_bytes32)dyn_storage"
      },
      "t_mapping(t_bytes32,t_mapping(t_bytes32,t_uint256))": {
        "encoding": "mapping",
        "key": "t_bytes32",
        "label": "mapping(bytes32 => mapping(bytes32 => uint256))",
        "numberOfBytes": "32",
        "value": "t_mapping(t_bytes32,t_uint256)"
      },
      "t_mapping(t_bytes32,t_struct(DepositPaymentMethodData)9338_storage)": {
        "encoding": "mapping",
        "key": "t_bytes32",
        "label": "mapping(bytes32 => struct IEscrow.DepositPaymentMethodData)",
        "numberOfBytes": "32",
        "value": "t_struct(DepositPaymentMethodData)9338_storage"
      },
      "t_mapping(t_bytes32,t_struct(Intent)9288_storage)": {
        "encoding": "mapping",
        "key": "t_bytes32",
        "label": "mapping(bytes32 => struct IEscrow.Intent)",
        "numberOfBytes": "32",
        "value": "t_struct(Intent)9288_storage"
      },
      "t_mapping(t_bytes32,t_uint256)": {
        "encoding": "mapping",
        "key": "t_bytes32",
        "label": "mapping(bytes32 => uint256)",
        "numberOfBytes": "32",
        "value": "t_uint256"
      },
      "t_mapping(t_uint256,t_array(t_bytes32)dyn_storage)": {
        "encoding": "mapping",
        "key": "t_uint256",
        "label": "mapping(uint256 => bytes32[])",
        "numberOfBytes": "32",
        "value": "t_array(t_bytes32)dyn_storage"
      },
      "t_mapping(t_uint256,t_mapping(t_bytes32,t_array(t_bytes32)dyn_storage))": {
        "encoding": "mapping",
        "key": "t_uint256",
        "label": "mapping(uint256 => mapping(bytes32 => bytes32[]))",
        "numberOfBytes": "32",
        "value": "t_mapping(t_bytes32,t_array(t_bytes32)dyn_storage)"
      },
      "t_mapping(t_uint256,t_mapping(t_bytes32,t_mapping(t_bytes32,t_uint256)))": {
        "encoding": "mapping",
        "key": "t_uint256",
        "label": "mapping(uint256 => mapping(bytes32 => mapping(bytes32 => uint256)))",
        "numberOfBytes": "32",
        "value": "t_mapping(t_bytes32,t_mapping(t_bytes32,t_uint256))"
      },
      "t_mapping(t_uint256,t_mapping(t_bytes32,t_struct(DepositPaymentMethodData)9338_storage))": {
        "encoding": "mapping",
        "key": "t_uint256",
        "label": "mapping(uint256 => mapping(bytes32 => struct IEscrow.DepositPaymentMethodData))",
        "numberOfBytes": "32",
        "value": "t_mapping(t_bytes32,t_struct(DepositPaymentMethodData)9338_storage)"
      },
      "t_mapping(t_uint256,t_mapping(t_bytes32,t_struct(Intent)9288_storage))": {
        "encoding": "mapping",
        "key": "t_uint256",
        "label": "mapping(uint256 => mapping(bytes32 => struct IEscrow.Intent))",
        "numberOfBytes": "32",
        "value": "t_mapping(t_bytes32,t_struct(Intent)9288_storage)"
      },
      "t_mapping(t_uint256,t_struct(Deposit)9326_storage)": {
        "encoding": "mapping",
        "key": "t_uint256",
        "label": "mapping(uint256 => struct IEscrow.Deposit)",
        "numberOfBytes": "32",
        "value": "t_struct(Deposit)9326_storage"
      },
      "t_struct(Deposit)9326_storage": {
        "encoding": "inplace",
        "label": "struct IEscrow.Deposit",
        "members": [
          {
            "astId": 9295,
            "contract": "contracts/Escrow.sol:Escrow",
            "label": "depositor",
            "offset": 0,
            "slot": "0",
            "type": "t_address"
          },
          {
            "astId": 9297,
            "contract": "contracts/Escrow.sol:Escrow",
            "label": "delegate",
            "offset": 0,
            "slot": "1",
            "type": "t_address"
          },
          {
            "astId": 9300,
            "contract": "contracts/Escrow.sol:Escrow",
            "label": "token",
            "offset": 0,
            "slot": "2",
            "type": "t_contract(IERC20)964"
          },
          {
            "astId": 9302,
            "contract": "contracts/Escrow.sol:Escrow",
            "label": "amount",
            "offset": 0,
            "slot": "3",
            "type": "t_uint256"
          },
          {
            "astId": 9305,
            "contract": "contracts/Escrow.sol:Escrow",
            "label": "intentAmountRange",
            "offset": 0,
            "slot": "4",
            "type": "t_struct(Range)9293_storage"
          },
          {
            "astId": 9307,
            "contract": "contracts/Escrow.sol:Escrow",
            "label": "acceptingIntents",
            "offset": 0,
            "slot": "6",
            "type": "t_bool"
          },
          {
            "astId": 9309,
            "contract": "contracts/Escrow.sol:Escrow",
            "label": "remainingDeposits",
            "offset": 0,
            "slot": "7",
            "type": "t_uint256"
          },
          {
            "astId": 9311,
            "contract": "contracts/Escrow.sol:Escrow",
            "label": "outstandingIntentAmount",
            "offset": 0,
            "slot": "8",
            "type": "t_uint256"
          },
          {
            "astId": 9313,
            "contract": "contracts/Escrow.sol:Escrow",
            "label": "makerProtocolFee",
            "offset": 0,
            "slot": "9",
            "type": "t_uint256"
          },
          {
            "astId": 9315,
            "contract": "contracts/Escrow.sol:Escrow",
            "label": "reservedMakerFees",
            "offset": 0,
            "slot": "10",
            "type": "t_uint256"
          },
          {
            "astId": 9317,
            "contract": "contracts/Escrow.sol:Escrow",
            "label": "accruedMakerFees",
            "offset": 0,
            "slot": "11",
            "type": "t_uint256"
          },
          {
            "astId": 9319,
            "contract": "contracts/Escrow.sol:Escrow",
            "label": "accruedReferrerFees",
            "offset": 0,
            "slot": "12",
            "type": "t_uint256"
          },
          {
            "astId": 9321,
            "contract": "contracts/Escrow.sol:Escrow",
            "label": "intentGuardian",
            "offset": 0,
            "slot": "13",
            "type": "t_address"
          },
          {
            "astId": 9323,
            "contract": "contracts/Escrow.sol:Escrow",
            "label": "referrer",
            "offset": 0,
            "slot": "14",
            "type": "t_address"
          },
          {
            "astId": 9325,
            "contract": "contracts/Escrow.sol:Escrow",
            "label": "referrerFee",
            "offset": 0,
            "slot": "15",
            "type": "t_uint256"
          }
        ],
        "numberOfBytes": "512"
      },
      "t_struct(DepositPaymentMethodData)9338_storage": {
        "encoding": "inplace",
        "label": "struct IEscrow.DepositPaymentMethodData",
        "members": [
          {
            "astId": 9333,
            "contract": "contracts/Escrow.sol:Escrow",
            "label": "intentGatingService",
            "offset": 0,
            "slot": "0",
            "type": "t_address"
          },
          {
            "astId": 9335,
            "contract": "contracts/Escrow.sol:Escrow",
            "label": "payeeDetails",
            "offset": 0,
            "slot": "1",
            "type": "t_bytes32"
          },
          {
            "astId": 9337,
            "contract": "contracts/Escrow.sol:Escrow",
            "label": "data",
            "offset": 0,
            "slot": "2",
            "type": "t_bytes_storage"
          }
        ],
        "numberOfBytes": "96"
      },
      "t_struct(Intent)9288_storage": {
        "encoding": "inplace",
        "label": "struct IEscrow.Intent",
        "members": [
          {
            "astId": 9281,
            "contract": "contracts/Escrow.sol:Escrow",
            "label": "intentHash",
            "offset": 0,
            "slot": "0",
            "type": "t_bytes32"
          },
          {
            "astId": 9283,
            "contract": "contracts/Escrow.sol:Escrow",
            "label": "amount",
            "offset": 0,
            "slot": "1",
            "type": "t_uint256"
          },
          {
            "astId": 9285,
            "contract": "contracts/Escrow.sol:Escrow",
            "label": "timestamp",
            "offset": 0,
            "slot": "2",
            "type": "t_uint256"
          },
          {
            "astId": 9287,
            "contract": "contracts/Escrow.sol:Escrow",
            "label": "expiryTime",
            "offset": 0,
            "slot": "3",
            "type": "t_uint256"
          }
        ],
        "numberOfBytes": "128"
      },
      "t_struct(Range)9293_storage": {
        "encoding": "inplace",
        "label": "struct IEscrow.Range",
        "members": [
          {
            "astId": 9290,
            "contract": "contracts/Escrow.sol:Escrow",
            "label": "min",
            "offset": 0,
            "slot": "0",
            "type": "t_uint256"
          },
          {
            "astId": 9292,
            "contract": "contracts/Escrow.sol:Escrow",
            "label": "max",
            "offset": 0,
            "slot": "1",
            "type": "t_uint256"
          }
        ],
        "numberOfBytes": "64"
      },
      "t_uint256": {
        "encoding": "inplace",
        "label": "uint256",
        "numberOfBytes": "32"
      }
    }
  }
}