{
  "address": "0xBcD7C6BBcA5869fBefe3E322263EE1090221D7A9",
  "abi": [
    {
      "inputs": [
        {
          "internalType": "address",
          "name": "_owner",
          "type": "address"
        },
        {
          "internalType": "uint256",
          "name": "_chainId",
          "type": "uint256"
        },
        {
          "internalType": "address",
          "name": "_escrowRegistry",
          "type": "address"
        },
        {
          "internalType": "address",
          "name": "_paymentVerifierRegistry",
          "type": "address"
        },
        {
          "internalType": "address",
          "name": "_postIntentHookRegistry",
          "type": "address"
        },
        {
          "internalType": "address",
          "name": "_relayerRegistry",
          "type": "address"
        },
        {
          "internalType": "uint256",
          "name": "_protocolFee",
          "type": "uint256"
        },
        {
          "internalType": "address",
          "name": "_protocolFeeRecipient",
          "type": "address"
        }
      ],
      "stateMutability": "nonpayable",
      "type": "constructor"
    },
    {
      "inputs": [
        {
          "internalType": "address",
          "name": "account",
          "type": "address"
        },
        {
          "internalType": "bytes32",
          "name": "existingIntent",
          "type": "bytes32"
        }
      ],
      "name": "AccountHasActiveIntent",
      "type": "error"
    },
    {
      "inputs": [
        {
          "internalType": "uint256",
          "name": "amount",
          "type": "uint256"
        },
        {
          "internalType": "uint256",
          "name": "max",
          "type": "uint256"
        }
      ],
      "name": "AmountAboveMax",
      "type": "error"
    },
    {
      "inputs": [
        {
          "internalType": "uint256",
          "name": "amount",
          "type": "uint256"
        },
        {
          "internalType": "uint256",
          "name": "min",
          "type": "uint256"
        }
      ],
      "name": "AmountBelowMin",
      "type": "error"
    },
    {
      "inputs": [
        {
          "internalType": "uint256",
          "name": "amount",
          "type": "uint256"
        },
        {
          "internalType": "uint256",
          "name": "limit",
          "type": "uint256"
        }
      ],
      "name": "AmountExceedsLimit",
      "type": "error"
    },
    {
      "inputs": [
        {
          "internalType": "bytes32",
          "name": "paymentMethod",
          "type": "bytes32"
        },
        {
          "internalType": "bytes32",
          "name": "currency",
          "type": "bytes32"
        }
      ],
      "name": "CurrencyNotSupported",
      "type": "error"
    },
    {
      "inputs": [],
      "name": "EscrowLockFailed",
      "type": "error"
    },
    {
      "inputs": [
        {
          "internalType": "address",
          "name": "escrow",
          "type": "address"
        }
      ],
      "name": "EscrowNotWhitelisted",
      "type": "error"
    },
    {
      "inputs": [
        {
          "internalType": "uint256",
          "name": "fee",
          "type": "uint256"
        },
        {
          "internalType": "uint256",
          "name": "maximum",
          "type": "uint256"
        }
      ],
      "name": "FeeExceedsMaximum",
      "type": "error"
    },
    {
      "inputs": [
        {
          "internalType": "bytes32",
          "name": "expected",
          "type": "bytes32"
        },
        {
          "internalType": "bytes32",
          "name": "actual",
          "type": "bytes32"
        }
      ],
      "name": "HashMismatch",
      "type": "error"
    },
    {
      "inputs": [
        {
          "internalType": "bytes32",
          "name": "intentHash",
          "type": "bytes32"
        }
      ],
      "name": "IntentNotFound",
      "type": "error"
    },
    {
      "inputs": [],
      "name": "InvalidReferrerFeeConfiguration",
      "type": "error"
    },
    {
      "inputs": [],
      "name": "InvalidSignature",
      "type": "error"
    },
    {
      "inputs": [
        {
          "internalType": "uint256",
          "name": "currentTime",
          "type": "uint256"
        },
        {
          "internalType": "uint256",
          "name": "allowedTime",
          "type": "uint256"
        }
      ],
      "name": "PartialReleaseNotAllowedYet",
      "type": "error"
    },
    {
      "inputs": [
        {
          "internalType": "bytes32",
          "name": "paymentMethod",
          "type": "bytes32"
        }
      ],
      "name": "PaymentMethodDoesNotExist",
      "type": "error"
    },
    {
      "inputs": [
        {
          "internalType": "bytes32",
          "name": "paymentMethod",
          "type": "bytes32"
        }
      ],
      "name": "PaymentMethodNotSupported",
      "type": "error"
    },
    {
      "inputs": [
        {
          "internalType": "bytes32",
          "name": "paymentMethod",
          "type": "bytes32"
        }
      ],
      "name": "PaymentMethodNotWhitelisted",
      "type": "error"
    },
    {
      "inputs": [],
      "name": "PaymentVerificationFailed",
      "type": "error"
    },
    {
      "inputs": [
        {
          "internalType": "address",
          "name": "hook",
          "type": "address"
        }
      ],
      "name": "PostIntentHookNotWhitelisted",
      "type": "error"
    },
    {
      "inputs": [
        {
          "internalType": "uint256",
          "name": "rate",
          "type": "uint256"
        },
        {
          "internalType": "uint256",
          "name": "minRate",
          "type": "uint256"
        }
      ],
      "name": "RateBelowMinimum",
      "type": "error"
    },
    {
      "inputs": [
        {
          "internalType": "uint256",
          "name": "expiration",
          "type": "uint256"
        },
        {
          "internalType": "uint256",
          "name": "currentTime",
          "type": "uint256"
        }
      ],
      "name": "SignatureExpired",
      "type": "error"
    },
    {
      "inputs": [
        {
          "internalType": "address",
          "name": "recipient",
          "type": "address"
        },
        {
          "internalType": "uint256",
          "name": "amount",
          "type": "uint256"
        }
      ],
      "name": "TransferFailed",
      "type": "error"
    },
    {
      "inputs": [
        {
          "internalType": "address",
          "name": "caller",
          "type": "address"
        },
        {
          "internalType": "address",
          "name": "authorized",
          "type": "address"
        }
      ],
      "name": "UnauthorizedCaller",
      "type": "error"
    },
    {
      "inputs": [
        {
          "internalType": "address",
          "name": "caller",
          "type": "address"
        }
      ],
      "name": "UnauthorizedEscrowCaller",
      "type": "error"
    },
    {
      "inputs": [],
      "name": "ZeroAddress",
      "type": "error"
    },
    {
      "inputs": [],
      "name": "ZeroValue",
      "type": "error"
    },
    {
      "anonymous": false,
      "inputs": [
        {
          "indexed": false,
          "internalType": "bool",
          "name": "allowMultiple",
          "type": "bool"
        }
      ],
      "name": "AllowMultipleIntentsUpdated",
      "type": "event"
    },
    {
      "anonymous": false,
      "inputs": [
        {
          "indexed": true,
          "internalType": "address",
          "name": "escrowRegistry",
          "type": "address"
        }
      ],
      "name": "EscrowRegistryUpdated",
      "type": "event"
    },
    {
      "anonymous": false,
      "inputs": [
        {
          "indexed": true,
          "internalType": "bytes32",
          "name": "intentHash",
          "type": "bytes32"
        },
        {
          "indexed": true,
          "internalType": "address",
          "name": "fundsTransferredTo",
          "type": "address"
        },
        {
          "indexed": false,
          "internalType": "uint256",
          "name": "amount",
          "type": "uint256"
        },
        {
          "indexed": false,
          "internalType": "bool",
          "name": "isManualRelease",
          "type": "bool"
        }
      ],
      "name": "IntentFulfilled",
      "type": "event"
    },
    {
      "anonymous": false,
      "inputs": [
        {
          "indexed": true,
          "internalType": "bytes32",
          "name": "intentHash",
          "type": "bytes32"
        }
      ],
      "name": "IntentPruned",
      "type": "event"
    },
    {
      "anonymous": false,
      "inputs": [
        {
          "indexed": true,
          "internalType": "bytes32",
          "name": "intentHash",
          "type": "bytes32"
        },
        {
          "indexed": true,
          "internalType": "address",
          "name": "escrow",
          "type": "address"
        },
        {
          "indexed": true,
          "internalType": "uint256",
          "name": "depositId",
          "type": "uint256"
        },
        {
          "indexed": false,
          "internalType": "bytes32",
          "name": "paymentMethod",
          "type": "bytes32"
        },
        {
          "indexed": false,
          "internalType": "address",
          "name": "owner",
          "type": "address"
        },
        {
          "indexed": false,
          "internalType": "address",
          "name": "to",
          "type": "address"
        },
        {
          "indexed": false,
          "internalType": "uint256",
          "name": "amount",
          "type": "uint256"
        },
        {
          "indexed": false,
          "internalType": "bytes32",
          "name": "fiatCurrency",
          "type": "bytes32"
        },
        {
          "indexed": false,
          "internalType": "uint256",
          "name": "conversionRate",
          "type": "uint256"
        },
        {
          "indexed": false,
          "internalType": "uint256",
          "name": "timestamp",
          "type": "uint256"
        }
      ],
      "name": "IntentSignaled",
      "type": "event"
    },
    {
      "anonymous": false,
      "inputs": [
        {
          "indexed": true,
          "internalType": "address",
          "name": "previousOwner",
          "type": "address"
        },
        {
          "indexed": true,
          "internalType": "address",
          "name": "newOwner",
          "type": "address"
        }
      ],
      "name": "OwnershipTransferred",
      "type": "event"
    },
    {
      "anonymous": false,
      "inputs": [
        {
          "indexed": false,
          "internalType": "uint256",
          "name": "partialManualReleaseDelay",
          "type": "uint256"
        }
      ],
      "name": "PartialManualReleaseDelayUpdated",
      "type": "event"
    },
    {
      "anonymous": false,
      "inputs": [
        {
          "indexed": false,
          "internalType": "address",
          "name": "account",
          "type": "address"
        }
      ],
      "name": "Paused",
      "type": "event"
    },
    {
      "anonymous": false,
      "inputs": [
        {
          "indexed": true,
          "internalType": "address",
          "name": "paymentVerifierRegistry",
          "type": "address"
        }
      ],
      "name": "PaymentVerifierRegistryUpdated",
      "type": "event"
    },
    {
      "anonymous": false,
      "inputs": [
        {
          "indexed": true,
          "internalType": "address",
          "name": "postIntentHookRegistry",
          "type": "address"
        }
      ],
      "name": "PostIntentHookRegistryUpdated",
      "type": "event"
    },
    {
      "anonymous": false,
      "inputs": [
        {
          "indexed": true,
          "internalType": "address",
          "name": "protocolFeeRecipient",
          "type": "address"
        }
      ],
      "name": "ProtocolFeeRecipientUpdated",
      "type": "event"
    },
    {
      "anonymous": false,
      "inputs": [
        {
          "indexed": false,
          "internalType": "uint256",
          "name": "protocolFee",
          "type": "uint256"
        }
      ],
      "name": "ProtocolFeeUpdated",
      "type": "event"
    },
    {
      "anonymous": false,
      "inputs": [
        {
          "indexed": true,
          "internalType": "address",
          "name": "relayerRegistry",
          "type": "address"
        }
      ],
      "name": "RelayerRegistryUpdated",
      "type": "event"
    },
    {
      "anonymous": false,
      "inputs": [
        {
          "indexed": false,
          "internalType": "address",
          "name": "account",
          "type": "address"
        }
      ],
      "name": "Unpaused",
      "type": "event"
    },
    {
      "inputs": [],
      "name": "allowMultipleIntents",
      "outputs": [
        {
          "internalType": "bool",
          "name": "",
          "type": "bool"
        }
      ],
      "stateMutability": "view",
      "type": "function"
    },
    {
      "inputs": [
        {
          "internalType": "bytes32",
          "name": "_intentHash",
          "type": "bytes32"
        }
      ],
      "name": "cancelIntent",
      "outputs": [],
      "stateMutability": "nonpayable",
      "type": "function"
    },
    {
      "inputs": [],
      "name": "chainId",
      "outputs": [
        {
          "internalType": "uint256",
          "name": "",
          "type": "uint256"
        }
      ],
      "stateMutability": "view",
      "type": "function"
    },
    {
      "inputs": [],
      "name": "escrowRegistry",
      "outputs": [
        {
          "internalType": "contract IEscrowRegistry",
          "name": "",
          "type": "address"
        }
      ],
      "stateMutability": "view",
      "type": "function"
    },
    {
      "inputs": [
        {
          "components": [
            {
              "internalType": "bytes",
              "name": "paymentProof",
              "type": "bytes"
            },
            {
              "internalType": "bytes32",
              "name": "intentHash",
              "type": "bytes32"
            },
            {
              "internalType": "bytes",
              "name": "verificationData",
              "type": "bytes"
            },
            {
              "internalType": "bytes",
              "name": "postIntentHookData",
              "type": "bytes"
            }
          ],
          "internalType": "struct IOrchestrator.FulfillIntentParams",
          "name": "_params",
          "type": "tuple"
        }
      ],
      "name": "fulfillIntent",
      "outputs": [],
      "stateMutability": "nonpayable",
      "type": "function"
    },
    {
      "inputs": [
        {
          "internalType": "address",
          "name": "_account",
          "type": "address"
        }
      ],
      "name": "getAccountIntents",
      "outputs": [
        {
          "internalType": "bytes32[]",
          "name": "",
          "type": "bytes32[]"
        }
      ],
      "stateMutability": "view",
      "type": "function"
    },
    {
      "inputs": [
        {
          "internalType": "bytes32",
          "name": "_intentHash",
          "type": "bytes32"
        }
      ],
      "name": "getIntent",
      "outputs": [
        {
          "components": [
            {
              "internalType": "address",
              "name": "owner",
              "type": "address"
            },
            {
              "internalType": "address",
              "name": "to",
              "type": "address"
            },
            {
              "internalType": "address",
              "name": "escrow",
              "type": "address"
            },
            {
              "internalType": "uint256",
              "name": "depositId",
              "type": "uint256"
            },
            {
              "internalType": "uint256",
              "name": "amount",
              "type": "uint256"
            },
            {
              "internalType": "uint256",
              "name": "timestamp",
              "type": "uint256"
            },
            {
              "internalType": "bytes32",
              "name": "paymentMethod",
              "type": "bytes32"
            },
            {
              "internalType": "bytes32",
              "name": "fiatCurrency",
              "type": "bytes32"
            },
            {
              "internalType": "uint256",
              "name": "conversionRate",
              "type": "uint256"
            },
            {
              "internalType": "address",
              "name": "referrer",
              "type": "address"
            },
            {
              "internalType": "uint256",
              "name": "referrerFee",
              "type": "uint256"
            },
            {
              "internalType": "contract IPostIntentHook",
              "name": "postIntentHook",
              "type": "address"
            },
            {
              "internalType": "bytes",
              "name": "data",
              "type": "bytes"
            }
          ],
          "internalType": "struct IOrchestrator.Intent",
          "name": "",
          "type": "tuple"
        }
      ],
      "stateMutability": "view",
      "type": "function"
    },
    {
      "inputs": [],
      "name": "intentCounter",
      "outputs": [
        {
          "internalType": "uint256",
          "name": "",
          "type": "uint256"
        }
      ],
      "stateMutability": "view",
      "type": "function"
    },
    {
      "inputs": [],
      "name": "owner",
      "outputs": [
        {
          "internalType": "address",
          "name": "",
          "type": "address"
        }
      ],
      "stateMutability": "view",
      "type": "function"
    },
    {
      "inputs": [],
      "name": "pauseOrchestrator",
      "outputs": [],
      "stateMutability": "nonpayable",
      "type": "function"
    },
    {
      "inputs": [],
      "name": "paused",
      "outputs": [
        {
          "internalType": "bool",
          "name": "",
          "type": "bool"
        }
      ],
      "stateMutability": "view",
      "type": "function"
    },
    {
      "inputs": [],
      "name": "paymentVerifierRegistry",
      "outputs": [
        {
          "internalType": "contract IPaymentVerifierRegistry",
          "name": "",
          "type": "address"
        }
      ],
      "stateMutability": "view",
      "type": "function"
    },
    {
      "inputs": [],
      "name": "postIntentHookRegistry",
      "outputs": [
        {
          "internalType": "contract IPostIntentHookRegistry",
          "name": "",
          "type": "address"
        }
      ],
      "stateMutability": "view",
      "type": "function"
    },
    {
      "inputs": [],
      "name": "protocolFee",
      "outputs": [
        {
          "internalType": "uint256",
          "name": "",
          "type": "uint256"
        }
      ],
      "stateMutability": "view",
      "type": "function"
    },
    {
      "inputs": [],
      "name": "protocolFeeRecipient",
      "outputs": [
        {
          "internalType": "address",
          "name": "",
          "type": "address"
        }
      ],
      "stateMutability": "view",
      "type": "function"
    },
    {
      "inputs": [
        {
          "internalType": "bytes32[]",
          "name": "_intents",
          "type": "bytes32[]"
        }
      ],
      "name": "pruneIntents",
      "outputs": [],
      "stateMutability": "nonpayable",
      "type": "function"
    },
    {
      "inputs": [],
      "name": "relayerRegistry",
      "outputs": [
        {
          "internalType": "contract IRelayerRegistry",
          "name": "",
          "type": "address"
        }
      ],
      "stateMutability": "view",
      "type": "function"
    },
    {
      "inputs": [
        {
          "internalType": "bytes32",
          "name": "_intentHash",
          "type": "bytes32"
        }
      ],
      "name": "releaseFundsToPayer",
      "outputs": [],
      "stateMutability": "nonpayable",
      "type": "function"
    },
    {
      "inputs": [],
      "name": "renounceOwnership",
      "outputs": [],
      "stateMutability": "nonpayable",
      "type": "function"
    },
    {
      "inputs": [
        {
          "internalType": "bool",
          "name": "_allowMultiple",
          "type": "bool"
        }
      ],
      "name": "setAllowMultipleIntents",
      "outputs": [],
      "stateMutability": "nonpayable",
      "type": "function"
    },
    {
      "inputs": [
        {
          "internalType": "address",
          "name": "_escrowRegistry",
          "type": "address"
        }
      ],
      "name": "setEscrowRegistry",
      "outputs": [],
      "stateMutability": "nonpayable",
      "type": "function"
    },
    {
      "inputs": [
        {
          "internalType": "address",
          "name": "_postIntentHookRegistry",
          "type": "address"
        }
      ],
      "name": "setPostIntentHookRegistry",
      "outputs": [],
      "stateMutability": "nonpayable",
      "type": "function"
    },
    {
      "inputs": [
        {
          "internalType": "uint256",
          "name": "_protocolFee",
          "type": "uint256"
        }
      ],
      "name": "setProtocolFee",
      "outputs": [],
      "stateMutability": "nonpayable",
      "type": "function"
    },
    {
      "inputs": [
        {
          "internalType": "address",
          "name": "_protocolFeeRecipient",
          "type": "address"
        }
      ],
      "name": "setProtocolFeeRecipient",
      "outputs": [],
      "stateMutability": "nonpayable",
      "type": "function"
    },
    {
      "inputs": [
        {
          "internalType": "address",
          "name": "_relayerRegistry",
          "type": "address"
        }
      ],
      "name": "setRelayerRegistry",
      "outputs": [],
      "stateMutability": "nonpayable",
      "type": "function"
    },
    {
      "inputs": [
        {
          "components": [
            {
              "internalType": "address",
              "name": "escrow",
              "type": "address"
            },
            {
              "internalType": "uint256",
              "name": "depositId",
              "type": "uint256"
            },
            {
              "internalType": "uint256",
              "name": "amount",
              "type": "uint256"
            },
            {
              "internalType": "address",
              "name": "to",
              "type": "address"
            },
            {
              "internalType": "bytes32",
              "name": "paymentMethod",
              "type": "bytes32"
            },
            {
              "internalType": "bytes32",
              "name": "fiatCurrency",
              "type": "bytes32"
            },
            {
              "internalType": "uint256",
              "name": "conversionRate",
              "type": "uint256"
            },
            {
              "internalType": "address",
              "name": "referrer",
              "type": "address"
            },
            {
              "internalType": "uint256",
              "name": "referrerFee",
              "type": "uint256"
            },
            {
              "internalType": "bytes",
              "name": "gatingServiceSignature",
              "type": "bytes"
            },
            {
              "internalType": "uint256",
              "name": "signatureExpiration",
              "type": "uint256"
            },
            {
              "internalType": "contract IPostIntentHook",
              "name": "postIntentHook",
              "type": "address"
            },
            {
              "internalType": "bytes",
              "name": "data",
              "type": "bytes"
            }
          ],
          "internalType": "struct IOrchestrator.SignalIntentParams",
          "name": "_params",
          "type": "tuple"
        }
      ],
      "name": "signalIntent",
      "outputs": [],
      "stateMutability": "nonpayable",
      "type": "function"
    },
    {
      "inputs": [
        {
          "internalType": "address",
          "name": "newOwner",
          "type": "address"
        }
      ],
      "name": "transferOwnership",
      "outputs": [],
      "stateMutability": "nonpayable",
      "type": "function"
    },
    {
      "inputs": [],
      "name": "unpauseOrchestrator",
      "outputs": [],
      "stateMutability": "nonpayable",
      "type": "function"
    }
  ],
  "transactionHash": "0x94dc3512cd83456a64bffcf2f1075e57941f613111acdc0fbc4d3c0ea392d325",
  "args": [
    "0x84e113087C97Cd80eA9D78983D4B8Ff61ECa1929",
    84532,
    "0x431a078A5029146aAB239c768A615CD484519aF7",
    "0x9F330945807658Ba0735a1115beF37c6D2dCc8A9",
    "0x33063186842ED0b24D21715ec3493bE7A4262418",
    "0xA499191749b0f05DEdBd20EBB29b8DC6FA597680",
    "0",
    "0x84e113087C97Cd80eA9D78983D4B8Ff61ECa1929"
  ],
  "numDeployments": 1,
  "solcInputHash": "73a5a237276dc099a7ab1b467260e580",
  "bytecode": "0x60a06040523480156200001157600080fd5b5060405162003f9e38038062003f9e833981016040819052620000349162000217565b6200003f33620000c9565b6000805460ff60a01b19169055600180556080879052600480546001600160a01b03199081166001600160a01b0389811691909117909255600580548216888416179055600680548216878416179055600780548216868416179055600884905560098054909116918316919091179055620000bb8862000119565b5050505050505050620002ad565b600080546001600160a01b038381166001600160a01b0319831681178455604051919092169283917f8be0079c531659141344cd1fd0a4f28419497f9722a3daafe3b4186f6b6457e09190a35050565b620001236200019c565b6001600160a01b0381166200018e5760405162461bcd60e51b815260206004820152602660248201527f4f776e61626c653a206e6577206f776e657220697320746865207a65726f206160448201526564647265737360d01b60648201526084015b60405180910390fd5b6200019981620000c9565b50565b6000546001600160a01b03163314620001f85760405162461bcd60e51b815260206004820181905260248201527f4f776e61626c653a2063616c6c6572206973206e6f7420746865206f776e6572604482015260640162000185565b565b80516001600160a01b03811681146200021257600080fd5b919050565b600080600080600080600080610100898b0312156200023557600080fd5b6200024089620001fa565b9750602089015196506200025760408a01620001fa565b95506200026760608a01620001fa565b94506200027760808a01620001fa565b93506200028760a08a01620001fa565b925060c089015191506200029e60e08a01620001fa565b90509295985092959890939650565b608051613cce620002d06000396000818161032a015261286e0152613cce6000f3fe608060405234801561001057600080fd5b50600436106101c45760003560e01c806382e2dfee116100f9578063cbcd99a311610097578063f13c46aa11610071578063f13c46aa146103c2578063f2fde38b146103e2578063f5d46091146103f5578063fc48395b146103fe57600080fd5b8063cbcd99a314610389578063d55f960d1461039c578063e521cb92146103af57600080fd5b80639a8a0592116100d35780639a8a059214610325578063a8b000bd1461035a578063ac7a520c1461036d578063b0e21e8a1461038057600080fd5b806382e2dfee146102ee5780638da5cb5b1461030157806394ac05ad1461031257600080fd5b80635c975abb1161016657806364df049e1161014057806364df049e146102ad578063715018a6146102c0578063787dce3d146102c857806381ceb735146102db57600080fd5b80635c975abb14610280578063648bdb321461029257806364cb28111461029a57600080fd5b806345a734b7116101a257806345a734b71461022157806347ff589d146102295780635095dd641461023c578063565105101461026057600080fd5b80630e63c831146101c95780632cc410dd146101de578063406e1d18146101f1575b600080fd5b6101dc6101d7366004613127565b610411565b005b6101dc6101ec366004613169565b61078e565b600454610204906001600160a01b031681565b6040516001600160a01b0390911681526020015b60405180910390f35b6101dc610a35565b600754610204906001600160a01b031681565b60095461025090600160a01b900460ff1681565b6040519015158152602001610218565b61027361026e366004613202565b610a47565b604051610218919061321f565b600054600160a01b900460ff16610250565b6101dc610ab3565b6101dc6102a8366004613202565b610ac3565b600954610204906001600160a01b031681565b6101dc610b3c565b6101dc6102d6366004613263565b610b4e565b600554610204906001600160a01b031681565b6101dc6102fc366004613263565b610bca565b6000546001600160a01b0316610204565b6101dc61032036600461328a565b610ea4565b61034c7f000000000000000000000000000000000000000000000000000000000000000081565b604051908152602001610218565b600654610204906001600160a01b031681565b6101dc61037b3660046132a7565b610ef9565b61034c60085481565b6101dc610397366004613202565b6114f2565b6101dc6103aa366004613263565b61156b565b6101dc6103bd366004613202565b61178a565b6103d56103d0366004613263565b611803565b604051610218919061340c565b6101dc6103f0366004613202565b6119b6565b61034c600a5481565b6101dc61040c366004613202565b611a2c565b610419611aa5565b61042a61042582613550565b611af2565b6000610434612113565b90506104436020830183613202565b60408051630920752560e01b815260208501356004820152602481018490529084013560448201526001600160a01b039190911690630920752590606401600060405180830381600087803b15801561049b57600080fd5b505af11580156104af573d6000803e3d6000fd5b5050604080516101a08101909152338152915050602081016104d76080850160608601613202565b6001600160a01b031681526020908101906104f490850185613202565b6001600160a01b031681526020018360200135815260200183604001358152602001428152602001836080013581526020018360a0013581526020018360c0013581526020018360e001602081019061054d9190613202565b6001600160a01b03168152610100840135602082015260400161057861018085016101608601613202565b6001600160a01b03168152602001610594610180850185613655565b8080601f016020809104026020016040519081016040528093929190818152602001838380828437600092018290525093909452505083815260026020818152604092839020855181546001600160a01b03199081166001600160a01b03928316178355928701516001830180548516918316919091179055938601519281018054831693851693909317909255606085015160038301556080850151600483015560a0850151600583015560c0850151600683015560e0850151600783015561010085015160088301556101208501516009830180548316918516919091179055610140850151600a830155610160850151600b83018054909216931692909217909155610180830151909150600c8201906106b1908261371b565b50503360009081526003602090815260408220805460018101825590835290822001839055600a80549250906106e6836137f0565b9091555050602082018035906106fc9084613202565b6001600160a01b0316827ff8c114f83581b2cf0b9f130782a93024aa8933e7d188901156bd68bdd558a20a60808601803590339061073d9060608a01613202565b604080519384526001600160a01b039283166020850152911682820152870135606082015260a080880135608083015260c08089013591830191909152429082015260e00160405180910390a45050565b600480546040516363d8a2a760e11b815233928101929092526001600160a01b03169063c7b1454e90602401602060405180830381865afa1580156107d7573d6000803e3d6000fd5b505050506040513d601f19601f820116820180604052508101906107fb9190613814565b158015610870575060048054604080516375abeba960e11b815290516001600160a01b039092169263eb57d7529282820192602092908290030181865afa15801561084a573d6000803e3d6000fd5b505050506040513d601f19601f8201168201806040525081019061086e9190613814565b155b15610895576040516336a219b360e21b81523360048201526024015b60405180910390fd5b60005b81811015610a305760008383838181106108b4576108b4613831565b60200291909101359150508015610a1d57600081815260026020818152604080842081516101a08101835281546001600160a01b0390811682526001830154811694820194909452938101548316918401919091526003810154606084015260048101546080840152600581015460a0840152600681015460c0840152600781015460e0840152600881015461010084015260098101548216610120840152600a810154610140840152600b810154909116610160830152600c81018054610180840191906109829061369b565b80601f01602080910402602001604051908101604052809291908181526020018280546109ae9061369b565b80156109fb5780601f106109d0576101008083540402835291602001916109fb565b820191906000526020600020905b8154815290600101906020018083116109de57829003601f168201915b50505050508152505090508060a00151600014610a1b57610a1b8261218b565b505b5080610a28816137f0565b915050610898565b505050565b610a3d6123ab565b610a45612405565b565b6001600160a01b038116600090815260036020908152604091829020805483518184028101840190945280845260609392830182828015610aa757602002820191906000526020600020905b815481526020019060010190808311610a93575b50505050509050919050565b610abb6123ab565b610a45612465565b610acb6123ab565b6001600160a01b038116610af25760405163d92e233d60e01b815260040160405180910390fd5b600780546001600160a01b0319166001600160a01b0383169081179091556040517fd3c0577a88b56268da0350a01cb491fb15be69982729d9cb066a0603d1fc54b890600090a250565b610b446123ab565b610a4560006124a1565b610b566123ab565b66b1a2bc2ec50000811115610b8e5760405163037664ab60e21b81526004810182905266b1a2bc2ec50000602482015260440161088c565b60088190556040518181527fd10d75876659a287a59a6ccfa2e3fff42f84d94b542837acd30bc184d562de40906020015b60405180910390a150565b610bd26124f1565b600081815260026020818152604080842081516101a08101835281546001600160a01b0390811682526001830154811694820194909452938101548316918401919091526003810154606084015260048101546080840152600581015460a0840152600681015460c0840152600781015460e0840152600881015461010084015260098101548216610120840152600a810154610140840152600b810154909116610160830152600c8101805461018084019190610c8f9061369b565b80601f0160208091040260200160405190810160405280929190818152602001828054610cbb9061369b565b8015610d085780601f10610cdd57610100808354040283529160200191610d08565b820191906000526020600020905b815481529060010190602001808311610ceb57829003601f168201915b5050509190925250508151919250506001600160a01b0316610d4057604051639481f8b960e01b81526004810183905260240161088c565b600081604001516001600160a01b0316639f9fb96883606001516040518263ffffffff1660e01b8152600401610d7891815260200190565b61020060405180830381865afa158015610d96573d6000803e3d6000fd5b505050506040513d601f19601f82011682018060405250810190610dba91906138a0565b80519091506001600160a01b03163314610dfb57805160405163536dd9ef60e01b81523360048201526001600160a01b03909116602482015260440161088c565b610e048361218b565b60408083015160608401516080850151925163407c8d4360e01b815260048101919091526024810186905260448101929092523060648301526001600160a01b03169063407c8d4390608401600060405180830381600087803b158015610e6a57600080fd5b505af1158015610e7e573d6000803e3d6000fd5b50505050610e9681604001518484856080015161254a565b5050610ea160018055565b50565b610eac6123ab565b60098054821515600160a01b0260ff60a01b199091161790556040517fdb1db9b43312d33850c773f181f11169bef701e90f3e3cfac979d27a31efc6f790610bbf90831515815260200190565b610f016124f1565b610f09611aa5565b60208082013560009081526002808352604080832081516101a08101835281546001600160a01b0390811682526001830154811696820196909652928101548516918301919091526003810154606083015260048101546080830152600581015460a0830152600681015460c0830152600781015460e0830152600881015461010083015260098101548416610120830152600a810154610140830152600b810154909316610160820152600c830180549293919261018084019190610fce9061369b565b80601f0160208091040260200160405190810160405280929190818152602001828054610ffa9061369b565b80156110475780601f1061101c57610100808354040283529160200191611047565b820191906000526020600020905b81548152906001019060200180831161102a57829003601f168201915b5050509190925250505060c081015190915061107c57604051639481f8b960e01b81526020830135600482015260240161088c565b600081604001516001600160a01b0316639f9fb96883606001516040518263ffffffff1660e01b81526004016110b491815260200190565b61020060405180830381865afa1580156110d2573d6000803e3d6000fd5b505050506040513d601f19601f820116820180604052508101906110f691906138a0565b9050600082604001516001600160a01b03166317192c2984606001518560c001516040518363ffffffff1660e01b815260040161113d929190918252602082015260400190565b600060405180830381865afa15801561115a573d6000803e3d6000fd5b505050506040513d6000823e601f3d908101601f191682016040526111829190810190613998565b60055460c0850151604051631dd6f64960e31b81529293506000926001600160a01b039092169163eeb7b248916111bf9160040190815260200190565b602060405180830381865afa1580156111dc573d6000803e3d6000fd5b505050506040513d601f19601f820116820180604052508101906112009190613a5c565b90506001600160a01b038116611231578360c00151604051630bd49acb60e31b815260040161088c91815260200190565b6000816001600160a01b031663e17f84c860405180610120016040528089806000019061125e9190613655565b8080601f016020809104026020016040519081016040528093929190818152602001838380828437600081840152601f19601f82011690508083019250505050505050815260200187604001516001600160a01b03168152602001886080015181526020018860a001518152602001866020015181526020018860e0015181526020018861010001518152602001866040015181526020018980604001906113069190613655565b8080601f01602080910402602001604051908101604052809392919081815260200183838082843760009201919091525050509152506040516001600160e01b031960e084901b16815261135d9190600401613a79565b6060604051808303816000875af115801561137c573d6000803e3d6000fd5b505050506040513d601f19601f820116820180604052508101906113a09190613b21565b80519091506113c257604051636938802360e01b815260040160405180910390fd5b85602001358160200151146113fa576020818101516040516305846adf60e11b8152918801356004830152602482015260440161088c565b611407866020013561218b565b604080860151606087015183830151925163407c8d4360e01b815260048101919091526020890135602482015260448101929092523060648301526001600160a01b03169063407c8d4390608401600060405180830381600087803b15801561146f57600080fd5b505af1158015611483573d6000803e3d6000fd5b505050506114e4846040015187602001358784604001518a80606001906114aa9190613655565b8080601f0160208091040260200160405190810160405280939291908181526020018383808284376000920191909152506125de92505050565b5050505050610ea160018055565b6114fa6123ab565b6001600160a01b0381166115215760405163d92e233d60e01b815260040160405180910390fd5b600480546001600160a01b0319166001600160a01b0383169081179091556040517f873179742d8df742298832022224502b4c9b558e12342f5a48cf56cbb68a3acf90600090a250565b600081815260026020818152604080842081516101a08101835281546001600160a01b0390811682526001830154811694820194909452938101548316918401919091526003810154606084015260048101546080840152600581015460a0840152600681015460c0840152600781015460e0840152600881015461010084015260098101548216610120840152600a810154610140840152600b810154909116610160830152600c81018054610180840191906116289061369b565b80601f01602080910402602001604051908101604052809291908181526020018280546116549061369b565b80156116a15780601f10611676576101008083540402835291602001916116a1565b820191906000526020600020905b81548152906001019060200180831161168457829003601f168201915b50505050508152505090508060a001516000036116d457604051639481f8b960e01b81526004810183905260240161088c565b80516001600160a01b0316331461171257805160405163536dd9ef60e01b81523360048201526001600160a01b03909116602482015260440161088c565b61171b8261218b565b6040808201516060830151915163432e707b60e01b81526004810192909252602482018490526001600160a01b03169063432e707b90604401600060405180830381600087803b15801561176e57600080fd5b505af1158015611782573d6000803e3d6000fd5b505050505050565b6117926123ab565b6001600160a01b0381166117b95760405163d92e233d60e01b815260040160405180910390fd5b600980546001600160a01b0319166001600160a01b0383169081179091556040517fc1b5345cce283376356748dc57f2dfa7120431d016fc7ca9ba641bc65f91411d90600090a250565b604080516101a08101825260008082526020820181905291810182905260608082018390526080820183905260a0820183905260c0820183905260e0820183905261010082018390526101208201839052610140820183905261016082019290925261018081019190915260008281526002602081815260409283902083516101a08101855281546001600160a01b0390811682526001830154811693820193909352928101548216938301939093526003830154606083015260048301546080830152600583015460a0830152600683015460c0830152600783015460e0830152600883015461010083015260098301548116610120830152600a830154610140830152600b83015416610160820152600c820180549192916101808401919061192d9061369b565b80601f01602080910402602001604051908101604052809291908181526020018280546119599061369b565b80156119a65780601f1061197b576101008083540402835291602001916119a6565b820191906000526020600020905b81548152906001019060200180831161198957829003601f168201915b5050505050815250509050919050565b6119be6123ab565b6001600160a01b038116611a235760405162461bcd60e51b815260206004820152602660248201527f4f776e61626c653a206e6577206f776e657220697320746865207a65726f206160448201526564647265737360d01b606482015260840161088c565b610ea1816124a1565b611a346123ab565b6001600160a01b038116611a5b5760405163d92e233d60e01b815260040160405180910390fd5b600680546001600160a01b0319166001600160a01b0383169081179091556040517f92060e1909279aefa624ed1bce0196f5683a70dfbdba1e2114de87d3e893277f90600090a250565b600054600160a01b900460ff1615610a455760405162461bcd60e51b815260206004820152601060248201526f14185d5cd8589b194e881c185d5cd95960821b604482015260640161088c565b600754604051631c98849b60e01b81523360048201526000916001600160a01b031690631c98849b90602401602060405180830381865afa158015611b3b573d6000803e3d6000fd5b505050506040513d601f19601f82011682018060405250810190611b5f9190613814565b80611b735750600954600160a01b900460ff165b905080158015611b9157503360009081526003602052604090205415155b15611bec573360008181526003602052604081208054909190611bb657611bb6613831565b60009182526020909120015460405163675d034960e01b81526001600160a01b039092166004830152602482015260440161088c565b60608201516001600160a01b0316611c175760405163d92e233d60e01b815260040160405180910390fd5b66b1a2bc2ec500008261010001511115611c5b5761010082015160405163037664ab60e21b8152600481019190915266b1a2bc2ec50000602482015260440161088c565b60e08201516001600160a01b0316611c905761010082015115611c9057604051625daeb360e91b815260040160405180910390fd5b6101608201516001600160a01b031615611d4657600654610160830151604051633485a48d60e21b81526001600160a01b03918216600482015291169063d216923490602401602060405180830381865afa158015611cf3573d6000803e3d6000fd5b505050506040513d601f19601f82011682018060405250810190611d179190613814565b611d46576101608201516040516364e219bd60e01b81526001600160a01b03909116600482015260240161088c565b6004805483516040516363d8a2a760e11b81526001600160a01b0391821693810193909352169063c7b1454e90602401602060405180830381865afa158015611d93573d6000803e3d6000fd5b505050506040513d601f19601f82011682018060405250810190611db79190613814565b158015611e2c575060048054604080516375abeba960e11b815290516001600160a01b039092169263eb57d7529282820192602092908290030181865afa158015611e06573d6000803e3d6000fd5b505050506040513d601f19601f82011682018060405250810190611e2a9190613814565b155b15611e5857815160405163f94cca3960e01b81526001600160a01b03909116600482015260240161088c565b6005546080830151604051631dd6f64960e31b815260048101919091526000916001600160a01b03169063eeb7b24890602401602060405180830381865afa158015611ea8573d6000803e3d6000fd5b505050506040513d601f19601f82011682018060405250810190611ecc9190613a5c565b90506001600160a01b038116611efd578260800151604051630bd49acb60e31b815260040161088c91815260200190565b8251602084015160808501516040516317192c2960e01b81526000936001600160a01b0316926317192c2992611f3e92600401918252602082015260400190565b600060405180830381865afa158015611f5b573d6000803e3d6000fd5b505050506040513d6000823e601f3d908101601f19168201604052611f839190810190613998565b6020810151909150611fb05783608001516040516303531cc560e01b815260040161088c91815260200190565b83516020850151608086015160a087015160405163106c002d60e11b81526004810193909352602483019190915260448201526000916001600160a01b0316906320d8005a90606401602060405180830381865afa158015612016573d6000803e3d6000fd5b505050506040513d601f19601f8201168201806040525081019061203a9190613b65565b90508060000361207057608085015160a0860151604051636bb6647d60e11b81526004810192909252602482015260440161088c565b808560c0015110156120a55760c085015160405163d8da863d60e01b815260048101919091526024810182905260440161088c565b81516001600160a01b03811615611782578561014001514211156120ec57610140860151604051630f88f04960e41b8152600481019190915242602482015260440161088c565b6120f686826127e9565b61178257604051638baa579f60e01b815260040160405180910390fd5b600a546040516bffffffffffffffffffffffff193060601b1660208201526034810191909152600090819060540160408051601f19818403018152919052805160209091012090506121857f30644e72e131a029b85045b68181585d2833e84879b9709143e1f593f000000182613b94565b92915050565b600081815260026020818152604080842081516101a08101835281546001600160a01b0390811682526001830154811694820194909452938101548316918401919091526003810154606084015260048101546080840152600581015460a0840152600681015460c0840152600781015460e0840152600881015461010084015260098101548216610120840152600a810154610140840152600b810154909116610160830152600c81018054610180840191906122489061369b565b80601f01602080910402602001604051908101604052809291908181526020018280546122749061369b565b80156122c15780601f10612296576101008083540402835291602001916122c1565b820191906000526020600020905b8154815290600101906020018083116122a457829003601f168201915b50505091909252505081516001600160a01b031660009081526003602052604090209192506122f29190508361291b565b6000828152600260208190526040822080546001600160a01b031990811682556001820180548216905591810180548316905560038101839055600481018390556005810183905560068101839055600781018390556008810183905560098101805483169055600a8101839055600b810180549092169091559061237a600c8301826130d9565b505060405182907f95eadd9e42ccacb548c6389441b53e6eebec39e11adaea9029a25fe1222483e090600090a25050565b6000546001600160a01b03163314610a455760405162461bcd60e51b815260206004820181905260248201527f4f776e61626c653a2063616c6c6572206973206e6f7420746865206f776e6572604482015260640161088c565b61240d611aa5565b6000805460ff60a01b1916600160a01b1790557f62e78cea01bee320cd4e420270b5ea74000d11b0c9f74754ebdbfc544b05a2586124483390565b6040516001600160a01b03909116815260200160405180910390a1565b61246d612a43565b6000805460ff60a01b191690557f5db9ee0a495bf2e6ff9c91a7834c1ba4fdd244a5e8aa4e537bd38aeae4b073aa33612448565b600080546001600160a01b038381166001600160a01b0319831681178455604051919092169283917f8be0079c531659141344cd1fd0a4f28419497f9722a3daafe3b4186f6b6457e09190a35050565b6002600154036125435760405162461bcd60e51b815260206004820152601f60248201527f5265656e7472616e637947756172643a207265656e7472616e742063616c6c00604482015260640161088c565b6002600155565b6000612557858484612a93565b905060006125658284613ba8565b6020850151909150612582906001600160a01b0388169083612b76565b83602001516001600160a01b0316857fd50b3b21bc45b85ddfaec58dbf56fe9b88754d08f47dcf5143b63258a57ad9448360016040516125ce9291909182521515602082015260400190565b60405180910390a3505050505050565b60006125eb868585612a93565b905060006125f98285613ba8565b6020860151610160870151919250906001600160a01b03161561277f5761016086015160405163095ea7b360e01b81526001600160a01b039182166004820152602481018490529089169063095ea7b3906044016020604051808303816000875af115801561266c573d6000803e3d6000fd5b505050506040513d601f19601f820116820180604052508101906126909190613814565b508561016001516001600160a01b03166307e0b6c28784876040518463ffffffff1660e01b81526004016126c693929190613bbb565b600060405180830381600087803b1580156126e057600080fd5b505af11580156126f4573d6000803e3d6000fd5b5050505061016086015160405163095ea7b360e01b81526001600160a01b039182166004820152600060248201529089169063095ea7b3906044016020604051808303816000875af115801561274e573d6000803e3d6000fd5b505050506040513d601f19601f820116820180604052508101906127729190613814565b5050610160850151612799565b6020860151612799906001600160a01b038a169084612b76565b60408051838152600060208201526001600160a01b0383169189917fd50b3b21bc45b85ddfaec58dbf56fe9b88754d08f47dcf5143b63258a57ad944910160405180910390a35050505050505050565b8151602080840151604080860151606080880151608089015160a08a015160c08b01516101408c015196516bffffffffffffffffffffffff1930871b81169a82019a909a5299851b891660348b015260488a01979097526068890194909452911b9094166088860152609c85019390935260bc84019290925260dc83015260fc8201527f000000000000000000000000000000000000000000000000000000000000000061011c820152600090819061013c01604051602081830303815290604052905060006128ed82805190602001207f19457468657265756d205369676e6564204d6573736167653a0a3332000000006000908152601c91909152603c902090565b905061291281866101200151866001600160a01b0316612bc89092919063ffffffff16565b95945050505050565b6000806129778480548060200260200160405190810160405280929190818152602001828054801561296c57602002820191906000526020600020905b815481526020019060010190808311612958575b505050505084612c1f565b91509150806129c05760405162461bcd60e51b8152602060048201526015602482015274313cba32b99999103737ba1034b71030b93930bc9760591b604482015260640161088c565b83546000906129d190600190613ba8565b9050808314612a16578481815481106129ec576129ec613831565b9060005260206000200154858481548110612a0957612a09613831565b6000918252602090912001555b84805480612a2657612a26613be6565b600190038181906000526020600020016000905590555050505050565b600054600160a01b900460ff16610a455760405162461bcd60e51b815260206004820152601460248201527314185d5cd8589b194e881b9bdd081c185d5cd95960621b604482015260640161088c565b600954600090819081906001600160a01b031615801590612ab657506000600854115b15612af957670de0b6b3a764000060085485612ad29190613bfc565b612adc9190613c13565b600954909250612af9906001600160a01b03888116911684612b76565b6101208501516001600160a01b031615801590612b1b57506000856101400151115b15612b6257670de0b6b3a764000085610140015185612b3a9190613bfc565b612b449190613c13565b610120860151909150612b62906001600160a01b0388169083612b76565b612b6c8183613c27565b9695505050505050565b604080516001600160a01b038416602482015260448082018490528251808303909101815260649091019091526020810180516001600160e01b031663a9059cbb60e01b179052610a30908490612c82565b6000806000612bd78585612d57565b90925090506000816004811115612bf057612bf0613c3a565b148015612c0e5750856001600160a01b0316826001600160a01b0316145b80612b6c5750612b6c868686612d99565b81516000908190815b81811015612c6f5784868281518110612c4357612c43613831565b602002602001015103612c5d57925060019150612c7b9050565b80612c67816137f0565b915050612c28565b50600019600092509250505b9250929050565b6000612cd7826040518060400160405280602081526020017f5361666545524332303a206c6f772d6c6576656c2063616c6c206661696c6564815250856001600160a01b0316612e859092919063ffffffff16565b9050805160001480612cf8575080806020019051810190612cf89190613814565b610a305760405162461bcd60e51b815260206004820152602a60248201527f5361666545524332303a204552433230206f7065726174696f6e20646964206e6044820152691bdd081cdd58d8d9595960b21b606482015260840161088c565b6000808251604103612d8d5760208301516040840151606085015160001a612d8187828585612e9c565b94509450505050612c7b565b50600090506002612c7b565b6000806000856001600160a01b0316631626ba7e60e01b8686604051602401612dc3929190613c50565b60408051601f198184030181529181526020820180516001600160e01b03166001600160e01b0319909416939093179092529051612e019190613c69565b600060405180830381855afa9150503d8060008114612e3c576040519150601f19603f3d011682016040523d82523d6000602084013e612e41565b606091505b5091509150818015612e5557506020815110155b8015612b6c57508051630b135d3f60e11b90612e7a9083016020908101908401613b65565b149695505050505050565b6060612e948484600085612f60565b949350505050565b6000807f7fffffffffffffffffffffffffffffff5d576e7357a4501ddfe92f46681b20a0831115612ed35750600090506003612f57565b6040805160008082526020820180845289905260ff881692820192909252606081018690526080810185905260019060a0016020604051602081039080840390855afa158015612f27573d6000803e3d6000fd5b5050604051601f1901519150506001600160a01b038116612f5057600060019250925050612f57565b9150600090505b94509492505050565b606082471015612fc15760405162461bcd60e51b815260206004820152602660248201527f416464726573733a20696e73756666696369656e742062616c616e636520666f6044820152651c8818d85b1b60d21b606482015260840161088c565b600080866001600160a01b03168587604051612fdd9190613c69565b60006040518083038185875af1925050503d806000811461301a576040519150601f19603f3d011682016040523d82523d6000602084013e61301f565b606091505b50915091506130308783838761303b565b979650505050505050565b606083156130aa5782516000036130a3576001600160a01b0385163b6130a35760405162461bcd60e51b815260206004820152601d60248201527f416464726573733a2063616c6c20746f206e6f6e2d636f6e7472616374000000604482015260640161088c565b5081612e94565b612e9483838151156130bf5781518083602001fd5b8060405162461bcd60e51b815260040161088c9190613c85565b5080546130e59061369b565b6000825580601f106130f5575050565b601f016020900490600052602060002090810190610ea191905b80821115613123576000815560010161310f565b5090565b60006020828403121561313957600080fd5b81356001600160401b0381111561314f57600080fd5b82016101a0818503121561316257600080fd5b9392505050565b6000806020838503121561317c57600080fd5b82356001600160401b038082111561319357600080fd5b818501915085601f8301126131a757600080fd5b8135818111156131b657600080fd5b8660208260051b85010111156131cb57600080fd5b60209290920196919550909350505050565b6001600160a01b0381168114610ea157600080fd5b80356131fd816131dd565b919050565b60006020828403121561321457600080fd5b8135613162816131dd565b6020808252825182820181905260009190848201906040850190845b818110156132575783518352928401929184019160010161323b565b50909695505050505050565b60006020828403121561327557600080fd5b5035919050565b8015158114610ea157600080fd5b60006020828403121561329c57600080fd5b81356131628161327c565b6000602082840312156132b957600080fd5b81356001600160401b038111156132cf57600080fd5b82016080818503121561316257600080fd5b60005b838110156132fc5781810151838201526020016132e4565b50506000910152565b6000815180845261331d8160208601602086016132e1565b601f01601f19169290920160200192915050565b80516001600160a01b0316825260006101a0602083015161335d60208601826001600160a01b03169052565b50604083015161337860408601826001600160a01b03169052565b50606083015160608501526080830151608085015260a083015160a085015260c083015160c085015260e083015160e0850152610100808401518186015250610120808401516133d2828701826001600160a01b03169052565b50506101408381015190850152610160808401516001600160a01b03169085015261018080840151818601839052612b6c83870182613305565b6020815260006131626020830184613331565b634e487b7160e01b600052604160045260246000fd5b6040516101a081016001600160401b03811182821017156134585761345861341f565b60405290565b6040516101e081016001600160401b03811182821017156134585761345861341f565b604051606081016001600160401b03811182821017156134585761345861341f565b604051601f8201601f191681016001600160401b03811182821017156134cb576134cb61341f565b604052919050565b60006001600160401b038211156134ec576134ec61341f565b50601f01601f191660200190565b600082601f83011261350b57600080fd5b813561351e613519826134d3565b6134a3565b81815284602083860101111561353357600080fd5b816020850160208301376000918101602001919091529392505050565b60006101a0823603121561356357600080fd5b61356b613435565b613574836131f2565b81526020830135602082015260408301356040820152613596606084016131f2565b60608201526080830135608082015260a083013560a082015260c083013560c08201526135c560e084016131f2565b60e08201526101008381013590820152610120808401356001600160401b03808211156135f157600080fd5b6135fd368388016134fa565b8385015261014092508286013583850152610160925061361e8387016131f2565b8385015261018092508286013591508082111561363a57600080fd5b50613647368287016134fa565b918301919091525092915050565b6000808335601e1984360301811261366c57600080fd5b8301803591506001600160401b0382111561368657600080fd5b602001915036819003821315612c7b57600080fd5b600181811c908216806136af57607f821691505b6020821081036136cf57634e487b7160e01b600052602260045260246000fd5b50919050565b601f821115610a3057600081815260208120601f850160051c810160208610156136fc5750805b601f850160051c820191505b8181101561178257828155600101613708565b81516001600160401b038111156137345761373461341f565b61374881613742845461369b565b846136d5565b602080601f83116001811461377d57600084156137655750858301515b600019600386901b1c1916600185901b178555611782565b600085815260208120601f198616915b828110156137ac5788860151825594840194600190910190840161378d565b50858210156137ca5787850151600019600388901b60f8161c191681555b5050505050600190811b01905550565b634e487b7160e01b600052601160045260246000fd5b600060018201613802576138026137da565b5060010190565b80516131fd8161327c565b60006020828403121561382657600080fd5b81516131628161327c565b634e487b7160e01b600052603260045260246000fd5b80516131fd816131dd565b60006040828403121561386457600080fd5b604051604081018181106001600160401b03821117156138865761388661341f565b604052825181526020928301519281019290925250919050565b600061020082840312156138b357600080fd5b6138bb61345e565b6138c483613847565b81526138d260208401613847565b60208201526138e360408401613847565b6040820152606083015160608201526138ff8460808501613852565b608082015261391060c08401613809565b60a082015260e083015160c08201526101008084015160e083015261012080850151828401526101409150818501518184015250610160808501518284015261018091508185015181840152506101a061396b818601613847565b828401526101c0915061397f828601613847565b908301526101e093909301519281019290925250919050565b600060208083850312156139ab57600080fd5b82516001600160401b03808211156139c257600080fd5b90840190606082870312156139d657600080fd5b6139de613481565b82516139e9816131dd565b81528284015184820152604083015182811115613a0557600080fd5b80840193505086601f840112613a1a57600080fd5b82519150613a2a613519836134d3565b8281528785848601011115613a3e57600080fd5b613a4d838683018787016132e1565b60408201529695505050505050565b600060208284031215613a6e57600080fd5b8151613162816131dd565b6020815260008251610120806020850152613a98610140850183613305565b91506020850151613ab460408601826001600160a01b03169052565b506040850151606085015260608501516080850152608085015160a085015260a085015160c085015260c085015160e085015260e0850151601f19610100818786030181880152613b058584613305565b908801518782039092018488015293509050612b6c8382613305565b600060608284031215613b3357600080fd5b613b3b613481565b8251613b468161327c565b8152602083810151908201526040928301519281019290925250919050565b600060208284031215613b7757600080fd5b5051919050565b634e487b7160e01b600052601260045260246000fd5b600082613ba357613ba3613b7e565b500690565b81810381811115612185576121856137da565b606081526000613bce6060830186613331565b8460208401528281036040840152612b6c8185613305565b634e487b7160e01b600052603160045260246000fd5b8082028115828204841417612185576121856137da565b600082613c2257613c22613b7e565b500490565b80820180821115612185576121856137da565b634e487b7160e01b600052602160045260246000fd5b828152604060208201526000612e946040830184613305565b60008251613c7b8184602087016132e1565b9190910192915050565b602081526000613162602083018461330556fea2646970667358221220c5ac26e84ad78f33fc4ab596b89580e079bc6fe63c64bfacf07de966334abb2664736f6c63430008120033",
  "devdoc": {
    "events": {
      "Paused(address)": {
        "details": "Emitted when the pause is triggered by `account`."
      },
      "Unpaused(address)": {
        "details": "Emitted when the pause is lifted by `account`."
      }
    },
    "kind": "dev",
    "methods": {
      "cancelIntent(bytes32)": {
        "params": {
          "_intentHash": "Hash of intent being cancelled"
        }
      },
      "fulfillIntent((bytes,bytes32,bytes,bytes))": {
        "details": "This function adds a reentrancy guard as it's calling the post intent hook contract which itself might call  malicious contracts.",
        "params": {
          "_params": "Struct containing all the fulfill intent parameters"
        }
      },
      "owner()": {
        "details": "Returns the address of the current owner."
      },
      "paused()": {
        "details": "Returns true if the contract is paused, and false otherwise."
      },
      "pruneIntents(bytes32[])": {
        "params": {
          "_intents": "Array of intent hashes to prune"
        }
      },
      "releaseFundsToPayer(bytes32)": {
        "params": {
          "_intentHash": "Hash of intent to resolve by releasing the funds"
        }
      },
      "renounceOwnership()": {
        "details": "Leaves the contract without owner. It will not be possible to call `onlyOwner` functions. Can only be called by the current owner. NOTE: Renouncing ownership will leave the contract without an owner, thereby disabling any functionality that is only available to the owner."
      },
      "setAllowMultipleIntents(bool)": {
        "params": {
          "_allowMultiple": "True to allow all accounts to signal multiple intents, false to restrict to whitelisted relayers only"
        }
      },
      "setEscrowRegistry(address)": {
        "params": {
          "_escrowRegistry": "New escrow registry address"
        }
      },
      "setPostIntentHookRegistry(address)": {
        "params": {
          "_postIntentHookRegistry": "New post intent hook registry address"
        }
      },
      "setProtocolFee(uint256)": {
        "params": {
          "_protocolFee": "New protocol fee in preciseUnits (1e16 = 1%)"
        }
      },
      "setProtocolFeeRecipient(address)": {
        "params": {
          "_protocolFeeRecipient": "New protocol fee recipient address"
        }
      },
      "setRelayerRegistry(address)": {
        "params": {
          "_relayerRegistry": "New relayer registry address"
        }
      },
      "signalIntent((address,uint256,uint256,address,bytes32,bytes32,uint256,address,uint256,bytes,uint256,address,bytes))": {
        "params": {
          "_params": "Struct containing all the intent parameters"
        }
      },
      "transferOwnership(address)": {
        "details": "Transfers ownership of the contract to a new account (`newOwner`). Can only be called by the current owner."
      }
    },
    "title": "Orchestrator",
    "version": 1
  },
  "userdoc": {
    "kind": "user",
    "methods": {
      "cancelIntent(bytes32)": {
        "notice": "Only callable by the originator of the intent. Cancels an outstanding intent. Unlocks liquidity for the corresponding deposit on the escrow contract."
      },
      "fulfillIntent((bytes,bytes32,bytes,bytes))": {
        "notice": "Anyone can submit a fulfill intent transaction, even if caller isn't the intent owner. Upon submission the offchain payment proof is verified, payment details are validated, intent is removed, and escrow state is updated.  Deposit token is transferred to the intent.to address."
      },
      "pauseOrchestrator()": {
        "notice": "GOVERNANCE ONLY: Pauses intent creation and fulfillment functionality.  Functionalities that are paused: - Intent creation (signalIntent) - Intent fulfillment (fulfillIntent) Functionalities that remain unpaused to allow users to recover funds: - Intent cancellation (cancelIntent) - Manual fund release by depositor (releaseFundsToPayer) - Intent pruning by escrow (pruneIntents) - All governance functions - All view functions"
      },
      "pruneIntents(bytes32[])": {
        "notice": "Only the escrow contract can call this function. Called by escrow to prune specific expired intents. Escrow leads the cleanup process. "
      },
      "releaseFundsToPayer(bytes32)": {
        "notice": "Allows depositor to release funds to the payer in case of a failed fulfill intent or because of some other arrangement between the two parties. Upon submission we check to make sure the msg.sender is the depositor, the intent is removed, and  escrow state is updated. Deposit token is transferred to the payer."
      },
      "setAllowMultipleIntents(bool)": {
        "notice": "GOVERNANCE ONLY: Sets whether all accounts can signal multiple intents."
      },
      "setEscrowRegistry(address)": {
        "notice": "GOVERNANCE ONLY: Updates the escrow registry address."
      },
      "setPostIntentHookRegistry(address)": {
        "notice": "GOVERNANCE ONLY: Updates the post intent hook registry address."
      },
      "setProtocolFee(uint256)": {
        "notice": "GOVERNANCE ONLY: Updates the protocol fee. This fee is charged to takers upon a successful fulfillment of an intent."
      },
      "setProtocolFeeRecipient(address)": {
        "notice": "GOVERNANCE ONLY: Updates the protocol fee recipient address."
      },
      "setRelayerRegistry(address)": {
        "notice": "GOVERNANCE ONLY: Updates the relayer registry address."
      },
      "signalIntent((address,uint256,uint256,address,bytes32,bytes32,uint256,address,uint256,bytes,uint256,address,bytes))": {
        "notice": "Signals intent to pay the depositor defined in the _depositId the _amount * deposit conversionRate off-chain in order to unlock _amount of funds on-chain. Caller must provide a signature from the deposit's gating service to prove their eligibility to take liquidity. If there are prunable intents then they will be deleted from the deposit to be able  to maintain state hygiene. Locks liquidity for the corresponding deposit on the escrow contract."
      },
      "unpauseOrchestrator()": {
        "notice": "GOVERNANCE ONLY: Restarts paused functionality for the orchestrator."
      }
    },
    "notice": "Orchestrator contract for the ZKP2P protocol. This contract is responsible for managing the intent (order)  lifecycle and orchestrating the P2P trading of fiat currency and onchain assets.",
    "version": 1
  },
  "storageLayout": {
    "storage": [
      {
        "astId": 7,
        "contract": "contracts/Orchestrator.sol:Orchestrator",
        "label": "_owner",
        "offset": 0,
        "slot": "0",
        "type": "t_address"
      },
      {
        "astId": 144,
        "contract": "contracts/Orchestrator.sol:Orchestrator",
        "label": "_paused",
        "offset": 20,
        "slot": "0",
        "type": "t_bool"
      },
      {
        "astId": 245,
        "contract": "contracts/Orchestrator.sol:Orchestrator",
        "label": "_status",
        "offset": 0,
        "slot": "1",
        "type": "t_uint256"
      },
      {
        "astId": 6502,
        "contract": "contracts/Orchestrator.sol:Orchestrator",
        "label": "intents",
        "offset": 0,
        "slot": "2",
        "type": "t_mapping(t_bytes32,t_struct(Intent)9937_storage)"
      },
      {
        "astId": 6507,
        "contract": "contracts/Orchestrator.sol:Orchestrator",
        "label": "accountIntents",
        "offset": 0,
        "slot": "3",
        "type": "t_mapping(t_address,t_array(t_bytes32)dyn_storage)"
      },
      {
        "astId": 6510,
        "contract": "contracts/Orchestrator.sol:Orchestrator",
        "label": "escrowRegistry",
        "offset": 0,
        "slot": "4",
        "type": "t_contract(IEscrowRegistry)9888"
      },
      {
        "astId": 6513,
        "contract": "contracts/Orchestrator.sol:Orchestrator",
        "label": "paymentVerifierRegistry",
        "offset": 0,
        "slot": "5",
        "type": "t_contract(IPaymentVerifierRegistry)10277"
      },
      {
        "astId": 6516,
        "contract": "contracts/Orchestrator.sol:Orchestrator",
        "label": "postIntentHookRegistry",
        "offset": 0,
        "slot": "6",
        "type": "t_contract(IPostIntentHookRegistry)10310"
      },
      {
        "astId": 6519,
        "contract": "contracts/Orchestrator.sol:Orchestrator",
        "label": "relayerRegistry",
        "offset": 0,
        "slot": "7",
        "type": "t_contract(IRelayerRegistry)10386"
      },
      {
        "astId": 6521,
        "contract": "contracts/Orchestrator.sol:Orchestrator",
        "label": "protocolFee",
        "offset": 0,
        "slot": "8",
        "type": "t_uint256"
      },
      {
        "astId": 6523,
        "contract": "contracts/Orchestrator.sol:Orchestrator",
        "label": "protocolFeeRecipient",
        "offset": 0,
        "slot": "9",
        "type": "t_address"
      },
      {
        "astId": 6525,
        "contract": "contracts/Orchestrator.sol:Orchestrator",
        "label": "allowMultipleIntents",
        "offset": 20,
        "slot": "9",
        "type": "t_bool"
      },
      {
        "astId": 6527,
        "contract": "contracts/Orchestrator.sol:Orchestrator",
        "label": "intentCounter",
        "offset": 0,
        "slot": "10",
        "type": "t_uint256"
      }
    ],
    "types": {
      "t_address": {
        "encoding": "inplace",
        "label": "address",
        "numberOfBytes": "20"
      },
      "t_array(t_bytes32)dyn_storage": {
        "base": "t_bytes32",
        "encoding": "dynamic_array",
        "label": "bytes32[]",
        "numberOfBytes": "32"
      },
      "t_bool": {
        "encoding": "inplace",
        "label": "bool",
        "numberOfBytes": "1"
      },
      "t_bytes32": {
        "encoding": "inplace",
        "label": "bytes32",
        "numberOfBytes": "32"
      },
      "t_bytes_storage": {
        "encoding": "bytes",
        "label": "bytes",
        "numberOfBytes": "32"
      },
      "t_contract(IEscrowRegistry)9888": {
        "encoding": "inplace",
        "label": "contract IEscrowRegistry",
        "numberOfBytes": "20"
      },
      "t_contract(IPaymentVerifierRegistry)10277": {
        "encoding": "inplace",
        "label": "contract IPaymentVerifierRegistry",
        "numberOfBytes": "20"
      },
      "t_contract(IPostIntentHook)10294": {
        "encoding": "inplace",
        "label": "contract IPostIntentHook",
        "numberOfBytes": "20"
      },
      "t_contract(IPostIntentHookRegistry)10310": {
        "encoding": "inplace",
        "label": "contract IPostIntentHookRegistry",
        "numberOfBytes": "20"
      },
      "t_contract(IRelayerRegistry)10386": {
        "encoding": "inplace",
        "label": "contract IRelayerRegistry",
        "numberOfBytes": "20"
      },
      "t_mapping(t_address,t_array(t_bytes32)dyn_storage)": {
        "encoding": "mapping",
        "key": "t_address",
        "label": "mapping(address => bytes32[])",
        "numberOfBytes": "32",
        "value": "t_array(t_bytes32)dyn_storage"
      },
      "t_mapping(t_bytes32,t_struct(Intent)9937_storage)": {
        "encoding": "mapping",
        "key": "t_bytes32",
        "label": "mapping(bytes32 => struct IOrchestrator.Intent)",
        "numberOfBytes": "32",
        "value": "t_struct(Intent)9937_storage"
      },
      "t_struct(Intent)9937_storage": {
        "encoding": "inplace",
        "label": "struct IOrchestrator.Intent",
        "members": [
          {
            "astId": 9911,
            "contract": "contracts/Orchestrator.sol:Orchestrator",
            "label": "owner",
            "offset": 0,
            "slot": "0",
            "type": "t_address"
          },
          {
            "astId": 9913,
            "contract": "contracts/Orchestrator.sol:Orchestrator",
            "label": "to",
            "offset": 0,
            "slot": "1",
            "type": "t_address"
          },
          {
            "astId": 9915,
            "contract": "contracts/Orchestrator.sol:Orchestrator",
            "label": "escrow",
            "offset": 0,
            "slot": "2",
            "type": "t_address"
          },
          {
            "astId": 9917,
            "contract": "contracts/Orchestrator.sol:Orchestrator",
            "label": "depositId",
            "offset": 0,
            "slot": "3",
            "type": "t_uint256"
          },
          {
            "astId": 9919,
            "contract": "contracts/Orchestrator.sol:Orchestrator",
            "label": "amount",
            "offset": 0,
            "slot": "4",
            "type": "t_uint256"
          },
          {
            "astId": 9921,
            "contract": "contracts/Orchestrator.sol:Orchestrator",
            "label": "timestamp",
            "offset": 0,
            "slot": "5",
            "type": "t_uint256"
          },
          {
            "astId": 9923,
            "contract": "contracts/Orchestrator.sol:Orchestrator",
            "label": "paymentMethod",
            "offset": 0,
            "slot": "6",
            "type": "t_bytes32"
          },
          {
            "astId": 9925,
            "contract": "contracts/Orchestrator.sol:Orchestrator",
            "label": "fiatCurrency",
            "offset": 0,
            "slot": "7",
            "type": "t_bytes32"
          },
          {
            "astId": 9927,
            "contract": "contracts/Orchestrator.sol:Orchestrator",
            "label": "conversionRate",
            "offset": 0,
            "slot": "8",
            "type": "t_uint256"
          },
          {
            "astId": 9929,
            "contract": "contracts/Orchestrator.sol:Orchestrator",
            "label": "referrer",
            "offset": 0,
            "slot": "9",
            "type": "t_address"
          },
          {
            "astId": 9931,
            "contract": "contracts/Orchestrator.sol:Orchestrator",
            "label": "referrerFee",
            "offset": 0,
            "slot": "10",
            "type": "t_uint256"
          },
          {
            "astId": 9934,
            "contract": "contracts/Orchestrator.sol:Orchestrator",
            "label": "postIntentHook",
            "offset": 0,
            "slot": "11",
            "type": "t_contract(IPostIntentHook)10294"
          },
          {
            "astId": 9936,
            "contract": "contracts/Orchestrator.sol:Orchestrator",
            "label": "data",
            "offset": 0,
            "slot": "12",
            "type": "t_bytes_storage"
          }
        ],
        "numberOfBytes": "416"
      },
      "t_uint256": {
        "encoding": "inplace",
        "label": "uint256",
        "numberOfBytes": "32"
      }
    }
  }
}