{
  "address": "0x3D1752E0cC528fd4e3f29f3E0C49faB9ff4c1285",
  "abi": [
    {
      "inputs": [
        {
          "internalType": "address",
          "name": "_owner",
          "type": "address"
        },
        {
          "internalType": "uint256",
          "name": "_chainId",
          "type": "uint256"
        },
        {
          "internalType": "address",
          "name": "_escrowRegistry",
          "type": "address"
        },
        {
          "internalType": "address",
          "name": "_paymentVerifierRegistry",
          "type": "address"
        },
        {
          "internalType": "address",
          "name": "_postIntentHookRegistry",
          "type": "address"
        },
        {
          "internalType": "address",
          "name": "_relayerRegistry",
          "type": "address"
        },
        {
          "internalType": "uint256",
          "name": "_protocolFee",
          "type": "uint256"
        },
        {
          "internalType": "address",
          "name": "_protocolFeeRecipient",
          "type": "address"
        },
        {
          "internalType": "uint256",
          "name": "_partialManualReleaseDelay",
          "type": "uint256"
        }
      ],
      "stateMutability": "nonpayable",
      "type": "constructor"
    },
    {
      "inputs": [
        {
          "internalType": "address",
          "name": "account",
          "type": "address"
        },
        {
          "internalType": "bytes32",
          "name": "existingIntent",
          "type": "bytes32"
        }
      ],
      "name": "AccountHasActiveIntent",
      "type": "error"
    },
    {
      "inputs": [
        {
          "internalType": "uint256",
          "name": "amount",
          "type": "uint256"
        },
        {
          "internalType": "uint256",
          "name": "max",
          "type": "uint256"
        }
      ],
      "name": "AmountAboveMax",
      "type": "error"
    },
    {
      "inputs": [
        {
          "internalType": "uint256",
          "name": "amount",
          "type": "uint256"
        },
        {
          "internalType": "uint256",
          "name": "min",
          "type": "uint256"
        }
      ],
      "name": "AmountBelowMin",
      "type": "error"
    },
    {
      "inputs": [
        {
          "internalType": "uint256",
          "name": "amount",
          "type": "uint256"
        },
        {
          "internalType": "uint256",
          "name": "limit",
          "type": "uint256"
        }
      ],
      "name": "AmountExceedsLimit",
      "type": "error"
    },
    {
      "inputs": [
        {
          "internalType": "address",
          "name": "verifier",
          "type": "address"
        },
        {
          "internalType": "bytes32",
          "name": "currency",
          "type": "bytes32"
        }
      ],
      "name": "CurrencyNotSupported",
      "type": "error"
    },
    {
      "inputs": [],
      "name": "EscrowLockFailed",
      "type": "error"
    },
    {
      "inputs": [
        {
          "internalType": "address",
          "name": "escrow",
          "type": "address"
        }
      ],
      "name": "EscrowNotWhitelisted",
      "type": "error"
    },
    {
      "inputs": [
        {
          "internalType": "uint256",
          "name": "fee",
          "type": "uint256"
        },
        {
          "internalType": "uint256",
          "name": "maximum",
          "type": "uint256"
        }
      ],
      "name": "FeeExceedsMaximum",
      "type": "error"
    },
    {
      "inputs": [
        {
          "internalType": "bytes32",
          "name": "expected",
          "type": "bytes32"
        },
        {
          "internalType": "bytes32",
          "name": "actual",
          "type": "bytes32"
        }
      ],
      "name": "HashMismatch",
      "type": "error"
    },
    {
      "inputs": [
        {
          "internalType": "bytes32",
          "name": "intentHash",
          "type": "bytes32"
        }
      ],
      "name": "IntentNotFound",
      "type": "error"
    },
    {
      "inputs": [],
      "name": "InvalidReferrerFeeConfiguration",
      "type": "error"
    },
    {
      "inputs": [],
      "name": "InvalidSignature",
      "type": "error"
    },
    {
      "inputs": [
        {
          "internalType": "uint256",
          "name": "currentTime",
          "type": "uint256"
        },
        {
          "internalType": "uint256",
          "name": "allowedTime",
          "type": "uint256"
        }
      ],
      "name": "PartialReleaseNotAllowedYet",
      "type": "error"
    },
    {
      "inputs": [],
      "name": "PaymentVerificationFailed",
      "type": "error"
    },
    {
      "inputs": [
        {
          "internalType": "address",
          "name": "hook",
          "type": "address"
        }
      ],
      "name": "PostIntentHookNotWhitelisted",
      "type": "error"
    },
    {
      "inputs": [
        {
          "internalType": "uint256",
          "name": "rate",
          "type": "uint256"
        },
        {
          "internalType": "uint256",
          "name": "minRate",
          "type": "uint256"
        }
      ],
      "name": "RateBelowMinimum",
      "type": "error"
    },
    {
      "inputs": [
        {
          "internalType": "uint256",
          "name": "expiration",
          "type": "uint256"
        },
        {
          "internalType": "uint256",
          "name": "currentTime",
          "type": "uint256"
        }
      ],
      "name": "SignatureExpired",
      "type": "error"
    },
    {
      "inputs": [
        {
          "internalType": "address",
          "name": "recipient",
          "type": "address"
        },
        {
          "internalType": "uint256",
          "name": "amount",
          "type": "uint256"
        }
      ],
      "name": "TransferFailed",
      "type": "error"
    },
    {
      "inputs": [
        {
          "internalType": "address",
          "name": "caller",
          "type": "address"
        },
        {
          "internalType": "address",
          "name": "authorized",
          "type": "address"
        }
      ],
      "name": "UnauthorizedCaller",
      "type": "error"
    },
    {
      "inputs": [
        {
          "internalType": "address",
          "name": "caller",
          "type": "address"
        }
      ],
      "name": "UnauthorizedEscrowCaller",
      "type": "error"
    },
    {
      "inputs": [
        {
          "internalType": "uint256",
          "name": "depositId",
          "type": "uint256"
        },
        {
          "internalType": "address",
          "name": "verifier",
          "type": "address"
        }
      ],
      "name": "VerifierNotSupported",
      "type": "error"
    },
    {
      "inputs": [
        {
          "internalType": "address",
          "name": "verifier",
          "type": "address"
        }
      ],
      "name": "VerifierNotWhitelisted",
      "type": "error"
    },
    {
      "inputs": [],
      "name": "ZeroAddress",
      "type": "error"
    },
    {
      "inputs": [],
      "name": "ZeroValue",
      "type": "error"
    },
    {
      "anonymous": false,
      "inputs": [
        {
          "indexed": false,
          "internalType": "bool",
          "name": "allowMultiple",
          "type": "bool"
        }
      ],
      "name": "AllowMultipleIntentsUpdated",
      "type": "event"
    },
    {
      "anonymous": false,
      "inputs": [
        {
          "indexed": true,
          "internalType": "address",
          "name": "escrowRegistry",
          "type": "address"
        }
      ],
      "name": "EscrowRegistryUpdated",
      "type": "event"
    },
    {
      "anonymous": false,
      "inputs": [
        {
          "indexed": true,
          "internalType": "bytes32",
          "name": "intentHash",
          "type": "bytes32"
        },
        {
          "indexed": true,
          "internalType": "address",
          "name": "fundsTransferredTo",
          "type": "address"
        },
        {
          "indexed": false,
          "internalType": "uint256",
          "name": "amount",
          "type": "uint256"
        },
        {
          "indexed": false,
          "internalType": "bool",
          "name": "isManualRelease",
          "type": "bool"
        },
        {
          "indexed": false,
          "internalType": "bytes32",
          "name": "paymentCurrency",
          "type": "bytes32"
        },
        {
          "indexed": false,
          "internalType": "string",
          "name": "paymentId",
          "type": "string"
        }
      ],
      "name": "IntentFulfilled",
      "type": "event"
    },
    {
      "anonymous": false,
      "inputs": [
        {
          "indexed": true,
          "internalType": "bytes32",
          "name": "intentHash",
          "type": "bytes32"
        }
      ],
      "name": "IntentPruned",
      "type": "event"
    },
    {
      "anonymous": false,
      "inputs": [
        {
          "indexed": true,
          "internalType": "bytes32",
          "name": "intentHash",
          "type": "bytes32"
        },
        {
          "indexed": true,
          "internalType": "address",
          "name": "escrow",
          "type": "address"
        },
        {
          "indexed": true,
          "internalType": "uint256",
          "name": "depositId",
          "type": "uint256"
        },
        {
          "indexed": false,
          "internalType": "address",
          "name": "verifier",
          "type": "address"
        },
        {
          "indexed": false,
          "internalType": "address",
          "name": "owner",
          "type": "address"
        },
        {
          "indexed": false,
          "internalType": "address",
          "name": "to",
          "type": "address"
        },
        {
          "indexed": false,
          "internalType": "uint256",
          "name": "amount",
          "type": "uint256"
        },
        {
          "indexed": false,
          "internalType": "bytes32",
          "name": "fiatCurrency",
          "type": "bytes32"
        },
        {
          "indexed": false,
          "internalType": "uint256",
          "name": "conversionRate",
          "type": "uint256"
        },
        {
          "indexed": false,
          "internalType": "uint256",
          "name": "timestamp",
          "type": "uint256"
        }
      ],
      "name": "IntentSignaled",
      "type": "event"
    },
    {
      "anonymous": false,
      "inputs": [
        {
          "indexed": true,
          "internalType": "address",
          "name": "previousOwner",
          "type": "address"
        },
        {
          "indexed": true,
          "internalType": "address",
          "name": "newOwner",
          "type": "address"
        }
      ],
      "name": "OwnershipTransferred",
      "type": "event"
    },
    {
      "anonymous": false,
      "inputs": [
        {
          "indexed": false,
          "internalType": "uint256",
          "name": "partialManualReleaseDelay",
          "type": "uint256"
        }
      ],
      "name": "PartialManualReleaseDelayUpdated",
      "type": "event"
    },
    {
      "anonymous": false,
      "inputs": [
        {
          "indexed": false,
          "internalType": "address",
          "name": "account",
          "type": "address"
        }
      ],
      "name": "Paused",
      "type": "event"
    },
    {
      "anonymous": false,
      "inputs": [
        {
          "indexed": true,
          "internalType": "address",
          "name": "paymentVerifierRegistry",
          "type": "address"
        }
      ],
      "name": "PaymentVerifierRegistryUpdated",
      "type": "event"
    },
    {
      "anonymous": false,
      "inputs": [
        {
          "indexed": true,
          "internalType": "address",
          "name": "postIntentHookRegistry",
          "type": "address"
        }
      ],
      "name": "PostIntentHookRegistryUpdated",
      "type": "event"
    },
    {
      "anonymous": false,
      "inputs": [
        {
          "indexed": true,
          "internalType": "address",
          "name": "protocolFeeRecipient",
          "type": "address"
        }
      ],
      "name": "ProtocolFeeRecipientUpdated",
      "type": "event"
    },
    {
      "anonymous": false,
      "inputs": [
        {
          "indexed": false,
          "internalType": "uint256",
          "name": "protocolFee",
          "type": "uint256"
        }
      ],
      "name": "ProtocolFeeUpdated",
      "type": "event"
    },
    {
      "anonymous": false,
      "inputs": [
        {
          "indexed": true,
          "internalType": "address",
          "name": "relayerRegistry",
          "type": "address"
        }
      ],
      "name": "RelayerRegistryUpdated",
      "type": "event"
    },
    {
      "anonymous": false,
      "inputs": [
        {
          "indexed": false,
          "internalType": "address",
          "name": "account",
          "type": "address"
        }
      ],
      "name": "Unpaused",
      "type": "event"
    },
    {
      "inputs": [],
      "name": "allowMultipleIntents",
      "outputs": [
        {
          "internalType": "bool",
          "name": "",
          "type": "bool"
        }
      ],
      "stateMutability": "view",
      "type": "function"
    },
    {
      "inputs": [
        {
          "internalType": "bytes32",
          "name": "_intentHash",
          "type": "bytes32"
        }
      ],
      "name": "cancelIntent",
      "outputs": [],
      "stateMutability": "nonpayable",
      "type": "function"
    },
    {
      "inputs": [],
      "name": "chainId",
      "outputs": [
        {
          "internalType": "uint256",
          "name": "",
          "type": "uint256"
        }
      ],
      "stateMutability": "view",
      "type": "function"
    },
    {
      "inputs": [],
      "name": "escrowRegistry",
      "outputs": [
        {
          "internalType": "contract IEscrowRegistry",
          "name": "",
          "type": "address"
        }
      ],
      "stateMutability": "view",
      "type": "function"
    },
    {
      "inputs": [
        {
          "components": [
            {
              "internalType": "bytes",
              "name": "paymentProof",
              "type": "bytes"
            },
            {
              "internalType": "bytes32",
              "name": "intentHash",
              "type": "bytes32"
            },
            {
              "internalType": "bytes",
              "name": "verificationData",
              "type": "bytes"
            },
            {
              "internalType": "bytes",
              "name": "postIntentHookData",
              "type": "bytes"
            }
          ],
          "internalType": "struct IOrchestrator.FulfillIntentParams",
          "name": "_params",
          "type": "tuple"
        }
      ],
      "name": "fulfillIntent",
      "outputs": [],
      "stateMutability": "nonpayable",
      "type": "function"
    },
    {
      "inputs": [
        {
          "internalType": "address",
          "name": "_account",
          "type": "address"
        }
      ],
      "name": "getAccountIntents",
      "outputs": [
        {
          "internalType": "bytes32[]",
          "name": "",
          "type": "bytes32[]"
        }
      ],
      "stateMutability": "view",
      "type": "function"
    },
    {
      "inputs": [
        {
          "internalType": "bytes32",
          "name": "_intentHash",
          "type": "bytes32"
        }
      ],
      "name": "getIntent",
      "outputs": [
        {
          "components": [
            {
              "internalType": "address",
              "name": "owner",
              "type": "address"
            },
            {
              "internalType": "address",
              "name": "to",
              "type": "address"
            },
            {
              "internalType": "address",
              "name": "escrow",
              "type": "address"
            },
            {
              "internalType": "uint256",
              "name": "depositId",
              "type": "uint256"
            },
            {
              "internalType": "uint256",
              "name": "amount",
              "type": "uint256"
            },
            {
              "internalType": "uint256",
              "name": "timestamp",
              "type": "uint256"
            },
            {
              "internalType": "address",
              "name": "paymentVerifier",
              "type": "address"
            },
            {
              "internalType": "bytes32",
              "name": "fiatCurrency",
              "type": "bytes32"
            },
            {
              "internalType": "uint256",
              "name": "conversionRate",
              "type": "uint256"
            },
            {
              "internalType": "address",
              "name": "referrer",
              "type": "address"
            },
            {
              "internalType": "uint256",
              "name": "referrerFee",
              "type": "uint256"
            },
            {
              "internalType": "contract IPostIntentHook",
              "name": "postIntentHook",
              "type": "address"
            },
            {
              "internalType": "bytes",
              "name": "data",
              "type": "bytes"
            }
          ],
          "internalType": "struct IOrchestrator.Intent",
          "name": "",
          "type": "tuple"
        }
      ],
      "stateMutability": "view",
      "type": "function"
    },
    {
      "inputs": [],
      "name": "intentCounter",
      "outputs": [
        {
          "internalType": "uint256",
          "name": "",
          "type": "uint256"
        }
      ],
      "stateMutability": "view",
      "type": "function"
    },
    {
      "inputs": [],
      "name": "owner",
      "outputs": [
        {
          "internalType": "address",
          "name": "",
          "type": "address"
        }
      ],
      "stateMutability": "view",
      "type": "function"
    },
    {
      "inputs": [],
      "name": "partialManualReleaseDelay",
      "outputs": [
        {
          "internalType": "uint256",
          "name": "",
          "type": "uint256"
        }
      ],
      "stateMutability": "view",
      "type": "function"
    },
    {
      "inputs": [],
      "name": "pauseOrchestrator",
      "outputs": [],
      "stateMutability": "nonpayable",
      "type": "function"
    },
    {
      "inputs": [],
      "name": "paused",
      "outputs": [
        {
          "internalType": "bool",
          "name": "",
          "type": "bool"
        }
      ],
      "stateMutability": "view",
      "type": "function"
    },
    {
      "inputs": [],
      "name": "paymentVerifierRegistry",
      "outputs": [
        {
          "internalType": "contract IPaymentVerifierRegistry",
          "name": "",
          "type": "address"
        }
      ],
      "stateMutability": "view",
      "type": "function"
    },
    {
      "inputs": [],
      "name": "postIntentHookRegistry",
      "outputs": [
        {
          "internalType": "contract IPostIntentHookRegistry",
          "name": "",
          "type": "address"
        }
      ],
      "stateMutability": "view",
      "type": "function"
    },
    {
      "inputs": [],
      "name": "protocolFee",
      "outputs": [
        {
          "internalType": "uint256",
          "name": "",
          "type": "uint256"
        }
      ],
      "stateMutability": "view",
      "type": "function"
    },
    {
      "inputs": [],
      "name": "protocolFeeRecipient",
      "outputs": [
        {
          "internalType": "address",
          "name": "",
          "type": "address"
        }
      ],
      "stateMutability": "view",
      "type": "function"
    },
    {
      "inputs": [
        {
          "internalType": "bytes32[]",
          "name": "_intents",
          "type": "bytes32[]"
        }
      ],
      "name": "pruneIntents",
      "outputs": [],
      "stateMutability": "nonpayable",
      "type": "function"
    },
    {
      "inputs": [],
      "name": "relayerRegistry",
      "outputs": [
        {
          "internalType": "contract IRelayerRegistry",
          "name": "",
          "type": "address"
        }
      ],
      "stateMutability": "view",
      "type": "function"
    },
    {
      "inputs": [
        {
          "internalType": "bytes32",
          "name": "_intentHash",
          "type": "bytes32"
        },
        {
          "internalType": "uint256",
          "name": "_releaseAmount",
          "type": "uint256"
        },
        {
          "internalType": "bytes",
          "name": "_releaseData",
          "type": "bytes"
        }
      ],
      "name": "releaseFundsToPayer",
      "outputs": [],
      "stateMutability": "nonpayable",
      "type": "function"
    },
    {
      "inputs": [],
      "name": "renounceOwnership",
      "outputs": [],
      "stateMutability": "nonpayable",
      "type": "function"
    },
    {
      "inputs": [
        {
          "internalType": "bool",
          "name": "_allowMultiple",
          "type": "bool"
        }
      ],
      "name": "setAllowMultipleIntents",
      "outputs": [],
      "stateMutability": "nonpayable",
      "type": "function"
    },
    {
      "inputs": [
        {
          "internalType": "address",
          "name": "_escrowRegistry",
          "type": "address"
        }
      ],
      "name": "setEscrowRegistry",
      "outputs": [],
      "stateMutability": "nonpayable",
      "type": "function"
    },
    {
      "inputs": [
        {
          "internalType": "uint256",
          "name": "_partialManualReleaseDelay",
          "type": "uint256"
        }
      ],
      "name": "setPartialManualReleaseDelay",
      "outputs": [],
      "stateMutability": "nonpayable",
      "type": "function"
    },
    {
      "inputs": [
        {
          "internalType": "address",
          "name": "_postIntentHookRegistry",
          "type": "address"
        }
      ],
      "name": "setPostIntentHookRegistry",
      "outputs": [],
      "stateMutability": "nonpayable",
      "type": "function"
    },
    {
      "inputs": [
        {
          "internalType": "uint256",
          "name": "_protocolFee",
          "type": "uint256"
        }
      ],
      "name": "setProtocolFee",
      "outputs": [],
      "stateMutability": "nonpayable",
      "type": "function"
    },
    {
      "inputs": [
        {
          "internalType": "address",
          "name": "_protocolFeeRecipient",
          "type": "address"
        }
      ],
      "name": "setProtocolFeeRecipient",
      "outputs": [],
      "stateMutability": "nonpayable",
      "type": "function"
    },
    {
      "inputs": [
        {
          "internalType": "address",
          "name": "_relayerRegistry",
          "type": "address"
        }
      ],
      "name": "setRelayerRegistry",
      "outputs": [],
      "stateMutability": "nonpayable",
      "type": "function"
    },
    {
      "inputs": [
        {
          "components": [
            {
              "internalType": "address",
              "name": "escrow",
              "type": "address"
            },
            {
              "internalType": "uint256",
              "name": "depositId",
              "type": "uint256"
            },
            {
              "internalType": "uint256",
              "name": "amount",
              "type": "uint256"
            },
            {
              "internalType": "address",
              "name": "to",
              "type": "address"
            },
            {
              "internalType": "address",
              "name": "verifier",
              "type": "address"
            },
            {
              "internalType": "bytes32",
              "name": "fiatCurrency",
              "type": "bytes32"
            },
            {
              "internalType": "uint256",
              "name": "conversionRate",
              "type": "uint256"
            },
            {
              "internalType": "address",
              "name": "referrer",
              "type": "address"
            },
            {
              "internalType": "uint256",
              "name": "referrerFee",
              "type": "uint256"
            },
            {
              "internalType": "bytes",
              "name": "gatingServiceSignature",
              "type": "bytes"
            },
            {
              "internalType": "uint256",
              "name": "signatureExpiration",
              "type": "uint256"
            },
            {
              "internalType": "contract IPostIntentHook",
              "name": "postIntentHook",
              "type": "address"
            },
            {
              "internalType": "bytes",
              "name": "data",
              "type": "bytes"
            }
          ],
          "internalType": "struct IOrchestrator.SignalIntentParams",
          "name": "_params",
          "type": "tuple"
        }
      ],
      "name": "signalIntent",
      "outputs": [],
      "stateMutability": "nonpayable",
      "type": "function"
    },
    {
      "inputs": [
        {
          "internalType": "address",
          "name": "newOwner",
          "type": "address"
        }
      ],
      "name": "transferOwnership",
      "outputs": [],
      "stateMutability": "nonpayable",
      "type": "function"
    },
    {
      "inputs": [],
      "name": "unpauseOrchestrator",
      "outputs": [],
      "stateMutability": "nonpayable",
      "type": "function"
    }
  ],
  "transactionHash": "0x2a6abdd37842fbf81df19696228f6418acf683f9689612496ebef95e5bbdf808",
  "args": [
    "0x84e113087C97Cd80eA9D78983D4B8Ff61ECa1929",
    84532,
    "0x4e0B0B4b20b94d17b1cA0a9fC7541312a5672F34",
    "0x60354e0DFF25404D8722f4dF8640b9103A78Cc3A",
    "0xb1127Bf450140cE90a06556C2e8d3C2CaDC6E185",
    "0x02300136d9C819105B8AA79f81417927431F785b",
    "0",
    "0x84e113087C97Cd80eA9D78983D4B8Ff61ECa1929",
    "43200"
  ],
  "numDeployments": 1,
  "solcInputHash": "22aa06e4f37e501f1f267dbeb03cdb0b",
  "bytecode": "0x60a06040523480156200001157600080fd5b5060405162003f6238038062003f6283398101604081905262000034916200021d565b6200003f33620000cf565b6000805460ff60a01b19169055600180556080889052600480546001600160a01b03199081166001600160a01b038a811691909117909255600580548216898416179055600680548216888416179055600780548216878416179055600885905560098054909116918416919091179055600b819055620000c0896200011f565b505050505050505050620002bd565b600080546001600160a01b038381166001600160a01b0319831681178455604051919092169283917f8be0079c531659141344cd1fd0a4f28419497f9722a3daafe3b4186f6b6457e09190a35050565b62000129620001a2565b6001600160a01b038116620001945760405162461bcd60e51b815260206004820152602660248201527f4f776e61626c653a206e6577206f776e657220697320746865207a65726f206160448201526564647265737360d01b60648201526084015b60405180910390fd5b6200019f81620000cf565b50565b6000546001600160a01b03163314620001fe5760405162461bcd60e51b815260206004820181905260248201527f4f776e61626c653a2063616c6c6572206973206e6f7420746865206f776e657260448201526064016200018b565b565b80516001600160a01b03811681146200021857600080fd5b919050565b60008060008060008060008060006101208a8c0312156200023d57600080fd5b620002488a62000200565b985060208a015197506200025f60408b0162000200565b96506200026f60608b0162000200565b95506200027f60808b0162000200565b94506200028f60a08b0162000200565b935060c08a01519250620002a660e08b0162000200565b91506101008a015190509295985092959850929598565b608051613c82620002e0600039600081816103440152612a460152613c826000f3fe608060405234801561001057600080fd5b50600436106101da5760003560e01c80638da5cb5b11610104578063cbcd99a3116100a2578063f2fde38b11610071578063f2fde38b14610401578063f5d4609114610414578063fc48395b1461041d578063fd7d24aa1461043057600080fd5b8063cbcd99a3146103a8578063d55f960d146103bb578063e521cb92146103ce578063f13c46aa146103e157600080fd5b8063a8b000bd116100de578063a8b000bd14610366578063ac7a520c14610379578063b0e21e8a1461038c578063b89462751461039557600080fd5b80638da5cb5b1461031b57806394ac05ad1461032c5780639a8a05921461033f57600080fd5b8063565105101161017c57806364df049e1161014b57806364df049e146102da578063715018a6146102ed578063787dce3d146102f557806381ceb7351461030857600080fd5b8063565105101461028d5780635c975abb146102ad578063648bdb32146102bf57806364cb2811146102c757600080fd5b806345a734b7116101b857806345a734b71461023757806347ff589d1461023f5780634fc47a67146102525780635095dd641461026957600080fd5b8063100e3d3c146101df5780632cc410dd146101f4578063406e1d1814610207575b600080fd5b6101f26101ed366004612f71565b610443565b005b6101f2610202366004612fac565b6107ef565b60045461021a906001600160a01b031681565b6040516001600160a01b0390911681526020015b60405180910390f35b6101f2610a98565b60075461021a906001600160a01b031681565b61025b600b5481565b60405190815260200161022e565b60095461027d90600160a01b900460ff1681565b604051901515815260200161022e565b6102a061029b366004613045565b610aaa565b60405161022e9190613062565b600054600160a01b900460ff1661027d565b6101f2610b16565b6101f26102d5366004613045565b610b26565b60095461021a906001600160a01b031681565b6101f2610b9f565b6101f26103033660046130a6565b610bb1565b60055461021a906001600160a01b031681565b6000546001600160a01b031661021a565b6101f261033a3660046130cd565b610c2d565b61025b7f000000000000000000000000000000000000000000000000000000000000000081565b60065461021a906001600160a01b031681565b6101f26103873660046130ea565b610c82565b61025b60085481565b6101f26103a3366004613124565b6111e6565b6101f26103b6366004613045565b6115be565b6101f26103c93660046130a6565b611637565b6101f26103dc366004613045565b611858565b6103f46103ef3660046130a6565b6118d1565b60405161022e91906132e4565b6101f261040f366004613045565b611a86565b61025b600a5481565b6101f261042b366004613045565b611afc565b6101f261043e3660046130a6565b611b75565b61044b611be0565b61045c6104578261344a565b611c2d565b60006104666121d8565b90506104756020830183613045565b60408051630920752560e01b815260208501356004820152602481018490529084013560448201526001600160a01b039190911690630920752590606401600060405180830381600087803b1580156104cd57600080fd5b505af11580156104e1573d6000803e3d6000fd5b5050604080516101a08101909152338152915050602081016105096080850160608601613045565b6001600160a01b0316815260209081019061052690850185613045565b6001600160a01b0316815260200183602001358152602001836040013581526020014281526020018360800160208101906105619190613045565b6001600160a01b0316815260a0840135602082015260c08401356040820152606001610594610100850160e08601613045565b6001600160a01b0316815261010084013560208201526040016105bf61018085016101608601613045565b6001600160a01b031681526020016105db610180850185613556565b8080601f016020809104026020016040519081016040528093929190818152602001838380828437600092018290525093909452505083815260026020818152604092839020855181546001600160a01b03199081166001600160a01b03928316178355928701516001830180548516918316919091179055938601519281018054831693851693909317909255606085015160038301556080850151600483015560a0850151600583015560c0850151600683018054831691851691909117905560e0850151600783015561010085015160088301556101208501516009830180548316918516919091179055610140850151600a830155610160850151600b83018054909216931692909217909155610180830151909150600c820190610704908261361c565b50503360009081526003602090815260408220805460018101825590835290822001839055600a8054925090610739836136f1565b90915550506020820180359061074f9084613045565b6001600160a01b0316827f5f4edba7930247480079aba968bc0f8a22dd7e6be7e975624e971efe8e81102061078a60a0870160808801613045565b3361079b6080890160608a01613045565b604080516001600160a01b039485168152928416602084015292168183015290870135606082015260a080880135608083015260c08089013591830191909152429082015260e00160405180910390a45050565b600480546040516363d8a2a760e11b815233928101929092526001600160a01b03169063c7b1454e90602401602060405180830381865afa158015610838573d6000803e3d6000fd5b505050506040513d601f19601f8201168201806040525081019061085c9190613715565b1580156108d1575060048054604080516375abeba960e11b815290516001600160a01b039092169263eb57d7529282820192602092908290030181865afa1580156108ab573d6000803e3d6000fd5b505050506040513d601f19601f820116820180604052508101906108cf9190613715565b155b156108f6576040516336a219b360e21b81523360048201526024015b60405180910390fd5b60005b81811015610a9357600083838381811061091557610915613732565b60200291909101359150508015610a8057600081815260026020818152604080842081516101a08101835281546001600160a01b0390811682526001830154811694820194909452938101548316918401919091526003810154606084015260048101546080840152600581015460a08401526006810154821660c0840152600781015460e0840152600881015461010084015260098101548216610120840152600a810154610140840152600b810154909116610160830152600c81018054610180840191906109e59061359c565b80601f0160208091040260200160405190810160405280929190818152602001828054610a119061359c565b8015610a5e5780601f10610a3357610100808354040283529160200191610a5e565b820191906000526020600020905b815481529060010190602001808311610a4157829003601f168201915b50505050508152505090508060a00151600014610a7e57610a7e82612250565b505b5080610a8b816136f1565b9150506108f9565b505050565b610aa0612475565b610aa86124cf565b565b6001600160a01b038116600090815260036020908152604091829020805483518184028101840190945280845260609392830182828015610b0a57602002820191906000526020600020905b815481526020019060010190808311610af6575b50505050509050919050565b610b1e612475565b610aa861252f565b610b2e612475565b6001600160a01b038116610b555760405163d92e233d60e01b815260040160405180910390fd5b600780546001600160a01b0319166001600160a01b0383169081179091556040517fd3c0577a88b56268da0350a01cb491fb15be69982729d9cb066a0603d1fc54b890600090a250565b610ba7612475565b610aa8600061256b565b610bb9612475565b66b1a2bc2ec50000811115610bf15760405163037664ab60e21b81526004810182905266b1a2bc2ec5000060248201526044016108ed565b60088190556040518181527fd10d75876659a287a59a6ccfa2e3fff42f84d94b542837acd30bc184d562de40906020015b60405180910390a150565b610c35612475565b60098054821515600160a01b0260ff60a01b199091161790556040517fdb1db9b43312d33850c773f181f11169bef701e90f3e3cfac979d27a31efc6f790610c2290831515815260200190565b610c8a6125bb565b610c92611be0565b60208082013560009081526002808352604080832081516101a08101835281546001600160a01b0390811682526001830154811696820196909652928101548516918301919091526003810154606083015260048101546080830152600581015460a08301526006810154841660c0830152600781015460e0830152600881015461010083015260098101548416610120830152600a810154610140830152600b810154909316610160820152600c830180549293919261018084019190610d599061359c565b80601f0160208091040260200160405190810160405280929190818152602001828054610d859061359c565b8015610dd25780601f10610da757610100808354040283529160200191610dd2565b820191906000526020600020905b815481529060010190602001808311610db557829003601f168201915b5050509190925250505060c08101519091506001600160a01b0316610e1057604051639481f8b960e01b8152602083013560048201526024016108ed565b600081604001516001600160a01b0316639f9fb96883606001516040518263ffffffff1660e01b8152600401610e4891815260200190565b61020060405180830381865afa158015610e66573d6000803e3d6000fd5b505050506040513d601f19601f82011682018060405250810190610e8a91906137a1565b9050600082604001516001600160a01b0316635e50f26984606001518560c001516040518363ffffffff1660e01b8152600401610eda9291909182526001600160a01b0316602082015260400190565b600060405180830381865afa158015610ef7573d6000803e3d6000fd5b505050506040513d6000823e601f3d908101601f19168201604052610f1f91908101906138e9565b905060008360c001516001600160a01b0316633e7f2275604051806101200160405280888060000190610f529190613556565b8080601f016020809104026020016040519081016040528093929190818152602001838380828437600081840152601f19601f82011690508083019250505050505050815260200186604001516001600160a01b03168152602001876080015181526020018760a001518152602001856020015181526020018760e001518152602001876101000151815260200185604001518152602001888060400190610ffa9190613556565b8080601f01602080910402602001604051908101604052809392919081815260200183838082843760009201919091525050509152506040516001600160e01b031960e084901b16815261105191906004016139a3565b6000604051808303816000875af1158015611070573d6000803e3d6000fd5b505050506040513d6000823e601f3d908101601f191682016040526110989190810190613a5e565b80519091506110ba57604051636938802360e01b815260040160405180910390fd5b84602001358160200151146110f2576020818101516040516305846adf60e11b815291870135600483015260248201526044016108ed565b6110ff8560200135612250565b604080850151606086015183830151925163407c8d4360e01b815260048101919091526020880135602482015260448101929092523060648301526001600160a01b03169063407c8d4390608401600060405180830381600087803b15801561116757600080fd5b505af115801561117b573d6000803e3d6000fd5b50505060408401516111d691506020870135868461119c60608b018b613556565b8080601f01602080910402602001604051908101604052809392919081815260200183838082843760009201829052509250612614915050565b505050506111e360018055565b50565b600084815260026020818152604080842081516101a08101835281546001600160a01b0390811682526001830154811694820194909452938101548316918401919091526003810154606084015260048101546080840152600581015460a08401526006810154821660c0840152600781015460e0840152600881015461010084015260098101548216610120840152600a810154610140840152600b810154909116610160830152600c81018054610180840191906112a59061359c565b80601f01602080910402602001604051908101604052809291908181526020018280546112d19061359c565b801561131e5780601f106112f35761010080835404028352916020019161131e565b820191906000526020600020905b81548152906001019060200180831161130157829003601f168201915b5050509190925250508151919250506001600160a01b031661135657604051639481f8b960e01b8152600481018690526024016108ed565b806080015184111561138b57608081015160405163f76aa3d760e01b81526108ed918691600401918252602082015260400190565b600081604001516001600160a01b0316639f9fb96883606001516040518263ffffffff1660e01b81526004016113c391815260200190565b61020060405180830381865afa1580156113e1573d6000803e3d6000fd5b505050506040513d601f19601f8201168201806040525081019061140591906137a1565b80519091506001600160a01b0316331461144657805160405163536dd9ef60e01b81523360048201526001600160a01b0390911660248201526044016108ed565b60008260a00151426114589190613afd565b9050600b548110801561146e5750826080015186105b156114a85742600b548460a001516114869190613b10565b604051637250c23560e11b8152600481019290925260248201526044016108ed565b6114b187612250565b6040808401516060850151915163407c8d4360e01b8152600481019290925260248201899052604482018890523060648301526001600160a01b03169063407c8d4390608401600060405180830381600087803b15801561151157600080fd5b505af1158015611525573d6000803e3d6000fd5b5050505060006040518060a001604052806001151581526020018981526020018881526020018560e0015181526020016040518060200160405280600081525081525090506115b483604001518986848a8a8080601f01602080910402602001604051908101604052809392919081815260200183838082843760009201919091525060019250612614915050565b5050505050505050565b6115c6612475565b6001600160a01b0381166115ed5760405163d92e233d60e01b815260040160405180910390fd5b600480546001600160a01b0319166001600160a01b0383169081179091556040517f873179742d8df742298832022224502b4c9b558e12342f5a48cf56cbb68a3acf90600090a250565b600081815260026020818152604080842081516101a08101835281546001600160a01b0390811682526001830154811694820194909452938101548316918401919091526003810154606084015260048101546080840152600581015460a08401526006810154821660c0840152600781015460e0840152600881015461010084015260098101548216610120840152600a810154610140840152600b810154909116610160830152600c81018054610180840191906116f69061359c565b80601f01602080910402602001604051908101604052809291908181526020018280546117229061359c565b801561176f5780601f106117445761010080835404028352916020019161176f565b820191906000526020600020905b81548152906001019060200180831161175257829003601f168201915b50505050508152505090508060a001516000036117a257604051639481f8b960e01b8152600481018390526024016108ed565b80516001600160a01b031633146117e057805160405163536dd9ef60e01b81523360048201526001600160a01b0390911660248201526044016108ed565b6117e982612250565b6040808201516060830151915163432e707b60e01b81526004810192909252602482018490526001600160a01b03169063432e707b90604401600060405180830381600087803b15801561183c57600080fd5b505af1158015611850573d6000803e3d6000fd5b505050505050565b611860612475565b6001600160a01b0381166118875760405163d92e233d60e01b815260040160405180910390fd5b600980546001600160a01b0319166001600160a01b0383169081179091556040517fc1b5345cce283376356748dc57f2dfa7120431d016fc7ca9ba641bc65f91411d90600090a250565b604080516101a08101825260008082526020820181905291810182905260608082018390526080820183905260a0820183905260c0820183905260e0820183905261010082018390526101208201839052610140820183905261016082019290925261018081019190915260008281526002602081815260409283902083516101a08101855281546001600160a01b0390811682526001830154811693820193909352928101548216938301939093526003830154606083015260048301546080830152600583015460a08301526006830154811660c0830152600783015460e0830152600883015461010083015260098301548116610120830152600a830154610140830152600b83015416610160820152600c82018054919291610180840191906119fd9061359c565b80601f0160208091040260200160405190810160405280929190818152602001828054611a299061359c565b8015611a765780601f10611a4b57610100808354040283529160200191611a76565b820191906000526020600020905b815481529060010190602001808311611a5957829003601f168201915b5050505050815250509050919050565b611a8e612475565b6001600160a01b038116611af35760405162461bcd60e51b815260206004820152602660248201527f4f776e61626c653a206e6577206f776e657220697320746865207a65726f206160448201526564647265737360d01b60648201526084016108ed565b6111e38161256b565b611b04612475565b6001600160a01b038116611b2b5760405163d92e233d60e01b815260040160405180910390fd5b600680546001600160a01b0319166001600160a01b0383169081179091556040517f92060e1909279aefa624ed1bce0196f5683a70dfbdba1e2114de87d3e893277f90600090a250565b611b7d612475565b610384811015611bab576040516338fcec4360e01b81526004810182905261038460248201526044016108ed565b600b8190556040518181527f0a2c463175d970ede157d291f48cd7241ccdfb67032462930914bd874c0bf01790602001610c22565b600054600160a01b900460ff1615610aa85760405162461bcd60e51b815260206004820152601060248201526f14185d5cd8589b194e881c185d5cd95960821b60448201526064016108ed565b600754604051631c98849b60e01b81523360048201526000916001600160a01b031690631c98849b90602401602060405180830381865afa158015611c76573d6000803e3d6000fd5b505050506040513d601f19601f82011682018060405250810190611c9a9190613715565b80611cae5750600954600160a01b900460ff165b905080158015611ccc57503360009081526003602052604090205415155b15611d27573360008181526003602052604081208054909190611cf157611cf1613732565b60009182526020909120015460405163675d034960e01b81526001600160a01b03909216600483015260248201526044016108ed565b60608201516001600160a01b0316611d525760405163d92e233d60e01b815260040160405180910390fd5b66b1a2bc2ec500008261010001511115611d965761010082015160405163037664ab60e21b8152600481019190915266b1a2bc2ec5000060248201526044016108ed565b60e08201516001600160a01b0316611dcb5761010082015115611dcb57604051625daeb360e91b815260040160405180910390fd5b6101608201516001600160a01b031615611e8157600654610160830151604051633485a48d60e21b81526001600160a01b03918216600482015291169063d216923490602401602060405180830381865afa158015611e2e573d6000803e3d6000fd5b505050506040513d601f19601f82011682018060405250810190611e529190613715565b611e81576101608201516040516364e219bd60e01b81526001600160a01b0390911660048201526024016108ed565b6004805483516040516363d8a2a760e11b81526001600160a01b0391821693810193909352169063c7b1454e90602401602060405180830381865afa158015611ece573d6000803e3d6000fd5b505050506040513d601f19601f82011682018060405250810190611ef29190613715565b158015611f67575060048054604080516375abeba960e11b815290516001600160a01b039092169263eb57d7529282820192602092908290030181865afa158015611f41573d6000803e3d6000fd5b505050506040513d601f19601f82011682018060405250810190611f659190613715565b155b15611f9357815160405163f94cca3960e01b81526001600160a01b0390911660048201526024016108ed565b815160208301516080840151604051635e50f26960e01b81526000936001600160a01b031692635e50f26992611fdd926004019182526001600160a01b0316602082015260400190565b600060405180830381865afa158015611ffa573d6000803e3d6000fd5b505050506040513d6000823e601f3d908101601f1916820160405261202291908101906138e9565b905080602001515160000361206657602083015160808401516040516376627b8b60e01b815260048101929092526001600160a01b031660248201526044016108ed565b82516020840151608085015160a086015160405163c1d3827160e01b815260048101939093526001600160a01b0391821660248401526044830152600092169063c1d3827190606401602060405180830381865afa1580156120cc573d6000803e3d6000fd5b505050506040513d601f19601f820116820180604052508101906120f09190613b23565b90508060000361212e57608084015160a085015160405163246d656b60e21b81526001600160a01b03909216600483015260248201526044016108ed565b808460c0015110156121635760c084015160405163d8da863d60e01b81526004810191909152602481018290526044016108ed565b81516001600160a01b038116156121d1578461014001514211156121aa57610140850151604051630f88f04960e41b815260048101919091524260248201526044016108ed565b6121b485826129bf565b6121d157604051638baa579f60e01b815260040160405180910390fd5b5050505050565b600a546040516bffffffffffffffffffffffff193060601b1660208201526034810191909152600090819060540160408051601f198184030181529190528051602090910120905061224a7f30644e72e131a029b85045b68181585d2833e84879b9709143e1f593f000000182613b52565b92915050565b600081815260026020818152604080842081516101a08101835281546001600160a01b0390811682526001830154811694820194909452938101548316918401919091526003810154606084015260048101546080840152600581015460a08401526006810154821660c0840152600781015460e0840152600881015461010084015260098101548216610120840152600a810154610140840152600b810154909116610160830152600c810180546101808401919061230f9061359c565b80601f016020809104026020016040519081016040528092919081815260200182805461233b9061359c565b80156123885780601f1061235d57610100808354040283529160200191612388565b820191906000526020600020905b81548152906001019060200180831161236b57829003601f168201915b50505091909252505081516001600160a01b031660009081526003602052604090209192506123b991905083612af3565b6000828152600260208190526040822080546001600160a01b031990811682556001820180548216905591810180548316905560038101839055600481018390556005810183905560068101805483169055600781018390556008810183905560098101805483169055600a8101839055600b8101805490921690915590612444600c830182612f23565b505060405182907f95eadd9e42ccacb548c6389441b53e6eebec39e11adaea9029a25fe1222483e090600090a25050565b6000546001600160a01b03163314610aa85760405162461bcd60e51b815260206004820181905260248201527f4f776e61626c653a2063616c6c6572206973206e6f7420746865206f776e657260448201526064016108ed565b6124d7611be0565b6000805460ff60a01b1916600160a01b1790557f62e78cea01bee320cd4e420270b5ea74000d11b0c9f74754ebdbfc544b05a2586125123390565b6040516001600160a01b03909116815260200160405180910390a1565b612537612c1b565b6000805460ff60a01b191690557f5db9ee0a495bf2e6ff9c91a7834c1ba4fdd244a5e8aa4e537bd38aeae4b073aa33612512565b600080546001600160a01b038381166001600160a01b0319831681178455604051919092169283917f8be0079c531659141344cd1fd0a4f28419497f9722a3daafe3b4186f6b6457e09190a35050565b60026001540361260d5760405162461bcd60e51b815260206004820152601f60248201527f5265656e7472616e637947756172643a207265656e7472616e742063616c6c0060448201526064016108ed565b6002600155565b60095460009081906001600160a01b03161580159061263557506000600854115b1561266257670de0b6b3a764000060085486604001516126559190613b66565b61265f9190613b7d565b91505b6101208601516001600160a01b03161580159061268457506000866101400151115b156126b457670de0b6b3a764000086610140015186604001516126a79190613b66565b6126b19190613b7d565b90505b6000818387604001516126c79190613afd565b6126d19190613afd565b905082156127525760095460405163a9059cbb60e01b81526001600160a01b03918216600482015260248101859052908a169063a9059cbb906044016020604051808303816000875af115801561272c573d6000803e3d6000fd5b505050506040513d601f19601f820116820180604052508101906127509190613715565b505b81156127d45761012087015160405163a9059cbb60e01b81526001600160a01b03918216600482015260248101849052908a169063a9059cbb906044016020604051808303816000875af11580156127ae573d6000803e3d6000fd5b505050506040513d601f19601f820116820180604052508101906127d29190613715565b505b60208701516101608801516001600160a01b0316158015906127f4575084155b156128e85761016088015160405163095ea7b360e01b81526001600160a01b03918216600482015260248101849052908b169063095ea7b3906044016020604051808303816000875af115801561284f573d6000803e3d6000fd5b505050506040513d601f19601f820116820180604052508101906128739190613715565b508761016001516001600160a01b0316632be854ca8984896040518463ffffffff1660e01b81526004016128a993929190613b91565b600060405180830381600087803b1580156128c357600080fd5b505af11580156128d7573d6000803e3d6000fd5b505050508761016001519050612963565b602088015160405163a9059cbb60e01b81526001600160a01b03918216600482015260248101849052908b169063a9059cbb906044016020604051808303816000875af115801561293d573d6000803e3d6000fd5b505050506040513d601f19601f820116820180604052508101906129619190613715565b505b806001600160a01b0316897f0982cb6e3f9e6cbf15f13f03a13dbb95940af0c65a3c00c5f9006a3dd707945d84888b606001518c608001516040516129ab9493929190613bbc565b60405180910390a350505050505050505050565b8151602080840151604080860151606080880151608089015160a08a015160c08b01516101408c015196516bffffffffffffffffffffffff1930871b81169a82019a909a5299851b891660348b015260488a0197909752606889019490945290821b86166088880152901b909316609c85015260b084019290925260d083015260f08201527f000000000000000000000000000000000000000000000000000000000000000061011082015260009081906101300160405160208183030381529060405290506000612ac582805190602001207f19457468657265756d205369676e6564204d6573736167653a0a3332000000006000908152601c91909152603c902090565b9050612aea81866101200151866001600160a01b0316612c6b9092919063ffffffff16565b95945050505050565b600080612b4f84805480602002602001604051908101604052809291908181526020018280548015612b4457602002820191906000526020600020905b815481526020019060010190808311612b30575b505050505084612cce565b9150915080612b985760405162461bcd60e51b8152602060048201526015602482015274313cba32b99999103737ba1034b71030b93930bc9760591b60448201526064016108ed565b8354600090612ba990600190613afd565b9050808314612bee57848181548110612bc457612bc4613732565b9060005260206000200154858481548110612be157612be1613732565b6000918252602090912001555b84805480612bfe57612bfe613be3565b600190038181906000526020600020016000905590555050505050565b600054600160a01b900460ff16610aa85760405162461bcd60e51b815260206004820152601460248201527314185d5cd8589b194e881b9bdd081c185d5cd95960621b60448201526064016108ed565b6000806000612c7a8585612d31565b90925090506000816004811115612c9357612c93613bf9565b148015612cb15750856001600160a01b0316826001600160a01b0316145b80612cc25750612cc2868686612d73565b925050505b9392505050565b81516000908190815b81811015612d1e5784868281518110612cf257612cf2613732565b602002602001015103612d0c57925060019150612d2a9050565b80612d16816136f1565b915050612cd7565b50600019600092509250505b9250929050565b6000808251604103612d675760208301516040840151606085015160001a612d5b87828585612e5f565b94509450505050612d2a565b50600090506002612d2a565b6000806000856001600160a01b0316631626ba7e60e01b8686604051602401612d9d929190613c0f565b60408051601f198184030181529181526020820180516001600160e01b03166001600160e01b0319909416939093179092529051612ddb9190613c30565b600060405180830381855afa9150503d8060008114612e16576040519150601f19603f3d011682016040523d82523d6000602084013e612e1b565b606091505b5091509150818015612e2f57506020815110155b8015612cc257508051630b135d3f60e11b90612e549083016020908101908401613b23565b149695505050505050565b6000807f7fffffffffffffffffffffffffffffff5d576e7357a4501ddfe92f46681b20a0831115612e965750600090506003612f1a565b6040805160008082526020820180845289905260ff881692820192909252606081018690526080810185905260019060a0016020604051602081039080840390855afa158015612eea573d6000803e3d6000fd5b5050604051601f1901519150506001600160a01b038116612f1357600060019250925050612f1a565b9150600090505b94509492505050565b508054612f2f9061359c565b6000825580601f10612f3f575050565b601f0160209004906000526020600020908101906111e391905b80821115612f6d5760008155600101612f59565b5090565b600060208284031215612f8357600080fd5b81356001600160401b03811115612f9957600080fd5b82016101a08185031215612cc757600080fd5b60008060208385031215612fbf57600080fd5b82356001600160401b0380821115612fd657600080fd5b818501915085601f830112612fea57600080fd5b813581811115612ff957600080fd5b8660208260051b850101111561300e57600080fd5b60209290920196919550909350505050565b6001600160a01b03811681146111e357600080fd5b803561304081613020565b919050565b60006020828403121561305757600080fd5b8135612cc781613020565b6020808252825182820181905260009190848201906040850190845b8181101561309a5783518352928401929184019160010161307e565b50909695505050505050565b6000602082840312156130b857600080fd5b5035919050565b80151581146111e357600080fd5b6000602082840312156130df57600080fd5b8135612cc7816130bf565b6000602082840312156130fc57600080fd5b81356001600160401b0381111561311257600080fd5b820160808185031215612cc757600080fd5b6000806000806060858703121561313a57600080fd5b843593506020850135925060408501356001600160401b038082111561315f57600080fd5b818701915087601f83011261317357600080fd5b81358181111561318257600080fd5b88602082850101111561319457600080fd5b95989497505060200194505050565b60005b838110156131be5781810151838201526020016131a6565b50506000910152565b600081518084526131df8160208601602086016131a3565b601f01601f19169290920160200192915050565b80516001600160a01b0316825260006101a0602083015161321f60208601826001600160a01b03169052565b50604083015161323a60408601826001600160a01b03169052565b50606083015160608501526080830151608085015260a083015160a085015260c083015161327360c08601826001600160a01b03169052565b5060e083810151908501526101008084015190850152610120808401516001600160a01b0381168287015250506101408381015190850152610160808401516001600160a01b0381168287015250506101808084015182828701526132da838701826131c7565b9695505050505050565b602081526000612cc760208301846131f3565b634e487b7160e01b600052604160045260246000fd5b6040516101a081016001600160401b0381118282101715613330576133306132f7565b60405290565b6040516101e081016001600160401b0381118282101715613330576133306132f7565b604051606081016001600160401b0381118282101715613330576133306132f7565b60405160a081016001600160401b0381118282101715613330576133306132f7565b604051601f8201601f191681016001600160401b03811182821017156133c5576133c56132f7565b604052919050565b60006001600160401b038211156133e6576133e66132f7565b50601f01601f191660200190565b600082601f83011261340557600080fd5b8135613418613413826133cd565b61339d565b81815284602083860101111561342d57600080fd5b816020850160208301376000918101602001919091529392505050565b60006101a0823603121561345d57600080fd5b61346561330d565b61346e83613035565b8152602083013560208201526040830135604082015261349060608401613035565b60608201526134a160808401613035565b608082015260a083013560a082015260c083013560c08201526134c660e08401613035565b60e08201526101008381013590820152610120808401356001600160401b03808211156134f257600080fd5b6134fe368388016133f4565b8385015261014092508286013583850152610160925061351f838701613035565b8385015261018092508286013591508082111561353b57600080fd5b50613548368287016133f4565b918301919091525092915050565b6000808335601e1984360301811261356d57600080fd5b8301803591506001600160401b0382111561358757600080fd5b602001915036819003821315612d2a57600080fd5b600181811c908216806135b057607f821691505b6020821081036135d057634e487b7160e01b600052602260045260246000fd5b50919050565b601f821115610a9357600081815260208120601f850160051c810160208610156135fd5750805b601f850160051c820191505b8181101561185057828155600101613609565b81516001600160401b03811115613635576136356132f7565b61364981613643845461359c565b846135d6565b602080601f83116001811461367e57600084156136665750858301515b600019600386901b1c1916600185901b178555611850565b600085815260208120601f198616915b828110156136ad5788860151825594840194600190910190840161368e565b50858210156136cb5787850151600019600388901b60f8161c191681555b5050505050600190811b01905550565b634e487b7160e01b600052601160045260246000fd5b600060018201613703576137036136db565b5060010190565b8051613040816130bf565b60006020828403121561372757600080fd5b8151612cc7816130bf565b634e487b7160e01b600052603260045260246000fd5b805161304081613020565b60006040828403121561376557600080fd5b604051604081018181106001600160401b0382111715613787576137876132f7565b604052825181526020928301519281019290925250919050565b600061020082840312156137b457600080fd5b6137bc613336565b6137c583613748565b81526137d360208401613748565b60208201526137e460408401613748565b6040820152606083015160608201526138008460808501613753565b608082015261381160c0840161370a565b60a082015260e083015160c08201526101008084015160e083015261012080850151828401526101409150818501518184015250610160808501518284015261018091508185015181840152506101a061386c818601613748565b828401526101c09150613880828601613748565b908301526101e093909301519281019290925250919050565b60006138a7613413846133cd565b90508281528383830111156138bb57600080fd5b612cc78360208301846131a3565b600082601f8301126138da57600080fd5b612cc783835160208501613899565b6000602082840312156138fb57600080fd5b81516001600160401b038082111561391257600080fd5b908301906060828603121561392657600080fd5b61392e613359565b825161393981613020565b815260208301518281111561394d57600080fd5b613959878286016138c9565b60208301525060408301518281111561397157600080fd5b80840193505085601f84011261398657600080fd5b61399586845160208601613899565b604082015295945050505050565b60208152600082516101208060208501526139c26101408501836131c7565b915060208501516139de60408601826001600160a01b03169052565b5060408501516060850152606085015160808501526080850151601f19808685030160a0870152613a0f84836131c7565b935060a087015160c087015260c087015160e087015260e08701519150610100818786030181880152613a4285846131c7565b9088015187820390920184880152935090506132da83826131c7565b600060208284031215613a7057600080fd5b81516001600160401b0380821115613a8757600080fd5b9083019060a08286031215613a9b57600080fd5b613aa361337b565b8251613aae816130bf565b80825250602083015160208201526040830151604082015260608301516060820152608083015182811115613ae257600080fd5b613aee878286016138c9565b60808301525095945050505050565b8181038181111561224a5761224a6136db565b8082018082111561224a5761224a6136db565b600060208284031215613b3557600080fd5b5051919050565b634e487b7160e01b600052601260045260246000fd5b600082613b6157613b61613b3c565b500690565b808202811582820484141761224a5761224a6136db565b600082613b8c57613b8c613b3c565b500490565b606081526000613ba460608301866131f3565b84602084015282810360408401526132da81856131c7565b84815283151560208201528260408201526080606082015260006132da60808301846131c7565b634e487b7160e01b600052603160045260246000fd5b634e487b7160e01b600052602160045260246000fd5b828152604060208201526000613c2860408301846131c7565b949350505050565b60008251613c428184602087016131a3565b919091019291505056fea2646970667358221220382f9e793ccafc7c58ce090a5e90c518e584f824403a1d03b254f9bd667123f764736f6c63430008120033",
  "devdoc": {
    "events": {
      "Paused(address)": {
        "details": "Emitted when the pause is triggered by `account`."
      },
      "Unpaused(address)": {
        "details": "Emitted when the pause is lifted by `account`."
      }
    },
    "kind": "dev",
    "methods": {
      "cancelIntent(bytes32)": {
        "params": {
          "_intentHash": "Hash of intent being cancelled"
        }
      },
      "fulfillIntent((bytes,bytes32,bytes,bytes))": {
        "details": "This function adds a reentrancy guard as it's calling the post intent hook contract which itself might call  malicious contracts.",
        "params": {
          "_params": "Struct containing all the fulfill intent parameters"
        }
      },
      "owner()": {
        "details": "Returns the address of the current owner."
      },
      "paused()": {
        "details": "Returns true if the contract is paused, and false otherwise."
      },
      "pruneIntents(bytes32[])": {
        "params": {
          "_intents": "Array of intent hashes to prune"
        }
      },
      "releaseFundsToPayer(bytes32,uint256,bytes)": {
        "params": {
          "_intentHash": "Hash of intent to resolve by releasing the funds",
          "_releaseAmount": "Amount of funds to release to the payer",
          "_releaseData": "Data to be passed to the post intent hook"
        }
      },
      "renounceOwnership()": {
        "details": "Leaves the contract without owner. It will not be possible to call `onlyOwner` functions. Can only be called by the current owner. NOTE: Renouncing ownership will leave the contract without an owner, thereby disabling any functionality that is only available to the owner."
      },
      "setAllowMultipleIntents(bool)": {
        "params": {
          "_allowMultiple": "True to allow all accounts to signal multiple intents, false to restrict to whitelisted relayers only"
        }
      },
      "setEscrowRegistry(address)": {
        "params": {
          "_escrowRegistry": "New escrow registry address"
        }
      },
      "setPartialManualReleaseDelay(uint256)": {
        "params": {
          "_partialManualReleaseDelay": "New delay period in seconds before partial manual releases are allowed"
        }
      },
      "setPostIntentHookRegistry(address)": {
        "params": {
          "_postIntentHookRegistry": "New post intent hook registry address"
        }
      },
      "setProtocolFee(uint256)": {
        "params": {
          "_protocolFee": "New protocol fee in preciseUnits (1e16 = 1%)"
        }
      },
      "setProtocolFeeRecipient(address)": {
        "params": {
          "_protocolFeeRecipient": "New protocol fee recipient address"
        }
      },
      "setRelayerRegistry(address)": {
        "params": {
          "_relayerRegistry": "New relayer registry address"
        }
      },
      "signalIntent((address,uint256,uint256,address,address,bytes32,uint256,address,uint256,bytes,uint256,address,bytes))": {
        "params": {
          "_params": "Struct containing all the intent parameters"
        }
      },
      "transferOwnership(address)": {
        "details": "Transfers ownership of the contract to a new account (`newOwner`). Can only be called by the current owner."
      }
    },
    "title": "Orchestrator",
    "version": 1
  },
  "userdoc": {
    "kind": "user",
    "methods": {
      "cancelIntent(bytes32)": {
        "notice": "Only callable by the originator of the intent. Cancels an outstanding intent. Unlocks liquidity for the corresponding deposit on the escrow contract."
      },
      "fulfillIntent((bytes,bytes32,bytes,bytes))": {
        "notice": "Anyone can submit a fulfill intent transaction, even if caller isn't the intent owner. Upon submission the offchain payment proof is verified, payment details are validated, intent is removed, and escrow state is updated.  Deposit token is transferred to the intent.to address."
      },
      "pauseOrchestrator()": {
        "notice": "GOVERNANCE ONLY: Pauses intent creation and intent fulfillment functionality for the orchestrator."
      },
      "pruneIntents(bytes32[])": {
        "notice": "Only the escrow contract can call this function. Called by escrow to prune specific expired intents. Escrow leads the cleanup process. "
      },
      "releaseFundsToPayer(bytes32,uint256,bytes)": {
        "notice": "Allows depositor to release funds to the payer in case of a failed fulfill intent or because of some other arrangement between the two parties. Upon submission we check to make sure the msg.sender is the depositor, the intent is removed, and  escrow state is updated. Deposit token is transferred to the payer."
      },
      "setAllowMultipleIntents(bool)": {
        "notice": "GOVERNANCE ONLY: Sets whether all accounts can signal multiple intents."
      },
      "setEscrowRegistry(address)": {
        "notice": "GOVERNANCE ONLY: Updates the escrow registry address."
      },
      "setPartialManualReleaseDelay(uint256)": {
        "notice": "GOVERNANCE ONLY: Updates the partial manual release delay period."
      },
      "setPostIntentHookRegistry(address)": {
        "notice": "GOVERNANCE ONLY: Updates the post intent hook registry address."
      },
      "setProtocolFee(uint256)": {
        "notice": "GOVERNANCE ONLY: Updates the protocol fee. This fee is charged to takers upon a successful fulfillment of an intent."
      },
      "setProtocolFeeRecipient(address)": {
        "notice": "GOVERNANCE ONLY: Updates the protocol fee recipient address."
      },
      "setRelayerRegistry(address)": {
        "notice": "GOVERNANCE ONLY: Updates the relayer registry address."
      },
      "signalIntent((address,uint256,uint256,address,address,bytes32,uint256,address,uint256,bytes,uint256,address,bytes))": {
        "notice": "Signals intent to pay the depositor defined in the _depositId the _amount * deposit conversionRate off-chain in order to unlock _amount of funds on-chain. Caller must provide a signature from the deposit's gating service to prove their eligibility to take liquidity. If there are prunable intents then they will be deleted from the deposit to be able  to maintain state hygiene. Locks liquidity for the corresponding deposit on the escrow contract."
      },
      "unpauseOrchestrator()": {
        "notice": "GOVERNANCE ONLY: Restarts paused functionality for the orchestrator."
      }
    },
    "notice": "Orchestrator contract for the ZKP2P protocol. This contract is responsible for managing the intent (order)  lifecycle and orchestrating the P2P trading of fiat currency and onchain assets.",
    "version": 1
  },
  "storageLayout": {
    "storage": [
      {
        "astId": 7,
        "contract": "contracts/Orchestrator.sol:Orchestrator",
        "label": "_owner",
        "offset": 0,
        "slot": "0",
        "type": "t_address"
      },
      {
        "astId": 144,
        "contract": "contracts/Orchestrator.sol:Orchestrator",
        "label": "_paused",
        "offset": 20,
        "slot": "0",
        "type": "t_bool"
      },
      {
        "astId": 245,
        "contract": "contracts/Orchestrator.sol:Orchestrator",
        "label": "_status",
        "offset": 0,
        "slot": "1",
        "type": "t_uint256"
      },
      {
        "astId": 5761,
        "contract": "contracts/Orchestrator.sol:Orchestrator",
        "label": "intents",
        "offset": 0,
        "slot": "2",
        "type": "t_mapping(t_bytes32,t_struct(Intent)10165_storage)"
      },
      {
        "astId": 5766,
        "contract": "contracts/Orchestrator.sol:Orchestrator",
        "label": "accountIntents",
        "offset": 0,
        "slot": "3",
        "type": "t_mapping(t_address,t_array(t_bytes32)dyn_storage)"
      },
      {
        "astId": 5769,
        "contract": "contracts/Orchestrator.sol:Orchestrator",
        "label": "escrowRegistry",
        "offset": 0,
        "slot": "4",
        "type": "t_contract(IEscrowRegistry)10116"
      },
      {
        "astId": 5772,
        "contract": "contracts/Orchestrator.sol:Orchestrator",
        "label": "paymentVerifierRegistry",
        "offset": 0,
        "slot": "5",
        "type": "t_contract(IPaymentVerifierRegistry)10454"
      },
      {
        "astId": 5775,
        "contract": "contracts/Orchestrator.sol:Orchestrator",
        "label": "postIntentHookRegistry",
        "offset": 0,
        "slot": "6",
        "type": "t_contract(IPostIntentHookRegistry)10487"
      },
      {
        "astId": 5778,
        "contract": "contracts/Orchestrator.sol:Orchestrator",
        "label": "relayerRegistry",
        "offset": 0,
        "slot": "7",
        "type": "t_contract(IRelayerRegistry)10563"
      },
      {
        "astId": 5780,
        "contract": "contracts/Orchestrator.sol:Orchestrator",
        "label": "protocolFee",
        "offset": 0,
        "slot": "8",
        "type": "t_uint256"
      },
      {
        "astId": 5782,
        "contract": "contracts/Orchestrator.sol:Orchestrator",
        "label": "protocolFeeRecipient",
        "offset": 0,
        "slot": "9",
        "type": "t_address"
      },
      {
        "astId": 5784,
        "contract": "contracts/Orchestrator.sol:Orchestrator",
        "label": "allowMultipleIntents",
        "offset": 20,
        "slot": "9",
        "type": "t_bool"
      },
      {
        "astId": 5786,
        "contract": "contracts/Orchestrator.sol:Orchestrator",
        "label": "intentCounter",
        "offset": 0,
        "slot": "10",
        "type": "t_uint256"
      },
      {
        "astId": 5788,
        "contract": "contracts/Orchestrator.sol:Orchestrator",
        "label": "partialManualReleaseDelay",
        "offset": 0,
        "slot": "11",
        "type": "t_uint256"
      }
    ],
    "types": {
      "t_address": {
        "encoding": "inplace",
        "label": "address",
        "numberOfBytes": "20"
      },
      "t_array(t_bytes32)dyn_storage": {
        "base": "t_bytes32",
        "encoding": "dynamic_array",
        "label": "bytes32[]",
        "numberOfBytes": "32"
      },
      "t_bool": {
        "encoding": "inplace",
        "label": "bool",
        "numberOfBytes": "1"
      },
      "t_bytes32": {
        "encoding": "inplace",
        "label": "bytes32",
        "numberOfBytes": "32"
      },
      "t_bytes_storage": {
        "encoding": "bytes",
        "label": "bytes",
        "numberOfBytes": "32"
      },
      "t_contract(IEscrowRegistry)10116": {
        "encoding": "inplace",
        "label": "contract IEscrowRegistry",
        "numberOfBytes": "20"
      },
      "t_contract(IPaymentVerifierRegistry)10454": {
        "encoding": "inplace",
        "label": "contract IPaymentVerifierRegistry",
        "numberOfBytes": "20"
      },
      "t_contract(IPostIntentHook)10471": {
        "encoding": "inplace",
        "label": "contract IPostIntentHook",
        "numberOfBytes": "20"
      },
      "t_contract(IPostIntentHookRegistry)10487": {
        "encoding": "inplace",
        "label": "contract IPostIntentHookRegistry",
        "numberOfBytes": "20"
      },
      "t_contract(IRelayerRegistry)10563": {
        "encoding": "inplace",
        "label": "contract IRelayerRegistry",
        "numberOfBytes": "20"
      },
      "t_mapping(t_address,t_array(t_bytes32)dyn_storage)": {
        "encoding": "mapping",
        "key": "t_address",
        "label": "mapping(address => bytes32[])",
        "numberOfBytes": "32",
        "value": "t_array(t_bytes32)dyn_storage"
      },
      "t_mapping(t_bytes32,t_struct(Intent)10165_storage)": {
        "encoding": "mapping",
        "key": "t_bytes32",
        "label": "mapping(bytes32 => struct IOrchestrator.Intent)",
        "numberOfBytes": "32",
        "value": "t_struct(Intent)10165_storage"
      },
      "t_struct(Intent)10165_storage": {
        "encoding": "inplace",
        "label": "struct IOrchestrator.Intent",
        "members": [
          {
            "astId": 10139,
            "contract": "contracts/Orchestrator.sol:Orchestrator",
            "label": "owner",
            "offset": 0,
            "slot": "0",
            "type": "t_address"
          },
          {
            "astId": 10141,
            "contract": "contracts/Orchestrator.sol:Orchestrator",
            "label": "to",
            "offset": 0,
            "slot": "1",
            "type": "t_address"
          },
          {
            "astId": 10143,
            "contract": "contracts/Orchestrator.sol:Orchestrator",
            "label": "escrow",
            "offset": 0,
            "slot": "2",
            "type": "t_address"
          },
          {
            "astId": 10145,
            "contract": "contracts/Orchestrator.sol:Orchestrator",
            "label": "depositId",
            "offset": 0,
            "slot": "3",
            "type": "t_uint256"
          },
          {
            "astId": 10147,
            "contract": "contracts/Orchestrator.sol:Orchestrator",
            "label": "amount",
            "offset": 0,
            "slot": "4",
            "type": "t_uint256"
          },
          {
            "astId": 10149,
            "contract": "contracts/Orchestrator.sol:Orchestrator",
            "label": "timestamp",
            "offset": 0,
            "slot": "5",
            "type": "t_uint256"
          },
          {
            "astId": 10151,
            "contract": "contracts/Orchestrator.sol:Orchestrator",
            "label": "paymentVerifier",
            "offset": 0,
            "slot": "6",
            "type": "t_address"
          },
          {
            "astId": 10153,
            "contract": "contracts/Orchestrator.sol:Orchestrator",
            "label": "fiatCurrency",
            "offset": 0,
            "slot": "7",
            "type": "t_bytes32"
          },
          {
            "astId": 10155,
            "contract": "contracts/Orchestrator.sol:Orchestrator",
            "label": "conversionRate",
            "offset": 0,
            "slot": "8",
            "type": "t_uint256"
          },
          {
            "astId": 10157,
            "contract": "contracts/Orchestrator.sol:Orchestrator",
            "label": "referrer",
            "offset": 0,
            "slot": "9",
            "type": "t_address"
          },
          {
            "astId": 10159,
            "contract": "contracts/Orchestrator.sol:Orchestrator",
            "label": "referrerFee",
            "offset": 0,
            "slot": "10",
            "type": "t_uint256"
          },
          {
            "astId": 10162,
            "contract": "contracts/Orchestrator.sol:Orchestrator",
            "label": "postIntentHook",
            "offset": 0,
            "slot": "11",
            "type": "t_contract(IPostIntentHook)10471"
          },
          {
            "astId": 10164,
            "contract": "contracts/Orchestrator.sol:Orchestrator",
            "label": "data",
            "offset": 0,
            "slot": "12",
            "type": "t_bytes_storage"
          }
        ],
        "numberOfBytes": "416"
      },
      "t_uint256": {
        "encoding": "inplace",
        "label": "uint256",
        "numberOfBytes": "32"
      }
    }
  }
}