{
  "address": "0x60354e0DFF25404D8722f4dF8640b9103A78Cc3A",
  "abi": [
    {
      "inputs": [],
      "stateMutability": "nonpayable",
      "type": "constructor"
    },
    {
      "anonymous": false,
      "inputs": [
        {
          "indexed": false,
          "internalType": "bool",
          "name": "acceptAll",
          "type": "bool"
        }
      ],
      "name": "AcceptAllVerifiersUpdated",
      "type": "event"
    },
    {
      "anonymous": false,
      "inputs": [
        {
          "indexed": true,
          "internalType": "address",
          "name": "previousOwner",
          "type": "address"
        },
        {
          "indexed": true,
          "internalType": "address",
          "name": "newOwner",
          "type": "address"
        }
      ],
      "name": "OwnershipTransferred",
      "type": "event"
    },
    {
      "anonymous": false,
      "inputs": [
        {
          "indexed": true,
          "internalType": "address",
          "name": "verifier",
          "type": "address"
        }
      ],
      "name": "PaymentVerifierAdded",
      "type": "event"
    },
    {
      "anonymous": false,
      "inputs": [
        {
          "indexed": true,
          "internalType": "address",
          "name": "verifier",
          "type": "address"
        }
      ],
      "name": "PaymentVerifierRemoved",
      "type": "event"
    },
    {
      "inputs": [],
      "name": "acceptAllVerifiers",
      "outputs": [
        {
          "internalType": "bool",
          "name": "",
          "type": "bool"
        }
      ],
      "stateMutability": "view",
      "type": "function"
    },
    {
      "inputs": [
        {
          "internalType": "address",
          "name": "_verifier",
          "type": "address"
        }
      ],
      "name": "addPaymentVerifier",
      "outputs": [],
      "stateMutability": "nonpayable",
      "type": "function"
    },
    {
      "inputs": [],
      "name": "getWhitelistedVerifiers",
      "outputs": [
        {
          "internalType": "address[]",
          "name": "",
          "type": "address[]"
        }
      ],
      "stateMutability": "view",
      "type": "function"
    },
    {
      "inputs": [],
      "name": "isAcceptingAllVerifiers",
      "outputs": [
        {
          "internalType": "bool",
          "name": "",
          "type": "bool"
        }
      ],
      "stateMutability": "view",
      "type": "function"
    },
    {
      "inputs": [
        {
          "internalType": "address",
          "name": "",
          "type": "address"
        }
      ],
      "name": "isWhitelistedVerifier",
      "outputs": [
        {
          "internalType": "bool",
          "name": "",
          "type": "bool"
        }
      ],
      "stateMutability": "view",
      "type": "function"
    },
    {
      "inputs": [],
      "name": "owner",
      "outputs": [
        {
          "internalType": "address",
          "name": "",
          "type": "address"
        }
      ],
      "stateMutability": "view",
      "type": "function"
    },
    {
      "inputs": [
        {
          "internalType": "address",
          "name": "_verifier",
          "type": "address"
        }
      ],
      "name": "removePaymentVerifier",
      "outputs": [],
      "stateMutability": "nonpayable",
      "type": "function"
    },
    {
      "inputs": [],
      "name": "renounceOwnership",
      "outputs": [],
      "stateMutability": "nonpayable",
      "type": "function"
    },
    {
      "inputs": [
        {
          "internalType": "bool",
          "name": "_acceptAll",
          "type": "bool"
        }
      ],
      "name": "setAcceptAllVerifiers",
      "outputs": [],
      "stateMutability": "nonpayable",
      "type": "function"
    },
    {
      "inputs": [
        {
          "internalType": "address",
          "name": "newOwner",
          "type": "address"
        }
      ],
      "name": "transferOwnership",
      "outputs": [],
      "stateMutability": "nonpayable",
      "type": "function"
    },
    {
      "inputs": [
        {
          "internalType": "uint256",
          "name": "",
          "type": "uint256"
        }
      ],
      "name": "verifiers",
      "outputs": [
        {
          "internalType": "address",
          "name": "",
          "type": "address"
        }
      ],
      "stateMutability": "view",
      "type": "function"
    }
  ],
  "transactionHash": "0x2831f14aa60dcaf37622066ca976d9aeda8d61e7ba6eb2f84237a8ee02ab16ba",
  "args": [],
  "numDeployments": 1,
  "solcInputHash": "22aa06e4f37e501f1f267dbeb03cdb0b",
  "bytecode": "0x608060405234801561001057600080fd5b5061001a3361001f565b61006f565b600080546001600160a01b038381166001600160a01b0319831681178455604051919092169283917f8be0079c531659141344cd1fd0a4f28419497f9722a3daafe3b4186f6b6457e09190a35050565b6109618061007e6000396000f3fe608060405234801561001057600080fd5b50600436106100a95760003560e01c8063a045ec2511610071578063a045ec251461013b578063a69bace91461014e578063ac1eff6814610163578063b3c8f72d14610176578063e6b2d14014610189578063f2fde38b1461019c57600080fd5b8063579cbca2146100ae5780635b0bc9a2146100d75780635de12d8c146100e9578063715018a61461010c5780638da5cb5b14610116575b600080fd5b6000546100c290600160a01b900460ff1681565b60405190151581526020015b60405180910390f35b600054600160a01b900460ff166100c2565b6100c26100f73660046107ff565b60016020526000908152604090205460ff1681565b6101146101af565b005b6000546001600160a01b03165b6040516001600160a01b0390911681526020016100ce565b6101146101493660046107ff565b6101c3565b610156610337565b6040516100ce919061082f565b61012361017136600461087c565b610399565b610114610184366004610895565b6103c3565b6101146101973660046107ff565b610423565b6101146101aa3660046107ff565b6104f4565b6101b761056d565b6101c160006105c7565b565b6101cb61056d565b6001600160a01b0381166102365760405162461bcd60e51b815260206004820152602760248201527f5061796d656e742076657269666965722063616e6e6f74206265207a65726f206044820152666164647265737360c81b60648201526084015b60405180910390fd5b6001600160a01b03811660009081526001602052604090205460ff16156102ab5760405162461bcd60e51b8152602060048201526024808201527f5061796d656e7420766572696669657220616c72656164792077686974656c696044820152631cdd195960e21b606482015260840161022d565b6001600160a01b0381166000818152600160208190526040808320805460ff19168317905560028054928301815583527f405787fa12a823e0f2b7631cc41b3ba8828b3321ca811111fa75cd3aa3bb5ace90910180546001600160a01b03191684179055517f523cfa2b29f53313e586b9901d7db418f7f9c2e403e4979222825740e39767e09190a250565b6060600280548060200260200160405190810160405280929190818152602001828054801561038f57602002820191906000526020600020905b81546001600160a01b03168152600190910190602001808311610371575b5050505050905090565b600281815481106103a957600080fd5b6000918252602090912001546001600160a01b0316905081565b6103cb61056d565b60008054821515600160a01b0260ff60a01b199091161790556040517fa0226c5a4feb7f449e357dc792f1624ea1afd6bef2e18861196f49e2a0229a349061041890831515815260200190565b60405180910390a150565b61042b61056d565b6001600160a01b03811660009081526001602052604090205460ff166104935760405162461bcd60e51b815260206004820181905260248201527f5061796d656e74207665726966696572206e6f742077686974656c6973746564604482015260640161022d565b6001600160a01b0381166000908152600160205260409020805460ff191690556104be600282610617565b6040516001600160a01b038216907efcc74f6f8ff0545ccd7e12a70bac45037644546df378bc3bd52973fcd7c05c90600090a250565b6104fc61056d565b6001600160a01b0381166105615760405162461bcd60e51b815260206004820152602660248201527f4f776e61626c653a206e6577206f776e657220697320746865207a65726f206160448201526564647265737360d01b606482015260840161022d565b61056a816105c7565b50565b6000546001600160a01b031633146101c15760405162461bcd60e51b815260206004820181905260248201527f4f776e61626c653a2063616c6c6572206973206e6f7420746865206f776e6572604482015260640161022d565b600080546001600160a01b038381166001600160a01b0319831681178455604051919092169283917f8be0079c531659141344cd1fd0a4f28419497f9722a3daafe3b4186f6b6457e09190a35050565b60008061067d8480548060200260200160405190810160405280929190818152602001828054801561067257602002820191906000526020600020905b81546001600160a01b03168152600190910190602001808311610654575b50505050508461078a565b91509150806106c65760405162461bcd60e51b815260206004820152601560248201527420b2323932b9b9903737ba1034b71030b93930bc9760591b604482015260640161022d565b83546000906106d7906001906108cd565b9050808314610751578481815481106106f2576106f26108e6565b9060005260206000200160009054906101000a90046001600160a01b0316858481548110610722576107226108e6565b9060005260206000200160006101000a8154816001600160a01b0302191690836001600160a01b031602179055505b84805480610761576107616108fc565b600082815260209020810160001990810180546001600160a01b03191690550190555050505050565b81516000908190815b818110156107ec57846001600160a01b03168682815181106107b7576107b76108e6565b60200260200101516001600160a01b0316036107da579250600191506107f89050565b806107e481610912565b915050610793565b50600019600092509250505b9250929050565b60006020828403121561081157600080fd5b81356001600160a01b038116811461082857600080fd5b9392505050565b6020808252825182820181905260009190848201906040850190845b818110156108705783516001600160a01b03168352928401929184019160010161084b565b50909695505050505050565b60006020828403121561088e57600080fd5b5035919050565b6000602082840312156108a757600080fd5b8135801515811461082857600080fd5b634e487b7160e01b600052601160045260246000fd5b818103818111156108e0576108e06108b7565b92915050565b634e487b7160e01b600052603260045260246000fd5b634e487b7160e01b600052603160045260246000fd5b600060018201610924576109246108b7565b506001019056fea26469706673582212207c747c11dbc8cccaf42db3aed4c4cd4d22cefa02a2cfddb82ab3d945389aada764736f6c63430008120033",
  "devdoc": {
    "kind": "dev",
    "methods": {
      "addPaymentVerifier(address)": {
        "params": {
          "_verifier": "The payment verifier address to add"
        }
      },
      "owner()": {
        "details": "Returns the address of the current owner."
      },
      "removePaymentVerifier(address)": {
        "params": {
          "_verifier": "The payment verifier address to remove"
        }
      },
      "renounceOwnership()": {
        "details": "Leaves the contract without owner. It will not be possible to call `onlyOwner` functions. Can only be called by the current owner. NOTE: Renouncing ownership will leave the contract without an owner, thereby disabling any functionality that is only available to the owner."
      },
      "setAcceptAllVerifiers(bool)": {
        "params": {
          "_acceptAll": "True to accept all payment verifiers, false to require whitelisting"
        }
      },
      "transferOwnership(address)": {
        "details": "Transfers ownership of the contract to a new account (`newOwner`). Can only be called by the current owner."
      }
    },
    "version": 1
  },
  "userdoc": {
    "kind": "user",
    "methods": {
      "addPaymentVerifier(address)": {
        "notice": "ONLY OWNER: Adds a payment verifier to the whitelist."
      },
      "removePaymentVerifier(address)": {
        "notice": "ONLY OWNER: Removes a payment verifier from the whitelist."
      },
      "setAcceptAllVerifiers(bool)": {
        "notice": "ONLY OWNER: Sets whether all payment verifiers can be used without whitelisting."
      }
    },
    "version": 1
  },
  "storageLayout": {
    "storage": [
      {
        "astId": 7,
        "contract": "contracts/registries/PaymentVerifierRegistry.sol:PaymentVerifierRegistry",
        "label": "_owner",
        "offset": 0,
        "slot": "0",
        "type": "t_address"
      },
      {
        "astId": 12869,
        "contract": "contracts/registries/PaymentVerifierRegistry.sol:PaymentVerifierRegistry",
        "label": "acceptAllVerifiers",
        "offset": 20,
        "slot": "0",
        "type": "t_bool"
      },
      {
        "astId": 12873,
        "contract": "contracts/registries/PaymentVerifierRegistry.sol:PaymentVerifierRegistry",
        "label": "isWhitelistedVerifier",
        "offset": 0,
        "slot": "1",
        "type": "t_mapping(t_address,t_bool)"
      },
      {
        "astId": 12876,
        "contract": "contracts/registries/PaymentVerifierRegistry.sol:PaymentVerifierRegistry",
        "label": "verifiers",
        "offset": 0,
        "slot": "2",
        "type": "t_array(t_address)dyn_storage"
      }
    ],
    "types": {
      "t_address": {
        "encoding": "inplace",
        "label": "address",
        "numberOfBytes": "20"
      },
      "t_array(t_address)dyn_storage": {
        "base": "t_address",
        "encoding": "dynamic_array",
        "label": "address[]",
        "numberOfBytes": "32"
      },
      "t_bool": {
        "encoding": "inplace",
        "label": "bool",
        "numberOfBytes": "1"
      },
      "t_mapping(t_address,t_bool)": {
        "encoding": "mapping",
        "key": "t_address",
        "label": "mapping(address => bool)",
        "numberOfBytes": "32",
        "value": "t_bool"
      }
    }
  }
}