{
  "address": "0x6ee1693e4fE83F7c3C87313a06f97E190f9Dc99c",
  "abi": [
    {
      "inputs": [],
      "stateMutability": "nonpayable",
      "type": "constructor"
    },
    {
      "anonymous": false,
      "inputs": [
        {
          "indexed": true,
          "internalType": "address",
          "name": "previousOwner",
          "type": "address"
        },
        {
          "indexed": true,
          "internalType": "address",
          "name": "newOwner",
          "type": "address"
        }
      ],
      "name": "OwnershipTransferred",
      "type": "event"
    },
    {
      "anonymous": false,
      "inputs": [
        {
          "indexed": true,
          "internalType": "address",
          "name": "hook",
          "type": "address"
        }
      ],
      "name": "PostIntentHookAdded",
      "type": "event"
    },
    {
      "anonymous": false,
      "inputs": [
        {
          "indexed": true,
          "internalType": "address",
          "name": "hook",
          "type": "address"
        }
      ],
      "name": "PostIntentHookRemoved",
      "type": "event"
    },
    {
      "inputs": [
        {
          "internalType": "address",
          "name": "_hook",
          "type": "address"
        }
      ],
      "name": "addPostIntentHook",
      "outputs": [],
      "stateMutability": "nonpayable",
      "type": "function"
    },
    {
      "inputs": [],
      "name": "getWhitelistedHooks",
      "outputs": [
        {
          "internalType": "address[]",
          "name": "",
          "type": "address[]"
        }
      ],
      "stateMutability": "view",
      "type": "function"
    },
    {
      "inputs": [
        {
          "internalType": "uint256",
          "name": "",
          "type": "uint256"
        }
      ],
      "name": "hooks",
      "outputs": [
        {
          "internalType": "address",
          "name": "",
          "type": "address"
        }
      ],
      "stateMutability": "view",
      "type": "function"
    },
    {
      "inputs": [
        {
          "internalType": "address",
          "name": "_hook",
          "type": "address"
        }
      ],
      "name": "isWhitelistedHook",
      "outputs": [
        {
          "internalType": "bool",
          "name": "",
          "type": "bool"
        }
      ],
      "stateMutability": "view",
      "type": "function"
    },
    {
      "inputs": [],
      "name": "owner",
      "outputs": [
        {
          "internalType": "address",
          "name": "",
          "type": "address"
        }
      ],
      "stateMutability": "view",
      "type": "function"
    },
    {
      "inputs": [
        {
          "internalType": "address",
          "name": "_hook",
          "type": "address"
        }
      ],
      "name": "removePostIntentHook",
      "outputs": [],
      "stateMutability": "nonpayable",
      "type": "function"
    },
    {
      "inputs": [],
      "name": "renounceOwnership",
      "outputs": [],
      "stateMutability": "nonpayable",
      "type": "function"
    },
    {
      "inputs": [
        {
          "internalType": "address",
          "name": "newOwner",
          "type": "address"
        }
      ],
      "name": "transferOwnership",
      "outputs": [],
      "stateMutability": "nonpayable",
      "type": "function"
    },
    {
      "inputs": [
        {
          "internalType": "address",
          "name": "",
          "type": "address"
        }
      ],
      "name": "whitelistedHooks",
      "outputs": [
        {
          "internalType": "bool",
          "name": "",
          "type": "bool"
        }
      ],
      "stateMutability": "view",
      "type": "function"
    }
  ],
  "transactionHash": "0xff3154130d656b5eb5336fa576a841f8c66d147e7d5c99df427825456de889f3",
  "args": [],
  "numDeployments": 1,
  "solcInputHash": "aef08870d3f91cb961cac0c2a62c44a9",
  "bytecode": "0x608060405234801561001057600080fd5b5061001a3361001f565b61006f565b600080546001600160a01b038381166001600160a01b0319831681178455604051919092169283917f8be0079c531659141344cd1fd0a4f28419497f9722a3daafe3b4186f6b6457e09190a35050565b61089c8061007e6000396000f3fe608060405234801561001057600080fd5b50600436106100935760003560e01c80638da5cb5b116100665780638da5cb5b146101185780639bcf774b14610129578063d21692341461013e578063f048168f1461016a578063f2fde38b1461017d57600080fd5b806341735a99146100985780636d3b96c3146100ad578063715018a6146100e5578063864c17d7146100ed575b600080fd5b6100ab6100a636600461075c565b610190565b005b6100d06100bb36600461075c565b60016020526000908152604090205460ff1681565b60405190151581526020015b60405180910390f35b6100ab6102e8565b6101006100fb36600461078c565b6102fc565b6040516001600160a01b0390911681526020016100dc565b6000546001600160a01b0316610100565b610131610326565b6040516100dc91906107a5565b6100d061014c36600461075c565b6001600160a01b031660009081526001602052604090205460ff1690565b6100ab61017836600461075c565b610388565b6100ab61018b36600461075c565b610451565b6101986104ca565b6001600160a01b0381166101f35760405162461bcd60e51b815260206004820152601b60248201527f486f6f6b2063616e6e6f74206265207a65726f2061646472657373000000000060448201526064015b60405180910390fd5b6001600160a01b03811660009081526001602052604090205460ff161561025c5760405162461bcd60e51b815260206004820152601860248201527f486f6f6b20616c72656164792077686974656c6973746564000000000000000060448201526064016101ea565b6001600160a01b0381166000818152600160208190526040808320805460ff19168317905560028054928301815583527f405787fa12a823e0f2b7631cc41b3ba8828b3321ca811111fa75cd3aa3bb5ace90910180546001600160a01b03191684179055517fa514c5e88cc31aec0d4d9dbbfa37fae7ef875c10dd97cf5302165fc6a7712f049190a250565b6102f06104ca565b6102fa6000610524565b565b6002818154811061030c57600080fd5b6000918252602090912001546001600160a01b0316905081565b6060600280548060200260200160405190810160405280929190818152602001828054801561037e57602002820191906000526020600020905b81546001600160a01b03168152600190910190602001808311610360575b5050505050905090565b6103906104ca565b6001600160a01b03811660009081526001602052604090205460ff166103ef5760405162461bcd60e51b8152602060048201526014602482015273121bdbdac81b9bdd081dda1a5d195b1a5cdd195960621b60448201526064016101ea565b6001600160a01b0381166000908152600160205260409020805460ff1916905561041a600282610574565b6040516001600160a01b038216907f6b74d0f64829d97b2f434344f3850dd948130d0f32dc52d5b7c57f56684b773990600090a250565b6104596104ca565b6001600160a01b0381166104be5760405162461bcd60e51b815260206004820152602660248201527f4f776e61626c653a206e6577206f776e657220697320746865207a65726f206160448201526564647265737360d01b60648201526084016101ea565b6104c781610524565b50565b6000546001600160a01b031633146102fa5760405162461bcd60e51b815260206004820181905260248201527f4f776e61626c653a2063616c6c6572206973206e6f7420746865206f776e657260448201526064016101ea565b600080546001600160a01b038381166001600160a01b0319831681178455604051919092169283917f8be0079c531659141344cd1fd0a4f28419497f9722a3daafe3b4186f6b6457e09190a35050565b6000806105da848054806020026020016040519081016040528092919081815260200182805480156105cf57602002820191906000526020600020905b81546001600160a01b031681526001909101906020018083116105b1575b5050505050846106e7565b91509150806106235760405162461bcd60e51b815260206004820152601560248201527420b2323932b9b9903737ba1034b71030b93930bc9760591b60448201526064016101ea565b835460009061063490600190610808565b90508083146106ae5784818154811061064f5761064f610821565b9060005260206000200160009054906101000a90046001600160a01b031685848154811061067f5761067f610821565b9060005260206000200160006101000a8154816001600160a01b0302191690836001600160a01b031602179055505b848054806106be576106be610837565b600082815260209020810160001990810180546001600160a01b03191690550190555050505050565b81516000908190815b8181101561074957846001600160a01b031686828151811061071457610714610821565b60200260200101516001600160a01b031603610737579250600191506107559050565b806107418161084d565b9150506106f0565b50600019600092509250505b9250929050565b60006020828403121561076e57600080fd5b81356001600160a01b038116811461078557600080fd5b9392505050565b60006020828403121561079e57600080fd5b5035919050565b6020808252825182820181905260009190848201906040850190845b818110156107e65783516001600160a01b0316835292840192918401916001016107c1565b50909695505050505050565b634e487b7160e01b600052601160045260246000fd5b8181038181111561081b5761081b6107f2565b92915050565b634e487b7160e01b600052603260045260246000fd5b634e487b7160e01b600052603160045260246000fd5b60006001820161085f5761085f6107f2565b506001019056fea264697066735822122081581ee2ce06c8d0eb627ca2fc45b8aca170d280b0474d983379bda95a89979e64736f6c63430008120033",
  "devdoc": {
    "kind": "dev",
    "methods": {
      "addPostIntentHook(address)": {
        "params": {
          "_hook": "The post intent hook address to add"
        }
      },
      "owner()": {
        "details": "Returns the address of the current owner."
      },
      "removePostIntentHook(address)": {
        "params": {
          "_hook": "The post intent hook address to remove"
        }
      },
      "renounceOwnership()": {
        "details": "Leaves the contract without owner. It will not be possible to call `onlyOwner` functions. Can only be called by the current owner. NOTE: Renouncing ownership will leave the contract without an owner, thereby disabling any functionality that is only available to the owner."
      },
      "transferOwnership(address)": {
        "details": "Transfers ownership of the contract to a new account (`newOwner`). Can only be called by the current owner."
      }
    },
    "version": 1
  },
  "userdoc": {
    "kind": "user",
    "methods": {
      "addPostIntentHook(address)": {
        "notice": "ONLY OWNER: Adds a post intent hook to the whitelist."
      },
      "removePostIntentHook(address)": {
        "notice": "ONLY OWNER: Removes a post intent hook from the whitelist."
      }
    },
    "version": 1
  },
  "storageLayout": {
    "storage": [
      {
        "astId": 7,
        "contract": "contracts/registries/PostIntentHookRegistry.sol:PostIntentHookRegistry",
        "label": "_owner",
        "offset": 0,
        "slot": "0",
        "type": "t_address"
      },
      {
        "astId": 12135,
        "contract": "contracts/registries/PostIntentHookRegistry.sol:PostIntentHookRegistry",
        "label": "whitelistedHooks",
        "offset": 0,
        "slot": "1",
        "type": "t_mapping(t_address,t_bool)"
      },
      {
        "astId": 12138,
        "contract": "contracts/registries/PostIntentHookRegistry.sol:PostIntentHookRegistry",
        "label": "hooks",
        "offset": 0,
        "slot": "2",
        "type": "t_array(t_address)dyn_storage"
      }
    ],
    "types": {
      "t_address": {
        "encoding": "inplace",
        "label": "address",
        "numberOfBytes": "20"
      },
      "t_array(t_address)dyn_storage": {
        "base": "t_address",
        "encoding": "dynamic_array",
        "label": "address[]",
        "numberOfBytes": "32"
      },
      "t_bool": {
        "encoding": "inplace",
        "label": "bool",
        "numberOfBytes": "1"
      },
      "t_mapping(t_address,t_bool)": {
        "encoding": "mapping",
        "key": "t_address",
        "label": "mapping(address => bool)",
        "numberOfBytes": "32",
        "value": "t_bool"
      }
    }
  }
}