{
  "address": "0xf2AC5be14F32Cbe6A613CFF8931d95460D6c33A3",
  "abi": [
    {
      "inputs": [
        {
          "internalType": "address",
          "name": "_escrow",
          "type": "address"
        },
        {
          "internalType": "address",
          "name": "_orchestrator",
          "type": "address"
        }
      ],
      "stateMutability": "nonpayable",
      "type": "constructor"
    },
    {
      "inputs": [],
      "name": "escrowContract",
      "outputs": [
        {
          "internalType": "contract IEscrow",
          "name": "",
          "type": "address"
        }
      ],
      "stateMutability": "view",
      "type": "function"
    },
    {
      "inputs": [
        {
          "internalType": "address",
          "name": "_account",
          "type": "address"
        }
      ],
      "name": "getAccountDeposits",
      "outputs": [
        {
          "components": [
            {
              "internalType": "uint256",
              "name": "depositId",
              "type": "uint256"
            },
            {
              "components": [
                {
                  "internalType": "address",
                  "name": "depositor",
                  "type": "address"
                },
                {
                  "internalType": "address",
                  "name": "delegate",
                  "type": "address"
                },
                {
                  "internalType": "contract IERC20",
                  "name": "token",
                  "type": "address"
                },
                {
                  "internalType": "uint256",
                  "name": "amount",
                  "type": "uint256"
                },
                {
                  "components": [
                    {
                      "internalType": "uint256",
                      "name": "min",
                      "type": "uint256"
                    },
                    {
                      "internalType": "uint256",
                      "name": "max",
                      "type": "uint256"
                    }
                  ],
                  "internalType": "struct IEscrow.Range",
                  "name": "intentAmountRange",
                  "type": "tuple"
                },
                {
                  "internalType": "bool",
                  "name": "acceptingIntents",
                  "type": "bool"
                },
                {
                  "internalType": "uint256",
                  "name": "remainingDeposits",
                  "type": "uint256"
                },
                {
                  "internalType": "uint256",
                  "name": "outstandingIntentAmount",
                  "type": "uint256"
                },
                {
                  "internalType": "uint256",
                  "name": "makerProtocolFee",
                  "type": "uint256"
                },
                {
                  "internalType": "uint256",
                  "name": "reservedMakerFees",
                  "type": "uint256"
                },
                {
                  "internalType": "uint256",
                  "name": "accruedMakerFees",
                  "type": "uint256"
                },
                {
                  "internalType": "uint256",
                  "name": "accruedReferrerFees",
                  "type": "uint256"
                },
                {
                  "internalType": "address",
                  "name": "intentGuardian",
                  "type": "address"
                },
                {
                  "internalType": "address",
                  "name": "referrer",
                  "type": "address"
                },
                {
                  "internalType": "uint256",
                  "name": "referrerFee",
                  "type": "uint256"
                }
              ],
              "internalType": "struct IEscrow.Deposit",
              "name": "deposit",
              "type": "tuple"
            },
            {
              "internalType": "uint256",
              "name": "availableLiquidity",
              "type": "uint256"
            },
            {
              "components": [
                {
                  "internalType": "bytes32",
                  "name": "paymentMethod",
                  "type": "bytes32"
                },
                {
                  "components": [
                    {
                      "internalType": "address",
                      "name": "intentGatingService",
                      "type": "address"
                    },
                    {
                      "internalType": "bytes32",
                      "name": "payeeDetails",
                      "type": "bytes32"
                    },
                    {
                      "internalType": "bytes",
                      "name": "data",
                      "type": "bytes"
                    }
                  ],
                  "internalType": "struct IEscrow.DepositPaymentMethodData",
                  "name": "verificationData",
                  "type": "tuple"
                },
                {
                  "components": [
                    {
                      "internalType": "bytes32",
                      "name": "code",
                      "type": "bytes32"
                    },
                    {
                      "internalType": "uint256",
                      "name": "minConversionRate",
                      "type": "uint256"
                    }
                  ],
                  "internalType": "struct IEscrow.Currency[]",
                  "name": "currencies",
                  "type": "tuple[]"
                }
              ],
              "internalType": "struct IProtocolViewer.PaymentMethodDataView[]",
              "name": "paymentMethods",
              "type": "tuple[]"
            },
            {
              "internalType": "bytes32[]",
              "name": "intentHashes",
              "type": "bytes32[]"
            }
          ],
          "internalType": "struct IProtocolViewer.DepositView[]",
          "name": "depositArray",
          "type": "tuple[]"
        }
      ],
      "stateMutability": "view",
      "type": "function"
    },
    {
      "inputs": [
        {
          "internalType": "address",
          "name": "_account",
          "type": "address"
        }
      ],
      "name": "getAccountIntents",
      "outputs": [
        {
          "components": [
            {
              "internalType": "bytes32",
              "name": "intentHash",
              "type": "bytes32"
            },
            {
              "components": [
                {
                  "internalType": "address",
                  "name": "owner",
                  "type": "address"
                },
                {
                  "internalType": "address",
                  "name": "to",
                  "type": "address"
                },
                {
                  "internalType": "address",
                  "name": "escrow",
                  "type": "address"
                },
                {
                  "internalType": "uint256",
                  "name": "depositId",
                  "type": "uint256"
                },
                {
                  "internalType": "uint256",
                  "name": "amount",
                  "type": "uint256"
                },
                {
                  "internalType": "uint256",
                  "name": "timestamp",
                  "type": "uint256"
                },
                {
                  "internalType": "bytes32",
                  "name": "paymentMethod",
                  "type": "bytes32"
                },
                {
                  "internalType": "bytes32",
                  "name": "fiatCurrency",
                  "type": "bytes32"
                },
                {
                  "internalType": "uint256",
                  "name": "conversionRate",
                  "type": "uint256"
                },
                {
                  "internalType": "address",
                  "name": "referrer",
                  "type": "address"
                },
                {
                  "internalType": "uint256",
                  "name": "referrerFee",
                  "type": "uint256"
                },
                {
                  "internalType": "contract IPostIntentHook",
                  "name": "postIntentHook",
                  "type": "address"
                },
                {
                  "internalType": "bytes",
                  "name": "data",
                  "type": "bytes"
                }
              ],
              "internalType": "struct IOrchestrator.Intent",
              "name": "intent",
              "type": "tuple"
            },
            {
              "components": [
                {
                  "internalType": "uint256",
                  "name": "depositId",
                  "type": "uint256"
                },
                {
                  "components": [
                    {
                      "internalType": "address",
                      "name": "depositor",
                      "type": "address"
                    },
                    {
                      "internalType": "address",
                      "name": "delegate",
                      "type": "address"
                    },
                    {
                      "internalType": "contract IERC20",
                      "name": "token",
                      "type": "address"
                    },
                    {
                      "internalType": "uint256",
                      "name": "amount",
                      "type": "uint256"
                    },
                    {
                      "components": [
                        {
                          "internalType": "uint256",
                          "name": "min",
                          "type": "uint256"
                        },
                        {
                          "internalType": "uint256",
                          "name": "max",
                          "type": "uint256"
                        }
                      ],
                      "internalType": "struct IEscrow.Range",
                      "name": "intentAmountRange",
                      "type": "tuple"
                    },
                    {
                      "internalType": "bool",
                      "name": "acceptingIntents",
                      "type": "bool"
                    },
                    {
                      "internalType": "uint256",
                      "name": "remainingDeposits",
                      "type": "uint256"
                    },
                    {
                      "internalType": "uint256",
                      "name": "outstandingIntentAmount",
                      "type": "uint256"
                    },
                    {
                      "internalType": "uint256",
                      "name": "makerProtocolFee",
                      "type": "uint256"
                    },
                    {
                      "internalType": "uint256",
                      "name": "reservedMakerFees",
                      "type": "uint256"
                    },
                    {
                      "internalType": "uint256",
                      "name": "accruedMakerFees",
                      "type": "uint256"
                    },
                    {
                      "internalType": "uint256",
                      "name": "accruedReferrerFees",
                      "type": "uint256"
                    },
                    {
                      "internalType": "address",
                      "name": "intentGuardian",
                      "type": "address"
                    },
                    {
                      "internalType": "address",
                      "name": "referrer",
                      "type": "address"
                    },
                    {
                      "internalType": "uint256",
                      "name": "referrerFee",
                      "type": "uint256"
                    }
                  ],
                  "internalType": "struct IEscrow.Deposit",
                  "name": "deposit",
                  "type": "tuple"
                },
                {
                  "internalType": "uint256",
                  "name": "availableLiquidity",
                  "type": "uint256"
                },
                {
                  "components": [
                    {
                      "internalType": "bytes32",
                      "name": "paymentMethod",
                      "type": "bytes32"
                    },
                    {
                      "components": [
                        {
                          "internalType": "address",
                          "name": "intentGatingService",
                          "type": "address"
                        },
                        {
                          "internalType": "bytes32",
                          "name": "payeeDetails",
                          "type": "bytes32"
                        },
                        {
                          "internalType": "bytes",
                          "name": "data",
                          "type": "bytes"
                        }
                      ],
                      "internalType": "struct IEscrow.DepositPaymentMethodData",
                      "name": "verificationData",
                      "type": "tuple"
                    },
                    {
                      "components": [
                        {
                          "internalType": "bytes32",
                          "name": "code",
                          "type": "bytes32"
                        },
                        {
                          "internalType": "uint256",
                          "name": "minConversionRate",
                          "type": "uint256"
                        }
                      ],
                      "internalType": "struct IEscrow.Currency[]",
                      "name": "currencies",
                      "type": "tuple[]"
                    }
                  ],
                  "internalType": "struct IProtocolViewer.PaymentMethodDataView[]",
                  "name": "paymentMethods",
                  "type": "tuple[]"
                },
                {
                  "internalType": "bytes32[]",
                  "name": "intentHashes",
                  "type": "bytes32[]"
                }
              ],
              "internalType": "struct IProtocolViewer.DepositView",
              "name": "deposit",
              "type": "tuple"
            }
          ],
          "internalType": "struct IProtocolViewer.IntentView[]",
          "name": "intentViews",
          "type": "tuple[]"
        }
      ],
      "stateMutability": "view",
      "type": "function"
    },
    {
      "inputs": [
        {
          "internalType": "uint256",
          "name": "_depositId",
          "type": "uint256"
        }
      ],
      "name": "getDeposit",
      "outputs": [
        {
          "components": [
            {
              "internalType": "uint256",
              "name": "depositId",
              "type": "uint256"
            },
            {
              "components": [
                {
                  "internalType": "address",
                  "name": "depositor",
                  "type": "address"
                },
                {
                  "internalType": "address",
                  "name": "delegate",
                  "type": "address"
                },
                {
                  "internalType": "contract IERC20",
                  "name": "token",
                  "type": "address"
                },
                {
                  "internalType": "uint256",
                  "name": "amount",
                  "type": "uint256"
                },
                {
                  "components": [
                    {
                      "internalType": "uint256",
                      "name": "min",
                      "type": "uint256"
                    },
                    {
                      "internalType": "uint256",
                      "name": "max",
                      "type": "uint256"
                    }
                  ],
                  "internalType": "struct IEscrow.Range",
                  "name": "intentAmountRange",
                  "type": "tuple"
                },
                {
                  "internalType": "bool",
                  "name": "acceptingIntents",
                  "type": "bool"
                },
                {
                  "internalType": "uint256",
                  "name": "remainingDeposits",
                  "type": "uint256"
                },
                {
                  "internalType": "uint256",
                  "name": "outstandingIntentAmount",
                  "type": "uint256"
                },
                {
                  "internalType": "uint256",
                  "name": "makerProtocolFee",
                  "type": "uint256"
                },
                {
                  "internalType": "uint256",
                  "name": "reservedMakerFees",
                  "type": "uint256"
                },
                {
                  "internalType": "uint256",
                  "name": "accruedMakerFees",
                  "type": "uint256"
                },
                {
                  "internalType": "uint256",
                  "name": "accruedReferrerFees",
                  "type": "uint256"
                },
                {
                  "internalType": "address",
                  "name": "intentGuardian",
                  "type": "address"
                },
                {
                  "internalType": "address",
                  "name": "referrer",
                  "type": "address"
                },
                {
                  "internalType": "uint256",
                  "name": "referrerFee",
                  "type": "uint256"
                }
              ],
              "internalType": "struct IEscrow.Deposit",
              "name": "deposit",
              "type": "tuple"
            },
            {
              "internalType": "uint256",
              "name": "availableLiquidity",
              "type": "uint256"
            },
            {
              "components": [
                {
                  "internalType": "bytes32",
                  "name": "paymentMethod",
                  "type": "bytes32"
                },
                {
                  "components": [
                    {
                      "internalType": "address",
                      "name": "intentGatingService",
                      "type": "address"
                    },
                    {
                      "internalType": "bytes32",
                      "name": "payeeDetails",
                      "type": "bytes32"
                    },
                    {
                      "internalType": "bytes",
                      "name": "data",
                      "type": "bytes"
                    }
                  ],
                  "internalType": "struct IEscrow.DepositPaymentMethodData",
                  "name": "verificationData",
                  "type": "tuple"
                },
                {
                  "components": [
                    {
                      "internalType": "bytes32",
                      "name": "code",
                      "type": "bytes32"
                    },
                    {
                      "internalType": "uint256",
                      "name": "minConversionRate",
                      "type": "uint256"
                    }
                  ],
                  "internalType": "struct IEscrow.Currency[]",
                  "name": "currencies",
                  "type": "tuple[]"
                }
              ],
              "internalType": "struct IProtocolViewer.PaymentMethodDataView[]",
              "name": "paymentMethods",
              "type": "tuple[]"
            },
            {
              "internalType": "bytes32[]",
              "name": "intentHashes",
              "type": "bytes32[]"
            }
          ],
          "internalType": "struct IProtocolViewer.DepositView",
          "name": "depositView",
          "type": "tuple"
        }
      ],
      "stateMutability": "view",
      "type": "function"
    },
    {
      "inputs": [
        {
          "internalType": "uint256[]",
          "name": "_depositIds",
          "type": "uint256[]"
        }
      ],
      "name": "getDepositFromIds",
      "outputs": [
        {
          "components": [
            {
              "internalType": "uint256",
              "name": "depositId",
              "type": "uint256"
            },
            {
              "components": [
                {
                  "internalType": "address",
                  "name": "depositor",
                  "type": "address"
                },
                {
                  "internalType": "address",
                  "name": "delegate",
                  "type": "address"
                },
                {
                  "internalType": "contract IERC20",
                  "name": "token",
                  "type": "address"
                },
                {
                  "internalType": "uint256",
                  "name": "amount",
                  "type": "uint256"
                },
                {
                  "components": [
                    {
                      "internalType": "uint256",
                      "name": "min",
                      "type": "uint256"
                    },
                    {
                      "internalType": "uint256",
                      "name": "max",
                      "type": "uint256"
                    }
                  ],
                  "internalType": "struct IEscrow.Range",
                  "name": "intentAmountRange",
                  "type": "tuple"
                },
                {
                  "internalType": "bool",
                  "name": "acceptingIntents",
                  "type": "bool"
                },
                {
                  "internalType": "uint256",
                  "name": "remainingDeposits",
                  "type": "uint256"
                },
                {
                  "internalType": "uint256",
                  "name": "outstandingIntentAmount",
                  "type": "uint256"
                },
                {
                  "internalType": "uint256",
                  "name": "makerProtocolFee",
                  "type": "uint256"
                },
                {
                  "internalType": "uint256",
                  "name": "reservedMakerFees",
                  "type": "uint256"
                },
                {
                  "internalType": "uint256",
                  "name": "accruedMakerFees",
                  "type": "uint256"
                },
                {
                  "internalType": "uint256",
                  "name": "accruedReferrerFees",
                  "type": "uint256"
                },
                {
                  "internalType": "address",
                  "name": "intentGuardian",
                  "type": "address"
                },
                {
                  "internalType": "address",
                  "name": "referrer",
                  "type": "address"
                },
                {
                  "internalType": "uint256",
                  "name": "referrerFee",
                  "type": "uint256"
                }
              ],
              "internalType": "struct IEscrow.Deposit",
              "name": "deposit",
              "type": "tuple"
            },
            {
              "internalType": "uint256",
              "name": "availableLiquidity",
              "type": "uint256"
            },
            {
              "components": [
                {
                  "internalType": "bytes32",
                  "name": "paymentMethod",
                  "type": "bytes32"
                },
                {
                  "components": [
                    {
                      "internalType": "address",
                      "name": "intentGatingService",
                      "type": "address"
                    },
                    {
                      "internalType": "bytes32",
                      "name": "payeeDetails",
                      "type": "bytes32"
                    },
                    {
                      "internalType": "bytes",
                      "name": "data",
                      "type": "bytes"
                    }
                  ],
                  "internalType": "struct IEscrow.DepositPaymentMethodData",
                  "name": "verificationData",
                  "type": "tuple"
                },
                {
                  "components": [
                    {
                      "internalType": "bytes32",
                      "name": "code",
                      "type": "bytes32"
                    },
                    {
                      "internalType": "uint256",
                      "name": "minConversionRate",
                      "type": "uint256"
                    }
                  ],
                  "internalType": "struct IEscrow.Currency[]",
                  "name": "currencies",
                  "type": "tuple[]"
                }
              ],
              "internalType": "struct IProtocolViewer.PaymentMethodDataView[]",
              "name": "paymentMethods",
              "type": "tuple[]"
            },
            {
              "internalType": "bytes32[]",
              "name": "intentHashes",
              "type": "bytes32[]"
            }
          ],
          "internalType": "struct IProtocolViewer.DepositView[]",
          "name": "depositArray",
          "type": "tuple[]"
        }
      ],
      "stateMutability": "view",
      "type": "function"
    },
    {
      "inputs": [
        {
          "internalType": "bytes32",
          "name": "_intentHash",
          "type": "bytes32"
        }
      ],
      "name": "getIntent",
      "outputs": [
        {
          "components": [
            {
              "internalType": "bytes32",
              "name": "intentHash",
              "type": "bytes32"
            },
            {
              "components": [
                {
                  "internalType": "address",
                  "name": "owner",
                  "type": "address"
                },
                {
                  "internalType": "address",
                  "name": "to",
                  "type": "address"
                },
                {
                  "internalType": "address",
                  "name": "escrow",
                  "type": "address"
                },
                {
                  "internalType": "uint256",
                  "name": "depositId",
                  "type": "uint256"
                },
                {
                  "internalType": "uint256",
                  "name": "amount",
                  "type": "uint256"
                },
                {
                  "internalType": "uint256",
                  "name": "timestamp",
                  "type": "uint256"
                },
                {
                  "internalType": "bytes32",
                  "name": "paymentMethod",
                  "type": "bytes32"
                },
                {
                  "internalType": "bytes32",
                  "name": "fiatCurrency",
                  "type": "bytes32"
                },
                {
                  "internalType": "uint256",
                  "name": "conversionRate",
                  "type": "uint256"
                },
                {
                  "internalType": "address",
                  "name": "referrer",
                  "type": "address"
                },
                {
                  "internalType": "uint256",
                  "name": "referrerFee",
                  "type": "uint256"
                },
                {
                  "internalType": "contract IPostIntentHook",
                  "name": "postIntentHook",
                  "type": "address"
                },
                {
                  "internalType": "bytes",
                  "name": "data",
                  "type": "bytes"
                }
              ],
              "internalType": "struct IOrchestrator.Intent",
              "name": "intent",
              "type": "tuple"
            },
            {
              "components": [
                {
                  "internalType": "uint256",
                  "name": "depositId",
                  "type": "uint256"
                },
                {
                  "components": [
                    {
                      "internalType": "address",
                      "name": "depositor",
                      "type": "address"
                    },
                    {
                      "internalType": "address",
                      "name": "delegate",
                      "type": "address"
                    },
                    {
                      "internalType": "contract IERC20",
                      "name": "token",
                      "type": "address"
                    },
                    {
                      "internalType": "uint256",
                      "name": "amount",
                      "type": "uint256"
                    },
                    {
                      "components": [
                        {
                          "internalType": "uint256",
                          "name": "min",
                          "type": "uint256"
                        },
                        {
                          "internalType": "uint256",
                          "name": "max",
                          "type": "uint256"
                        }
                      ],
                      "internalType": "struct IEscrow.Range",
                      "name": "intentAmountRange",
                      "type": "tuple"
                    },
                    {
                      "internalType": "bool",
                      "name": "acceptingIntents",
                      "type": "bool"
                    },
                    {
                      "internalType": "uint256",
                      "name": "remainingDeposits",
                      "type": "uint256"
                    },
                    {
                      "internalType": "uint256",
                      "name": "outstandingIntentAmount",
                      "type": "uint256"
                    },
                    {
                      "internalType": "uint256",
                      "name": "makerProtocolFee",
                      "type": "uint256"
                    },
                    {
                      "internalType": "uint256",
                      "name": "reservedMakerFees",
                      "type": "uint256"
                    },
                    {
                      "internalType": "uint256",
                      "name": "accruedMakerFees",
                      "type": "uint256"
                    },
                    {
                      "internalType": "uint256",
                      "name": "accruedReferrerFees",
                      "type": "uint256"
                    },
                    {
                      "internalType": "address",
                      "name": "intentGuardian",
                      "type": "address"
                    },
                    {
                      "internalType": "address",
                      "name": "referrer",
                      "type": "address"
                    },
                    {
                      "internalType": "uint256",
                      "name": "referrerFee",
                      "type": "uint256"
                    }
                  ],
                  "internalType": "struct IEscrow.Deposit",
                  "name": "deposit",
                  "type": "tuple"
                },
                {
                  "internalType": "uint256",
                  "name": "availableLiquidity",
                  "type": "uint256"
                },
                {
                  "components": [
                    {
                      "internalType": "bytes32",
                      "name": "paymentMethod",
                      "type": "bytes32"
                    },
                    {
                      "components": [
                        {
                          "internalType": "address",
                          "name": "intentGatingService",
                          "type": "address"
                        },
                        {
                          "internalType": "bytes32",
                          "name": "payeeDetails",
                          "type": "bytes32"
                        },
                        {
                          "internalType": "bytes",
                          "name": "data",
                          "type": "bytes"
                        }
                      ],
                      "internalType": "struct IEscrow.DepositPaymentMethodData",
                      "name": "verificationData",
                      "type": "tuple"
                    },
                    {
                      "components": [
                        {
                          "internalType": "bytes32",
                          "name": "code",
                          "type": "bytes32"
                        },
                        {
                          "internalType": "uint256",
                          "name": "minConversionRate",
                          "type": "uint256"
                        }
                      ],
                      "internalType": "struct IEscrow.Currency[]",
                      "name": "currencies",
                      "type": "tuple[]"
                    }
                  ],
                  "internalType": "struct IProtocolViewer.PaymentMethodDataView[]",
                  "name": "paymentMethods",
                  "type": "tuple[]"
                },
                {
                  "internalType": "bytes32[]",
                  "name": "intentHashes",
                  "type": "bytes32[]"
                }
              ],
              "internalType": "struct IProtocolViewer.DepositView",
              "name": "deposit",
              "type": "tuple"
            }
          ],
          "internalType": "struct IProtocolViewer.IntentView",
          "name": "intentView",
          "type": "tuple"
        }
      ],
      "stateMutability": "view",
      "type": "function"
    },
    {
      "inputs": [
        {
          "internalType": "bytes32[]",
          "name": "_intentHashes",
          "type": "bytes32[]"
        }
      ],
      "name": "getIntents",
      "outputs": [
        {
          "components": [
            {
              "internalType": "bytes32",
              "name": "intentHash",
              "type": "bytes32"
            },
            {
              "components": [
                {
                  "internalType": "address",
                  "name": "owner",
                  "type": "address"
                },
                {
                  "internalType": "address",
                  "name": "to",
                  "type": "address"
                },
                {
                  "internalType": "address",
                  "name": "escrow",
                  "type": "address"
                },
                {
                  "internalType": "uint256",
                  "name": "depositId",
                  "type": "uint256"
                },
                {
                  "internalType": "uint256",
                  "name": "amount",
                  "type": "uint256"
                },
                {
                  "internalType": "uint256",
                  "name": "timestamp",
                  "type": "uint256"
                },
                {
                  "internalType": "bytes32",
                  "name": "paymentMethod",
                  "type": "bytes32"
                },
                {
                  "internalType": "bytes32",
                  "name": "fiatCurrency",
                  "type": "bytes32"
                },
                {
                  "internalType": "uint256",
                  "name": "conversionRate",
                  "type": "uint256"
                },
                {
                  "internalType": "address",
                  "name": "referrer",
                  "type": "address"
                },
                {
                  "internalType": "uint256",
                  "name": "referrerFee",
                  "type": "uint256"
                },
                {
                  "internalType": "contract IPostIntentHook",
                  "name": "postIntentHook",
                  "type": "address"
                },
                {
                  "internalType": "bytes",
                  "name": "data",
                  "type": "bytes"
                }
              ],
              "internalType": "struct IOrchestrator.Intent",
              "name": "intent",
              "type": "tuple"
            },
            {
              "components": [
                {
                  "internalType": "uint256",
                  "name": "depositId",
                  "type": "uint256"
                },
                {
                  "components": [
                    {
                      "internalType": "address",
                      "name": "depositor",
                      "type": "address"
                    },
                    {
                      "internalType": "address",
                      "name": "delegate",
                      "type": "address"
                    },
                    {
                      "internalType": "contract IERC20",
                      "name": "token",
                      "type": "address"
                    },
                    {
                      "internalType": "uint256",
                      "name": "amount",
                      "type": "uint256"
                    },
                    {
                      "components": [
                        {
                          "internalType": "uint256",
                          "name": "min",
                          "type": "uint256"
                        },
                        {
                          "internalType": "uint256",
                          "name": "max",
                          "type": "uint256"
                        }
                      ],
                      "internalType": "struct IEscrow.Range",
                      "name": "intentAmountRange",
                      "type": "tuple"
                    },
                    {
                      "internalType": "bool",
                      "name": "acceptingIntents",
                      "type": "bool"
                    },
                    {
                      "internalType": "uint256",
                      "name": "remainingDeposits",
                      "type": "uint256"
                    },
                    {
                      "internalType": "uint256",
                      "name": "outstandingIntentAmount",
                      "type": "uint256"
                    },
                    {
                      "internalType": "uint256",
                      "name": "makerProtocolFee",
                      "type": "uint256"
                    },
                    {
                      "internalType": "uint256",
                      "name": "reservedMakerFees",
                      "type": "uint256"
                    },
                    {
                      "internalType": "uint256",
                      "name": "accruedMakerFees",
                      "type": "uint256"
                    },
                    {
                      "internalType": "uint256",
                      "name": "accruedReferrerFees",
                      "type": "uint256"
                    },
                    {
                      "internalType": "address",
                      "name": "intentGuardian",
                      "type": "address"
                    },
                    {
                      "internalType": "address",
                      "name": "referrer",
                      "type": "address"
                    },
                    {
                      "internalType": "uint256",
                      "name": "referrerFee",
                      "type": "uint256"
                    }
                  ],
                  "internalType": "struct IEscrow.Deposit",
                  "name": "deposit",
                  "type": "tuple"
                },
                {
                  "internalType": "uint256",
                  "name": "availableLiquidity",
                  "type": "uint256"
                },
                {
                  "components": [
                    {
                      "internalType": "bytes32",
                      "name": "paymentMethod",
                      "type": "bytes32"
                    },
                    {
                      "components": [
                        {
                          "internalType": "address",
                          "name": "intentGatingService",
                          "type": "address"
                        },
                        {
                          "internalType": "bytes32",
                          "name": "payeeDetails",
                          "type": "bytes32"
                        },
                        {
                          "internalType": "bytes",
                          "name": "data",
                          "type": "bytes"
                        }
                      ],
                      "internalType": "struct IEscrow.DepositPaymentMethodData",
                      "name": "verificationData",
                      "type": "tuple"
                    },
                    {
                      "components": [
                        {
                          "internalType": "bytes32",
                          "name": "code",
                          "type": "bytes32"
                        },
                        {
                          "internalType": "uint256",
                          "name": "minConversionRate",
                          "type": "uint256"
                        }
                      ],
                      "internalType": "struct IEscrow.Currency[]",
                      "name": "currencies",
                      "type": "tuple[]"
                    }
                  ],
                  "internalType": "struct IProtocolViewer.PaymentMethodDataView[]",
                  "name": "paymentMethods",
                  "type": "tuple[]"
                },
                {
                  "internalType": "bytes32[]",
                  "name": "intentHashes",
                  "type": "bytes32[]"
                }
              ],
              "internalType": "struct IProtocolViewer.DepositView",
              "name": "deposit",
              "type": "tuple"
            }
          ],
          "internalType": "struct IProtocolViewer.IntentView[]",
          "name": "intentArray",
          "type": "tuple[]"
        }
      ],
      "stateMutability": "view",
      "type": "function"
    },
    {
      "inputs": [],
      "name": "orchestrator",
      "outputs": [
        {
          "internalType": "contract IOrchestrator",
          "name": "",
          "type": "address"
        }
      ],
      "stateMutability": "view",
      "type": "function"
    }
  ],
  "transactionHash": "0x5edcf6467a90213fd24d37b9e238e9a781a5ceacf8a4a2d816fd6bac0ca76f21",
  "args": [
    "0x2CE748dd6fCB8bcCD0837E1bb42dC6DE91213203",
    "0x52603a0980AfCC84722db18369768E2e1c906AB8"
  ],
  "numDeployments": 1,
  "solcInputHash": "a8b7ca78066148b53bbe418be6e5d05f",
  "bytecode": "0x60c06040523480156200001157600080fd5b5060405162001c2238038062001c22833981016040819052620000349162000069565b6001600160a01b039182166080521660a052620000a1565b80516001600160a01b03811681146200006457600080fd5b919050565b600080604083850312156200007d57600080fd5b62000088836200004c565b915062000098602084016200004c565b90509250929050565b60805160a051611b0e620001146000396000818161010e0152818161031b0152610c69015260008181610160015281816101c70152818161051d015281816105b501528181610649015281816106dc015281816107d2015281816108f80152818161099d0152610aa60152611b0e6000f3fe608060405234801561001057600080fd5b50600436106100885760003560e01c8063b74795d91161005b578063b74795d914610109578063ba7ae4af14610148578063e42a96e71461015b578063f13c46aa1461018257600080fd5b80635081d9521461008d57806356510510146100b657806371a28f69146100d65780639f9fb968146100e9575b600080fd5b6100a061009b366004610ed0565b6101a2565b6040516100ad91906111b2565b60405180910390f35b6100c96100c4366004610ed0565b6102f6565b6040516100ad9190611329565b6100a06100e4366004611433565b61043d565b6100fc6100f73660046114c8565b6104fc565b6040516100ad91906114e1565b6101307f000000000000000000000000000000000000000000000000000000000000000081565b6040516001600160a01b0390911681526020016100ad565b6100c96101563660046114f4565b610b91565b6101307f000000000000000000000000000000000000000000000000000000000000000081565b6101956101903660046114c8565b610c48565b6040516100ad9190611568565b604051632840eca960e11b81526001600160a01b0382811660048301526060916000917f00000000000000000000000000000000000000000000000000000000000000001690635081d95290602401600060405180830381865afa15801561020e573d6000803e3d6000fd5b505050506040513d6000823e601f3d908101601f19168201604052610236919081019061157b565b905080516001600160401b038111156102515761025161137e565b60405190808252806020026020018201604052801561028a57816020015b610277610d14565b81526020019060019003908161026f5790505b50915060005b81518110156102ef5760008282815181106102ad576102ad611600565b602002602001015190506102c0816104fc565b8483815181106102d2576102d2611600565b602002602001018190525050806102e89061162c565b9050610290565b5050919050565b604051630565105160e41b81526001600160a01b0382811660048301526060916000917f00000000000000000000000000000000000000000000000000000000000000001690635651051090602401600060405180830381865afa158015610362573d6000803e3d6000fd5b505050506040513d6000823e601f3d908101601f1916820160405261038a91908101906116ab565b905080516001600160401b038111156103a5576103a561137e565b6040519080825280602002602001820160405280156103de57816020015b6103cb610ddd565b8152602001906001900390816103c35790505b50915060005b81518110156102ef5761040f82828151811061040257610402611600565b6020026020010151610c48565b83828151811061042157610421611600565b6020026020010181905250806104369061162c565b90506103e4565b606081516001600160401b038111156104585761045861137e565b60405190808252806020026020018201604052801561049157816020015b61047e610d14565b8152602001906001900390816104765790505b50905060005b82518110156104f65760008382815181106104b4576104b4611600565b602002602001015190506104c7816104fc565b8383815181106104d9576104d9611600565b602002602001018190525050806104ef9061162c565b9050610497565b50919050565b610504610d14565b6040516313f3f72d60e31b8152600481018390526000907f00000000000000000000000000000000000000000000000000000000000000006001600160a01b031690639f9fb9689060240161020060405180830381865afa15801561056d573d6000803e3d6000fd5b505050506040513d601f19601f820116820180604052508101906105919190611755565b6040516360e70e6f60e11b8152600481018590529091506000906001600160a01b037f0000000000000000000000000000000000000000000000000000000000000000169063c1ce1cde90602401600060405180830381865afa1580156105fc573d6000803e3d6000fd5b505050506040513d6000823e601f3d908101601f19168201604052610624919081019061184d565b60405163345cb23760e11b815260048101879052909250600091506001600160a01b037f000000000000000000000000000000000000000000000000000000000000000016906368b9646e90602401600060405180830381865afa158015610690573d6000803e3d6000fd5b505050506040513d6000823e601f3d908101601f191682016040526106b891908101906116ab565b6040516373a19db760e11b8152600481018790529091506000906001600160a01b037f0000000000000000000000000000000000000000000000000000000000000000169063e7433b6e90602401600060405180830381865afa158015610723573d6000803e3d6000fd5b505050506040513d6000823e601f3d908101601f1916820160405261074b91908101906116ab565b9050600081516001600160401b038111156107685761076861137e565b6040519080825280602002602001820160405280156107a157816020015b61078e610e66565b8152602001906001900390816107865790505b50905060005b8251811015610b4e5760008382815181106107c4576107c4611600565b6020026020010151905060007f00000000000000000000000000000000000000000000000000000000000000006001600160a01b031663ad8054828b846040518363ffffffff1660e01b8152600401610827929190918252602082015260400190565b600060405180830381865afa158015610844573d6000803e3d6000fd5b505050506040513d6000823e601f3d908101601f1916820160405261086c91908101906116ab565b516001600160401b038111156108845761088461137e565b6040519080825280602002602001820160405280156108c957816020015b60408051808201909152600080825260208201528152602001906001900390816108a25790505b50905060005b8151811015610a6f576040516356c02a4160e11b8152600481018c9052602481018490526000907f00000000000000000000000000000000000000000000000000000000000000006001600160a01b03169063ad80548290604401600060405180830381865afa158015610947573d6000803e3d6000fd5b505050506040513d6000823e601f3d908101601f1916820160405261096f91908101906116ab565b828151811061098057610980611600565b6020026020010151905060405180604001604052808281526020017f00000000000000000000000000000000000000000000000000000000000000006001600160a01b03166320d8005a8f88866040518463ffffffff1660e01b81526004016109fc939291909283526020830191909152604082015260600190565b602060405180830381865afa158015610a19573d6000803e3d6000fd5b505050506040513d601f19601f82011682018060405250810190610a3d9190611893565b815250838381518110610a5257610a52611600565b60200260200101819052505080610a689061162c565b90506108cf565b506040805160608101825283815290516317192c2960e01b8152600481018c90526024810184905260208201906001600160a01b037f000000000000000000000000000000000000000000000000000000000000000016906317192c2990604401600060405180830381865afa158015610aed573d6000803e3d6000fd5b505050506040513d6000823e601f3d908101601f19168201604052610b15919081019061190f565b815260200182815250848481518110610b3057610b30611600565b6020026020010181905250505080610b479061162c565b90506107a7565b506040518060a00160405280888152602001868152602001858760c00151610b7691906119ae565b81526020018281526020018481525095505050505050919050565b6060816001600160401b03811115610bab57610bab61137e565b604051908082528060200260200182016040528015610be457816020015b610bd1610ddd565b815260200190600190039081610bc95790505b50905060005b82811015610c4157610c13848483818110610c0757610c07611600565b90506020020135610c48565b828281518110610c2557610c25611600565b602002602001018190525080610c3a9061162c565b9050610bea565b5092915050565b610c50610ddd565b60405163789e235560e11b8152600481018390526000907f00000000000000000000000000000000000000000000000000000000000000006001600160a01b03169063f13c46aa90602401600060405180830381865afa158015610cb8573d6000803e3d6000fd5b505050506040513d6000823e601f3d908101601f19168201604052610ce091908101906119c7565b90506000610cf182606001516104fc565b604080516060810182529586526020860193909352918401919091525090919050565b6040518060a0016040528060008152602001610dc2604080516101e08101825260008082526020808301829052828401829052606083018290528351808501909452818452830152906080820190815260200160001515815260200160008152602001600081526020016000815260200160008152602001600081526020016000815260200160006001600160a01b0316815260200160006001600160a01b03168152602001600081525090565b81526020016000815260200160608152602001606081525090565b6040805160608082018352600080835283516101a08101855281815260208082018390528186018390528184018390526080820183905260a0820183905260c0820183905260e08201839052610100820183905261012082018390526101408201839052610160820192909252610180810192909252820152908101610e61610d14565b905290565b604051806060016040528060008019168152602001610eab604051806060016040528060006001600160a01b0316815260200160008019168152602001606081525090565b8152602001606081525090565b6001600160a01b0381168114610ecd57600080fd5b50565b600060208284031215610ee257600080fd5b8135610eed81610eb8565b9392505050565b60005b83811015610f0f578181015183820152602001610ef7565b50506000910152565b60008151808452610f30816020860160208601610ef4565b601f01601f19169290920160200192915050565b6000815180845260208085019450848260051b86018286016000805b8681101561100e578484038a5282518051855286810151606088870181905281516001600160a01b03168188015281890151608088015260409182015160a088018290529091610fb360c0890183610f18565b93810151888503898301528051808652908b01948794508b0192505b80841015610ff8578451805184528b01518b840152938a01936001939093019291810191610fcf565b50509b88019b9550505091850191600101610f60565b509198975050505050505050565b600081518084526020808501945080840160005b8381101561104c57815187529582019590820190600101611030565b509495945050505050565b600061028082518452602083015161107b6020860182516001600160a01b03169052565b60208101516001600160a01b03811660408701525060408101516001600160a01b0381166060870152506060810151608086015260808101516110cb60a087018280518252602090810151910152565b5060a081015180151560e08701525060c08101516101008681019190915260e082015161012080880191909152908201516101408088019190915290820151610160808801919091529082015161018080880191909152908201516101a08088019190915290820151906101c09061114d828901846001600160a01b03169052565b8301516001600160a01b03166101e0880152909101516102008601525060408301516102208501526060830151610240850182905261118e82860182610f44565b91505060808301518482036102608601526111a9828261101c565b95945050505050565b6000602080830181845280855180835260408601915060408160051b870101925083870160005b8281101561120757603f198886030184526111f5858351611057565b945092850192908501906001016111d9565b5092979650505050505050565b80518252600060208201516060602085015261123c6060850182516001600160a01b03169052565b60208101516001600160a01b03811660808601525060408101516001600160a01b03811660a086015250606081015160c0850152608081015160e085015260a0810151610100818187015260c08301519150610120828188015260e0840151925061014083818901528285015193506101609250838389015281850151935061018091506112d4828901856001600160a01b03169052565b8401516101a088810191909152918401516001600160a01b03166101c0880152909201516101e086019290925250611310610200850182610f18565b9050604083015184820360408601526111a98282611057565b6000602080830181845280855180835260408601915060408160051b870101925083870160005b8281101561120757603f1988860301845261136c858351611214565b94509285019290850190600101611350565b634e487b7160e01b600052604160045260246000fd5b6040516101e081016001600160401b03811182821017156113b7576113b761137e565b60405290565b6040516101a081016001600160401b03811182821017156113b7576113b761137e565b604051601f8201601f191681016001600160401b03811182821017156114085761140861137e565b604052919050565b60006001600160401b038211156114295761142961137e565b5060051b60200190565b6000602080838503121561144657600080fd5b82356001600160401b0381111561145c57600080fd5b8301601f8101851361146d57600080fd5b803561148061147b82611410565b6113e0565b81815260059190911b8201830190838101908783111561149f57600080fd5b928401925b828410156114bd578335825292840192908401906114a4565b979650505050505050565b6000602082840312156114da57600080fd5b5035919050565b602081526000610eed6020830184611057565b6000806020838503121561150757600080fd5b82356001600160401b038082111561151e57600080fd5b818501915085601f83011261153257600080fd5b81358181111561154157600080fd5b8660208260051b850101111561155657600080fd5b60209290920196919550909350505050565b602081526000610eed6020830184611214565b6000602080838503121561158e57600080fd5b82516001600160401b038111156115a457600080fd5b8301601f810185136115b557600080fd5b80516115c361147b82611410565b81815260059190911b820183019083810190878311156115e257600080fd5b928401925b828410156114bd578351825292840192908401906115e7565b634e487b7160e01b600052603260045260246000fd5b634e487b7160e01b600052601160045260246000fd5b60006001820161163e5761163e611616565b5060010190565b600082601f83011261165657600080fd5b8151602061166661147b83611410565b82815260059290921b8401810191818101908684111561168557600080fd5b8286015b848110156116a05780518352918301918301611689565b509695505050505050565b6000602082840312156116bd57600080fd5b81516001600160401b038111156116d357600080fd5b6116df84828501611645565b949350505050565b80516116f281610eb8565b919050565b60006040828403121561170957600080fd5b604051604081018181106001600160401b038211171561172b5761172b61137e565b604052825181526020928301519281019290925250919050565b805180151581146116f257600080fd5b6000610200828403121561176857600080fd5b611770611394565b611779836116e7565b8152611787602084016116e7565b6020820152611798604084016116e7565b6040820152606083015160608201526117b484608085016116f7565b60808201526117c560c08401611745565b60a082015260e083015160c08201526101008084015160e083015261012080850151828401526101409150818501518184015250610160808501518284015261018091508185015181840152506101a06118208186016116e7565b828401526101c091506118348286016116e7565b908301526101e093909301519281019290925250919050565b6000806040838503121561186057600080fd5b82516001600160401b0381111561187657600080fd5b61188285828601611645565b925050602083015190509250929050565b6000602082840312156118a557600080fd5b5051919050565b600082601f8301126118bd57600080fd5b81516001600160401b038111156118d6576118d661137e565b6118e9601f8201601f19166020016113e0565b8181528460208386010111156118fe57600080fd5b6116df826020830160208701610ef4565b60006020828403121561192157600080fd5b81516001600160401b038082111561193857600080fd5b908301906060828603121561194c57600080fd5b6040516060810181811083821117156119675761196761137e565b604052825161197581610eb8565b81526020838101519082015260408301518281111561199357600080fd5b61199f878286016118ac565b60408301525095945050505050565b808201808211156119c1576119c1611616565b92915050565b6000602082840312156119d957600080fd5b81516001600160401b03808211156119f057600080fd5b908301906101a08286031215611a0557600080fd5b611a0d6113bd565b611a16836116e7565b8152611a24602084016116e7565b6020820152611a35604084016116e7565b6040820152606083015160608201526080830151608082015260a083015160a082015260c083015160c082015260e083015160e0820152610100808401518183015250610120611a868185016116e7565b908201526101408381015190820152610160611aa38185016116e7565b908201526101808381015183811115611abb57600080fd5b611ac7888287016118ac565b91830191909152509594505050505056fea264697066735822122093d71cf9199a3fe4c908505f3b5f5598ab66517d2496886f0ebd763f74941e2764736f6c63430008120033",
  "devdoc": {
    "kind": "dev",
    "methods": {
      "getAccountDeposits(address)": {
        "params": {
          "_account": "The account address."
        },
        "returns": {
          "depositArray": "Array of DepositView structs."
        }
      },
      "getAccountIntents(address)": {
        "params": {
          "_account": "The account address."
        },
        "returns": {
          "intentViews": "Array of IntentView structs."
        }
      },
      "getDeposit(uint256)": {
        "params": {
          "_depositId": "The ID of the deposit."
        },
        "returns": {
          "depositView": "The DepositView struct."
        }
      },
      "getDepositFromIds(uint256[])": {
        "params": {
          "_depositIds": "Array of deposit IDs."
        },
        "returns": {
          "depositArray": "Array of DepositView structs."
        }
      },
      "getIntent(bytes32)": {
        "params": {
          "_intentHash": "The hash of the intent."
        },
        "returns": {
          "intentView": "The IntentView struct."
        }
      },
      "getIntents(bytes32[])": {
        "params": {
          "_intentHashes": "Array of intent hashes."
        },
        "returns": {
          "intentArray": "Array of IntentView structs."
        }
      }
    },
    "version": 1
  },
  "userdoc": {
    "kind": "user",
    "methods": {
      "getAccountDeposits(address)": {
        "notice": "Gets all deposits for a specific account."
      },
      "getAccountIntents(address)": {
        "notice": "Gets the active intents for a specific account."
      },
      "getDeposit(uint256)": {
        "notice": "Gets details for a single deposit."
      },
      "getDepositFromIds(uint256[])": {
        "notice": "Gets deposit details for a list of deposit IDs."
      },
      "getIntent(bytes32)": {
        "notice": "Gets details for a single intent."
      },
      "getIntents(bytes32[])": {
        "notice": "Gets details for a list of intent hashes."
      }
    },
    "version": 1
  },
  "storageLayout": {
    "storage": [],
    "types": null
  }
}