{
  "address": "0x83ff2FE3E2AF8B5eC8b35b0127047B338B02ccc0",
  "abi": [
    {
      "inputs": [
        {
          "internalType": "address",
          "name": "_escrow",
          "type": "address"
        },
        {
          "internalType": "contract INullifierRegistry",
          "name": "_nullifierRegistry",
          "type": "address"
        },
        {
          "internalType": "contract IAttestationVerifier",
          "name": "_attestationVerifier",
          "type": "address"
        }
      ],
      "stateMutability": "nonpayable",
      "type": "constructor"
    },
    {
      "anonymous": false,
      "inputs": [
        {
          "indexed": true,
          "internalType": "address",
          "name": "oldVerifier",
          "type": "address"
        },
        {
          "indexed": true,
          "internalType": "address",
          "name": "newVerifier",
          "type": "address"
        }
      ],
      "name": "AttestationVerifierUpdated",
      "type": "event"
    },
    {
      "anonymous": false,
      "inputs": [
        {
          "indexed": true,
          "internalType": "address",
          "name": "previousOwner",
          "type": "address"
        },
        {
          "indexed": true,
          "internalType": "address",
          "name": "newOwner",
          "type": "address"
        }
      ],
      "name": "OwnershipTransferred",
      "type": "event"
    },
    {
      "anonymous": false,
      "inputs": [
        {
          "indexed": true,
          "internalType": "bytes32",
          "name": "paymentMethod",
          "type": "bytes32"
        },
        {
          "indexed": false,
          "internalType": "uint256",
          "name": "timestampBuffer",
          "type": "uint256"
        }
      ],
      "name": "PaymentMethodAdded",
      "type": "event"
    },
    {
      "anonymous": false,
      "inputs": [
        {
          "indexed": true,
          "internalType": "bytes32",
          "name": "paymentMethod",
          "type": "bytes32"
        }
      ],
      "name": "PaymentMethodRemoved",
      "type": "event"
    },
    {
      "anonymous": false,
      "inputs": [
        {
          "indexed": true,
          "internalType": "bytes32",
          "name": "paymentMethod",
          "type": "bytes32"
        },
        {
          "indexed": false,
          "internalType": "uint256",
          "name": "oldBuffer",
          "type": "uint256"
        },
        {
          "indexed": false,
          "internalType": "uint256",
          "name": "newBuffer",
          "type": "uint256"
        }
      ],
      "name": "TimestampBufferUpdated",
      "type": "event"
    },
    {
      "inputs": [],
      "name": "DOMAIN_SEPARATOR",
      "outputs": [
        {
          "internalType": "bytes32",
          "name": "",
          "type": "bytes32"
        }
      ],
      "stateMutability": "view",
      "type": "function"
    },
    {
      "inputs": [
        {
          "internalType": "bytes32",
          "name": "_paymentMethod",
          "type": "bytes32"
        },
        {
          "internalType": "uint256",
          "name": "_timestampBuffer",
          "type": "uint256"
        }
      ],
      "name": "addPaymentMethod",
      "outputs": [],
      "stateMutability": "nonpayable",
      "type": "function"
    },
    {
      "inputs": [],
      "name": "attestationVerifier",
      "outputs": [
        {
          "internalType": "contract IAttestationVerifier",
          "name": "",
          "type": "address"
        }
      ],
      "stateMutability": "view",
      "type": "function"
    },
    {
      "inputs": [],
      "name": "getPaymentMethods",
      "outputs": [
        {
          "internalType": "bytes32[]",
          "name": "",
          "type": "bytes32[]"
        }
      ],
      "stateMutability": "view",
      "type": "function"
    },
    {
      "inputs": [
        {
          "internalType": "bytes32",
          "name": "_paymentMethod",
          "type": "bytes32"
        }
      ],
      "name": "getTimestampBuffer",
      "outputs": [
        {
          "internalType": "uint256",
          "name": "",
          "type": "uint256"
        }
      ],
      "stateMutability": "view",
      "type": "function"
    },
    {
      "inputs": [],
      "name": "nullifierRegistry",
      "outputs": [
        {
          "internalType": "contract INullifierRegistry",
          "name": "",
          "type": "address"
        }
      ],
      "stateMutability": "view",
      "type": "function"
    },
    {
      "inputs": [],
      "name": "orchestrator",
      "outputs": [
        {
          "internalType": "address",
          "name": "",
          "type": "address"
        }
      ],
      "stateMutability": "view",
      "type": "function"
    },
    {
      "inputs": [],
      "name": "owner",
      "outputs": [
        {
          "internalType": "address",
          "name": "",
          "type": "address"
        }
      ],
      "stateMutability": "view",
      "type": "function"
    },
    {
      "inputs": [
        {
          "internalType": "uint256",
          "name": "",
          "type": "uint256"
        }
      ],
      "name": "paymentMethods",
      "outputs": [
        {
          "internalType": "bytes32",
          "name": "",
          "type": "bytes32"
        }
      ],
      "stateMutability": "view",
      "type": "function"
    },
    {
      "inputs": [
        {
          "internalType": "bytes32",
          "name": "_paymentMethod",
          "type": "bytes32"
        }
      ],
      "name": "removePaymentMethod",
      "outputs": [],
      "stateMutability": "nonpayable",
      "type": "function"
    },
    {
      "inputs": [],
      "name": "renounceOwnership",
      "outputs": [],
      "stateMutability": "nonpayable",
      "type": "function"
    },
    {
      "inputs": [
        {
          "internalType": "address",
          "name": "_newVerifier",
          "type": "address"
        }
      ],
      "name": "setAttestationVerifier",
      "outputs": [],
      "stateMutability": "nonpayable",
      "type": "function"
    },
    {
      "inputs": [
        {
          "internalType": "bytes32",
          "name": "_paymentMethod",
          "type": "bytes32"
        },
        {
          "internalType": "uint256",
          "name": "_newTimestampBuffer",
          "type": "uint256"
        }
      ],
      "name": "setTimestampBuffer",
      "outputs": [],
      "stateMutability": "nonpayable",
      "type": "function"
    },
    {
      "inputs": [
        {
          "internalType": "bytes32",
          "name": "",
          "type": "bytes32"
        }
      ],
      "name": "store",
      "outputs": [
        {
          "internalType": "bool",
          "name": "initialized",
          "type": "bool"
        },
        {
          "internalType": "uint256",
          "name": "timestampBuffer",
          "type": "uint256"
        }
      ],
      "stateMutability": "view",
      "type": "function"
    },
    {
      "inputs": [
        {
          "internalType": "address",
          "name": "newOwner",
          "type": "address"
        }
      ],
      "name": "transferOwnership",
      "outputs": [],
      "stateMutability": "nonpayable",
      "type": "function"
    },
    {
      "inputs": [
        {
          "components": [
            {
              "internalType": "bytes",
              "name": "paymentProof",
              "type": "bytes"
            },
            {
              "internalType": "address",
              "name": "depositToken",
              "type": "address"
            },
            {
              "internalType": "uint256",
              "name": "intentAmount",
              "type": "uint256"
            },
            {
              "internalType": "uint256",
              "name": "intentTimestamp",
              "type": "uint256"
            },
            {
              "internalType": "bytes32",
              "name": "payeeDetails",
              "type": "bytes32"
            },
            {
              "internalType": "bytes32",
              "name": "fiatCurrency",
              "type": "bytes32"
            },
            {
              "internalType": "uint256",
              "name": "conversionRate",
              "type": "uint256"
            },
            {
              "internalType": "bytes",
              "name": "depositData",
              "type": "bytes"
            },
            {
              "internalType": "bytes",
              "name": "data",
              "type": "bytes"
            }
          ],
          "internalType": "struct IPaymentVerifier.VerifyPaymentData",
          "name": "_verifyPaymentData",
          "type": "tuple"
        }
      ],
      "name": "verifyPayment",
      "outputs": [
        {
          "components": [
            {
              "internalType": "bool",
              "name": "success",
              "type": "bool"
            },
            {
              "internalType": "bytes32",
              "name": "intentHash",
              "type": "bytes32"
            },
            {
              "internalType": "uint256",
              "name": "releaseAmount",
              "type": "uint256"
            }
          ],
          "internalType": "struct IPaymentVerifier.PaymentVerificationResult",
          "name": "result",
          "type": "tuple"
        }
      ],
      "stateMutability": "nonpayable",
      "type": "function"
    }
  ],
  "transactionHash": "0x03c5ede07b0bef8c0b9595ae94839e9ecd3bd85aec99969c292693c7834e941f",
  "args": [
    "0xBcD7C6BBcA5869fBefe3E322263EE1090221D7A9",
    "0x5eC9a353d4a1a8F2e986CfDDDA94Eb522F0BC630",
    "0x399487A5e602Af42a87043E77fFC408d072C41C9"
  ],
  "numDeployments": 1,
  "solcInputHash": "73a5a237276dc099a7ab1b467260e580",
  "bytecode": "0x60e06040523480156200001157600080fd5b50604051620018b7380380620018b78339810160408190526200003491620001cf565b828282620000423362000166565b6001600160a01b03928316608090815291831660a0908152600180546001600160a01b03191692909416919091178355604080518082018252601681527f556e69666965645061796d656e7456657269666965720000000000000000000060209182015281518083018352948552603160f81b9481019490945280517f8b73c3c69bb8fe3d512ecc4cf759cc79239f7b179b0ffacaa9a75d522b39400f948101949094527f48801cbbd53d2e054850b7bc935ecce36286f21c085367c2fb803f758141dd3a908401527fc89efdaa54c0f20c7adf612882df0950f5a951637e0307cdcb4c672f298b8bc660608401524691830191909152309082015260c00160408051601f19818403018152919052805160209091012060c0525062000223915050565b600080546001600160a01b038381166001600160a01b0319831681178455604051919092169283917f8be0079c531659141344cd1fd0a4f28419497f9722a3daafe3b4186f6b6457e09190a35050565b6001600160a01b0381168114620001cc57600080fd5b50565b600080600060608486031215620001e557600080fd5b8351620001f281620001b6565b60208501519093506200020581620001b6565b60408501519092506200021881620001b6565b809150509250925092565b60805160a05160c0516116486200026f6000396000818161011f0152610b9201526000818161026501528181610ef70152610fcd01526000818161023e015261071901526116486000f3fe608060405234801561001057600080fd5b50600436106101005760003560e01c80639309c05a11610097578063b870676c11610066578063b870676c14610260578063e0d17ba714610287578063e17f84c81461029a578063f2fde38b146102d157600080fd5b80639309c05a146101fe578063a1627cd014610211578063b4b3c5a014610226578063b74795d91461023957600080fd5b806382f6f608116100d357806382f6f608146101a05780638a3875ac146101b35780638b90cdc9146101c65780638da5cb5b146101d957600080fd5b8063334c2ef3146101055780633644e5151461011a578063654cf88c14610154578063715018a614610198575b600080fd5b610118610113366004611069565b6102e4565b005b6101417f000000000000000000000000000000000000000000000000000000000000000081565b6040519081526020015b60405180910390f35b610181610162366004611069565b6003602052600090815260409020805460019091015460ff9091169082565b60408051921515835260208301919091520161014b565b610118610376565b6101186101ae366004611082565b61038a565b6101186101c13660046110b2565b6104a0565b6101416101d4366004611069565b6105a5565b6000546001600160a01b03165b6040516001600160a01b03909116815260200161014b565b61011861020c3660046110b2565b6105c6565b610219610655565b60405161014b91906110d4565b6001546101e6906001600160a01b031681565b6101e67f000000000000000000000000000000000000000000000000000000000000000081565b6101e67f000000000000000000000000000000000000000000000000000000000000000081565b610141610295366004611069565b6106ad565b6102ad6102a8366004611118565b6106f1565b6040805182511515815260208084015190820152918101519082015260600161014b565b6101186102df366004611082565b610846565b6102ec6108bf565b60008181526003602052604090205460ff166103235760405162461bcd60e51b815260040161031a90611154565b60405180910390fd5b6000818152600360205260408120805460ff1916815560010155610348600282610919565b60405181907f0c831f94d9f98b9753b9607b5f1d9b1758d364178abe6e854ee65e97519c576490600090a250565b61037e6108bf565b6103886000610a42565b565b6103926108bf565b6001546001600160a01b039081169082166103f95760405162461bcd60e51b815260206004820152602160248201527f5550563a20496e76616c6964206174746573746174696f6e20766572696669656044820152603960f91b606482015260840161031a565b806001600160a01b0316826001600160a01b03160361044f5760405162461bcd60e51b81526020600482015260126024820152712aa82b1d1029b0b6b2903b32b934b334b2b960711b604482015260640161031a565b600180546001600160a01b0319166001600160a01b0384811691821790925560405190918316907f85c440731cd72afaddddb00cf34bebcc2b6d46def5a034a30baef899583e3d1590600090a35050565b6104a86108bf565b60008281526003602052604090205460ff16156105125760405162461bcd60e51b815260206004820152602260248201527f5550563a205061796d656e74206d6574686f6420616c72656164792065786973604482015261747360f01b606482015260840161031a565b600082815260036020526040808220805460ff1916600190811782559081018490556002805491820181559092527f405787fa12a823e0f2b7631cc41b3ba8828b3321ca811111fa75cd3aa3bb5ace9091018390555182907f5454200739d03e8f7e5f27bfe82bf76ccd41bfff20d0a23b6841a90ddd7f3295906105999084815260200190565b60405180910390a25050565b600281815481106105b557600080fd5b600091825260209091200154905081565b6105ce6108bf565b60008281526003602052604090205460ff166105fc5760405162461bcd60e51b815260040161031a90611154565b60008281526003602090815260409182902060010180549084905582518181529182018490529184917f622fd8ca2a8a1c894e0680d1147442d25bef0c84d41c9e72b76174c02b3b546e910160405180910390a2505050565b606060028054806020026020016040519081016040528092919081815260200182805480156106a357602002820191906000526020600020905b81548152602001906001019080831161068f575b5050505050905090565b60008181526003602052604081205460ff166106db5760405162461bcd60e51b815260040161031a90611154565b5060009081526003602052604090206001015490565b6040805160608101825260008082526020820181905291810191909152336001600160a01b037f000000000000000000000000000000000000000000000000000000000000000016146107865760405162461bcd60e51b815260206004820152601a60248201527f4f6e6c79206f7263686573747261746f722063616e2063616c6c000000000000604482015260640161031a565b60006107928380611196565b81019061079f9190611365565b905060006107b08260000151610a92565b905060006107be8386610ac1565b90508061080d5760405162461bcd60e51b815260206004820152601f60248201527f5550563a20496e76616c6964207769746e657373207369676e61747572657300604482015260640161031a565b606083015161081d818488610ce9565b61082f84600001518260600151610def565b61083a868583610e25565b9450505050505b919050565b61084e6108bf565b6001600160a01b0381166108b35760405162461bcd60e51b815260206004820152602660248201527f4f776e61626c653a206e6577206f776e657220697320746865207a65726f206160448201526564647265737360d01b606482015260840161031a565b6108bc81610a42565b50565b6000546001600160a01b031633146103885760405162461bcd60e51b815260206004820181905260248201527f4f776e61626c653a2063616c6c6572206973206e6f7420746865206f776e6572604482015260640161031a565b6000806109758480548060200260200160405190810160405280929190818152602001828054801561096a57602002820191906000526020600020905b815481526020019060010190808311610956575b505050505084610e7e565b91509150806109be5760405162461bcd60e51b8152602060048201526015602482015274313cba32b99999103737ba1034b71030b93930bc9760591b604482015260640161031a565b83546000906109cf90600190611464565b9050808314610a14578481815481106109ea576109ea611477565b9060005260206000200154858481548110610a0757610a07611477565b6000918252602090912001555b84805480610a2457610a2461148d565b60019003818190600052602060002001600090559055505b50505050565b600080546001600160a01b038381166001600160a01b0319831681178455604051919092169283917f8be0079c531659141344cd1fd0a4f28419497f9722a3daafe3b4186f6b6457e09190a35050565b6000818152600360205260409020805460ff166108415760405162461bcd60e51b815260040161031a90611154565b8151602080840151604080860151606080880151805181870151828601519383015160809093015160a08c0151965160009a8b9a610b6e9a7fac235c815dafaa4778c72f689438a2b3ce98b64215081eb41da0ac1656982a929a9299909890979094909390929101998a5260208a019890985260408901969096526060880194909452608087019290925260a086015260c085015260e08401526101008301526101208201526101400190565b60408051808303601f19018152828252805160209182012061190160f01b828501527f000000000000000000000000000000000000000000000000000000000000000060228501526042808501829052835180860390910181526062909401909252825192019190912060a086015191925090610bef610100860186611196565b604051610bfd9291906114a3565b604051809103902014610c525760405162461bcd60e51b815260206004820152601760248201527f5550563a20446174612068617368206d69736d61746368000000000000000000604482015260640161031a565b60015460808601516000916001600160a01b03169063522ebb00908490610c7d6101008a018a611196565b6040518563ffffffff1660e01b8152600401610c9c94939291906114dc565b602060405180830381865afa158015610cb9573d6000803e3d6000fd5b505050506040513d601f19601f82011682018060405250810190610cdd919061158b565b93505050505b92915050565b8251608082013514610d335760405162461bcd60e51b81526020600482015260136024820152720aaa0ac7440a0c2f2caca40dad2e6dac2e8c6d606b1b604482015260640161031a565b8060a00135836080015114610d835760405162461bcd60e51b81526020600482015260166024820152750aaa0ac744086eae4e4cadcc6f240dad2e6dac2e8c6d60531b604482015260640161031a565b600082600101548460400151610d9991906115ad565b90508160600135811015610a3c5760405162461bcd60e51b815260206004820152601a60248201527f5550563a205061796d656e74206265666f726520696e74656e74000000000000604482015260640161031a565b60408051602080820185905281830184905282518083038401815260609092019092528051910120610e2081610ee1565b505050565b60408051606081018252600080825260208201819052918101919091526000610e5b83602001518660c001358760400135611034565b604080516060810182526001815295810151602087015285015250919392505050565b81516000908190815b81811015610ece5784868281518110610ea257610ea2611477565b602002602001015103610ebc57925060019150610eda9050565b80610ec6816115c0565b915050610e87565b50600019600092509250505b9250929050565b60405163169394bb60e01b8152600481018290527f00000000000000000000000000000000000000000000000000000000000000006001600160a01b03169063169394bb90602401602060405180830381865afa158015610f46573d6000803e3d6000fd5b505050506040513d601f19601f82011682018060405250810190610f6a919061158b565b15610fb75760405162461bcd60e51b815260206004820152601f60248201527f4e756c6c69666965722068617320616c7265616479206265656e207573656400604482015260640161031a565b604051632dea6f9960e11b8152600481018290527f00000000000000000000000000000000000000000000000000000000000000006001600160a01b031690635bd4df3290602401600060405180830381600087803b15801561101957600080fd5b505af115801561102d573d6000803e3d6000fd5b5050505050565b6000808361104a670de0b6b3a7640000876115d9565b61105491906115f0565b9050828111156110615750815b949350505050565b60006020828403121561107b57600080fd5b5035919050565b60006020828403121561109457600080fd5b81356001600160a01b03811681146110ab57600080fd5b9392505050565b600080604083850312156110c557600080fd5b50508035926020909101359150565b6020808252825182820181905260009190848201906040850190845b8181101561110c578351835292840192918401916001016110f0565b50909695505050505050565b60006020828403121561112a57600080fd5b813567ffffffffffffffff81111561114157600080fd5b820161012081850312156110ab57600080fd5b60208082526022908201527f5550563a205061796d656e74206d6574686f6420646f6573206e6f74206578696040820152611cdd60f21b606082015260800190565b6000808335601e198436030181126111ad57600080fd5b83018035915067ffffffffffffffff8211156111c857600080fd5b602001915036819003821315610eda57600080fd5b634e487b7160e01b600052604160045260246000fd5b60405160c0810167ffffffffffffffff81118282101715611216576112166111dd565b60405290565b60405160a0810167ffffffffffffffff81118282101715611216576112166111dd565b604051601f8201601f1916810167ffffffffffffffff81118282101715611268576112686111dd565b604052919050565b6000601f838184011261128257600080fd5b8235602067ffffffffffffffff8083111561129f5761129f6111dd565b8260051b6112ae83820161123f565b93845286810183019383810190898611156112c857600080fd5b84890192505b85831015611358578235848111156112e65760008081fd5b8901603f81018b136112f85760008081fd5b8581013560408682111561130e5761130e6111dd565b61131f828b01601f1916890161123f565b8281528d828486010111156113345760008081fd5b828285018a83013760009281018901929092525083525091840191908401906112ce565b9998505050505050505050565b60006020828403121561137757600080fd5b813567ffffffffffffffff8082111561138f57600080fd5b908301908185036101408112156113a557600080fd5b6113ad6111f3565b83358152602084013560208201526040840135604082015260a0605f19830112156113d757600080fd5b6113df61121c565b6060858101358252608080870135602084015260a0870135604084015260c08701358284015260e08701359083015282015261010084013591508282111561142657600080fd5b61143287838601611270565b6080820152610120939093013560a08401525090949350505050565b634e487b7160e01b600052601160045260246000fd5b81810381811115610ce357610ce361144e565b634e487b7160e01b600052603260045260246000fd5b634e487b7160e01b600052603160045260246000fd5b8183823760009101908152919050565b81835281816020850137506000828201602090810191909152601f909101601f19169091010190565b600060608201868352602060608185015281875180845260808601915060808160051b87010193508289016000805b8381101561156757888703607f1901855282518051808952835b81811015611540578281018901518a82018a01528801611525565b508881018801849052601f01601f191690970186019650938501939185019160010161150b565b50505050505082810360408401526115808185876114b3565b979650505050505050565b60006020828403121561159d57600080fd5b815180151581146110ab57600080fd5b80820180821115610ce357610ce361144e565b6000600182016115d2576115d261144e565b5060010190565b8082028115828204841417610ce357610ce361144e565b60008261160d57634e487b7160e01b600052601260045260246000fd5b50049056fea2646970667358221220f3b2ffa5563e3f897a6ce74787b5856ad7db478e2056569a5a44cebe3eb4ab9764736f6c63430008120033",
  "devdoc": {
    "details": "The payment attestation should be signed using the EIP-712 standard",
    "kind": "dev",
    "methods": {
      "addPaymentMethod(bytes32,uint256)": {
        "params": {
          "_paymentMethod": "The payment method hash; Hash the payment method name in lowercase",
          "_timestampBuffer": "Payment method-specific timestamp buffer in seconds"
        }
      },
      "owner()": {
        "details": "Returns the address of the current owner."
      },
      "removePaymentMethod(bytes32)": {
        "details": "Only callable by owner",
        "params": {
          "_paymentMethod": "The payment method to remove"
        }
      },
      "renounceOwnership()": {
        "details": "Leaves the contract without owner. It will not be possible to call `onlyOwner` functions. Can only be called by the current owner. NOTE: Renouncing ownership will leave the contract without an owner, thereby disabling any functionality that is only available to the owner."
      },
      "setAttestationVerifier(address)": {
        "details": "Only callable by owner",
        "params": {
          "_newVerifier": "The new attestation verifier address"
        }
      },
      "setTimestampBuffer(bytes32,uint256)": {
        "params": {
          "_newTimestampBuffer": "The new timestamp buffer in seconds",
          "_paymentMethod": "The payment method hash"
        }
      },
      "transferOwnership(address)": {
        "details": "Transfers ownership of the contract to a new account (`newOwner`). Can only be called by the current owner."
      },
      "verifyPayment((bytes,address,uint256,uint256,bytes32,bytes32,uint256,bytes,bytes))": {
        "params": {
          "_verifyPaymentData": "Payment proof and intent details required for verification"
        },
        "returns": {
          "result": "The payment verification result containing success status, intent hash, release amount,  payment currency and payment ID"
        }
      }
    },
    "title": "UnifiedPaymentVerifier",
    "version": 1
  },
  "userdoc": {
    "kind": "user",
    "methods": {
      "addPaymentMethod(bytes32,uint256)": {
        "notice": "ONLY OWNER: Adds a new payment method with timestamp buffer"
      },
      "removePaymentMethod(bytes32)": {
        "notice": "ONLY OWNER: Removes a payment method and associated configuration"
      },
      "setAttestationVerifier(address)": {
        "notice": "Updates the attestation verifier contract"
      },
      "setTimestampBuffer(bytes32,uint256)": {
        "notice": "Updates the timestamp buffer for a payment method"
      },
      "verifyPayment((bytes,address,uint256,uint256,bytes32,bytes32,uint256,bytes,bytes))": {
        "notice": "ONLY ORCHESTRATOR: Verifies a standardized payment attestation generated by the attestation service. "
      }
    },
    "notice": "Verifies payment proofs for multiple payment methods. This is a unified verifier that  replaces individual payment verifiers (VenmoVerifier, PayPalVerifier, etc.) with a single  configurable contract.  Key features: - Supports multiple payment methods, each with custom configuration - Uses AttestationVerifier to validate off-chain zkTLS proofs and transformations - Ensures trust anchor integrity for off-chain verification processes - Verifies standardized payment details against provided data",
    "version": 1
  },
  "storageLayout": {
    "storage": [
      {
        "astId": 7,
        "contract": "contracts/unifiedVerifier/UnifiedPaymentVerifier.sol:UnifiedPaymentVerifier",
        "label": "_owner",
        "offset": 0,
        "slot": "0",
        "type": "t_address"
      },
      {
        "astId": 12311,
        "contract": "contracts/unifiedVerifier/UnifiedPaymentVerifier.sol:UnifiedPaymentVerifier",
        "label": "attestationVerifier",
        "offset": 0,
        "slot": "1",
        "type": "t_contract(IAttestationVerifier)9304"
      },
      {
        "astId": 12314,
        "contract": "contracts/unifiedVerifier/UnifiedPaymentVerifier.sol:UnifiedPaymentVerifier",
        "label": "paymentMethods",
        "offset": 0,
        "slot": "2",
        "type": "t_array(t_bytes32)dyn_storage"
      },
      {
        "astId": 12319,
        "contract": "contracts/unifiedVerifier/UnifiedPaymentVerifier.sol:UnifiedPaymentVerifier",
        "label": "store",
        "offset": 0,
        "slot": "3",
        "type": "t_mapping(t_bytes32,t_struct(PaymentMethodStore)12279_storage)"
      }
    ],
    "types": {
      "t_address": {
        "encoding": "inplace",
        "label": "address",
        "numberOfBytes": "20"
      },
      "t_array(t_bytes32)dyn_storage": {
        "base": "t_bytes32",
        "encoding": "dynamic_array",
        "label": "bytes32[]",
        "numberOfBytes": "32"
      },
      "t_bool": {
        "encoding": "inplace",
        "label": "bool",
        "numberOfBytes": "1"
      },
      "t_bytes32": {
        "encoding": "inplace",
        "label": "bytes32",
        "numberOfBytes": "32"
      },
      "t_contract(IAttestationVerifier)9304": {
        "encoding": "inplace",
        "label": "contract IAttestationVerifier",
        "numberOfBytes": "20"
      },
      "t_mapping(t_bytes32,t_struct(PaymentMethodStore)12279_storage)": {
        "encoding": "mapping",
        "key": "t_bytes32",
        "label": "mapping(bytes32 => struct BaseUnifiedPaymentVerifier.PaymentMethodStore)",
        "numberOfBytes": "32",
        "value": "t_struct(PaymentMethodStore)12279_storage"
      },
      "t_struct(PaymentMethodStore)12279_storage": {
        "encoding": "inplace",
        "label": "struct BaseUnifiedPaymentVerifier.PaymentMethodStore",
        "members": [
          {
            "astId": 12276,
            "contract": "contracts/unifiedVerifier/UnifiedPaymentVerifier.sol:UnifiedPaymentVerifier",
            "label": "initialized",
            "offset": 0,
            "slot": "0",
            "type": "t_bool"
          },
          {
            "astId": 12278,
            "contract": "contracts/unifiedVerifier/UnifiedPaymentVerifier.sol:UnifiedPaymentVerifier",
            "label": "timestampBuffer",
            "offset": 0,
            "slot": "1",
            "type": "t_uint256"
          }
        ],
        "numberOfBytes": "64"
      },
      "t_uint256": {
        "encoding": "inplace",
        "label": "uint256",
        "numberOfBytes": "32"
      }
    }
  }
}