{
  "address": "0xA22aE87e99d614e6e04d787c67C609E24F223F6C",
  "abi": [
    {
      "inputs": [
        {
          "internalType": "contract IOrchestrator",
          "name": "_orchestrator",
          "type": "address"
        },
        {
          "internalType": "contract INullifierRegistry",
          "name": "_nullifierRegistry",
          "type": "address"
        },
        {
          "internalType": "contract IAttestationVerifier",
          "name": "_attestationVerifier",
          "type": "address"
        }
      ],
      "stateMutability": "nonpayable",
      "type": "constructor"
    },
    {
      "anonymous": false,
      "inputs": [
        {
          "indexed": true,
          "internalType": "address",
          "name": "oldVerifier",
          "type": "address"
        },
        {
          "indexed": true,
          "internalType": "address",
          "name": "newVerifier",
          "type": "address"
        }
      ],
      "name": "AttestationVerifierUpdated",
      "type": "event"
    },
    {
      "anonymous": false,
      "inputs": [
        {
          "indexed": true,
          "internalType": "address",
          "name": "previousOwner",
          "type": "address"
        },
        {
          "indexed": true,
          "internalType": "address",
          "name": "newOwner",
          "type": "address"
        }
      ],
      "name": "OwnershipTransferred",
      "type": "event"
    },
    {
      "anonymous": false,
      "inputs": [
        {
          "indexed": true,
          "internalType": "bytes32",
          "name": "paymentMethod",
          "type": "bytes32"
        }
      ],
      "name": "PaymentMethodAdded",
      "type": "event"
    },
    {
      "anonymous": false,
      "inputs": [
        {
          "indexed": true,
          "internalType": "bytes32",
          "name": "paymentMethod",
          "type": "bytes32"
        }
      ],
      "name": "PaymentMethodRemoved",
      "type": "event"
    },
    {
      "anonymous": false,
      "inputs": [
        {
          "indexed": true,
          "internalType": "bytes32",
          "name": "intentHash",
          "type": "bytes32"
        },
        {
          "indexed": true,
          "internalType": "bytes32",
          "name": "method",
          "type": "bytes32"
        },
        {
          "indexed": true,
          "internalType": "bytes32",
          "name": "currency",
          "type": "bytes32"
        },
        {
          "indexed": false,
          "internalType": "uint256",
          "name": "amount",
          "type": "uint256"
        },
        {
          "indexed": false,
          "internalType": "uint256",
          "name": "timestamp",
          "type": "uint256"
        },
        {
          "indexed": false,
          "internalType": "bytes32",
          "name": "paymentId",
          "type": "bytes32"
        },
        {
          "indexed": false,
          "internalType": "bytes32",
          "name": "payeeId",
          "type": "bytes32"
        }
      ],
      "name": "PaymentVerified",
      "type": "event"
    },
    {
      "inputs": [],
      "name": "DOMAIN_SEPARATOR",
      "outputs": [
        {
          "internalType": "bytes32",
          "name": "",
          "type": "bytes32"
        }
      ],
      "stateMutability": "view",
      "type": "function"
    },
    {
      "inputs": [
        {
          "internalType": "bytes32",
          "name": "_paymentMethod",
          "type": "bytes32"
        }
      ],
      "name": "addPaymentMethod",
      "outputs": [],
      "stateMutability": "nonpayable",
      "type": "function"
    },
    {
      "inputs": [],
      "name": "attestationVerifier",
      "outputs": [
        {
          "internalType": "contract IAttestationVerifier",
          "name": "",
          "type": "address"
        }
      ],
      "stateMutability": "view",
      "type": "function"
    },
    {
      "inputs": [],
      "name": "getPaymentMethods",
      "outputs": [
        {
          "internalType": "bytes32[]",
          "name": "",
          "type": "bytes32[]"
        }
      ],
      "stateMutability": "view",
      "type": "function"
    },
    {
      "inputs": [
        {
          "internalType": "bytes32",
          "name": "",
          "type": "bytes32"
        }
      ],
      "name": "isPaymentMethod",
      "outputs": [
        {
          "internalType": "bool",
          "name": "",
          "type": "bool"
        }
      ],
      "stateMutability": "view",
      "type": "function"
    },
    {
      "inputs": [],
      "name": "nullifierRegistry",
      "outputs": [
        {
          "internalType": "contract INullifierRegistry",
          "name": "",
          "type": "address"
        }
      ],
      "stateMutability": "view",
      "type": "function"
    },
    {
      "inputs": [],
      "name": "orchestrator",
      "outputs": [
        {
          "internalType": "contract IOrchestrator",
          "name": "",
          "type": "address"
        }
      ],
      "stateMutability": "view",
      "type": "function"
    },
    {
      "inputs": [],
      "name": "owner",
      "outputs": [
        {
          "internalType": "address",
          "name": "",
          "type": "address"
        }
      ],
      "stateMutability": "view",
      "type": "function"
    },
    {
      "inputs": [
        {
          "internalType": "uint256",
          "name": "",
          "type": "uint256"
        }
      ],
      "name": "paymentMethods",
      "outputs": [
        {
          "internalType": "bytes32",
          "name": "",
          "type": "bytes32"
        }
      ],
      "stateMutability": "view",
      "type": "function"
    },
    {
      "inputs": [
        {
          "internalType": "bytes32",
          "name": "_paymentMethod",
          "type": "bytes32"
        }
      ],
      "name": "removePaymentMethod",
      "outputs": [],
      "stateMutability": "nonpayable",
      "type": "function"
    },
    {
      "inputs": [],
      "name": "renounceOwnership",
      "outputs": [],
      "stateMutability": "nonpayable",
      "type": "function"
    },
    {
      "inputs": [
        {
          "internalType": "address",
          "name": "_newVerifier",
          "type": "address"
        }
      ],
      "name": "setAttestationVerifier",
      "outputs": [],
      "stateMutability": "nonpayable",
      "type": "function"
    },
    {
      "inputs": [
        {
          "internalType": "address",
          "name": "newOwner",
          "type": "address"
        }
      ],
      "name": "transferOwnership",
      "outputs": [],
      "stateMutability": "nonpayable",
      "type": "function"
    },
    {
      "inputs": [
        {
          "components": [
            {
              "internalType": "bytes32",
              "name": "intentHash",
              "type": "bytes32"
            },
            {
              "internalType": "bytes",
              "name": "paymentProof",
              "type": "bytes"
            },
            {
              "internalType": "bytes",
              "name": "data",
              "type": "bytes"
            }
          ],
          "internalType": "struct IPaymentVerifier.VerifyPaymentData",
          "name": "_verifyPaymentData",
          "type": "tuple"
        }
      ],
      "name": "verifyPayment",
      "outputs": [
        {
          "components": [
            {
              "internalType": "bool",
              "name": "success",
              "type": "bool"
            },
            {
              "internalType": "bytes32",
              "name": "intentHash",
              "type": "bytes32"
            },
            {
              "internalType": "uint256",
              "name": "releaseAmount",
              "type": "uint256"
            }
          ],
          "internalType": "struct IPaymentVerifier.PaymentVerificationResult",
          "name": "result",
          "type": "tuple"
        }
      ],
      "stateMutability": "nonpayable",
      "type": "function"
    }
  ],
  "transactionHash": "0xa7a0ce6229098951e453fd46db1d3af513d4b485361632e8c0cb342b837503d5",
  "args": [
    "0x7D563c65456deF11c1Fdb9510eB745D5a780F5Fd",
    "0xE0980FFdC868B69484C78A4B213E2C1Fa5AE70Cb",
    "0x2Db1d6E0d7711b2AaC2918FE84270CfF84958dfA"
  ],
  "numDeployments": 1,
  "solcInputHash": "366cc6acda7f902cd6fbd6493fd5cd50",
  "bytecode": "0x60e06040523480156200001157600080fd5b5060405162001d8738038062001d878339810160408190526200003491620001cf565b828282620000423362000166565b6001600160a01b03928316608090815291831660a0908152600180546001600160a01b03191692909416919091178355604080518082018252601681527f556e69666965645061796d656e7456657269666965720000000000000000000060209182015281518083018352948552603160f81b9481019490945280517f8b73c3c69bb8fe3d512ecc4cf759cc79239f7b179b0ffacaa9a75d522b39400f948101949094527f48801cbbd53d2e054850b7bc935ecce36286f21c085367c2fb803f758141dd3a908401527fc89efdaa54c0f20c7adf612882df0950f5a951637e0307cdcb4c672f298b8bc660608401524691830191909152309082015260c00160408051601f19818403018152919052805160209091012060c0525062000223915050565b600080546001600160a01b038381166001600160a01b0319831681178455604051919092169283917f8be0079c531659141344cd1fd0a4f28419497f9722a3daafe3b4186f6b6457e09190a35050565b6001600160a01b0381168114620001cc57600080fd5b50565b600080600060608486031215620001e557600080fd5b8351620001f281620001b6565b60208501519093506200020581620001b6565b60408501519092506200021881620001b6565b809150509250925092565b60805160a05160c051611b1162000276600039600081816101450152610dc001526000818161026201528181611197015261126d01526000818161023b015281816102bf01526109b70152611b116000f3fe608060405234801561001057600080fd5b50600436106100ea5760003560e01c80638da5cb5b1161008c578063b4b3c5a011610066578063b4b3c5a014610223578063b74795d914610236578063b870676c1461025d578063f2fde38b1461028457600080fd5b80638da5cb5b146101b65780639072ec4e146101db578063a1627cd01461020e57600080fd5b80633992eaf6116100c85780633992eaf614610175578063715018a61461018857806382f6f608146101905780638b90cdc9146101a357600080fd5b80630ba207a2146100ef578063334c2ef31461012b5780633644e51514610140575b600080fd5b6101026100fd366004611337565b610297565b604080518251151581526020808401519082015291810151908201526060015b60405180910390f35b61013e610139366004611379565b6104b0565b005b6101677f000000000000000000000000000000000000000000000000000000000000000081565b604051908152602001610122565b61013e610183366004611379565b610570565b61013e610658565b61013e61019e3660046113a7565b61066c565b6101676101b1366004611379565b610782565b6000546001600160a01b03165b6040516001600160a01b039091168152602001610122565b6101fe6101e9366004611379565b60036020526000908152604090205460ff1681565b6040519015158152602001610122565b6102166107a3565b60405161012291906113c4565b6001546101c3906001600160a01b031681565b6101c37f000000000000000000000000000000000000000000000000000000000000000081565b6101c37f000000000000000000000000000000000000000000000000000000000000000081565b61013e6102923660046113a7565b6107fb565b6040805160608101825260008082526020820181905291810191909152336001600160a01b037f000000000000000000000000000000000000000000000000000000000000000016146103315760405162461bcd60e51b815260206004820152601a60248201527f4f6e6c79206f7263686573747261746f722063616e2063616c6c00000000000060448201526064015b60405180910390fd5b600061037d6103436020850185611408565b8080601f01602080910402602001604051908101604052809392919081815260200183838082843760009201919091525061087492505050565b905060008061038f83608001516108bd565b8151600090815260036020526040902054919350915060ff166103f45760405162461bcd60e51b815260206004820152601b60248201527f5550563a20496e76616c6964207061796d656e74206d6574686f6400000000006044820152606401610328565b6103ff85358261094e565b600061040a84610d3c565b9050806104595760405162461bcd60e51b815260206004820152601860248201527f5550563a20496e76616c6964206174746573746174696f6e00000000000000006044820152606401610328565b61046b83600001518460a00151610eef565b83516104779084610f25565b600061048b85602001518460200151610f97565b604080516060810182526001815296516020880152860152509293505050505b919050565b6104b8610faf565b60008181526003602052604090205460ff166105215760405162461bcd60e51b815260206004820152602260248201527f5550563a205061796d656e74206d6574686f6420646f6573206e6f74206578696044820152611cdd60f21b6064820152608401610328565b6000818152600360205260409020805460ff19169055610542600282611009565b60405181907f0c831f94d9f98b9753b9607b5f1d9b1758d364178abe6e854ee65e97519c576490600090a250565b610578610faf565b60008181526003602052604090205460ff16156105e25760405162461bcd60e51b815260206004820152602260248201527f5550563a205061796d656e74206d6574686f6420616c72656164792065786973604482015261747360f01b6064820152608401610328565b600081815260036020526040808220805460ff1916600190811790915560028054918201815583527f405787fa12a823e0f2b7631cc41b3ba8828b3321ca811111fa75cd3aa3bb5ace018390555182917fa8b7ef1cdeb8ecb963885f69266685a6c19778bdbe18fd82fb494d536ae5ede891a250565b610660610faf565b61066a6000611131565b565b610674610faf565b6001546001600160a01b039081169082166106db5760405162461bcd60e51b815260206004820152602160248201527f5550563a20496e76616c6964206174746573746174696f6e20766572696669656044820152603960f91b6064820152608401610328565b806001600160a01b0316826001600160a01b0316036107315760405162461bcd60e51b81526020600482015260126024820152712aa82b1d1029b0b6b2903b32b934b334b2b960711b6044820152606401610328565b600180546001600160a01b0319166001600160a01b0384811691821790925560405190918316907f85c440731cd72afaddddb00cf34bebcc2b6d46def5a034a30baef899583e3d1590600090a35050565b6002818154811061079257600080fd5b600091825260209091200154905081565b606060028054806020026020016040519081016040528092919081815260200182805480156107f157602002820191906000526020600020905b8154815260200190600101908083116107dd575b5050505050905090565b610803610faf565b6001600160a01b0381166108685760405162461bcd60e51b815260206004820152602660248201527f4f776e61626c653a206e6577206f776e657220697320746865207a65726f206160448201526564647265737360d01b6064820152608401610328565b61087181611131565b50565b6040805160c081018252600080825260208083018290529282015260608082018190526080820181905260a0820152825190916108b79184018101908401611636565b92915050565b6040805160c081018252600080825260208201819052918101829052606081018290526080810182905260a08101919091526040805161010081018252600080825260208201819052918101829052606081018290526080810182905260a0810182905260c0810182905260e0810191909152828060200190518101906109449190611709565b9094909350915050565b8051821461099e5760405162461bcd60e51b815260206004820152601b60248201527f5550563a20536e617073686f742068617368206d69736d6174636800000000006044820152606401610328565b60405163789e235560e11b8152600481018390526000907f00000000000000000000000000000000000000000000000000000000000000006001600160a01b03169063f13c46aa90602401600060405180830381865afa158015610a06573d6000803e3d6000fd5b505050506040513d6000823e601f3d908101601f19168201604052610a2e91908101906117f0565b90508060800151826020015114610a875760405162461bcd60e51b815260206004820152601d60248201527f5550563a20536e617073686f7420616d6f756e74206d69736d617463680000006044820152606401610328565b8060c00151826040015114610ade5760405162461bcd60e51b815260206004820152601d60248201527f5550563a20536e617073686f74206d6574686f64206d69736d617463680000006044820152606401610328565b8060e00151826060015114610b355760405162461bcd60e51b815260206004820152601f60248201527f5550563a20536e617073686f742063757272656e6379206d69736d61746368006044820152606401610328565b8061010001518260a0015114610b8d5760405162461bcd60e51b815260206004820152601b60248201527f5550563a20536e617073686f742072617465206d69736d6174636800000000006044820152606401610328565b8060a001518260c0015114610be45760405162461bcd60e51b815260206004820181905260248201527f5550563a20536e617073686f742074696d657374616d70206d69736d617463686044820152606401610328565b630a4cb8008260e001511115610c535760405162461bcd60e51b815260206004820152602e60248201527f5550563a20536e617073686f742074696d657374616d7020627566666572206560448201526d786365656473206d6178696d756d60901b6064820152608401610328565b600081604001516001600160a01b03166317192c29836060015185604001516040518363ffffffff1660e01b8152600401610c98929190918252602082015260400190565b600060405180830381865afa158015610cb5573d6000803e3d6000fd5b505050506040513d6000823e601f3d908101601f19168201604052610cdd9190810190611902565b90508060200151836080015114610d365760405162461bcd60e51b815260206004820152601c60248201527f5550563a20536e617073686f74207061796565206d69736d61746368000000006044820152606401610328565b50505050565b6000807f3fbf9df18b1c2ca7c48d809a8d8c6bbf8d7ac33f3741ab78dac072aba0f77103836000015184602001518560400151604051602001610d98949392919093845260208401929092526040830152606082015260800190565b60408051601f1981840301815290829052805160209182012061190160f01b918301919091527f00000000000000000000000000000000000000000000000000000000000000006022830152604282018190529150600090606201604051602081830303815290604052805190602001209050836040015184608001518051906020012014610e695760405162461bcd60e51b815260206004820152601760248201527f5550563a20446174612068617368206d69736d617463680000000000000000006044820152606401610328565b6001546060850151608086015160405162522ebb60e81b81526000936001600160a01b03169263522ebb0092610ea592879291906004016119ce565b602060405180830381865afa158015610ec2573d6000803e3d6000fd5b505050506040513d601f19601f82011682018060405250810190610ee69190611a4b565b95945050505050565b60408051602080820185905281830184905282518083038401815260609092019092528051910120610f2081611181565b505050565b80606001518160000151837f4d2aa8fe0c7c20e5090ab060295f615973b60c23d4a50ec0b6fbf8090c610752846040015185608001518660a001518760200151604051610f8b949392919093845260208401929092526040830152606082015260800190565b60405180910390a45050565b600081831115610fa85750806108b7565b5090919050565b6000546001600160a01b0316331461066a5760405162461bcd60e51b815260206004820181905260248201527f4f776e61626c653a2063616c6c6572206973206e6f7420746865206f776e65726044820152606401610328565b6000806110658480548060200260200160405190810160405280929190818152602001828054801561105a57602002820191906000526020600020905b815481526020019060010190808311611046575b5050505050846112d4565b91509150806110ae5760405162461bcd60e51b8152602060048201526015602482015274313cba32b99999103737ba1034b71030b93930bc9760591b6044820152606401610328565b83546000906110bf90600190611a83565b9050808314611104578481815481106110da576110da611a96565b90600052602060002001548584815481106110f7576110f7611a96565b6000918252602090912001555b8480548061111457611114611aac565b600190038181906000526020600020016000905590555050505050565b600080546001600160a01b038381166001600160a01b0319831681178455604051919092169283917f8be0079c531659141344cd1fd0a4f28419497f9722a3daafe3b4186f6b6457e09190a35050565b60405163169394bb60e01b8152600481018290527f00000000000000000000000000000000000000000000000000000000000000006001600160a01b03169063169394bb90602401602060405180830381865afa1580156111e6573d6000803e3d6000fd5b505050506040513d601f19601f8201168201806040525081019061120a9190611a4b565b156112575760405162461bcd60e51b815260206004820152601f60248201527f4e756c6c69666965722068617320616c7265616479206265656e2075736564006044820152606401610328565b604051632dea6f9960e11b8152600481018290527f00000000000000000000000000000000000000000000000000000000000000006001600160a01b031690635bd4df3290602401600060405180830381600087803b1580156112b957600080fd5b505af11580156112cd573d6000803e3d6000fd5b5050505050565b81516000908190815b8181101561132457848682815181106112f8576112f8611a96565b602002602001015103611312579250600191506113309050565b8061131c81611ac2565b9150506112dd565b50600019600092509250505b9250929050565b60006020828403121561134957600080fd5b813567ffffffffffffffff81111561136057600080fd5b82016060818503121561137257600080fd5b9392505050565b60006020828403121561138b57600080fd5b5035919050565b6001600160a01b038116811461087157600080fd5b6000602082840312156113b957600080fd5b813561137281611392565b6020808252825182820181905260009190848201906040850190845b818110156113fc578351835292840192918401916001016113e0565b50909695505050505050565b6000808335601e1984360301811261141f57600080fd5b83018035915067ffffffffffffffff82111561143a57600080fd5b60200191503681900382131561133057600080fd5b634e487b7160e01b600052604160045260246000fd5b60405160c0810167ffffffffffffffff811182821017156114885761148861144f565b60405290565b604051610100810167ffffffffffffffff811182821017156114885761148861144f565b6040516101a0810167ffffffffffffffff811182821017156114885761148861144f565b604051601f8201601f1916810167ffffffffffffffff811182821017156114ff576114ff61144f565b604052919050565b60005b8381101561152257818101518382015260200161150a565b50506000910152565b600082601f83011261153c57600080fd5b815167ffffffffffffffff8111156115565761155661144f565b611569601f8201601f19166020016114d6565b81815284602083860101111561157e57600080fd5b61158f826020830160208701611507565b949350505050565b600082601f8301126115a857600080fd5b8151602067ffffffffffffffff808311156115c5576115c561144f565b8260051b6115d48382016114d6565b93845285810183019383810190888611156115ee57600080fd5b84880192505b8583101561162a5782518481111561160c5760008081fd5b61161a8a87838c010161152b565b83525091840191908401906115f4565b98975050505050505050565b60006020828403121561164857600080fd5b815167ffffffffffffffff8082111561166057600080fd5b9083019060c0828603121561167457600080fd5b61167c611465565b8251815260208301516020820152604083015160408201526060830151828111156116a657600080fd5b6116b287828601611597565b6060830152506080830151828111156116ca57600080fd5b6116d68782860161152b565b60808301525060a0830151828111156116ee57600080fd5b6116fa8782860161152b565b60a08301525095945050505050565b6000808284036101c081121561171e57600080fd5b60c081121561172c57600080fd5b611734611465565b845181526020850151602082015260408501516040820152606085015160608201526080850151608082015260a085015160a0820152809350506101008060bf198301121561178257600080fd5b61178a61148e565b60c086810151825260e08088015160208401529287015160408301526101208701516060830152610140870151608083015261016087015160a0830152610180870151908201526101a0909501519085015250909391925050565b80516104ab81611392565b60006020828403121561180257600080fd5b815167ffffffffffffffff8082111561181a57600080fd5b908301906101a0828603121561182f57600080fd5b6118376114b2565b611840836117e5565b815261184e602084016117e5565b602082015261185f604084016117e5565b6040820152606083015160608201526080830151608082015260a083015160a082015260c083015160c082015260e083015160e08201526101008084015181830152506101206118b08185016117e5565b9082015261014083810151908201526101606118cd8185016117e5565b9082015261018083810151838111156118e557600080fd5b6118f18882870161152b565b918301919091525095945050505050565b60006020828403121561191457600080fd5b815167ffffffffffffffff8082111561192c57600080fd5b908301906060828603121561194057600080fd5b60405160608101818110838211171561195b5761195b61144f565b604052825161196981611392565b81526020838101519082015260408301518281111561198757600080fd5b6119938782860161152b565b60408301525095945050505050565b600081518084526119ba816020860160208601611507565b601f01601f19169290920160200192915050565b600060608201858352602060608185015281865180845260808601915060808160051b870101935082880160005b82811015611a2a57607f19888703018452611a188683516119a2565b955092840192908401906001016119fc565b50505050508281036040840152611a4181856119a2565b9695505050505050565b600060208284031215611a5d57600080fd5b8151801515811461137257600080fd5b634e487b7160e01b600052601160045260246000fd5b818103818111156108b7576108b7611a6d565b634e487b7160e01b600052603260045260246000fd5b634e487b7160e01b600052603160045260246000fd5b600060018201611ad457611ad4611a6d565b506001019056fea2646970667358221220d84cc3f7df920aed2308d44545c280628a1d684f0e8437a965a910354d804e3a64736f6c63430008120033",
  "devdoc": {
    "details": "The payment attestation should be signed using the EIP-712 standard",
    "kind": "dev",
    "methods": {
      "addPaymentMethod(bytes32)": {
        "params": {
          "_paymentMethod": "The payment method hash; Hash the payment method name in lowercase"
        }
      },
      "owner()": {
        "details": "Returns the address of the current owner."
      },
      "removePaymentMethod(bytes32)": {
        "params": {
          "_paymentMethod": "The payment method to remove"
        }
      },
      "renounceOwnership()": {
        "details": "Leaves the contract without owner. It will not be possible to call `onlyOwner` functions. Can only be called by the current owner. NOTE: Renouncing ownership will leave the contract without an owner, thereby disabling any functionality that is only available to the owner."
      },
      "setAttestationVerifier(address)": {
        "params": {
          "_newVerifier": "The new attestation verifier address"
        }
      },
      "transferOwnership(address)": {
        "details": "Transfers ownership of the contract to a new account (`newOwner`). Can only be called by the current owner."
      },
      "verifyPayment((bytes32,bytes,bytes))": {
        "details": "Ensure the orchestrator verifies the intent exists before calling this function",
        "params": {
          "_verifyPaymentData": "Payment proof and intent details required for verification"
        },
        "returns": {
          "result": "The payment verification result containing success status, intent hash, and release amount"
        }
      }
    },
    "title": "UnifiedPaymentVerifier",
    "version": 1
  },
  "userdoc": {
    "events": {
      "PaymentVerified(bytes32,bytes32,bytes32,uint256,uint256,bytes32,bytes32)": {
        "notice": "Capture and emit payment details for offchain reconciliation"
      }
    },
    "kind": "user",
    "methods": {
      "addPaymentMethod(bytes32)": {
        "notice": "ONLY OWNER: Adds a new payment method with timestamp buffer"
      },
      "removePaymentMethod(bytes32)": {
        "notice": "ONLY OWNER: Removes a payment method and associated configuration"
      },
      "setAttestationVerifier(address)": {
        "notice": "Updates the attestation verifier contract"
      },
      "verifyPayment((bytes32,bytes,bytes))": {
        "notice": "ONLY ORCHESTRATOR: Verifies a standardized payment attestation generated by the attestation service. "
      }
    },
    "notice": "Verifies payment proofs for multiple payment methods. This is a unified verifier that  replaces individual payment verifiers (VenmoVerifier, PayPalVerifier, etc.) with a single  configurable contract.  Key features: - Supports multiple payment methods, each with custom configuration - Uses AttestationVerifier to validate offchain payment attestations    - Ensures trust anchor integrity for off-chain verification processes - Verifies standardized payment details against provided data",
    "version": 1
  },
  "storageLayout": {
    "storage": [
      {
        "astId": 7,
        "contract": "contracts/unifiedVerifier/UnifiedPaymentVerifier.sol:UnifiedPaymentVerifier",
        "label": "_owner",
        "offset": 0,
        "slot": "0",
        "type": "t_address"
      },
      {
        "astId": 1521,
        "contract": "contracts/unifiedVerifier/UnifiedPaymentVerifier.sol:UnifiedPaymentVerifier",
        "label": "attestationVerifier",
        "offset": 0,
        "slot": "1",
        "type": "t_contract(IAttestationVerifier)559"
      },
      {
        "astId": 1524,
        "contract": "contracts/unifiedVerifier/UnifiedPaymentVerifier.sol:UnifiedPaymentVerifier",
        "label": "paymentMethods",
        "offset": 0,
        "slot": "2",
        "type": "t_array(t_bytes32)dyn_storage"
      },
      {
        "astId": 1528,
        "contract": "contracts/unifiedVerifier/UnifiedPaymentVerifier.sol:UnifiedPaymentVerifier",
        "label": "isPaymentMethod",
        "offset": 0,
        "slot": "3",
        "type": "t_mapping(t_bytes32,t_bool)"
      }
    ],
    "types": {
      "t_address": {
        "encoding": "inplace",
        "label": "address",
        "numberOfBytes": "20"
      },
      "t_array(t_bytes32)dyn_storage": {
        "base": "t_bytes32",
        "encoding": "dynamic_array",
        "label": "bytes32[]",
        "numberOfBytes": "32"
      },
      "t_bool": {
        "encoding": "inplace",
        "label": "bool",
        "numberOfBytes": "1"
      },
      "t_bytes32": {
        "encoding": "inplace",
        "label": "bytes32",
        "numberOfBytes": "32"
      },
      "t_contract(IAttestationVerifier)559": {
        "encoding": "inplace",
        "label": "contract IAttestationVerifier",
        "numberOfBytes": "20"
      },
      "t_mapping(t_bytes32,t_bool)": {
        "encoding": "mapping",
        "key": "t_bytes32",
        "label": "mapping(bytes32 => bool)",
        "numberOfBytes": "32",
        "value": "t_bool"
      }
    }
  }
}