{
  "address": "0x54c92a8828A393C5A6D1DfbB71d0e9e97329b39C",
  "abi": [
    {
      "inputs": [
        {
          "internalType": "address",
          "name": "_escrow",
          "type": "address"
        },
        {
          "internalType": "contract INullifierRegistry",
          "name": "_nullifierRegistry",
          "type": "address"
        },
        {
          "internalType": "uint256",
          "name": "_timestampBuffer",
          "type": "uint256"
        },
        {
          "internalType": "bytes32[]",
          "name": "_currencies",
          "type": "bytes32[]"
        },
        {
          "internalType": "string[]",
          "name": "_providerHashes",
          "type": "string[]"
        }
      ],
      "stateMutability": "nonpayable",
      "type": "constructor"
    },
    {
      "anonymous": false,
      "inputs": [
        {
          "indexed": false,
          "internalType": "bytes32",
          "name": "currencyCode",
          "type": "bytes32"
        }
      ],
      "name": "CurrencyAdded",
      "type": "event"
    },
    {
      "anonymous": false,
      "inputs": [
        {
          "indexed": false,
          "internalType": "bytes32",
          "name": "currencyCode",
          "type": "bytes32"
        }
      ],
      "name": "CurrencyRemoved",
      "type": "event"
    },
    {
      "anonymous": false,
      "inputs": [
        {
          "indexed": true,
          "internalType": "address",
          "name": "previousOwner",
          "type": "address"
        },
        {
          "indexed": true,
          "internalType": "address",
          "name": "newOwner",
          "type": "address"
        }
      ],
      "name": "OwnershipTransferred",
      "type": "event"
    },
    {
      "anonymous": false,
      "inputs": [
        {
          "indexed": false,
          "internalType": "string",
          "name": "providerHash",
          "type": "string"
        }
      ],
      "name": "ProviderHashAdded",
      "type": "event"
    },
    {
      "anonymous": false,
      "inputs": [
        {
          "indexed": false,
          "internalType": "string",
          "name": "providerHash",
          "type": "string"
        }
      ],
      "name": "ProviderHashRemoved",
      "type": "event"
    },
    {
      "anonymous": false,
      "inputs": [
        {
          "indexed": false,
          "internalType": "uint256",
          "name": "timestampBuffer",
          "type": "uint256"
        }
      ],
      "name": "TimestampBufferSet",
      "type": "event"
    },
    {
      "inputs": [],
      "name": "COMPLETE_PAYMENT_STATUS",
      "outputs": [
        {
          "internalType": "bytes32",
          "name": "",
          "type": "bytes32"
        }
      ],
      "stateMutability": "view",
      "type": "function"
    },
    {
      "inputs": [
        {
          "internalType": "bytes32",
          "name": "_currencyCode",
          "type": "bytes32"
        }
      ],
      "name": "addCurrency",
      "outputs": [],
      "stateMutability": "nonpayable",
      "type": "function"
    },
    {
      "inputs": [
        {
          "internalType": "string",
          "name": "_newProviderHash",
          "type": "string"
        }
      ],
      "name": "addProviderHash",
      "outputs": [],
      "stateMutability": "nonpayable",
      "type": "function"
    },
    {
      "inputs": [],
      "name": "escrow",
      "outputs": [
        {
          "internalType": "address",
          "name": "",
          "type": "address"
        }
      ],
      "stateMutability": "view",
      "type": "function"
    },
    {
      "inputs": [],
      "name": "getCurrencies",
      "outputs": [
        {
          "internalType": "bytes32[]",
          "name": "",
          "type": "bytes32[]"
        }
      ],
      "stateMutability": "view",
      "type": "function"
    },
    {
      "inputs": [],
      "name": "getProviderHashes",
      "outputs": [
        {
          "internalType": "string[]",
          "name": "",
          "type": "string[]"
        }
      ],
      "stateMutability": "view",
      "type": "function"
    },
    {
      "inputs": [
        {
          "internalType": "bytes32",
          "name": "",
          "type": "bytes32"
        }
      ],
      "name": "isCurrency",
      "outputs": [
        {
          "internalType": "bool",
          "name": "",
          "type": "bool"
        }
      ],
      "stateMutability": "view",
      "type": "function"
    },
    {
      "inputs": [
        {
          "internalType": "string",
          "name": "",
          "type": "string"
        }
      ],
      "name": "isProviderHash",
      "outputs": [
        {
          "internalType": "bool",
          "name": "",
          "type": "bool"
        }
      ],
      "stateMutability": "view",
      "type": "function"
    },
    {
      "inputs": [],
      "name": "nullifierRegistry",
      "outputs": [
        {
          "internalType": "contract INullifierRegistry",
          "name": "",
          "type": "address"
        }
      ],
      "stateMutability": "view",
      "type": "function"
    },
    {
      "inputs": [],
      "name": "owner",
      "outputs": [
        {
          "internalType": "address",
          "name": "",
          "type": "address"
        }
      ],
      "stateMutability": "view",
      "type": "function"
    },
    {
      "inputs": [
        {
          "internalType": "uint256",
          "name": "",
          "type": "uint256"
        }
      ],
      "name": "providerHashes",
      "outputs": [
        {
          "internalType": "string",
          "name": "",
          "type": "string"
        }
      ],
      "stateMutability": "view",
      "type": "function"
    },
    {
      "inputs": [
        {
          "internalType": "bytes32",
          "name": "_currencyCode",
          "type": "bytes32"
        }
      ],
      "name": "removeCurrency",
      "outputs": [],
      "stateMutability": "nonpayable",
      "type": "function"
    },
    {
      "inputs": [
        {
          "internalType": "string",
          "name": "_removeProviderHash",
          "type": "string"
        }
      ],
      "name": "removeProviderHash",
      "outputs": [],
      "stateMutability": "nonpayable",
      "type": "function"
    },
    {
      "inputs": [],
      "name": "renounceOwnership",
      "outputs": [],
      "stateMutability": "nonpayable",
      "type": "function"
    },
    {
      "inputs": [
        {
          "internalType": "uint256",
          "name": "_timestampBuffer",
          "type": "uint256"
        }
      ],
      "name": "setTimestampBuffer",
      "outputs": [],
      "stateMutability": "nonpayable",
      "type": "function"
    },
    {
      "inputs": [],
      "name": "timestampBuffer",
      "outputs": [
        {
          "internalType": "uint256",
          "name": "",
          "type": "uint256"
        }
      ],
      "stateMutability": "view",
      "type": "function"
    },
    {
      "inputs": [
        {
          "internalType": "address",
          "name": "newOwner",
          "type": "address"
        }
      ],
      "name": "transferOwnership",
      "outputs": [],
      "stateMutability": "nonpayable",
      "type": "function"
    },
    {
      "inputs": [
        {
          "components": [
            {
              "internalType": "bytes",
              "name": "paymentProof",
              "type": "bytes"
            },
            {
              "internalType": "address",
              "name": "depositToken",
              "type": "address"
            },
            {
              "internalType": "uint256",
              "name": "intentAmount",
              "type": "uint256"
            },
            {
              "internalType": "uint256",
              "name": "intentTimestamp",
              "type": "uint256"
            },
            {
              "internalType": "string",
              "name": "payeeDetails",
              "type": "string"
            },
            {
              "internalType": "bytes32",
              "name": "fiatCurrency",
              "type": "bytes32"
            },
            {
              "internalType": "uint256",
              "name": "conversionRate",
              "type": "uint256"
            },
            {
              "internalType": "bytes",
              "name": "data",
              "type": "bytes"
            }
          ],
          "internalType": "struct IPaymentVerifier.VerifyPaymentData",
          "name": "_verifyPaymentData",
          "type": "tuple"
        }
      ],
      "name": "verifyPayment",
      "outputs": [
        {
          "internalType": "bool",
          "name": "",
          "type": "bool"
        },
        {
          "internalType": "bytes32",
          "name": "",
          "type": "bytes32"
        }
      ],
      "stateMutability": "nonpayable",
      "type": "function"
    },
    {
      "inputs": [
        {
          "components": [
            {
              "components": [
                {
                  "internalType": "string",
                  "name": "provider",
                  "type": "string"
                },
                {
                  "internalType": "string",
                  "name": "parameters",
                  "type": "string"
                },
                {
                  "internalType": "string",
                  "name": "context",
                  "type": "string"
                }
              ],
              "internalType": "struct Claims.ClaimInfo",
              "name": "claimInfo",
              "type": "tuple"
            },
            {
              "components": [
                {
                  "components": [
                    {
                      "internalType": "bytes32",
                      "name": "identifier",
                      "type": "bytes32"
                    },
                    {
                      "internalType": "address",
                      "name": "owner",
                      "type": "address"
                    },
                    {
                      "internalType": "uint32",
                      "name": "timestampS",
                      "type": "uint32"
                    },
                    {
                      "internalType": "uint32",
                      "name": "epoch",
                      "type": "uint32"
                    }
                  ],
                  "internalType": "struct Claims.CompleteClaimData",
                  "name": "claim",
                  "type": "tuple"
                },
                {
                  "internalType": "bytes[]",
                  "name": "signatures",
                  "type": "bytes[]"
                }
              ],
              "internalType": "struct Claims.SignedClaim",
              "name": "signedClaim",
              "type": "tuple"
            },
            {
              "internalType": "bool",
              "name": "isAppclipProof",
              "type": "bool"
            }
          ],
          "internalType": "struct IReclaimVerifier.ReclaimProof",
          "name": "proof",
          "type": "tuple"
        },
        {
          "internalType": "address[]",
          "name": "_witnesses",
          "type": "address[]"
        },
        {
          "internalType": "uint256",
          "name": "_requiredThreshold",
          "type": "uint256"
        }
      ],
      "name": "verifyProofSignatures",
      "outputs": [
        {
          "internalType": "bool",
          "name": "",
          "type": "bool"
        }
      ],
      "stateMutability": "pure",
      "type": "function"
    }
  ],
  "transactionHash": "0x056fe6e8034081ecc1b5cd67fba2baaa02d8c41f0da8d787f540a2911774357e",
  "args": [
    "0x15EF83EBB422B4AC8e3b8393d016Ed076dc50CB7",
    "0x1ef021957e863FB686989755878cB98717e4FD4f",
    "30",
    [
      "0xc4ae21aac0c6549d71dd96035b7e0bdb6c79ebdba8891b666115bc976d16a29e",
      "0xfaaa9c7b2f09d6a1b0971574d43ca62c3e40723167c09830ec33f06cec921381",
      "0xfff16d60be267153303bbfa66e593fb8d06e24ea5ef24b6acca5224c2ca6b907",
      "0x90832e2dc3221e4d56977c1aa8f6a6706b9ad6542fbbdaac13097d0fa5e42e67",
      "0xcb83cbb58eaa5007af6cad99939e4581c1e1b50d65609c30f303983301524ef3",
      "0xdbd9d34f382e9f6ae078447a655e0816927c7c3edec70bd107de1d34cb15172e",
      "0x221012e06ebf59a20b82e3003cf5d6ee973d9008bdb6e2f604faa89a27235522",
      "0x4dab77a640748de8588de6834d814a344372b205265984b969f3e97060955bfa",
      "0xc9d84274fd58aa177cabff54611546051b74ad658b939babaad6282500300d36",
      "0x53611f0b3535a2cfc4b8deb57fa961ca36c7b2c272dfe4cb239a29c48e549361",
      "0xc241cc1f9752d2d53d1ab67189223a3f330e48b75f73ebf86f50b2c78fe8df88",
      "0x313eda7ae1b79890307d32a78ed869290aeb24cc0e8605157d7e7f5a69fea425",
      "0xa156dad863111eeb529c4b3a2a30ad40e6dcff3b27d8f282f82996e58eee7e7d",
      "0xfe13aafd831cb225dfce3f6431b34b5b17426b6bff4fccabe4bbe0fe4adc0452",
      "0x9a788fb083188ba1dfb938605bc4ce3579d2e085989490aca8f73b23214b7c1d",
      "0x128d6c262d1afe2351c6e93ceea68e00992708cfcbc0688408b9a23c0c543db2",
      "0xc681c4652bae8bd4b59bec1cdb90f868d93cc9896af9862b196843f54bf254b3",
      "0x589be49821419c9c2fbb26087748bf3420a5c13b45349828f5cac24c58bbaa7b",
      "0xf20379023279e1d79243d2c491be8632c07cfb116be9d8194013fb4739461b84",
      "0xa94b0702860cb929d0ee0c60504dd565775a058bf1d2a2df074c1db0a66ad582",
      "0x326a6608c2a353275bd8d64db53a9d772c1d9a5bc8bfd19dfc8242274d1e9dd4",
      "0xe85548baf0a6732cfcc7fc016ce4fd35ce0a1877057cfec6e166af4f106a3728"
    ],
    [
      "0x2018104caab61b21fb492042c16911b2e89baa73b14604ffafc77ffe4f00c638"
    ]
  ],
  "numDeployments": 1,
  "solcInputHash": "c4b07aa321608cb5e0aa712b14322172",
  "bytecode": "0x60a06040523480156200001157600080fd5b5060405162004dbf38038062004dbf8339810160408190526200003491620005bc565b84848484848484848462000048336200027a565b6001600160a01b03848116608052600180546001600160a01b031916918516919091179055600282905560005b8151811015620000c157620000ac828281518110620000985762000098620006b9565b6020026020010151620002ca60201b60201c565b80620000b881620006cf565b91505062000075565b505050505060005b815181101562000269576005828281518110620000ea57620000ea620006b9565b6020026020010151604051620001019190620006f7565b9081526040519081900360200190205460ff1615620001675760405162461bcd60e51b815260206004820152601b60248201527f50726f7669646572206861736820616c7265616479206164646564000000000060448201526064015b60405180910390fd5b60016005838381518110620001805762000180620006b9565b6020026020010151604051620001979190620006f7565b908152602001604051809103902060006101000a81548160ff0219169083151502179055506006828281518110620001d357620001d3620006b9565b60209081029190910181015182546001810184556000938452919092200190620001fe9082620007a4565b507fc9e1c78701d1853eeb1eb35ad3449e4b336281f672d5837243d21239dc6f4096828281518110620002355762000235620006b9565b60200260200101516040516200024c919062000870565b60405180910390a1806200026081620006cf565b915050620000c9565b5050505050505050505050620008a5565b600080546001600160a01b038381166001600160a01b0319831681178455604051919092169283917f8be0079c531659141344cd1fd0a4f28419497f9722a3daafe3b4186f6b6457e09190a35050565b620002d4620003b6565b60008181526004602052604090205460ff1615620003355760405162461bcd60e51b815260206004820152601660248201527f43757272656e637920616c72656164792061646465640000000000000000000060448201526064016200015e565b6003805460018082019092557fc2575a0e9e593c00f959f8c92f12db2869c3395a3b0502d05e2516446f71f85b01829055600082815260046020908152604091829020805460ff1916909317909255518281527f15e2bb2d9733845f72b6cc683c4d7bafd2d79cfd5c160cb1be756b6faa97dbdc910160405180910390a150565b6000546001600160a01b03163314620004125760405162461bcd60e51b815260206004820181905260248201527f4f776e61626c653a2063616c6c6572206973206e6f7420746865206f776e657260448201526064016200015e565b565b6001600160a01b03811681146200042a57600080fd5b50565b634e487b7160e01b600052604160045260246000fd5b604051601f8201601f191681016001600160401b03811182821017156200046e576200046e6200042d565b604052919050565b60006001600160401b038211156200049257620004926200042d565b5060051b60200190565b60005b83811015620004b95781810151838201526020016200049f565b50506000910152565b6000601f8381840112620004d557600080fd5b82516020620004ee620004e88362000476565b62000443565b82815260059290921b850181019181810190878411156200050e57600080fd5b8287015b84811015620005b05780516001600160401b0380821115620005345760008081fd5b818a0191508a603f8301126200054a5760008081fd5b858201516040828211156200056357620005636200042d565b62000576828b01601f1916890162000443565b92508183528c818386010111156200058e5760008081fd5b6200059f828985018387016200049c565b505084525091830191830162000512565b50979650505050505050565b600080600080600060a08688031215620005d557600080fd5b8551620005e28162000414565b80955050602080870151620005f78162000414565b6040880151606089015191965094506001600160401b03808211156200061c57600080fd5b818901915089601f8301126200063157600080fd5b815162000642620004e88262000476565b81815260059190911b8301840190848101908c8311156200066257600080fd5b938501935b82851015620006825784518252938501939085019062000667565b60808c015190975094505050808311156200069c57600080fd5b5050620006ac88828901620004c2565b9150509295509295909350565b634e487b7160e01b600052603260045260246000fd5b600060018201620006f057634e487b7160e01b600052601160045260246000fd5b5060010190565b600082516200070b8184602087016200049c565b9190910192915050565b600181811c908216806200072a57607f821691505b6020821081036200074b57634e487b7160e01b600052602260045260246000fd5b50919050565b601f8211156200079f57600081815260208120601f850160051c810160208610156200077a5750805b601f850160051c820191505b818110156200079b5782815560010162000786565b5050505b505050565b81516001600160401b03811115620007c057620007c06200042d565b620007d881620007d1845462000715565b8462000751565b602080601f831160018114620008105760008415620007f75750858301515b600019600386901b1c1916600185901b1785556200079b565b600085815260208120601f198616915b82811015620008415788860151825594840194600190910190840162000820565b5085821015620008605787850151600019600388901b60f8161c191681555b5050505050600190811b01905550565b6020815260008251806020840152620008918160408501602087016200049c565b601f01601f19169190910160400192915050565b6080516144f7620008c8600039600081816102ea015261062e01526144f76000f3fe608060405234801561001057600080fd5b50600436106101215760003560e01c80638da5cb5b116100ad578063dbac582111610071578063dbac5821146102dc578063e2fdcc17146102e5578063efd4ad5a1461030c578063f2fde38b1461031f578063fa93cd381461033257600080fd5b80638da5cb5b14610269578063b2a3fda41461028e578063b870676c146102a1578063bd6e7741146102b4578063c2107e73146102c757600080fd5b806361c661de116100f457806361c661de146101c1578063680cc8f9146101d65780636903718014610224578063715018a61461023757806384c7b4391461023f57600080fd5b80631cba9bed146101265780632ca6927d1461013b5780633e1d0edc1461017e57806357c6e12a146101a1575b600080fd5b610139610134366004613767565b610345565b005b610169610149366004613767565b805160208183018101805160058252928201919093012091525460ff1681565b60405190151581526020015b60405180910390f35b61016961018c36600461379b565b60046020526000908152604090205460ff1681565b6101b46101af36600461379b565b61042d565b6040516101759190613804565b6101c96104d9565b6040516101759190613817565b6102166040517413d55511d3d25391d7d410565351539517d4d15395605a1b60208201526035016040516020818303038152906040528051906020012081565b604051908152602001610175565b61013961023236600461379b565b610531565b61013961060c565b61025261024d36600461385b565b610620565b604080519215158352602083019190915201610175565b6000546001600160a01b03165b6040516001600160a01b039091168152602001610175565b61013961029c36600461379b565b610725565b600154610276906001600160a01b031681565b6101396102c2366004613767565b610762565b6102cf610878565b604051610175919061389d565b61021660025481565b6102767f000000000000000000000000000000000000000000000000000000000000000081565b61013961031a36600461379b565b610951565b61013961032d366004613916565b6109ff565b610169610340366004613c24565b610a78565b61034d610e38565b60058160405161035d9190613c90565b9081526040519081900360200190205460ff166103c15760405162461bcd60e51b815260206004820152601760248201527f50726f76696465722068617368206e6f7420666f756e6400000000000000000060448201526064015b60405180910390fd5b6005816040516103d19190613c90565b908152604051908190036020019020805460ff191690556103f3600682610e92565b7f6f594b4b4f0580c66aabba75218163a99fa1fe330a171cc9e2bfd8e167db22f8816040516104229190613804565b60405180910390a150565b6006818154811061043d57600080fd5b90600052602060002001600091509050805461045890613cac565b80601f016020809104026020016040519081016040528092919081815260200182805461048490613cac565b80156104d15780601f106104a6576101008083540402835291602001916104d1565b820191906000526020600020905b8154815290600101906020018083116104b457829003601f168201915b505050505081565b6060600380548060200260200160405190810160405280929190818152602001828054801561052757602002820191906000526020600020905b815481526020019060010190808311610513575b5050505050905090565b610539610e38565b60008181526004602052604090205460ff16156105915760405162461bcd60e51b815260206004820152601660248201527510dd5c9c995b98de48185b1c9958591e48185919195960521b60448201526064016103b8565b6003805460018082019092557fc2575a0e9e593c00f959f8c92f12db2869c3395a3b0502d05e2516446f71f85b01829055600082815260046020908152604091829020805460ff1916909317909255518281527f15e2bb2d9733845f72b6cc683c4d7bafd2d79cfd5c160cb1be756b6faa97dbdc9101610422565b610614610e38565b61061e600061104c565b565b600080336001600160a01b037f000000000000000000000000000000000000000000000000000000000000000016146106925760405162461bcd60e51b815260206004820152601460248201527313db9b1e48195cd8dc9bddc818d85b8818d85b1b60621b60448201526064016103b8565b6000806106b46106a28680613ce6565b6106af60e0890189613ce6565b61109c565b915091506106cc82866106c690613d2c565b8361113e565b600082606001516040516020016106e39190613c90565b604051602081830303815290604052805190602001209050610704816114f0565b60c0830151600090610716908261160b565b60019890975095505050505050565b61072d610e38565b60028190556040518181527f11e8dda5412ecab251b7783921be2eb37fdf13b389fc7f671f2cee11a1dfefea90602001610422565b61076a610e38565b60058160405161077a9190613c90565b9081526040519081900360200190205460ff16156107da5760405162461bcd60e51b815260206004820152601b60248201527f50726f7669646572206861736820616c7265616479206164646564000000000060448201526064016103b8565b60016005826040516107ec9190613c90565b908152604051908190036020019020805491151560ff19909216919091179055600680546001810182556000919091527ff652222313e28459528d920b65115c16c04f3efc82aaedc97be59f3f377c0d3f016108488282613e46565b507fc9e1c78701d1853eeb1eb35ad3449e4b336281f672d5837243d21239dc6f4096816040516104229190613804565b60606006805480602002602001604051908101604052809291908181526020016000905b828210156109485783829060005260206000200180546108bb90613cac565b80601f01602080910402602001604051908101604052809291908181526020018280546108e790613cac565b80156109345780601f1061090957610100808354040283529160200191610934565b820191906000526020600020905b81548152906001019060200180831161091757829003601f168201915b50505050508152602001906001019061089c565b50505050905090565b610959610e38565b60008181526004602052604090205460ff166109ac5760405162461bcd60e51b815260206004820152601260248201527110dd5c9c995b98de481b9bdd08185919195960721b60448201526064016103b8565b6109b7600382611625565b60008181526004602052604090819020805460ff19169055517fa3c6a408fb053e3ef5e9bcd22e3574324a5ae99fad263cc4080da481842d3d4c906104229083815260200190565b610a07610e38565b6001600160a01b038116610a6c5760405162461bcd60e51b815260206004820152602660248201527f4f776e61626c653a206e6577206f776e657220697320746865207a65726f206160448201526564647265737360d01b60648201526084016103b8565b610a758161104c565b50565b6000808211610adb5760405162461bcd60e51b815260206004820152602960248201527f5265717569726564207468726573686f6c64206d75737420626520677265617460448201526806572207468616e20360bc1b60648201526084016103b8565b8251821115610b605760405162461bcd60e51b8152602060048201526044602482018190527f5265717569726564207468726573686f6c64206d757374206265206c65737320908201527f7468616e206f7220657175616c20746f206e756d626572206f66207769746e656064820152637373657360e01b608482015260a4016103b8565b60008460200151602001515111610ba95760405162461bcd60e51b815260206004820152600d60248201526c4e6f207369676e61747572657360981b60448201526064016103b8565b604080518082019091526020808601805151835251810151908201528451600090610bd39061174d565b602087015151519091508114610c2b5760405162461bcd60e51b815260206004820152601c60248201527f436c61696d496e666f206861736820646f65736e2774206d617463680000000060448201526064016103b8565b80610c715760405162461bcd60e51b8152602060048201526016602482015275436c61696d496e666f2068617368206973207a65726f60501b60448201526064016103b8565b6000610c7c83611790565b90508481511015610ce05760405162461bcd60e51b815260206004820152602860248201527f4665776572207369676e617475726573207468616e20726571756972656420746044820152671a1c995cda1bdb1960c21b60648201526084016103b8565b600081516001600160401b03811115610cfb57610cfb613645565b604051908082528060200260200182016040528015610d24578160200160208202803683370190505b5090506000805b8351811015610dcc576000848281518110610d4857610d48613f05565b60200260200101519050610d65818561186990919063ffffffff16565b15610d705750610dba565b610d7a8a82611869565b15610db85780848481518110610d9257610d92613f05565b6001600160a01b039092166020928302919091019091015282610db481613f31565b9350505b505b80610dc481613f31565b915050610d2b565b5086811015610e295760405162461bcd60e51b815260206004820152602360248201527f4e6f7420656e6f7567682076616c6964207769746e657373207369676e61747560448201526272657360e81b60648201526084016103b8565b50600198975050505050505050565b6000546001600160a01b0316331461061e5760405162461bcd60e51b815260206004820181905260248201527f4f776e61626c653a2063616c6c6572206973206e6f7420746865206f776e657260448201526064016103b8565b600080610f6f84805480602002602001604051908101604052809291908181526020016000905b82821015610f65578382906000526020600020018054610ed890613cac565b80601f0160208091040260200160405190810160405280929190818152602001828054610f0490613cac565b8015610f515780601f10610f2657610100808354040283529160200191610f51565b820191906000526020600020905b815481529060010190602001808311610f3457829003601f168201915b505050505081526020019060010190610eb9565b505050508461187f565b9150915080610fb75760405162461bcd60e51b815260206004820152601460248201527329ba3934b733903737ba1034b71030b93930bc9760611b60448201526064016103b8565b8354600090610fc890600190613f4a565b905080831461101757848181548110610fe357610fe3613f05565b90600052602060002001858481548110610fff57610fff613f05565b9060005260206000200190816110159190613f5d565b505b848054806110275761102761402f565b60019003818190600052602060002001600061104391906135ad565b90555050505050565b600080546001600160a01b038381166001600160a01b0319831681178455604051919092169283917f8be0079c531659141344cd1fd0a4f28419497f9722a3daafe3b4186f6b6457e09190a35050565b6110a46135e7565b6000806110b386880188614045565b905060006110c186866118f0565b90506110cf82826001610a78565b506110d9826118fe565b93506110e88460e00151611a31565b61112c5760405162461bcd60e51b815260206004820152601560248201527409cde40ecc2d8d2c840e0e4deecd2c8cae490c2e6d605b1b60448201526064016103b8565b81604001519250505094509492505050565b6000670de0b6b3a76400008360c00151846040015161115d9190614079565b61116791906140a6565b9050600083602001516001600160a01b031663313ce5676040518163ffffffff1660e01b8152600401602060405180830381865afa1580156111ad573d6000803e3d6000fd5b505050506040513d601f19601f820116820180604052508101906111d191906140ba565b85519091506000906111e69060ff841661160b565b9050828110156112385760405162461bcd60e51b815260206004820152601860248201527f496e636f7272656374207061796d656e7420616d6f756e74000000000000000060448201526064016103b8565b83156112d65760008660a001516040516020016112559190613c90565b604051602081830303815290604052805190602001209050611284866080015161127e83611a5c565b90611c21565b6112d05760405162461bcd60e51b815260206004820152601b60248201527f496e636f7272656374207061796d656e7420726563697069656e74000000000060448201526064016103b8565b50611335565b608085015160a08701516112e991611c21565b6113355760405162461bcd60e51b815260206004820152601b60248201527f496e636f7272656374207061796d656e7420726563697069656e74000000000060448201526064016103b8565b60006002546103e861135560008a6020015161160b90919063ffffffff16565b61135f91906140a6565b61136991906140dd565b905085606001518110156113bf5760405162461bcd60e51b815260206004820152601b60248201527f496e636f7272656374207061796d656e742074696d657374616d70000000000060448201526064016103b8565b8560a0015187604001516040516020016113d99190613c90565b604051602081830303815290604052805190602001201461143c5760405162461bcd60e51b815260206004820152601a60248201527f496e636f7272656374207061796d656e742063757272656e637900000000000060448201526064016103b8565b6040517413d55511d3d25391d7d410565351539517d4d15395605a1b602082015260350160405160208183030381529060405280519060200120876080015160405160200161148b9190613c90565b60405160208183030381529060405280519060200120146114e75760405162461bcd60e51b8152602060048201526016602482015275496e76616c6964207061796d656e742073746174757360501b60448201526064016103b8565b50505050505050565b60015460405163169394bb60e01b8152600481018390526001600160a01b039091169063169394bb90602401602060405180830381865afa158015611539573d6000803e3d6000fd5b505050506040513d601f19601f8201168201806040525081019061155d91906140f0565b156115aa5760405162461bcd60e51b815260206004820152601f60248201527f4e756c6c69666965722068617320616c7265616479206265656e20757365640060448201526064016103b8565b600154604051632dea6f9960e11b8152600481018390526001600160a01b0390911690635bd4df3290602401600060405180830381600087803b1580156115f057600080fd5b505af1158015611604573d6000803e3d6000fd5b5050505050565b600061161c83601760f91b84611c7a565b90505b92915050565b6000806116818480548060200260200160405190810160405280929190818152602001828054801561167657602002820191906000526020600020905b815481526020019060010190808311611662575b505050505084611e57565b91509150806116ca5760405162461bcd60e51b8152602060048201526015602482015274313cba32b99999103737ba1034b71030b93930bc9760591b60448201526064016103b8565b83546000906116db90600190613f4a565b9050808314611720578481815481106116f6576116f6613f05565b906000526020600020015485848154811061171357611713613f05565b6000918252602090912001555b848054806117305761173061402f565b600190038181906000526020600020016000905590555050505050565b6000808260000151836020015184604001516040516020016117719392919061410d565b60408051601f1981840301815291905280516020909101209392505050565b606060006117a18360000151611ea7565b905060008360200151516001600160401b038111156117c2576117c2613645565b6040519080825280602002602001820160405280156117eb578160200160208202803683370190505b50905060005b84602001515181101561186157611825838660200151838151811061181857611818613f05565b6020026020010151611f33565b82828151811061183757611837613f05565b6001600160a01b03909216602092830291909101909101528061185981613f31565b9150506117f1565b509392505050565b6000806118768484611f7c565b95945050505050565b81516000908190815b818110156118dd5784805190602001208682815181106118aa576118aa613f05565b602002602001015180519060200120036118cb579250600191506118e99050565b806118d581613f31565b915050611888565b50600019600092509250505b9250929050565b606061161c82840184614168565b6119066135e7565b600061191d836000015160400151600b6001611fde565b90506040518061010001604052808260068151811061193e5761193e613f05565b602002602001015181526020018260098151811061195e5761195e613f05565b602002602001015181526020018260078151811061197e5761197e613f05565b602002602001015181526020018260048151811061199e5761199e613f05565b60200260200101518152602001826005815181106119be576119be613f05565b60200260200101518152602001826008815181106119de576119de613f05565b60200260200101518152602001826001815181106119fe576119fe613f05565b6020026020010151815260200182600a81518110611a1e57611a1e613f05565b6020026020010151815250915050919050565b6000600582604051611a439190613c90565b9081526040519081900360200190205460ff1692915050565b604080518082018252601081526f181899199a1a9b1b9c1cb0b131b232b360811b6020820152815160428082526080820190935260609260009190602082018180368337019050509050600360fc1b81600081518110611abe57611abe613f05565b60200101906001600160f81b031916908160001a905350600f60fb1b81600181518110611aed57611aed613f05565b60200101906001600160f81b031916908160001a90535060005b602081101561186157826004868360208110611b2557611b25613f05565b1a60f81b6001600160f81b031916901c60f81c60ff1681518110611b4b57611b4b613f05565b01602001516001600160f81b03191682611b66836002614079565b611b719060026140dd565b81518110611b8157611b81613f05565b60200101906001600160f81b031916908160001a90535082858260208110611bab57611bab613f05565b825191901a600f16908110611bc257611bc2613f05565b01602001516001600160f81b03191682611bdd836002614079565b611be89060036140dd565b81518110611bf857611bf8613f05565b60200101906001600160f81b031916908160001a90535080611c1981613f31565b915050611b07565b600081604051602001611c349190613c90565b6040516020818303038152906040528051906020012083604051602001611c5b9190613c90565b6040516020818303038152906040528051906020012014905092915050565b600083818080805b8451811015611dd057603060f81b858281518110611ca257611ca2613f05565b01602001516001600160f81b03191610801590611ce35750603960f81b858281518110611cd157611cd1613f05565b01602001516001600160f81b03191611155b15611d26576030858281518110611cfc57611cfc613f05565b0160200151611d0e919060f81c613f4a565b611d1985600a614079565b611d2391906140dd565b93505b8115611d3a5782611d3681613f31565b9350505b876001600160f81b031916858281518110611d5757611d57613f05565b01602001516001600160f81b03191603611dbe578115611db95760405162461bcd60e51b815260206004820152601c60248201527f537472696e6720686173206d756c7469706c6520646563696d616c730000000060448201526064016103b8565b600191505b80611dc881613f31565b915050611c82565b5085821115611e2c5760405162461bcd60e51b815260206004820152602260248201527f537472696e672068617320746f6f206d616e7920646563696d616c20706c6163604482015261657360f01b60648201526084016103b8565b611e368287613f4a565b611e4190600a614280565b611e4b9084614079565b98975050505050505050565b81516000908190815b818110156118dd5784868281518110611e7b57611e7b613f05565b602002602001015103611e95579250600191506118e99050565b80611e9f81613f31565b915050611e60565b6060611ed78260000151604051602001611ec391815260200190565b604051602081830303815290604052612eaf565b611ee48360200151613072565b611ef7846040015163ffffffff166131db565b611f0a856060015163ffffffff166131db565b604051602001611f1d949392919061428c565b6040516020818303038152906040529050919050565b600080611f4084516131db565b84604051602001611f52929190614305565b604051602081830303815290604052805190602001209050611f748184613306565b949350505050565b81516000908190815b818110156118dd57846001600160a01b0316868281518110611fa957611fa9613f05565b60200260200101516001600160a01b031603611fcc579250600191506118e99050565b80611fd681613f31565b915050611f85565b606060008360ff161161203d5760405162461bcd60e51b815260206004820152602160248201527f4d61782076616c756573206d7573742062652067726561746572207468616e206044820152600360fc1b60648201526084016103b8565b83600080808080806120508a6002614360565b60ff166001600160401b0381111561206a5761206a613645565b604051908082528060200260200182016040528015612093578160200160208202803683370190505b50905060005b604051806040016040528060138152602001723d9131b7b73a32bc3a20b2323932b9b9911d1160691b8152505181101561217257604051806040016040528060138152602001723d9131b7b73a32bc3a20b2323932b9b9911d1160691b815250818151811061210a5761210a613f05565b01602001516001600160f81b03191688612124838a6140dd565b8151811061213457612134613f05565b01602001516001600160f81b031916146121605760405162461bcd60e51b81526004016103b890614383565b8061216a81613f31565b915050612099565b50604051806040016040528060138152602001723d9131b7b73a32bc3a20b2323932b9b9911d1160691b81525051866121ab91906140dd565b95508593505b86518610801561222157508686815181106121ce576121ce613f05565b6020910101516001600160f81b031916601160f91b14801561221f5750866121f7600188613f4a565b8151811061220757612207613f05565b6020910101516001600160f81b031916601760fa1b14155b155b15612238578561223081613f31565b9650506121b1565b865186106122585760405162461bcd60e51b81526004016103b890614383565b8592508383036122c05760405162461bcd60e51b815260206004820152602d60248201527f45787472616374696f6e206661696c65642e20456d70747920636f6e7465787460448201526c416464726573732076616c756560981b60648201526084016103b8565b83816122cd876002614079565b815181106122dd576122dd613f05565b602090810291909101015282816122f5876002614079565b6123009060016140dd565b8151811061231057612310613f05565b60209081029190910101528461232581613f31565b955061233490506002876140dd565b955060005b604051806040016040528060128152602001711131b7b73a32bc3a26b2b9b9b0b3b2911d1160711b8152505181101561241057604051806040016040528060128152602001711131b7b73a32bc3a26b2b9b9b0b3b2911d1160711b81525081815181106123a8576123a8613f05565b01602001516001600160f81b031916886123c2838a6140dd565b815181106123d2576123d2613f05565b01602001516001600160f81b031916146123fe5760405162461bcd60e51b81526004016103b8906143ce565b8061240881613f31565b915050612339565b50604051806040016040528060128152602001711131b7b73a32bc3a26b2b9b9b0b3b2911d1160711b815250518661244891906140dd565b95508593505b8651861080156124be575086868151811061246b5761246b613f05565b6020910101516001600160f81b031916601160f91b1480156124bc575086612494600188613f4a565b815181106124a4576124a4613f05565b6020910101516001600160f81b031916601760fa1b14155b155b156124d557856124cd81613f31565b96505061244e565b865186106124f55760405162461bcd60e51b81526004016103b8906143ce565b85925083830361255d5760405162461bcd60e51b815260206004820152602d60248201527f45787472616374696f6e206661696c65642e20456d70747920636f6e7465787460448201526c4d6573736167652076616c756560981b60648201526084016103b8565b838161256a876002614079565b8151811061257a5761257a613f05565b60209081029190910101528281612592876002614079565b61259d9060016140dd565b815181106125ad576125ad613f05565b6020908102919091010152846125c281613f31565b95506125d190506002876140dd565b955060005b604051806040016040528060188152602001771132bc3a3930b1ba32b22830b930b6b2ba32b939911d3d9160411b8152505181101561270257604051806040016040528060188152602001771132bc3a3930b1ba32b22830b930b6b2ba32b939911d3d9160411b815250818151811061265157612651613f05565b01602001516001600160f81b0319168861266b838a6140dd565b8151811061267b5761267b613f05565b01602001516001600160f81b031916146126f05760405162461bcd60e51b815260206004820152603060248201527f45787472616374696f6e206661696c65642e204d616c666f726d65642065787460448201526f726163746564506172616d657465727360801b60648201526084016103b8565b806126fa81613f31565b9150506125d6565b50604051806040016040528060188152602001771132bc3a3930b1ba32b22830b930b6b2ba32b939911d3d9160411b815250518661274091906140dd565b9550600091505b8651861015612aea5786868151811061276257612762613f05565b6020910101516001600160f81b031916601160f91b1480156127b357508661278b600188613f4a565b8151811061279b5761279b613f05565b6020910101516001600160f81b031916601760fa1b14155b6127c957856127c181613f31565b965050612747565b816128d157866127da8760016140dd565b815181106127ea576127ea613f05565b6020910101516001600160f81b031916601d60f91b14801561283a5750866128138760026140dd565b8151811061282357612823613f05565b6020910101516001600160f81b031916601160f91b145b6128925760405162461bcd60e51b815260206004820152602360248201527f45787472616374696f6e206661696c65642e204d616c666f726d65642064617460448201526261203160e81b60648201526084016103b8565b61289d6003876140dd565b95506001915085816128b0876002614079565b815181106128c0576128c0613f05565b602002602001018181525050612747565b6000876128df8860016140dd565b815181106128ef576128ef613f05565b6020910101516001600160f81b031916600b60fa1b14801561293f5750876129188860026140dd565b8151811061292857612928613f05565b6020910101516001600160f81b031916601160f91b145b905060008861294f8960016140dd565b8151811061295f5761295f613f05565b6020910101516001600160f81b031916607d60f81b1480156129af5750886129888960026140dd565b8151811061299857612998613f05565b6020910101516001600160f81b031916600b60fa1b145b905081806129ba5750805b612a125760405162461bcd60e51b815260206004820152602360248201527f45787472616374696f6e206661696c65642e204d616c666f726d65642064617460448201526230901960e91b60648201526084016103b8565b8783612a1f896002614079565b612a2a9060016140dd565b81518110612a3a57612a3a613f05565b602090810291909101015286612a4f81613f31565b9750508115612acf578b60ff168703612ab95760405162461bcd60e51b815260206004820152602660248201527f45787472616374696f6e206661696c65642e204578636565646564206d61782060448201526576616c75657360d01b60648201526084016103b8565b612ac46003896140dd565b975060009350612ae3565b612ada6003896140dd565b97505050612aea565b5050612747565b8815612cf75760005b6040518060400160405280601081526020016f11383937bb34b232b92430b9b4111d1160811b81525051811015612c08576040518060400160405280601081526020016f11383937bb34b232b92430b9b4111d1160811b8152508181518110612b5e57612b5e613f05565b01602001516001600160f81b03191688612b78838a6140dd565b81518110612b8857612b88613f05565b01602001516001600160f81b03191614612bf65760405162461bcd60e51b815260206004820152602960248201527f45787472616374696f6e206661696c65642e204d616c666f726d65642070726f6044820152680ecd2c8cae490c2e6d60bb1b60648201526084016103b8565b80612c0081613f31565b915050612af3565b506040518060400160405280601081526020016f11383937bb34b232b92430b9b4111d1160811b8152505186612c3e91906140dd565b95508581612c4d876002614079565b81518110612c5d57612c5d613f05565b6020026020010181815250505b865186108015612c9f5750868681518110612c8757612c87613f05565b6020910101516001600160f81b031916601160f91b14155b15612cb65785612cae81613f31565b965050612c6a565b8581612cc3876002614079565b612cce9060016140dd565b81518110612cde57612cde613f05565b602090810291909101015284612cf381613f31565b9550505b6000856001600160401b03811115612d1157612d11613645565b604051908082528060200260200182016040528015612d4457816020015b6060815260200190600190039081612d2f5790505b50905060005b86811015612e9f5782612d5e826002614079565b81518110612d6e57612d6e613f05565b6020026020010151955082816002612d869190614079565b612d919060016140dd565b81518110612da157612da1613f05565b6020026020010151945060008686612db99190613f4a565b6001600160401b03811115612dd057612dd0613645565b6040519080825280601f01601f191660200182016040528015612dfa576020820181803683370190505b509050865b86811015612e6c578a8181518110612e1957612e19613f05565b01602001516001600160f81b03191682612e338a84613f4a565b81518110612e4357612e43613f05565b60200101906001600160f81b031916908160001a90535080612e6481613f31565b915050612dff565b5080838381518110612e8057612e80613f05565b6020026020010181905250508080612e9790613f31565b915050612d4a565b509b9a5050505050505050505050565b6060600082516002612ec19190614079565b6001600160401b03811115612ed857612ed8613645565b6040519080825280601f01601f191660200182016040528015612f02576020820181803683370190505b5060408051808201909152601081526f181899199a1a9b1b9c1cb0b131b232b360811b602082015290915060005b845181101561304857818251868381518110612f4e57612f4e613f05565b0160200151612f60919060f81c6140a6565b81518110612f7057612f70613f05565b01602001516001600160f81b03191683612f8b836002614079565b81518110612f9b57612f9b613f05565b60200101906001600160f81b031916908160001a905350818251868381518110612fc757612fc7613f05565b0160200151612fd9919060f81c614419565b81518110612fe957612fe9613f05565b01602001516001600160f81b03191683613004836002614079565b61300f9060016140dd565b8151811061301f5761301f613f05565b60200101906001600160f81b031916908160001a9053508061304081613f31565b915050612f30565b508160405160200161305a919061442d565b60405160208183030381529060405292505050919050565b60408051602880825260608281019093526000919060208201818036833701905050905060005b60148110156131b25760006130af826013613f4a565b6130ba906008614079565b6130c5906002614280565b6130d8906001600160a01b0387166140a6565b60f81b9050600060108260f81c6130ef9190614457565b60f81b905060008160f81c60106131069190614360565b8360f81c6131149190614479565b60f81b905061312282613322565b8561312e866002614079565b8151811061313e5761313e613f05565b60200101906001600160f81b031916908160001a90535061315e81613322565b8561316a866002614079565b6131759060016140dd565b8151811061318557613185613f05565b60200101906001600160f81b031916908160001a90535050505080806131aa90613f31565b915050613099565b50806040516020016131c4919061442d565b604051602081830303815290604052915050919050565b6060816000036132025750506040805180820190915260018152600360fc1b602082015290565b8160005b811561322c578061321681613f31565b91506132259050600a836140a6565b9150613206565b6000816001600160401b0381111561324657613246613645565b6040519080825280601f01601f191660200182016040528015613270576020820181803683370190505b509050815b85156132fd57613286600182613f4a565b90506000613295600a886140a6565b6132a090600a614079565b6132aa9088613f4a565b6132b5906030614492565b905060008160f81b9050808484815181106132d2576132d2613f05565b60200101906001600160f81b031916908160001a9053506132f4600a896140a6565b97505050613275565b50949350505050565b6000806000613315858561335d565b915091506118618161339f565b6000600a60f883901c10156133495761334060f883901c6030614492565b60f81b92915050565b61334060f883901c6057614492565b919050565b60008082516041036133935760208301516040840151606085015160001a613387878285856134e9565b945094505050506118e9565b506000905060026118e9565b60008160048111156133b3576133b36144ab565b036133bb5750565b60018160048111156133cf576133cf6144ab565b0361341c5760405162461bcd60e51b815260206004820152601860248201527f45434453413a20696e76616c6964207369676e6174757265000000000000000060448201526064016103b8565b6002816004811115613430576134306144ab565b0361347d5760405162461bcd60e51b815260206004820152601f60248201527f45434453413a20696e76616c6964207369676e6174757265206c656e6774680060448201526064016103b8565b6003816004811115613491576134916144ab565b03610a755760405162461bcd60e51b815260206004820152602260248201527f45434453413a20696e76616c6964207369676e6174757265202773272076616c604482015261756560f01b60648201526084016103b8565b6000807f7fffffffffffffffffffffffffffffff5d576e7357a4501ddfe92f46681b20a083111561352057506000905060036135a4565b6040805160008082526020820180845289905260ff881692820192909252606081018690526080810185905260019060a0016020604051602081039080840390855afa158015613574573d6000803e3d6000fd5b5050604051601f1901519150506001600160a01b03811661359d576000600192509250506135a4565b9150600090505b94509492505050565b5080546135b990613cac565b6000825580601f106135c9575050565b601f016020900490600052602060002090810190610a75919061362c565b60405180610100016040528060608152602001606081526020016060815260200160608152602001606081526020016060815260200160608152602001606081525090565b5b80821115613641576000815560010161362d565b5090565b634e487b7160e01b600052604160045260246000fd5b604051608081016001600160401b038111828210171561367d5761367d613645565b60405290565b604051606081016001600160401b038111828210171561367d5761367d613645565b60405161010081016001600160401b038111828210171561367d5761367d613645565b604051601f8201601f191681016001600160401b03811182821017156136f0576136f0613645565b604052919050565b600082601f83011261370957600080fd5b81356001600160401b0381111561372257613722613645565b613735601f8201601f19166020016136c8565b81815284602083860101111561374a57600080fd5b816020850160208301376000918101602001919091529392505050565b60006020828403121561377957600080fd5b81356001600160401b0381111561378f57600080fd5b611f74848285016136f8565b6000602082840312156137ad57600080fd5b5035919050565b60005b838110156137cf5781810151838201526020016137b7565b50506000910152565b600081518084526137f08160208601602086016137b4565b601f01601f19169290920160200192915050565b60208152600061161c60208301846137d8565b6020808252825182820181905260009190848201906040850190845b8181101561384f57835183529284019291840191600101613833565b50909695505050505050565b60006020828403121561386d57600080fd5b81356001600160401b0381111561388357600080fd5b8201610100818503121561389657600080fd5b9392505050565b6000602080830181845280855180835260408601915060408160051b870101925083870160005b828110156138f257603f198886030184526138e08583516137d8565b945092850192908501906001016138c4565b5092979650505050505050565b80356001600160a01b038116811461335857600080fd5b60006020828403121561392857600080fd5b61161c826138ff565b803563ffffffff8116811461335857600080fd5b60006001600160401b0382111561395e5761395e613645565b5060051b60200190565b600082601f83011261397957600080fd5b8135602061398e61398983613945565b6136c8565b82815260059290921b840181019181810190868411156139ad57600080fd5b8286015b848110156139ec5780356001600160401b038111156139d05760008081fd5b6139de8986838b01016136f8565b8452509183019183016139b1565b509695505050505050565b600081830360a0811215613a0a57600080fd5b604051604081016001600160401b038282108183111715613a2d57613a2d613645565b816040528294506080841215613a4257600080fd5b613a4a61365b565b935085358452613a5c602087016138ff565b6020850152613a6d60408701613931565b6040850152613a7e60608701613931565b606085015292825260808501359280841115613a9957600080fd5b5050613aa785838601613968565b6020820152505092915050565b8015158114610a7557600080fd5b803561335881613ab4565b600060608284031215613adf57600080fd5b613ae7613683565b905081356001600160401b0380821115613b0057600080fd5b9083019060608286031215613b1457600080fd5b613b1c613683565b823582811115613b2b57600080fd5b613b37878286016136f8565b825250602083013582811115613b4c57600080fd5b613b58878286016136f8565b602083015250604083013582811115613b7057600080fd5b613b7c878286016136f8565b60408301525083526020840135915080821115613b9857600080fd5b50613ba5848285016139f7565b602083015250613bb760408301613ac2565b604082015292915050565b600082601f830112613bd357600080fd5b81356020613be361398983613945565b82815260059290921b84018101918181019086841115613c0257600080fd5b8286015b848110156139ec57613c17816138ff565b8352918301918301613c06565b600080600060608486031215613c3957600080fd5b83356001600160401b0380821115613c5057600080fd5b613c5c87838801613acd565b94506020860135915080821115613c7257600080fd5b50613c7f86828701613bc2565b925050604084013590509250925092565b60008251613ca28184602087016137b4565b9190910192915050565b600181811c90821680613cc057607f821691505b602082108103613ce057634e487b7160e01b600052602260045260246000fd5b50919050565b6000808335601e19843603018112613cfd57600080fd5b8301803591506001600160401b03821115613d1757600080fd5b6020019150368190038213156118e957600080fd5b60006101008236031215613d3f57600080fd5b613d476136a5565b82356001600160401b0380821115613d5e57600080fd5b613d6a368387016136f8565b8352613d78602086016138ff565b602084015260408501356040840152606085013560608401526080850135915080821115613da557600080fd5b613db1368387016136f8565b608084015260a085013560a084015260c085013560c084015260e0850135915080821115613dde57600080fd5b50613deb368286016136f8565b60e08301525092915050565b601f821115613e4157600081815260208120601f850160051c81016020861015613e1e5750805b601f850160051c820191505b81811015613e3d57828155600101613e2a565b5050505b505050565b81516001600160401b03811115613e5f57613e5f613645565b613e7381613e6d8454613cac565b84613df7565b602080601f831160018114613ea85760008415613e905750858301515b600019600386901b1c1916600185901b178555613e3d565b600085815260208120601f198616915b82811015613ed757888601518255948401946001909101908401613eb8565b5085821015613ef55787850151600019600388901b60f8161c191681555b5050505050600190811b01905550565b634e487b7160e01b600052603260045260246000fd5b634e487b7160e01b600052601160045260246000fd5b600060018201613f4357613f43613f1b565b5060010190565b8181038181111561161f5761161f613f1b565b818103613f68575050565b613f728254613cac565b6001600160401b03811115613f8957613f89613645565b613f9781613e6d8454613cac565b6000601f821160018114613fcb5760008315613fb35750848201545b600019600385901b1c1916600184901b178455611604565b600085815260209020601f19841690600086815260209020845b838110156140055782860154825560019586019590910190602001613fe5565b5085831015613ef55793015460001960f8600387901b161c19169092555050600190811b01905550565b634e487b7160e01b600052603160045260246000fd5b60006020828403121561405757600080fd5b81356001600160401b0381111561406d57600080fd5b611f7484828501613acd565b808202811582820484141761161f5761161f613f1b565b634e487b7160e01b600052601260045260246000fd5b6000826140b5576140b5614090565b500490565b6000602082840312156140cc57600080fd5b815160ff8116811461389657600080fd5b8082018082111561161f5761161f613f1b565b60006020828403121561410257600080fd5b815161389681613ab4565b6000845161411f8184602089016137b4565b600560f91b9083018181528551909190614140816001850160208a016137b4565b6001920191820152835161415b8160028401602088016137b4565b0160020195945050505050565b60006020828403121561417a57600080fd5b81356001600160401b0381111561419057600080fd5b611f7484828501613bc2565b600181815b808511156141d75781600019048211156141bd576141bd613f1b565b808516156141ca57918102915b93841c93908002906141a1565b509250929050565b6000826141ee5750600161161f565b816141fb5750600061161f565b8160018114614211576002811461421b57614237565b600191505061161f565b60ff84111561422c5761422c613f1b565b50506001821b61161f565b5060208310610133831016604e8410600b841016171561425a575081810a61161f565b614264838361419c565b806000190482111561427857614278613f1b565b029392505050565b600061161c83836141df565b6000855161429e818460208a016137b4565b600560f91b90830181815286519091906142bf816001850160208b016137b4565b6001920191820181905285516142dc816002850160208a016137b4565b600292019182015283516142f78160038401602088016137b4565b016003019695505050505050565b7f19457468657265756d205369676e6564204d6573736167653a0a00000000000081526000835161433d81601a8501602088016137b4565b83519083019061435481601a8401602088016137b4565b01601a01949350505050565b60ff818116838216029081169081811461437c5761437c613f1b565b5092915050565b6020808252602b908201527f45787472616374696f6e206661696c65642e204d616c666f726d656420636f6e60408201526a746578744164647265737360a81b606082015260800190565b6020808252602b908201527f45787472616374696f6e206661696c65642e204d616c666f726d656420636f6e60408201526a746578744d65737361676560a81b606082015260800190565b60008261442857614428614090565b500690565b61060f60f31b81526000825161444a8160028501602087016137b4565b9190910160020192915050565b600060ff83168061446a5761446a614090565b8060ff84160491505092915050565b60ff828116828216039081111561161f5761161f613f1b565b60ff818116838216019081111561161f5761161f613f1b565b634e487b7160e01b600052602160045260246000fdfea2646970667358221220539957b77e74344ed9de51674923be4cbbbbea89eb2ecaa1b319204c7e233e7e64736f6c63430008120033",
  "devdoc": {
    "kind": "dev",
    "methods": {
      "addCurrency(bytes32)": {
        "params": {
          "_currencyCode": "Currency code to add"
        }
      },
      "addProviderHash(string)": {
        "params": {
          "_newProviderHash": "New provider hash to be added"
        }
      },
      "owner()": {
        "details": "Returns the address of the current owner."
      },
      "removeCurrency(bytes32)": {
        "params": {
          "_currencyCode": "Currency code to remove"
        }
      },
      "removeProviderHash(string)": {
        "params": {
          "_removeProviderHash": "Provider hash to be removed"
        }
      },
      "renounceOwnership()": {
        "details": "Leaves the contract without owner. It will not be possible to call `onlyOwner` functions. Can only be called by the current owner. NOTE: Renouncing ownership will leave the contract without an owner, thereby disabling any functionality that is only available to the owner."
      },
      "setTimestampBuffer(uint256)": {
        "params": {
          "_timestampBuffer": "The timestamp buffer for payments"
        }
      },
      "transferOwnership(address)": {
        "details": "Transfers ownership of the contract to a new account (`newOwner`). Can only be called by the current owner."
      },
      "verifyPayment((bytes,address,uint256,uint256,string,bytes32,uint256,bytes))": {
        "params": {
          "_verifyPaymentData": "Payment proof and intent details required for verification"
        }
      },
      "verifyProofSignatures(((string,string,string),((bytes32,address,uint32,uint32),bytes[]),bool),address[],uint256)": {
        "params": {
          "_requiredThreshold": "Minimum number of signatures required from accepted witnesses",
          "_witnesses": "List of accepted witnesses",
          "proof": "Proof to be verified"
        }
      }
    },
    "version": 1
  },
  "userdoc": {
    "kind": "user",
    "methods": {
      "addCurrency(bytes32)": {
        "notice": "OWNER ONLY: Adds a currency code to supported currencies"
      },
      "addProviderHash(string)": {
        "notice": "ONLY OWNER: Add provider hash string. Provider hash must not have been previously added."
      },
      "removeCurrency(bytes32)": {
        "notice": "OWNER ONLY: Removes a currency code from supported currencies"
      },
      "removeProviderHash(string)": {
        "notice": "ONLY OWNER: Remove provider hash string. Provider hash must have been previously added."
      },
      "setTimestampBuffer(uint256)": {
        "notice": "OWNER ONLY: Sets the timestamp buffer for payments. This is the amount of time in seconds that the timestamp can be off by and still be considered valid. Necessary to build in flexibility  with L2 timestamps."
      },
      "verifyPayment((bytes,address,uint256,uint256,string,bytes32,uint256,bytes))": {
        "notice": "ONLY RAMP: Verifies a reclaim proof of an offchain Venmo payment. Ensures the right _intentAmount * _conversionRate USD was paid to _payeeDetails after _intentTimestamp + timestampBuffer on Venmo. Note: For Venmo fiat currency is always USD. For other verifiers which support multiple currencies, _fiatCurrency needs to be checked against the fiat currency in the proof."
      },
      "verifyProofSignatures(((string,string,string),((bytes32,address,uint32,uint32),bytes[]),bool),address[],uint256)": {
        "notice": "Verify proof generated by witnesses. Claim is constructed by hashing claimInfo (provider, context, parameters) to get the identifier. And then signing on (identifier, owner, timestamp, epoch) to get claim signature.  This function verifies a claim by performing the following checks on the claim - Calculates the hash of the claimInfo and checks if it matches the identifier in the claim - Checks if the signatures are valid and from the witnesses This function reverts if - No signatures are found on the proof - ClaimInfo hash does not match the identifier in the claim - Signatures are invalid (not from the witnesses)  DEV NOTE: This function does NOT validate that the claim provider hash is valid. That is the  responsibility of the caller. Ensure witnesses are unique otherwise the threshold can be met  with duplicate witnesses.  Parts of the code are adapted from: https://basescan.org/address/0x7281630e4346dd4c0b7ae3b4689c1d0102741410#code    "
      }
    },
    "version": 1
  },
  "storageLayout": {
    "storage": [
      {
        "astId": 7,
        "contract": "contracts/verifiers/WiseReclaimVerifier.sol:WiseReclaimVerifier",
        "label": "_owner",
        "offset": 0,
        "slot": "0",
        "type": "t_address"
      },
      {
        "astId": 9452,
        "contract": "contracts/verifiers/WiseReclaimVerifier.sol:WiseReclaimVerifier",
        "label": "nullifierRegistry",
        "offset": 0,
        "slot": "1",
        "type": "t_contract(INullifierRegistry)15265"
      },
      {
        "astId": 9454,
        "contract": "contracts/verifiers/WiseReclaimVerifier.sol:WiseReclaimVerifier",
        "label": "timestampBuffer",
        "offset": 0,
        "slot": "2",
        "type": "t_uint256"
      },
      {
        "astId": 9457,
        "contract": "contracts/verifiers/WiseReclaimVerifier.sol:WiseReclaimVerifier",
        "label": "currencies",
        "offset": 0,
        "slot": "3",
        "type": "t_array(t_bytes32)dyn_storage"
      },
      {
        "astId": 9461,
        "contract": "contracts/verifiers/WiseReclaimVerifier.sol:WiseReclaimVerifier",
        "label": "isCurrency",
        "offset": 0,
        "slot": "4",
        "type": "t_mapping(t_bytes32,t_bool)"
      },
      {
        "astId": 9658,
        "contract": "contracts/verifiers/WiseReclaimVerifier.sol:WiseReclaimVerifier",
        "label": "isProviderHash",
        "offset": 0,
        "slot": "5",
        "type": "t_mapping(t_string_memory_ptr,t_bool)"
      },
      {
        "astId": 9661,
        "contract": "contracts/verifiers/WiseReclaimVerifier.sol:WiseReclaimVerifier",
        "label": "providerHashes",
        "offset": 0,
        "slot": "6",
        "type": "t_array(t_string_storage)dyn_storage"
      }
    ],
    "types": {
      "t_address": {
        "encoding": "inplace",
        "label": "address",
        "numberOfBytes": "20"
      },
      "t_array(t_bytes32)dyn_storage": {
        "base": "t_bytes32",
        "encoding": "dynamic_array",
        "label": "bytes32[]",
        "numberOfBytes": "32"
      },
      "t_array(t_string_storage)dyn_storage": {
        "base": "t_string_storage",
        "encoding": "dynamic_array",
        "label": "string[]",
        "numberOfBytes": "32"
      },
      "t_bool": {
        "encoding": "inplace",
        "label": "bool",
        "numberOfBytes": "1"
      },
      "t_bytes32": {
        "encoding": "inplace",
        "label": "bytes32",
        "numberOfBytes": "32"
      },
      "t_contract(INullifierRegistry)15265": {
        "encoding": "inplace",
        "label": "contract INullifierRegistry",
        "numberOfBytes": "20"
      },
      "t_mapping(t_bytes32,t_bool)": {
        "encoding": "mapping",
        "key": "t_bytes32",
        "label": "mapping(bytes32 => bool)",
        "numberOfBytes": "32",
        "value": "t_bool"
      },
      "t_mapping(t_string_memory_ptr,t_bool)": {
        "encoding": "mapping",
        "key": "t_string_memory_ptr",
        "label": "mapping(string => bool)",
        "numberOfBytes": "32",
        "value": "t_bool"
      },
      "t_string_memory_ptr": {
        "encoding": "bytes",
        "label": "string",
        "numberOfBytes": "32"
      },
      "t_string_storage": {
        "encoding": "bytes",
        "label": "string",
        "numberOfBytes": "32"
      },
      "t_uint256": {
        "encoding": "inplace",
        "label": "uint256",
        "numberOfBytes": "32"
      }
    }
  }
}