{
  "address": "0xc94BCbb3DE1Fb69D113b2766172cF484738c3ac1",
  "abi": [
    {
      "inputs": [
        {
          "internalType": "address",
          "name": "_baseVerifier",
          "type": "address"
        },
        {
          "internalType": "contract INullifierRegistry",
          "name": "_nullifierRegistry",
          "type": "address"
        },
        {
          "internalType": "string[]",
          "name": "_providerHashes",
          "type": "string[]"
        },
        {
          "internalType": "uint256",
          "name": "_timestampBuffer",
          "type": "uint256"
        }
      ],
      "stateMutability": "nonpayable",
      "type": "constructor"
    },
    {
      "anonymous": false,
      "inputs": [
        {
          "indexed": true,
          "internalType": "address",
          "name": "previousOwner",
          "type": "address"
        },
        {
          "indexed": true,
          "internalType": "address",
          "name": "newOwner",
          "type": "address"
        }
      ],
      "name": "OwnershipTransferred",
      "type": "event"
    },
    {
      "anonymous": false,
      "inputs": [
        {
          "indexed": false,
          "internalType": "string",
          "name": "providerHash",
          "type": "string"
        }
      ],
      "name": "ProviderHashAdded",
      "type": "event"
    },
    {
      "anonymous": false,
      "inputs": [
        {
          "indexed": false,
          "internalType": "string",
          "name": "providerHash",
          "type": "string"
        }
      ],
      "name": "ProviderHashRemoved",
      "type": "event"
    },
    {
      "anonymous": false,
      "inputs": [
        {
          "indexed": false,
          "internalType": "uint256",
          "name": "newTimestampBuffer",
          "type": "uint256"
        }
      ],
      "name": "TimestampBufferSet",
      "type": "event"
    },
    {
      "inputs": [],
      "name": "COMPLETED_STATUS",
      "outputs": [
        {
          "internalType": "bytes32",
          "name": "",
          "type": "bytes32"
        }
      ],
      "stateMutability": "view",
      "type": "function"
    },
    {
      "inputs": [
        {
          "internalType": "string",
          "name": "_newProviderHash",
          "type": "string"
        }
      ],
      "name": "addProviderHash",
      "outputs": [],
      "stateMutability": "nonpayable",
      "type": "function"
    },
    {
      "inputs": [],
      "name": "baseVerifier",
      "outputs": [
        {
          "internalType": "address",
          "name": "",
          "type": "address"
        }
      ],
      "stateMutability": "view",
      "type": "function"
    },
    {
      "inputs": [],
      "name": "getProviderHashes",
      "outputs": [
        {
          "internalType": "string[]",
          "name": "",
          "type": "string[]"
        }
      ],
      "stateMutability": "view",
      "type": "function"
    },
    {
      "inputs": [
        {
          "internalType": "string",
          "name": "",
          "type": "string"
        }
      ],
      "name": "isProviderHash",
      "outputs": [
        {
          "internalType": "bool",
          "name": "",
          "type": "bool"
        }
      ],
      "stateMutability": "view",
      "type": "function"
    },
    {
      "inputs": [],
      "name": "nullifierRegistry",
      "outputs": [
        {
          "internalType": "contract INullifierRegistry",
          "name": "",
          "type": "address"
        }
      ],
      "stateMutability": "view",
      "type": "function"
    },
    {
      "inputs": [],
      "name": "owner",
      "outputs": [
        {
          "internalType": "address",
          "name": "",
          "type": "address"
        }
      ],
      "stateMutability": "view",
      "type": "function"
    },
    {
      "inputs": [
        {
          "internalType": "uint256",
          "name": "",
          "type": "uint256"
        }
      ],
      "name": "providerHashes",
      "outputs": [
        {
          "internalType": "string",
          "name": "",
          "type": "string"
        }
      ],
      "stateMutability": "view",
      "type": "function"
    },
    {
      "inputs": [
        {
          "internalType": "string",
          "name": "_removeProviderHash",
          "type": "string"
        }
      ],
      "name": "removeProviderHash",
      "outputs": [],
      "stateMutability": "nonpayable",
      "type": "function"
    },
    {
      "inputs": [],
      "name": "renounceOwnership",
      "outputs": [],
      "stateMutability": "nonpayable",
      "type": "function"
    },
    {
      "inputs": [
        {
          "internalType": "uint256",
          "name": "_timestampBuffer",
          "type": "uint256"
        }
      ],
      "name": "setTimestampBuffer",
      "outputs": [],
      "stateMutability": "nonpayable",
      "type": "function"
    },
    {
      "inputs": [],
      "name": "timestampBuffer",
      "outputs": [
        {
          "internalType": "uint256",
          "name": "",
          "type": "uint256"
        }
      ],
      "stateMutability": "view",
      "type": "function"
    },
    {
      "inputs": [
        {
          "internalType": "address",
          "name": "newOwner",
          "type": "address"
        }
      ],
      "name": "transferOwnership",
      "outputs": [],
      "stateMutability": "nonpayable",
      "type": "function"
    },
    {
      "inputs": [
        {
          "components": [
            {
              "internalType": "bytes",
              "name": "paymentProof",
              "type": "bytes"
            },
            {
              "internalType": "address",
              "name": "depositToken",
              "type": "address"
            },
            {
              "internalType": "uint256",
              "name": "intentAmount",
              "type": "uint256"
            },
            {
              "internalType": "uint256",
              "name": "intentTimestamp",
              "type": "uint256"
            },
            {
              "internalType": "string",
              "name": "payeeDetails",
              "type": "string"
            },
            {
              "internalType": "bytes32",
              "name": "fiatCurrency",
              "type": "bytes32"
            },
            {
              "internalType": "uint256",
              "name": "conversionRate",
              "type": "uint256"
            },
            {
              "internalType": "bytes",
              "name": "depositData",
              "type": "bytes"
            },
            {
              "internalType": "bytes",
              "name": "data",
              "type": "bytes"
            }
          ],
          "internalType": "struct IPaymentVerifier.VerifyPaymentData",
          "name": "_verifyPaymentData",
          "type": "tuple"
        }
      ],
      "name": "verifyPayment",
      "outputs": [
        {
          "components": [
            {
              "internalType": "bool",
              "name": "success",
              "type": "bool"
            },
            {
              "internalType": "bytes32",
              "name": "intentHash",
              "type": "bytes32"
            },
            {
              "internalType": "uint256",
              "name": "releaseAmount",
              "type": "uint256"
            },
            {
              "internalType": "bytes32",
              "name": "paymentCurrency",
              "type": "bytes32"
            },
            {
              "internalType": "string",
              "name": "paymentId",
              "type": "string"
            }
          ],
          "internalType": "struct IPaymentVerifier.PaymentVerificationResult",
          "name": "",
          "type": "tuple"
        }
      ],
      "stateMutability": "nonpayable",
      "type": "function"
    },
    {
      "inputs": [
        {
          "components": [
            {
              "components": [
                {
                  "internalType": "string",
                  "name": "provider",
                  "type": "string"
                },
                {
                  "internalType": "string",
                  "name": "parameters",
                  "type": "string"
                },
                {
                  "internalType": "string",
                  "name": "context",
                  "type": "string"
                }
              ],
              "internalType": "struct Claims.ClaimInfo",
              "name": "claimInfo",
              "type": "tuple"
            },
            {
              "components": [
                {
                  "components": [
                    {
                      "internalType": "bytes32",
                      "name": "identifier",
                      "type": "bytes32"
                    },
                    {
                      "internalType": "address",
                      "name": "owner",
                      "type": "address"
                    },
                    {
                      "internalType": "uint32",
                      "name": "timestampS",
                      "type": "uint32"
                    },
                    {
                      "internalType": "uint32",
                      "name": "epoch",
                      "type": "uint32"
                    }
                  ],
                  "internalType": "struct Claims.CompleteClaimData",
                  "name": "claim",
                  "type": "tuple"
                },
                {
                  "internalType": "bytes[]",
                  "name": "signatures",
                  "type": "bytes[]"
                }
              ],
              "internalType": "struct Claims.SignedClaim",
              "name": "signedClaim",
              "type": "tuple"
            }
          ],
          "internalType": "struct IReclaimVerifier.ReclaimProof",
          "name": "proof",
          "type": "tuple"
        },
        {
          "internalType": "address[]",
          "name": "_witnesses",
          "type": "address[]"
        },
        {
          "internalType": "uint256",
          "name": "_requiredThreshold",
          "type": "uint256"
        }
      ],
      "name": "verifyProofSignatures",
      "outputs": [
        {
          "internalType": "bool",
          "name": "",
          "type": "bool"
        }
      ],
      "stateMutability": "pure",
      "type": "function"
    }
  ],
  "transactionHash": "0xb08f0e212f2c65879cb016bd36e1efabb525a1fc05e9c3936690cb18928bf26c",
  "args": [
    "0x6577d3645f8fE66833E9B927B37798a4f303EA90",
    "0xbfEe97ec04f21882E4F23D32631477D653839AcB",
    [
      "0x05eecaa422b995a513376f7ae0b3a16fab2bdcb7fb1eff38891475b56869a1bd",
      "0x7590feb5bf279eb5f0dbd6e419f29d3af8ec99dbdef405337758dbab813b83ac",
      "0x224453b6c54ab9d24d4d3c44c65fd41bf7c688d0a2945764c69097bb4096a232",
      "0x0f311d08ccd33835f7aaaaa1a3bd5f9bc8842f62b5e6f6016774d598209d81a6",
      "0x7063a969be444967642532977090a320c346eb0b9c0e37ebfcfe3c075f9f3f9e",
      "0x82667fe5517814d3ba3f4b6baa47913e436aa7ffcd051b4a66b24f0c66e3ea29",
      "0x17e8e900bdf8b54faeb3f04183993df5dd31367c7fa29e6b904ef8946c4372e8",
      "0x6fcd28cfd89f1ccb063574ec30d12ab46051920b2f44fafea9d140ef41fbc6a8",
      "0x43a10fdadcfd24fcc159d592bde69210afc955a3f62a89d42beb1c3bf59fc005",
      "0x85a910986d8579cea44c77b86877bf34615ea03bca2c5401e275463d669adbdb"
    ],
    "86400"
  ],
  "numDeployments": 1,
  "solcInputHash": "22aa06e4f37e501f1f267dbeb03cdb0b",
  "bytecode": "0x60a06040523480156200001157600080fd5b5060405162004a6538038062004a658339810160408190526200003491620002ec565b81620000403362000214565b60005b8151811015620001e157600182828151811062000064576200006462000448565b60200260200101516040516200007b91906200045e565b9081526040519081900360200190205460ff1615620000e05760405162461bcd60e51b815260206004820152601b60248201527f50726f7669646572206861736820616c72656164792061646465640000000000604482015260640160405180910390fd5b600180838381518110620000f857620000f862000448565b60200260200101516040516200010f91906200045e565b908152602001604051809103902060006101000a81548160ff02191690831515021790555060028282815181106200014b576200014b62000448565b602090810291909101810151825460018101845560009384529190922001906200017690826200050b565b507fc9e1c78701d1853eeb1eb35ad3449e4b336281f672d5837243d21239dc6f4096828281518110620001ad57620001ad62000448565b6020026020010151604051620001c49190620005d7565b60405180910390a180620001d8816200060c565b91505062000043565b50506001600160a01b03938416608052600380546001600160a01b03191693909416929092179092556004555062000634565b600080546001600160a01b038381166001600160a01b0319831681178455604051919092169283917f8be0079c531659141344cd1fd0a4f28419497f9722a3daafe3b4186f6b6457e09190a35050565b6001600160a01b03811681146200027a57600080fd5b50565b634e487b7160e01b600052604160045260246000fd5b604051601f8201601f191681016001600160401b0381118282101715620002be57620002be6200027d565b604052919050565b60005b83811015620002e3578181015183820152602001620002c9565b50506000910152565b600080600080608085870312156200030357600080fd5b8451620003108162000264565b80945050602080860151620003258162000264565b60408701519094506001600160401b03808211156200034357600080fd5b818801915088601f8301126200035857600080fd5b8151818111156200036d576200036d6200027d565b8060051b6200037e85820162000293565b918252838101850191858101908c8411156200039957600080fd5b86860192505b838310156200043257825185811115620003b95760008081fd5b8601603f81018e13620003cc5760008081fd5b8781015186811115620003e357620003e36200027d565b620003f7601f8201601f19168a0162000293565b8181528f60408385010111156200040e5760008081fd5b62000420828b830160408601620002c6565b8452505091860191908601906200039f565b60609b909b0151999c989b505050505050505050565b634e487b7160e01b600052603260045260246000fd5b6000825162000472818460208701620002c6565b9190910192915050565b600181811c908216806200049157607f821691505b602082108103620004b257634e487b7160e01b600052602260045260246000fd5b50919050565b601f8211156200050657600081815260208120601f850160051c81016020861015620004e15750805b601f850160051c820191505b818110156200050257828155600101620004ed565b5050505b505050565b81516001600160401b038111156200052757620005276200027d565b6200053f816200053884546200047c565b84620004b8565b602080601f8311600181146200057757600084156200055e5750858301515b600019600386901b1c1916600185901b17855562000502565b600085815260208120601f198616915b82811015620005a85788860151825594840194600190910190840162000587565b5085821015620005c75787850151600019600388901b60f8161c191681555b5050505050600190811b01905550565b6020815260008251806020840152620005f8816040850160208701620002c6565b601f01601f19169190910160400192915050565b6000600182016200062d57634e487b7160e01b600052601160045260246000fd5b5060010190565b60805161440e620006576000396000818161025d01526103c5015261440e6000f3fe608060405234801561001057600080fd5b50600436106100f55760003560e01c8063b2a3fda411610097578063dbac582111610066578063dbac58211461024f578063ea4a7bd714610258578063f2fde38b1461027f578063f75885e21461029257600080fd5b8063b2a3fda414610201578063b870676c14610214578063bd6e774114610227578063c2107e731461023a57600080fd5b80633e7f2275116100d35780633e7f22751461019457806357c6e12a146101b4578063715018a6146101d45780638da5cb5b146101dc57600080fd5b806315bfa612146100fa5780631cba9bed146101415780632ca6927d14610156575b600080fd5b61012e6040516810d3d354131155115160ba1b60208201526029016040516020818303038152906040528051906020012081565b6040519081526020015b60405180910390f35b61015461014f3660046135bb565b6102a5565b005b6101846101643660046135bb565b805160208183018101805160018252928201919093012091525460ff1681565b6040519015158152602001610138565b6101a76101a23660046135ef565b61038d565b604051610138919061367a565b6101c76101c23660046136bf565b61050b565b60405161013891906136d8565b6101546105b7565b6000546001600160a01b03165b6040516001600160a01b039091168152602001610138565b61015461020f3660046136bf565b6105cb565b6003546101e9906001600160a01b031681565b6101546102353660046135bb565b610608565b61024261071d565b60405161013891906136eb565b61012e60045481565b6101e97f000000000000000000000000000000000000000000000000000000000000000081565b61015461028d366004613764565b6107f6565b6101846102a0366004613a39565b61086f565b6102ad610c2f565b6001816040516102bd9190613aa5565b9081526040519081900360200190205460ff166103215760405162461bcd60e51b815260206004820152601760248201527f50726f76696465722068617368206e6f7420666f756e6400000000000000000060448201526064015b60405180910390fd5b6001816040516103319190613aa5565b908152604051908190036020019020805460ff19169055610353600282610c89565b7f6f594b4b4f0580c66aabba75218163a99fa1fe330a171cc9e2bfd8e167db22f88160405161038291906136d8565b60405180910390a150565b6040805160a0810182526000808252602082018190529181018290526060808201929092526080810191909152336001600160a01b037f000000000000000000000000000000000000000000000000000000000000000016146104325760405162461bcd60e51b815260206004820152601b60248201527f4f6e6c7920626173652076657269666965722063616e2063616c6c00000000006044820152606401610318565b60006104536104418480613ac1565b61044e60e0870187613ac1565b610e43565b905060006104698261046486613b07565b610f14565b90506000610480828660c00135876040013561118e565b90506104b5836040015160405160200161049a9190613aa5565b604051602081830303815290604052805190602001206111c3565b6040518060a001604052806001151581526020016104e160008660a001516112de90919063ffffffff16565b60001b81526020018281526020018660a00135815260200184604001518152509350505050919050565b6002818154811061051b57600080fd5b90600052602060002001600091509050805461053690613bfc565b80601f016020809104026020016040519081016040528092919081815260200182805461056290613bfc565b80156105af5780601f10610584576101008083540402835291602001916105af565b820191906000526020600020905b81548152906001019060200180831161059257829003601f168201915b505050505081565b6105bf610c2f565b6105c960006112f6565b565b6105d3610c2f565b60048190556040518181527f11e8dda5412ecab251b7783921be2eb37fdf13b389fc7f671f2cee11a1dfefea90602001610382565b610610610c2f565b6001816040516106209190613aa5565b9081526040519081900360200190205460ff16156106805760405162461bcd60e51b815260206004820152601b60248201527f50726f7669646572206861736820616c726561647920616464656400000000006044820152606401610318565b600180826040516106919190613aa5565b908152604051908190036020019020805491151560ff19909216919091179055600280546001810182556000919091527f405787fa12a823e0f2b7631cc41b3ba8828b3321ca811111fa75cd3aa3bb5ace016106ed8282613c85565b507fc9e1c78701d1853eeb1eb35ad3449e4b336281f672d5837243d21239dc6f40968160405161038291906136d8565b60606002805480602002602001604051908101604052809291908181526020016000905b828210156107ed57838290600052602060002001805461076090613bfc565b80601f016020809104026020016040519081016040528092919081815260200182805461078c90613bfc565b80156107d95780601f106107ae576101008083540402835291602001916107d9565b820191906000526020600020905b8154815290600101906020018083116107bc57829003601f168201915b505050505081526020019060010190610741565b50505050905090565b6107fe610c2f565b6001600160a01b0381166108635760405162461bcd60e51b815260206004820152602660248201527f4f776e61626c653a206e6577206f776e657220697320746865207a65726f206160448201526564647265737360d01b6064820152608401610318565b61086c816112f6565b50565b60008082116108d25760405162461bcd60e51b815260206004820152602960248201527f5265717569726564207468726573686f6c64206d75737420626520677265617460448201526806572207468616e20360bc1b6064820152608401610318565b82518211156109575760405162461bcd60e51b8152602060048201526044602482018190527f5265717569726564207468726573686f6c64206d757374206265206c65737320908201527f7468616e206f7220657175616c20746f206e756d626572206f66207769746e656064820152637373657360e01b608482015260a401610318565b600084602001516020015151116109a05760405162461bcd60e51b815260206004820152600d60248201526c4e6f207369676e61747572657360981b6044820152606401610318565b6040805180820190915260208086018051518352518101519082015284516000906109ca90611346565b602087015151519091508114610a225760405162461bcd60e51b815260206004820152601c60248201527f436c61696d496e666f206861736820646f65736e2774206d61746368000000006044820152606401610318565b80610a685760405162461bcd60e51b8152602060048201526016602482015275436c61696d496e666f2068617368206973207a65726f60501b6044820152606401610318565b6000610a7383611389565b90508481511015610ad75760405162461bcd60e51b815260206004820152602860248201527f4665776572207369676e617475726573207468616e20726571756972656420746044820152671a1c995cda1bdb1960c21b6064820152608401610318565b600081516001600160401b03811115610af257610af2613499565b604051908082528060200260200182016040528015610b1b578160200160208202803683370190505b5090506000805b8351811015610bc3576000848281518110610b3f57610b3f613d44565b60200260200101519050610b5c818561146290919063ffffffff16565b15610b675750610bb1565b610b718a82611462565b15610baf5780848481518110610b8957610b89613d44565b6001600160a01b039092166020928302919091019091015282610bab81613d70565b9350505b505b80610bbb81613d70565b915050610b22565b5086811015610c205760405162461bcd60e51b815260206004820152602360248201527f4e6f7420656e6f7567682076616c6964207769746e657373207369676e61747560448201526272657360e81b6064820152608401610318565b50600198975050505050505050565b6000546001600160a01b031633146105c95760405162461bcd60e51b815260206004820181905260248201527f4f776e61626c653a2063616c6c6572206973206e6f7420746865206f776e65726044820152606401610318565b600080610d6684805480602002602001604051908101604052809291908181526020016000905b82821015610d5c578382906000526020600020018054610ccf90613bfc565b80601f0160208091040260200160405190810160405280929190818152602001828054610cfb90613bfc565b8015610d485780601f10610d1d57610100808354040283529160200191610d48565b820191906000526020600020905b815481529060010190602001808311610d2b57829003601f168201915b505050505081526020019060010190610cb0565b5050505084611478565b9150915080610dae5760405162461bcd60e51b815260206004820152601460248201527329ba3934b733903737ba1034b71030b93930bc9760611b6044820152606401610318565b8354600090610dbf90600190613d89565b9050808314610e0e57848181548110610dda57610dda613d44565b90600052602060002001858481548110610df657610df6613d44565b906000526020600020019081610e0c9190613d9c565b505b84805480610e1e57610e1e613e6e565b600190038181906000526020600020016000610e3a919061341f565b90555050505050565b610e836040518060e00160405280606081526020016060815260200160608152602001606081526020016060815260200160608152602001606081525090565b6000610e9185870187613e84565b90506000610e9f85856114e9565b9050610ead8282600161086f565b50610eb7826114f7565b9250610ec68360c00151611641565b610f0a5760405162461bcd60e51b815260206004820152601560248201527409cde40ecc2d8d2c840e0e4deecd2c8cae490c2e6d605b1b6044820152606401610318565b5050949350505050565b60008082602001516001600160a01b031663313ce5676040518163ffffffff1660e01b8152600401602060405180830381865afa158015610f59573d6000803e3d6000fd5b505050506040513d601f19601f82011682018060405250810190610f7d9190613eb8565b8451909150600090610f929060ff84166112de565b905060008111610ff55760405162461bcd60e51b815260206004820152602860248201527f5061796d656e7420616d6f756e74206d7573742062652067726561746572207460448201526768616e207a65726f60c01b6064820152608401610318565b608080850151908601516110089161166c565b6110545760405162461bcd60e51b815260206004820152601b60248201527f496e636f7272656374207061796d656e7420726563697069656e7400000000006044820152606401610318565b600060045461108587602001516040516020016110719190613edb565b6040516020818303038152906040526116c5565b61108f9190613f08565b905084606001518110156110e55760405162461bcd60e51b815260206004820152601b60248201527f496e636f7272656374207061796d656e742074696d657374616d7000000000006044820152606401610318565b6040516810d3d354131155115160ba1b60208201526029016040516020818303038152906040528051906020012086606001516040516020016111289190613aa5565b60405160208183030381529060405280519060200120146111835760405162461bcd60e51b815260206004820152601560248201527414185e5b595b9d081b9bdd0818dbdb5c1b195d1959605a1b6044820152606401610318565b509150505b92915050565b600080836111a4670de0b6b3a764000087613f1b565b6111ae9190613f48565b9050828111156111bb5750815b949350505050565b60035460405163169394bb60e01b8152600481018390526001600160a01b039091169063169394bb90602401602060405180830381865afa15801561120c573d6000803e3d6000fd5b505050506040513d601f19601f820116820180604052508101906112309190613f5c565b1561127d5760405162461bcd60e51b815260206004820152601f60248201527f4e756c6c69666965722068617320616c7265616479206265656e2075736564006044820152606401610318565b600354604051632dea6f9960e11b8152600481018390526001600160a01b0390911690635bd4df3290602401600060405180830381600087803b1580156112c357600080fd5b505af11580156112d7573d6000803e3d6000fd5b5050505050565b60006112ef83601760f91b846118eb565b9392505050565b600080546001600160a01b038381166001600160a01b0319831681178455604051919092169283917f8be0079c531659141344cd1fd0a4f28419497f9722a3daafe3b4186f6b6457e09190a35050565b60008082600001518360200151846040015160405160200161136a93929190613f7e565b60408051601f1981840301815291905280516020909101209392505050565b6060600061139a8360000151611ac8565b905060008360200151516001600160401b038111156113bb576113bb613499565b6040519080825280602002602001820160405280156113e4578160200160208202803683370190505b50905060005b84602001515181101561145a5761141e838660200151838151811061141157611411613d44565b6020026020010151611b54565b82828151811061143057611430613d44565b6001600160a01b03909216602092830291909101909101528061145281613d70565b9150506113ea565b509392505050565b60008061146f8484611b95565b95945050505050565b81516000908190815b818110156114d65784805190602001208682815181106114a3576114a3613d44565b602002602001015180519060200120036114c4579250600191506114e29050565b806114ce81613d70565b915050611481565b50600019600092509250505b9250929050565b60606112ef82840184613fd9565b6115376040518060e00160405280606081526020016060815260200160608152602001606081526020016060815260200160608152602001606081525090565b600061154e83600001516040015160086001611bf7565b90506040518060e001604052808260038151811061156e5761156e613d44565b602002602001015181526020018260068151811061158e5761158e613d44565b60200260200101518152602001826004815181106115ae576115ae613d44565b60200260200101518152602001826005815181106115ce576115ce613d44565b60200260200101518152602001826002815181106115ee576115ee613d44565b602002602001015181526020018260018151811061160e5761160e613d44565b602002602001015181526020018260078151811061162e5761162e613d44565b6020026020010151815250915050919050565b60006001826040516116539190613aa5565b9081526040519081900360200190205460ff1692915050565b60008160405160200161167f9190613aa5565b60405160208183030381529060405280519060200120836040516020016116a69190613aa5565b6040516020818303038152906040528051906020012014905092915050565b60006116cf613459565b82516000908190815b8181101561181c578681815181106116f2576116f2613d44565b6020910101516001600160f81b031916602d60f81b1480611737575086818151811061172057611720613d44565b6020910101516001600160f81b031916601d60f91b145b80611766575086818151811061174f5761174f613d44565b6020910101516001600160f81b031916601560fa1b145b80611795575086818151811061177e5761177e613d44565b6020910101516001600160f81b031916600160fd1b145b156117d7576117a5878483612ac8565b8585600681106117b7576117b7613d44565b60200201526117c7816001613f08565b9250836117d381613d70565b9450505b8681815181106117e9576117e9613d44565b01602001516001600160f81b031916601760f91b0361180a5780915061181c565b8061181481613d70565b9150506116d8565b50611828868383612ac8565b84846006811061183a5761183a613d44565b6020020152600583146118855760405162461bcd60e51b8152602060048201526013602482015272496e76616c6964206461746520737472696e6760681b6044820152606401610318565b6118e161189b600086815b6020020151906112de565b6118a86000876001611890565b6118b56000886002611890565b6118c26000896003611890565b6118cf60008a6004611890565b6118dc60008b6005611890565b612b94565b9695505050505050565b600083818080805b8451811015611a4157603060f81b85828151811061191357611913613d44565b01602001516001600160f81b031916108015906119545750603960f81b85828151811061194257611942613d44565b01602001516001600160f81b03191611155b1561199757603085828151811061196d5761196d613d44565b016020015161197f919060f81c613d89565b61198a85600a613f1b565b6119949190613f08565b93505b81156119ab57826119a781613d70565b9350505b876001600160f81b0319168582815181106119c8576119c8613d44565b01602001516001600160f81b03191603611a2f578115611a2a5760405162461bcd60e51b815260206004820152601c60248201527f537472696e6720686173206d756c7469706c6520646563696d616c73000000006044820152606401610318565b600191505b80611a3981613d70565b9150506118f3565b5085821115611a9d5760405162461bcd60e51b815260206004820152602260248201527f537472696e672068617320746f6f206d616e7920646563696d616c20706c6163604482015261657360f01b6064820152608401610318565b611aa78287613d89565b611ab290600a6140f1565b611abc9084613f1b565b98975050505050505050565b6060611af88260000151604051602001611ae491815260200190565b604051602081830303815290604052612bf0565b611b058360200151612db3565b611b18846040015163ffffffff16612f1c565b611b2b856060015163ffffffff16612f1c565b604051602001611b3e94939291906140fd565b6040516020818303038152906040529050919050565b600080611b618451612f1c565b84604051602001611b73929190614176565b6040516020818303038152906040528051906020012090506111bb8184613047565b81516000908190815b818110156114d657846001600160a01b0316868281518110611bc257611bc2613d44565b60200260200101516001600160a01b031603611be5579250600191506114e29050565b80611bef81613d70565b915050611b9e565b606060008360ff1611611c565760405162461bcd60e51b815260206004820152602160248201527f4d61782076616c756573206d7573742062652067726561746572207468616e206044820152600360fc1b6064820152608401610318565b8360008080808080611c698a60026141d1565b60ff166001600160401b03811115611c8357611c83613499565b604051908082528060200260200182016040528015611cac578160200160208202803683370190505b50905060005b604051806040016040528060138152602001723d9131b7b73a32bc3a20b2323932b9b9911d1160691b81525051811015611d8b57604051806040016040528060138152602001723d9131b7b73a32bc3a20b2323932b9b9911d1160691b8152508181518110611d2357611d23613d44565b01602001516001600160f81b03191688611d3d838a613f08565b81518110611d4d57611d4d613d44565b01602001516001600160f81b03191614611d795760405162461bcd60e51b8152600401610318906141f4565b80611d8381613d70565b915050611cb2565b50604051806040016040528060138152602001723d9131b7b73a32bc3a20b2323932b9b9911d1160691b8152505186611dc49190613f08565b95508593505b865186108015611e3a5750868681518110611de757611de7613d44565b6020910101516001600160f81b031916601160f91b148015611e38575086611e10600188613d89565b81518110611e2057611e20613d44565b6020910101516001600160f81b031916601760fa1b14155b155b15611e515785611e4981613d70565b965050611dca565b86518610611e715760405162461bcd60e51b8152600401610318906141f4565b859250838303611ed95760405162461bcd60e51b815260206004820152602d60248201527f45787472616374696f6e206661696c65642e20456d70747920636f6e7465787460448201526c416464726573732076616c756560981b6064820152608401610318565b8381611ee6876002613f1b565b81518110611ef657611ef6613d44565b60209081029190910101528281611f0e876002613f1b565b611f19906001613f08565b81518110611f2957611f29613d44565b602090810291909101015284611f3e81613d70565b9550611f4d9050600287613f08565b955060005b604051806040016040528060128152602001711131b7b73a32bc3a26b2b9b9b0b3b2911d1160711b8152505181101561202957604051806040016040528060128152602001711131b7b73a32bc3a26b2b9b9b0b3b2911d1160711b8152508181518110611fc157611fc1613d44565b01602001516001600160f81b03191688611fdb838a613f08565b81518110611feb57611feb613d44565b01602001516001600160f81b031916146120175760405162461bcd60e51b81526004016103189061423f565b8061202181613d70565b915050611f52565b50604051806040016040528060128152602001711131b7b73a32bc3a26b2b9b9b0b3b2911d1160711b81525051866120619190613f08565b95508593505b8651861080156120d7575086868151811061208457612084613d44565b6020910101516001600160f81b031916601160f91b1480156120d55750866120ad600188613d89565b815181106120bd576120bd613d44565b6020910101516001600160f81b031916601760fa1b14155b155b156120ee57856120e681613d70565b965050612067565b8651861061210e5760405162461bcd60e51b81526004016103189061423f565b8592508383036121765760405162461bcd60e51b815260206004820152602d60248201527f45787472616374696f6e206661696c65642e20456d70747920636f6e7465787460448201526c4d6573736167652076616c756560981b6064820152608401610318565b8381612183876002613f1b565b8151811061219357612193613d44565b602090810291909101015282816121ab876002613f1b565b6121b6906001613f08565b815181106121c6576121c6613d44565b6020908102919091010152846121db81613d70565b95506121ea9050600287613f08565b955060005b604051806040016040528060188152602001771132bc3a3930b1ba32b22830b930b6b2ba32b939911d3d9160411b8152505181101561231b57604051806040016040528060188152602001771132bc3a3930b1ba32b22830b930b6b2ba32b939911d3d9160411b815250818151811061226a5761226a613d44565b01602001516001600160f81b03191688612284838a613f08565b8151811061229457612294613d44565b01602001516001600160f81b031916146123095760405162461bcd60e51b815260206004820152603060248201527f45787472616374696f6e206661696c65642e204d616c666f726d65642065787460448201526f726163746564506172616d657465727360801b6064820152608401610318565b8061231381613d70565b9150506121ef565b50604051806040016040528060188152602001771132bc3a3930b1ba32b22830b930b6b2ba32b939911d3d9160411b81525051866123599190613f08565b9550600091505b86518610156127035786868151811061237b5761237b613d44565b6020910101516001600160f81b031916601160f91b1480156123cc5750866123a4600188613d89565b815181106123b4576123b4613d44565b6020910101516001600160f81b031916601760fa1b14155b6123e257856123da81613d70565b965050612360565b816124ea57866123f3876001613f08565b8151811061240357612403613d44565b6020910101516001600160f81b031916601d60f91b14801561245357508661242c876002613f08565b8151811061243c5761243c613d44565b6020910101516001600160f81b031916601160f91b145b6124ab5760405162461bcd60e51b815260206004820152602360248201527f45787472616374696f6e206661696c65642e204d616c666f726d65642064617460448201526261203160e81b6064820152608401610318565b6124b6600387613f08565b95506001915085816124c9876002613f1b565b815181106124d9576124d9613d44565b602002602001018181525050612360565b6000876124f8886001613f08565b8151811061250857612508613d44565b6020910101516001600160f81b031916600b60fa1b148015612558575087612531886002613f08565b8151811061254157612541613d44565b6020910101516001600160f81b031916601160f91b145b9050600088612568896001613f08565b8151811061257857612578613d44565b6020910101516001600160f81b031916607d60f81b1480156125c85750886125a1896002613f08565b815181106125b1576125b1613d44565b6020910101516001600160f81b031916600b60fa1b145b905081806125d35750805b61262b5760405162461bcd60e51b815260206004820152602360248201527f45787472616374696f6e206661696c65642e204d616c666f726d65642064617460448201526230901960e91b6064820152608401610318565b8783612638896002613f1b565b612643906001613f08565b8151811061265357612653613d44565b60209081029190910101528661266881613d70565b97505081156126e8578b60ff1687036126d25760405162461bcd60e51b815260206004820152602660248201527f45787472616374696f6e206661696c65642e204578636565646564206d61782060448201526576616c75657360d01b6064820152608401610318565b6126dd600389613f08565b9750600093506126fc565b6126f3600389613f08565b97505050612703565b5050612360565b88156129105760005b6040518060400160405280601081526020016f11383937bb34b232b92430b9b4111d1160811b81525051811015612821576040518060400160405280601081526020016f11383937bb34b232b92430b9b4111d1160811b815250818151811061277757612777613d44565b01602001516001600160f81b03191688612791838a613f08565b815181106127a1576127a1613d44565b01602001516001600160f81b0319161461280f5760405162461bcd60e51b815260206004820152602960248201527f45787472616374696f6e206661696c65642e204d616c666f726d65642070726f6044820152680ecd2c8cae490c2e6d60bb1b6064820152608401610318565b8061281981613d70565b91505061270c565b506040518060400160405280601081526020016f11383937bb34b232b92430b9b4111d1160811b81525051866128579190613f08565b95508581612866876002613f1b565b8151811061287657612876613d44565b6020026020010181815250505b8651861080156128b857508686815181106128a0576128a0613d44565b6020910101516001600160f81b031916601160f91b14155b156128cf57856128c781613d70565b965050612883565b85816128dc876002613f1b565b6128e7906001613f08565b815181106128f7576128f7613d44565b60209081029190910101528461290c81613d70565b9550505b6000856001600160401b0381111561292a5761292a613499565b60405190808252806020026020018201604052801561295d57816020015b60608152602001906001900390816129485790505b50905060005b86811015612ab85782612977826002613f1b565b8151811061298757612987613d44565b602002602001015195508281600261299f9190613f1b565b6129aa906001613f08565b815181106129ba576129ba613d44565b60200260200101519450600086866129d29190613d89565b6001600160401b038111156129e9576129e9613499565b6040519080825280601f01601f191660200182016040528015612a13576020820181803683370190505b509050865b86811015612a85578a8181518110612a3257612a32613d44565b01602001516001600160f81b03191682612a4c8a84613d89565b81518110612a5c57612a5c613d44565b60200101906001600160f81b031916908160001a90535080612a7d81613d70565b915050612a18565b5080838381518110612a9957612a99613d44565b6020026020010181905250508080612ab090613d70565b915050612963565b509b9a5050505050505050505050565b6060836000612ad78585613d89565b6001600160401b03811115612aee57612aee613499565b6040519080825280601f01601f191660200182016040528015612b18576020820181803683370190505b509050845b84811015612b8a57828181518110612b3757612b37613d44565b01602001516001600160f81b03191682612b518884613d89565b81518110612b6157612b61613d44565b60200101906001600160f81b031916908160001a90535080612b8281613d70565b915050612b1d565b5095945050505050565b600081612ba2603c85613f1b565b612bae610e1087613f1b565b62015180612bbd8b8b8b613063565b612bc79190613f1b565b612bd19190613f08565b612bdb9190613f08565b612be59190613f08565b979650505050505050565b6060600082516002612c029190613f1b565b6001600160401b03811115612c1957612c19613499565b6040519080825280601f01601f191660200182016040528015612c43576020820181803683370190505b5060408051808201909152601081526f181899199a1a9b1b9c1cb0b131b232b360811b602082015290915060005b8451811015612d8957818251868381518110612c8f57612c8f613d44565b0160200151612ca1919060f81c613f48565b81518110612cb157612cb1613d44565b01602001516001600160f81b03191683612ccc836002613f1b565b81518110612cdc57612cdc613d44565b60200101906001600160f81b031916908160001a905350818251868381518110612d0857612d08613d44565b0160200151612d1a919060f81c61428a565b81518110612d2a57612d2a613d44565b01602001516001600160f81b03191683612d45836002613f1b565b612d50906001613f08565b81518110612d6057612d60613d44565b60200101906001600160f81b031916908160001a90535080612d8181613d70565b915050612c71565b5081604051602001612d9b919061429e565b60405160208183030381529060405292505050919050565b60408051602880825260608281019093526000919060208201818036833701905050905060005b6014811015612ef3576000612df0826013613d89565b612dfb906008613f1b565b612e069060026140f1565b612e19906001600160a01b038716613f48565b60f81b9050600060108260f81c612e3091906142c8565b60f81b905060008160f81c6010612e4791906141d1565b8360f81c612e5591906142ea565b60f81b9050612e6382613194565b85612e6f866002613f1b565b81518110612e7f57612e7f613d44565b60200101906001600160f81b031916908160001a905350612e9f81613194565b85612eab866002613f1b565b612eb6906001613f08565b81518110612ec657612ec6613d44565b60200101906001600160f81b031916908160001a9053505050508080612eeb90613d70565b915050612dda565b5080604051602001612f05919061429e565b604051602081830303815290604052915050919050565b606081600003612f435750506040805180820190915260018152600360fc1b602082015290565b8160005b8115612f6d5780612f5781613d70565b9150612f669050600a83613f48565b9150612f47565b6000816001600160401b03811115612f8757612f87613499565b6040519080825280601f01601f191660200182016040528015612fb1576020820181803683370190505b509050815b851561303e57612fc7600182613d89565b90506000612fd6600a88613f48565b612fe190600a613f1b565b612feb9088613d89565b612ff6906030614303565b905060008160f81b90508084848151811061301357613013613d44565b60200101906001600160f81b031916908160001a905350613035600a89613f48565b97505050612fb6565b50949350505050565b600080600061305685856131cf565b9150915061145a81613211565b60006107b284101561307457600080fd5b838383600062253d8c60046064600c61308e600e8861431c565b613098919061433c565b6130a48861132461436a565b6130ae919061436a565b6130b8919061433c565b6130c3906003614392565b6130cd919061433c565b600c806130db600e8861431c565b6130e5919061433c565b6130f090600c614392565b6130fb60028861431c565b613105919061431c565b6131119061016f614392565b61311b919061433c565b6004600c61312a600e8961431c565b613134919061433c565b613140896112c061436a565b61314a919061436a565b613156906105b5614392565b613160919061433c565b61316c617d4b8761431c565b613176919061436a565b613180919061436a565b61318a919061431c565b611abc919061431c565b6000600a60f883901c10156131bb576131b260f883901c6030614303565b60f81b92915050565b6131b260f883901c6057614303565b919050565b60008082516041036132055760208301516040840151606085015160001a6131f98782858561335b565b945094505050506114e2565b506000905060026114e2565b6000816004811115613225576132256143c2565b0361322d5750565b6001816004811115613241576132416143c2565b0361328e5760405162461bcd60e51b815260206004820152601860248201527f45434453413a20696e76616c6964207369676e617475726500000000000000006044820152606401610318565b60028160048111156132a2576132a26143c2565b036132ef5760405162461bcd60e51b815260206004820152601f60248201527f45434453413a20696e76616c6964207369676e6174757265206c656e677468006044820152606401610318565b6003816004811115613303576133036143c2565b0361086c5760405162461bcd60e51b815260206004820152602260248201527f45434453413a20696e76616c6964207369676e6174757265202773272076616c604482015261756560f01b6064820152608401610318565b6000807f7fffffffffffffffffffffffffffffff5d576e7357a4501ddfe92f46681b20a08311156133925750600090506003613416565b6040805160008082526020820180845289905260ff881692820192909252606081018690526080810185905260019060a0016020604051602081039080840390855afa1580156133e6573d6000803e3d6000fd5b5050604051601f1901519150506001600160a01b03811661340f57600060019250925050613416565b9150600090505b94509492505050565b50805461342b90613bfc565b6000825580601f1061343b575050565b601f01602090049060005260206000209081019061086c9190613480565b6040518060c001604052806006905b60608152602001906001900390816134685790505090565b5b808211156134955760008155600101613481565b5090565b634e487b7160e01b600052604160045260246000fd5b604080519081016001600160401b03811182821017156134d1576134d1613499565b60405290565b604051606081016001600160401b03811182821017156134d1576134d1613499565b60405161012081016001600160401b03811182821017156134d1576134d1613499565b604051601f8201601f191681016001600160401b038111828210171561354457613544613499565b604052919050565b600082601f83011261355d57600080fd5b81356001600160401b0381111561357657613576613499565b613589601f8201601f191660200161351c565b81815284602083860101111561359e57600080fd5b816020850160208301376000918101602001919091529392505050565b6000602082840312156135cd57600080fd5b81356001600160401b038111156135e357600080fd5b6111bb8482850161354c565b60006020828403121561360157600080fd5b81356001600160401b0381111561361757600080fd5b820161012081850312156112ef57600080fd5b60005b8381101561364557818101518382015260200161362d565b50506000910152565b6000815180845261366681602086016020860161362a565b601f01601f19169290920160200192915050565b602081528151151560208201526020820151604082015260408201516060820152606082015160808201526000608083015160a0808401526111bb60c084018261364e565b6000602082840312156136d157600080fd5b5035919050565b6020815260006112ef602083018461364e565b6000602080830181845280855180835260408601915060408160051b870101925083870160005b8281101561374057603f1988860301845261372e85835161364e565b94509285019290850190600101613712565b5092979650505050505050565b80356001600160a01b03811681146131ca57600080fd5b60006020828403121561377657600080fd5b6112ef8261374d565b803563ffffffff811681146131ca57600080fd5b60006001600160401b038211156137ac576137ac613499565b5060051b60200190565b600082601f8301126137c757600080fd5b813560206137dc6137d783613793565b61351c565b82815260059290921b840181019181810190868411156137fb57600080fd5b8286015b8481101561383a5780356001600160401b0381111561381e5760008081fd5b61382c8986838b010161354c565b8452509183019183016137ff565b509695505050505050565b600081830360a081121561385857600080fd5b6138606134af565b9150608081121561387057600080fd5b50604051608081016001600160401b03828210818311171561389457613894613499565b81604052843583526138a86020860161374d565b60208401526138b96040860161377f565b60408401526138ca6060860161377f565b6060840152918352608084013591808311156138e557600080fd5b50506138f3848285016137b6565b60208301525092915050565b60006040828403121561391157600080fd5b6139196134af565b905081356001600160401b038082111561393257600080fd5b908301906060828603121561394657600080fd5b61394e6134d7565b82358281111561395d57600080fd5b6139698782860161354c565b82525060208301358281111561397e57600080fd5b61398a8782860161354c565b6020830152506040830135828111156139a257600080fd5b6139ae8782860161354c565b604083015250835260208401359150808211156139ca57600080fd5b506138f384828501613845565b600082601f8301126139e857600080fd5b813560206139f86137d783613793565b82815260059290921b84018101918181019086841115613a1757600080fd5b8286015b8481101561383a57613a2c8161374d565b8352918301918301613a1b565b600080600060608486031215613a4e57600080fd5b83356001600160401b0380821115613a6557600080fd5b613a71878388016138ff565b94506020860135915080821115613a8757600080fd5b50613a94868287016139d7565b925050604084013590509250925092565b60008251613ab781846020870161362a565b9190910192915050565b6000808335601e19843603018112613ad857600080fd5b8301803591506001600160401b03821115613af257600080fd5b6020019150368190038213156114e257600080fd5b60006101208236031215613b1a57600080fd5b613b226134f9565b82356001600160401b0380821115613b3957600080fd5b613b453683870161354c565b8352613b536020860161374d565b602084015260408501356040840152606085013560608401526080850135915080821115613b8057600080fd5b613b8c3683870161354c565b608084015260a085013560a084015260c085013560c084015260e0850135915080821115613bb957600080fd5b613bc53683870161354c565b60e084015261010091508185013581811115613be057600080fd5b613bec3682880161354c565b8385015250505080915050919050565b600181811c90821680613c1057607f821691505b602082108103613c3057634e487b7160e01b600052602260045260246000fd5b50919050565b601f821115613c8057600081815260208120601f850160051c81016020861015613c5d5750805b601f850160051c820191505b81811015613c7c57828155600101613c69565b5050505b505050565b81516001600160401b03811115613c9e57613c9e613499565b613cb281613cac8454613bfc565b84613c36565b602080601f831160018114613ce75760008415613ccf5750858301515b600019600386901b1c1916600185901b178555613c7c565b600085815260208120601f198616915b82811015613d1657888601518255948401946001909101908401613cf7565b5085821015613d345787850151600019600388901b60f8161c191681555b5050505050600190811b01905550565b634e487b7160e01b600052603260045260246000fd5b634e487b7160e01b600052601160045260246000fd5b600060018201613d8257613d82613d5a565b5060010190565b8181038181111561118857611188613d5a565b818103613da7575050565b613db18254613bfc565b6001600160401b03811115613dc857613dc8613499565b613dd681613cac8454613bfc565b6000601f821160018114613e0a5760008315613df25750848201545b600019600385901b1c1916600184901b1784556112d7565b600085815260209020601f19841690600086815260209020845b83811015613e445782860154825560019586019590910190602001613e24565b5085831015613d345793015460001960f8600387901b161c19169092555050600190811b01905550565b634e487b7160e01b600052603160045260246000fd5b600060208284031215613e9657600080fd5b81356001600160401b03811115613eac57600080fd5b6111bb848285016138ff565b600060208284031215613eca57600080fd5b815160ff811681146112ef57600080fd5b60008251613eed81846020870161362a565b685432333a35393a353960b81b920191825250600901919050565b8082018082111561118857611188613d5a565b808202811582820484141761118857611188613d5a565b634e487b7160e01b600052601260045260246000fd5b600082613f5757613f57613f32565b500490565b600060208284031215613f6e57600080fd5b815180151581146112ef57600080fd5b60008451613f9081846020890161362a565b600560f91b9083018181528551909190613fb1816001850160208a0161362a565b60019201918201528351613fcc81600284016020880161362a565b0160020195945050505050565b600060208284031215613feb57600080fd5b81356001600160401b0381111561400157600080fd5b6111bb848285016139d7565b600181815b8085111561404857816000190482111561402e5761402e613d5a565b8085161561403b57918102915b93841c9390800290614012565b509250929050565b60008261405f57506001611188565b8161406c57506000611188565b8160018114614082576002811461408c576140a8565b6001915050611188565b60ff84111561409d5761409d613d5a565b50506001821b611188565b5060208310610133831016604e8410600b84101617156140cb575081810a611188565b6140d5838361400d565b80600019048211156140e9576140e9613d5a565b029392505050565b60006112ef8383614050565b6000855161410f818460208a0161362a565b600560f91b9083018181528651909190614130816001850160208b0161362a565b60019201918201819052855161414d816002850160208a0161362a565b6002920191820152835161416881600384016020880161362a565b016003019695505050505050565b7f19457468657265756d205369676e6564204d6573736167653a0a0000000000008152600083516141ae81601a85016020880161362a565b8351908301906141c581601a84016020880161362a565b01601a01949350505050565b60ff81811683821602908116908181146141ed576141ed613d5a565b5092915050565b6020808252602b908201527f45787472616374696f6e206661696c65642e204d616c666f726d656420636f6e60408201526a746578744164647265737360a81b606082015260800190565b6020808252602b908201527f45787472616374696f6e206661696c65642e204d616c666f726d656420636f6e60408201526a746578744d65737361676560a81b606082015260800190565b60008261429957614299613f32565b500690565b61060f60f31b8152600082516142bb81600285016020870161362a565b9190910160020192915050565b600060ff8316806142db576142db613f32565b8060ff84160491505092915050565b60ff828116828216039081111561118857611188613d5a565b60ff818116838216019081111561118857611188613d5a565b81810360008312801583831316838312821617156141ed576141ed613d5a565b60008261434b5761434b613f32565b600160ff1b82146000198414161561436557614365613d5a565b500590565b808201828112600083128015821682158216171561438a5761438a613d5a565b505092915050565b80820260008212600160ff1b841416156143ae576143ae613d5a565b818105831482151761118857611188613d5a565b634e487b7160e01b600052602160045260246000fdfea26469706673582212206d2cd83dd64d3a51df95a63d836d0dede82198a037874c065faf1220b54e51b764736f6c63430008120033",
  "devdoc": {
    "kind": "dev",
    "methods": {
      "addProviderHash(string)": {
        "params": {
          "_newProviderHash": "New provider hash to be added"
        }
      },
      "owner()": {
        "details": "Returns the address of the current owner."
      },
      "removeProviderHash(string)": {
        "params": {
          "_removeProviderHash": "Provider hash to be removed"
        }
      },
      "renounceOwnership()": {
        "details": "Leaves the contract without owner. It will not be possible to call `onlyOwner` functions. Can only be called by the current owner. NOTE: Renouncing ownership will leave the contract without an owner, thereby disabling any functionality that is only available to the owner."
      },
      "setTimestampBuffer(uint256)": {
        "params": {
          "_timestampBuffer": "The timestamp buffer for payments"
        }
      },
      "transferOwnership(address)": {
        "details": "Transfers ownership of the contract to a new account (`newOwner`). Can only be called by the current owner."
      },
      "verifyPayment((bytes,address,uint256,uint256,string,bytes32,uint256,bytes,bytes))": {
        "params": {
          "_verifyPaymentData": "Payment proof and intent details required for verification"
        },
        "returns": {
          "_0": "result The payment verification result containing success status, intent hash, release amount, payment currency and payment ID"
        }
      },
      "verifyProofSignatures(((string,string,string),((bytes32,address,uint32,uint32),bytes[])),address[],uint256)": {
        "params": {
          "_requiredThreshold": "Minimum number of signatures required from accepted witnesses",
          "_witnesses": "List of accepted witnesses",
          "proof": "Proof to be verified"
        }
      }
    },
    "version": 1
  },
  "userdoc": {
    "kind": "user",
    "methods": {
      "addProviderHash(string)": {
        "notice": "ONLY OWNER: Add provider hash string. Provider hash must not have been previously added."
      },
      "removeProviderHash(string)": {
        "notice": "ONLY OWNER: Remove provider hash string. Provider hash must have been previously added."
      },
      "setTimestampBuffer(uint256)": {
        "notice": "OWNER ONLY: Sets the timestamp buffer for payments. This is the amount of time in seconds that the timestamp can be off by and still be considered valid. Necessary to build in flexibility  with L2 timestamps."
      },
      "verifyPayment((bytes,address,uint256,uint256,string,bytes32,uint256,bytes,bytes))": {
        "notice": "ONLY RAMP: Verifies a reclaim proof of an offchain Bank of America Zelle payment. Ensures the right _intentAmount * _conversionRate USD was paid to _aliasToken after _intentTimestamp + timestampBuffer on Bank of America Zelle. Note: For Bank of America Zelle fiat currency is always USD. For other verifiers which support multiple currencies, _fiatCurrency needs to be checked against the fiat currency in the proof."
      },
      "verifyProofSignatures(((string,string,string),((bytes32,address,uint32,uint32),bytes[])),address[],uint256)": {
        "notice": "Verify proof generated by witnesses. Claim is constructed by hashing claimInfo (provider, context, parameters) to get the identifier. And then signing on (identifier, owner, timestamp, epoch) to get claim signature.  This function verifies a claim by performing the following checks on the claim - Calculates the hash of the claimInfo and checks if it matches the identifier in the claim - Checks if the signatures are valid and from the witnesses This function reverts if - No signatures are found on the proof - ClaimInfo hash does not match the identifier in the claim - Signatures are invalid (not from the witnesses)  DEV NOTE: This function does NOT validate that the claim provider hash is valid. That is the  responsibility of the caller. Ensure witnesses are unique otherwise the threshold can be met  with duplicate witnesses.  Parts of the code are adapted from: https://basescan.org/address/0x7281630e4346dd4c0b7ae3b4689c1d0102741410#code    "
      }
    },
    "version": 1
  },
  "storageLayout": {
    "storage": [
      {
        "astId": 7,
        "contract": "contracts/verifiers/ZelleVerifiers/ZelleBoAReclaimVerifier.sol:ZelleBoAReclaimVerifier",
        "label": "_owner",
        "offset": 0,
        "slot": "0",
        "type": "t_address"
      },
      {
        "astId": 13920,
        "contract": "contracts/verifiers/ZelleVerifiers/ZelleBoAReclaimVerifier.sol:ZelleBoAReclaimVerifier",
        "label": "isProviderHash",
        "offset": 0,
        "slot": "1",
        "type": "t_mapping(t_string_memory_ptr,t_bool)"
      },
      {
        "astId": 13923,
        "contract": "contracts/verifiers/ZelleVerifiers/ZelleBoAReclaimVerifier.sol:ZelleBoAReclaimVerifier",
        "label": "providerHashes",
        "offset": 0,
        "slot": "2",
        "type": "t_array(t_string_storage)dyn_storage"
      },
      {
        "astId": 16737,
        "contract": "contracts/verifiers/ZelleVerifiers/ZelleBoAReclaimVerifier.sol:ZelleBoAReclaimVerifier",
        "label": "nullifierRegistry",
        "offset": 0,
        "slot": "3",
        "type": "t_contract(INullifierRegistry)10131"
      },
      {
        "astId": 16739,
        "contract": "contracts/verifiers/ZelleVerifiers/ZelleBoAReclaimVerifier.sol:ZelleBoAReclaimVerifier",
        "label": "timestampBuffer",
        "offset": 0,
        "slot": "4",
        "type": "t_uint256"
      }
    ],
    "types": {
      "t_address": {
        "encoding": "inplace",
        "label": "address",
        "numberOfBytes": "20"
      },
      "t_array(t_string_storage)dyn_storage": {
        "base": "t_string_storage",
        "encoding": "dynamic_array",
        "label": "string[]",
        "numberOfBytes": "32"
      },
      "t_bool": {
        "encoding": "inplace",
        "label": "bool",
        "numberOfBytes": "1"
      },
      "t_contract(INullifierRegistry)10131": {
        "encoding": "inplace",
        "label": "contract INullifierRegistry",
        "numberOfBytes": "20"
      },
      "t_mapping(t_string_memory_ptr,t_bool)": {
        "encoding": "mapping",
        "key": "t_string_memory_ptr",
        "label": "mapping(string => bool)",
        "numberOfBytes": "32",
        "value": "t_bool"
      },
      "t_string_memory_ptr": {
        "encoding": "bytes",
        "label": "string",
        "numberOfBytes": "32"
      },
      "t_string_storage": {
        "encoding": "bytes",
        "label": "string",
        "numberOfBytes": "32"
      },
      "t_uint256": {
        "encoding": "inplace",
        "label": "uint256",
        "numberOfBytes": "32"
      }
    }
  }
}