{
  "address": "0xB162C6E900E49065fF7283A402e60BCD98BAd0d5",
  "abi": [
    {
      "inputs": [
        {
          "internalType": "address",
          "name": "_baseVerifier",
          "type": "address"
        },
        {
          "internalType": "contract INullifierRegistry",
          "name": "_nullifierRegistry",
          "type": "address"
        },
        {
          "internalType": "string[]",
          "name": "_providerHashes",
          "type": "string[]"
        },
        {
          "internalType": "uint256",
          "name": "_timestampBuffer",
          "type": "uint256"
        }
      ],
      "stateMutability": "nonpayable",
      "type": "constructor"
    },
    {
      "anonymous": false,
      "inputs": [
        {
          "indexed": true,
          "internalType": "address",
          "name": "previousOwner",
          "type": "address"
        },
        {
          "indexed": true,
          "internalType": "address",
          "name": "newOwner",
          "type": "address"
        }
      ],
      "name": "OwnershipTransferred",
      "type": "event"
    },
    {
      "anonymous": false,
      "inputs": [
        {
          "indexed": false,
          "internalType": "string",
          "name": "providerHash",
          "type": "string"
        }
      ],
      "name": "ProviderHashAdded",
      "type": "event"
    },
    {
      "anonymous": false,
      "inputs": [
        {
          "indexed": false,
          "internalType": "string",
          "name": "providerHash",
          "type": "string"
        }
      ],
      "name": "ProviderHashRemoved",
      "type": "event"
    },
    {
      "anonymous": false,
      "inputs": [
        {
          "indexed": false,
          "internalType": "uint256",
          "name": "newTimestampBuffer",
          "type": "uint256"
        }
      ],
      "name": "TimestampBufferSet",
      "type": "event"
    },
    {
      "inputs": [],
      "name": "COMPLETED_STATUS",
      "outputs": [
        {
          "internalType": "bytes32",
          "name": "",
          "type": "bytes32"
        }
      ],
      "stateMutability": "view",
      "type": "function"
    },
    {
      "inputs": [],
      "name": "DELIVERED_STATUS",
      "outputs": [
        {
          "internalType": "bytes32",
          "name": "",
          "type": "bytes32"
        }
      ],
      "stateMutability": "view",
      "type": "function"
    },
    {
      "inputs": [
        {
          "internalType": "string",
          "name": "_newProviderHash",
          "type": "string"
        }
      ],
      "name": "addProviderHash",
      "outputs": [],
      "stateMutability": "nonpayable",
      "type": "function"
    },
    {
      "inputs": [],
      "name": "baseVerifier",
      "outputs": [
        {
          "internalType": "address",
          "name": "",
          "type": "address"
        }
      ],
      "stateMutability": "view",
      "type": "function"
    },
    {
      "inputs": [],
      "name": "getProviderHashes",
      "outputs": [
        {
          "internalType": "string[]",
          "name": "",
          "type": "string[]"
        }
      ],
      "stateMutability": "view",
      "type": "function"
    },
    {
      "inputs": [
        {
          "internalType": "string",
          "name": "",
          "type": "string"
        }
      ],
      "name": "isProviderHash",
      "outputs": [
        {
          "internalType": "bool",
          "name": "",
          "type": "bool"
        }
      ],
      "stateMutability": "view",
      "type": "function"
    },
    {
      "inputs": [],
      "name": "nullifierRegistry",
      "outputs": [
        {
          "internalType": "contract INullifierRegistry",
          "name": "",
          "type": "address"
        }
      ],
      "stateMutability": "view",
      "type": "function"
    },
    {
      "inputs": [],
      "name": "owner",
      "outputs": [
        {
          "internalType": "address",
          "name": "",
          "type": "address"
        }
      ],
      "stateMutability": "view",
      "type": "function"
    },
    {
      "inputs": [
        {
          "internalType": "uint256",
          "name": "",
          "type": "uint256"
        }
      ],
      "name": "providerHashes",
      "outputs": [
        {
          "internalType": "string",
          "name": "",
          "type": "string"
        }
      ],
      "stateMutability": "view",
      "type": "function"
    },
    {
      "inputs": [
        {
          "internalType": "string",
          "name": "_removeProviderHash",
          "type": "string"
        }
      ],
      "name": "removeProviderHash",
      "outputs": [],
      "stateMutability": "nonpayable",
      "type": "function"
    },
    {
      "inputs": [],
      "name": "renounceOwnership",
      "outputs": [],
      "stateMutability": "nonpayable",
      "type": "function"
    },
    {
      "inputs": [
        {
          "internalType": "uint256",
          "name": "_timestampBuffer",
          "type": "uint256"
        }
      ],
      "name": "setTimestampBuffer",
      "outputs": [],
      "stateMutability": "nonpayable",
      "type": "function"
    },
    {
      "inputs": [],
      "name": "timestampBuffer",
      "outputs": [
        {
          "internalType": "uint256",
          "name": "",
          "type": "uint256"
        }
      ],
      "stateMutability": "view",
      "type": "function"
    },
    {
      "inputs": [
        {
          "internalType": "address",
          "name": "newOwner",
          "type": "address"
        }
      ],
      "name": "transferOwnership",
      "outputs": [],
      "stateMutability": "nonpayable",
      "type": "function"
    },
    {
      "inputs": [
        {
          "components": [
            {
              "internalType": "bytes",
              "name": "paymentProof",
              "type": "bytes"
            },
            {
              "internalType": "address",
              "name": "depositToken",
              "type": "address"
            },
            {
              "internalType": "uint256",
              "name": "intentAmount",
              "type": "uint256"
            },
            {
              "internalType": "uint256",
              "name": "intentTimestamp",
              "type": "uint256"
            },
            {
              "internalType": "string",
              "name": "payeeDetails",
              "type": "string"
            },
            {
              "internalType": "bytes32",
              "name": "fiatCurrency",
              "type": "bytes32"
            },
            {
              "internalType": "uint256",
              "name": "conversionRate",
              "type": "uint256"
            },
            {
              "internalType": "bytes",
              "name": "depositData",
              "type": "bytes"
            },
            {
              "internalType": "bytes",
              "name": "data",
              "type": "bytes"
            }
          ],
          "internalType": "struct IPaymentVerifier.VerifyPaymentData",
          "name": "_verifyPaymentData",
          "type": "tuple"
        }
      ],
      "name": "verifyPayment",
      "outputs": [
        {
          "components": [
            {
              "internalType": "bool",
              "name": "success",
              "type": "bool"
            },
            {
              "internalType": "bytes32",
              "name": "intentHash",
              "type": "bytes32"
            },
            {
              "internalType": "uint256",
              "name": "releaseAmount",
              "type": "uint256"
            },
            {
              "internalType": "bytes32",
              "name": "paymentCurrency",
              "type": "bytes32"
            },
            {
              "internalType": "string",
              "name": "paymentId",
              "type": "string"
            }
          ],
          "internalType": "struct IPaymentVerifier.PaymentVerificationResult",
          "name": "",
          "type": "tuple"
        }
      ],
      "stateMutability": "nonpayable",
      "type": "function"
    },
    {
      "inputs": [
        {
          "components": [
            {
              "components": [
                {
                  "internalType": "string",
                  "name": "provider",
                  "type": "string"
                },
                {
                  "internalType": "string",
                  "name": "parameters",
                  "type": "string"
                },
                {
                  "internalType": "string",
                  "name": "context",
                  "type": "string"
                }
              ],
              "internalType": "struct Claims.ClaimInfo",
              "name": "claimInfo",
              "type": "tuple"
            },
            {
              "components": [
                {
                  "components": [
                    {
                      "internalType": "bytes32",
                      "name": "identifier",
                      "type": "bytes32"
                    },
                    {
                      "internalType": "address",
                      "name": "owner",
                      "type": "address"
                    },
                    {
                      "internalType": "uint32",
                      "name": "timestampS",
                      "type": "uint32"
                    },
                    {
                      "internalType": "uint32",
                      "name": "epoch",
                      "type": "uint32"
                    }
                  ],
                  "internalType": "struct Claims.CompleteClaimData",
                  "name": "claim",
                  "type": "tuple"
                },
                {
                  "internalType": "bytes[]",
                  "name": "signatures",
                  "type": "bytes[]"
                }
              ],
              "internalType": "struct Claims.SignedClaim",
              "name": "signedClaim",
              "type": "tuple"
            }
          ],
          "internalType": "struct IReclaimVerifier.ReclaimProof",
          "name": "proof",
          "type": "tuple"
        },
        {
          "internalType": "address[]",
          "name": "_witnesses",
          "type": "address[]"
        },
        {
          "internalType": "uint256",
          "name": "_requiredThreshold",
          "type": "uint256"
        }
      ],
      "name": "verifyProofSignatures",
      "outputs": [
        {
          "internalType": "bool",
          "name": "",
          "type": "bool"
        }
      ],
      "stateMutability": "pure",
      "type": "function"
    }
  ],
  "transactionHash": "0x785b0ecf39873d75d810256bfdfe0480d35f83ef6ca76f07753f7bf0e69d8531",
  "args": [
    "0x6577d3645f8fE66833E9B927B37798a4f303EA90",
    "0xbfEe97ec04f21882E4F23D32631477D653839AcB",
    [
      "0xc472a6b6bace68cef2750c5a713a9649b3a89965d2e7a7c81d8301987f281200",
      "0xced280486908345bea56fbd00f9b39e0cd8a626a20376763d75bbe52c17b6846",
      "0xd7615f705f999e8db7b0c9c2a16849559b88f3b95d6bdeed8a8c106bee870046",
      "0x30725b5ebd9a8e1663733b8435a1da9c59a3647492c61174c43997de334e2f61",
      "0x718ae48aa1d0aa333693d50c8817ec4a45796e0a6f0ea14ebe868b2e081ff5a3",
      "0xeead4659a0a0363e400adf96b60a10a608d11a0280f8f560f175e7a923ffaf35",
      "0x7ba04e25e6f642339eb1ff5dc2ed49ed4c6f79ec68c0c7ad3f81c1605cc66102",
      "0xe35bca0c85c889471a4979efcbb747cdbbf7b273640d4794303b4247b2fa99de",
      "0xb8f3603a04c623930ef5ceff5d4dd7cc749114989b5e34565dac358835cc1a77",
      "0xf2b6fdfaefd6964bcb202ab6886b80a51e061533c3bed39429eab887cc68a6d9",
      "0x0f50cfe682d82acfcff1140cfca303d627a9d468764cfa401611d476695ce6cd"
    ],
    "86400"
  ],
  "numDeployments": 1,
  "solcInputHash": "22aa06e4f37e501f1f267dbeb03cdb0b",
  "bytecode": "0x60a06040523480156200001157600080fd5b5060405162004dae38038062004dae8339810160408190526200003491620002ec565b81620000403362000214565b60005b8151811015620001e157600182828151811062000064576200006462000448565b60200260200101516040516200007b91906200045e565b9081526040519081900360200190205460ff1615620000e05760405162461bcd60e51b815260206004820152601b60248201527f50726f7669646572206861736820616c72656164792061646465640000000000604482015260640160405180910390fd5b600180838381518110620000f857620000f862000448565b60200260200101516040516200010f91906200045e565b908152602001604051809103902060006101000a81548160ff02191690831515021790555060028282815181106200014b576200014b62000448565b602090810291909101810151825460018101845560009384529190922001906200017690826200050b565b507fc9e1c78701d1853eeb1eb35ad3449e4b336281f672d5837243d21239dc6f4096828281518110620001ad57620001ad62000448565b6020026020010151604051620001c49190620005d7565b60405180910390a180620001d8816200060c565b91505062000043565b50506001600160a01b03938416608052600380546001600160a01b03191693909416929092179092556004555062000634565b600080546001600160a01b038381166001600160a01b0319831681178455604051919092169283917f8be0079c531659141344cd1fd0a4f28419497f9722a3daafe3b4186f6b6457e09190a35050565b6001600160a01b03811681146200027a57600080fd5b50565b634e487b7160e01b600052604160045260246000fd5b604051601f8201601f191681016001600160401b0381118282101715620002be57620002be6200027d565b604052919050565b60005b83811015620002e3578181015183820152602001620002c9565b50506000910152565b600080600080608085870312156200030357600080fd5b8451620003108162000264565b80945050602080860151620003258162000264565b60408701519094506001600160401b03808211156200034357600080fd5b818801915088601f8301126200035857600080fd5b8151818111156200036d576200036d6200027d565b8060051b6200037e85820162000293565b918252838101850191858101908c8411156200039957600080fd5b86860192505b838310156200043257825185811115620003b95760008081fd5b8601603f81018e13620003cc5760008081fd5b8781015186811115620003e357620003e36200027d565b620003f7601f8201601f19168a0162000293565b8181528f60408385010111156200040e5760008081fd5b62000420828b830160408601620002c6565b8452505091860191908601906200039f565b60609b909b0151999c989b505050505050505050565b634e487b7160e01b600052603260045260246000fd5b6000825162000472818460208701620002c6565b9190910192915050565b600181811c908216806200049157607f821691505b602082108103620004b257634e487b7160e01b600052602260045260246000fd5b50919050565b601f8211156200050657600081815260208120601f850160051c81016020861015620004e15750805b601f850160051c820191505b818110156200050257828155600101620004ed565b5050505b505050565b81516001600160401b038111156200052757620005276200027d565b6200053f816200053884546200047c565b84620004b8565b602080601f8311600181146200057757600084156200055e5750858301515b600019600386901b1c1916600185901b17855562000502565b600085815260208120601f198616915b82811015620005a85788860151825594840194600190910190840162000587565b5085821015620005c75787850151600019600388901b60f8161c191681555b5050505050600190811b01905550565b6020815260008251806020840152620005f8816040850160208701620002c6565b601f01601f19169190910160400192915050565b6000600182016200062d57634e487b7160e01b600052601160045260246000fd5b5060010190565b608051614757620006576000396000818161023c01526103de01526147576000f3fe608060405234801561001057600080fd5b50600436106101005760003560e01c8063b870676c11610097578063ea4a7bd711610066578063ea4a7bd714610237578063f2fde38b1461025e578063f75885e214610271578063f78378f31461028457600080fd5b8063b870676c146101f3578063bd6e774114610206578063c2107e7314610219578063dbac58211461022e57600080fd5b806357c6e12a116100d357806357c6e12a14610193578063715018a6146101b35780638da5cb5b146101bb578063b2a3fda4146101e057600080fd5b806315bfa612146101055780631cba9bed146101205780632ca6927d146101355780633e7f227514610173575b600080fd5b61010d61028c565b6040519081526020015b60405180910390f35b61013361012e3660046138d5565b6102be565b005b6101636101433660046138d5565b805160208183018101805160018252928201919093012091525460ff1681565b6040519015158152602001610117565b610186610181366004613909565b6103a6565b6040516101179190613994565b6101a66101a13660046139d9565b610524565b60405161011791906139f2565b6101336105d0565b6000546001600160a01b03165b6040516001600160a01b039091168152602001610117565b6101336101ee3660046139d9565b6105e4565b6003546101c8906001600160a01b031681565b6101336102143660046138d5565b610621565b610221610736565b6040516101179190613a05565b61010d60045481565b6101c87f000000000000000000000000000000000000000000000000000000000000000081565b61013361026c366004613a7e565b61080f565b61016361027f366004613d53565b610888565b61010d610c48565b6040516810d3d354131155115160ba1b60208201526029015b6040516020818303038152906040528051906020012081565b6102c6610c65565b6001816040516102d69190613dbf565b9081526040519081900360200190205460ff1661033a5760405162461bcd60e51b815260206004820152601760248201527f50726f76696465722068617368206e6f7420666f756e6400000000000000000060448201526064015b60405180910390fd5b60018160405161034a9190613dbf565b908152604051908190036020019020805460ff1916905561036c600282610cbf565b7f6f594b4b4f0580c66aabba75218163a99fa1fe330a171cc9e2bfd8e167db22f88160405161039b91906139f2565b60405180910390a150565b6040805160a0810182526000808252602082018190529181018290526060808201929092526080810191909152336001600160a01b037f0000000000000000000000000000000000000000000000000000000000000000161461044b5760405162461bcd60e51b815260206004820152601b60248201527f4f6e6c7920626173652076657269666965722063616e2063616c6c00000000006044820152606401610331565b600061046c61045a8480613ddb565b61046760e0870187613ddb565b610e79565b905060006104828261047d86613e21565b6111a2565b90506000610499828660c00135876040013561149f565b90506104ce83604001516040516020016104b39190613dbf565b604051602081830303815290604052805190602001206114d4565b6040518060a001604052806001151581526020016104fa60008660a001516115ef90919063ffffffff16565b60001b81526020018281526020018660a00135815260200184604001518152509350505050919050565b6002818154811061053457600080fd5b90600052602060002001600091509050805461054f90613f16565b80601f016020809104026020016040519081016040528092919081815260200182805461057b90613f16565b80156105c85780601f1061059d576101008083540402835291602001916105c8565b820191906000526020600020905b8154815290600101906020018083116105ab57829003601f168201915b505050505081565b6105d8610c65565b6105e26000611607565b565b6105ec610c65565b60048190556040518181527f11e8dda5412ecab251b7783921be2eb37fdf13b389fc7f671f2cee11a1dfefea9060200161039b565b610629610c65565b6001816040516106399190613dbf565b9081526040519081900360200190205460ff16156106995760405162461bcd60e51b815260206004820152601b60248201527f50726f7669646572206861736820616c726561647920616464656400000000006044820152606401610331565b600180826040516106aa9190613dbf565b908152604051908190036020019020805491151560ff19909216919091179055600280546001810182556000919091527f405787fa12a823e0f2b7631cc41b3ba8828b3321ca811111fa75cd3aa3bb5ace016107068282613f9f565b507fc9e1c78701d1853eeb1eb35ad3449e4b336281f672d5837243d21239dc6f40968160405161039b91906139f2565b60606002805480602002602001604051908101604052809291908181526020016000905b8282101561080657838290600052602060002001805461077990613f16565b80601f01602080910402602001604051908101604052809291908181526020018280546107a590613f16565b80156107f25780601f106107c7576101008083540402835291602001916107f2565b820191906000526020600020905b8154815290600101906020018083116107d557829003601f168201915b50505050508152602001906001019061075a565b50505050905090565b610817610c65565b6001600160a01b03811661087c5760405162461bcd60e51b815260206004820152602660248201527f4f776e61626c653a206e6577206f776e657220697320746865207a65726f206160448201526564647265737360d01b6064820152608401610331565b61088581611607565b50565b60008082116108eb5760405162461bcd60e51b815260206004820152602960248201527f5265717569726564207468726573686f6c64206d75737420626520677265617460448201526806572207468616e20360bc1b6064820152608401610331565b82518211156109705760405162461bcd60e51b8152602060048201526044602482018190527f5265717569726564207468726573686f6c64206d757374206265206c65737320908201527f7468616e206f7220657175616c20746f206e756d626572206f66207769746e656064820152637373657360e01b608482015260a401610331565b600084602001516020015151116109b95760405162461bcd60e51b815260206004820152600d60248201526c4e6f207369676e61747572657360981b6044820152606401610331565b6040805180820190915260208086018051518352518101519082015284516000906109e390611657565b602087015151519091508114610a3b5760405162461bcd60e51b815260206004820152601c60248201527f436c61696d496e666f206861736820646f65736e2774206d61746368000000006044820152606401610331565b80610a815760405162461bcd60e51b8152602060048201526016602482015275436c61696d496e666f2068617368206973207a65726f60501b6044820152606401610331565b6000610a8c8361169a565b90508481511015610af05760405162461bcd60e51b815260206004820152602860248201527f4665776572207369676e617475726573207468616e20726571756972656420746044820152671a1c995cda1bdb1960c21b6064820152608401610331565b600081516001600160401b03811115610b0b57610b0b6137b3565b604051908082528060200260200182016040528015610b34578160200160208202803683370190505b5090506000805b8351811015610bdc576000848281518110610b5857610b5861405e565b60200260200101519050610b75818561177390919063ffffffff16565b15610b805750610bca565b610b8a8a82611773565b15610bc85780848481518110610ba257610ba261405e565b6001600160a01b039092166020928302919091019091015282610bc48161408a565b9350505b505b80610bd48161408a565b915050610b3b565b5086811015610c395760405162461bcd60e51b815260206004820152602360248201527f4e6f7420656e6f7567682076616c6964207769746e657373207369676e61747560448201526272657360e81b6064820152608401610331565b50600198975050505050505050565b6040516811115312559154915160ba1b60208201526029016102a5565b6000546001600160a01b031633146105e25760405162461bcd60e51b815260206004820181905260248201527f4f776e61626c653a2063616c6c6572206973206e6f7420746865206f776e65726044820152606401610331565b600080610d9c84805480602002602001604051908101604052809291908181526020016000905b82821015610d92578382906000526020600020018054610d0590613f16565b80601f0160208091040260200160405190810160405280929190818152602001828054610d3190613f16565b8015610d7e5780601f10610d5357610100808354040283529160200191610d7e565b820191906000526020600020905b815481529060010190602001808311610d6157829003601f168201915b505050505081526020019060010190610ce6565b5050505084611789565b9150915080610de45760405162461bcd60e51b815260206004820152601460248201527329ba3934b733903737ba1034b71030b93930bc9760611b6044820152606401610331565b8354600090610df5906001906140a3565b9050808314610e4457848181548110610e1057610e1061405e565b90600052602060002001858481548110610e2c57610e2c61405e565b906000526020600020019081610e4291906140b6565b505b84805480610e5457610e54614188565b600190038181906000526020600020016000610e709190613739565b90555050505050565b610eb26040518060c001604052806060815260200160608152602001606081526020016060815260200160608152602001606081525090565b600080610ec18688018861419e565b915091506000610ed186866117fa565b9050610edf83826001610888565b50610eec82826001610888565b506000610f0484600001516040015160076001611808565b90506000610f1d84600001516040015160056001611808565b9050600082600481518110610f3457610f3461405e565b60200260200101519050600083600681518110610f5357610f5361405e565b60200260200101519050600083600281518110610f7257610f7261405e565b60200260200101519050600084600481518110610f9157610f9161405e565b60200260200101519050610fa4836126d9565b610ff05760405162461bcd60e51b815260206004820152601960248201527f4e6f2076616c69642070726f7669646572486173684c697374000000000000006044820152606401610331565b610ff9816126d9565b6110455760405162461bcd60e51b815260206004820152601b60248201527f4e6f2076616c69642070726f76696465724861736844657461696c00000000006044820152606401610331565b816040516020016110569190613dbf565b604051602081830303815290604052805190602001208460405160200161107d9190613dbf565b60405160208183030381529060405280519060200120146110e05760405162461bcd60e51b815260206004820152601860248201527f5061796d656e742049447320646f206e6f74206d6174636800000000000000006044820152606401610331565b6040518060c00160405280876002815181106110fe576110fe61405e565b602002602001015181526020018760038151811061111e5761111e61405e565b60200260200101518152602001858152602001876005815181106111445761114461405e565b60200260200101518152602001866003815181106111645761116461405e565b60200260200101518152602001876001815181106111845761118461405e565b60200260200101518152509950505050505050505050949350505050565b60008082602001516001600160a01b031663313ce5676040518163ffffffff1660e01b8152600401602060405180830381865afa1580156111e7573d6000803e3d6000fd5b505050506040513d601f19601f8201168201806040525081019061120b9190614201565b84519091506000906112209060ff84166115ef565b9050600081116112835760405162461bcd60e51b815260206004820152602860248201527f5061796d656e7420616d6f756e74206d7573742062652067726561746572207460448201526768616e207a65726f60c01b6064820152608401610331565b6080808501519086015161129691612704565b6112e25760405162461bcd60e51b815260206004820152601b60248201527f496e636f7272656374207061796d656e7420726563697069656e7400000000006044820152606401610331565b60006112f1866020015161275d565b905060006004546113208360405160200161130c9190614224565b6040516020818303038152906040526128c7565b61132a9190614251565b905085606001518110156113805760405162461bcd60e51b815260206004820152601b60248201527f496e636f7272656374207061796d656e742074696d657374616d7000000000006044820152606401610331565b6040516810d3d354131155115160ba1b60208201526029016040516020818303038152906040528051906020012087606001516040516020016113c39190613dbf565b60405160208183030381529060405280519060200120148061143b57506040516811115312559154915160ba1b60208201526029016040516020818303038152906040528051906020012087606001516040516020016114239190613dbf565b60405160208183030381529060405280519060200120145b6114925760405162461bcd60e51b815260206004820152602260248201527f5061796d656e74206e6f7420636f6d706c65746564206f722064656c69766572604482015261195960f21b6064820152608401610331565b5090925050505b92915050565b600080836114b5670de0b6b3a764000087614264565b6114bf9190614291565b9050828111156114cc5750815b949350505050565b60035460405163169394bb60e01b8152600481018390526001600160a01b039091169063169394bb90602401602060405180830381865afa15801561151d573d6000803e3d6000fd5b505050506040513d601f19601f8201168201806040525081019061154191906142a5565b1561158e5760405162461bcd60e51b815260206004820152601f60248201527f4e756c6c69666965722068617320616c7265616479206265656e2075736564006044820152606401610331565b600354604051632dea6f9960e11b8152600481018390526001600160a01b0390911690635bd4df3290602401600060405180830381600087803b1580156115d457600080fd5b505af11580156115e8573d6000803e3d6000fd5b5050505050565b600061160083601760f91b84612aed565b9392505050565b600080546001600160a01b038381166001600160a01b0319831681178455604051919092169283917f8be0079c531659141344cd1fd0a4f28419497f9722a3daafe3b4186f6b6457e09190a35050565b60008082600001518360200151846040015160405160200161167b939291906142c7565b60408051601f1981840301815291905280516020909101209392505050565b606060006116ab8360000151612cca565b905060008360200151516001600160401b038111156116cc576116cc6137b3565b6040519080825280602002602001820160405280156116f5578160200160208202803683370190505b50905060005b84602001515181101561176b5761172f83866020015183815181106117225761172261405e565b6020026020010151612d56565b8282815181106117415761174161405e565b6001600160a01b0390921660209283029190910190910152806117638161408a565b9150506116fb565b509392505050565b6000806117808484612d97565b95945050505050565b81516000908190815b818110156117e75784805190602001208682815181106117b4576117b461405e565b602002602001015180519060200120036117d5579250600191506117f39050565b806117df8161408a565b915050611792565b50600019600092509250505b9250929050565b606061160082840184614322565b606060008360ff16116118675760405162461bcd60e51b815260206004820152602160248201527f4d61782076616c756573206d7573742062652067726561746572207468616e206044820152600360fc1b6064820152608401610331565b836000808080808061187a8a6002614356565b60ff166001600160401b03811115611894576118946137b3565b6040519080825280602002602001820160405280156118bd578160200160208202803683370190505b50905060005b604051806040016040528060138152602001723d9131b7b73a32bc3a20b2323932b9b9911d1160691b8152505181101561199c57604051806040016040528060138152602001723d9131b7b73a32bc3a20b2323932b9b9911d1160691b81525081815181106119345761193461405e565b01602001516001600160f81b0319168861194e838a614251565b8151811061195e5761195e61405e565b01602001516001600160f81b0319161461198a5760405162461bcd60e51b815260040161033190614379565b806119948161408a565b9150506118c3565b50604051806040016040528060138152602001723d9131b7b73a32bc3a20b2323932b9b9911d1160691b81525051866119d59190614251565b95508593505b865186108015611a4b57508686815181106119f8576119f861405e565b6020910101516001600160f81b031916601160f91b148015611a49575086611a216001886140a3565b81518110611a3157611a3161405e565b6020910101516001600160f81b031916601760fa1b14155b155b15611a625785611a5a8161408a565b9650506119db565b86518610611a825760405162461bcd60e51b815260040161033190614379565b859250838303611aea5760405162461bcd60e51b815260206004820152602d60248201527f45787472616374696f6e206661696c65642e20456d70747920636f6e7465787460448201526c416464726573732076616c756560981b6064820152608401610331565b8381611af7876002614264565b81518110611b0757611b0761405e565b60209081029190910101528281611b1f876002614264565b611b2a906001614251565b81518110611b3a57611b3a61405e565b602090810291909101015284611b4f8161408a565b9550611b5e9050600287614251565b955060005b604051806040016040528060128152602001711131b7b73a32bc3a26b2b9b9b0b3b2911d1160711b81525051811015611c3a57604051806040016040528060128152602001711131b7b73a32bc3a26b2b9b9b0b3b2911d1160711b8152508181518110611bd257611bd261405e565b01602001516001600160f81b03191688611bec838a614251565b81518110611bfc57611bfc61405e565b01602001516001600160f81b03191614611c285760405162461bcd60e51b8152600401610331906143c4565b80611c328161408a565b915050611b63565b50604051806040016040528060128152602001711131b7b73a32bc3a26b2b9b9b0b3b2911d1160711b8152505186611c729190614251565b95508593505b865186108015611ce85750868681518110611c9557611c9561405e565b6020910101516001600160f81b031916601160f91b148015611ce6575086611cbe6001886140a3565b81518110611cce57611cce61405e565b6020910101516001600160f81b031916601760fa1b14155b155b15611cff5785611cf78161408a565b965050611c78565b86518610611d1f5760405162461bcd60e51b8152600401610331906143c4565b859250838303611d875760405162461bcd60e51b815260206004820152602d60248201527f45787472616374696f6e206661696c65642e20456d70747920636f6e7465787460448201526c4d6573736167652076616c756560981b6064820152608401610331565b8381611d94876002614264565b81518110611da457611da461405e565b60209081029190910101528281611dbc876002614264565b611dc7906001614251565b81518110611dd757611dd761405e565b602090810291909101015284611dec8161408a565b9550611dfb9050600287614251565b955060005b604051806040016040528060188152602001771132bc3a3930b1ba32b22830b930b6b2ba32b939911d3d9160411b81525051811015611f2c57604051806040016040528060188152602001771132bc3a3930b1ba32b22830b930b6b2ba32b939911d3d9160411b8152508181518110611e7b57611e7b61405e565b01602001516001600160f81b03191688611e95838a614251565b81518110611ea557611ea561405e565b01602001516001600160f81b03191614611f1a5760405162461bcd60e51b815260206004820152603060248201527f45787472616374696f6e206661696c65642e204d616c666f726d65642065787460448201526f726163746564506172616d657465727360801b6064820152608401610331565b80611f248161408a565b915050611e00565b50604051806040016040528060188152602001771132bc3a3930b1ba32b22830b930b6b2ba32b939911d3d9160411b8152505186611f6a9190614251565b9550600091505b865186101561231457868681518110611f8c57611f8c61405e565b6020910101516001600160f81b031916601160f91b148015611fdd575086611fb56001886140a3565b81518110611fc557611fc561405e565b6020910101516001600160f81b031916601760fa1b14155b611ff35785611feb8161408a565b965050611f71565b816120fb5786612004876001614251565b815181106120145761201461405e565b6020910101516001600160f81b031916601d60f91b14801561206457508661203d876002614251565b8151811061204d5761204d61405e565b6020910101516001600160f81b031916601160f91b145b6120bc5760405162461bcd60e51b815260206004820152602360248201527f45787472616374696f6e206661696c65642e204d616c666f726d65642064617460448201526261203160e81b6064820152608401610331565b6120c7600387614251565b95506001915085816120da876002614264565b815181106120ea576120ea61405e565b602002602001018181525050611f71565b600087612109886001614251565b815181106121195761211961405e565b6020910101516001600160f81b031916600b60fa1b148015612169575087612142886002614251565b815181106121525761215261405e565b6020910101516001600160f81b031916601160f91b145b9050600088612179896001614251565b815181106121895761218961405e565b6020910101516001600160f81b031916607d60f81b1480156121d95750886121b2896002614251565b815181106121c2576121c261405e565b6020910101516001600160f81b031916600b60fa1b145b905081806121e45750805b61223c5760405162461bcd60e51b815260206004820152602360248201527f45787472616374696f6e206661696c65642e204d616c666f726d65642064617460448201526230901960e91b6064820152608401610331565b8783612249896002614264565b612254906001614251565b815181106122645761226461405e565b6020908102919091010152866122798161408a565b97505081156122f9578b60ff1687036122e35760405162461bcd60e51b815260206004820152602660248201527f45787472616374696f6e206661696c65642e204578636565646564206d61782060448201526576616c75657360d01b6064820152608401610331565b6122ee600389614251565b97506000935061230d565b612304600389614251565b97505050612314565b5050611f71565b88156125215760005b6040518060400160405280601081526020016f11383937bb34b232b92430b9b4111d1160811b81525051811015612432576040518060400160405280601081526020016f11383937bb34b232b92430b9b4111d1160811b81525081815181106123885761238861405e565b01602001516001600160f81b031916886123a2838a614251565b815181106123b2576123b261405e565b01602001516001600160f81b031916146124205760405162461bcd60e51b815260206004820152602960248201527f45787472616374696f6e206661696c65642e204d616c666f726d65642070726f6044820152680ecd2c8cae490c2e6d60bb1b6064820152608401610331565b8061242a8161408a565b91505061231d565b506040518060400160405280601081526020016f11383937bb34b232b92430b9b4111d1160811b81525051866124689190614251565b95508581612477876002614264565b815181106124875761248761405e565b6020026020010181815250505b8651861080156124c957508686815181106124b1576124b161405e565b6020910101516001600160f81b031916601160f91b14155b156124e057856124d88161408a565b965050612494565b85816124ed876002614264565b6124f8906001614251565b815181106125085761250861405e565b60209081029190910101528461251d8161408a565b9550505b6000856001600160401b0381111561253b5761253b6137b3565b60405190808252806020026020018201604052801561256e57816020015b60608152602001906001900390816125595790505b50905060005b868110156126c95782612588826002614264565b815181106125985761259861405e565b60200260200101519550828160026125b09190614264565b6125bb906001614251565b815181106125cb576125cb61405e565b60200260200101519450600086866125e391906140a3565b6001600160401b038111156125fa576125fa6137b3565b6040519080825280601f01601f191660200182016040528015612624576020820181803683370190505b509050865b86811015612696578a81815181106126435761264361405e565b01602001516001600160f81b0319168261265d8a846140a3565b8151811061266d5761266d61405e565b60200101906001600160f81b031916908160001a9053508061268e8161408a565b915050612629565b50808383815181106126aa576126aa61405e565b60200260200101819052505080806126c19061408a565b915050612574565b509b9a5050505050505050505050565b60006001826040516126eb9190613dbf565b9081526040519081900360200190205460ff1692915050565b6000816040516020016127179190613dbf565b604051602081830303815290604052805190602001208360405160200161273e9190613dbf565b6040516020818303038152906040528051906020012014905092915050565b60606000829050806000815181106127775761277761405e565b602001015160f81c60f81b816001815181106127955761279561405e565b602001015160f81c60f81b826002815181106127b3576127b361405e565b602001015160f81c60f81b836003815181106127d1576127d161405e565b602001015160f81c60f81b846004815181106127ef576127ef61405e565b602001015160f81c60f81b8560058151811061280d5761280d61405e565b602001015160f81c60f81b8660068151811061282b5761282b61405e565b602001015160f81c60f81b876007815181106128495761284961405e565b016020908101516040516001600160f81b0319998a1692810192909252968816602182015294871660228601529286166023850152602d60f81b6024850181905291861660258501528516602684015260278301528316602882015291166029820152602a015b604051602081830303815290604052915050919050565b60006128d1613773565b82516000908190815b81811015612a1e578681815181106128f4576128f461405e565b6020910101516001600160f81b031916602d60f81b148061293957508681815181106129225761292261405e565b6020910101516001600160f81b031916601d60f91b145b8061296857508681815181106129515761295161405e565b6020910101516001600160f81b031916601560fa1b145b8061299757508681815181106129805761298061405e565b6020910101516001600160f81b031916600160fd1b145b156129d9576129a7878483612df9565b8585600681106129b9576129b961405e565b60200201526129c9816001614251565b9250836129d58161408a565b9450505b8681815181106129eb576129eb61405e565b01602001516001600160f81b031916601760f91b03612a0c57809150612a1e565b80612a168161408a565b9150506128da565b50612a2a868383612df9565b848460068110612a3c57612a3c61405e565b602002015260058314612a875760405162461bcd60e51b8152602060048201526013602482015272496e76616c6964206461746520737472696e6760681b6044820152606401610331565b612ae3612a9d600086815b6020020151906115ef565b612aaa6000876001612a92565b612ab76000886002612a92565b612ac46000896003612a92565b612ad160008a6004612a92565b612ade60008b6005612a92565b612ec5565b9695505050505050565b600083818080805b8451811015612c4357603060f81b858281518110612b1557612b1561405e565b01602001516001600160f81b03191610801590612b565750603960f81b858281518110612b4457612b4461405e565b01602001516001600160f81b03191611155b15612b99576030858281518110612b6f57612b6f61405e565b0160200151612b81919060f81c6140a3565b612b8c85600a614264565b612b969190614251565b93505b8115612bad5782612ba98161408a565b9350505b876001600160f81b031916858281518110612bca57612bca61405e565b01602001516001600160f81b03191603612c31578115612c2c5760405162461bcd60e51b815260206004820152601c60248201527f537472696e6720686173206d756c7469706c6520646563696d616c73000000006044820152606401610331565b600191505b80612c3b8161408a565b915050612af5565b5085821115612c9f5760405162461bcd60e51b815260206004820152602260248201527f537472696e672068617320746f6f206d616e7920646563696d616c20706c6163604482015261657360f01b6064820152608401610331565b612ca982876140a3565b612cb490600a6144f3565b612cbe9084614264565b98975050505050505050565b6060612cfa8260000151604051602001612ce691815260200190565b604051602081830303815290604052612f21565b612d0783602001516130e4565b612d1a846040015163ffffffff16613236565b612d2d856060015163ffffffff16613236565b604051602001612d4094939291906144ff565b6040516020818303038152906040529050919050565b600080612d638451613236565b84604051602001612d75929190614578565b6040516020818303038152906040528051906020012090506114cc8184613361565b81516000908190815b818110156117e757846001600160a01b0316868281518110612dc457612dc461405e565b60200260200101516001600160a01b031603612de7579250600191506117f39050565b80612df18161408a565b915050612da0565b6060836000612e0885856140a3565b6001600160401b03811115612e1f57612e1f6137b3565b6040519080825280601f01601f191660200182016040528015612e49576020820181803683370190505b509050845b84811015612ebb57828181518110612e6857612e6861405e565b01602001516001600160f81b03191682612e8288846140a3565b81518110612e9257612e9261405e565b60200101906001600160f81b031916908160001a90535080612eb38161408a565b915050612e4e565b5095945050505050565b600081612ed3603c85614264565b612edf610e1087614264565b62015180612eee8b8b8b61337d565b612ef89190614264565b612f029190614251565b612f0c9190614251565b612f169190614251565b979650505050505050565b6060600082516002612f339190614264565b6001600160401b03811115612f4a57612f4a6137b3565b6040519080825280601f01601f191660200182016040528015612f74576020820181803683370190505b5060408051808201909152601081526f181899199a1a9b1b9c1cb0b131b232b360811b602082015290915060005b84518110156130ba57818251868381518110612fc057612fc061405e565b0160200151612fd2919060f81c614291565b81518110612fe257612fe261405e565b01602001516001600160f81b03191683612ffd836002614264565b8151811061300d5761300d61405e565b60200101906001600160f81b031916908160001a9053508182518683815181106130395761303961405e565b016020015161304b919060f81c6145d3565b8151811061305b5761305b61405e565b01602001516001600160f81b03191683613076836002614264565b613081906001614251565b815181106130915761309161405e565b60200101906001600160f81b031916908160001a905350806130b28161408a565b915050612fa2565b50816040516020016130cc91906145e7565b60405160208183030381529060405292505050919050565b60408051602880825260608281019093526000919060208201818036833701905050905060005b60148110156132245760006131218260136140a3565b61312c906008614264565b6131379060026144f3565b61314a906001600160a01b038716614291565b60f81b9050600060108260f81c6131619190614611565b60f81b905060008160f81c60106131789190614356565b8360f81c6131869190614633565b60f81b9050613194826134ae565b856131a0866002614264565b815181106131b0576131b061405e565b60200101906001600160f81b031916908160001a9053506131d0816134ae565b856131dc866002614264565b6131e7906001614251565b815181106131f7576131f761405e565b60200101906001600160f81b031916908160001a905350505050808061321c9061408a565b91505061310b565b50806040516020016128b091906145e7565b60608160000361325d5750506040805180820190915260018152600360fc1b602082015290565b8160005b811561328757806132718161408a565b91506132809050600a83614291565b9150613261565b6000816001600160401b038111156132a1576132a16137b3565b6040519080825280601f01601f1916602001820160405280156132cb576020820181803683370190505b509050815b8515613358576132e16001826140a3565b905060006132f0600a88614291565b6132fb90600a614264565b61330590886140a3565b61331090603061464c565b905060008160f81b90508084848151811061332d5761332d61405e565b60200101906001600160f81b031916908160001a90535061334f600a89614291565b975050506132d0565b50949350505050565b600080600061337085856134e9565b9150915061176b8161352b565b60006107b284101561338e57600080fd5b838383600062253d8c60046064600c6133a8600e88614665565b6133b29190614685565b6133be886113246146b3565b6133c891906146b3565b6133d29190614685565b6133dd9060036146db565b6133e79190614685565b600c806133f5600e88614665565b6133ff9190614685565b61340a90600c6146db565b613415600288614665565b61341f9190614665565b61342b9061016f6146db565b6134359190614685565b6004600c613444600e89614665565b61344e9190614685565b61345a896112c06146b3565b61346491906146b3565b613470906105b56146db565b61347a9190614685565b613486617d4b87614665565b61349091906146b3565b61349a91906146b3565b6134a49190614665565b612cbe9190614665565b6000600a60f883901c10156134d5576134cc60f883901c603061464c565b60f81b92915050565b6134cc60f883901c605761464c565b919050565b600080825160410361351f5760208301516040840151606085015160001a61351387828585613675565b945094505050506117f3565b506000905060026117f3565b600081600481111561353f5761353f61470b565b036135475750565b600181600481111561355b5761355b61470b565b036135a85760405162461bcd60e51b815260206004820152601860248201527f45434453413a20696e76616c6964207369676e617475726500000000000000006044820152606401610331565b60028160048111156135bc576135bc61470b565b036136095760405162461bcd60e51b815260206004820152601f60248201527f45434453413a20696e76616c6964207369676e6174757265206c656e677468006044820152606401610331565b600381600481111561361d5761361d61470b565b036108855760405162461bcd60e51b815260206004820152602260248201527f45434453413a20696e76616c6964207369676e6174757265202773272076616c604482015261756560f01b6064820152608401610331565b6000807f7fffffffffffffffffffffffffffffff5d576e7357a4501ddfe92f46681b20a08311156136ac5750600090506003613730565b6040805160008082526020820180845289905260ff881692820192909252606081018690526080810185905260019060a0016020604051602081039080840390855afa158015613700573d6000803e3d6000fd5b5050604051601f1901519150506001600160a01b03811661372957600060019250925050613730565b9150600090505b94509492505050565b50805461374590613f16565b6000825580601f10613755575050565b601f016020900490600052602060002090810190610885919061379a565b6040518060c001604052806006905b60608152602001906001900390816137825790505090565b5b808211156137af576000815560010161379b565b5090565b634e487b7160e01b600052604160045260246000fd5b604080519081016001600160401b03811182821017156137eb576137eb6137b3565b60405290565b604051606081016001600160401b03811182821017156137eb576137eb6137b3565b60405161012081016001600160401b03811182821017156137eb576137eb6137b3565b604051601f8201601f191681016001600160401b038111828210171561385e5761385e6137b3565b604052919050565b600082601f83011261387757600080fd5b81356001600160401b03811115613890576138906137b3565b6138a3601f8201601f1916602001613836565b8181528460208386010111156138b857600080fd5b816020850160208301376000918101602001919091529392505050565b6000602082840312156138e757600080fd5b81356001600160401b038111156138fd57600080fd5b6114cc84828501613866565b60006020828403121561391b57600080fd5b81356001600160401b0381111561393157600080fd5b8201610120818503121561160057600080fd5b60005b8381101561395f578181015183820152602001613947565b50506000910152565b60008151808452613980816020860160208601613944565b601f01601f19169290920160200192915050565b602081528151151560208201526020820151604082015260408201516060820152606082015160808201526000608083015160a0808401526114cc60c0840182613968565b6000602082840312156139eb57600080fd5b5035919050565b6020815260006116006020830184613968565b6000602080830181845280855180835260408601915060408160051b870101925083870160005b82811015613a5a57603f19888603018452613a48858351613968565b94509285019290850190600101613a2c565b5092979650505050505050565b80356001600160a01b03811681146134e457600080fd5b600060208284031215613a9057600080fd5b61160082613a67565b803563ffffffff811681146134e457600080fd5b60006001600160401b03821115613ac657613ac66137b3565b5060051b60200190565b600082601f830112613ae157600080fd5b81356020613af6613af183613aad565b613836565b82815260059290921b84018101918181019086841115613b1557600080fd5b8286015b84811015613b545780356001600160401b03811115613b385760008081fd5b613b468986838b0101613866565b845250918301918301613b19565b509695505050505050565b600081830360a0811215613b7257600080fd5b613b7a6137c9565b91506080811215613b8a57600080fd5b50604051608081016001600160401b038282108183111715613bae57613bae6137b3565b8160405284358352613bc260208601613a67565b6020840152613bd360408601613a99565b6040840152613be460608601613a99565b606084015291835260808401359180831115613bff57600080fd5b5050613c0d84828501613ad0565b60208301525092915050565b600060408284031215613c2b57600080fd5b613c336137c9565b905081356001600160401b0380821115613c4c57600080fd5b9083019060608286031215613c6057600080fd5b613c686137f1565b823582811115613c7757600080fd5b613c8387828601613866565b825250602083013582811115613c9857600080fd5b613ca487828601613866565b602083015250604083013582811115613cbc57600080fd5b613cc887828601613866565b60408301525083526020840135915080821115613ce457600080fd5b50613c0d84828501613b5f565b600082601f830112613d0257600080fd5b81356020613d12613af183613aad565b82815260059290921b84018101918181019086841115613d3157600080fd5b8286015b84811015613b5457613d4681613a67565b8352918301918301613d35565b600080600060608486031215613d6857600080fd5b83356001600160401b0380821115613d7f57600080fd5b613d8b87838801613c19565b94506020860135915080821115613da157600080fd5b50613dae86828701613cf1565b925050604084013590509250925092565b60008251613dd1818460208701613944565b9190910192915050565b6000808335601e19843603018112613df257600080fd5b8301803591506001600160401b03821115613e0c57600080fd5b6020019150368190038213156117f357600080fd5b60006101208236031215613e3457600080fd5b613e3c613813565b82356001600160401b0380821115613e5357600080fd5b613e5f36838701613866565b8352613e6d60208601613a67565b602084015260408501356040840152606085013560608401526080850135915080821115613e9a57600080fd5b613ea636838701613866565b608084015260a085013560a084015260c085013560c084015260e0850135915080821115613ed357600080fd5b613edf36838701613866565b60e084015261010091508185013581811115613efa57600080fd5b613f0636828801613866565b8385015250505080915050919050565b600181811c90821680613f2a57607f821691505b602082108103613f4a57634e487b7160e01b600052602260045260246000fd5b50919050565b601f821115613f9a57600081815260208120601f850160051c81016020861015613f775750805b601f850160051c820191505b81811015613f9657828155600101613f83565b5050505b505050565b81516001600160401b03811115613fb857613fb86137b3565b613fcc81613fc68454613f16565b84613f50565b602080601f8311600181146140015760008415613fe95750858301515b600019600386901b1c1916600185901b178555613f96565b600085815260208120601f198616915b8281101561403057888601518255948401946001909101908401614011565b508582101561404e5787850151600019600388901b60f8161c191681555b5050505050600190811b01905550565b634e487b7160e01b600052603260045260246000fd5b634e487b7160e01b600052601160045260246000fd5b60006001820161409c5761409c614074565b5060010190565b8181038181111561149957611499614074565b8181036140c1575050565b6140cb8254613f16565b6001600160401b038111156140e2576140e26137b3565b6140f081613fc68454613f16565b6000601f821160018114614124576000831561410c5750848201545b600019600385901b1c1916600184901b1784556115e8565b600085815260209020601f19841690600086815260209020845b8381101561415e578286015482556001958601959091019060200161413e565b508583101561404e5793015460001960f8600387901b161c19169092555050600190811b01905550565b634e487b7160e01b600052603160045260246000fd5b600080604083850312156141b157600080fd5b82356001600160401b03808211156141c857600080fd5b6141d486838701613c19565b935060208501359150808211156141ea57600080fd5b506141f785828601613c19565b9150509250929050565b60006020828403121561421357600080fd5b815160ff8116811461160057600080fd5b60008251614236818460208701613944565b685432333a35393a353960b81b920191825250600901919050565b8082018082111561149957611499614074565b808202811582820484141761149957611499614074565b634e487b7160e01b600052601260045260246000fd5b6000826142a0576142a061427b565b500490565b6000602082840312156142b757600080fd5b8151801515811461160057600080fd5b600084516142d9818460208901613944565b600560f91b90830181815285519091906142fa816001850160208a01613944565b60019201918201528351614315816002840160208801613944565b0160020195945050505050565b60006020828403121561433457600080fd5b81356001600160401b0381111561434a57600080fd5b6114cc84828501613cf1565b60ff818116838216029081169081811461437257614372614074565b5092915050565b6020808252602b908201527f45787472616374696f6e206661696c65642e204d616c666f726d656420636f6e60408201526a746578744164647265737360a81b606082015260800190565b6020808252602b908201527f45787472616374696f6e206661696c65642e204d616c666f726d656420636f6e60408201526a746578744d65737361676560a81b606082015260800190565b600181815b8085111561444a57816000190482111561443057614430614074565b8085161561443d57918102915b93841c9390800290614414565b509250929050565b60008261446157506001611499565b8161446e57506000611499565b8160018114614484576002811461448e576144aa565b6001915050611499565b60ff84111561449f5761449f614074565b50506001821b611499565b5060208310610133831016604e8410600b84101617156144cd575081810a611499565b6144d7838361440f565b80600019048211156144eb576144eb614074565b029392505050565b60006116008383614452565b60008551614511818460208a01613944565b600560f91b9083018181528651909190614532816001850160208b01613944565b60019201918201819052855161454f816002850160208a01613944565b6002920191820152835161456a816003840160208801613944565b016003019695505050505050565b7f19457468657265756d205369676e6564204d6573736167653a0a0000000000008152600083516145b081601a850160208801613944565b8351908301906145c781601a840160208801613944565b01601a01949350505050565b6000826145e2576145e261427b565b500690565b61060f60f31b815260008251614604816002850160208701613944565b9190910160020192915050565b600060ff8316806146245761462461427b565b8060ff84160491505092915050565b60ff828116828216039081111561149957611499614074565b60ff818116838216019081111561149957611499614074565b818103600083128015838313168383128216171561437257614372614074565b6000826146945761469461427b565b600160ff1b8214600019841416156146ae576146ae614074565b500590565b80820182811260008312801582168215821617156146d3576146d3614074565b505092915050565b80820260008212600160ff1b841416156146f7576146f7614074565b818105831482151761149957611499614074565b634e487b7160e01b600052602160045260246000fdfea26469706673582212204355b584e15e666181c6b61458d9e944d299aa7e09791316e9c2afc7faf5905d64736f6c63430008120033",
  "devdoc": {
    "kind": "dev",
    "methods": {
      "addProviderHash(string)": {
        "params": {
          "_newProviderHash": "New provider hash to be added"
        }
      },
      "owner()": {
        "details": "Returns the address of the current owner."
      },
      "removeProviderHash(string)": {
        "params": {
          "_removeProviderHash": "Provider hash to be removed"
        }
      },
      "renounceOwnership()": {
        "details": "Leaves the contract without owner. It will not be possible to call `onlyOwner` functions. Can only be called by the current owner. NOTE: Renouncing ownership will leave the contract without an owner, thereby disabling any functionality that is only available to the owner."
      },
      "setTimestampBuffer(uint256)": {
        "params": {
          "_timestampBuffer": "The timestamp buffer for payments"
        }
      },
      "transferOwnership(address)": {
        "details": "Transfers ownership of the contract to a new account (`newOwner`). Can only be called by the current owner."
      },
      "verifyPayment((bytes,address,uint256,uint256,string,bytes32,uint256,bytes,bytes))": {
        "params": {
          "_verifyPaymentData": "Payment proof and intent details required for verification"
        },
        "returns": {
          "_0": "result The payment verification result containing success status, intent hash, release amount, payment currency and payment ID"
        }
      },
      "verifyProofSignatures(((string,string,string),((bytes32,address,uint32,uint32),bytes[])),address[],uint256)": {
        "params": {
          "_requiredThreshold": "Minimum number of signatures required from accepted witnesses",
          "_witnesses": "List of accepted witnesses",
          "proof": "Proof to be verified"
        }
      }
    },
    "version": 1
  },
  "userdoc": {
    "kind": "user",
    "methods": {
      "addProviderHash(string)": {
        "notice": "ONLY OWNER: Add provider hash string. Provider hash must not have been previously added."
      },
      "removeProviderHash(string)": {
        "notice": "ONLY OWNER: Remove provider hash string. Provider hash must have been previously added."
      },
      "setTimestampBuffer(uint256)": {
        "notice": "OWNER ONLY: Sets the timestamp buffer for payments. This is the amount of time in seconds that the timestamp can be off by and still be considered valid. Necessary to build in flexibility  with L2 timestamps."
      },
      "verifyPayment((bytes,address,uint256,uint256,string,bytes32,uint256,bytes,bytes))": {
        "notice": "Verifies two Reclaim proofs for a Chase Zelle payment."
      },
      "verifyProofSignatures(((string,string,string),((bytes32,address,uint32,uint32),bytes[])),address[],uint256)": {
        "notice": "Verify proof generated by witnesses. Claim is constructed by hashing claimInfo (provider, context, parameters) to get the identifier. And then signing on (identifier, owner, timestamp, epoch) to get claim signature.  This function verifies a claim by performing the following checks on the claim - Calculates the hash of the claimInfo and checks if it matches the identifier in the claim - Checks if the signatures are valid and from the witnesses This function reverts if - No signatures are found on the proof - ClaimInfo hash does not match the identifier in the claim - Signatures are invalid (not from the witnesses)  DEV NOTE: This function does NOT validate that the claim provider hash is valid. That is the  responsibility of the caller. Ensure witnesses are unique otherwise the threshold can be met  with duplicate witnesses.  Parts of the code are adapted from: https://basescan.org/address/0x7281630e4346dd4c0b7ae3b4689c1d0102741410#code    "
      }
    },
    "version": 1
  },
  "storageLayout": {
    "storage": [
      {
        "astId": 7,
        "contract": "contracts/verifiers/ZelleVerifiers/ZelleChaseReclaimVerifier.sol:ZelleChaseReclaimVerifier",
        "label": "_owner",
        "offset": 0,
        "slot": "0",
        "type": "t_address"
      },
      {
        "astId": 13920,
        "contract": "contracts/verifiers/ZelleVerifiers/ZelleChaseReclaimVerifier.sol:ZelleChaseReclaimVerifier",
        "label": "isProviderHash",
        "offset": 0,
        "slot": "1",
        "type": "t_mapping(t_string_memory_ptr,t_bool)"
      },
      {
        "astId": 13923,
        "contract": "contracts/verifiers/ZelleVerifiers/ZelleChaseReclaimVerifier.sol:ZelleChaseReclaimVerifier",
        "label": "providerHashes",
        "offset": 0,
        "slot": "2",
        "type": "t_array(t_string_storage)dyn_storage"
      },
      {
        "astId": 17167,
        "contract": "contracts/verifiers/ZelleVerifiers/ZelleChaseReclaimVerifier.sol:ZelleChaseReclaimVerifier",
        "label": "nullifierRegistry",
        "offset": 0,
        "slot": "3",
        "type": "t_contract(INullifierRegistry)10131"
      },
      {
        "astId": 17169,
        "contract": "contracts/verifiers/ZelleVerifiers/ZelleChaseReclaimVerifier.sol:ZelleChaseReclaimVerifier",
        "label": "timestampBuffer",
        "offset": 0,
        "slot": "4",
        "type": "t_uint256"
      }
    ],
    "types": {
      "t_address": {
        "encoding": "inplace",
        "label": "address",
        "numberOfBytes": "20"
      },
      "t_array(t_string_storage)dyn_storage": {
        "base": "t_string_storage",
        "encoding": "dynamic_array",
        "label": "string[]",
        "numberOfBytes": "32"
      },
      "t_bool": {
        "encoding": "inplace",
        "label": "bool",
        "numberOfBytes": "1"
      },
      "t_contract(INullifierRegistry)10131": {
        "encoding": "inplace",
        "label": "contract INullifierRegistry",
        "numberOfBytes": "20"
      },
      "t_mapping(t_string_memory_ptr,t_bool)": {
        "encoding": "mapping",
        "key": "t_string_memory_ptr",
        "label": "mapping(string => bool)",
        "numberOfBytes": "32",
        "value": "t_bool"
      },
      "t_string_memory_ptr": {
        "encoding": "bytes",
        "label": "string",
        "numberOfBytes": "32"
      },
      "t_string_storage": {
        "encoding": "bytes",
        "label": "string",
        "numberOfBytes": "32"
      },
      "t_uint256": {
        "encoding": "inplace",
        "label": "uint256",
        "numberOfBytes": "32"
      }
    }
  }
}