{
  "address": "0xAAefE9CdF9b4B4372c53B04Cc8D586DC0AdE2EEa",
  "abi": [
    {
      "inputs": [
        {
          "internalType": "address",
          "name": "_baseVerifier",
          "type": "address"
        },
        {
          "internalType": "contract INullifierRegistry",
          "name": "_nullifierRegistry",
          "type": "address"
        },
        {
          "internalType": "string[]",
          "name": "_providerHashes",
          "type": "string[]"
        },
        {
          "internalType": "uint256",
          "name": "_timestampBuffer",
          "type": "uint256"
        }
      ],
      "stateMutability": "nonpayable",
      "type": "constructor"
    },
    {
      "anonymous": false,
      "inputs": [
        {
          "indexed": true,
          "internalType": "address",
          "name": "previousOwner",
          "type": "address"
        },
        {
          "indexed": true,
          "internalType": "address",
          "name": "newOwner",
          "type": "address"
        }
      ],
      "name": "OwnershipTransferred",
      "type": "event"
    },
    {
      "anonymous": false,
      "inputs": [
        {
          "indexed": false,
          "internalType": "string",
          "name": "providerHash",
          "type": "string"
        }
      ],
      "name": "ProviderHashAdded",
      "type": "event"
    },
    {
      "anonymous": false,
      "inputs": [
        {
          "indexed": false,
          "internalType": "string",
          "name": "providerHash",
          "type": "string"
        }
      ],
      "name": "ProviderHashRemoved",
      "type": "event"
    },
    {
      "anonymous": false,
      "inputs": [
        {
          "indexed": false,
          "internalType": "uint256",
          "name": "newTimestampBuffer",
          "type": "uint256"
        }
      ],
      "name": "TimestampBufferSet",
      "type": "event"
    },
    {
      "inputs": [],
      "name": "DELIVERED_STATUS",
      "outputs": [
        {
          "internalType": "bytes32",
          "name": "",
          "type": "bytes32"
        }
      ],
      "stateMutability": "view",
      "type": "function"
    },
    {
      "inputs": [
        {
          "internalType": "string",
          "name": "_newProviderHash",
          "type": "string"
        }
      ],
      "name": "addProviderHash",
      "outputs": [],
      "stateMutability": "nonpayable",
      "type": "function"
    },
    {
      "inputs": [],
      "name": "baseVerifier",
      "outputs": [
        {
          "internalType": "address",
          "name": "",
          "type": "address"
        }
      ],
      "stateMutability": "view",
      "type": "function"
    },
    {
      "inputs": [],
      "name": "getProviderHashes",
      "outputs": [
        {
          "internalType": "string[]",
          "name": "",
          "type": "string[]"
        }
      ],
      "stateMutability": "view",
      "type": "function"
    },
    {
      "inputs": [
        {
          "internalType": "string",
          "name": "",
          "type": "string"
        }
      ],
      "name": "isProviderHash",
      "outputs": [
        {
          "internalType": "bool",
          "name": "",
          "type": "bool"
        }
      ],
      "stateMutability": "view",
      "type": "function"
    },
    {
      "inputs": [],
      "name": "nullifierRegistry",
      "outputs": [
        {
          "internalType": "contract INullifierRegistry",
          "name": "",
          "type": "address"
        }
      ],
      "stateMutability": "view",
      "type": "function"
    },
    {
      "inputs": [],
      "name": "owner",
      "outputs": [
        {
          "internalType": "address",
          "name": "",
          "type": "address"
        }
      ],
      "stateMutability": "view",
      "type": "function"
    },
    {
      "inputs": [
        {
          "internalType": "uint256",
          "name": "",
          "type": "uint256"
        }
      ],
      "name": "providerHashes",
      "outputs": [
        {
          "internalType": "string",
          "name": "",
          "type": "string"
        }
      ],
      "stateMutability": "view",
      "type": "function"
    },
    {
      "inputs": [
        {
          "internalType": "string",
          "name": "_removeProviderHash",
          "type": "string"
        }
      ],
      "name": "removeProviderHash",
      "outputs": [],
      "stateMutability": "nonpayable",
      "type": "function"
    },
    {
      "inputs": [],
      "name": "renounceOwnership",
      "outputs": [],
      "stateMutability": "nonpayable",
      "type": "function"
    },
    {
      "inputs": [
        {
          "internalType": "uint256",
          "name": "_timestampBuffer",
          "type": "uint256"
        }
      ],
      "name": "setTimestampBuffer",
      "outputs": [],
      "stateMutability": "nonpayable",
      "type": "function"
    },
    {
      "inputs": [],
      "name": "timestampBuffer",
      "outputs": [
        {
          "internalType": "uint256",
          "name": "",
          "type": "uint256"
        }
      ],
      "stateMutability": "view",
      "type": "function"
    },
    {
      "inputs": [
        {
          "internalType": "address",
          "name": "newOwner",
          "type": "address"
        }
      ],
      "name": "transferOwnership",
      "outputs": [],
      "stateMutability": "nonpayable",
      "type": "function"
    },
    {
      "inputs": [
        {
          "components": [
            {
              "internalType": "bytes",
              "name": "paymentProof",
              "type": "bytes"
            },
            {
              "internalType": "address",
              "name": "depositToken",
              "type": "address"
            },
            {
              "internalType": "uint256",
              "name": "intentAmount",
              "type": "uint256"
            },
            {
              "internalType": "uint256",
              "name": "intentTimestamp",
              "type": "uint256"
            },
            {
              "internalType": "string",
              "name": "payeeDetails",
              "type": "string"
            },
            {
              "internalType": "bytes32",
              "name": "fiatCurrency",
              "type": "bytes32"
            },
            {
              "internalType": "uint256",
              "name": "conversionRate",
              "type": "uint256"
            },
            {
              "internalType": "bytes",
              "name": "depositData",
              "type": "bytes"
            },
            {
              "internalType": "bytes",
              "name": "data",
              "type": "bytes"
            }
          ],
          "internalType": "struct IPaymentVerifier.VerifyPaymentData",
          "name": "_verifyPaymentData",
          "type": "tuple"
        }
      ],
      "name": "verifyPayment",
      "outputs": [
        {
          "components": [
            {
              "internalType": "bool",
              "name": "success",
              "type": "bool"
            },
            {
              "internalType": "bytes32",
              "name": "intentHash",
              "type": "bytes32"
            },
            {
              "internalType": "uint256",
              "name": "releaseAmount",
              "type": "uint256"
            },
            {
              "internalType": "bytes32",
              "name": "paymentCurrency",
              "type": "bytes32"
            },
            {
              "internalType": "string",
              "name": "paymentId",
              "type": "string"
            }
          ],
          "internalType": "struct IPaymentVerifier.PaymentVerificationResult",
          "name": "",
          "type": "tuple"
        }
      ],
      "stateMutability": "nonpayable",
      "type": "function"
    },
    {
      "inputs": [
        {
          "components": [
            {
              "components": [
                {
                  "internalType": "string",
                  "name": "provider",
                  "type": "string"
                },
                {
                  "internalType": "string",
                  "name": "parameters",
                  "type": "string"
                },
                {
                  "internalType": "string",
                  "name": "context",
                  "type": "string"
                }
              ],
              "internalType": "struct Claims.ClaimInfo",
              "name": "claimInfo",
              "type": "tuple"
            },
            {
              "components": [
                {
                  "components": [
                    {
                      "internalType": "bytes32",
                      "name": "identifier",
                      "type": "bytes32"
                    },
                    {
                      "internalType": "address",
                      "name": "owner",
                      "type": "address"
                    },
                    {
                      "internalType": "uint32",
                      "name": "timestampS",
                      "type": "uint32"
                    },
                    {
                      "internalType": "uint32",
                      "name": "epoch",
                      "type": "uint32"
                    }
                  ],
                  "internalType": "struct Claims.CompleteClaimData",
                  "name": "claim",
                  "type": "tuple"
                },
                {
                  "internalType": "bytes[]",
                  "name": "signatures",
                  "type": "bytes[]"
                }
              ],
              "internalType": "struct Claims.SignedClaim",
              "name": "signedClaim",
              "type": "tuple"
            }
          ],
          "internalType": "struct IReclaimVerifier.ReclaimProof",
          "name": "proof",
          "type": "tuple"
        },
        {
          "internalType": "address[]",
          "name": "_witnesses",
          "type": "address[]"
        },
        {
          "internalType": "uint256",
          "name": "_requiredThreshold",
          "type": "uint256"
        }
      ],
      "name": "verifyProofSignatures",
      "outputs": [
        {
          "internalType": "bool",
          "name": "",
          "type": "bool"
        }
      ],
      "stateMutability": "pure",
      "type": "function"
    }
  ],
  "transactionHash": "0xfb353033a509979ae8273878a632f1b3dfc6f9b58395e1d3360ca7cab7068535",
  "args": [
    "0x6577d3645f8fE66833E9B927B37798a4f303EA90",
    "0xbfEe97ec04f21882E4F23D32631477D653839AcB",
    [
      "0x611427d0224e99f0981060239894356dc4c3494f95eb9d139f9a402b130a9ad4",
      "0x3a3d23f3f3c5063af7fa0bd48aa98f4cd4658770aa5de971924fda7ef92ea743",
      "0x2a20d5d1fc3ccfa7f3053949fb067cb56447eb46cb415a10a496c36c5f9992d7",
      "0x1b2242ae270803ed3a0e3a71ea349013ec11a963283cd2b49225732155d9d669",
      "0x860f8b1feab450c110f88e8bf983a10ec470b3818f855635574871491d6de5fa",
      "0x0543afb5589ce0d9f4d0df461871820b3cc1f584d4e5e877dcc5a1fd8edbc900",
      "0x1898578b6c6320260bfa4f9717c2f529e53e74908405f32612d2c2612287cede",
      "0x532a1cde992553a1d73b6531b1ad8e163277486c831ebd1c9131ed2e20599f1e",
      "0xed23a57df2ed4a5d82d471ac4592380e0388bdc0a7a79b5844347cc4e1c6a134",
      "0x3ff906c52f9e9b446d294a35315953330b633dbba4b294ab222f060911e06e6c",
      "0x04cbc588ec74f2b8564fff743ff918fcb80e05d9081e6c6e2a5af8f21516885f",
      "0xf9bfbf3c277f0db3b59a1fc164e84fc096107cb3cf2d2717ff3a572644c17491",
      "0x8530dec46be3196b90044f8bb90ab69e7fdf9ccd6742eebd6c534dc9fa92953d",
      "0xc5a63db7cc0eaee9d3c2cc13caf4f16c878bc36e027b33c7e0731e71dbda73c1",
      "0x488098e92ae73d56b930f79217fa48877a8fd6b7d8ad337ea1f402f3d3ac1bcc",
      "0x39a45df78a1b4799a5a45c1a4ef1102d7873e6e160420719fdeec934372d4329",
      "0x716b3dae20b1b53804695d74be7e70f6d68f444ebcaae588c533f84e60fb3ec3",
      "0xba85f06a8d4fbbea51492788be36b7d06232fdccc866295c95f9dde18b09ec9f",
      "0x3c412cf774a4d18184e711fb33884c9929401433a00892afc97b1d94777ec7e3",
      "0x6296951a4ebed6beb817292c4c70ca7645abfd46efeb8f52a325ed0b37d21bf3"
    ],
    "86400"
  ],
  "numDeployments": 1,
  "solcInputHash": "22aa06e4f37e501f1f267dbeb03cdb0b",
  "bytecode": "0x60a06040523480156200001157600080fd5b5060405162004d8638038062004d868339810160408190526200003491620002ec565b81620000403362000214565b60005b8151811015620001e157600182828151811062000064576200006462000448565b60200260200101516040516200007b91906200045e565b9081526040519081900360200190205460ff1615620000e05760405162461bcd60e51b815260206004820152601b60248201527f50726f7669646572206861736820616c72656164792061646465640000000000604482015260640160405180910390fd5b600180838381518110620000f857620000f862000448565b60200260200101516040516200010f91906200045e565b908152602001604051809103902060006101000a81548160ff02191690831515021790555060028282815181106200014b576200014b62000448565b602090810291909101810151825460018101845560009384529190922001906200017690826200050b565b507fc9e1c78701d1853eeb1eb35ad3449e4b336281f672d5837243d21239dc6f4096828281518110620001ad57620001ad62000448565b6020026020010151604051620001c49190620005d7565b60405180910390a180620001d8816200060c565b91505062000043565b50506001600160a01b03938416608052600380546001600160a01b03191693909416929092179092556004555062000634565b600080546001600160a01b038381166001600160a01b0319831681178455604051919092169283917f8be0079c531659141344cd1fd0a4f28419497f9722a3daafe3b4186f6b6457e09190a35050565b6001600160a01b03811681146200027a57600080fd5b50565b634e487b7160e01b600052604160045260246000fd5b604051601f8201601f191681016001600160401b0381118282101715620002be57620002be6200027d565b604052919050565b60005b83811015620002e3578181015183820152602001620002c9565b50506000910152565b600080600080608085870312156200030357600080fd5b8451620003108162000264565b80945050602080860151620003258162000264565b60408701519094506001600160401b03808211156200034357600080fd5b818801915088601f8301126200035857600080fd5b8151818111156200036d576200036d6200027d565b8060051b6200037e85820162000293565b918252838101850191858101908c8411156200039957600080fd5b86860192505b838310156200043257825185811115620003b95760008081fd5b8601603f81018e13620003cc5760008081fd5b8781015186811115620003e357620003e36200027d565b620003f7601f8201601f19168a0162000293565b8181528f60408385010111156200040e5760008081fd5b62000420828b830160408601620002c6565b8452505091860191908601906200039f565b60609b909b0151999c989b505050505050505050565b634e487b7160e01b600052603260045260246000fd5b6000825162000472818460208701620002c6565b9190910192915050565b600181811c908216806200049157607f821691505b602082108103620004b257634e487b7160e01b600052602260045260246000fd5b50919050565b601f8211156200050657600081815260208120601f850160051c81016020861015620004e15750805b601f850160051c820191505b818110156200050257828155600101620004ed565b5050505b505050565b81516001600160401b038111156200052757620005276200027d565b6200053f816200053884546200047c565b84620004b8565b602080601f8311600181146200057757600084156200055e5750858301515b600019600386901b1c1916600185901b17855562000502565b600085815260208120601f198616915b82811015620005a85788860151825594840194600190910190840162000587565b5085821015620005c75787850151600019600388901b60f8161c191681555b5050505050600190811b01905550565b6020815260008251806020840152620005f8816040850160208701620002c6565b601f01601f19169190910160400192915050565b6000600182016200062d57634e487b7160e01b600052601160045260246000fd5b5060010190565b60805161472f620006576000396000818161022901526103c5015261472f6000f3fe608060405234801561001057600080fd5b50600436106100f55760003560e01c8063b870676c11610097578063ea4a7bd711610066578063ea4a7bd714610224578063f2fde38b1461024b578063f75885e21461025e578063f78378f31461027157600080fd5b8063b870676c146101d2578063bd6e7741146101e5578063c2107e73146101f8578063dbac58211461020d57600080fd5b806357c6e12a116100d357806357c6e12a14610172578063715018a6146101925780638da5cb5b1461019a578063b2a3fda4146101bf57600080fd5b80631cba9bed146100fa5780632ca6927d1461010f5780633e7f227514610152575b600080fd5b61010d6101083660046138dc565b6102a5565b005b61013d61011d3660046138dc565b805160208183018101805160018252928201919093012091525460ff1681565b60405190151581526020015b60405180910390f35b610165610160366004613910565b61038d565b604051610149919061399b565b6101856101803660046139e0565b61050b565b60405161014991906139f9565b61010d6105b7565b6000546001600160a01b03165b6040516001600160a01b039091168152602001610149565b61010d6101cd3660046139e0565b6105cb565b6003546101a7906001600160a01b031681565b61010d6101f33660046138dc565b610608565b61020061071d565b6040516101499190613a0c565b61021660045481565b604051908152602001610149565b6101a77f000000000000000000000000000000000000000000000000000000000000000081565b61010d610259366004613a85565b6107f6565b61013d61026c366004613d5a565b61086f565b6102166040516811115312559154915160ba1b60208201526029016040516020818303038152906040528051906020012081565b6102ad610c2f565b6001816040516102bd9190613dc6565b9081526040519081900360200190205460ff166103215760405162461bcd60e51b815260206004820152601760248201527f50726f76696465722068617368206e6f7420666f756e6400000000000000000060448201526064015b60405180910390fd5b6001816040516103319190613dc6565b908152604051908190036020019020805460ff19169055610353600282610c89565b7f6f594b4b4f0580c66aabba75218163a99fa1fe330a171cc9e2bfd8e167db22f88160405161038291906139f9565b60405180910390a150565b6040805160a0810182526000808252602082018190529181018290526060808201929092526080810191909152336001600160a01b037f000000000000000000000000000000000000000000000000000000000000000016146104325760405162461bcd60e51b815260206004820152601b60248201527f4f6e6c7920626173652076657269666965722063616e2063616c6c00000000006044820152606401610318565b60006104536104418480613de2565b61044e60e0870187613de2565b610e43565b905060006104698261046486613e28565b610f14565b90506000610480828660c00135876040013561119d565b90506104b5836040015160405160200161049a9190613dc6565b604051602081830303815290604052805190602001206111d2565b6040518060a001604052806001151581526020016104e160008660a001516112ed90919063ffffffff16565b60001b81526020018281526020018660a00135815260200184604001518152509350505050919050565b6002818154811061051b57600080fd5b90600052602060002001600091509050805461053690613f1d565b80601f016020809104026020016040519081016040528092919081815260200182805461056290613f1d565b80156105af5780601f10610584576101008083540402835291602001916105af565b820191906000526020600020905b81548152906001019060200180831161059257829003601f168201915b505050505081565b6105bf610c2f565b6105c96000611305565b565b6105d3610c2f565b60048190556040518181527f11e8dda5412ecab251b7783921be2eb37fdf13b389fc7f671f2cee11a1dfefea90602001610382565b610610610c2f565b6001816040516106209190613dc6565b9081526040519081900360200190205460ff16156106805760405162461bcd60e51b815260206004820152601b60248201527f50726f7669646572206861736820616c726561647920616464656400000000006044820152606401610318565b600180826040516106919190613dc6565b908152604051908190036020019020805491151560ff19909216919091179055600280546001810182556000919091527f405787fa12a823e0f2b7631cc41b3ba8828b3321ca811111fa75cd3aa3bb5ace016106ed8282613fa6565b507fc9e1c78701d1853eeb1eb35ad3449e4b336281f672d5837243d21239dc6f40968160405161038291906139f9565b60606002805480602002602001604051908101604052809291908181526020016000905b828210156107ed57838290600052602060002001805461076090613f1d565b80601f016020809104026020016040519081016040528092919081815260200182805461078c90613f1d565b80156107d95780601f106107ae576101008083540402835291602001916107d9565b820191906000526020600020905b8154815290600101906020018083116107bc57829003601f168201915b505050505081526020019060010190610741565b50505050905090565b6107fe610c2f565b6001600160a01b0381166108635760405162461bcd60e51b815260206004820152602660248201527f4f776e61626c653a206e6577206f776e657220697320746865207a65726f206160448201526564647265737360d01b6064820152608401610318565b61086c81611305565b50565b60008082116108d25760405162461bcd60e51b815260206004820152602960248201527f5265717569726564207468726573686f6c64206d75737420626520677265617460448201526806572207468616e20360bc1b6064820152608401610318565b82518211156109575760405162461bcd60e51b8152602060048201526044602482018190527f5265717569726564207468726573686f6c64206d757374206265206c65737320908201527f7468616e206f7220657175616c20746f206e756d626572206f66207769746e656064820152637373657360e01b608482015260a401610318565b600084602001516020015151116109a05760405162461bcd60e51b815260206004820152600d60248201526c4e6f207369676e61747572657360981b6044820152606401610318565b6040805180820190915260208086018051518352518101519082015284516000906109ca90611355565b602087015151519091508114610a225760405162461bcd60e51b815260206004820152601c60248201527f436c61696d496e666f206861736820646f65736e2774206d61746368000000006044820152606401610318565b80610a685760405162461bcd60e51b8152602060048201526016602482015275436c61696d496e666f2068617368206973207a65726f60501b6044820152606401610318565b6000610a7383611398565b90508481511015610ad75760405162461bcd60e51b815260206004820152602860248201527f4665776572207369676e617475726573207468616e20726571756972656420746044820152671a1c995cda1bdb1960c21b6064820152608401610318565b600081516001600160401b03811115610af257610af26137ba565b604051908082528060200260200182016040528015610b1b578160200160208202803683370190505b5090506000805b8351811015610bc3576000848281518110610b3f57610b3f614065565b60200260200101519050610b5c818561147190919063ffffffff16565b15610b675750610bb1565b610b718a82611471565b15610baf5780848481518110610b8957610b89614065565b6001600160a01b039092166020928302919091019091015282610bab81614091565b9350505b505b80610bbb81614091565b915050610b22565b5086811015610c205760405162461bcd60e51b815260206004820152602360248201527f4e6f7420656e6f7567682076616c6964207769746e657373207369676e61747560448201526272657360e81b6064820152608401610318565b50600198975050505050505050565b6000546001600160a01b031633146105c95760405162461bcd60e51b815260206004820181905260248201527f4f776e61626c653a2063616c6c6572206973206e6f7420746865206f776e65726044820152606401610318565b600080610d6684805480602002602001604051908101604052809291908181526020016000905b82821015610d5c578382906000526020600020018054610ccf90613f1d565b80601f0160208091040260200160405190810160405280929190818152602001828054610cfb90613f1d565b8015610d485780601f10610d1d57610100808354040283529160200191610d48565b820191906000526020600020905b815481529060010190602001808311610d2b57829003601f168201915b505050505081526020019060010190610cb0565b5050505084611487565b9150915080610dae5760405162461bcd60e51b815260206004820152601460248201527329ba3934b733903737ba1034b71030b93930bc9760611b6044820152606401610318565b8354600090610dbf906001906140aa565b9050808314610e0e57848181548110610dda57610dda614065565b90600052602060002001858481548110610df657610df6614065565b906000526020600020019081610e0c91906140bd565b505b84805480610e1e57610e1e61418f565b600190038181906000526020600020016000610e3a9190613740565b90555050505050565b610e836040518060e00160405280606081526020016060815260200160608152602001606081526020016060815260200160608152602001606081525090565b6000610e91858701876141a5565b90506000610e9f85856114f8565b9050610ead8282600161086f565b50610eb782611506565b9250610ec68360c00151611650565b610f0a5760405162461bcd60e51b815260206004820152601560248201527409cde40ecc2d8d2c840e0e4deecd2c8cae490c2e6d605b1b6044820152606401610318565b5050949350505050565b60008082602001516001600160a01b031663313ce5676040518163ffffffff1660e01b8152600401602060405180830381865afa158015610f59573d6000803e3d6000fd5b505050506040513d601f19601f82011682018060405250810190610f7d91906141d9565b8451909150600090610f929060ff84166112ed565b905060008111610ff55760405162461bcd60e51b815260206004820152602860248201527f5061796d656e7420616d6f756e74206d7573742062652067726561746572207460448201526768616e207a65726f60c01b6064820152608401610318565b608080850151908601516110089161167b565b6110545760405162461bcd60e51b815260206004820152601b60248201527f496e636f7272656374207061796d656e7420726563697069656e7400000000006044820152606401610318565b600061106386602001516116d4565b905060006004546110928360405160200161107e91906141fc565b6040516020818303038152906040526119e6565b61109c9190614229565b905085606001518110156110f25760405162461bcd60e51b815260206004820152601b60248201527f496e636f7272656374207061796d656e742074696d657374616d7000000000006044820152606401610318565b6040516811115312559154915160ba1b60208201526029016040516020818303038152906040528051906020012087606001516040516020016111359190613dc6565b60405160208183030381529060405280519060200120146111905760405162461bcd60e51b815260206004820152601560248201527414185e5b595b9d081b9bdd0819195b1a5d995c9959605a1b6044820152606401610318565b5090925050505b92915050565b600080836111b3670de0b6b3a76400008761423c565b6111bd9190614269565b9050828111156111ca5750815b949350505050565b60035460405163169394bb60e01b8152600481018390526001600160a01b039091169063169394bb90602401602060405180830381865afa15801561121b573d6000803e3d6000fd5b505050506040513d601f19601f8201168201806040525081019061123f919061427d565b1561128c5760405162461bcd60e51b815260206004820152601f60248201527f4e756c6c69666965722068617320616c7265616479206265656e2075736564006044820152606401610318565b600354604051632dea6f9960e11b8152600481018390526001600160a01b0390911690635bd4df3290602401600060405180830381600087803b1580156112d257600080fd5b505af11580156112e6573d6000803e3d6000fd5b5050505050565b60006112fe83601760f91b84611c0c565b9392505050565b600080546001600160a01b038381166001600160a01b0319831681178455604051919092169283917f8be0079c531659141344cd1fd0a4f28419497f9722a3daafe3b4186f6b6457e09190a35050565b6000808260000151836020015184604001516040516020016113799392919061429f565b60408051601f1981840301815291905280516020909101209392505050565b606060006113a98360000151611de9565b905060008360200151516001600160401b038111156113ca576113ca6137ba565b6040519080825280602002602001820160405280156113f3578160200160208202803683370190505b50905060005b8460200151518110156114695761142d838660200151838151811061142057611420614065565b6020026020010151611e75565b82828151811061143f5761143f614065565b6001600160a01b03909216602092830291909101909101528061146181614091565b9150506113f9565b509392505050565b60008061147e8484611eb6565b95945050505050565b81516000908190815b818110156114e55784805190602001208682815181106114b2576114b2614065565b602002602001015180519060200120036114d3579250600191506114f19050565b806114dd81614091565b915050611490565b50600019600092509250505b9250929050565b60606112fe828401846142fa565b6115466040518060e00160405280606081526020016060815260200160608152602001606081526020016060815260200160608152602001606081525090565b600061155d83600001516040015160086001611f18565b90506040518060e001604052808260028151811061157d5761157d614065565b602002602001015181526020018260068151811061159d5761159d614065565b60200260200101518152602001826004815181106115bd576115bd614065565b60200260200101518152602001826005815181106115dd576115dd614065565b60200260200101518152602001826003815181106115fd576115fd614065565b602002602001015181526020018260018151811061161d5761161d614065565b602002602001015181526020018260078151811061163d5761163d614065565b6020026020010151815250915050919050565b60006001826040516116629190613dc6565b9081526040519081900360200190205460ff1692915050565b60008160405160200161168e9190613dc6565b60405160208183030381529060405280519060200120836040516020016116b59190613dc6565b6040516020818303038152906040528051906020012014905092915050565b80516060908290600a146117205760405162461bcd60e51b8152602060048201526013602482015272125b9d985b1a590819185d1948199bdc9b585d606a1b6044820152606401610318565b60408051600a8082528183019092526000916020820181803683370190505090508160068151811061175457611754614065565b602001015160f81c60f81b8160008151811061177257611772614065565b60200101906001600160f81b031916908160001a9053508160078151811061179c5761179c614065565b602001015160f81c60f81b816001815181106117ba576117ba614065565b60200101906001600160f81b031916908160001a905350816008815181106117e4576117e4614065565b602001015160f81c60f81b8160028151811061180257611802614065565b60200101906001600160f81b031916908160001a9053508160098151811061182c5761182c614065565b602001015160f81c60f81b8160038151811061184a5761184a614065565b60200101906001600160f81b031916908160001a905350602d60f81b8160048151811061187957611879614065565b60200101906001600160f81b031916908160001a905350816000815181106118a3576118a3614065565b602001015160f81c60f81b816005815181106118c1576118c1614065565b60200101906001600160f81b031916908160001a905350816001815181106118eb576118eb614065565b602001015160f81c60f81b8160068151811061190957611909614065565b60200101906001600160f81b031916908160001a905350602d60f81b8160078151811061193857611938614065565b60200101906001600160f81b031916908160001a9053508160038151811061196257611962614065565b602001015160f81c60f81b8160088151811061198057611980614065565b60200101906001600160f81b031916908160001a905350816004815181106119aa576119aa614065565b602001015160f81c60f81b816009815181106119c8576119c8614065565b60200101906001600160f81b031916908160001a9053509392505050565b60006119f061377a565b82516000908190815b81811015611b3d57868181518110611a1357611a13614065565b6020910101516001600160f81b031916602d60f81b1480611a585750868181518110611a4157611a41614065565b6020910101516001600160f81b031916601d60f91b145b80611a875750868181518110611a7057611a70614065565b6020910101516001600160f81b031916601560fa1b145b80611ab65750868181518110611a9f57611a9f614065565b6020910101516001600160f81b031916600160fd1b145b15611af857611ac6878483612de9565b858560068110611ad857611ad8614065565b6020020152611ae8816001614229565b925083611af481614091565b9450505b868181518110611b0a57611b0a614065565b01602001516001600160f81b031916601760f91b03611b2b57809150611b3d565b80611b3581614091565b9150506119f9565b50611b49868383612de9565b848460068110611b5b57611b5b614065565b602002015260058314611ba65760405162461bcd60e51b8152602060048201526013602482015272496e76616c6964206461746520737472696e6760681b6044820152606401610318565b611c02611bbc600086815b6020020151906112ed565b611bc96000876001611bb1565b611bd66000886002611bb1565b611be36000896003611bb1565b611bf060008a6004611bb1565b611bfd60008b6005611bb1565b612eb5565b9695505050505050565b600083818080805b8451811015611d6257603060f81b858281518110611c3457611c34614065565b01602001516001600160f81b03191610801590611c755750603960f81b858281518110611c6357611c63614065565b01602001516001600160f81b03191611155b15611cb8576030858281518110611c8e57611c8e614065565b0160200151611ca0919060f81c6140aa565b611cab85600a61423c565b611cb59190614229565b93505b8115611ccc5782611cc881614091565b9350505b876001600160f81b031916858281518110611ce957611ce9614065565b01602001516001600160f81b03191603611d50578115611d4b5760405162461bcd60e51b815260206004820152601c60248201527f537472696e6720686173206d756c7469706c6520646563696d616c73000000006044820152606401610318565b600191505b80611d5a81614091565b915050611c14565b5085821115611dbe5760405162461bcd60e51b815260206004820152602260248201527f537472696e672068617320746f6f206d616e7920646563696d616c20706c6163604482015261657360f01b6064820152608401610318565b611dc882876140aa565b611dd390600a614412565b611ddd908461423c565b98975050505050505050565b6060611e198260000151604051602001611e0591815260200190565b604051602081830303815290604052612f11565b611e2683602001516130d4565b611e39846040015163ffffffff1661323d565b611e4c856060015163ffffffff1661323d565b604051602001611e5f949392919061441e565b6040516020818303038152906040529050919050565b600080611e82845161323d565b84604051602001611e94929190614497565b6040516020818303038152906040528051906020012090506111ca8184613368565b81516000908190815b818110156114e557846001600160a01b0316868281518110611ee357611ee3614065565b60200260200101516001600160a01b031603611f06579250600191506114f19050565b80611f1081614091565b915050611ebf565b606060008360ff1611611f775760405162461bcd60e51b815260206004820152602160248201527f4d61782076616c756573206d7573742062652067726561746572207468616e206044820152600360fc1b6064820152608401610318565b8360008080808080611f8a8a60026144f2565b60ff166001600160401b03811115611fa457611fa46137ba565b604051908082528060200260200182016040528015611fcd578160200160208202803683370190505b50905060005b604051806040016040528060138152602001723d9131b7b73a32bc3a20b2323932b9b9911d1160691b815250518110156120ac57604051806040016040528060138152602001723d9131b7b73a32bc3a20b2323932b9b9911d1160691b815250818151811061204457612044614065565b01602001516001600160f81b0319168861205e838a614229565b8151811061206e5761206e614065565b01602001516001600160f81b0319161461209a5760405162461bcd60e51b815260040161031890614515565b806120a481614091565b915050611fd3565b50604051806040016040528060138152602001723d9131b7b73a32bc3a20b2323932b9b9911d1160691b81525051866120e59190614229565b95508593505b86518610801561215b575086868151811061210857612108614065565b6020910101516001600160f81b031916601160f91b1480156121595750866121316001886140aa565b8151811061214157612141614065565b6020910101516001600160f81b031916601760fa1b14155b155b15612172578561216a81614091565b9650506120eb565b865186106121925760405162461bcd60e51b815260040161031890614515565b8592508383036121fa5760405162461bcd60e51b815260206004820152602d60248201527f45787472616374696f6e206661696c65642e20456d70747920636f6e7465787460448201526c416464726573732076616c756560981b6064820152608401610318565b838161220787600261423c565b8151811061221757612217614065565b6020908102919091010152828161222f87600261423c565b61223a906001614229565b8151811061224a5761224a614065565b60209081029190910101528461225f81614091565b955061226e9050600287614229565b955060005b604051806040016040528060128152602001711131b7b73a32bc3a26b2b9b9b0b3b2911d1160711b8152505181101561234a57604051806040016040528060128152602001711131b7b73a32bc3a26b2b9b9b0b3b2911d1160711b81525081815181106122e2576122e2614065565b01602001516001600160f81b031916886122fc838a614229565b8151811061230c5761230c614065565b01602001516001600160f81b031916146123385760405162461bcd60e51b815260040161031890614560565b8061234281614091565b915050612273565b50604051806040016040528060128152602001711131b7b73a32bc3a26b2b9b9b0b3b2911d1160711b81525051866123829190614229565b95508593505b8651861080156123f857508686815181106123a5576123a5614065565b6020910101516001600160f81b031916601160f91b1480156123f65750866123ce6001886140aa565b815181106123de576123de614065565b6020910101516001600160f81b031916601760fa1b14155b155b1561240f578561240781614091565b965050612388565b8651861061242f5760405162461bcd60e51b815260040161031890614560565b8592508383036124975760405162461bcd60e51b815260206004820152602d60248201527f45787472616374696f6e206661696c65642e20456d70747920636f6e7465787460448201526c4d6573736167652076616c756560981b6064820152608401610318565b83816124a487600261423c565b815181106124b4576124b4614065565b602090810291909101015282816124cc87600261423c565b6124d7906001614229565b815181106124e7576124e7614065565b6020908102919091010152846124fc81614091565b955061250b9050600287614229565b955060005b604051806040016040528060188152602001771132bc3a3930b1ba32b22830b930b6b2ba32b939911d3d9160411b8152505181101561263c57604051806040016040528060188152602001771132bc3a3930b1ba32b22830b930b6b2ba32b939911d3d9160411b815250818151811061258b5761258b614065565b01602001516001600160f81b031916886125a5838a614229565b815181106125b5576125b5614065565b01602001516001600160f81b0319161461262a5760405162461bcd60e51b815260206004820152603060248201527f45787472616374696f6e206661696c65642e204d616c666f726d65642065787460448201526f726163746564506172616d657465727360801b6064820152608401610318565b8061263481614091565b915050612510565b50604051806040016040528060188152602001771132bc3a3930b1ba32b22830b930b6b2ba32b939911d3d9160411b815250518661267a9190614229565b9550600091505b8651861015612a245786868151811061269c5761269c614065565b6020910101516001600160f81b031916601160f91b1480156126ed5750866126c56001886140aa565b815181106126d5576126d5614065565b6020910101516001600160f81b031916601760fa1b14155b61270357856126fb81614091565b965050612681565b8161280b5786612714876001614229565b8151811061272457612724614065565b6020910101516001600160f81b031916601d60f91b14801561277457508661274d876002614229565b8151811061275d5761275d614065565b6020910101516001600160f81b031916601160f91b145b6127cc5760405162461bcd60e51b815260206004820152602360248201527f45787472616374696f6e206661696c65642e204d616c666f726d65642064617460448201526261203160e81b6064820152608401610318565b6127d7600387614229565b95506001915085816127ea87600261423c565b815181106127fa576127fa614065565b602002602001018181525050612681565b600087612819886001614229565b8151811061282957612829614065565b6020910101516001600160f81b031916600b60fa1b148015612879575087612852886002614229565b8151811061286257612862614065565b6020910101516001600160f81b031916601160f91b145b9050600088612889896001614229565b8151811061289957612899614065565b6020910101516001600160f81b031916607d60f81b1480156128e95750886128c2896002614229565b815181106128d2576128d2614065565b6020910101516001600160f81b031916600b60fa1b145b905081806128f45750805b61294c5760405162461bcd60e51b815260206004820152602360248201527f45787472616374696f6e206661696c65642e204d616c666f726d65642064617460448201526230901960e91b6064820152608401610318565b878361295989600261423c565b612964906001614229565b8151811061297457612974614065565b60209081029190910101528661298981614091565b9750508115612a09578b60ff1687036129f35760405162461bcd60e51b815260206004820152602660248201527f45787472616374696f6e206661696c65642e204578636565646564206d61782060448201526576616c75657360d01b6064820152608401610318565b6129fe600389614229565b975060009350612a1d565b612a14600389614229565b97505050612a24565b5050612681565b8815612c315760005b6040518060400160405280601081526020016f11383937bb34b232b92430b9b4111d1160811b81525051811015612b42576040518060400160405280601081526020016f11383937bb34b232b92430b9b4111d1160811b8152508181518110612a9857612a98614065565b01602001516001600160f81b03191688612ab2838a614229565b81518110612ac257612ac2614065565b01602001516001600160f81b03191614612b305760405162461bcd60e51b815260206004820152602960248201527f45787472616374696f6e206661696c65642e204d616c666f726d65642070726f6044820152680ecd2c8cae490c2e6d60bb1b6064820152608401610318565b80612b3a81614091565b915050612a2d565b506040518060400160405280601081526020016f11383937bb34b232b92430b9b4111d1160811b8152505186612b789190614229565b95508581612b8787600261423c565b81518110612b9757612b97614065565b6020026020010181815250505b865186108015612bd95750868681518110612bc157612bc1614065565b6020910101516001600160f81b031916601160f91b14155b15612bf05785612be881614091565b965050612ba4565b8581612bfd87600261423c565b612c08906001614229565b81518110612c1857612c18614065565b602090810291909101015284612c2d81614091565b9550505b6000856001600160401b03811115612c4b57612c4b6137ba565b604051908082528060200260200182016040528015612c7e57816020015b6060815260200190600190039081612c695790505b50905060005b86811015612dd95782612c9882600261423c565b81518110612ca857612ca8614065565b6020026020010151955082816002612cc0919061423c565b612ccb906001614229565b81518110612cdb57612cdb614065565b6020026020010151945060008686612cf391906140aa565b6001600160401b03811115612d0a57612d0a6137ba565b6040519080825280601f01601f191660200182016040528015612d34576020820181803683370190505b509050865b86811015612da6578a8181518110612d5357612d53614065565b01602001516001600160f81b03191682612d6d8a846140aa565b81518110612d7d57612d7d614065565b60200101906001600160f81b031916908160001a90535080612d9e81614091565b915050612d39565b5080838381518110612dba57612dba614065565b6020026020010181905250508080612dd190614091565b915050612c84565b509b9a5050505050505050505050565b6060836000612df885856140aa565b6001600160401b03811115612e0f57612e0f6137ba565b6040519080825280601f01601f191660200182016040528015612e39576020820181803683370190505b509050845b84811015612eab57828181518110612e5857612e58614065565b01602001516001600160f81b03191682612e7288846140aa565b81518110612e8257612e82614065565b60200101906001600160f81b031916908160001a90535080612ea381614091565b915050612e3e565b5095945050505050565b600081612ec3603c8561423c565b612ecf610e108761423c565b62015180612ede8b8b8b613384565b612ee8919061423c565b612ef29190614229565b612efc9190614229565b612f069190614229565b979650505050505050565b6060600082516002612f23919061423c565b6001600160401b03811115612f3a57612f3a6137ba565b6040519080825280601f01601f191660200182016040528015612f64576020820181803683370190505b5060408051808201909152601081526f181899199a1a9b1b9c1cb0b131b232b360811b602082015290915060005b84518110156130aa57818251868381518110612fb057612fb0614065565b0160200151612fc2919060f81c614269565b81518110612fd257612fd2614065565b01602001516001600160f81b03191683612fed83600261423c565b81518110612ffd57612ffd614065565b60200101906001600160f81b031916908160001a90535081825186838151811061302957613029614065565b016020015161303b919060f81c6145ab565b8151811061304b5761304b614065565b01602001516001600160f81b0319168361306683600261423c565b613071906001614229565b8151811061308157613081614065565b60200101906001600160f81b031916908160001a905350806130a281614091565b915050612f92565b50816040516020016130bc91906145bf565b60405160208183030381529060405292505050919050565b60408051602880825260608281019093526000919060208201818036833701905050905060005b60148110156132145760006131118260136140aa565b61311c90600861423c565b613127906002614412565b61313a906001600160a01b038716614269565b60f81b9050600060108260f81c61315191906145e9565b60f81b905060008160f81c601061316891906144f2565b8360f81c613176919061460b565b60f81b9050613184826134b5565b8561319086600261423c565b815181106131a0576131a0614065565b60200101906001600160f81b031916908160001a9053506131c0816134b5565b856131cc86600261423c565b6131d7906001614229565b815181106131e7576131e7614065565b60200101906001600160f81b031916908160001a905350505050808061320c90614091565b9150506130fb565b508060405160200161322691906145bf565b604051602081830303815290604052915050919050565b6060816000036132645750506040805180820190915260018152600360fc1b602082015290565b8160005b811561328e578061327881614091565b91506132879050600a83614269565b9150613268565b6000816001600160401b038111156132a8576132a86137ba565b6040519080825280601f01601f1916602001820160405280156132d2576020820181803683370190505b509050815b851561335f576132e86001826140aa565b905060006132f7600a88614269565b61330290600a61423c565b61330c90886140aa565b613317906030614624565b905060008160f81b90508084848151811061333457613334614065565b60200101906001600160f81b031916908160001a905350613356600a89614269565b975050506132d7565b50949350505050565b600080600061337785856134f0565b9150915061146981613532565b60006107b284101561339557600080fd5b838383600062253d8c60046064600c6133af600e8861463d565b6133b9919061465d565b6133c58861132461468b565b6133cf919061468b565b6133d9919061465d565b6133e49060036146b3565b6133ee919061465d565b600c806133fc600e8861463d565b613406919061465d565b61341190600c6146b3565b61341c60028861463d565b613426919061463d565b6134329061016f6146b3565b61343c919061465d565b6004600c61344b600e8961463d565b613455919061465d565b613461896112c061468b565b61346b919061468b565b613477906105b56146b3565b613481919061465d565b61348d617d4b8761463d565b613497919061468b565b6134a1919061468b565b6134ab919061463d565b611ddd919061463d565b6000600a60f883901c10156134dc576134d360f883901c6030614624565b60f81b92915050565b6134d360f883901c6057614624565b919050565b60008082516041036135265760208301516040840151606085015160001a61351a8782858561367c565b945094505050506114f1565b506000905060026114f1565b6000816004811115613546576135466146e3565b0361354e5750565b6001816004811115613562576135626146e3565b036135af5760405162461bcd60e51b815260206004820152601860248201527f45434453413a20696e76616c6964207369676e617475726500000000000000006044820152606401610318565b60028160048111156135c3576135c36146e3565b036136105760405162461bcd60e51b815260206004820152601f60248201527f45434453413a20696e76616c6964207369676e6174757265206c656e677468006044820152606401610318565b6003816004811115613624576136246146e3565b0361086c5760405162461bcd60e51b815260206004820152602260248201527f45434453413a20696e76616c6964207369676e6174757265202773272076616c604482015261756560f01b6064820152608401610318565b6000807f7fffffffffffffffffffffffffffffff5d576e7357a4501ddfe92f46681b20a08311156136b35750600090506003613737565b6040805160008082526020820180845289905260ff881692820192909252606081018690526080810185905260019060a0016020604051602081039080840390855afa158015613707573d6000803e3d6000fd5b5050604051601f1901519150506001600160a01b03811661373057600060019250925050613737565b9150600090505b94509492505050565b50805461374c90613f1d565b6000825580601f1061375c575050565b601f01602090049060005260206000209081019061086c91906137a1565b6040518060c001604052806006905b60608152602001906001900390816137895790505090565b5b808211156137b657600081556001016137a2565b5090565b634e487b7160e01b600052604160045260246000fd5b604080519081016001600160401b03811182821017156137f2576137f26137ba565b60405290565b604051606081016001600160401b03811182821017156137f2576137f26137ba565b60405161012081016001600160401b03811182821017156137f2576137f26137ba565b604051601f8201601f191681016001600160401b0381118282101715613865576138656137ba565b604052919050565b600082601f83011261387e57600080fd5b81356001600160401b03811115613897576138976137ba565b6138aa601f8201601f191660200161383d565b8181528460208386010111156138bf57600080fd5b816020850160208301376000918101602001919091529392505050565b6000602082840312156138ee57600080fd5b81356001600160401b0381111561390457600080fd5b6111ca8482850161386d565b60006020828403121561392257600080fd5b81356001600160401b0381111561393857600080fd5b820161012081850312156112fe57600080fd5b60005b8381101561396657818101518382015260200161394e565b50506000910152565b6000815180845261398781602086016020860161394b565b601f01601f19169290920160200192915050565b602081528151151560208201526020820151604082015260408201516060820152606082015160808201526000608083015160a0808401526111ca60c084018261396f565b6000602082840312156139f257600080fd5b5035919050565b6020815260006112fe602083018461396f565b6000602080830181845280855180835260408601915060408160051b870101925083870160005b82811015613a6157603f19888603018452613a4f85835161396f565b94509285019290850190600101613a33565b5092979650505050505050565b80356001600160a01b03811681146134eb57600080fd5b600060208284031215613a9757600080fd5b6112fe82613a6e565b803563ffffffff811681146134eb57600080fd5b60006001600160401b03821115613acd57613acd6137ba565b5060051b60200190565b600082601f830112613ae857600080fd5b81356020613afd613af883613ab4565b61383d565b82815260059290921b84018101918181019086841115613b1c57600080fd5b8286015b84811015613b5b5780356001600160401b03811115613b3f5760008081fd5b613b4d8986838b010161386d565b845250918301918301613b20565b509695505050505050565b600081830360a0811215613b7957600080fd5b613b816137d0565b91506080811215613b9157600080fd5b50604051608081016001600160401b038282108183111715613bb557613bb56137ba565b8160405284358352613bc960208601613a6e565b6020840152613bda60408601613aa0565b6040840152613beb60608601613aa0565b606084015291835260808401359180831115613c0657600080fd5b5050613c1484828501613ad7565b60208301525092915050565b600060408284031215613c3257600080fd5b613c3a6137d0565b905081356001600160401b0380821115613c5357600080fd5b9083019060608286031215613c6757600080fd5b613c6f6137f8565b823582811115613c7e57600080fd5b613c8a8782860161386d565b825250602083013582811115613c9f57600080fd5b613cab8782860161386d565b602083015250604083013582811115613cc357600080fd5b613ccf8782860161386d565b60408301525083526020840135915080821115613ceb57600080fd5b50613c1484828501613b66565b600082601f830112613d0957600080fd5b81356020613d19613af883613ab4565b82815260059290921b84018101918181019086841115613d3857600080fd5b8286015b84811015613b5b57613d4d81613a6e565b8352918301918301613d3c565b600080600060608486031215613d6f57600080fd5b83356001600160401b0380821115613d8657600080fd5b613d9287838801613c20565b94506020860135915080821115613da857600080fd5b50613db586828701613cf8565b925050604084013590509250925092565b60008251613dd881846020870161394b565b9190910192915050565b6000808335601e19843603018112613df957600080fd5b8301803591506001600160401b03821115613e1357600080fd5b6020019150368190038213156114f157600080fd5b60006101208236031215613e3b57600080fd5b613e4361381a565b82356001600160401b0380821115613e5a57600080fd5b613e663683870161386d565b8352613e7460208601613a6e565b602084015260408501356040840152606085013560608401526080850135915080821115613ea157600080fd5b613ead3683870161386d565b608084015260a085013560a084015260c085013560c084015260e0850135915080821115613eda57600080fd5b613ee63683870161386d565b60e084015261010091508185013581811115613f0157600080fd5b613f0d3682880161386d565b8385015250505080915050919050565b600181811c90821680613f3157607f821691505b602082108103613f5157634e487b7160e01b600052602260045260246000fd5b50919050565b601f821115613fa157600081815260208120601f850160051c81016020861015613f7e5750805b601f850160051c820191505b81811015613f9d57828155600101613f8a565b5050505b505050565b81516001600160401b03811115613fbf57613fbf6137ba565b613fd381613fcd8454613f1d565b84613f57565b602080601f8311600181146140085760008415613ff05750858301515b600019600386901b1c1916600185901b178555613f9d565b600085815260208120601f198616915b8281101561403757888601518255948401946001909101908401614018565b50858210156140555787850151600019600388901b60f8161c191681555b5050505050600190811b01905550565b634e487b7160e01b600052603260045260246000fd5b634e487b7160e01b600052601160045260246000fd5b6000600182016140a3576140a361407b565b5060010190565b818103818111156111975761119761407b565b8181036140c8575050565b6140d28254613f1d565b6001600160401b038111156140e9576140e96137ba565b6140f781613fcd8454613f1d565b6000601f82116001811461412b57600083156141135750848201545b600019600385901b1c1916600184901b1784556112e6565b600085815260209020601f19841690600086815260209020845b838110156141655782860154825560019586019590910190602001614145565b50858310156140555793015460001960f8600387901b161c19169092555050600190811b01905550565b634e487b7160e01b600052603160045260246000fd5b6000602082840312156141b757600080fd5b81356001600160401b038111156141cd57600080fd5b6111ca84828501613c20565b6000602082840312156141eb57600080fd5b815160ff811681146112fe57600080fd5b6000825161420e81846020870161394b565b685432333a35393a353960b81b920191825250600901919050565b808201808211156111975761119761407b565b80820281158282048414176111975761119761407b565b634e487b7160e01b600052601260045260246000fd5b60008261427857614278614253565b500490565b60006020828403121561428f57600080fd5b815180151581146112fe57600080fd5b600084516142b181846020890161394b565b600560f91b90830181815285519091906142d2816001850160208a0161394b565b600192019182015283516142ed81600284016020880161394b565b0160020195945050505050565b60006020828403121561430c57600080fd5b81356001600160401b0381111561432257600080fd5b6111ca84828501613cf8565b600181815b8085111561436957816000190482111561434f5761434f61407b565b8085161561435c57918102915b93841c9390800290614333565b509250929050565b60008261438057506001611197565b8161438d57506000611197565b81600181146143a357600281146143ad576143c9565b6001915050611197565b60ff8411156143be576143be61407b565b50506001821b611197565b5060208310610133831016604e8410600b84101617156143ec575081810a611197565b6143f6838361432e565b806000190482111561440a5761440a61407b565b029392505050565b60006112fe8383614371565b60008551614430818460208a0161394b565b600560f91b9083018181528651909190614451816001850160208b0161394b565b60019201918201819052855161446e816002850160208a0161394b565b6002920191820152835161448981600384016020880161394b565b016003019695505050505050565b7f19457468657265756d205369676e6564204d6573736167653a0a0000000000008152600083516144cf81601a85016020880161394b565b8351908301906144e681601a84016020880161394b565b01601a01949350505050565b60ff818116838216029081169081811461450e5761450e61407b565b5092915050565b6020808252602b908201527f45787472616374696f6e206661696c65642e204d616c666f726d656420636f6e60408201526a746578744164647265737360a81b606082015260800190565b6020808252602b908201527f45787472616374696f6e206661696c65642e204d616c666f726d656420636f6e60408201526a746578744d65737361676560a81b606082015260800190565b6000826145ba576145ba614253565b500690565b61060f60f31b8152600082516145dc81600285016020870161394b565b9190910160020192915050565b600060ff8316806145fc576145fc614253565b8060ff84160491505092915050565b60ff82811682821603908111156111975761119761407b565b60ff81811683821601908111156111975761119761407b565b818103600083128015838313168383128216171561450e5761450e61407b565b60008261466c5761466c614253565b600160ff1b8214600019841416156146865761468661407b565b500590565b80820182811260008312801582168215821617156146ab576146ab61407b565b505092915050565b80820260008212600160ff1b841416156146cf576146cf61407b565b81810583148215176111975761119761407b565b634e487b7160e01b600052602160045260246000fdfea2646970667358221220cd51f00869b24e72bff1d7bbcd44b4c077f84b9ec79f46c77071072c300f363f64736f6c63430008120033",
  "devdoc": {
    "kind": "dev",
    "methods": {
      "addProviderHash(string)": {
        "params": {
          "_newProviderHash": "New provider hash to be added"
        }
      },
      "owner()": {
        "details": "Returns the address of the current owner."
      },
      "removeProviderHash(string)": {
        "params": {
          "_removeProviderHash": "Provider hash to be removed"
        }
      },
      "renounceOwnership()": {
        "details": "Leaves the contract without owner. It will not be possible to call `onlyOwner` functions. Can only be called by the current owner. NOTE: Renouncing ownership will leave the contract without an owner, thereby disabling any functionality that is only available to the owner."
      },
      "setTimestampBuffer(uint256)": {
        "params": {
          "_timestampBuffer": "The timestamp buffer for payments"
        }
      },
      "transferOwnership(address)": {
        "details": "Transfers ownership of the contract to a new account (`newOwner`). Can only be called by the current owner."
      },
      "verifyPayment((bytes,address,uint256,uint256,string,bytes32,uint256,bytes,bytes))": {
        "params": {
          "_verifyPaymentData": "Payment proof and intent details required for verification"
        },
        "returns": {
          "_0": "result The payment verification result containing success status, intent hash, release amount, payment currency and payment ID"
        }
      },
      "verifyProofSignatures(((string,string,string),((bytes32,address,uint32,uint32),bytes[])),address[],uint256)": {
        "params": {
          "_requiredThreshold": "Minimum number of signatures required from accepted witnesses",
          "_witnesses": "List of accepted witnesses",
          "proof": "Proof to be verified"
        }
      }
    },
    "version": 1
  },
  "userdoc": {
    "kind": "user",
    "methods": {
      "addProviderHash(string)": {
        "notice": "ONLY OWNER: Add provider hash string. Provider hash must not have been previously added."
      },
      "removeProviderHash(string)": {
        "notice": "ONLY OWNER: Remove provider hash string. Provider hash must have been previously added."
      },
      "setTimestampBuffer(uint256)": {
        "notice": "OWNER ONLY: Sets the timestamp buffer for payments. This is the amount of time in seconds that the timestamp can be off by and still be considered valid. Necessary to build in flexibility  with L2 timestamps."
      },
      "verifyPayment((bytes,address,uint256,uint256,string,bytes32,uint256,bytes,bytes))": {
        "notice": "ONLY RAMP: Verifies a reclaim proof of an offchain Citi Zelle payment. Ensures the right _intentAmount * _conversionRate USD was paid to _partyToken after _intentTimestamp + timestampBuffer on Citi Zelle. Note: For Citi Zelle fiat currency is always USD. For other verifiers which support multiple currencies, _fiatCurrency needs to be checked against the fiat currency in the proof."
      },
      "verifyProofSignatures(((string,string,string),((bytes32,address,uint32,uint32),bytes[])),address[],uint256)": {
        "notice": "Verify proof generated by witnesses. Claim is constructed by hashing claimInfo (provider, context, parameters) to get the identifier. And then signing on (identifier, owner, timestamp, epoch) to get claim signature.  This function verifies a claim by performing the following checks on the claim - Calculates the hash of the claimInfo and checks if it matches the identifier in the claim - Checks if the signatures are valid and from the witnesses This function reverts if - No signatures are found on the proof - ClaimInfo hash does not match the identifier in the claim - Signatures are invalid (not from the witnesses)  DEV NOTE: This function does NOT validate that the claim provider hash is valid. That is the  responsibility of the caller. Ensure witnesses are unique otherwise the threshold can be met  with duplicate witnesses.  Parts of the code are adapted from: https://basescan.org/address/0x7281630e4346dd4c0b7ae3b4689c1d0102741410#code    "
      }
    },
    "version": 1
  },
  "storageLayout": {
    "storage": [
      {
        "astId": 7,
        "contract": "contracts/verifiers/ZelleVerifiers/ZelleCitiReclaimVerifier.sol:ZelleCitiReclaimVerifier",
        "label": "_owner",
        "offset": 0,
        "slot": "0",
        "type": "t_address"
      },
      {
        "astId": 13920,
        "contract": "contracts/verifiers/ZelleVerifiers/ZelleCitiReclaimVerifier.sol:ZelleCitiReclaimVerifier",
        "label": "isProviderHash",
        "offset": 0,
        "slot": "1",
        "type": "t_mapping(t_string_memory_ptr,t_bool)"
      },
      {
        "astId": 13923,
        "contract": "contracts/verifiers/ZelleVerifiers/ZelleCitiReclaimVerifier.sol:ZelleCitiReclaimVerifier",
        "label": "providerHashes",
        "offset": 0,
        "slot": "2",
        "type": "t_array(t_string_storage)dyn_storage"
      },
      {
        "astId": 17721,
        "contract": "contracts/verifiers/ZelleVerifiers/ZelleCitiReclaimVerifier.sol:ZelleCitiReclaimVerifier",
        "label": "nullifierRegistry",
        "offset": 0,
        "slot": "3",
        "type": "t_contract(INullifierRegistry)10131"
      },
      {
        "astId": 17723,
        "contract": "contracts/verifiers/ZelleVerifiers/ZelleCitiReclaimVerifier.sol:ZelleCitiReclaimVerifier",
        "label": "timestampBuffer",
        "offset": 0,
        "slot": "4",
        "type": "t_uint256"
      }
    ],
    "types": {
      "t_address": {
        "encoding": "inplace",
        "label": "address",
        "numberOfBytes": "20"
      },
      "t_array(t_string_storage)dyn_storage": {
        "base": "t_string_storage",
        "encoding": "dynamic_array",
        "label": "string[]",
        "numberOfBytes": "32"
      },
      "t_bool": {
        "encoding": "inplace",
        "label": "bool",
        "numberOfBytes": "1"
      },
      "t_contract(INullifierRegistry)10131": {
        "encoding": "inplace",
        "label": "contract INullifierRegistry",
        "numberOfBytes": "20"
      },
      "t_mapping(t_string_memory_ptr,t_bool)": {
        "encoding": "mapping",
        "key": "t_string_memory_ptr",
        "label": "mapping(string => bool)",
        "numberOfBytes": "32",
        "value": "t_bool"
      },
      "t_string_memory_ptr": {
        "encoding": "bytes",
        "label": "string",
        "numberOfBytes": "32"
      },
      "t_string_storage": {
        "encoding": "bytes",
        "label": "string",
        "numberOfBytes": "32"
      },
      "t_uint256": {
        "encoding": "inplace",
        "label": "uint256",
        "numberOfBytes": "32"
      }
    }
  }
}