{
  "address": "0xbeeC239145b3c461422BC2fC45B78E5fd70862F1",
  "abi": [
    {
      "inputs": [
        {
          "internalType": "address",
          "name": "_escrow",
          "type": "address"
        },
        {
          "internalType": "contract INullifierRegistry",
          "name": "_nullifierRegistry",
          "type": "address"
        },
        {
          "internalType": "uint256",
          "name": "_timestampBuffer",
          "type": "uint256"
        },
        {
          "internalType": "bytes32[]",
          "name": "_currencies",
          "type": "bytes32[]"
        }
      ],
      "stateMutability": "nonpayable",
      "type": "constructor"
    },
    {
      "anonymous": false,
      "inputs": [
        {
          "indexed": false,
          "internalType": "bytes32",
          "name": "currencyCode",
          "type": "bytes32"
        }
      ],
      "name": "CurrencyAdded",
      "type": "event"
    },
    {
      "anonymous": false,
      "inputs": [
        {
          "indexed": false,
          "internalType": "bytes32",
          "name": "currencyCode",
          "type": "bytes32"
        }
      ],
      "name": "CurrencyRemoved",
      "type": "event"
    },
    {
      "anonymous": false,
      "inputs": [
        {
          "indexed": true,
          "internalType": "address",
          "name": "previousOwner",
          "type": "address"
        },
        {
          "indexed": true,
          "internalType": "address",
          "name": "newOwner",
          "type": "address"
        }
      ],
      "name": "OwnershipTransferred",
      "type": "event"
    },
    {
      "anonymous": false,
      "inputs": [
        {
          "indexed": false,
          "internalType": "uint8",
          "name": "paymentMethod",
          "type": "uint8"
        }
      ],
      "name": "PaymentMethodVerifierRemoved",
      "type": "event"
    },
    {
      "anonymous": false,
      "inputs": [
        {
          "indexed": false,
          "internalType": "uint8",
          "name": "paymentMethod",
          "type": "uint8"
        },
        {
          "indexed": false,
          "internalType": "address",
          "name": "verifier",
          "type": "address"
        }
      ],
      "name": "PaymentMethodVerifierSet",
      "type": "event"
    },
    {
      "anonymous": false,
      "inputs": [
        {
          "indexed": false,
          "internalType": "uint256",
          "name": "timestampBuffer",
          "type": "uint256"
        }
      ],
      "name": "TimestampBufferSet",
      "type": "event"
    },
    {
      "inputs": [
        {
          "internalType": "bytes32",
          "name": "_currencyCode",
          "type": "bytes32"
        }
      ],
      "name": "addCurrency",
      "outputs": [],
      "stateMutability": "nonpayable",
      "type": "function"
    },
    {
      "inputs": [],
      "name": "escrow",
      "outputs": [
        {
          "internalType": "address",
          "name": "",
          "type": "address"
        }
      ],
      "stateMutability": "view",
      "type": "function"
    },
    {
      "inputs": [],
      "name": "getCurrencies",
      "outputs": [
        {
          "internalType": "bytes32[]",
          "name": "",
          "type": "bytes32[]"
        }
      ],
      "stateMutability": "view",
      "type": "function"
    },
    {
      "inputs": [
        {
          "internalType": "bytes32",
          "name": "",
          "type": "bytes32"
        }
      ],
      "name": "isCurrency",
      "outputs": [
        {
          "internalType": "bool",
          "name": "",
          "type": "bool"
        }
      ],
      "stateMutability": "view",
      "type": "function"
    },
    {
      "inputs": [],
      "name": "nullifierRegistry",
      "outputs": [
        {
          "internalType": "contract INullifierRegistry",
          "name": "",
          "type": "address"
        }
      ],
      "stateMutability": "view",
      "type": "function"
    },
    {
      "inputs": [],
      "name": "owner",
      "outputs": [
        {
          "internalType": "address",
          "name": "",
          "type": "address"
        }
      ],
      "stateMutability": "view",
      "type": "function"
    },
    {
      "inputs": [
        {
          "internalType": "uint8",
          "name": "",
          "type": "uint8"
        }
      ],
      "name": "paymentMethodToVerifier",
      "outputs": [
        {
          "internalType": "address",
          "name": "",
          "type": "address"
        }
      ],
      "stateMutability": "view",
      "type": "function"
    },
    {
      "inputs": [
        {
          "internalType": "bytes32",
          "name": "_currencyCode",
          "type": "bytes32"
        }
      ],
      "name": "removeCurrency",
      "outputs": [],
      "stateMutability": "nonpayable",
      "type": "function"
    },
    {
      "inputs": [
        {
          "internalType": "uint8",
          "name": "_paymentMethod",
          "type": "uint8"
        }
      ],
      "name": "removePaymentMethodVerifier",
      "outputs": [],
      "stateMutability": "nonpayable",
      "type": "function"
    },
    {
      "inputs": [],
      "name": "renounceOwnership",
      "outputs": [],
      "stateMutability": "nonpayable",
      "type": "function"
    },
    {
      "inputs": [
        {
          "internalType": "uint8",
          "name": "_paymentMethod",
          "type": "uint8"
        },
        {
          "internalType": "address",
          "name": "_verifier",
          "type": "address"
        }
      ],
      "name": "setPaymentMethodVerifier",
      "outputs": [],
      "stateMutability": "nonpayable",
      "type": "function"
    },
    {
      "inputs": [
        {
          "internalType": "uint256",
          "name": "_timestampBuffer",
          "type": "uint256"
        }
      ],
      "name": "setTimestampBuffer",
      "outputs": [],
      "stateMutability": "nonpayable",
      "type": "function"
    },
    {
      "inputs": [],
      "name": "timestampBuffer",
      "outputs": [
        {
          "internalType": "uint256",
          "name": "",
          "type": "uint256"
        }
      ],
      "stateMutability": "view",
      "type": "function"
    },
    {
      "inputs": [
        {
          "internalType": "address",
          "name": "newOwner",
          "type": "address"
        }
      ],
      "name": "transferOwnership",
      "outputs": [],
      "stateMutability": "nonpayable",
      "type": "function"
    },
    {
      "inputs": [
        {
          "components": [
            {
              "internalType": "bytes",
              "name": "paymentProof",
              "type": "bytes"
            },
            {
              "internalType": "address",
              "name": "depositToken",
              "type": "address"
            },
            {
              "internalType": "uint256",
              "name": "intentAmount",
              "type": "uint256"
            },
            {
              "internalType": "uint256",
              "name": "intentTimestamp",
              "type": "uint256"
            },
            {
              "internalType": "string",
              "name": "payeeDetails",
              "type": "string"
            },
            {
              "internalType": "bytes32",
              "name": "fiatCurrency",
              "type": "bytes32"
            },
            {
              "internalType": "uint256",
              "name": "conversionRate",
              "type": "uint256"
            },
            {
              "internalType": "bytes",
              "name": "data",
              "type": "bytes"
            }
          ],
          "internalType": "struct IPaymentVerifier.VerifyPaymentData",
          "name": "_verifyPaymentData",
          "type": "tuple"
        }
      ],
      "name": "verifyPayment",
      "outputs": [
        {
          "internalType": "bool",
          "name": "",
          "type": "bool"
        },
        {
          "internalType": "bytes32",
          "name": "",
          "type": "bytes32"
        }
      ],
      "stateMutability": "nonpayable",
      "type": "function"
    }
  ],
  "transactionHash": "0xa1069abd884ab3eefb29041fba14469ea092b10b238f90344462400404694cdf",
  "args": [
    "0x15EF83EBB422B4AC8e3b8393d016Ed076dc50CB7",
    "0x1ef021957e863FB686989755878cB98717e4FD4f",
    "0",
    [
      "0xc4ae21aac0c6549d71dd96035b7e0bdb6c79ebdba8891b666115bc976d16a29e"
    ]
  ],
  "numDeployments": 1,
  "solcInputHash": "c4b07aa321608cb5e0aa712b14322172",
  "bytecode": "0x60a06040523480156200001157600080fd5b506040516200136638038062001366833981016040819052620000349162000298565b838383836200004333620000cb565b6001600160a01b03848116608052600180546001600160a01b031916918516919091179055600282905560005b8151811015620000bc57620000a782828151811062000093576200009362000397565b60200260200101516200011b60201b60201c565b80620000b381620003ad565b91505062000070565b505050505050505050620003d5565b600080546001600160a01b038381166001600160a01b0319831681178455604051919092169283917f8be0079c531659141344cd1fd0a4f28419497f9722a3daafe3b4186f6b6457e09190a35050565b620001256200020b565b60008181526004602052604090205460ff16156200018a5760405162461bcd60e51b815260206004820152601660248201527f43757272656e637920616c72656164792061646465640000000000000000000060448201526064015b60405180910390fd5b6003805460018082019092557fc2575a0e9e593c00f959f8c92f12db2869c3395a3b0502d05e2516446f71f85b01829055600082815260046020908152604091829020805460ff1916909317909255518281527f15e2bb2d9733845f72b6cc683c4d7bafd2d79cfd5c160cb1be756b6faa97dbdc910160405180910390a150565b6000546001600160a01b03163314620002675760405162461bcd60e51b815260206004820181905260248201527f4f776e61626c653a2063616c6c6572206973206e6f7420746865206f776e6572604482015260640162000181565b565b6001600160a01b03811681146200027f57600080fd5b50565b634e487b7160e01b600052604160045260246000fd5b60008060008060808587031215620002af57600080fd5b8451620002bc8162000269565b80945050602080860151620002d18162000269565b6040870151606088015191955093506001600160401b0380821115620002f657600080fd5b818801915088601f8301126200030b57600080fd5b81518181111562000320576200032062000282565b8060051b604051601f19603f8301168101818110858211171562000348576200034862000282565b60405291825284820192508381018501918b8311156200036757600080fd5b938501935b8285101562000387578451845293850193928501926200036c565b989b979a50959850505050505050565b634e487b7160e01b600052603260045260246000fd5b600060018201620003ce57634e487b7160e01b600052601160045260246000fd5b5060010190565b608051610f6e620003f86000396000818161024801526104a50152610f6e6000f3fe608060405234801561001057600080fd5b50600436106100f55760003560e01c80638da5cb5b11610097578063dbac582111610066578063dbac58211461022c578063e2fdcc1714610243578063efd4ad5a1461026a578063f2fde38b1461027d57600080fd5b80638da5cb5b146101e25780639bd825dc146101f3578063b2a3fda414610206578063b870676c1461021957600080fd5b806361c661de116100d357806361c661de14610188578063690371801461019d578063715018a6146101b057806384c7b439146101b857600080fd5b8063048eb7d4146100fa5780631be2cd92146101405780633e1d0edc14610155575b600080fd5b610123610108366004610c13565b6005602052600090815260409020546001600160a01b031681565b6040516001600160a01b0390911681526020015b60405180910390f35b61015361014e366004610c13565b610290565b005b610178610163366004610c35565b60046020526000908152604090205460ff1681565b6040519015158152602001610137565b610190610350565b6040516101379190610c4e565b6101536101ab366004610c35565b6103a8565b610153610483565b6101cb6101c6366004610c92565b610497565b604080519215158352602083019190915201610137565b6000546001600160a01b0316610123565b610153610201366004610ce5565b61079c565b610153610214366004610c35565b610864565b600154610123906001600160a01b031681565b61023560025481565b604051908152602001610137565b6101237f000000000000000000000000000000000000000000000000000000000000000081565b610153610278366004610c35565b6108a1565b61015361028b366004610d18565b61094f565b6102986109c8565b60ff81166000908152600560205260409020546001600160a01b03166102f85760405162461bcd60e51b815260206004820152601060248201526f15995c9a599a595c881b9bdd081cd95d60821b60448201526064015b60405180910390fd5b60ff811660008181526005602090815260409182902080546001600160a01b031916905590519182527f4be328516f258d140a377f6872882fd99a1b36ef5f9651bc115d8460f75885e491015b60405180910390a150565b6060600380548060200260200160405190810160405280929190818152602001828054801561039e57602002820191906000526020600020905b81548152602001906001019080831161038a575b5050505050905090565b6103b06109c8565b60008181526004602052604090205460ff16156104085760405162461bcd60e51b815260206004820152601660248201527510dd5c9c995b98de48185b1c9958591e48185919195960521b60448201526064016102ef565b6003805460018082019092557fc2575a0e9e593c00f959f8c92f12db2869c3395a3b0502d05e2516446f71f85b01829055600082815260046020908152604091829020805460ff1916909317909255518281527f15e2bb2d9733845f72b6cc683c4d7bafd2d79cfd5c160cb1be756b6faa97dbdc9101610345565b61048b6109c8565b6104956000610a22565b565b600080336001600160a01b037f000000000000000000000000000000000000000000000000000000000000000016146105095760405162461bcd60e51b815260206004820152601460248201527313db9b1e48195cd8dc9bddc818d85b8818d85b1b60621b60448201526064016102ef565b3660006105168580610d33565b90925090506001811161056b5760405162461bcd60e51b815260206004820152601b60248201527f496e76616c6964207061796d656e7450726f6f66206c656e677468000000000060448201526064016102ef565b60008282600081811061058057610580610d7a565b919091013560f81c9150369050600061059c8460018188610d90565b60ff851660009081526005602052604090205491935091506001600160a01b0316806105fd5760405162461bcd60e51b815260206004820152601060248201526f15995c9a599a595c881b9bdd081cd95d60821b60448201526064016102ef565b806001600160a01b03166384c7b43960405180610100016040528086868080601f0160208091040260200160405190810160405280939291908181526020018383808284376000920191909152505050908252506020908101906106679060408f01908f01610d18565b6001600160a01b031681526020018c6040013581526020018c6060013581526020018c80608001906106999190610d33565b8080601f01602080910402602001604051908101604052809392919081815260200183838082843760009201919091525050509082525060a08d0135602082015260c08d013560408201526060016106f460e08e018e610d33565b8080601f01602080910402602001604051908101604052809392919081815260200183838082843760009201919091525050509152506040516001600160e01b031960e084901b16815261074b9190600401610e00565b60408051808303816000875af1158015610769573d6000803e3d6000fd5b505050506040513d601f19601f8201168201806040525081019061078d9190610ea7565b97509750505050505050915091565b6107a46109c8565b6001600160a01b0381166107fa5760405162461bcd60e51b815260206004820152601860248201527f496e76616c69642076657269666965722061646472657373000000000000000060448201526064016102ef565b60ff821660008181526005602090815260409182902080546001600160a01b0319166001600160a01b0386169081179091558251938452908301527fd8e1f06d5de917bb570bc05b81bb3af012f0f62897fe6a439b176d338ebaff25910160405180910390a15050565b61086c6109c8565b60028190556040518181527f11e8dda5412ecab251b7783921be2eb37fdf13b389fc7f671f2cee11a1dfefea90602001610345565b6108a96109c8565b60008181526004602052604090205460ff166108fc5760405162461bcd60e51b815260206004820152601260248201527110dd5c9c995b98de481b9bdd08185919195960721b60448201526064016102ef565b610907600382610a72565b60008181526004602052604090819020805460ff19169055517fa3c6a408fb053e3ef5e9bcd22e3574324a5ae99fad263cc4080da481842d3d4c906103459083815260200190565b6109576109c8565b6001600160a01b0381166109bc5760405162461bcd60e51b815260206004820152602660248201527f4f776e61626c653a206e6577206f776e657220697320746865207a65726f206160448201526564647265737360d01b60648201526084016102ef565b6109c581610a22565b50565b6000546001600160a01b031633146104955760405162461bcd60e51b815260206004820181905260248201527f4f776e61626c653a2063616c6c6572206973206e6f7420746865206f776e657260448201526064016102ef565b600080546001600160a01b038381166001600160a01b0319831681178455604051919092169283917f8be0079c531659141344cd1fd0a4f28419497f9722a3daafe3b4186f6b6457e09190a35050565b600080610ace84805480602002602001604051908101604052809291908181526020018280548015610ac357602002820191906000526020600020905b815481526020019060010190808311610aaf575b505050505084610b9a565b9150915080610b175760405162461bcd60e51b8152602060048201526015602482015274313cba32b99999103737ba1034b71030b93930bc9760591b60448201526064016102ef565b8354600090610b2890600190610ef0565b9050808314610b6d57848181548110610b4357610b43610d7a565b9060005260206000200154858481548110610b6057610b60610d7a565b6000918252602090912001555b84805480610b7d57610b7d610f09565b600190038181906000526020600020016000905590555050505050565b81516000908190815b81811015610bea5784868281518110610bbe57610bbe610d7a565b602002602001015103610bd857925060019150610bf69050565b80610be281610f1f565b915050610ba3565b50600019600092509250505b9250929050565b803560ff81168114610c0e57600080fd5b919050565b600060208284031215610c2557600080fd5b610c2e82610bfd565b9392505050565b600060208284031215610c4757600080fd5b5035919050565b6020808252825182820181905260009190848201906040850190845b81811015610c8657835183529284019291840191600101610c6a565b50909695505050505050565b600060208284031215610ca457600080fd5b813567ffffffffffffffff811115610cbb57600080fd5b82016101008185031215610c2e57600080fd5b80356001600160a01b0381168114610c0e57600080fd5b60008060408385031215610cf857600080fd5b610d0183610bfd565b9150610d0f60208401610cce565b90509250929050565b600060208284031215610d2a57600080fd5b610c2e82610cce565b6000808335601e19843603018112610d4a57600080fd5b83018035915067ffffffffffffffff821115610d6557600080fd5b602001915036819003821315610bf657600080fd5b634e487b7160e01b600052603260045260246000fd5b60008085851115610da057600080fd5b83861115610dad57600080fd5b5050820193919092039150565b6000815180845260005b81811015610de057602081850181015186830182015201610dc4565b506000602082860101526020601f19601f83011685010191505092915050565b6020815260008251610100806020850152610e1f610120850183610dba565b91506020850151610e3b60408601826001600160a01b03169052565b5060408501516060850152606085015160808501526080850151601f19808685030160a0870152610e6c8483610dba565b935060a087015160c087015260c087015160e087015260e0870151915080868503018387015250610e9d8382610dba565b9695505050505050565b60008060408385031215610eba57600080fd5b82518015158114610eca57600080fd5b6020939093015192949293505050565b634e487b7160e01b600052601160045260246000fd5b81810381811115610f0357610f03610eda565b92915050565b634e487b7160e01b600052603160045260246000fd5b600060018201610f3157610f31610eda565b506001019056fea2646970667358221220a60b8e5c26f94a7ea16d20f557be09646962d86a0fb672bd40bbcc6e31f2fe5764736f6c63430008120033",
  "devdoc": {
    "kind": "dev",
    "methods": {
      "addCurrency(bytes32)": {
        "params": {
          "_currencyCode": "Currency code to add"
        }
      },
      "owner()": {
        "details": "Returns the address of the current owner."
      },
      "removeCurrency(bytes32)": {
        "params": {
          "_currencyCode": "Currency code to remove"
        }
      },
      "removePaymentMethodVerifier(uint8)": {
        "params": {
          "_paymentMethod": "The payment method to remove the verifier for."
        }
      },
      "renounceOwnership()": {
        "details": "Leaves the contract without owner. It will not be possible to call `onlyOwner` functions. Can only be called by the current owner. NOTE: Renouncing ownership will leave the contract without an owner, thereby disabling any functionality that is only available to the owner."
      },
      "setPaymentMethodVerifier(uint8,address)": {
        "params": {
          "_paymentMethod": "The payment method to set the verifier for.",
          "_verifier": "The address of the verifier to set."
        }
      },
      "setTimestampBuffer(uint256)": {
        "params": {
          "_timestampBuffer": "The timestamp buffer for payments"
        }
      },
      "transferOwnership(address)": {
        "details": "Transfers ownership of the contract to a new account (`newOwner`). Can only be called by the current owner."
      },
      "verifyPayment((bytes,address,uint256,uint256,string,bytes32,uint256,bytes))": {
        "params": {
          "_verifyPaymentData": "Payment proof, intent details, and payment method required for verification"
        }
      }
    },
    "version": 1
  },
  "userdoc": {
    "kind": "user",
    "methods": {
      "addCurrency(bytes32)": {
        "notice": "OWNER ONLY: Adds a currency code to supported currencies"
      },
      "removeCurrency(bytes32)": {
        "notice": "OWNER ONLY: Removes a currency code from supported currencies"
      },
      "removePaymentMethodVerifier(uint8)": {
        "notice": "ONLY OWNER: Removes the verifier for a payment method."
      },
      "setPaymentMethodVerifier(uint8,address)": {
        "notice": "ONLY OWNER: Sets the verifier for a payment method."
      },
      "setTimestampBuffer(uint256)": {
        "notice": "OWNER ONLY: Sets the timestamp buffer for payments. This is the amount of time in seconds that the timestamp can be off by and still be considered valid. Necessary to build in flexibility  with L2 timestamps."
      },
      "verifyPayment((bytes,address,uint256,uint256,string,bytes32,uint256,bytes))": {
        "notice": "ONLY RAMP: Verifies a reclaim proof of an offchain Zelle payment. Because Zelle supports multiple payment methods  (each with their own verification logic), the _verifyPaymentData.paymentProof field should contain the payment method. Payment method should be encodePacked with the payment proof. We chose this over encoding it as (uint8, bytes) because computation is cheaper on L2 than calldata."
      }
    },
    "version": 1
  },
  "storageLayout": {
    "storage": [
      {
        "astId": 7,
        "contract": "contracts/verifiers/ZelleBaseVerifier.sol:ZelleBaseVerifier",
        "label": "_owner",
        "offset": 0,
        "slot": "0",
        "type": "t_address"
      },
      {
        "astId": 9452,
        "contract": "contracts/verifiers/ZelleBaseVerifier.sol:ZelleBaseVerifier",
        "label": "nullifierRegistry",
        "offset": 0,
        "slot": "1",
        "type": "t_contract(INullifierRegistry)15265"
      },
      {
        "astId": 9454,
        "contract": "contracts/verifiers/ZelleBaseVerifier.sol:ZelleBaseVerifier",
        "label": "timestampBuffer",
        "offset": 0,
        "slot": "2",
        "type": "t_uint256"
      },
      {
        "astId": 9457,
        "contract": "contracts/verifiers/ZelleBaseVerifier.sol:ZelleBaseVerifier",
        "label": "currencies",
        "offset": 0,
        "slot": "3",
        "type": "t_array(t_bytes32)dyn_storage"
      },
      {
        "astId": 9461,
        "contract": "contracts/verifiers/ZelleBaseVerifier.sol:ZelleBaseVerifier",
        "label": "isCurrency",
        "offset": 0,
        "slot": "4",
        "type": "t_mapping(t_bytes32,t_bool)"
      },
      {
        "astId": 13323,
        "contract": "contracts/verifiers/ZelleBaseVerifier.sol:ZelleBaseVerifier",
        "label": "paymentMethodToVerifier",
        "offset": 0,
        "slot": "5",
        "type": "t_mapping(t_uint8,t_address)"
      }
    ],
    "types": {
      "t_address": {
        "encoding": "inplace",
        "label": "address",
        "numberOfBytes": "20"
      },
      "t_array(t_bytes32)dyn_storage": {
        "base": "t_bytes32",
        "encoding": "dynamic_array",
        "label": "bytes32[]",
        "numberOfBytes": "32"
      },
      "t_bool": {
        "encoding": "inplace",
        "label": "bool",
        "numberOfBytes": "1"
      },
      "t_bytes32": {
        "encoding": "inplace",
        "label": "bytes32",
        "numberOfBytes": "32"
      },
      "t_contract(INullifierRegistry)15265": {
        "encoding": "inplace",
        "label": "contract INullifierRegistry",
        "numberOfBytes": "20"
      },
      "t_mapping(t_bytes32,t_bool)": {
        "encoding": "mapping",
        "key": "t_bytes32",
        "label": "mapping(bytes32 => bool)",
        "numberOfBytes": "32",
        "value": "t_bool"
      },
      "t_mapping(t_uint8,t_address)": {
        "encoding": "mapping",
        "key": "t_uint8",
        "label": "mapping(uint8 => address)",
        "numberOfBytes": "32",
        "value": "t_address"
      },
      "t_uint256": {
        "encoding": "inplace",
        "label": "uint256",
        "numberOfBytes": "32"
      },
      "t_uint8": {
        "encoding": "inplace",
        "label": "uint8",
        "numberOfBytes": "1"
      }
    }
  }
}